:020000040800F2
:1000000068E20020690200084D2700084527000823
:1000100049270008850B00080DA500080000000016
:10002000000000000000000000000000AD0100081A
:10003000890C00080000000001020008059A000871
:10004000830200088302000883020008830200087C
:10005000830200088302000883020008830200086C
:10006000830200088302000883020008890B00084D
:10007000990B0008A90B0008B90B0008C90B000870
:10008000D90B0008E90B00088302000800000000FB
:1000900000000000000000000000000083020008D3
:1000A000830200088302000883020008830200081C
:1000B000830200088302000883020008830200080C
:1000C00083020008830200088302000883020008FC
:1000D0008302000891A40008B5A4000800000000F5
:1000E0008302000883020008830200080000000069
:1000F000000000000000000000000000F90B0008F4
:100100000000000083020008830200088302000848
:1001100000000000000000000000000000000000DF
:10012000090C0008190C0008290C0008390C0008FB
:10013000490C000800000000000000000000000062
:100140000000000000000000000000008302000822
:10015000590C0008690C0008790C0008E1A400089B
:100160008302000883020008000000000000000075
:10017000000000000000000000000000000000007F
:1001800000000000830200080000000000000000E2
:100190008302000883020008DFF80CD000F092FB15
:1001A00000480047CDB5000868E200202B4B1968D5
:1001B0000868B0E8F04F80F30988BFF36F8F4FF005
:1001C000000080F3118870470000000006480068B6
:1001D000006880F3088862B661B6BFF34F8FBFF343
:1001E0006F8F00DF00BF00BF08ED00E0DFF80C00FC
:1001F000016841F470010160704700BF88ED00E0C4
:10020000EFF30980BFF36F8F144B1A681EF0100FC5
:1002100008BF20ED108A20E9F04F106008B44FF0BD
:10022000500080F31188BFF34F8FBFF36F8F0BF037
:1002300073FF4FF0000080F3118808BC196808684C
:10024000B0E8F04F1EF0100F08BFB0EC108A80F33A
:100250000988BFF36F8F704700BF00BF8C0000207C
:10026000EFF30580704700000648804706480047C6
:10027000FEE7FEE7FEE7FEE7FEE7FEE7FEE7FEE756
:10028000FEE7FEE70D9A00089901000840EA010325
:100290009B0703D009E008C9121F08C0042AFAD23C
:1002A00003E011F8013B00F8013B521EF9D2704700
:1002B000D2B201E000F8012B491EFBD270470022A8
:1002C000F6E710B513460A4604461946FFF7F0FF55
:1002D000204610BD10B5044604E00B7800F8013B41
:1002E00003B1491C521EF8D2204610BD421C10F822
:1002F000011B0029FBD1801A704710B5002200E0D5
:10030000521C835C8C5CA34201D1002BF8D1D8B283
:10031000E1B2401A10BD034611F8012B00F8012B81
:10032000002AF9D11846704730B50546002003462B
:1003300000E05B1C934205D2EC5CC85C201A01D142
:10034000002CF6D130BD000070B500B91068002552
:1003500012E00B4602E0A64203D05B1C1C78002C86
:10036000F9D1E3B22B4305D02CB125B1002100F81F
:10037000011B04E00546401C0678002EE9D1106000
:10038000284670BD004ADFE7E80000200EB540F2C5
:10039000334102910021CDE900110A460B4600F0DD
:1003A0007AF803B000BD01F0004330B421F0004101
:1003B00050EA010206D00A0DA2F56072C1F31301E2
:1003C000002A02DC30BC00207047440F44EAC1041C
:1003D000C100E01830BC00EBC25000F016B830B5D8
:1003E0000B46014600202022012409E021FA02F5F3
:1003F0009D4205D303FA02F5491B04FA02F528448D
:10040000151EA2F10102F1DC30BD0029A8BF704722
:10041000401C490008BF20F00100704710B4B0FA3A
:1004200080FC00FA0CF050EA010404BF10BC7047D5
:1004300049B1CCF1200421FA04F411FA0CF118BFEF
:10044000012121430843A3EB0C01CB1D4FEA0061BE
:100450004FEA102042BF002010BC704700EBC35091
:1004600010440029A4BF10BC7047401C490008BFBD
:1004700020F0010010BC704710B5141E73F1000489
:1004800008DA401C41F1000192185B411A4301D186
:1004900020F0010010BD2DE9F04D92469B4611B1B0
:1004A000B1FA81F202E0B0FA80F22032904600F018
:1004B0001BFA04460F4640EA0A0041EA0B01534684
:1004C0005A46084313D0114653EA010019D0C8F127
:1004D0004002504600F017FA05460E46504659466F
:1004E000424600F001FA084305D0012004E020460E
:1004F0003946BDE8F08D0020054346EAE0762C43FE
:1005000037430A986305E40AA0EB08000022FD0ABD
:1005100044EA47540A3002D500200146E9E70105C4
:1005200010196941DDE9084500196941BDE8F04D40
:10053000A2E72DE9FE4F804681EA0300C00F0C467A
:10054000009021F0004123F00045B8EB0200A941E2
:1005500005D24046214690461C460B46024623F0F3
:100560000040104347D0270DC7F30A00C3F30A51D8
:100570000290401A019040286BDAC3F3130040F454
:10058000801B0098924620B10023D2EB030A63EB54
:100590000B0B01985946C0F14002504600F0A4F9F7
:1005A00006460D4650465946019A00F0BCF910EB3C
:1005B00008006141002487EA115284EAE7731A4374
:1005C00040D0009A62B3019A012A4FEA075215DC23
:1005D000001B61EB02014FF0004202EA0752CDE935
:1005E0000042001C41F5801132462B46FFF753FFB5
:1005F00003B0BDE8F08F40462146F9E7001B61EBF0
:100600000201001C41F5801300185B412018A2F57F
:10061000001747EB030140EAD570B6196D4111E0B0
:100620006D084FEA360645EAC0754FEA0752001BCF
:1006300061EB0201001C41F5801149084FEA3000CE
:100640000019514132462B4603B0BDE8F04FFFF789
:1006500013BF0098012240000023D0EB020263EB9D
:10066000E073009821464FEAE074B8EB000061EBBC
:100670000401E9E783F000435BE781F0004158E7BC
:100680002DE9FE4F81EA030404F0004421F000410B
:1006900000944FF0000B23F0004350EA01045ED0B9
:1006A00052EA03045BD0C3F30A54C1F30A552C4445
:1006B000A4F2F3340194A0FB0254C1F3130141F4FA
:1006C0008011C3F3130343F4801301FB024400FBC6
:1006D000034E840A970A44EA815447EA8357A4FBED
:1006E000076802958D0A05FB07854FEA932C04FBEA
:1006F0000C542705029D4FEA065847EA1637B5EB1A
:1007000008056EEB070C870E920E47EA811742EA46
:100710008312A7FB0201B6EB0B0164EB00042B0D67
:1007200043EA0C335E1844EB1C50DA465146E7FBB3
:100730000201C5F313044FEA0B3343EA14534FEAA3
:100740000432019C43EA0603A4F10C040294009CC9
:10075000CDE900B4FFF79FFE03B0BDE8F08F0020A5
:100760000146F9E72DE9F04D81EA030404F0004B5E
:1007700021F0004514464FF0000A23F0004150EAF2
:10078000050220D054EA01021DD0C5F30A570246E3
:10079000C5F31303C1F31300C1F30A5640F48015E7
:1007A00043F48013A7EB0608101BD64608F2FD3869
:1007B00073EB050002D308F1010801E092185B41D8
:1007C000B8F1000F03DA00200146BDE8F08D0020EB
:1007D0004FF48011064684460EE0171B73EB0507A5
:1007E00005D3121B63EB050306434CEA010C4908D1
:1007F0004FEA300092185B4150EA0107EDD152EA0E
:10080000030012D082EA040083EA0501084305D000
:10081000101BAB4106D20122002306E000224FF05C
:10082000004302E06FF0010253101AEB06004CEB9C
:10083000085110EB0A0041EB0B01BDE8F04DFFF74A
:100840001BBE70B521F0004303430CD0C1F30A5521
:100850000024D5EB040564EB0403D617AD1AB341AD
:1008600002DB0020014670BD201841EB025170BD33
:100870000EB5C10F80EAE0700844CA07002140F2BB
:1008800033438DE80E000A460B46FFF704FE03B023
:1008900000BD000030B5041E71F1000404DB4FF010
:1008A0000044404264EB0101141E73F1000405DBB7
:1008B0001C464FF00043524263EB0403994208BFC9
:1008C000904230BD064C074D06E0E06840F0010361
:1008D00094E8070098471034AC42F6D3FFF760FC69
:1008E00078CB000898CB0008202A04DB203A00FAD5
:1008F00002F1002070479140C2F1200320FA03F377
:10090000194390407047202A04DB203A21FA02F074
:100910000021704721FA02F3D040C2F12002914039
:10092000084319467047202A06DBCB17203A41FAC4
:1009300002F043EAE07306E041FA02F3D040C2F16C
:10094000200291400843194670472DE9F04D0023DD
:100950001A461B1A8A4103DB00200146BDE8F08DD0
:10096000C1F30A52C1F3130141F480154FF0000B9B
:10097000D10702D100186D41521E0027044640F2F3
:10098000FF11384601EB620A3E46804602460020CF
:100990004FF48011FFF7B7FFC2197141BB1846EB46
:1009A0000100B4EB030C75EB000C04D3E41A65EB07
:1009B000000517460E46241908F101006D418046D6
:1009C0003428E3DDF91946EB0600091BA84103D2E0
:1009D0004FF0FF32134601E0002213461BEB0700E5
:1009E00046EB0A51BDE8F04DFFF746BD30B5014674
:1009F000002409B9002030BD4A688B689A4200D1B2
:100A00000C68934200D99C1A9A4202D9D51A0868F8
:100A1000441B601EEFE730B503460BB9002030BD24
:100A200059689A68914200D10024914200D98C1AE9
:100A30008A4202D9551A1868441B2046EFE770B560
:100A400004460D4616460CB9012070BD18212046FB
:100A5000FFF735FC2560E6600A206074E06868B93D
:100A600028460AF00BFEE060E06818B9002020601C
:100A70000120EAE7207C40F002002074207C40F056
:100A8000010020740020E0E72DE9F0470446884685
:100A900015464FF0000904B115B90020BDE8F087F4
:100AA0002168A068884201D30020A0602046FFF79B
:100AB000B2FF0746AF4203D20FB90020EEE73D4632
:100AC000A1682068461AAE4200D92E46D4E9022019
:100AD000811832464046FFF7D9FBB144A068304444
:100AE000A060AD1B35B108EB09002A46E168FFF7AD
:100AF000CDFBA5602168A068884201D30020A060DA
:100B000009EB0500CAE72DE9F0470446894615467A
:100B10004FF0000804B115B90020BDE8F087D4E912
:100B20000010884201D3002060602046FFF75EFF7E
:100B30000746AF4203D20FB90020EEE73D46D4E9A5
:100B40000001461AAE4200D92E466268E168881854
:100B500032464946FFF79AFBB04460683044606013
:100B6000AD1B35B109EB08012A46E068FFF78EFBA3
:100B70006560D4E90010884201D30020606008EB72
:100B80000500CAE700BFFEE710B5024809F05BF8B0
:100B900010BD00001060024010B5024809F053F883
:100BA00010BD00002860024010B5024809F04BF863
:100BB00010BD00004060024010B5024809F043F843
:100BC00010BD00005860024010B5024809F03BF823
:100BD00010BD00007060024010B5024809F033F803
:100BE00010BD00008860024010B5024809F02BF8E3
:100BF00010BD0000A060024010B5024809F023F8C3
:100C000010BD0000B860024010B5024809F01BF8A2
:100C100010BD00001064024010B5024809F013F83E
:100C200010BD00002864024010B5024809F00BF81E
:100C300010BD00004064024010B5024809F003F8FE
:100C400010BD00005864024010B5024808F0FBFFD8
:100C500010BD00007064024010B5024808F0F3FFB8
:100C600010BD00008864024010B5024808F0EBFF98
:100C700010BD0000A064024010B5024808F0E3FF78
:100C800010BD0000B8640240704770B504460D46C0
:100C900000BFA08920B994F8D800C0F3400018B173
:100CA00000BF0220207170BD00BF00BF04F1D4005E
:100CB00000F0E2FD08B10420F5E7A08908B920683A
:100CC000606140F20330A08100BF00BF4FF47A7032
:100CD000E0614DB994F8D80020F0010084F8D80004
:100CE00000BF00202071DEE794F8D80020F001005A
:100CF000401C84F8D8004FF47A71204600F0AAFF17
:100D00000346042B00D1CEE7237E00202076184630
:100D1000C9E7024602F14200704770B504460D462D
:100D200000BFA08920B994F8D800C0F3400018B1E2
:100D300000BF0220207170BD00BF00BF04F1D400CD
:100D400000F09AFD08B10420F5E7A08908B92068F1
:100D500060614FF44170A08100BF00BF4FF47A7012
:100D6000E0614DB994F8D80020F0010084F8D80073
:100D700000BF00202071DEE794F8D80020F00100C9
:100D8000401C84F8D8004FF47A71204600F062FFCE
:100D90000346042B00D1CEE7237E002020761846A0
:100DA000C9E7000070B504460D46164600BF1DB9E0
:100DB00000BF0320207170BD00BF00BFA08920B913
:100DC00094F8D800C0F3400018B100BF0220207191
:100DD000F1E700BF00BF04F1D40000F04DFD08B101
:100DE0000420E8E7A08908B92068606140F201307A
:100DF000A08100BF1248056000BF4FF47A70E06127
:100E00004EB994F8D80020F0010084F8D80000BF53
:100E100000202071CFE794F8D80020F00100401C9A
:100E200084F8D8004FF47A71204600F013FF03468F
:100E3000042B00D1BFE7237E002020761846BAE7B6
:100E40005C05002070B505460E4625B1042D06D080
:100E5000052D1FD11AE011A009F05AFB1BE001215A
:100E60001348FFF756FF0446A07840B9607818B9D8
:100E700010A009F04DFB02E017A009F049FBA07893
:100E8000062802D11DA009F043FB04E020A009F0D0
:100E90003FFB00E000BF00BF002070BD53746163E2
:100EA0006B2069732049444C45210D0A0000000065
:100EB000D0010020536F6D656F6E652068617320EF
:100EC000616E737765726564206F75722063616C03
:100ED0006C210D0A000000005765206861766520CE
:100EE000616E73776572656420696E636F6D696E9C
:100EF000672063616C6C210D0A00000043616C6C1B
:100F00002066696E6973686564210D0A000000003F
:100F100052494E47494E47210D0A00000246002023
:100F20007047000070B504460D46034E2A46214620
:100F30003046FFF7E8FD70BDC002002008B502464C
:100F40001068009000BF1068009BC01A8842FAD356
:100F500000BF0020107108BD2DE9F04705460E4680
:100F6000174698463224DFF8F893FE480560F021D2
:100F70000068FFF7A4F9FB480068C0F8DC80F94876
:100F80000068D0F8DC0020B9F748F6490968C1F8D4
:100F9000DC000020F349096881F86C000621F14863
:100FA000006880F844100020EE4909680860EF4AA4
:100FB0004FF400714846FFF742FDEA480068876039
:100FC000E8480068083000F00FFA30B100BF072091
:100FD000E44909680871BDE8F0870121E14800682B
:100FE000083000F031FA0A21DE480068FFF7A6FF5A
:100FF0000021DC480068083000F026FAD948006873
:10100000D43000F01BFC28B100BF0620D549096888
:101010000871E0E700BF0020D5490880D549088065
:10102000D5490880D5490880D5490880D549088028
:10103000D5490880D5490880D549088000BFC948EE
:10104000006890F8D80020F00100401CC5490968EC
:1010500081F8D8004FF47A70C2490968C8611C2130
:10106000CC48FFF72CF923E000BFBE480068D4301D
:1010700000F002FC08B10420ADE7BA48006880899E
:1010800028B9B84800680068B64909684861052071
:10109000B4490968888100BF4FF47A71B14800688B
:1010A00000F0D8FDAF480068007E00B902E0641E81
:1010B000002CD9D100BF23E000BFAA480068D4307B
:1010C00000F0DAFB08B1042085E7A64800688089B3
:1010D00028B9A44800680068A2490968486104204A
:1010E000A0490968888100BF4FF47A719D48006863
:1010F00000F0B0FD9B480068007E00B902E0641E6D
:10110000002CD9D100BF23E000BF96480068D4303E
:1011100000F0B2FB08B104205DE7924800688089C6
:1011200028B99048006800688E4909684861022023
:101130008C490968888100BF4FF47A71894800683A
:1011400000F088FD87480068007E00B902E0641E58
:10115000002CD9D100BF23E000BF82480068D43002
:1011600000F08AFB08B1042035E77E4800688089DA
:1011700028B97C48006800687A49096848610320FA
:1011800078490968888100BF4FF47A717548006812
:1011900000F060FD73480068007E00B902E0641E44
:1011A000002CD9D100BF2BE07A48066000BF6D4803
:1011B0000068D43000F060FB08B104200BE76948F8
:1011C0000068808928B9674800680068654909682F
:1011D000486140F2011063490968888100BF4FF4FB
:1011E0007A716048006800F035FD5E480068007E56
:1011F00000B907E064215B480068FFF79FFE641EAA
:10120000002CD1D100BF1C216248FFF758F824E020
:1012100000BF54480068D43000F02EFB08B1042011
:10122000D9E650480068808928B94E4800680068AF
:101230004C490968486140F206404A49096888817A
:1012400000BF4FF47A714748006800F003FD45483D
:101250000068007E00B902E0641E002CD8D100BFF7
:1012600023E000BF3F480068D43000F005FB08B120
:101270000420B0E63B480068808928B939480068F6
:10128000006838490968486107203649096888813B
:1012900000BF4FF47A713348006800F0DBFC31483E
:1012A0000068007E00B902E0641E002CD9D100BFA6
:1012B00023E000BF2B480068D43000F0DDFA08B10D
:1012C000042088E627480068808928B925480068F6
:1012D00000682449096848610A2022490968888110
:1012E00000BF4FF47A711F48006800F0B3FC1D483E
:1012F0000068007E00B902E0641E002CD9D100BF56
:101300001848006890F8D80020F0010015490968D5
:1013100081F8D80000BF13480068D43000F09EFA6E
:10132000002010490968888100BF114908801149CF
:101330000880114908801149088011490880114925
:10134000088011490880114908801149088000BFB0
:101350000448006890F8D80000F0010038BB1BE09A
:10136000C00200205C0000201D0F0008D8020020F1
:101370006000002062000020640000206600002061
:10138000680000206A0000206C0000206E00002031
:10139000700000205C0500201148006890F8D8001B
:1013A00020F00200801C0E49096881F8D8001C2139
:1013B0000C48FEF784FF00BF0948006890F8D80089
:1013C00020F002000649096881F8D80000BF0448EF
:1013D0000068007E287102480068007EFBE500007E
:1013E0005C0000205C0500201CB5044600210D486F
:1013F000226808F0EBFE0020012103460A46CDE9F1
:1014000000100221084808F0CDFC0020012103460D
:101410000A46CDE900100821034808F0C3FC00206B
:101420001CBD0000001001400000024070B50646DF
:101430000C4615462A462146024808F000FF0020C7
:1014400070BD0000001001400246012903D148048C
:10145000034B986102E00220014B98610020704725
:10146000000002402F4B4FF4E1322FA13048FFF72C
:1014700073FD044621462FA009F04AF850E02C489D
:1014800000F0CAF808F062FB002849D00121284882
:10149000FFF73FFC2D490860084600688078062861
:1014A00014D12BA009F034F8012235A12048FFF710
:1014B00079FC3649087018B935A009F029F82FE0F1
:1014C0003248017835A009F023F829E01F48006868
:1014D0008078042810D101211548FFF7D6FB2B494D
:1014E000087018B934A009F013F819E027480178FA
:1014F00035A009F00DF813E014480068807878B939
:1015000001210B48FFF709FC2049087018B936A0E3
:1015100008F0FEFF04E01D48017837A008F0F8FF4E
:10152000ADE70000450E0008313233340000000002
:10153000D001002047534D20496E697420737461B7
:101540007475733A2025640D0A0000004C000020D9
:1015500043616C6C20646973636F6E6E6563746560
:10156000642C20747279696E6720746F2063616CDB
:101570006C20736F6D656F6E65210D0A00000000B1
:101580003034303136373732340000004800002024
:1015900043616C6C696E67210D0A00004572726FC1
:1015A0007220747279696E6720746F2063616C6C4D
:1015B0003A2025640D0A0000416E737765726564F8
:1015C000204F4B0D0A0000004572726F722074723A
:1015D00079696E6720746F20616E737765723A2047
:1015E00025640D0A0000000048616E67656455704F
:1015F000204F4B0D0A0000004572726F722074720A
:1016000079696E6720746F2068616E672075703A23
:101610002025640D0A00000070B50446A08978B941
:1016200094F8D800C0F3400050B114F8D80F20F05F
:10163000020020706268D83C04F1E001002090476D
:10164000A089C8B994F8D800C0F34000A0B9D92047
:10165000005DC0F3800078B1D920005D20F0040166
:10166000D920015504F14200C4F8E000D4F8DC2090
:1016700004F1E00104209047A089C8B994F8D8008B
:10168000C0F34000A0B9D920005DC0F3C00078B11C
:10169000D920005D20F00801D920015504F1420055
:1016A000C4F8E000D4F8DC2004F1E0010520904704
:1016B000A089A8B994F8D800C0F3400080B9D92017
:1016C000005DC0F3400058B1D920005D20F0020158
:1016D000D9200155D4F8DC2004F1E0010620904720
:1016E000A089A8B994F8D800C0F3400080B9DA20E6
:1016F000005D00F0010058B1DA20005D20F001012A
:10170000DA200155D4F8DC2004F1E00107209047ED
:10171000A089A8B994F8D800C0F3400080B9DA20B5
:10172000005DC0F3400058B1DA20005D20F00201F6
:10173000DA200155D4F8DC2004F1E00108209047BC
:10174000A089A8B994F8D800C0F3400080B9DA2085
:10175000005DC0F3800058B1DA20005D20F0040184
:10176000DA200155D4F8DC2004F1E001092090478B
:10177000A089A8B994F8D800C0F3400080B9DA2055
:10178000005DC0F3C00058B1DA20005D20F0080110
:10179000DA200155D4F8DC2004F1E0010A2090475A
:1017A000A089A8B994F8D800C0F3400080B9DA2025
:1017B000005DC0F3001058B1DA20005D20F0100188
:1017C000DA200155D4F8DC2004F1E0010B20904729
:1017D00000252DE004F1740050F8250000B925E043
:1017E000A08910BB94F8D800C0F34000E8B904F118
:1017F000740050F82500807DC0F38000A8B104F18A
:10180000740151F8251001F11600897D21F00401C1
:10181000017004F1740050F82500C4F8E000D4F819
:10182000DC2004F1E0010120904700BF681CC5B234
:10183000062DCFDB00BF0020207170BD10B504461F
:10184000204609F056FF044908600846006808B9B8
:10185000012010BD0020FCE78800002010B50446E0
:101860000448006809F04CFF08B1012010BD0020B9
:10187000FCE700008800002010B504464FF47A71A0
:101880000448006809F064FF08B1012010BD002081
:10189000FCE7000088000020F8B50446DE4D4FF458
:1018A000FA76A08988B120686169401AE1698842A6
:1018B0000BD914F8EC0F20F00400001D20702078E4
:1018C00020F00200801C04F8EC0997E1A08940F2A6
:1018D000317188421FD1D920005DC0F38010D0B192
:1018E0009DF80030AC210859411CAC2211519821BF
:1018F00009590B54B0200059401EB0210851B020A6
:101900000059002806D1D920005D20F04001D920DF
:10191000015500266AE1A08940F23E7188421ED13D
:10192000D920005DC009D0B19DF80030C021085910
:10193000411CC0221151B82109590B54C42000592F
:10194000401EC4210851C42000590028E2D1D920EA
:10195000005D20F08001D9200155002646E1A089D4
:1019600040F22C71884222D1D920005DC0F3401092
:10197000E8B1AA49C8689DF800204389591C4181F3
:101980004168CA54018A491E0182018A71B9D9216C
:10199000095D21F02002D9210A55817D21F0020143
:1019A0008175817D21F00401817500261EE1A089E9
:1019B00040F20221884240D1D920005D00F00100B0
:1019C000D0B39649C86890F8A3109F2909D29DF812
:1019D000002010F8A33F0178491C00F8A319C11C8E
:1019E000CA549DF800100A2925D18D4909780D297E
:1019F00021D190F8A31002291DDB90F8A310891EB5
:101A0000C21C515C0D290AD190F8A310491E515CEB
:101A10000A2904D190F8A310891E80F8A31000228F
:101A200090F8A330C11CCA54D921095D21F00102EC
:101A3000D9210A550026D9E0FFE7A08940F2052107
:101A4000884250D1D920005D00F00100D0B3734826
:101A50000069008871498969884234D26F49C86831
:101A60009DF8002010F8A33F0178491C00F8A31945
:101A7000C11CCA549DF800100A2922D1684909786E
:101A80000D291ED190F8A31002291ADB10F8A31F0C
:101A9000891E0170002210F8A339C11CCA545F4985
:101AA000C968D4315D4AD160114609690988491C69
:101AB00012691180D921095D21F00102D9210A554D
:101AC000002693E00FE09DF800000A28B3D15448A7
:101AD00000780D28AFD1D920005D20F00101D92078
:101AE0000155002682E0DA20005DC0F34010C0B14D
:101AF0009DF800000A2806D1DA20005D20F02001C0
:101B0000DA20015572E09DF800003A2801D1012049
:101B100000E0002002469DF80010204606F096FEE8
:101B200064E09DF800000A281BD100BF9DF800105A
:101B30003C4802780078401C3A4B1870581C81547D
:101B40000021401E0278401C815400BF411E2046E7
:101B500007F074F900BF002032490870487000BFD8
:101B600043E09DF8000020280ED12D4800783E2843
:101B70000AD12D4800780A2806D194F8EC0020F00C
:101B80000800083084F8EC0000BF9DF800102548DC
:101B900002780078401C234B1870581C8154002197
:101BA000401E0278401C815400BFA089B0F5026F2E
:101BB0001AD118460078052816D1184640782B28E7
:101BC00012D1052219A1581CFEF7AEFB60B9DA202C
:101BD000005D20F020002030DA21085500BF0020F1
:101BE00010490870487000BF00BF00BF0C48007863
:101BF0000D4908709DF80000094908703EB10122A6
:101C000069462846FEF740FF00287FF45FAE204675
:101C100007F06EFEF8BD0000C00200205C05002049
:101C200085000020D9040020860000202B434F505F
:101C300053000000024610680844106000BF0020F6
:101C40001071704702E00248FFF726FEFBE7000034
:101C5000D00100200246D16100BF90890028FCD14C
:101C600092F8D800C0F340000028F6D100BF107EE3
:101C70001071107E70470000014800687047000036
:101C80000400002010B52E480068401C2C49086054
:101C90002C48006820B12B480068401E2949086084
:101CA000002444E0284850F8240000283DD026486D
:101CB00050F824000078C0F34000B0B3224850F838
:101CC0002400806840B1204850F824008068401EFD
:101CD0001D4951F8241088601B4850F82400806882
:101CE00018BB194B53F824301969174B53F82400CB
:101CF00053F82430DA689047134850F824004168BC
:101D0000114850F8240081600F4850F824000078F2
:101D100000F0010048B90C4850F82400007820F089
:101D20000201094850F824000170601CC4B2064842
:101D3000001F0078A042B5DC07F0CCFE10BD00000B
:101D400004000020000000201C01002010B50D48F8
:101D5000006840F400700B4908600846006840F4D1
:101D6000806008600846006840F4807008600320C6
:101D700000F086F80F2000F007F800F017F80020B8
:101D800010BD0000003C024070B5044600F0E4F9CC
:101D90004FF47A71B0FBF1F5284600F081FC002287
:101DA0002146501E00F02DF8002070BD7047000045
:101DB00000BF00F01F0201219140034A430942F88D
:101DC000231000BF7047000080E200E000BF00F079
:101DD0001F0201219140034A430942F8231000BF2A
:101DE0007047000080E100E000BF00F01F02012109
:101DF00091404209920002F1E022C2F8001100BFB6
:101E000070472DE9F05F80460D461646002700F02A
:101E10009FFC074639462A46334601F00700C0F1C9
:101E2000070ABAF1040F02D94FF0040A01E0C0F129
:101E3000070AD14600F1040ABAF1070F02D24FF0A7
:101E4000000A01E0A0F1030AD4464FF0010A0AFAA1
:101E500009FAAAF1010A0AEA020A0AFA0CFA4FF090
:101E6000010B0BFA0CFBABF1010B0BEA030B4AEA7B
:101E70000B042146404600F073FCBDE8F09F0000D3
:101E800000BF00F00702064B19684FF6FF03194028
:101E9000044B0B4343EA0221014B196000BF70471A
:101EA0000CED00E00000FA0570B504460E46002572
:101EB000A748006800F00F00B0426FD2A4490E702E
:101EC0000846006800F00F00B04201D0012070BD4C
:101ED000207800F00200022807D19E48006820F018
:101EE000F000A16808439B490860207800F00100D9
:101EF00000283ED06068012807D19648083800685D
:101F0000C0F34040B8B90120E1E76068022802D080
:101F10006068032807D18F4808380068C0F3406024
:101F200048B90120D3E78B4808380068C0F3400067
:101F300008B90120CBE78748006820F003006168FA
:101F4000084384490860FFF797FE0546606801284A
:101F500010D108E0FFF790FE401B41F28831884223
:101F600001D90320B3E77B48006800F00C00042887
:101F7000F0D1CDE06068022811D108E0FFF77CFEC7
:101F8000401B41F28831884201D903209FE7714804
:101F9000006800F00C000828F0D1B9E024E0606887
:101FA000032810D108E0FFF767FE401B41F288319B
:101FB000884201D903208AE76648006800F00C00D7
:101FC0000328F0D1A4E008E0FFF756FE401B41F2E1
:101FD0008831884201D9032079E75E48006800F023
:101FE0000C000028F0D193E0207800F002000228D5
:101FF00007D15848006820F0F000A168084355490F
:102000000860207800F00100002877D0606801287F
:1020100007D1504808380068C0F34040B8B90120E3
:1020200055E76068022802D06068032807D1494854
:1020300008380068C0F3406048B9012047E74548C8
:1020400008380068C0F3400008B901203FE7414864
:10205000006820F00300616808433E490860FFF70C
:102060000BFE05466068012810D108E0FFF704FE6A
:10207000401B41F28831884201D9032027E73548C7
:10208000006800F00C000428F0D137E060680228F6
:1020900010D108E0FFF7F0FD401B41F28831884283
:1020A00001D9032013E72B48006800F00C00082832
:1020B000F0D123E06068032810D108E0FFF7DCFDD1
:1020C000401B41F28831884201D90320FFE62148B4
:1020D000006800F00C000328F0D10FE008E0FFF7E3
:1020E000CBFD401B41F28831884201D90320EEE646
:1020F0001848006800F00C000028F0D114490E7058
:102100000846006800F00F00B04201D00120DEE672
:10211000207800F00400042807D10E48006820F45D
:10212000E050E16808430B490860207800F008009F
:10213000082808D10748006820F46040216940EA77
:10214000C100044908600F20FFF71EFE0020BEE614
:10215000003C02400838024010B500F045F809493B
:10216000096801F0F001F02292FAA2F2B2FA82F2CA
:10217000D140054A515CC8400449086008460068DF
:1021800010BD00000838024084CA00085800002032
:1021900010B5FFF7E1FF0749096801F4E0514FF47A
:1021A000E05292FAA2F2B2FA82F2D140024A515CB3
:1021B000C84010BD0838024084CA000810B5FFF7B7
:1021C000CBFF0749096801F460414FF4604292FA7D
:1021D000A2F2B2FA82F2D140024A515CC84010BD6C
:1021E0000838024084CA000870B50021002200238C
:1021F0000020274C246804F00C0424B1042C04D0E3
:10220000082C41D103E0234840E023483EE0204C25
:10221000241F246804F03F011D4C241F246804F48B
:10222000800484B11C4CB4FBF1F5194C241F2468C4
:1022300047F6C076344096FAA6F6B6FA86F6F4402B
:1022400005FB04F20FE0134CB4FBF1F5104C241F16
:10225000246847F6C076344096FAA6F6B6FA86F6B3
:10226000F44005FB04F20A4C241F246804F44034B3
:102270004FF4403595FAA5F5B5FA85F5EC40641CA8
:102280006300B2FBF3F001E0024800BF00BF70BD85
:10229000083802400024F40000127A0038B50446E1
:1022A0000025207800F00100002866D0F64800687C
:1022B00000F00C0004280DD0F348006800F00C007A
:1022C000082813D1F048001F006800F48000B0F522
:1022D000800F0BD1EC4808380068C0F3404000285C
:1022E0004BD06068002848D1012038BD0020E64965
:1022F000891F0870FFF7C0FC054608E0FFF7BCFC2B
:10230000401B41F28831884201D90320EDE7DE48C5
:1023100008380068C0F340400028EFD12079DA493E
:10232000891F08706068A0B1FFF7A6FC054608E0A9
:10233000FFF7A2FC401B41F28831884201D90320FB
:10234000D3E7D14808380068C0F340400028EFD0F8
:1023500013E0FFF791FC054608E0FFF78DFC401BFA
:1023600041F28831884201D90320BEE7C6480838C7
:102370000068C0F340400028EFD1207800F0020050
:10238000022869D1C048006800F00C0058B1BE486E
:10239000006800F00C00082821D1BB48001F00682D
:1023A00000F48000D8B9B84808380068C0F340008D
:1023B00020B1E068012801D0012096E7B248083832
:1023C000006820F0F800F82292FAA2F2B2FA82F243
:1023D000216991400843AC49083908603CE0E06855
:1023E00028B30120A9490860FFF746FC054606E02E
:1023F000FFF742FC401B642801D9032075E7A2487F
:1024000008380068C0F340000028F1D09E48083822
:10241000006820F0F800F82292FAA2F2B2FA82F2F2
:1024200021699140084398490839086014E0002068
:1024300096490860FFF720FC054606E0FFF71CFC04
:10244000401B642801D903204FE78F4808380068F3
:10245000C0F340000028F1D1207800F008000828DF
:102460002CD16069A8B1012089490860FFF704FCFC
:10247000054606E0FFF700FC401B642801D9032055
:1024800033E781486C300068C0F340000028F1D089
:1024900014E000207E490860FFF7EEFB054606E0E9
:1024A000FFF7EAFB401B642801D903201DE77648AB
:1024B0006C300068C0F340000028F1D1207800F0B3
:1024C000040004286DD100BF6F483830006840F028
:1024D00080506D49383108600846006800F080502F
:1024E000009000BF00BF6B48006840F480706949ED
:1024F0000860FFF7C1FB054606E0FFF7BDFB401B88
:10250000642801D90320F0E66248006800F4807076
:102510000028F2D000205C4968310870FFF7ACFB5E
:10252000054608E0FFF7A8FB401B41F288318842CE
:1025300001D90320D9E6544868300068C0F3400050
:102540000028EFD1207A504968310870A068A0B106
:10255000FFF792FB054608E0FFF78EFB401B41F2B8
:102560008831884201D90320BFE6474868300068B7
:10257000C0F340000028EFD013E0FFF77DFB0546D5
:1025800008E0FFF779FB401B41F28831884201D90E
:102590000320AAE63C4868300068C0F340000028E9
:1025A000EFD1A069F0B33848006800F00C000828AB
:1025B00072D0A069022850D1002034490866FFF784
:1025C0005BFB054606E0FFF757FB401B642801D97B
:1025D00003208AE62C4808380068C0F340600028D1
:1025E000F1D1D4E90701084347F6C07292FAA2F28A
:1025F000B2FA82F2616A914008430122A16AC2EBF9
:1026000051014FF4403292FAA2F2B2FA82F29140B2
:1026100008434FF0706292FAA2F2B2FA82F2E16AD3
:10262000914000E03AE008431749091F0860012083
:1026300016490866FFF720FB054606E0FFF71CFB7E
:10264000401B642801D903204FE60F480838006872
:10265000C0F340600028F1D020E000200B4908665C
:10266000FFF70AFB054606E0FFF706FB401B642860
:1026700001D9032039E6044808380068C0F34060F7
:102680000028F1D10AE007E0083802400000474284
:10269000800E474200700040012026E6002024E61C
:1026A00070B504462546681EB0F1807F01D3012035
:1026B0000FE0681E4FF0E02148610F214FF0FF301E
:1026C00000F04EF800204FF0E021886107200861FB
:1026D000002070BD10B504460CB9012010BDA069E2
:1026E00000B100E000BF94F8390028B9002084F858
:1026F0003800204600F025F8022084F839002068D0
:10270000C06820F400502168C860204607F0AEFD84
:102710002068006920F490402168086120684069C1
:1027200020F02A00216848612068C06840F4005009
:102730002168C8600020E063012084F8390000208F
:10274000CCE7704700BFFEE700BFFEE77047000020
:1027500002480068C0F30220704700000CED00E062
:1027600010B5002807DA0A07140E054A00F00F0317
:102770001B1FD45403E00A07130E024A135410BD62
:1027800018ED00E000E400E070B505460C46224676
:1027900002A1284607F0CCFE70BD000025750000A0
:1027A0007CB505460C46288840F2E552811A9042D5
:1027B0007DD008DC70B1A0F2C15028B30A2877D0D0
:1027C000182876D114E10D2974D0182973D0232943
:1027D000F7D1D6E294F86C00012859D000BF002050
:1027E000C4F8EC0000BF0822FEA104F10800FEF7C7
:1027F0001DFE0222FEA104F10800FEF717FE00BF35
:1028000040F2C150288000BF94F8EC0000F00100B5
:1028100030B994F8EC00C0F3400008B900207CBD4A
:1028200000BF94F86C00012832D00820207600BF49
:1028300004F1D400FFF712F80020A08100BFED4999
:102840000880ED490880ED490880ED490880ED4990
:102850000880ED490880ED490880ED490880ED4980
:10286000088000BF94F8D80000F0010030B994F857
:10287000D80020F00200801C84F8D8001C21E64813
:10288000FDF71DFD00BF00BF002028800220C6E725
:10289000A08940F20131884274D100BF0020C4F801
:1028A000EC0000BF0322DDA104F1080004E00DE10B
:1028B00027E0A7E27AE103E2FEF7B8FDD64908680F
:1028C000FDF714FD86B2D4483246016804F10800D1
:1028D000FEF7ACFD0122D2A104F10800FEF7A6FD2F
:1028E0000222C3A104F10800FEF7A0FD002240F27D
:1028F0000131204607F07EF800BF40F2CB5028801F
:1029000000BF94F8EC0000F0010030B994F8EC003E
:10291000C0F3400008B9002081E700BF94F8EC0044
:1029200000F0010080F00100207600BF04F1D40027
:10293000FEF794FF0020A08100BFAE490880AE4999
:102940000880AE490880AE490880AE490880AE498B
:102950000880AE490880AE490880AE49088000BFB3
:1029600094F8D80000F0010030B994F8D80020F0B5
:102970000200801C84F8D8001C21A748FDF79FFCAA
:102980003FE2FFE7A08940F20531884271D100BFE4
:102990000020C4F8EC0000BF9F4881696846FFF73B
:1029A000F3FE09229FA104F10800FEF73FFD6846EF
:1029B000FDF79CFC86B23246694604F10800FEF73A
:1029C00035FD012296A104F10800FEF72FFD022239
:1029D00087A104F10800FEF729FD002240F205312D
:1029E000204607F007F800BF40F2D950288000BF0A
:1029F00094F8EC0000F0010030B994F8EC00C0F35A
:102A0000400008B900200AE700BF94F8EC0000F08D
:102A1000010080F00100207600BF04F1D400FEF731
:102A20001DFF0020A08100BF724908807249088004
:102A3000724908807249088072490880724908808A
:102A400072490880724908807249088000BF94F872
:102A5000D80000F0010030B994F8D80020F002004E
:102A6000801C84F8D8001C216B48FDF728FCC8E1C5
:102A7000FFE7A08940F20231884267D100BF002001
:102A8000C4F8EC0000BF032264A104F10800FEF7C3
:102A9000CDFC61490868FDF729FC86B25E483246E4
:102AA000016804F10800FEF7C1FC022250A104F104
:102AB0000800FEF7BBFC002240F20231204606F07F
:102AC00099FF00BF40F2E550288000BF94F8EC0069
:102AD00000F0010030B994F8EC00C0F3400008B9F0
:102AE00000209CE600BF94F8EC0000F0010080F0AC
:102AF0000100207600BF04F1D400FEF7AFFE0020F5
:102B0000A08100BF3B4908803B4908803B490880C1
:102B10003B4908803B4908803B4908803B49088085
:102B20003B4908803B49088000BF94F8D80000F07A
:102B3000010030B994F8D80020F00200801C84F81D
:102B4000D8001C213448FDF7BAFB5AE1A08940F2B5
:102B5000063188426CD100BF0020C4F8EC0000BFF1
:102B60002D4881696846FFF70FFE09222DA104F167
:102B70000800FEF75BFC6846FDF7B8FB86B23246FC
:102B8000694604F10800FEF751FC022218A104F185
:102B90000800FEF74BFC002240F20631204606F00A
:102BA00029FF00BF40F2F250288000BF94F8EC00EB
:102BB00000F0010030B994F8EC00C0F3400008B90F
:102BC00000202CE600BF94F8EC0000F0010080F03B
:102BD0000100207600BF04F1D400FEF73FFE002084
:102BE000A08126E041542B4350494E3F0000000095
:102BF0000D0A000060000020620000206400002038
:102C000066000020680000206A0000206C000020A0
:102C10006E000020700000205C050020415444003C
:102C20003B0000004154443E22534D22200000004E
:102C300024E000BF764908807649088076490880FC
:102C40007649088076490880764908807649088068
:102C5000764908807649088000BF94F8D80000F0D3
:102C6000010030B994F8D80020F00200801C84F8EC
:102C7000D8001C216F48FDF722FBC2E0A08940F27A
:102C8000033188425CD100BF0020C4F8EC0000BFD3
:102C9000032269A104F10800FEF7C8FB0222AFF28B
:102CA000B00104F10800FEF7C1FB002240F203313D
:102CB000204606F09FFE00BF40F2FD50288000BF76
:102CC00094F8EC0000F0010030B994F8EC00C0F387
:102CD000400008B90020A2E500BF94F8EC0000F025
:102CE000010080F00100207600BF04F1D400FEF75F
:102CF000B5FD0020A08100BF4549088045490880F6
:102D0000454908804549088045490880454908806B
:102D100045490880454908804549088000BF94F826
:102D2000D80000F0010030B994F8D80020F002007B
:102D3000801C84F8D8001C213E48FDF7C0FA60E0F2
:102D4000A089B0F5417F5CD100BF0020C4F8EC0041
:102D500000BF032239A104F10800FEF767FB02223D
:102D6000AFF2741104F10800FEF760FB00224FF48B
:102D70004171204606F03EFE00BF4FF4C16028803E
:102D800000BF94F8EC0000F0010030B994F8EC00BA
:102D9000C0F3400008B9002041E500BF94F8EC0002
:102DA00000F0010080F00100207600BF04F1D400A3
:102DB000FEF754FD0020A08100BF15490880154989
:102DC000088015490880154908801549088015496B
:102DD000088015490880154908801549088000BFFA
:102DE00094F8D80000F0010030B994F8D80020F031
:102DF0000200801C84F8D8001C210E48FDF75FFA01
:102E000000BF00BF00BF00202880032007E50000AE
:102E100060000020620000206400002066000020A6
:102E2000680000206A0000206C0000206E00002076
:102E3000700000205C0500204154410041544800CE
:102E400070B505460C46288820B1A0F2FE60002827
:102E500062D120E0A08940F2016188425BD100BFCD
:102E60000020C4F8EC0000BF08222EA104F10800E5
:102E7000FEF7DCFA02222EA104F10800FEF7D6FAD2
:102E8000002240F20161204606F0B4FD00BF40F28E
:102E9000FE60288000BF94F8EC0000F0010030B91B
:102EA00094F8EC00C0F3400008B9002070BD00BFEA
:102EB00094F8EC0000F0010080F00100207600BFE3
:102EC00004F1D400FEF7CAFC0020A08100BF19491C
:102ED000088019490880194908801949088019494A
:102EE000088019490880194908801949088019493A
:102EF000088000BF94F8D80000F0010030B994F8C1
:102F0000D80020F00200801C84F8D8001C21124850
:102F1000FDF7D5F900BF00BF00BF002028800320C7
:102F2000C4E7000041542B43434C4B3F00000000DA
:102F30000D0A0000600000206200002064000020F4
:102F400066000020680000206A0000206C0000205D
:102F50006E000020700000205C0500207CB5054656
:102F60000C462888B0F5996F7BD011DC40F2A7425F
:102F7000A0EB0201904275D005DCA0B1A0F29C400C
:102F8000002870D12DE00B296ED01629F9D14AE125
:102F9000A0F2D340002868D00B2867D018287DD035
:102FA0002928EED16DE3A089052860D100BF00205B
:102FB000C4F8EC0000BF0222FEA104F10800FEF7F5
:102FC00035FA0222FCA104F10800FEF72FFA0022D4
:102FD0000421204606F00EFD00BF40F29C402880F0
:102FE00000BF94F8EC0000F0010030B994F8EC0058
:102FF000C0F3400008B900207CBD00BF94F8EC008D
:1030000000F0010080F00100207600BF04F1D40040
:10301000FEF724FC0020A08100BFE8490880E849B1
:103020000880E8490880E8490880E8490880E849BC
:103030000880E8490880E8490880E849088000BF1E
:1030400094F8D80000F0010030B994F8D80020F0CE
:103050000200801C84F8D8001C21E148FDF72FF9FC
:103060004FE33EE123E04DE37FE098E130E2A089C9
:1030700004285CD100BF0020C4F8EC0000BF04228B
:10308000D8A104F10800FEF7D1F90222CAA104F187
:103090000800FEF7CBF90022042100E086E220467A
:1030A00006F0A8FC00BF40F2A740288000BF94F8BB
:1030B000EC0000F0010030B994F8EC00C0F34000DF
:1030C00008B9002098E700BF94F8EC0000F0010078
:1030D00080F00100207600BF04F1D400FEF7BEFBB3
:1030E0000020A08100BFB5490880B5490880B549D6
:1030F0000880B5490880B5490880B5490880B549B8
:103100000880B5490880B549088000BF94F8D80008
:1031100000F0010030B994F8D80020F00200801CC3
:1031200084F8D8001C21AE48FDF7C9F8E9E2A0896F
:1031300001285AD100BF0020C4F8EC0000BF1122C2
:10314000AAA104F10800FEF771F902229AA104F184
:103150000800FEF76BF900220121204606F04AFC28
:1031600000BF40F2B240288000BF94F8EC0000F0AD
:10317000010030B994F8EC00C0F3400008B9002019
:103180003AE700BF94F8EC0000F0010080F0010085
:10319000207600BF04F1D400FEF760FB0020A08180
:1031A00000BF86490880864908808649088086498C
:1031B00008808649088086490880864908808649B3
:1031C00008808649088000BF94F8D80000F001000C
:1031D00030B994F8D80020F00200801C84F8D800A0
:1031E0001C217F48FDF76BF88BE2A08902285AD199
:1031F00000BF0020C4F8EC0000BF092280A104F148
:103200000800FEF713F902226BA104F10800FEF793
:103210000DF900220221204606F0ECFB00BF40F22F
:10322000BD40288000BF94F8EC0000F0010030B9E8
:1032300094F8EC00C0F3400008B90020DCE600BFC1
:1032400094F8EC0000F0010080F00100207600BF4F
:1032500004F1D400FEF702FB0020A08100BF574913
:1032600008805749088057490880574908805749BE
:1032700008805749088057490880574908805749AE
:10328000088000BF94F8D80000F0010030B994F82D
:10329000D80020F00200801C84F8D8001C2150487F
:1032A000FDF70DF82DE2A08903285AD100BF0020B8
:1032B000C4F8EC0000BF092254A104F10800FEF795
:1032C000B5F802223CA104F10800FEF7AFF8002295
:1032D0000321204606F08EFB00BF4FF49960288042
:1032E00000BF94F8EC0000F0010030B994F8EC0055
:1032F000C0F3400008B900207EE600BF94F8EC005F
:1033000000F0010080F00100207600BF04F1D4003D
:10331000FEF7A4FA0020A08100BF284908802849B0
:1033200008802849088028490880284908802849B9
:10333000088028490880284908802849088000BF5B
:1033400094F8D80000F0010030B994F8D80020F0CB
:103350000200801C84F8D8001C212148FCF7AFFF34
:10336000CFE1A08906287DD100BF0020C4F8EC0081
:1033700000BF042228A104F10800FEF757F802223A
:103380000DA104F10800FEF751F8002206212046A5
:1033900006F030FB00BF40F2D340288000BF94F815
:1033A000EC0000F00100D8BB94F8EC00C0F3400042
:1033B000B0BB36E0415400000D0A00006000002060
:1033C00062000020640000206600002068000020E9
:1033D0006A0000206C0000206E00002070000020B9
:1033E0005C050020415426460000000041542B4358
:1033F0004E4D493D312C322C302C302C3000000009
:1034000041542B434D45453D3100000041542B4371
:103410004C43433D31000000415445300000000062
:1034200001E00020E8E500BF94F8EC0000F00100A6
:1034300080F00100207600BF04F1D400FEF70EFA00
:103440000020A08100BFB2490880B2490880B2497B
:103450000880B2490880B2490880B2490880B24960
:10346000088000E015E0B1490880B149088000BF3C
:1034700094F8D80000F0010030B994F8D80020F09A
:103480000200801C84F8D8001C21AA48FCF717FF12
:1034900037E1A08907285BD100BF0020C4F8EC0009
:1034A00000BF0422A4A104F10800FDF7BFFF02221F
:1034B000AFF2FC0104F10800FDF7B8FF002207217C
:1034C000204606F097FA00BF40F2DE40288000BF99
:1034D00094F8EC0000F0010030B994F8EC00C0F36F
:1034E000400008B9002087E500BF94F8EC0000F028
:1034F000010080F00100207600BF04F1D400FEF747
:10350000ADF90020A08100BF814908808149088071
:103510008149088081490880814908808149088063
:1035200081490880814908808149088000BF94F85A
:10353000D80000F0010030B994F8D80020F0020063
:10354000801C84F8D8001C217A48FCF7B8FED8E02B
:10355000A089092871D100BF0020C4F8EC0000BF89
:10356000744881696846FFF70FF9082274A104F1D5
:103570000800FDF75BFF6846FCF7B8FE86B23246EE
:10358000694604F10800FDF751FF0222AFF2D8119D
:1035900004F10800FDF74AFF00220821204606F04A
:1035A00029FA00BF40F2EB40288000BF94F8EC00FD
:1035B00000F0010030B994F8EC00C0F3400008B905
:1035C000002019E500BF94F8EC0000F0010080F045
:1035D00001002076207E18B95648806984F86D0075
:1035E00000BF04F1D400FEF739F90020A08100BF2C
:1035F000474908804749088047490880474908806B
:10360000474908804749088047490880474908805A
:103610004749088000BF94F8D80000F0010030B995
:1036200094F8D80020F00200801C84F8D8001C21F7
:103630004048FCF744FE64E0FFE7A0890A2860D117
:1036400000BF0020C4F8EC0000BF3A48816968461A
:10365000FFF79AF808223DA104F10800FDF7E6FE05
:103660000222AFF2AC2104F10800FDF7DFFE0022D8
:103670000821204606F0BEF900BF40F2FC40288039
:1036800000BF94F8EC0000F0010030B994F8EC00B1
:10369000C0F3400008B90020AEE400BF94F8EC008D
:1036A00000F0010080F00100207600BF04F1D4009A
:1036B000FEF7D4F80020A08100BF15490880154905
:1036C0000880154908801549088015490880154962
:1036D000088015490880154908801549088000BFF1
:1036E00094F8D80000F0010030B994F8D80020F028
:1036F0000200801C84F8D8001C210E48FCF7DFFD76
:1037000000BF00BF00BF00202880032074E4000039
:10371000600000206200002064000020660000209D
:10372000680000206A0000206C0000206E0000206D
:10373000700000205C05002041544531000000006D
:1037400041542B4346554E3D0000000041542B434D
:1037500046554E3F000000002DE9FF4105460C464E
:10376000FE48C6681A200090288840F6E102811AB7
:10377000904201F0778361DC40F2E172A0EB02013C
:10378000904271D02EDC40F26672A0EB02019042B2
:103790006BD016DCB0F5E76F68D009DC002870D07C
:1037A000A0F2137000286DD0152842F07F86AEE19C
:1037B000A0F24170002874D00E2873D01728F4D1DD
:1037C000BEE242296FD006DC0E296DD01C296CD0D8
:1037D0003429EAD1C8E3502968D05E2967D0672927
:1037E000E3D1CDE3892901F0978012DC2F297DD028
:1037F00006DC08297BD01A297AD02929D5D1FBE308
:10380000492976D0632900F09F876B29CDD100F03C
:10381000C6BFD02901F0F88109DC992901F0CD80DB
:10382000AE2901F03F81BC29BFD101F070B9DB297D
:1038300001F01B82F129B8D101F0D3BAE52902F0D9
:10384000A4803CDC762901F0FB851CDC3C2901F0DE
:1038500066840CDC0B2901F03B83132901F05583AE
:103860002529A2D101F0D1BBFCE39EE2DDE149298B
:1038700001F0FF84582901F06085672995D101F096
:103880009DBD59E080E0B32901F0758710DC8429E3
:1038900001F03686952901F0E286A42985D101F050
:1038A00022BFECE122E2D1E3B4E2E8E2FEE3FEE390
:1038B000C22901F0A887D5298BD102F01EB840F2A9
:1038C0007112881A914202F0848320DCB1F5987F4E
:1038D00002F003820EDCF32902F08E80FC2902F054
:1038E000A880B1F58C7F89D102F06FB9F3E3F3E3DF
:1038F000F3E3F3E3B1F5A17F02F06682A1F2531185
:10390000002902F0A88210298ED102F0EDBA3928E0
:1039100002F0538409DC092802F07883262802F09B
:1039200001842F2887D102F022BC592802F0D284CA
:10393000682896D102F06BBDA089E08194F8200040
:1039400001287DD094F8200005287FD0A089E0814F
:1039500000BF0020C4F8EC0000BF082280A104F1E1
:103960000800FDF763FD022280A104F10800FDF7C5
:103970005DFD002240F23371204606F03BF800BFA7
:1039800040F21370288000BF94F8EC0000F00100B2
:1039900040B994F8EC00C0F3400018B9002004B01E
:1039A000BDE8F08100BFE089A08194F820000128E3
:1039B0004CD094F82000052848D094F8200010B985
:1039C0000B2020760FE094F82000022802D10C2072
:1039D000207608E094F82000032802D10D202076FC
:1039E00001E00E20207600BF04F1D400FDF736FF81
:1039F0000020A08100BF5E4908805E4908805E49C2
:103A000008805E4908805E4908805E4908805E49FA
:103A100008805E4908805E49088000BF94F8D8009D
:103A200000F0010030B994F8D80020F00200801CAA
:103A300084F8D8001C214948FCF741FC00BF00E095
:103A400004E000BF002028800220A8E7E089A081D0
:103A5000A08940F2017188427ED1A089E08100BF37
:103A60000020C4F8EC0000BF09224AA104F10800BC
:103A7000FDF7DCFC39490868FCF738FC87B23748A9
:103A80003A46016804F10800FDF7D0FC032244A186
:103A900004F10800FDF7CAFC3048406858B12F49CE
:103AA0004868FCF723FC87B22C483A46416804F189
:103AB0000800FDF7BBFC032239A104F10800FDF763
:103AC000B5FC2648806858B124498868FCF70EFC8C
:103AD00087B222483A46816804F10800FDF7A6FC47
:103AE00001222EA104F10800FDF7A0FC02221FA173
:103AF00004F10800FDF79AFC002240F20171204613
:103B000005F078FF00BF4FF4E560288000BF94F80F
:103B1000EC0000F0010030B994F8EC00C0F3400074
:103B200008B900203BE700BF94F8EC0000F001006A
:103B300080F001002076E089A08100BF04F1D4006C
:103B4000FDF78CFE0020A08100BF094908800949CB
:103B500008800949088025E043E000005C0500205A
:103B600041542B435245473F000000000D0A00001E
:103B70006000002062000020640000206600002039
:103B8000680000206A0000206C0000206E00002009
:103B90007000002041542B435354543D2200000038
:103BA000222C2200F7490880F7490880F74908804D
:103BB000F7490880F7490880F749088000BF94F862
:103BC000D80000F0010030B994F8D80020F00200CD
:103BD000801C84F8D8001C21F048FCF770FB02F030
:103BE00064BCA08940F2027188427DD1A089E08145
:103BF00000BF0020C4F8EC0000BF0A22E8A104F1D5
:103C00000800FDF713FC0222AFF2A00104F1080046
:103C1000FDF70CFC002240F22271204605F0EAFE7E
:103C200000BF4FF4E760288000BF94F8EC0000F07C
:103C3000010030B994F8EC00C0F3400008B900204E
:103C4000ADE600BF00BF0020C4F8EC0000BF0A22B0
:103C5000D6A104F10800FDF7E9FB0222AFF2F4015E
:103C600004F10800FDF7E2FB002240F22271204639
:103C700005F0C0FE00BF40F24170288000BF94F8FC
:103C8000EC0000F0010030B994F8EC00C0F3400003
:103C900008B9002083E600BF94F8EC0000F00100B2
:103CA00080F001002076207E012800D178E200BF5C
:103CB0000020C4F8EC0000BF0A22BFA104F10800F4
:103CC000FDF7B4FB0222AFF25C1104F10800FDF72E
:103CD000ADFB002240F22171204605F08BFE00BFB3
:103CE00040F24F70288000E099E200BF94F8EC00A9
:103CF00000F0010030B994F8EC00C0F3400008B9BE
:103D000000204CE600BF00BF0020C4F8EC0000BF5C
:103D10000A22ACA104F10800FDF788FB0222AFF2F1
:103D2000B41104F10800FDF781FB002240F221717B
:103D3000204605F05FFE00BF4FF4EB60288000BF17
:103D400094F8EC0000F0010030B994F8EC00C0F3F6
:103D5000400008B9002022E600BF94F8EC0000F013
:103D6000010080F001002076207E012800D117E2BA
:103D700000BF0020C4F8EC0000BF0A2294A104F1A7
:103D80000800FDF753FB0222AFF2202104F10800E6
:103D9000FDF74CFB00224FF4E461204605F02AFEBB
:103DA00000BF40F26670288000BF94F8EC0000F07D
:103DB000010030B994F8EC00C0F3400008B90020CD
:103DC000EDE500BF94F8EC0000F0010080F0010088
:103DD0002076207E012800D1E2E100BF0020C4F857
:103DE000EC0000BF0B227DA104F10800FDF71EFBD3
:103DF0000222AFF2882104F10800FDF717FB002230
:103E000040F22771204605F0F5FD00BF40F27470C6
:103E1000288000BF94F8EC0000F0010030B994F85D
:103E2000EC00C0F3400008B90020B8E500BF94F8EA
:103E3000EC0000F0010080F001002076207E0128D7
:103E400000D1ADE100BF0020C4F8EC0000BF0D229E
:103E500065A104F10800FDF7E9FA0222AFF2F421AE
:103E600004F10800FDF7E2FA002240F22C7120462E
:103E700005F0C0FD00BF40F28270288000BF94F8BA
:103E8000EC0000F0010030B994F8EC00C0F3400001
:103E900008B9002083E500BF94F8EC0000F00100B1
:103EA00080F001002076207E012800D178E100BF5B
:103EB0000020C4F8EC0000BF0922AFF2283104F161
:103EC0000800FDF7B3FA35490868FCF70FFA87B226
:103ED00032483A46016804F10800FDF7A7FA0322C8
:103EE000AFF2443104F10800FDF7A0FA2B48406816
:103EF00058B12A494868FCF7F9F987B227483A4689
:103F0000416804F10800FDF791FA0322AFF2703125
:103F100004F10800FDF78AFA2048806858B11F496B
:103F20008868FCF7E3F987B21C483A46816804F1D7
:103F30000800FDF77BFA0122AFF2A03104F108007E
:103F4000FDF774FA0222AFF2DC3104F10800FDF74C
:103F50006DFA002240F22671204605F04BFD00BFAD
:103F600040F29A70288000BF94F8EC0000F0010045
:103F700038B994F8EC00C0F3400010B900200EE509
:103F800000E13AE066000020680000206A0000209E
:103F90006C0000206E000020700000205C050020F6
:103FA00041542B43474143543D30000041542B437F
:103FB000474143543D31000041542B434741545441
:103FC0003D30000041542B43474154543D310000E3
:103FD00041542B43495053485554000041542B43FE
:103FE00049504D55583D310041542B43495052588A
:103FF0004745543D3100000080E200BF94F8EC00DA
:1040000000F0010080F001002076207E012800D120
:10401000C6E000BF0020C4F8EC0000BF0822FEA1EB
:1040200004F10800FDF702FA0222AFF2C04104F1E8
:104030000800FDF7FBF9002240F22471204605F04C
:10404000D9FC00BF4FF4F560288000BF94F8EC0065
:1040500000F0010038B994F8EC00C0F3400010B94A
:1040600000209CE4FFE000BF94F8EC0000F00100A9
:1040700080F001002076207E012800D190E000BF72
:104080000020C4F8EC0000BF0822E6A104F10800FB
:10409000FDF7CCF90222AFF22C5104F10800FDF734
:1040A000C5F9002240F22571204601E007E03FE01B
:1040B00005F0A0FC00BF40F2B670288000BF94F865
:1040C000EC0000F0010050B994F8EC00C0F340009F
:1040D00028B9002063E42CE2F0E06AE1A3E200BF2B
:1040E00094F8EC0000F0010080F001002076207EC2
:1040F000012800D154E000BF0020C4F8EC0000BF4C
:104100000B22CBA104F10800FDF790F90222AFF2D7
:10411000A45104F10800FDF789F9002240F2327140
:10412000204605F067FC00BF40F2C470288000BF45
:1041300094F8EC0000F0010030B994F8EC00C0F302
:10414000400008B900202AE400BF00BF0020C4F8E6
:10415000EC0000BF0C22B9A104F10800FDF766F9DC
:104160000222AFF2F85104F10800FDF75FF90022D6
:1041700040F22371204605F03DFC00BF40F2CD70B7
:10418000288000BF94F8EC0000F0010030B994F8EA
:10419000EC00C0F3400008B9002000E400BF00BFFD
:1041A000207E38B9DA20005D20F00100401CDA21C1
:1041B000085506E0DA20005D20F00200801CDA21BC
:1041C0000855E089A08100BF04F1D400FDF746FB4B
:1041D0000020A08100BF9D4908809D4908809D491D
:1041E00008809D4908809D4908809D4908809D4917
:1041F00008809D4908809D49088000BF94F8D80038
:1042000000F0010030B994F8D80020F00200801CC2
:1042100084F8D8001C219648FCF751F8DFE4A08907
:1042200040F2037188427DD1A089E08100BF002067
:10423000C4F8EC0000BF0C228EA104F10800FDF7C9
:10424000F5F80222AFF2DC6104F10800FDF7EEF8A8
:10425000002240F22371204605F0CCFB00BF40F263
:10426000E170288000BF94F8EC0000F0010030B944
:1042700094F8EC00C0F3400008B9002052E400BFFD
:1042800000BF0020C4F8EC0000BF0A22AFF2D82122
:1042900004F10800FDF7CAF80222AFF2307104F110
:1042A0000800FDF7C3F8002240F22171204605F016
:1042B000A1FB00BF40F2E970288000BF94F8EC0039
:1042C00000F0010030B994F8EC00C0F3400008B9E8
:1042D000002027E400BF94F8EC0000F0010080F01B
:1042E00001002076DA20005D20F00400001DDA21B4
:1042F0000855E089A08100BF04F1D400FDF7AEFAB3
:104300000020A08100BF51490880514908805149CF
:104310000880514908805149088051490880514915
:10432000088000E015E0504908805049088000BF2F
:1043300094F8D80000F0010030B994F8D80020F0CB
:104340000200801C84F8D8001C214948FBF7B7FF05
:1043500045E4A08940F2297188425BD1A089E081BF
:1043600000BF0020C4F8EC0000BF0A2245A104F100
:104370000800FDF75BF83E498868FBF7B7FF87B296
:104380003B483A46816804F10800FDF74FF80222E5
:10439000AFF6280104F10800FDF748F8002240F2CA
:1043A0004471204605F026FB00BF40F2FB702880D8
:1043B00000BF94F8EC0000F0010030B994F8EC0074
:1043C000C0F3400008B900203AE400BF28488169E2
:1043D00002A8FEF7D9F900BF0020C4F8EC0000BF26
:1043E0000F222BA104F10800FDF720F820494868AE
:1043F000FBF77CFF87B21E483A46416804F108008B
:10440000FDF714F80322AFF6680104F10800FDF788
:104410000DF845E0DEE0000041542B43494943528A
:104420000000000041542B43494653520000000055
:1044300041542B485454505445524D0041542B5331
:10444000415042523D312C310000000060000020FC
:104450006200002064000020660000206800002048
:104460006A0000206C0000206E0000207000002018
:104470005C05002041542B53415042523D302C31B9
:104480000000000041542B43495053534C3D000061
:1044900041542B43495053544152543D302C220037
:1044A000FE490868FBF722FF87B2FC483A460168DC
:1044B00004F10800FCF7BAFF0222F9A104F1080098
:1044C000FCF7B4FF02A8FBF711FF87B23A4602A936
:1044D00004F10800FCF7AAFF0222AFF6701104F104
:1044E0000800FCF7A3FF002240F22971204605F0E6
:1044F00081FA00BF40F60A00288000BF94F8EC0063
:1045000000F0010030B994F8EC00C0F3400008B9A5
:10451000002020E400BF94F8EC0000F0010080F0DF
:1045200001002076207E38BB00BF4FF40160288058
:1045300000BF94F8EC00C0F3001058B994F8EC00F8
:10454000C0F3401030B994F8EC00C0F3801008B903
:10455000002035E400BF94F8EC00C0F3001020B157
:1045600000203070CD48C068606794F8EC00C0F35C
:10457000401008B101202076E089A08100BF04F13D
:10458000D400FDF76BF90020A08100BFC549088069
:10459000C5490880C5490880C5490880C5490880C3
:1045A000C5490880C5490880C5490880C5490880B3
:1045B00000BF94F8D80000F0010030B994F8D8009A
:1045C00020F00200801C84F8D8001C21B348FBF7BF
:1045D00076FE23E6A08940F22B7188426AD1A08939
:1045E000E081AE48816902A8FEF7CEF800BF002046
:1045F000C4F8EC0000BF0D22B3A104F10800FCF7E1
:1046000015FF0222AFF69C2104F10800FCF70EFF13
:10461000002240F22B71204605F0ECF900BF40F675
:104620002A00288000BF94F8EC00C0F3400028B9AD
:1046300094F8EC00C00908B900202BE400BF616FBA
:1046400001F11600897D21F00101017094F8EC0060
:10465000012181EAD0102076E089A08100BF04F119
:10466000D400FDF7FBF80020A08100BF8D49088031
:104670008D4908808D4908808D4908808D490880C2
:104680008D4908808D4908808D4908808D490880B2
:1046900000BF94F8D80000F0010030B994F8D800B9
:1046A00020F00200801C84F8D8001C217B48FBF716
:1046B00006FEB3E5A08940F22A7188427ED1A08926
:1046C000E0817648006918B10020744909690860E2
:1046D00003208149087000BF7048806940F2B451DE
:1046E000884201D9084601E06C4880697B4908602E
:1046F0000846016802A8FEF747F800BF0020C4F88A
:10470000EC0000BF0D2276A104F10800FCF78EFE3C
:1047100002A8FBF7EBFD87B23A4602A904F10800B4
:10472000FCF784FE0222AFF6BC3104F10800FCF76E
:104730007DFE002240F22A71204605F05BF900BFA1
:1047400040F64400288000BF94F8EC00C0F3C0009D
:1047500030B994F8EC00C0F3400008B900200EE432
:1047600000BF94F8EC00C0F3C00040B300BF0020CD
:10477000C4F8EC0000BF5948008882B2474801687D
:1047800004F10800FCF752FE0122694604F108001A
:10479000FCF74CFE00BF40F64C00288000BFED2027
:1047A000005D00F0010070B9ED20005DC0F3400035
:1047B00048B994F8EC00C0F3400001E09DE01BE034
:1047C00008B900204DE400BFED20005D00F00100BD
:1047D00008B1002000E005202076207E98B92F48FF
:1047E000006980B12D48006900683C4909680844A7
:1047F0002A490969086006E094F8EC00C0F340001B
:1048000008B101202076207E88B903203249087043
:104810002248806931490968401A20498861084660
:1048200000682E49096808441C49086004E02A48C9
:104830000078401E284908701848806920B1264831
:10484000007800287FF448AFE089A08100BF04F120
:10485000D400FDF703F80020A08100BF11490880B3
:1048600011490880114908801149088011490880C0
:1048700011490880114908801149088011490880B0
:1048800000BF94F8D80000F0010030B994F8D800C7
:1048900020F00200801C84F8D80029E05C0500208C
:1048A000222C000060000020620000206400002034
:1048B00066000020680000206A0000206C000020D4
:1048C0006E0000207000002041542B434950434C9F
:1048D0004F53453D30000000840000208000002040
:1048E00041542B43495053454E443D302C00000069
:1048F0001C21FD48FBF7E3FC90E4A08940F22C71F9
:1049000088427DD1A089E0812068F849086000BF15
:1049100040F66A00288000BF2068F4490968401A00
:10492000B18A884201D200200DE400BF308940F2F4
:10493000B451884201DD0846308100BF0020C4F830
:10494000EC0000BF0E22EAA104F10800FCF76EFDA6
:10495000317802A8FDF718FF02A8FBF7C7FC87B261
:104960003A4602A904F10800FCF760FD0122AFF20B
:10497000840104F10800FCF759FD318902A8FDF714
:1049800003FF02A8FBF7B2FC87B23A4602A904F182
:104990000800FCF74BFD0222AFF6306104F108007D
:1049A000FCF744FD002240F22C71204605F022F86D
:1049B00000BF40F67A00288000BF94F8EC0000F0B9
:1049C000010030B994F8EC00C0F3400008B90020B1
:1049D00054E400BF94F8EC0000F0010080F0010006
:1049E0002076207E50B97189F0680844F060BE4896
:1049F000006918B17089BC4909690860E08900E064
:104A00002CE0A08100BF04F1D400FCF727FF0020B8
:104A1000A08100BFBA490880BA490880BA49088015
:104A2000BA490880BA490880BA490880BA4908805A
:104A3000BA490880BA49088000BF94F8D80000F04D
:104A4000010030B994F8D80020F00200801C84F8EE
:104A5000D8001C21A448FBF732FC79E4A08940F27D
:104A6000047188427ED1A089E08100BF0020C4F893
:104A7000EC0000BF0B22ABA104F10800FCF7D6FC50
:104A80000222AFF6187104F10800FCF7CFFC0022F7
:104A900040F22D71204604F0ADFF00BF40F68F00BC
:104AA000288000BF94F8EC0000F0010030B994F8C1
:104AB000EC00C0F3400008B900200AE400BF94F8FD
:104AC000EC0000F0010080F001002076207E01283B
:104AD00000D131E000BF0020C4F8EC0000BF132279
:104AE00093A104F10800FCF7A1FC0222AFF6847147
:104AF00004F10800FCF79AFC002240F22D712046D8
:104B000004F078FF00BF40F69D00288000BF94F8B5
:104B1000EC0000F0010030B994F8EC00C0F3400064
:104B200008B9002050E400BF94F8EC0000F0010048
:104B300080F00100207600BFE089A08100BF04F171
:104B4000D400FCF78BFE0020A08100BF6C490880D8
:104B50006C4908806C4908806C4908806C49088061
:104B60006C4900E018E008806B4908806B490880B8
:104B70006B49088000BF94F8D80000F0010030B9FC
:104B800094F8D80020F00200801C84F8D8001C2182
:104B90005548FBF794FB1CE5A08940F20771884259
:104BA0006FD1A089E08100BF0020C4F8EC0000BFF5
:104BB0000C2264A104F10800FCF738FC9C20015988
:104BC00002A8FDF7E1FD02A8FBF790FB87B23A4689
:104BD00002A904F10800FCF729FC06225DA104F1FA
:104BE0000800FCF723FC02225CA104F10800FCF79A
:104BF0001DFC002240F22F71204604F0FBFE00BF96
:104C000040F6B100288000BFED20005DC0F3C00079
:104C100058B994F8EC0000F0010030B994F8EC00B9
:104C2000C0F3400008B9002073E400BF94F8EC0022
:104C3000C0F3400070B9ED20005DC0F3C00048B182
:104C40009C20005982B29820015904F10800FCF719
:104C5000EDFB00E023E000BF0020C4F8EC0000BF43
:104C600000BF40F6BC00288000BF94F8EC0000F0C4
:104C7000010038B994F8EC00C0F3400010B90020EE
:104C800047E478E000BF94F8EC0000F0010080F009
:104C900001002076207E012800D100E000BFE089DD
:104CA000A08100BF04F1D400FCF7D8FD0020A08152
:104CB00000BF13490880134908801349088013492D
:104CC0000880134908801349088013490880134954
:104CD00008801349088000BF94F8D80000F0010054
:104CE000F0BB94F8D8003CE05C0500207C0000207C
:104CF00041542B43495052584745543D322C0000F3
:104D00006000002062000020640000206600002097
:104D1000680000206A0000206C0000206E00002067
:104D20007000002041542B48545450494E495400BF
:104D300041542B48545450504152413D2243494420
:104D4000222C310041542B48545450444154413D8D
:104D5000000000002C313030303000000D0A00001F
:104D600004E020F00200801C84F8D8001C21FE48DA
:104D7000FBF7A5FA2DE4A08940F2067188427DD1A7
:104D8000A089E08100BF0020C4F8EC0000BF13221E
:104D9000F6A104F10800FCF749FB90210859FBF744
:104DA000A5FA87B2902001593A4604F10800FCF7B1
:104DB0003DFB0122F2A104F10800FCF737FB0222BF
:104DC000AFF2680104F10800FCF730FB002240F26A
:104DD0002E71204604F00EFE00BF40F6D20028805F
:104DE00000BF94F8EC0000F0010030B994F8EC003A
:104DF000C0F3400008B900201FE400BF94F8EC00A5
:104E000000F0010080F001002076207E012800D112
:104E100084E000BF0020C4F8EC0000BF0B22D9A141
:104E200004F10800FCF702FBCF490868FBF75EFAC3
:104E300087B2CD483A46016804F10800FCF7F6FA5B
:104E40000222AFF2E80104F10800FCF7EFFA0022B9
:104E500040F24271204604F0CDFD00BF40F6E10073
:104E6000288000BF94F8EC0000F0010038B994F8F5
:104E7000EC00C0F3400010B9002070E47CE000BFFB
:104E800000BF0020C4F8EC0000BF0E22C0A104F156
:104E90000800FCF7CBFA94F88C003030C0B20190D7
:104EA000012201A904F10800FCF7C0FA0222AFF2C6
:104EB000541104F10800FCF7B9FA00224FF4E6613E
:104EC000204604F097FD00BF40F6EC00288000BFAC
:104ED00094F8EC0000F0010030B994F8EC00C0F355
:104EE000400008B900203AE400BF94F8EC0000F05C
:104EF000010080F001002076207E012800D10DE025
:104F000000BF40F6F400288000BFED20005DC0F334
:104F1000800008B9002022E400BF00BFE089A08122
:104F200000BF04F1D400FCF799FC0020A08100BF71
:104F30009B4908809B4908809B4908809B490880C1
:104F40009B4908809B4908809B4908809B490880B1
:104F50009B49088000BF94F8D80000F0010030B9E8
:104F600094F8D80020F00200801C84F8D8001C219E
:104F70007D48FBF7A4F9BFE4A08940F23171884273
:104F80007ED1A089E08100BF0020C4F8EC0000BF02
:104F90000C228CA104F10800FCF748FAA420015966
:104FA00002A8FDF7F1FB02A8FBF7A0F987B23A4689
:104FB00002A904F10800FCF739FA0122AFF2D4612A
:104FC00004F10800FCF732FAA820015B02A8FDF703
:104FD000DBFB02A8FBF78AF987B23A4602A904F183
:104FE0000800FCF723FA0222AFF2902104F1080036
:104FF000FCF71CFA002240F23171204604F0FAFC62
:1050000000BF40F60610288000BF94F8EC0000F0C6
:10501000010030B994F8EC00C0F3400008B900205A
:1050200082E400BF94F8EC0000F0010080F0010081
:105030002076207E70B9A4200159AC20005901448B
:10504000A42001514848C06820B1AC20005946490D
:10505000C9680860E089A08100BF04F1D400FCF7B2
:10506000FDFB0020A08100BF4D4908804D4908800C
:105070004D4908804D4908804D4908804D4900E060
:1050800018E008804C4908804C4908804C49088049
:1050900000BF94F8D80000F0010030B994F8D800AF
:1050A00020F00200801C84F8D8001C212E48FBF759
:1050B00006F921E4A089B0F5E16F53D1A089E08120
:1050C00000BF0020C4F8EC0000BF172241A104F18A
:1050D0000800FCF7ABF990210859FBF707F987B2F4
:1050E000902001593A4604F10800FCF79FF901228B
:1050F00023A104F10800FCF799F90222AFF2A431D0
:1051000004F10800FCF792F9002240F22E712046CB
:1051100004F070FC00BF40F61D10288000BF94F81A
:10512000EC0000F0010030B994F8EC00C0F340004E
:1051300008B900204CE400BF94F8EC0000F0010036
:1051400080F001002076E089A08100BF04F1D40046
:10515000FCF784FB0020A08100BF114908801149A1
:10516000088043E062E000005C05002041542B48C9
:10517000545450504152413D2255524C222C220051
:105180002200000041542B4854545053534C3D00CE
:1051900041542B48545450414354494F4E3D000014
:1051A00060000020620000206400002066000020F3
:1051B000680000206A0000206C0000206E000020C3
:1051C0007000002041542B48545450524541443DF6
:1051D0000000000041542B48545450504152413D6E
:1051E00022434F4E54454E54222C2200FE49088043
:1051F000FE490880FE490880FE490880FE49088073
:10520000FE490880FE49088000BF94F8D80000F0ED
:10521000010030B994F8D80020F00200801C84F816
:10522000D8001C21F748FBF74AF816E4A08940F2A1
:10523000327188425DD100BF0020C4F8EC0000BF8D
:105240000B22AFF6146104F10800FCF7EFF802221C
:10525000AFF2F84104F10800FCF7E8F8002240F250
:105260003271204604F0C6FB00BF40F62A102880A9
:1052700000BF94F8EC0000F0010030B994F8EC00A5
:10528000C0F3400008B9002017E400BF94F8EC0018
:1052900000F0010080F00100207600BF04F1D4008E
:1052A000FCF7DCFA0020A08100BFD7490880D7496D
:1052B0000880CD490880CD490880CD490880CD4976
:1052C0000880CD490880CD490880CD49088000BFBD
:1052D00094F8D80000F0010030B994F8D80020F01C
:1052E0000200801C84F8D8001C21C648FAF7E7FFAA
:1052F00051E4A08940F20971884277D1A089E08108
:1053000000BF0020C4F8EC0000BF0B22C0A104F1D4
:105310000800FCF78BF80222AFF2C05104F108003C
:10532000FCF784F8002240F23471204604F062FB5E
:1053300000BF40F63910288000BF94F8EC0000F060
:10534000010030B994F8EC00C0F3400008B9002027
:105350006AE400BF94F8EC0000F0010080F0010066
:105360002076207E012800D178E000BF0020C4F81C
:10537000EC0000BF0B22A9A104F10800FCF756F8CD
:10538000A0490868FAF7B2FF87B29E483A4601681A
:1053900004F10800FCF74AF80222AFF2406104F180
:1053A0000800FCF743F8002240F24171204604F067
:1053B00021FB00BF40F64810288000BF94F8EC00A5
:1053C00000F0010030B994F8EC00C0F3400008B9D7
:1053D000002029E400BF94F8EC0000F0010080F008
:1053E00001002076207E012801D137E064E000BF73
:1053F0000020C4F8EC0000BF0A228BA104F10800D1
:10540000FCF714F87F494868FAF770FF87B27D48C7
:105410003A46416804F10800FCF708F80222AFF2AE
:10542000C46104F10800FCF701F8002240F2437166
:10543000204604F0DFFA00BF40F65710288000BF76
:1054400094F8EC0000F0010030B994F8EC00C0F3DF
:10545000400008B9002013E400BF00BFE089A0812C
:1054600000BF04F1D400FCF7F9F90020A08100BFCF
:1054700065490880654908805B4908805B49088068
:105480005B4908805B4908805B4908805B4908806C
:105490005B49088000BF94F8D80000F0010030B9E3
:1054A00094F8D80020F00200801C84F8D8001C2159
:1054B0005448FAF704FF5DE4A08940F20A7188427B
:1054C00060D1A089E08100BF0020C4F8EC0000BFDB
:1054D0000A2258A104F10800FBF7A8FF0222AFF24C
:1054E000847104F10800FBF7A1FF00224FF4E8618A
:1054F000204604F07FFA00BF40F66510288000BF08
:1055000094F8EC0000F0010030B994F8EC00C0F31E
:10551000400008B900206FE400BF94F8EC0000F0F0
:10552000010080F001002076E089A08100BF04F135
:10553000D400FCF793F90020A08100BF3249088015
:10554000324908802849088028490880284908806D
:105550002849088028490880284908802849088067
:1055600000BF94F8D80000F0010030B994F8D800DA
:1055700020F00200801C84F8D8001C212148FAF792
:105580009EFEF8E4A08940F20B7188422BD1A089DD
:10559000E08100BF0020C4F8EC0000BF0C2228A16D
:1055A00004F10800FBF742FF16490868FAF79EFE6F
:1055B00087B214483A46016804F10800FBF736FF49
:1055C0000122AFF2444104F10800FBF72FFF022251
:1055D000AFF6780104F10800FBF728FF002240F243
:1055E0003571204634E051E164000020660000205F
:1055F000680000206A0000206C0000206E0000207F
:10560000700000205C050020600000206200002087
:1056100041542B4654504349443D310041542B469C
:1056200054504D4F44453D0041542B465450535324
:105630004C3D000041542B465450515549540000F4
:1056400041542B465450534552563D220000000011
:1056500004F0D0F900BF40F67610288000BF94F81F
:10566000EC0000F0010030B994F8EC00C0F3400009
:1056700008B9002037E400BF94F8EC0000F0010006
:1056800080F001002076207E012800D1D0E0FE4885
:10569000816902A8FDF778F800BF0020C4F8EC008B
:1056A00000BF0B22F9A104F10800FBF7BFFE02A81E
:1056B000FAF71CFE87B23A4602A904F10800FBF78C
:1056C000B5FE0222AFF66C1104F10800FBF7AEFE46
:1056D000002240F23671204604F08CF900BF40F6FB
:1056E0008510288000BF94F8EC0000F0010030B96C
:1056F00094F8EC00C0F3400008B900200BE400BFB0
:1057000094F8EC0000F0010080F001002076207E8B
:10571000012800D18CE000BF0020C4F8EC0000BFDD
:105720000A22DDA104F10800FBF780FED649486893
:10573000FAF7DCFD87B2D4483A46416804F1080024
:10574000FBF774FE0122AFF2C85104F10800FBF729
:105750006DFE0222AFF6FC1104F10800FBF766FEB5
:10576000002240F23771204604F044F900BF40F6B1
:105770009410288000BF94F8EC0000F0010030B9CC
:1057800094F8EC00C0F3400008B9002048E400BFE2
:1057900094F8EC0000F0010080F001002076207EFB
:1057A000012800D144E000BF0020C4F8EC0000BF95
:1057B0000A22BCA104F10800FBF738FEB249886850
:1057C000FAF794FD87B2B0483A46816804F10800C0
:1057D000FBF72CFE0122AFF2586104F10800FBF741
:1057E00025FE0222AFF68C2104F10800FBF71EFE15
:1057F00000224FF4E761204604F0FCF800BF40F6B9
:10580000A310288000BF94F8EC0000F0010030B92C
:1058100094F8EC00C0F3400008B900208AE400BF0F
:1058200094F8EC0000F0010080F00100207600BF49
:10583000E089A08100BF04F1D400FCF70FF800203C
:10584000A08100BF9A4908809A4908809A49088037
:105850009A4908809A4908809A4908809A4908809C
:105860009A4908809A49088000BF94F8D80000F04F
:10587000010030B994F8D80020F00200801C84F8B0
:10588000D8001C218048FAF71AFD12E4A08940F2E2
:105890000D7188427ED1A089E08100BF0020C4F84C
:1058A000EC0000BF0F228BA104F10800FBF7BEFD46
:1058B00075490868FAF71AFD87B273483A460168D5
:1058C00004F10800FBF7B2FD0122AFF24C7104F1C4
:1058D0000800FBF7ABFD0222AFF6803104F10800AF
:1058E000FBF7A4FD002240F23C71204604F082F850
:1058F00000BF40F6B610288000BF94F8EC0000F01E
:10590000010030B994F8EC00C0F3400008B9002061
:1059100010E400BF94F8EC0000F0010080F00100FA
:105920002076207E012800D1EEE000BF0020C4F8E0
:10593000EC0000BF0F226BA104F10800FBF776FD1D
:1059400051494868FAF7D2FC87B24F483A46416855
:1059500004F10800FBF76AFD0122AFF2DC7104F1EB
:105960000800FBF763FD0222AFF6104104F10800C6
:10597000FBF75CFD002240F23D71204604F03AF84E
:1059800000BF40F6C610288000BF94F8EC0000F07D
:10599000010000E0E6E030B994F8EC00C0F340000C
:1059A00008B9002070E400BF94F8EC0000F001009A
:1059B00080F001002076207E012800D1A4E000BF05
:1059C0000020C4F8EC0000BF0B224AA104F108003B
:1059D000FBF72CFD0222AFF67C4104F10800FBF737
:1059E00025FD002240F23E71204604F003F800BF7E
:1059F00040F6D410288000BF94F8EC0000F00100BD
:105A000030B994F8EC00C0F3400008B900203BE442
:105A100000BF94F8EC0000F0010080F00100207657
:105A2000207E012800D16FE000BF40F6DD10288005
:105A300000BFED20005DC0F3801030B994F8EC0099
:105A4000C0F3400008B900201EE400BF012020760A
:105A5000ED20005DC0F38010A0B194F8B4000128DF
:105A600051D1B520005D01284DD1D020005D20F03E
:105A70000100401CD0210855D020005D20F002001C
:105A8000801C3DE03FE000005C05002041542B46B7
:105A90005450504F52543D0041542B465450554E93
:105AA0003D22000041542B46545050573D220000E7
:105AB00060000020620000206400002066000020DA
:105AC000680000206A0000206C0000206E000020AA
:105AD0007000002041542B465450474554504154C7
