:020000040800F2
:1000000070E20020690200082D2B0008252B000853
:10001000292B0008890B00081DA90008000000001A
:10002000000000000000000000000000AD0100081A
:100030008D0C00080000000001020008E99D000886
:10004000830200088302000883020008830200087C
:10005000830200088302000883020008830200086C
:100060008302000883020008830200088D0B000849
:100070009D0B0008AD0B0008BD0B0008CD0B000860
:10008000DD0B0008ED0B00088302000800000000F3
:1000900000000000000000000000000083020008D3
:1000A000830200088302000883020008830200081C
:1000B000830200088302000883020008830200080C
:1000C00083020008830200088302000883020008FC
:1000D00083020008A1A80008C5A8000800000000CD
:1000E0008302000883020008830200080000000069
:1000F000000000000000000000000000FD0B0008F0
:100100000000000083020008830200088302000848
:1001100000000000000000000000000000000000DF
:100120000D0C00081D0C00082D0C00083D0C0008EB
:100130004D0C00080000000000000000000000005E
:100140000000000000000000000000008302000822
:100150005D0C00086D0C00087D0C0008F1A800087B
:100160008302000883020008000000000000000075
:10017000000000000000000000000000000000007F
:1001800000000000830200080000000000000000E2
:100190008302000883020008DFF80CD000F092FB15
:1001A00000480047DDB9000870E200202B4B1968B9
:1001B0000868B0E8F04F80F30988BFF36F8F4FF005
:1001C000000080F3118870470000000006480068B6
:1001D000006880F3088862B661B6BFF34F8FBFF343
:1001E0006F8F00DF00BF00BF08ED00E0DFF80C00FC
:1001F000016841F470010160704700BF88ED00E0C4
:10020000EFF30980BFF36F8F144B1A681EF0100FC5
:1002100008BF20ED108A20E9F04F106008B44FF0BD
:10022000500080F31188BFF34F8FBFF36F8F0CF036
:100230007BF94FF0000080F3118808BC196808684A
:10024000B0E8F04F1EF0100F08BFB0EC108A80F33A
:100250000988BFF36F8F704700BF00BF9000002078
:10026000EFF30580704700000648804706480047C6
:10027000FEE7FEE7FEE7FEE7FEE7FEE7FEE7FEE756
:10028000FEE7FEE7F19D00089901000840EA01033E
:100290009B0703D009E008C9121F08C0042AFAD23C
:1002A00003E011F8013B00F8013B521EF9D2704700
:1002B000D2B201E000F8012B491EFBD270470022A8
:1002C000F6E710B513460A4604461946FFF7F0FF55
:1002D000204610BD10B5044604E00B7800F8013B41
:1002E00003B1491C521EF8D2204610BD421C10F822
:1002F000011B0029FBD1801A704710B5002200E0D5
:10030000521C835C8C5CA34201D1002BF8D1D8B283
:10031000E1B2401A10BD034611F8012B00F8012B81
:10032000002AF9D11846704730B50546002003462B
:1003300000E05B1C934205D2EC5CC85C201A01D142
:10034000002CF6D130BD000070B500B91068002552
:1003500012E00B4602E0A64203D05B1C1C78002C86
:10036000F9D1E3B22B4305D02CB125B1002100F81F
:10037000011B04E00546401C0678002EE9D1106000
:10038000284670BD004ADFE7EC0000200EB540F2C1
:10039000334102910021CDE900110A460B4600F0DD
:1003A0007AF803B000BD01F0004330B421F0004101
:1003B00050EA010206D00A0DA2F56072C1F31301E2
:1003C000002A02DC30BC00207047440F44EAC1041C
:1003D000C100E01830BC00EBC25000F016B830B5D8
:1003E0000B46014600202022012409E021FA02F5F3
:1003F0009D4205D303FA02F5491B04FA02F528448D
:10040000151EA2F10102F1DC30BD0029A8BF704722
:10041000401C490008BF20F00100704710B4B0FA3A
:1004200080FC00FA0CF050EA010404BF10BC7047D5
:1004300049B1CCF1200421FA04F411FA0CF118BFEF
:10044000012121430843A3EB0C01CB1D4FEA0061BE
:100450004FEA102042BF002010BC704700EBC35091
:1004600010440029A4BF10BC7047401C490008BFBD
:1004700020F0010010BC704710B5141E73F1000489
:1004800008DA401C41F1000192185B411A4301D186
:1004900020F0010010BD2DE9F04D92469B4611B1B0
:1004A000B1FA81F202E0B0FA80F22032904600F018
:1004B0001BFA04460F4640EA0A0041EA0B01534684
:1004C0005A46084313D0114653EA010019D0C8F127
:1004D0004002504600F017FA05460E46504659466F
:1004E000424600F001FA084305D0012004E020460E
:1004F0003946BDE8F08D0020054346EAE0762C43FE
:1005000037430A986305E40AA0EB08000022FD0ABD
:1005100044EA47540A3002D500200146E9E70105C4
:1005200010196941DDE9084500196941BDE8F04D40
:10053000A2E72DE9FE4F804681EA0300C00F0C467A
:10054000009021F0004123F00045B8EB0200A941E2
:1005500005D24046214690461C460B46024623F0F3
:100560000040104347D0270DC7F30A00C3F30A51D8
:100570000290401A019040286BDAC3F3130040F454
:10058000801B0098924620B10023D2EB030A63EB54
:100590000B0B01985946C0F14002504600F0A4F9F7
:1005A00006460D4650465946019A00F0BCF910EB3C
:1005B00008006141002487EA115284EAE7731A4374
:1005C00040D0009A62B3019A012A4FEA075215DC23
:1005D000001B61EB02014FF0004202EA0752CDE935
:1005E0000042001C41F5801132462B46FFF753FFB5
:1005F00003B0BDE8F08F40462146F9E7001B61EBF0
:100600000201001C41F5801300185B412018A2F57F
:10061000001747EB030140EAD570B6196D4111E0B0
:100620006D084FEA360645EAC0754FEA0752001BCF
:1006300061EB0201001C41F5801149084FEA3000CE
:100640000019514132462B4603B0BDE8F04FFFF789
:1006500013BF0098012240000023D0EB020263EB9D
:10066000E073009821464FEAE074B8EB000061EBBC
:100670000401E9E783F000435BE781F0004158E7BC
:100680002DE9FE4F81EA030404F0004421F000410B
:1006900000944FF0000B23F0004350EA01045ED0B9
:1006A00052EA03045BD0C3F30A54C1F30A552C4445
:1006B000A4F2F3340194A0FB0254C1F3130141F4FA
:1006C0008011C3F3130343F4801301FB024400FBC6
:1006D000034E840A970A44EA815447EA8357A4FBED
:1006E000076802958D0A05FB07854FEA932C04FBEA
:1006F0000C542705029D4FEA065847EA1637B5EB1A
:1007000008056EEB070C870E920E47EA811742EA46
:100710008312A7FB0201B6EB0B0164EB00042B0D67
:1007200043EA0C335E1844EB1C50DA465146E7FBB3
:100730000201C5F313044FEA0B3343EA14534FEAA3
:100740000432019C43EA0603A4F10C040294009CC9
:10075000CDE900B4FFF79FFE03B0BDE8F08F0020A5
:100760000146F9E72DE9F04D81EA030404F0004B5E
:1007700021F0004514464FF0000A23F0004150EAF2
:10078000050220D054EA01021DD0C5F30A570246E3
:10079000C5F31303C1F31300C1F30A5640F48015E7
:1007A00043F48013A7EB0608101BD64608F2FD3869
:1007B00073EB050002D308F1010801E092185B41D8
:1007C000B8F1000F03DA00200146BDE8F08D0020EB
:1007D0004FF48011064684460EE0171B73EB0507A5
:1007E00005D3121B63EB050306434CEA010C4908D1
:1007F0004FEA300092185B4150EA0107EDD152EA0E
:10080000030012D082EA040083EA0501084305D000
:10081000101BAB4106D20122002306E000224FF05C
:10082000004302E06FF0010253101AEB06004CEB9C
:10083000085110EB0A0041EB0B01BDE8F04DFFF74A
:100840001BBE70B521F0004303430CD0C1F30A5521
:100850000024D5EB040564EB0403D617AD1AB341AD
:1008600002DB0020014670BD201841EB025170BD33
:100870000EB5C10F80EAE0700844CA07002140F2BB
:1008800033438DE80E000A460B46FFF704FE03B023
:1008900000BD000030B5041E71F1000404DB4FF010
:1008A0000044404264EB0101141E73F1000405DBB7
:1008B0001C464FF00043524263EB0403994208BFC9
:1008C000904230BD064C074D06E0E06840F0010361
:1008D00094E8070098471034AC42F6D3FFF760FC69
:1008E000A8CF0008C8CF0008202A04DB203A00FA6D
:1008F00002F1002070479140C2F1200320FA03F377
:10090000194390407047202A04DB203A21FA02F074
:100910000021704721FA02F3D040C2F12002914039
:10092000084319467047202A06DBCB17203A41FAC4
:1009300002F043EAE07306E041FA02F3D040C2F16C
:10094000200291400843194670472DE9F04D0023DD
:100950001A461B1A8A4103DB00200146BDE8F08DD0
:10096000C1F30A52C1F3130141F480154FF0000B9B
:10097000D10702D100186D41521E0027044640F2F3
:10098000FF11384601EB620A3E46804602460020CF
:100990004FF48011FFF7B7FFC2197141BB1846EB46
:1009A0000100B4EB030C75EB000C04D3E41A65EB07
:1009B000000517460E46241908F101006D418046D6
:1009C0003428E3DDF91946EB0600091BA84103D2E0
:1009D0004FF0FF32134601E0002213461BEB0700E5
:1009E00046EB0A51BDE8F04DFFF746BD30B5014674
:1009F000002409B9002030BD4A688B689A4200D1B2
:100A00000C68934200D99C1A9A4202D9D51A0868F8
:100A1000441B601EEFE730B503460BB9002030BD24
:100A200059689A68914200D10024914200D98C1AE9
:100A30008A4202D9551A1868441B2046EFE770B560
:100A400004460D4616460CB9012070BD18212046FB
:100A5000FFF735FC2560E6600A206074E06868B93D
:100A600028460BF013F8E060E06818B90020206019
:100A70000120EAE7207C40F002002074207C40F056
:100A8000010020740020E0E72DE9F0470446894684
:100A900015464FF00008CA4604B115B90020BDE85C
:100AA000F0872168A068884201D30020A06020461A
:100AB000FFF7B1FF0746AF4203D20FB90020EEE7C0
:100AC0003D46A1682068461AAE4200D92E46D4E9B8
:100AD0000220811832465046FFF7D8FBB044A06888
:100AE0003044A060AD1B35B10AEB08002A46E1682E
:100AF000FFF7CCFBA5602168A068884201D30020E5
:100B0000A06008EB0500CAE72DE9F04704468946D6
:100B100015464FF00008CA4604B115B90020BDE8DB
:100B2000F087D4E90010884201D30020606020469D
:100B3000FFF75CFF0746AF4203D20FB90020EEE794
:100B40003D46D4E90001461AAE4200D92E466268FD
:100B5000E168881832465146FFF798FBB044606858
:100B600030446060AD1B35B10AEB08012A46E068ED
:100B7000FFF78CFB6560D4E90010884201D30020A8
:100B8000606008EB0500CAE700BFFEE710B5024849
:100B900009F04BFA10BD00001060024010B5024889
:100BA00009F043FA10BD00002860024010B5024869
:100BB00009F03BFA10BD00004060024010B5024849
:100BC00009F033FA10BD00005860024010B5024829
:100BD00009F02BFA10BD00007060024010B5024809
:100BE00009F023FA10BD00008860024010B50248E9
:100BF00009F01BFA10BD0000A060024010B50248C9
:100C000009F013FA10BD0000B860024010B50248A8
:100C100009F00BFA10BD00001064024010B5024844
:100C200009F003FA10BD00002864024010B5024824
:100C300009F0FBF910BD00004064024010B5024805
:100C400009F0F3F910BD00005864024010B50248E5
:100C500009F0EBF910BD00007064024010B50248C5
:100C600009F0E3F910BD00008864024010B50248A5
:100C700009F0DBF910BD0000A064024010B5024885
:100C800009F0D3F910BD0000B8640240704770B598
:100C900004460D4600BFA08920B994F8D800C0F3DF
:100CA000400018B100BF0220207170BD00BF00BF1E
:100CB00004F1D40000F0AAFF08B10420F5E7A089F0
:100CC00008B92068606140F20330A08100BF00BF16
:100CD0004FF47A70E0614DB994F8D80020F001002B
:100CE00084F8D80000BF00202071DEE794F8D80017
:100CF00020F00100401C84F8D8004FF47A7120469F
:100D000001F098F90346042B00D1CEE7237E0020A2
:100D100020761846C9E7024602F14200704770B5D6
:100D200004460D4600BFA08920B994F8D800C0F34E
:100D3000400018B100BF0220207170BD00BF00BF8D
:100D400004F1D40000F062FF08B10420F5E7A089A7
:100D500008B9206860614FF44170A08100BF00BFF6
:100D60004FF47A70E0614DB994F8D80020F001009A
:100D700084F8D80000BF00202071DEE794F8D80086
:100D800020F00100401C84F8D8004FF47A7120460E
:100D900001F050F90346042B00D1CEE7237E00205A
:100DA00020761846C9E70000324B4FF4E13232A1F9
:100DB000334800F0D1F90446214632A009F0B0FDD5
:100DC000002136480AF00AFF3549086050E02C48F7
:100DD00000F048FC09F0ACF8002849D0012128486F
:100DE000FFF799FF2F4908600846006880780628B9
:100DF00014D12DA009F094FD012237A1204800F064
:100E0000B7F83849087018B937A009F089FD2FE004
:100E10003448017837A009F083FD29E021480068B3
:100E20008078042810D101211548FFF730FF2D49A3
:100E3000087018B936A009F073FD19E02948017847
:100E400037A009F06DFD13E016480068807878B986
:100E500001210B48FFF763FF2249087018B938A039
:100E600009F05EFD04E01F48017839A009F058FD43
:100E7000ADE70000111000083132333400000000EB
:100E8000D401002047534D20496E6974207374616A
:100E90007475733A2025640D0A000000E0CE000846
:100EA000580000204C00002043616C6C2064697382
:100EB000636F6E6E65637465642C20747279696EFD
:100EC0006720746F2063616C6C20736F6D656F6E4B
:100ED00065210D0A00000000796F75725F6E756DF7
:100EE000626572004800002043616C6C696E672186
:100EF0000D0A00004572726F7220747279696E6714
:100F000020746F2063616C6C3A2025640D0A000028
:100F1000416E737765726564204F4B0D0A000000C7
:100F20004572726F7220747279696E6720746F20D7
:100F3000616E737765723A2025640D0A0000000027
:100F400048616E6765645570204F4B0D0A000000C4
:100F50004572726F7220747279696E6720746F20A7
:100F600068616E672075703A2025640D0A000000E4
:100F700070B504460D46164600BF1DB900BF0320DC
:100F8000207170BD00BF00BFA08920B994F8D800BF
:100F9000C0F3400018B100BF02202071F1E700BF8C
:100FA00000BF04F1D40000F031FE08B10420E8E7EE
:100FB000A08908B92068606140F20130A08100BFBB
:100FC0001248056000BF4FF47A70E0614EB994F8A2
:100FD000D80020F0010084F8D80000BF0020207164
:100FE000CFE794F8D80020F00100401C84F8D80026
:100FF0004FF47A71204601F01DF80346042B00D10E
:10100000BFE7237E002020761846BAE7600500205F
:1010100070B505460E46052D24D003DC3DB1042DE8
:101020002CD108E00A2D25D00B2D27D11EE015A0CC
:1010300009F076FC23E001211748FFF76CFE044617
:10104000A07840B9607818B914A009F069FC02E0F2
:101050001BA009F065FCA078062802D121A009F0A8
:101060005FFC0CE024A009F05BFC08E025A009F07F
:1010700057FC04E026A009F053FC00E000BF00BFCD
:10108000002070BD537461636B2069732049444C28
:1010900045210D0A00000000D4010020536F6D654A
:1010A0006F6E652068617320616E73776572656429
:1010B000206F75722063616C6C210D0A00000000C6
:1010C0005765206861766520616E73776572656427
:1010D00020696E636F6D696E672063616C6C210DB2
:1010E0000A00000043616C6C2066696E6973686574
:1010F00064210D0A0000000052494E47494E472125
:101100000D0A0000506F776572646F776E0D0A00EC
:101110005761726E696E670D0A000000024600207A
:101120007047000070B504460D46034E2A4621461E
:101130003046FFF7E9FC70BDC402002008B5024646
:101140001068009000BF1068009BC01A8842FAD354
:1011500000BF0020107108BD2DE9F04705460E467E
:10116000174698463224DFF8F893FE480560F021D0
:101170000068FFF7A4F8FB480068C0F8DC80F94875
:101180000068D0F8DC0020B9F748F6490968C1F8D2
:10119000DC000020F349096881F86C000621F14861
:1011A000006880F844100020EE4909680860EF4AA2
:1011B0004FF400714846FFF742FCEA480068876038
:1011C000E8480068083000F00FFA30B100BF07208F
:1011D000E44909680871BDE8F0870121E148006829
:1011E000083000F031FA0A21DE480068FFF7A6FF58
:1011F0000021DC480068083000F026FAD948006871
:10120000D43000F0E5FC28B100BF0620D5490968BC
:101210000871E0E700BF0020D5490880D549088063
:10122000D5490880D5490880D5490880D549088026
:10123000D5490880D5490880D549088000BFC948EC
:10124000006890F8D80020F00100401CC5490968EA
:1012500081F8D8004FF47A70C2490968C8611C212E
:10126000CC48FFF72CF823E000BFBE480068D4301C
:1012700000F0CCFC08B10420ADE7BA4800688089D2
:1012800028B9B84800680068B6490968486105206F
:10129000B4490968888100BF4FF47A71B148006889
:1012A00000F0C8FEAF480068007E00B902E0641E8E
:1012B000002CD9D100BF23E000BFAA480068D43079
:1012C00000F0A4FC08B1042085E7A64800688089E6
:1012D00028B9A44800680068A24909684861042048
:1012E000A0490968888100BF4FF47A719D48006861
:1012F00000F0A0FE9B480068007E00B902E0641E7A
:10130000002CD9D100BF23E000BF96480068D4303C
:1013100000F07CFC08B104205DE7924800688089F9
:1013200028B99048006800688E4909684861022021
:101330008C490968888100BF4FF47A718948006838
:1013400000F078FE87480068007E00B902E0641E65
:10135000002CD9D100BF23E000BF82480068D43000
:1013600000F054FC08B1042035E77E48006880890D
:1013700028B97C48006800687A49096848610320F8
:1013800078490968888100BF4FF47A717548006810
:1013900000F050FE73480068007E00B902E0641E51
:1013A000002CD9D100BF2BE07A48066000BF6D4801
:1013B0000068D43000F02AFC08B104200BE769482B
:1013C0000068808928B9674800680068654909682D
:1013D000486140F2011063490968888100BF4FF4F9
:1013E0007A716048006800F025FE5E480068007E63
:1013F00000B907E064215B480068FFF79FFE641EA8
:10140000002CD1D100BF1C216248FEF758FF24E018
:1014100000BF54480068D43000F0F8FB08B1042045
:10142000D9E650480068808928B94E4800680068AD
:101430004C490968486140F206404A490968888178
:1014400000BF4FF47A714748006800F0F3FD45484B
:101450000068007E00B902E0641E002CD8D100BFF5
:1014600023E000BF3F480068D43000F0CFFB08B154
:101470000420B0E63B480068808928B939480068F4
:101480000068384909684861072036490968888139
:1014900000BF4FF47A713348006800F0CBFD31484B
:1014A0000068007E00B902E0641E002CD9D100BFA4
:1014B00023E000BF2B480068D43000F0A7FB08B140
:1014C000042088E627480068808928B925480068F4
:1014D00000682449096848610A202249096888810E
:1014E00000BF4FF47A711F48006800F0A3FD1D484B
:1014F0000068007E00B902E0641E002CD9D100BF54
:101500001848006890F8D80020F0010015490968D3
:1015100081F8D80000BF13480068D43000F068FBA1
:10152000002010490968888100BF114908801149CD
:101530000880114908801149088011490880114923
:10154000088011490880114908801149088000BFAE
:101550000448006890F8D80000F0010038BB1BE098
:10156000C4020020600000201D110008DC020020E1
:101570006400002066000020680000206A0000204F
:101580006C0000206E00002070000020720000201F
:1015900074000020600500201148006890F8D80011
:1015A00020F00200801C0E49096881F8D8001C2137
:1015B0000C48FEF784FE00BF0948006890F8D80088
:1015C00020F002000649096881F8D80000BF0448ED
:1015D0000068007E287102480068007EFBE500007C
:1015E00060000020600500201CB5044600210D4865
:1015F000226808F0F3FF0020012103460A46CDE9E6
:1016000000100221084808F0BFFD00200121034618
:101610000A46CDE900100821034808F0B5FD002076
:101620001CBD0000001001400000024070B50646DD
:101630000C4615462A462146024809F008F80020C3
:1016400070BD0000001001400246012903D148048A
:10165000034B986102E00220014B98610020704723
:101660000000024070B50446A08978B994F8D8000B
:10167000C0F3400050B114F8D80F20F002002070E1
:101680006268D83C04F1E00100209047A089C8B905
:1016900094F8D800C0F34000A0B9D920005DC0F391
:1016A000800078B1D920005D20F00401D9200155D7
:1016B00004F14200C4F8E000D4F8DC2004F1E001B9
:1016C00004209047A089C8B994F8D800C0F340001E
:1016D000A0B9D920005DC0F3C00078B1D920005D69
:1016E00020F00801D920015504F14200C4F8E000BF
:1016F000D4F8DC2004F1E00105209047A089A8B9C6
:1017000094F8D800C0F3400080B9D920005DC0F340
:10171000400058B1D920005D20F00201D9200155C8
:10172000D4F8DC2004F1E00106209047A089A8B994
:1017300094F8D800C0F3400080B9DA20005D00F0D2
:10174000010058B1DA20005D20F00101DA200155D6
:10175000D4F8DC2004F1E00107209047A089A8B963
:1017600094F8D800C0F3400080B9DA20005DC0F3DF
:10177000400058B1DA20005D20F00201DA20015566
:10178000D4F8DC2004F1E00108209047A089A8B932
:1017900094F8D800C0F3400080B9DA20005DC0F3AF
:1017A000800058B1DA20005D20F00401DA200155F4
:1017B000D4F8DC2004F1E00109209047A089A8B901
:1017C00094F8D800C0F3400080B9DA20005DC0F37F
:1017D000C00058B1DA20005D20F00801DA20015580
:1017E000D4F8DC2004F1E0010A209047A089A8B9D0
:1017F00094F8D800C0F3400080B9DA20005DC0F34F
:10180000001058B1DA20005D20F01001DA200155F7
:10181000D4F8DC2004F1E0010B20904700252DE0F6
:1018200004F1740050F8250000B925E0A08910BB30
:1018300094F8D800C0F34000E8B904F1740050F8FF
:101840002500807DC0F38000A8B104F1740151F837
:10185000251001F11600897D21F00401017004F1C9
:10186000740050F82500C4F8E000D4F8DC2004F13E
:10187000E0010120904700BF681CC5B2062DCFDBF8
:1018800000BF0020207170BD034600200871704722
:1018900030B502460B46002100BF33E001EB4104A6
:1018A00002F1300000EB4400007900F0010038B391
:1018B00001EB410402F1300000EB4400007920F01C
:1018C000010401EB410502F1300000EB4500047119
:1018D00001EB410402F1300000EB4400007920F0FC
:1018E0000200801C01EB410502F1300404EB4504C9
:1018F000207101EB410402F1300000EB440030BDE7
:10190000481CC1B20329C9DB0020F8E72DE9F041EA
:1019100004460E4615461F4600BF25B900BF0320EA
:101920002071BDE8F08100BF00BFA08920B994F804
:10193000D800C0F3400018B100BF02202071F0E7CA
:1019400000BF00BF04F1D40000F060F908B104202A
:10195000E7E7A08908B92068606140F20220A08111
:1019600000BF2E801248C56000BF4FF4FA70E061DE
:101970004FB994F8D80020F0010084F8D80000BFD7
:1019800000202071CDE794F8D80020F00100401C21
:1019900084F8D8004FF4FA71204600F04BFB034660
:1019A000042B00D1BDE7237E002020761846B8E73F
:1019B000600500202DE9F04104460E4615461F46FD
:1019C00000BF2EB125B12846FEF790FCA02804D90F
:1019D00000BF03202071BDE8F08100BF00BFA089D7
:1019E00020B994F8D800C0F3400018B100BF02201D
:1019F0002071F0E700BF00BF04F1D40000F006F949
:101A000008B10420E7E7A08908B92068606140F2C6
:101A10000120A08100BFA562666200BF47F230507E
:101A2000E0614FB994F8D80020F0010084F8D800A4
:101A300000BF00202071CEE794F8D80020F001000C
:101A4000401C84F8D80047F23051204600F0F2FAEA
:101A50000346042B00D1BEE7237E002020761846E3
:101A6000B9E70000B6B06CE065E06188012301AA27
:101A70003448FFF74BFF34490870002851D133A098
:101A800008F04EFF35A10DF10700FEF736FC58B9FE
:101A9000202034498861012333A22FA92948FFF768
:101AA00089FF294908702FE030A10DF10700FEF7EA
:101AB00024FC60B94FF400102A49886101232AA24E
:101AC0002FA92048FFF776FF1F4908701CE029A1C5
:101AD0000DF10700FEF711FC70B92248406980F053
:101AE00020002049486101231FA22FA91548FFF7B4
:101AF00061FF1549087007E0012321A22FA91148B1
:101B0000FFF758FF104908700F48007818B91EA059
:101B100008F006FF0AE00C4801781FA008F000FF5B
:101B200004E00948017823A008F0FAFE01222146CA
:101B30000448FFF7A9FE01210248FFF7A9FE041E91
:101B400093D191E7D401002048000020534D532049
:101B500052454144204F4B210D0A00004C45442082
:101B60004F4E0000000002404F4B00004C45442007
:101B70004F4646004C454420544F47474C450000D3
:101B80004552524F5200000053454E4420424143BB
:101B90004B204F4B210D0A004572726F72207472F8
:101BA00079696E6720746F2073656E643A202564CE
:101BB0000D0A00004572726F7220747279696E6747
:101BC00020746F20726561643A2025640D0A00005C
:101BD00010B50446204609F094FF04490860084601
:101BE000006808B9012010BD0020FCE78C0000202F
:101BF00010B504460448006809F08AFF08B10120C6
:101C000010BD0020FCE700008C00002010B5044649
:101C10004FF47A710448006809F0A2FF08B101206E
:101C200010BD0020FCE700008C000020F8B5044641
:101C3000EA4D4FF4FA76A08988B120686169401AAC
:101C4000E16988420BD914F8EC0F20F00400001D64
:101C50002070207820F00200801C04F8EC09AFE12D
:101C6000A08940F2317188421FD1D920005DC0F3B4
:101C70008010D0B19DF80030AC210859411CAC2235
:101C80001151982109590B54B0200059401EB02120
:101C90000851B0200059002806D1D920005D20F05D
:101CA0004001D9200155002682E1A08940F23E7111
:101CB00088421ED1D920005DC009D0B19DF8003006
:101CC000C0210859411CC0221151B82109590B5497
:101CD000C4200059401EC4210851C42000590028C6
:101CE000E2D1D920005D20F08001D92001550026E5
:101CF0005EE1A08940F22C71884222D1D920005D9A
:101D0000C0F34010E8B1B649C8689DF80020438987
:101D1000591C41814168CA54018A491E0182018AC5
:101D200071B9D921095D21F02002D9210A55817D9F
:101D300021F002018175817D21F004018175002669
:101D400036E1A08940F20221884240D1D920005DCD
:101D500000F00100D0B3A249C86890F8A3109F29F1
:101D600009D29DF8002010F8A33F0178491C00F823
:101D7000A319C11CCA549DF800100A2925D19949FC
:101D800009780D2921D190F8A31002291DDB90F8C4
:101D9000A310891EC21C515C0D290AD190F8A31012
:101DA000491E515C0A2904D190F8A310891E80F8BD
:101DB000A310002290F8A330C11CCA54D921095D98
:101DC00021F00102D9210A550026F1E0FFE7A089A0
:101DD00040F20521884250D1D920005D00F0010079
:101DE000D0B37F48006900887D498969884234D230
:101DF0007B49C8689DF8002010F8A33F0178491C72
:101E000000F8A319C11CCA549DF800100A2922D158
:101E1000744909780D291ED190F8A31002291ADB04
:101E200010F8A31F891E0170002210F8A339C11CED
:101E3000CA546B49C968D431694AD16011460969ED
:101E40000988491C12691180D921095D21F001021C
:101E5000D9210A550026ABE00FE09DF800000A28C2
:101E6000B3D1604800780D28AFD1D920005D20F0B3
:101E70000101D920015500269AE0DA20005DC0F367
:101E80004010C0B19DF800000A2806D1DA20005D9C
:101E900020F02001DA2001558AE09DF800003A2860
:101EA00001D1012000E0002002469DF800102046EC
:101EB00006F0BEFE7CE09DF800000A281BD100BFA2
:101EC0009DF80010484802780078401C464B187076
:101ED000581C81540021401E0278401C815400BFD0
:101EE000411E204607F09CF900BF00203E490870C3
:101EF000487000BF5BE09DF8000020280ED13948F3
:101F000000783E280AD1394800780A2806D194F88A
:101F1000EC0020F00800083084F8EC0000BF9DF8C9
:101F20000010314802780078401C2F4B1870581C64
:101F300081540021401E0278401C815400BFA089BA
:101F4000B0F5026F1AD11846007805282ED1184630
:101F500040782B282AD1052225A1581CFEF7E4F948
:101F600020BBDA20005D20F020002030DA21085567
:101F700000BF00201C490870487017E01A4800781C
:101F8000182813D118221CA11748401CFEF7CCF9C1
:101F900060B900BF002014490870487000BFDA2003
:101FA000005D20F010001030DA21085500BF00BF9E
:101FB0000C4800780D4908709DF800000949087028
:101FC0003EB1012269462846FEF75EFD00287FF4F7
:101FD00047AE204607F07EFEF8BD0000C402002098
:101FE0006005002089000020DD0400208A00002018
:101FF0002B434F5053000000554E4445522D564F31
:102000004C5441474520504F57455220444F574E5E
:1020100000000000024610680844106000BF002065
:102020001071704702E00248FFF700FEFBE7000076
:10203000D40100200246D16100BF90890028FCD164
:1020400092F8D800C0F340000028F6D100BF107EFF
:102050001071107E70470000014800687047000052
:102060000400002010B52E480068401C2C49086070
:102070002C48006820B12B480068401E29490860A0
:10208000002444E0284850F8240000283DD0264889
:1020900050F824000078C0F34000B0B3224850F854
:1020A0002400806840B1204850F824008068401E19
:1020B0001D4951F8241088601B4850F8240080689E
:1020C00018BB194B53F824301969174B53F82400E7
:1020D00053F82430DA689047134850F824004168D8
:1020E000114850F8240081600F4850F8240000780F
:1020F00000F0010048B90C4850F82400007820F0A6
:102100000201094850F824000170601CC4B206485E
:10211000001F0078A042B5DC07F0CEFE10BD000025
:1021200004000020000000202001002010B50D4810
:10213000006840F400700B4908600846006840F4ED
:10214000806008600846006840F4807008600320E2
:1021500000F086F80F2000F007F800F017F80020D4
:1021600010BD0000003C024070B5044600F0E4F9E8
:102170004FF47A71B0FBF1F5284600F081FC0022A3
:102180002146501E00F02DF8002070BD7047000061
:1021900000BF00F01F0201219140034A430942F8A9
:1021A000231000BF7047000080E200E000BF00F095
:1021B0001F0201219140034A430942F8231000BF46
:1021C0007047000080E100E000BF00F01F02012125
:1021D00091404209920002F1E022C2F8001100BFD2
:1021E00070472DE9F05F80460D461646002700F047
:1021F0009FFC074639462A46334601F00700C0F1E6
:10220000070ABAF1040F02D94FF0040A01E0C0F145
:10221000070AD14600F1040ABAF1070F02D24FF0C3
:10222000000A01E0A0F1030AD4464FF0010A0AFABD
:1022300009FAAAF1010A0AEA020A0AFA0CFA4FF0AC
:10224000010B0BFA0CFBABF1010B0BEA030B4AEA97
:102250000B042146404600F073FCBDE8F09F0000EF
:1022600000BF00F00702064B19684FF6FF03194044
:10227000044B0B4343EA0221014B196000BF704736
:102280000CED00E00000FA0570B504460E4600258E
:10229000A748006800F00F00B0426FD2A4490E704A
:1022A0000846006800F00F00B04201D0012070BD68
:1022B000207800F00200022807D19E48006820F034
:1022C000F000A16808439B490860207800F00100F5
:1022D00000283ED06068012807D196480838006879
:1022E000C0F34040B8B90120E1E76068022802D09D
:1022F0006068032807D18F4808380068C0F3406041
:1023000048B90120D3E78B4808380068C0F3400083
:1023100008B90120CBE78748006820F00300616816
:10232000084384490860FFF797FE05466068012866
:1023300010D108E0FFF790FE401B41F2883188423F
:1023400001D90320B3E77B48006800F00C000428A3
:10235000F0D1CDE06068022811D108E0FFF77CFEE3
:10236000401B41F28831884201D903209FE7714820
:10237000006800F00C000828F0D1B9E024E06068A3
:10238000032810D108E0FFF767FE401B41F28831B7
:10239000884201D903208AE76648006800F00C00F3
:1023A0000328F0D1A4E008E0FFF756FE401B41F2FD
:1023B0008831884201D9032079E75E48006800F03F
:1023C0000C000028F0D193E0207800F002000228F1
:1023D00007D15848006820F0F000A168084355492B
:1023E0000860207800F00100002877D0606801289C
:1023F00007D1504808380068C0F34040B8B9012000
:1024000055E76068022802D06068032807D1494870
:1024100008380068C0F3406048B9012047E74548E4
:1024200008380068C0F3400008B901203FE7414880
:10243000006820F00300616808433E490860FFF728
:102440000BFE05466068012810D108E0FFF704FE86
:10245000401B41F28831884201D9032027E73548E3
:10246000006800F00C000428F0D137E06068022812
:1024700010D108E0FFF7F0FD401B41F2883188429F
:1024800001D9032013E72B48006800F00C0008284E
:10249000F0D123E06068032810D108E0FFF7DCFDED
:1024A000401B41F28831884201D90320FFE62148D0
:1024B000006800F00C000328F0D10FE008E0FFF7FF
:1024C000CBFD401B41F28831884201D90320EEE662
:1024D0001848006800F00C000028F0D114490E7074
:1024E0000846006800F00F00B04201D00120DEE68F
:1024F000207800F00400042807D10E48006820F47A
:10250000E050E16808430B490860207800F00800BB
:10251000082808D10748006820F46040216940EA93
:10252000C100044908600F20FFF71EFE0020BEE630
:10253000003C02400838024010B500F045F8094957
:10254000096801F0F001F02292FAA2F2B2FA82F2E6
:10255000D140054A515CC8400449086008460068FB
:1025600010BD00000838024094CE00085C00002036
:1025700010B5FFF7E1FF0749096801F4E0514FF496
:10258000E05292FAA2F2B2FA82F2D140024A515CCF
:10259000C84010BD0838024094CE000810B5FFF7BF
:1025A000CBFF0749096801F460414FF4604292FA99
:1025B000A2F2B2FA82F2D140024A515CC84010BD88
:1025C0000838024094CE000870B500210022002394
:1025D0000020274C246804F00C0424B1042C04D0FF
:1025E000082C41D103E0234840E023483EE0204C42
:1025F000241F246804F03F011D4C241F246804F4A8
:10260000800484B11C4CB4FBF1F5194C241F2468E0
:1026100047F6C076344096FAA6F6B6FA86F6F44047
:1026200005FB04F20FE0134CB4FBF1F5104C241F32
:10263000246847F6C076344096FAA6F6B6FA86F6CF
:10264000F44005FB04F20A4C241F246804F44034CF
:102650004FF4403595FAA5F5B5FA85F5EC40641CC4
:102660006300B2FBF3F001E0024800BF00BF70BDA1
:10267000083802400024F40000127A0038B50446FD
:102680000025207800F00100002866D0F648006898
:1026900000F00C0004280DD0F348006800F00C0096
:1026A000082813D1F048001F006800F48000B0F53E
:1026B000800F0BD1EC4808380068C0F34040002878
:1026C0004BD06068002848D1012038BD0020E64981
:1026D000891F0870FFF7C0FC054608E0FFF7BCFC47
:1026E000401B41F28831884201D90320EDE7DE48E2
:1026F00008380068C0F340400028EFD12079DA495B
:10270000891F08706068A0B1FFF7A6FC054608E0C5
:10271000FFF7A2FC401B41F28831884201D9032017
:10272000D3E7D14808380068C0F340400028EFD014
:1027300013E0FFF791FC054608E0FFF78DFC401B16
:1027400041F28831884201D90320BEE7C6480838E3
:102750000068C0F340400028EFD1207800F002006C
:10276000022869D1C048006800F00C0058B1BE488A
:10277000006800F00C00082821D1BB48001F006849
:1027800000F48000D8B9B84808380068C0F34000A9
:1027900020B1E068012801D0012096E7B24808384E
:1027A000006820F0F800F82292FAA2F2B2FA82F25F
:1027B000216991400843AC49083908603CE0E06871
:1027C00028B30120A9490860FFF746FC054606E04A
:1027D000FFF742FC401B642801D9032075E7A2489B
:1027E00008380068C0F340000028F1D09E4808383F
:1027F000006820F0F800F82292FAA2F2B2FA82F20F
:1028000021699140084398490839086014E0002084
:1028100096490860FFF720FC054606E0FFF71CFC20
:10282000401B642801D903204FE78F48083800680F
:10283000C0F340000028F1D1207800F008000828FB
:102840002CD16069A8B1012089490860FFF704FC18
:10285000054606E0FFF700FC401B642801D9032071
:1028600033E781486C300068C0F340000028F1D0A5
:1028700014E000207E490860FFF7EEFB054606E005
:10288000FFF7EAFB401B642801D903201DE77648C7
:102890006C300068C0F340000028F1D1207800F0CF
:1028A000040004286DD100BF6F483830006840F044
:1028B00080506D49383108600846006800F080504B
:1028C000009000BF00BF6B48006840F48070694909
:1028D0000860FFF7C1FB054606E0FFF7BDFB401BA4
:1028E000642801D90320F0E66248006800F4807093
:1028F0000028F2D000205C4968310870FFF7ACFB7B
:10290000054608E0FFF7A8FB401B41F288318842EA
:1029100001D90320D9E6544868300068C0F340006C
:102920000028EFD1207A504968310870A068A0B122
:10293000FFF792FB054608E0FFF78EFB401B41F2D4
:102940008831884201D90320BFE6474868300068D3
:10295000C0F340000028EFD013E0FFF77DFB0546F1
:1029600008E0FFF779FB401B41F28831884201D92A
:102970000320AAE63C4868300068C0F34000002805
:10298000EFD1A069F0B33848006800F00C000828C7
:1029900072D0A069022850D1002034490866FFF7A0
:1029A0005BFB054606E0FFF757FB401B642801D997
:1029B00003208AE62C4808380068C0F340600028ED
:1029C000F1D1D4E90701084347F6C07292FAA2F2A6
:1029D000B2FA82F2616A914008430122A16AC2EB15
:1029E00051014FF4403292FAA2F2B2FA82F29140CF
:1029F00008434FF0706292FAA2F2B2FA82F2E16AF0
:102A0000914000E03AE008431749091F086001209F
:102A100016490866FFF720FB054606E0FFF71CFB9A
:102A2000401B642801D903204FE60F48083800688E
:102A3000C0F340600028F1D020E000200B49086678
:102A4000FFF70AFB054606E0FFF706FB401B64287C
:102A500001D9032039E6044808380068C0F3406013
:102A60000028F1D10AE007E00838024000004742A0
:102A7000800E474200700040012026E6002024E638
:102A800070B504462546681EB0F1807F01D3012051
:102A90000FE0681E4FF0E02148610F214FF0FF303A
:102AA00000F04EF800204FF0E02188610720086117
:102AB000002070BD10B504460CB9012010BDA069FE
:102AC00000B100E000BF94F8390028B9002084F874
:102AD0003800204600F025F8022084F839002068EC
:102AE000C06820F400502168C860204607F0C6FD89
:102AF0002068006920F490402168086120684069DE
:102B000020F02A00216848612068C06840F4005025
:102B10002168C8600020E063012084F839000020AB
:102B2000CCE7704700BFFEE700BFFEE7704700003C
:102B300002480068C0F30220704700000CED00E07E
:102B400010B5002807DA0A07140E054A00F00F0333
:102B50001B1FD45403E00A07130E024A135410BD7E
:102B600018ED00E000E400E070B505460C46224692
:102B700002A1284607F0E4FE70BD000025750000A4
:102B80007CB505460C46288840F2EF52811A9042E7
:102B90007DD008DC70B1A0F2CB5028B30A2877D0E2
:102BA000182876D114E10D2974D0182973D023295F
:102BB000F7D1D6E294F86C00012859D000BF00206C
:102BC000C4F8EC0000BF0822FEA104F10800FEF7E3
:102BD0002DFD0222FEA104F10800FEF727FD00BF33
:102BE00040F2CB50288000BF94F8EC0000F00100C8
:102BF00030B994F8EC00C0F3400008B900207CBD67
:102C000000BF94F86C00012832D00820207600BF65
:102C100004F1D400FEF7ECFF0020A08100BFED49D5
:102C20000880ED490880ED490880ED490880ED49AC
:102C30000880ED490880ED490880ED490880ED499C
:102C4000088000BF94F8D80000F0010030B994F873
:102C5000D80020F00200801C84F8D8001C21E6482F
:102C6000FDF72DFB00BF00BF002028800220C6E733
:102C7000A08940F20131884274D100BF0020C4F81D
:102C8000EC0000BF0322DDA104F1080004E00DE127
:102C900027E0A7E27AE103E2FEF7C8FCD64908681C
:102CA000FDF724FB86B2D4483246016804F10800DF
:102CB000FEF7BCFC0122D2A104F10800FEF7B6FC2D
:102CC0000222C3A104F10800FEF7B0FC002240F28A
:102CD0000131204607F080F800BF40F2D55028802F
:102CE00000BF94F8EC0000F0010030B994F8EC005B
:102CF000C0F3400008B9002081E700BF94F8EC0061
:102D000000F0010080F00100207600BF04F1D40043
:102D1000FEF76EFF0020A08100BFAE490880AE49DB
:102D20000880AE490880AE490880AE490880AE49A7
:102D30000880AE490880AE490880AE49088000BFCF
:102D400094F8D80000F0010030B994F8D80020F0D1
:102D50000200801C84F8D8001C21A748FDF7AFFAB8
:102D60003FE2FFE7A08940F20531884271D100BF00
:102D70000020C4F8EC0000BF9F4881696846FFF757
:102D8000F3FE09229FA104F10800FEF74FFC6846FC
:102D9000FDF7ACFA86B23246694604F10800FEF748
:102DA00045FC012296A104F10800FEF73FFC022237
:102DB00087A104F10800FEF739FC002240F205313A
:102DC000204607F009F800BF40F2E350288000BF1A
:102DD00094F8EC0000F0010030B994F8EC00C0F376
:102DE000400008B900200AE700BF94F8EC0000F0AA
:102DF000010080F00100207600BF04F1D400FEF74E
:102E0000F7FE0020A08100BF724908807249088047
:102E100072490880724908807249088072490880A6
:102E200072490880724908807249088000BF94F88E
:102E3000D80000F0010030B994F8D80020F002006A
:102E4000801C84F8D8001C216B48FDF738FAC8E1D3
:102E5000FFE7A08940F20231884267D100BF00201D
:102E6000C4F8EC0000BF032264A104F10800FEF7DF
:102E7000DDFB61490868FDF739FA86B25E483246E3
:102E8000016804F10800FEF7D1FB022250A104F111
:102E90000800FEF7CBFB002240F20231204606F08C
:102EA0009BFF00BF40F2EF50288000BF94F8EC0079
:102EB00000F0010030B994F8EC00C0F3400008B90C
:102EC00000209CE600BF94F8EC0000F0010080F0C8
:102ED0000100207600BF04F1D400FEF789FE002037
:102EE000A08100BF3B4908803B4908803B490880DE
:102EF0003B4908803B4908803B4908803B490880A2
:102F00003B4908803B49088000BF94F8D80000F096
:102F1000010030B994F8D80020F00200801C84F839
:102F2000D8001C213448FDF7CAF95AE1A08940F2C3
:102F3000063188426CD100BF0020C4F8EC0000BF0D
:102F40002D4881696846FFF70FFE09222DA104F183
:102F50000800FEF76BFB6846FDF7C8F986B23246FB
:102F6000694604F10800FEF761FB022218A104F192
:102F70000800FEF75BFB002240F20631204606F017
:102F80002BFF00BF40F2FC50288000BF94F8EC00FB
:102F900000F0010030B994F8EC00C0F3400008B92B
:102FA00000202CE600BF94F8EC0000F0010080F057
:102FB0000100207600BF04F1D400FEF719FE0020C6
:102FC000A08126E041542B4350494E3F00000000B1
:102FD0000D0A000064000020660000206800002048
:102FE0006A0000206C0000206E00002070000020AD
:102FF000720000207400002060050020415444004D
:103000003B0000004154443E22534D22200000006A
:1030100024E000BF76490880764908807649088018
:103020007649088076490880764908807649088084
:10303000764908807649088000BF94F8D80000F0EF
:10304000010030B994F8D80020F00200801C84F808
:10305000D8001C216F48FDF732F9C2E0A08940F288
:10306000033188425CD100BF0020C4F8EC0000BFEF
:10307000032269A104F10800FEF7D8FA0222AFF298
:10308000B00104F10800FEF7D1FA002240F203314A
:10309000204606F0A1FE00BF40F20760288000BF76
:1030A00094F8EC0000F0010030B994F8EC00C0F3A3
:1030B000400008B90020A2E500BF94F8EC0000F041
:1030C000010080F00100207600BF04F1D400FEF77B
:1030D0008FFD0020A08100BF454908804549088038
:1030E0004549088045490880454908804549088088
:1030F00045490880454908804549088000BF94F843
:10310000D80000F0010030B994F8D80020F0020097
:10311000801C84F8D8001C213E48FDF7D0F860E000
:10312000A089B0F5417F5CD100BF0020C4F8EC005D
:1031300000BF032239A104F10800FEF777FA02224A
:10314000AFF2741104F10800FEF770FA00224FF498
:103150004171204606F040FE00BF40F21260288018
:1031600000BF94F8EC0000F0010030B994F8EC00D6
:10317000C0F3400008B9002041E500BF94F8EC001E
:1031800000F0010080F00100207600BF04F1D400BF
:10319000FEF72EFD0020A08100BF154908801549CB
:1031A0000880154908801549088015490880154987
:1031B000088015490880154908801549088000BF16
:1031C00094F8D80000F0010030B994F8D80020F04D
:1031D0000200801C84F8D8001C210E48FDF76FF80F
:1031E00000BF00BF00BF00202880032007E50000CB
:1031F0006400002066000020680000206A000020B3
:103200006C0000206E000020700000207200002082
:1032100074000020600500204154410041544800E2
:1032200070B505460C46288818B1B0F5E16F62D13B
:1032300020E0A08940F2016188425BD100BF0020FC
:10324000C4F8EC0000BF08222DA104F10800FEF72D
:10325000EDF902222DA104F10800FEF7E7F90022A2
:1032600040F20161204606F0B7FD00BF4FF4E16077
:10327000288000BF94F8EC0000F0010030B994F809
:10328000EC00C0F3400008B9002070BD00BF94F806
:10329000EC0000F0010080F00100207600BF04F196
:1032A000D400FEF7A5FC0020A08100BF18490880CB
:1032B000184908801849088018490880184908806A
:1032C000184908801849088018490880184908805A
:1032D00000BF94F8D80000F0010030B994F8D8008D
:1032E00020F00200801C84F8D8001C211148FCF753
:1032F000E6FF00BF00BF00BF002028800320C4E716
:1033000041542B43434C4B3F000000000D0A00008A
:103310006400002066000020680000206A00002091
:103320006C0000206E000020700000207200002061
:1033300074000020600500207CB505460C462888F6
:1033400040F2D242811A904279D011DC40F2B1426F
:10335000A0EB0201904273D005DC90B1A0F2A64030
:1033600000286ED12BE00B296CD01629F9D148E149
:103370000B2968D0162967D023297DD03429F0D1B4
:103380006DE3A089052860D100BF0020C4F8EC00DF
:1033900000BF0222FEA104F10800FEF747F9022255
:1033A000FCA104F10800FEF741F9002204212046A7
:1033B00006F012FD00BF40F2A640288000BF94F83E
:1033C000EC0000F0010030B994F8EC00C0F34000CC
:1033D00008B900207CBD00BF94F8EC0000F00100AB
:1033E00080F00100207600BF04F1D400FEF700FC5D
:1033F0000020A08100BFE8490880E8490880E8492A
:103400000880E8490880E8490880E8490880E849D8
:103410000880E8490880E849088000BF94F8D8008F
:1034200000F0010030B994F8D80020F00200801CB0
:1034300084F8D8001C21E148FCF741FF4FE33EE14E
:1034400023E04DE37FE098E130E2A08904285CD1DD
:1034500000BF0020C4F8EC0000BF0422D8A104F192
:103460000800FEF7E3F80222CAA104F10800FEF703
:10347000DDF80022042100E086E2204606F0ACFCE4
:1034800000BF40F2B140288000BF94F8EC0000F08B
:10349000010030B994F8EC00C0F3400008B90020F6
:1034A00098E700BF94F8EC0000F0010080F0010004
:1034B000207600BF04F1D400FEF79AFB0020A08123
:1034C00000BFB5490880B5490880B5490880B549AD
:1034D0000880B5490880B5490880B5490880B549D4
:1034E0000880B549088000BF94F8D80000F00100BA
:1034F00030B994F8D80020F00200801C84F8D8007D
:103500001C21AE48FCF7DBFEE9E2A08901285AD174
:1035100000BF0020C4F8EC0000BF1122AAA104F1F2
:103520000800FEF783F802229AA104F10800FEF7D2
:103530007DF800220121204606F04EFC00BF40F23B
:10354000BC40288000BF94F8EC0000F0010030B9C6
:1035500094F8EC00C0F3400008B900203AE700BF3F
:1035600094F8EC0000F0010080F00100207600BF2C
:1035700004F1D400FEF73CFB0020A08100BF864987
:1035800008808649088086490880864908808649DF
:1035900008808649088086490880864908808649CF
:1035A000088000BF94F8D80000F0010030B994F80A
:1035B000D80020F00200801C84F8D8001C217F482D
:1035C000FCF77DFE8BE2A08902285AD100BF0020C3
:1035D000C4F8EC0000BF092280A104F10800FEF746
:1035E00025F802226BA104F10800FEF71FF8002263
:1035F0000221204606F0F0FB00BF40F2C7402880C1
:1036000000BF94F8EC0000F0010030B994F8EC0031
:10361000C0F3400008B90020DCE600BF94F8EC00DD
:1036200000F0010080F00100207600BF04F1D4001A
:10363000FEF7DEFA0020A08100BF574908805749F5
:1036400008805749088057490880574908805749DA
:10365000088057490880574908805749088000BFAB
:1036600094F8D80000F0010030B994F8D80020F0A8
:103670000200801C84F8D8001C215048FCF71FFE73
:103680002DE2A08903285AD100BF0020C4F8EC0025
:1036900000BF092254A104F10800FDF7C7FF022270
:1036A0003CA104F10800FDF7C1FF002203212046E0
:1036B00006F092FB00BF40F2D240288000BF94F891
:1036C000EC0000F0010030B994F8EC00C0F34000C9
:1036D00008B900207EE600BF94F8EC0000F001007D
:1036E00080F00100207600BF04F1D400FEF780FADC
:1036F0000020A08100BF2849088028490880284967
:1037000008802849088028490880284908802849D5
:103710000880284908802849088000BF94F8D8000C
:1037200000F0010030B994F8D80020F00200801CAD
:1037300084F8D8001C212148FCF7C1FDCFE1A08905
:1037400006287DD100BF0020C4F8EC0000BF042291
:1037500028A104F10800FDF769FF02220DA104F180
:103760000800FDF763FF00220621204606F034FB27
:1037700000BF40F2DD40288000BF94F8EC0000F06C
:103780000100D8BB94F8EC00C0F34000B0BB36E0B9
:10379000415400000D0A0000640000206600002073
:1037A000680000206A0000206C0000206E000020ED
:1037B00070000020720000207400002060050020CE
:1037C000415426460000000041542B434E4D493DD4
:1037D000312C322C302C302C3000000041542B4343
:1037E0004D45453D3100000041542B434C43433D82
:1037F00031000000415445300000000001E000208D
:10380000E8E500BF94F8EC0000F0010080F0010052
:10381000207600BF04F1D400FEF7EAF90020A08171
:1038200000BFB2490880B2490880B2490880B24955
:103830000880B2490880B2490880B249088000E097
:1038400015E0B1490880B149088000BF94F8D8005C
:1038500000F0010030B994F8D80020F00200801C7C
:1038600084F8D8001C21AA48FCF729FD37E1A0897B
:1038700007285BD100BF0020C4F8EC0000BF042281
:10388000A4A104F10800FDF7D1FE0222AFF2FC0171
:1038900004F10800FDF7CAFE00220721204606F0C9
:1038A0009BFA00BF4FF49D60288000BF94F8EC00A5
:1038B00000F0010030B994F8EC00C0F3400008B902
:1038C000002087E500BF94F8EC0000F0010080F0D4
:1038D0000100207600BF04F1D400FEF789F9002032
:1038E000A08100BF81490880814908808149088002
:1038F0008149088081490880814908808149088080
:10390000814908808149088000BF94F8D80000F000
:10391000010030B994F8D80020F00200801C84F82F
:10392000D8001C217A48FCF7CAFCD8E0A0890928F5
:1039300071D100BF0020C4F8EC0000BF7448816959
:103940006846FFF711F9082274A104F10800FDF799
:103950006DFE6846FCF7CAFC86B23246694604F141
:103960000800FDF763FE0222AFF2D81104F108004F
:10397000FDF75CFE00220821204606F02DFA00BF6C
:1039800040F2F540288000BF94F8EC0000F0010000
:1039900030B994F8EC00C0F3400008B9002019E5F4
:1039A00000BF94F8EC0000F0010080F001002076E8
:1039B000207E18B95648806984F86D0000BF04F174
:1039C000D400FEF715F90020A08100BF4749088008
:1039D0004749088047490880474908804749088087
:1039E0004749088047490880474908804749088077
:1039F00000BF94F8D80000F0010030B994F8D80066
:103A000020F00200801C84F8D8001C214048FCF7FC
:103A100056FC64E0FFE7A0890A2860D100BF0020BF
:103A2000C4F8EC0000BF3A4881696846FFF79CF88B
:103A300008223DA104F10800FDF7F8FD0222AFF2D3
:103A4000AC2104F10800FDF7F1FD00220821204619
:103A500006F0C2F900BF40F20650288000BF94F87B
:103A6000EC0000F0010030B994F8EC00C0F3400025
:103A700008B90020AEE400BF94F8EC0000F00100AB
:103A800080F00100207600BF04F1D400FEF7B0F80A
:103A90000020A08100BF15490880154908801549FC
:103AA000088015490880154908801549088015497E
:103AB0000880154908801549088000BF94F8D8008F
:103AC00000F0010030B994F8D80020F00200801C0A
:103AD00084F8D8001C210E48FCF7F1FB00BF00BFA2
:103AE00000BF00202880032074E400006400002050
:103AF00066000020680000206A0000206C000020A2
:103B00006E00002070000020720000207400002071
:103B100060050020415445310000000041542B4312
:103B200046554E3D0000000041542B4346554E3F44
:103B3000000000002DE9FF4105460C46FE48C6681E
:103B40001A200190288840F6EC02811A904201F078
:103B50007E8364DC40F2EB72A0EB0201904274D0F1
:103B600031DCB0F5EE6F71D017DC40F24272A0EBA1
:103B7000020190426BD009DC002869D0A0F21D70D0
:103B8000002870D0152842F08586B2E109296BD053
:103B900017296AD02029F6D1C4E240F2B272811A04
:103BA000904271D008DCA0F27E7000286DD00E2803
:103BB0006CD02628E7D1C9E30E2968D01C2967D02C
:103BC0002529E0D1CEE3892901F09D8012DC2F293F
:103BD0007ED006DC08297CD01A297BD02929D2D1B5
:103BE000C2E3492977D0632900F0A5876B29CAD1A0
:103BF00000F0CCBFD12901F0FE8109DC992901F048
:103C0000D380AF2901F04581BD29BCD101F076B93F
:103C1000DC2901F02182F229B5D101F0D7BAE929D6
:103C200002F0A8803CDC7A2901F0FF851EDC3E29E9
:103C300001F06A840DDC0D2901F03F83152901F0A4
:103C4000598327299FD101F0D5BBFCE39FE2DEE138
:103C500064E04B2901F002855C2901F063856B2942
:103C600091D101F0A0BD81E0FBE131E2B72901F083
:103C700077870EDC882901F03886992901F0AE8615
:103C8000A82988D101F024BFD7E3B5E2E9E2EEE349
:103C9000EEE3C62901F0AC87D9298BD102F022B816
:103CA00040F27512881A914202F0878321DCB1F547
:103CB0009A7F02F007820FDCF72902F09280B1F5BB
:103CC000807F02F0AB80B1F58E7F88D102F072B9AF
:103CD000F8E3F8E3F8E3F8E3B1F5A37F02F06982D3
:103CE000A1F25711002902F0AB8210298DD102F008
:103CF000F0BA392802F0558409DC092802F07A83E9
:103D0000262802F003842F2886D102F024BC5928EB
:103D100002F0D484692895D102F06DBDA089E081BC
:103D200094F8200001287DD094F8200005287FD049
:103D3000A089E08100BF0020C4F8EC0000BF082289
:103D40007EA104F10800FDF771FC02227EA104F1BE
:103D50000800FDF76BFC002240F23371204606F0AC
:103D60003BF800BF40F21D70288000BF94F8EC00C3
:103D700000F0010040B994F8EC00C0F3400018B91D
:103D8000002004B0BDE8F08100BFE089A08194F874
:103D9000200001284CD094F82000052848D094F841
:103DA000200010B90B2020760FE094F820000228A4
:103DB00002D10C20207608E094F82000032802D1DC
:103DC0000D20207601E00E20207600BF04F1D40003
:103DD000FDF70EFF0020A08100BF5C4908805C4910
:103DE00008805C4908805C4908805C4908805C491F
:103DF00008805C4908805C4908805C49088000BFF5
:103E000094F8D80000F0010030B994F8D80020F000
:103E10000200801C84F8D8001C214748FCF74FFAA8
:103E200000BF00E004E000BF002028800220A8E7D7
:103E3000E089A081A08940F2017188427AD1A089ED
:103E4000E08100BF0020C4F8EC0000BF092248A1B7
:103E500004F10800FDF7EAFB37490868FCF746FA69
:103E600087B235483A46016804F10800FDF7DEFBE9
:103E7000032242A104F10800FDF7D8FB2E48406858
:103E800058B12D494868FCF731FA87B22A483A46BA
:103E9000416804F10800FDF7C9FB032237A104F1D2
:103EA0000800FDF7C3FB2448806858B122498868A0
:103EB000FCF71CFA87B220483A46816804F10800F2
:103EC000FDF7B4FB01222CA104F10800FDF7AEFBC5
:103ED00002221DA104F10800FDF7A8FB002240F218
:103EE0000171204605F078FF00BF40F23270288053
:103EF00000BF94F8EC0000F0010030B994F8EC0039
:103F0000C0F3400008B900203BE700BF94F8EC0084
:103F100000F0010080F001002076E089A08100BF60
:103F200004F1D400FDF764FE0020A08100BF074922
:103F3000088025E047E000006005002041542B4345
:103F40005245473F000000000D0A000064000020B9
:103F500066000020680000206A0000206C0000203D
:103F60006E0000207000002072000020740000200D
:103F700041542B435354543D22000000222C220074
:103F8000FA490880FA490880FA490880FA49088005
:103F9000FA490880FA490880FA490880FA490880F5
:103FA00000BF94F8D80000F0010030B994F8D800B0
:103FB00020F00200801C84F8D8001C21F348FCF794
:103FC0007EF902F066BCA08940F2027188427DD180
:103FD000A089E08100BF0020C4F8EC0000BF0A22E5
:103FE000EBA104F10800FDF721FB0222AFF2A801CA
:103FF00004F10800FDF71AFB002240F2227120466E
:1040000005F0EAFE00BF40F24270288000BF94F83D
:10401000EC0000F0010030B994F8EC00C0F340006F
:1040200008B90020ADE600BF00BF0020C4F8EC00D6
:1040300000BF0A22D9A104F10800FDF7F7FA022215
:10404000AFF2FC0104F10800FDF7F0FA002240F2A3
:104050002271204605F0C0FE00BF40F24B70288060
:1040600000BF94F8EC0000F0010030B994F8EC00C7
:10407000C0F3400008B9002083E600BF94F8EC00CC
:1040800000F0010080F001002076207E012800D1A0
:104090007DE200BF0020C4F8EC0000BF0A22C2A1EC
:1040A00004F10800FDF7C2FA0222AFF2641104F134
:1040B0000800FDF7BBFA002240F22171204605F00E
:1040C0008BFE00BF40F25970288000E09EE200BFE6
:1040D00094F8EC0000F0010030B994F8EC00C0F363
:1040E000400008B900204CE600BF00BF0020C4F823
:1040F000EC0000BF0A22AFA104F10800FDF796FA18
:104100000222AFF2BC1104F10800FDF78FFA002281
:1041100040F22171204605F05FFE00BF40F2627060
:10412000288000BF94F8EC0000F0010030B994F84A
:10413000EC00C0F3400008B9002022E600BF94F86C
:10414000EC0000F0010080F001002076207E0128C4
:1041500000D11CE200BF0020C4F8EC0000BF0A221E
:1041600097A104F10800FDF761FA0222AFF22821BD
:1041700004F10800FDF75AFA00224FF4E4612046EA
:1041800005F02AFE00BF4FF4EE60288000BF94F8CF
:10419000EC0000F0010030B994F8EC00C0F34000EE
:1041A00008B90020EDE500BF94F8EC0000F0010034
:1041B00080F001002076207E012800D1E7E100BFD9
:1041C0000020C4F8EC0000BF0B2280A104F108001D
:1041D000FDF72CFA0222AFF2902104F10800FDF75E
:1041E00025FA002240F22771204605F0F5FD00BFB8
:1041F00040F27E70288000BF94F8EC0000F00100CF
:1042000030B994F8EC00C0F3400008B90020B8E5DC
:1042100000BF94F8EC0000F0010080F0010020766F
:10422000207E012800D1B2E100BF0020C4F8EC00DC
:1042300000BF0D2268A104F10800FDF7F7F9022282
:10424000AFF2FC2104F10800FDF7F0F9002240F282
:104250002C71204605F0C0FD00BF40F28C70288014
:1042600000BF94F8EC0000F0010030B994F8EC00C5
:10427000C0F3400008B9002083E500BF94F8EC00CB
:1042800000F0010080F001002076207E012800D19E
:104290007DE100BF0020C4F8EC0000BF0922AFF2AE
:1042A000303104F10800FDF7C1F938490868FCF71E
:1042B0001DF887B235483A46016804F10800FDF759
:1042C000B5F90322AFF24C3104F10800FDF7AEF965
:1042D0002E48406858B12D494868FCF707F887B266
:1042E0002A483A46416804F10800FDF79FF9032285
:1042F000AFF2783104F10800FDF798F9234880689F
:1043000058B122498868FBF7F1FF87B21F483A4647
:10431000816804F10800FDF789F90122AFF2A831A4
:1043200004F10800FDF782F90222AFF2E43104F152
:104330000800FDF77BF9002240F22671204605F0C7
:104340004BFD00BF40F2A470288000BF94F8EC0041
:1043500000F0010038B994F8EC00C0F3400010B947
:1043600000200EE505E13FE0BFE20000660000200E
:10437000680000206A0000206C0000206E00002011
:1043800070000020720000207400002060050020F2
:1043900041542B43474143543D30000041542B438B
:1043A000474143543D31000041542B43474154544D
:1043B0003D30000041542B43474154543D310000EF
:1043C00041542B43495053485554000041542B430A
:1043D00049504D55583D310041542B434950525896
:1043E0004745543D3100000000BF94F8EC0000F058
:1043F000010080F001002076207E012800D1C6E077
:1044000000BF0020C4F8EC0000BF0822FEA104F1A8
:104410000800FDF70BF90222AFF2D44104F10800C5
:10442000FDF704F9002240F22471204605F0D4FC87
:1044300000BF40F2B270288000BF94F8EC0000F09A
:10444000010040B900E005E194F8EC00C0F3400041
:1044500008B9002095E400BF94F8EC0000F00100DA
:1044600080F001002076207E012802D18FE01DE03F
:1044700055E000BF0020C4F8EC0000BF0822E5A111
:1044800004F10800FDF7D2F80222AFF2445104F122
:104490000800FDF7CBF8002240F22571204605F018
:1044A0009BFC00BF4FF4F860288000BF94F8EC003C
:1044B00000F0010050B994F8EC00C0F3400028B9B6
:1044C00000205EE42CE2F0E06AE1A3E200BF94F891
:1044D000EC0000F0010080F001002076207E012831
:1044E00000D154E000BF0020C4F8EC0000BF0B2254
:1044F000CBA104F10800FDF799F80222AFF2B85100
:1045000004F10800FDF792F8002240F232712046D3
:1045100005F062FC00BF40F2CE70288000BF94F826
:10452000EC0000F0010030B994F8EC00C0F340005A
:1045300008B9002025E400BF00BF0020C4F8EC004B
:1045400000BF0C22B9A104F10800FDF76FF80222A8
:10455000AFF20C6104F10800FDF768F8002240F2A8
:104560002371204605F038FC00BF40F2D770288048
:1045700000BF94F8EC0000F0010030B994F8EC00B2
:10458000C0F3400008B9002051E400BF00BF207E06
:1045900038B9DA20005D20F00100401CDA2108550E
:1045A00006E0DA20005D20F00200801CDA210855C8
:1045B000E089A08100BF04F1D400FDF719FB0020C1
:1045C000A08100BF9D4908809D4908809D490880C1
:1045D0009D4908809D4908809D4908809D49088023
:1045E0009D4908809D49088000BF94F8D80000F0DC
:1045F000010030B994F8D80020F00200801C84F843
:10460000D8001C219648FBF75AFEDAE4A08940F254
:10461000037188427ED1A089E08100BF0020C4F8E8
:10462000EC0000BF0C228FA104F10800FCF7FEFF94
:104630000222AFF2EC6104F10800FCF7F7FF002260
:1046400040F22371204605F0C7FB00BF40F2EB703B
:10465000288000BF94F8EC0000F0010030B994F815
:10466000EC00C0F3400008B900204DE400BF00BFDB
:104670000020C4F8EC0000BF0A22AFF2D42104F1FC
:104680000800FCF7D3FF0222AFF2447104F10800E6
:10469000FCF7CCFF002240F22171204605F09CFB84
:1046A00000BF40F2F370288000BF94F8EC0000F0E7
:1046B000010030B994F8EC00C0F3400008B90020C4
:1046C00022E400BF94F8EC0000F0010080F001004B
:1046D0002076DA20005D20F00400001DDA21085564
:1046E000E089A08100BF04F1D400FDF781FA002029
:1046F000A08100BF51490880514908805149088074
:104700005149088051490880514908805149088021
:10471000514900E014E008805049088000BF94F837
:10472000D80000F0010030B994F8D80020F0020061
:10473000801C84F8D8001C214948FBF7C0FD40E4E8
:10474000A08940F2297188425CD1A089E08100BF34
:104750000020C4F8EC0000BF0A2246A104F10800C2
:10476000FCF764FF3E498868FBF7C0FD87B23C4810
:104770003A46816804F10800FCF758FF0222AFF6C0
:10478000380104F10800FCF751FF002240F24471A7
:10479000204605F021FB00BF40F60500288000BF41
:1047A00094F8EC0000F0010030B994F8EC00C0F38C
:1047B000400008B9002035E400BF2948816902A8FB
:1047C000FEF7D2F900BF0020C4F8EC0000BF0F22B2
:1047D0002BA104F10800FCF729FF21494868FBF7E9
:1047E00085FD87B21E483A46416804F10800FCF78F
:1047F0001DFF0322AFF67C0104F10800FCF716FF51
:10480000174945E0DDE0000041542B43494943523C
:104810000000000041542B43494653520000000061
:1048200041542B485454505445524D0041542B533D
:10483000415042523D312C31000000006400002004
:1048400066000020680000206A0000206C00002044
:104850006E00002070000020720000207400002014
:104860006005002041542B53415042523D302C31C1
:104870000000000041542B43495053534C3D00006D
:1048800041542B43495053544152543D302C220043
:104890000868FBF72BFD87B2FE483A46016804F131
:1048A0000800FCF7C3FE0222FBA104F10800FCF79C
:1048B000BDFE02A8FBF71AFD87B23A4602A904F131
:1048C0000800FCF7B3FE0222AFF6841104F10800E1
:1048D000FCF7ACFE002240F22971204605F07CFA7C
:1048E00000BF40F61400288000BF94F8EC0000F0F0
:1048F000010030B994F8EC00C0F3400008B9002082
:104900001BE400BF94F8EC0000F0010080F001000F
:104910002076207E38BB00BF40F61A00288000BFFA
:1049200094F8EC00C0F3001058B994F8EC00C0F310
:10493000401030B994F8EC00C0F3801008B90020A2
:1049400030E400BF94F8EC00C0F3001020B1002068
:104950003070D048C068606794F8EC00C0F3401035
:1049600008B101202076E089A08100BF04F1D400C5
:10497000FDF73EF90020A08100BFC8490880C84962
:104980000880C8490880C8490880C8490880C849C3
:104990000880C8490880C8490880C849088000BF05
:1049A00094F8D80000F0010030B994F8D80020F055
:1049B0000200801C84F8D8001C21B648FBF77FFC5D
:1049C00023E6A08940F22B7188426AD1A089E08158
:1049D000B048816902A8FEF7C7F800BF0020C4F8FC
:1049E000EC0000BF0D22B6A104F10800FCF71EFE8A
:1049F0000222AFF6AC2104F10800FCF717FE0022FA
:104A000040F22B71204605F0E7F900BF40F6340074
:104A1000288000BF94F8EC00C0F3400028B994F857
:104A2000EC00C00908B9002026E400BF616F01F165
:104A30001600897D21F00101017094F8EC0001213C
:104A400081EAD0102076E089A08100BF04F1D40073
:104A5000FDF7CEF80020A08100BF90490880904962
:104A600008809049088090490880904908809049C2
:104A7000088090490880904908809049088000BFCC
:104A800094F8D80000F0010030B994F8D80020F074
:104A90000200801C84F8D8001C217E48FBF70FFC24
:104AA000B3E5A08940F22A7188427CD1A089E081D7
:104AB0007848006918B10020764909690860032028
:104AC0008349087000BF7348806940F2B45188423E
:104AD00001D9084601E06F4880697E4908600846B0
:104AE000016802A8FEF740F800BF0020C4F8EC00FF
:104AF00000BF0D2278A104F10800FCF797FD02A881
:104B0000FBF7F4FB87B23A4602A904F10800FCF770
:104B10008DFD0222AFF6D03104F10800FCF786FDCE
:104B2000002240F22A71204605F056F900BF40F6F7
:104B30004E00288000BF94F8EC00C0F3C00030B9EC
:104B400094F8EC00C0F3400008B9002009E400BF6D
:104B500094F8EC00C0F3C00030B300BF0020C4F8EC
:104B6000EC0000BF5B48008882B24A48016804F14B
:104B70000800FCF75BFD012201A904F10800FCF725
:104B800055FD00BF40F65600288000BFED20005DB7
:104B900000F0010070B9ED20005DC0F3400048B99D
:104BA00094F8EC0001E09FE01DE0C0F3400008B97C
:104BB00000204FE400BFED20005D00F0010008B1CF
:104BC000002000E005202076207E98B93148006959
:104BD00080B13048006900683E49096808442D49A1
:104BE0000969086006E094F8EC00C0F3400008B1E1
:104BF00001202076207E88B9032035490870254899
:104C0000806934490968401A224988610846006869
:104C10003049096808441F49086004E02C480078BE
:104C2000401E2B4908701B48806920B12848007835
:104C300000287FF448AFE089A08100BF04F1D400D0
:104C4000FCF7D6FF0020A08100BF1449088014495A
:104C500008801449088014490880144908801449C0
:104C6000088014490880144908801449088000BF4E
:104C700094F8D80000F0010030B994F8D80020F082
:104C80000200801C84F8D8001C210248FBF717FBA7
:104C9000BBE4000060050020222C0000640000201E
:104CA00066000020680000206A0000206C000020E0
:104CB0006E000020700000207200002074000020B0
:104CC00041542B434950434C4F53453D3000000065
:104CD000880000208400002041542B434950534554
:104CE0004E443D302C000000A08940F22C718842D7
:104CF0007ED1A089E0812068FB49086000BF40F6B2
:104D00007400288000BF2068F7490968401AB18AFA
:104D1000884201D200200DE400BF308940F2B45136
:104D2000884201DD0846308100BF0020C4F8EC0055
:104D300000BF0E22EDA104F10800FCF777FC3178EA
:104D400002A8FDF711FF02A8FBF7D0FA87B23A4696
:104D500002A904F10800FCF769FC0122AFF27C0112
:104D600004F10800FCF762FC318902A8FDF7FCFEA3
:104D700002A8FBF7BBFA87B23A4602A904F1080081
:104D8000FCF754FC0222AFF6406104F10800FCF786
:104D90004DFC002240F22C71204605F01DF800BFAA
:104DA00040F68400288000BF94F8EC0000F0010079
:104DB00030B994F8EC00C0F3400008B9002054E486
:104DC00000BF94F8EC0000F0010080F001002076B4
:104DD000207E50B97189F0680844F060C7480069C6
:104DE00018B17089C54909690860E089A08100E0AF
:104DF0002BE000BF04F1D400FCF7FAFE0020A081F4
:104E000000BFBF490880BF490880BF490880BF492B
:104E10000880BF490880BF490880BF490880BF4952
:104E20000880BF49088000BF94F8D80000F0010056
:104E300030B994F8D80020F00200801C84F8D80023
:104E40001C21AE48FBF73BFA79E4A08940F20471DB
:104E500088427DD1A089E08100BF0020C4F8EC0029
:104E600000BF0B22AFA104F10800FCF7DFFB022218
:104E7000AFF62C7104F10800FCF7D8FB002240F2D9
:104E80002D71204604F0A8FF00BF40F69A0028804C
:104E900000BF94F8EC0000F0010030B994F8EC0089
:104EA000C0F3400008B900200AE400BF94F8EC0009
:104EB00000F0010080F001002076207E012800D162
:104EC00031E000BF0020C4F8EC0000BF132298A11D
:104ED00004F10800FCF7AAFB0222AFF6947104F17A
:104EE0000800FCF7A3FB002240F22D71204604F0DD
:104EF00073FF00BF40F6A800288000BF94F8EC00C4
:104F000000F0010030B994F8EC00C0F3400008B99B
:104F1000002050E400BF94F8EC0000F0010080F0A5
:104F20000100207600BFE089A08100BF04F1D40019
:104F3000FCF75EFE0020A08100BF71490880714926
:104F4000088071490880714908807149088000E033
:104F500019E07049088070490880704908807049DC
:104F6000088000BF94F8D80000F0010030B994F830
:104F7000D80020F00200801C84F8D8001C215F4873
:104F8000FBF79DF91CE5A08940F2077188426FD1BB
:104F9000A089E08100BF0020C4F8EC0000BF0C2213
:104FA00068A104F10800FCF741FB9C20015902A80C
:104FB000FDF7DAFD02A8FBF799F987B23A4602A994
:104FC00004F10800FCF732FB062262A104F108009C
:104FD000FCF72CFB022261A104F10800FCF726FB80
:104FE000002240F22F71204604F0F6FE00BF40F68A
:104FF000BC00288000BFED20005DC0F3401058B910
:1050000094F8EC0000F0010030B994F8EC00C0F323
:10501000400008B9002073E400BF94F8EC00C0F32E
:10502000400070B9ED20005DC0F3401048B19C20F5
:10503000005982B29820015904F10800FCF7F6FAF1
:1050400000E023E000BF0020C4F8EC0000BF00BF78
:1050500040F6C700288000BF94F8EC0000F0010083
:1050600038B994F8EC00C0F3400010B9002047E4D0
:1050700076E000BF94F8EC0000F0010080F0010041
:105080002076207E012800D100E000BFE089A081C9
:1050900000BF04F1D400FCF7ABFD0020A08100BFED
:1050A0001749088017490880174908801749088060
:1050B0001749088017490880174908801749088050
:1050C0001749088000BF94F8D80000F0010030B9FB
:1050D00094F8D80020F00200801C84F8D8001C212D
:1050E0000648FBF7ECF86BE48000002041542B43AA
:1050F000495052584745543D322C0000600500206D
:105100006400002066000020680000206A00002083
:105110006C0000206E000020700000207200002053
:105120007400002041542B48545450494E495400B7
:1051300041542B48545450504152413D224349441C
:10514000222C310041542B48545450444154413D89
:10515000000000002C313030303000000D0A00001B
:10516000A08940F2067188427DD1A089E08100BF0C
:105170000020C4F8EC0000BF1322FEA104F10800D7
:10518000FCF754FA90210859FBF7B0F887B2902049
:1051900001593A4604F10800FCF748FA0122FAA145
:1051A00004F10800FCF742FA0222AFF2500104F1C8
:1051B0000800FCF73BFA002240F22E71204604F072
:1051C0000BFE00BF40F6DD00288000BF94F8EC0025
:1051D00000F0010030B994F8EC00C0F3400008B9C9
:1051E000002021E400BF94F8EC0000F0010080F002
:1051F00001002076207E012800D184E000BF00203D
:10520000C4F8EC0000BF0B22E0A104F10800FCF799
:105210000DFAE1490868FBF769F887B2DE483A46BB
:10522000016804F10800FCF701FA0222AFF2D40190
:1052300004F10800FCF7FAF9002240F2427120461E
:1052400004F0CAFD00BF40F6EC00288000BF94F8CF
:10525000EC0000F0010038B994F8EC00C0F3400015
:1052600010B9002072E47CE000BF00BF0020C4F849
:10527000EC0000BF0E22C9A104F10800FCF7D6F92A
:1052800094F88C003030C0B200900122694604F1DD
:105290000800FCF7CBF90222AFF2401104F108003C
:1052A000FCF7C4F900224FF4E661204604F094FDB7
:1052B00000BF40F6F900288000BF94F8EC0000F031
:1052C000010030B994F8EC00C0F3400008B90020A8
:1052D0003CE400BF94F8EC0000F0010080F0010015
:1052E0002076207E012800D10DE000BF40F601109D
:1052F000288000BFED20005DC0F3001008B9002039
:1053000024E400BF00BFE089A08100BF04F1D40005
:10531000FCF76EFC0020A08100BFA4490880A449CE
:105320000880A4490880A4490880A4490880A449A9
:105330000880A4490880A4490880A449088000BFC7
:1053400094F8D80000F0010030B994F8D80020F0AB
:105350000200801C84F8D8001C218F48FAF7AFFFA8
:1053600096E4A08940F2317188427DD1A089E08124
:1053700000BF0020C4F8EC0000BF0C2294A104F18F
:105380000800FCF753F9A420015902A8FDF7ECFB33
:1053900002A8FAF7ABFF87B23A4602A904F1080067
:1053A000FCF744F90122AFF2C46104F10800FCF7F4
:1053B0003DF9A820015B02A8FDF7D6FB02A8FAF789
:1053C00095FF87B23A4602A904F10800FCF72EF9CE
:1053D0000222AFF2782104F10800FCF727F900223D
:1053E00040F23171204604F0F7FC00BF40F6131084
:1053F000288000BF94F8EC0000F0010030B994F868
:10540000EC00C0F3400008B9002084E400BF94F829
:10541000EC0000F0010080F001002076207E70B9E1
:10542000A4200159AC2000590144A42001515A483C
:10543000C06820B1AC2000595749C9680860E089AC
:10544000A08100BF04F1D400FCF7D2FB0020A081B2
:1054500000BF564908805649088056490880564979
:1054600008805649088000E019E0554908805549F0
:105470000880554908805549088000BF94F8D80035
:1054800000F0010030B994F8D80020F00200801C30
:1054900084F8D8001C214048FAF711FFD4E4A08911
:1054A000B0F5E16F64D1A089E08100BF0020C4F8AD
:1054B000EC0000BF17224AA104F10800FCF7B6F87F
:1054C00090210859FAF712FF87B2902001593A4605
:1054D00004F10800FCF7AAF801222BA104F108004E
:1054E000FCF7A4F80222AFF28C3104F10800FCF7BB
:1054F0009DF8002240F22E71204604F06DFC00BFA2
:1055000040F62A10288000BF94F8EC0000F001005B
:1055100030B994F8EC00C0F3400008B900204EE424
:1055200000BF94F8EC0000F0010080F0010020764C
:10553000E089A08100BF04F1D400FCF759FB0020F2
:10554000A08100BF194908801949088019490880BD
:1055500019490880194908801949088019490880A3
:10556000194908801949088000BF94F8D80043E021
:1055700051E0000041542B48545450504152413D99
:105580002255524C222C22002200000041542B486C
:1055900054545053534C3D006005002041542B4857
:1055A000545450414354494F4E3D00006400002084
:1055B00066000020680000206A0000206C000020C7
:1055C0006E00002070000020720000207400002097
:1055D00041542B48545450524541443D0000000072
:1055E00041542B48545450504152413D22434F4E58
:1055F00054454E54222C220000F0010030B994F89A
:10560000D80020F00200801C84F8D8001C21F94842
:10561000FAF755FE18E4A08940F2327188425DD154
:1056200000BF0020C4F8EC0000BF0B22AFF61061F1
:1056300004F10800FBF7FAFF0222AFF2E04104F1A7
:105640000800FBF7F3FF002240F23271204604F01D
:10565000C3FB00BF40F63710288000BF94F8EC0071
:1056600000F0010030B994F8EC00C0F3400008B934
:10567000002019E400BF94F8EC0000F0010080F075
:105680000100207600BF04F1D400FCF7B1FA00203D
:10569000A08100BFD8490880D8490880D84908802F
:1056A000D8490880D8490880D8490880D849088056
:1056B000D8490880D849088000BF94F8D80000F085
:1056C000010030B994F8D80020F00200801C84F862
:1056D000D8001C21C748FAF7F2FD53E4A08940F234
:1056E0000971884277D1A089E08100BF0020C4F809
:1056F000EC0000BF0B22C9A104F10800FBF796FFE4
:105700000222AFF2A85104F10800FBF78FFF00223C
:1057100040F23471204604F05FFB00BF40F64810B1
:10572000288000BF94F8EC0000F0010030B994F834
:10573000EC00C0F3400008B900206CE400BF94F80E
:10574000EC0000F0010080F001002076207E0128AE
:1057500000D178E000BF0020C4F8EC0000BF0B22AD
:10576000B1A104F10800FBF761FFA2490868FAF74C
:10577000BDFD87B29F483A46016804F10800FBF777
:1057800055FF0222AFF22C6104F10800FBF74EFF37
:10579000002240F24171204604F01EFB00BF40F69B
:1057A0005710288000BF94F8EC0000F0010030B9D9
:1057B00094F8EC00C0F3400008B900202BE400BFCF
:1057C00094F8EC0000F0010080F001002076207ECB
:1057D000012801D137E064E000BF0020C4F8EC00EC
:1057E00000BF0A2293A104F10800FBF71FFF8149C3
:1057F0004868FAF77BFD87B27E483A46416804F173
:105800000800FBF713FF0222AFF2B06104F10800B9
:10581000FBF70CFF002240F24371204604F0DCFA53
:1058200000BF40F66610288000BF94F8EC0000F03E
:10583000010030B994F8EC00C0F3400008B9002032
:1058400015E400BF00BFE089A08100BF04F1D400CF
:10585000FCF7CEF90020A08100BF674908806749A6
:105860000880674908806749088067490880674958
:10587000088067490880674908806749088000BF39
:1058800094F8D80000F0010030B994F8D80020F066
:105890000200801C84F8D8001C215648FAF70FFD3E
:1058A00021E4A08940F20A71884260D1A089E08198
:1058B00000BF0020C4F8EC0000BF0A2260A104F180
:1058C0000800FBF7B3FE0222AFF2707104F108008A
:1058D000FBF7ACFE00224FF4E861204604F07CFAAE
:1058E00000BF40F67410288000BF94F8EC0000F070
:1058F000010030B994F8EC00C0F3400008B9002072
:105900006FE400BF94F8EC0000F0010080F00100AB
:105910002076E089A08100BF04F1D400FCF768F98B
:105920000020A08100BF34490880344908803449F0
:105930000880344908803449088034490880344953
:105940000880344908803449088000BF94F8D800A2
:1059500000F0010030B994F8D80020F00200801C5B
:1059600084F8D8001C212348FAF7A9FCF8E4A089A0
:1059700040F20B71884272D1A089E08100BF002003
:10598000C4F8EC0000BF0C2230A104F10800FBF7C2
:105990004DFE18490868FAF7A9FC87B215483A463F
:1059A000016804F10800FBF741FE0122AFF2284133
:1059B00004F10800FBF73AFE0222AFF6600104F1A1
:1059C0000800FBF733FE002240F23571204604F058
:1059D00003FA00BF40F68510288000BF94F8EC0061
:1059E00000F00100D0BB94F8EC00C0F34000A8BB6D
:1059F000002037E4600500206400002066000020DD
:105A0000680000206A0000206C0000206E0000206A
:105A100070000020720000207400002041542B46CA
:105A200054504349443D310041542B4654504D4F4E
:105A300044453D0041542B46545053534C3D0000C7
:105A400041542B46545051554954000041542B4663
:105A50005450534552563D220000000000E00AE138
:105A600000BF94F8EC0000F0010080F00100207607
:105A7000207E012800D1D0E0FE48816902A8FDF710
:105A800073F800BF0020C4F8EC0000BF0B22FAA19D
:105A900004F10800FBF7CAFD02A8FAF727FC87B259
:105AA0003A4602A904F10800FBF7C0FD0222AFF656
:105AB000541104F10800FBF7B9FD002240F23671E1
:105AC000204604F089F900BF40F69410288000BFFA
:105AD00094F8EC0000F0010030B994F8EC00C0F349
