:020000040800F2
:10000000E0570020590200089D4300089F43000864
:10001000A3430008A7430008AB430008000000000A
:100020000000000000000000000000009D0100082A
:10003000AF43000800000000F1010008B3430008CE
:1000400073020008730200087302000873020008BC
:1000500073020008730200087302000873020008AC
:10006000730200087302000873020008AD3F000825
:10007000B93F0008C53F0008D13F0008DD3F000838
:10008000E93F0008F53F000873020008730200080A
:10009000730200087302000873020008730200086C
:1000A000730200087302000873020008730200085C
:1000B000730200087302000873020008730200084C
:1000C000730200087302000873020008730200083C
:1000D00073020008413C0008613C0008853C0008B0
:1000E000730200087302000873020008730200081C
:1000F0007302000873020008730200080140000840
:1001000073020008730200087302000873020008FB
:10011000DD3C0008013D000873020008730200087E
:100120000D40000817400008234000082F40000839
:100130003B400008730200087302000873020008C5
:1001400073020008730200087302000873020008BB
:1001500047400008534000085F400008233D000866
:10016000730200087302000873020008730200089B
:100170007302000873020008730200080000000008
:100180007302000873020008DFF80CD00EF0D0F9FB
:100190000048004781400008E05700202B4B1968B9
:1001A0000868B0E8F04F80F30988BFF36F8F4FF015
:1001B000000080F3118870470000000006480068C6
:1001C000006880F3088862B661B6BFF34F8FBFF353
:1001D0006F8F00DF00BF00BF08ED00E0DFF80C000C
:1001E000016841F470010160704700BF88ED00E0D4
:1001F000EFF30980BFF36F8F144B1A681EF0100FD6
:1002000008BF20ED108A20E9F04F106008B44FF0CD
:10021000500080F31188BFF34F8FBFF36F8F0CF046
:100220008EFC4FF0000080F3118808BC1968086844
:10023000B0E8F04F1EF0100F08BFB0EC108A80F34A
:100240000988BFF36F8F704700BF00BFC000002058
:10025000EFF30580704700000648804706480047D6
:10026000FEE7FEE7FEE7FEE7FEE7FEE7FEE7FEE766
:10027000FEE7FEE7BD43000889010008704770B53E
:10028000044601F059FB4FF47A71B0FBF1F52846B2
:1002900000F05AF900222146501E00F0DFF800203D
:1002A00070BD10B55748006840F4007055490860AB
:1002B0000846006840F4806008600846006840F422
:1002C00080700860032000F0B7F80F20FFF7D7FF19
:1002D000FFF7D4FF002010BD704710B54FF0FF307E
:1002E0004949086000200860401E091D0860002080
:1002F0000860401E44491039086000200860401E14
:10030000091D086000200860401E091D08600020CB
:100310000860FFF7E1FF002010BD3C480068401C6A
:100320003A490860704739480068704731B5002481
:1003300002F0A0FE044600BF02F09CFE001B0099E4
:100340008842F9D338BD4FF0E020006920F0020068
:100350004FF0E021086170474FF0E020006940F065
:1003600002004FF0E021086170474FF08270704743
:1003700027480068000C704725480068C0F30B0050
:1003800070472348406840F00100214948607047A9
:100390001F48406820F001001D49486070471C4814
:1003A000406840F002001A494860704718484068A9
:1003B00020F002001649486070471548406840F038
:1003C00004001349486070471148406820F0040059
:1003D0000F4948607047012090FAA0F1B1FA81F10D
:1003E0000C4A02EB8101C1F8000470470020012192
:1003F00091FAA1F1B1FA81F1064A02EB8101C1F84B
:1004000000047047003C02402038024000000020F9
:10041000002004E00000274210B5002807DA0A0790
:10042000140EBF4A00F00F031B1FD45403E00A0749
:10043000130EBC4A135410BD00BF00F00702B84BA6
:100440000C3B19684FF6FF031940B74B0B4343EAC7
:100450000221B34B0C3B196000BF70472DE9F05FE0
:1004600080460D461646002700F054F907463946E7
:100470002A46334601F00700C0F1070ABAF1040F1B
:1004800002D94FF0040A01E0C0F1070AD14600F199
:10049000040ABAF1070F02D24FF0000A01E0A0F1FE
:1004A000030AD4464FF0010A0AFA09FAAAF1010A2E
:1004B0000AEA020A0AFA0CFA4FF0010B0BFA0CFBDB
:1004C000ABF1010B0BEA030B4AEA0B042146404651
:1004D000FFF7A2FFBDE8F09F00BF00F01F0201215F
:1004E00091404209920002F1E022C2F8001100BFDF
:1004F000704700BF00F01F02012191408B4A430961
:1005000042F8231000BF704700BF00BF00BF00BF0C
:1005100000BFBFF34F8F00BF00BF00BF80480C3843
:10052000006800F4E06080490843001D7C490C39F4
:10053000086000BF00BF00BFBFF34F8F00BF00BF08
:1005400000BF00E000BFFDE770B504462546681E09
:10055000B0F1807F01D301200FE0681E4FF0E02151
:1005600048610F214FF0FF30FFF756FF00204FF09A
:10057000E021886107200861002070BD4178684A49
:10058000803211600178F9B1121D41681160017B60
:100590000907C27A41EA0261827A41EAC241427B9A
:1005A00041EA8241827B41EA4241C27B41EA024107
:1005B000427A41EA0221027A41EA42010278114379
:1005C000574A8832116005E00021554A8432116093
:1005D000121D1160704710B500F09CF810BD2DE998
:1005E000F04304462046002808DA4D4F00F00F0C77
:1005F000ACF1040C17F80C703F0902E0494F3F5C66
:100600003F093D460E4606F00700C0F10708B8F165
:10061000040F02D94FF0040801E0C0F10708C446F6
:1006200000F10408B8F1070F02D24FF0000801E012
:10063000A0F10308474625FA07F84FF0010909FA27
:100640000CF9A9F1010908EA0908C2F800804FF085
:10065000010808FA07F8A8F1010808EA0508C3F834
:10066000008000BFBDE8F08300BF00F01F02012141
:1006700091402E4A8032430942F8231000BF704750
:1006800010B501460846294A8032430952F8232012
:1006900000F01F040123A3401A400AB1012200E028
:1006A0000022104610BD00BF00F01F020121914042
:1006B0001F4A430942F8231000BF704710B5014696
:1006C00008461B4A8032430952F8232000F01F04D9
:1006D0000123A3401A400AB1012200E00022104683
:1006E00010BD042808D14FF0E021096941F0040150
:1006F0004FF0E022116107E04FF0E021096921F09D
:1007000004014FF0E02211617047704710B5FFF708
:10071000FCFF10BD02480C380068C0F3022070478F
:1007200018ED00E000E400E00000FA0580E100E0E0
:1007300080E200E00146087810381823B0FBF3F29D
:10074000F648805C4865032A05D908686FF30900FC
:10075000001D086503E008686FF309000865086D6F
:10076000704770B5044600250CB9012070BD606A61
:1007700000B100BF022084F8350020680568E84811
:100780000540D4E901010843E168084321690843B1
:1007900061690843A1690843E1690843216A084384
:1007A0000543606A042803D1D4E90B0108430543DB
:1007B000206805602068456925F00705606A0543E3
:1007C000606A042801D1A06A05432068456120467B
:1007D000FFF7B0FF0020E064012084F8350000201E
:1007E000C4E770B504460CB9012070BD94F835001B
:1007F000022801D10120F8E72068006820F00100FC
:10080000216808600020216808602168486021682C
:1008100088602168C86021680861212021684861DA
:100820002046FFF787FF054694F854103F20884084
:10083000A8600020E06484F8350000BF84F834002C
:1008400000BF00BFD1E730B50468246824F48024D9
:1008500005682C60046863608468402C04D10468D7
:10086000A2600468E16003E00468A1600468E260DB
:1008700030BD2DE9F04104460D4616461F4600BF27
:1008800094F83400012802D10220BDE8F081012053
:1008900084F8340000BF022084F835002068006826
:1008A00020F00100216808603B4632462946204678
:1008B000FFF7C9FF2068006840F001002168086068
:1008C0000020E2E72DE9F04104460D4616461F469A
:1008D00000BF94F83400012802D10220BDE8F08165
:1008E000012084F8340000BF022084F8350020681D
:1008F000006820F00100216808603B463246294626
:100900002046FFF7A0FF2068006840F01E00216825
:1009100008602068406940F08000216848612068D4
:10092000006840F00100216808600020D6E770B53B
:10093000044600252068006820F001002168086056
:1009400002F098FB054612E002F094FB401BB0F564
:100950007A7F0CD9E06C40F02000E06400BF0020FA
:1009600084F8340000BF032084F8350070BD20688F
:10097000006800F001000028E6D100BF84F83400D0
:1009800000BF012084F835000020EFE72DE9F84F83
:1009900004460F46164600200090256D2FB994F8A6
:1009A0005410202000FA01F804E094F854101020AC
:1009B00000FA01F802F05EFB009064E0286814F889
:1009C000542F0821914000EA0109286822785549EE
:1009D000914000EA010A286814F854295149C91CB9
:1009E000914000EA010BB9F1000F05D1BAF1000FF7
:1009F00002D1BBF1000F2FD0B9F1000F08D0E06C8D
:100A000040F00100E06494F8541008208840A86089
:100A1000BAF1000F08D0E06C40F00200E06494F8F6
:100A2000541040488840A860BBF1000F09D0E06C2A
:100A300040F00400E06494F854103A48C01C884028
:100A4000A860042084F8350000BF002084F834003A
:100A500000BF0120BDE8F88F701CA0B12EB102F0DC
:100A600009FB0099401AB0420DD9E06C40F020001B
:100A7000E064032084F8350000BF002084F83400CF
:100A800000BF0320E6E7286800EA0800002895D0A8
:100A90001FBB94F8541030208840A860206800687C
:100AA00000F4802088B12068006800F4002018B9A4
:100AB000112084F835000BE02068006800F4002065
:100AC00030B1212084F8350002E0112084F835008F
:100AD00000BF002084F834001EE094F85410102069
:100AE0008840A8602068006800F4802088B12068F1
:100AF000006800F4002018B9312084F835000BE0BC
:100B00002068006800F4002030B1412084F83500EE
:100B100002E0312084F8350000209BE794E80008CB
:100B20003F8010F00100800070B50446256D2868F4
:100B300094F8542008219140084000B320680068D0
:100B400000F00400D8B12068006820F0040021689B
:100B5000086094F8541008208840A860E06C40F0C9
:100B60000100E064042084F8350000BF002084F810
:100B7000340000BFA06C10B12046A16C88472868E3
:100B800094F8542070499140084000B320684069AF
:100B900000F08000D8B12068406920F08000216812
:100BA000486194F8541068488840A860E06C40F0B0
:100BB0000200E064042084F8350000BF002084F8BF
:100BC000340000BFA06C10B12046A16C8847286893
:100BD00094F854205C49C91C9140084008B320682F
:100BE000006800F00200E0B12068006820F0020018
:100BF0002168086094F854105348C01C8840A860CD
:100C0000E06C40F00400E064042084F8350000BF8C
:100C1000002084F8340000BFA06C10B12046A16C05
:100C20008847286894F85420102191400840C0B3A8
:100C30002068006800F0080098B32068006800F49D
:100C40008020B0B194F8541010208840A86020682B
:100C5000006800F4002018B9312084F835001BE04A
:100C60002068006800F40020B0B1412084F835000D
:100C700012E02068006800F4807028B920680068DD
:100C800020F008002168086094F854101020884073
:100C9000A860312084F83500206C10B12046216C0A
:100CA0008847286894F8542020219140084018B3C0
:100CB0002068006800F01000F0B12068006800F4BF
:100CC0008020D0B194F8541020208840A86020687B
:100CD000006800F4002028B9606C68B12046616C9F
:100CE000884729E02068006800F4002020B1E06B0C
:100CF00010B12046E16B88471EE02068006800F4D0
:100D0000807028B92068006820F010002168086011
:100D100094F8541020208840A860E06CE064112012
:100D200084F8350000BF002084F8340000BFE06B79
:100D300010B12046E16B884770BD014691F835003F
:100D400070470146C86C704701008000F8B5024644
:100D50000B460025002400200021DFE0012606FAD2
:100D600001F51E6806EA0504AC4271D15E68022EE8
:100D700002D05E68122E13D1CF0802F1200656F879
:100D800027004E07F70E0F26BE40B0434F07FF0E59
:100D90001E69BE403043CF0802F1200646F8270006
:100DA00010684F000326BE40B0431E7906F00306CC
:100DB0004F00BE40304310605E68012E08D05E6870
:100DC000022E05D05E68112E02D05E68122E13D15D
:100DD00090684F000326BE40B0434F00DE68BE401F
:100DE00030439060506801268E40B0431E79C6F3B0
:100DF00000168E4030435060D0684F000326BE403E
:100E0000B0434F009E68BE403043D0605E6806F03D
:100E10008056B6F1805FA8D100BFB04E366846F468
:100E20008046AE4F3E603E46366806F480460096E9
:100E300000BF00BFAA4E8F0856F827008E07370F55
:100E40000F26BE40B043A74EB24202D1002629E091
:100E500063E0A54EB24201D1012623E0A34EB24287
:100E600001D102261EE0A24EB24201D1032619E0B2
:100E7000A04EB24201D1042614E09F4EB24201D1ED
:100E800005260FE09D4EB24201D106260AE09C4E97
:100E9000B24201D1072605E09A4EB24201D108269E
:100EA00000E009268F073F0FBE4030438C4E8F086D
:100EB00046F82700944E3068A0435E6806F48036FA
:100EC000B6F5803F00D120438F4E3060361D30682C
:100ED000A0435E6806F40036B6F5003F00D120431B
:100EE000894E361D3060361D3068A0435E6806F4BA
:100EF0008016B6F5801F00D12043834E083630603F
:100F0000361D3068A0435E6806F40016B6F5001F73
:100F100000D120437C4E0C363060491C1029FFF470
:100F20001DAFF8BDF0B50C460025002200230021BE
:100F300097E0012606FA01F504EA0502AA427DD1EE
:100F400006684FEA410C032707FA0CF7BE43066018
:100F5000CF0800F1200656F827604F074FEAD76CFC
:100F60000F2707FA0CF7BE434FEAD10C00F1200718
:100F700047F82C6086684FEA410C032707FA0CF704
:100F8000BE438660476801268E40B7434760C66807
:100F90004FEA410C032707FA0CF7BE43C660504ED8
:100FA0008F0856F827308E07370F0F26BE40334084
:100FB0004C4EB04201D1002628E04B4EB04201D148
:100FC000012623E0494EB04201D102261EE0484EE0
:100FD000B04201D1032619E0464EB04201D10426A9
:100FE00014E0454EB04201D105260FE0434EB04219
:100FF00001D106260AE0424EB04201D1072605E0A3
:10100000404EB04201D1082600E009268F073F0F6D
:10101000BE409E4224D18E07370F0F2606FA07F3F3
:101020002F4E8F0856F827609E432D4F4FEA910CA4
:1010300047F82C60344E3668964300E010E0324F9B
:101040003E603E1D366896433F1D3E603E1D36683D
:1010500096433F1D3E603E1D366896433F1D3E60F1
:10106000491C1029FFF465AFF0BD024613690B401F
:101070000BB1012000E0002070470AB1816101E05E
:101080000B048361704742694A404261704708B56A
:1010900002464FF48030009000980843009000987A
:1010A000D061D1610098D061D0690090D06900F41E
:1010B000803008B1002008BD0120FCE7704710B562
:1010C0000446114814300068204028B10E481430FE
:1010D00004602046FFF7F2FF10BD000044380240D4
:1010E00008380140000002400004024000080240AD
:1010F000000C0240001002400014024000180240A0
:10110000001C024000200240003C0140704738B5FE
:1011100004460025207800F00100002866D0F6483B
:10112000006800F00C0004280DD0F348006800F0BF
:101130000C00082813D1F048001F006800F480005C
:10114000B0F5800F0BD1EC4808380068C0F3404080
:1011500000284BD06068002848D1012038BD00200D
:10116000E549891F087001F085FF054608E001F098
:1011700081FF401B41F28831884201D90320EDE70D
:10118000DD4808380068C0F340400028EFD12079DE
:10119000D949891F08706068A0B101F06BFF05464E
:1011A00008E001F067FF401B41F28831884201D915
:1011B0000320D3E7D04808380068C0F34040002837
:1011C000EFD013E001F056FF054608E001F052FFB2
:1011D000401B41F28831884201D90320BEE7C6484E
:1011E00008380068C0F340400028EFD1207800F0B4
:1011F0000200022869D1C048006800F00C0058B114
:10120000BD48006800F00C00082821D1BA48001F32
:10121000006800F48000D8B9B74808380068C0F307
:10122000400020B1E068012801D0012096E7B248D3
:101230000838006820F0F800F82292FAA2F2B2FA18
:1012400082F2216991400843AB49083908603CE0CB
:10125000E06828B30120A949086001F00BFF0546AA
:1012600006E001F007FF401B642801D9032075E761
:10127000A14808380068C0F340000028F1D09E481B
:101280000838006820F0F800F82292FAA2F2B2FAC8
:1012900082F221699140084397490839086014E0B7
:1012A00000209649086001F0E5FE054606E001F0E1
:1012B000E1FE401B642801D903204FE78E4808381F
:1012C0000068C0F340000028F1D1207800F0080049
:1012D00008282CD16069A8B101208949086001F073
:1012E000C9FE054606E001F0C5FE401B642801D991
:1012F000032033E780486C300068C0F340000028CA
:10130000F1D014E000207E49086001F0B3FE0546EC
:1013100006E001F0AFFE401B642801D903201DE761
:1013200075486C300068C0F340000028F1D1207887
:1013300000F0040004286DD100BF6F483830006809
:1013400040F080506C49383108600846006800F071
:101350008050009000BF00BF6A48006840F4807071
:101360006849086001F086FE054606E001F082FE4D
:10137000401B642801D90320F0E66248006800F4AD
:1013800080700028F2D000205B496831087001F0BD
:1013900071FE054608E001F06DFE401B41F2883108
:1013A000884201D90320D9E6534868300068C0F369
:1013B00040000028EFD1207A4F4968310870A068BA
:1013C000A0B101F057FE054608E001F053FE401BB6
:1013D00041F28831884201D90320BFE6464868308F
:1013E0000068C0F340000028EFD013E001F042FE97
:1013F000054608E001F03EFE401B41F2883188427C
:1014000001D90320AAE63C4868300068C0F34000D8
:101410000028EFD1A069E8B33748006800F00C005D
:10142000082872D0A069022850D1002033490866EC
:1014300001F020FE054606E001F01CFE401B64287A
:1014400001D903208AE62C4808380068C0F34060C0
:101450000028F1D1D4E90701084347F6C07292FA97
:10146000A2F2B2FA82F2616A914008430122A16AB3
:10147000C2EB51014FF4403292FAA2F2B2FA82F278
:10148000914008434FF0706292FAA2F2B2FA82F2EF
:10149000E16A00E03BE0914008431749091F0860FA
:1014A00001201649086601F0E5FD054606E001F059
:1014B000E1FD401B642801D903204FE60E4808389F
:1014C0000068C0F340600028F1D020E000200B4904
:1014D000086601F0CFFD054606E001F0CBFD401B9C
:1014E000642801D9032039E6034808380068C0F3AE
:1014F00040600028F1D10AE008380240000047426D
:10150000800E474200700040FFE7012026E60020E1
:1015100024E670B504460E460025FE48006800F03B
:101520000F00B0426FD2FB490E700846006800F011
:101530000F00B04201D0012070BD207800F0020001
:10154000022807D1F448006820F0F000A1680843A1
:10155000F1490860207800F0010000283ED0606862
:10156000012807D1EC4808380068C0F34040B8B9FA
:101570000120E1E76068022802D06068032807D1F3
:10158000E54808380068C0F3406048B90120D3E757
:10159000E14808380068C0F3400008B90120CBE7F3
:1015A000DD48006820F0030061680843DA490860FC
:1015B00001F060FD05466068012810D108E001F0E7
:1015C00059FD401B41F28831884201D90320B3E71D
:1015D000D148006800F00C000428F0D1CDE060682C
:1015E000022811D108E001F045FD401B41F288318D
:1015F000884201D903209FE7C748006800F00C002B
:101600000828F0D1B9E024E06068032810D108E090
:1016100001F030FD401B41F28831884201D903209E
:101620008AE7BD48006800F00C000328F0D1A4E070
:1016300008E001F01FFD401B41F28831884201D9CA
:10164000032079E7B448006800F00C000028F0D1CE
:1016500093E0207800F00200022807D1AE4800682D
:1016600020F0F000A1680843AB490860207800F042
:101670000100002877D06068012807D1A648083803
:101680000068C0F34040B8B9012055E760680228FF
:1016900002D06068032807D19F4808380068C0F36B
:1016A000406048B9012047E79B4808380068C0F30C
:1016B000400008B901203FE79748006820F0030088
:1016C000616808439449086001F0D4FC05466068ED
:1016D000012810D108E001F0CDFC401B41F2883117
:1016E000884201D9032027E78B48006800F00C00EE
:1016F0000428F0D137E06068022810D108E001F03A
:10170000B9FC401B41F28831884201D9032013E71C
:101710008148006800F00C000828F0D123E06068E0
:10172000032810D108E001F0A5FC401B41F28831EC
:10173000884201D90320FFE67748006800F00C00DA
:101740000328F0D10FE008E001F094FC401B41F2C7
:101750008831884201D90320EEE66F48006800F026
:101760000C000028F0D16B490E700846006800F0AC
:101770000F00B04201D00120DEE6207800F0040026
:10178000042807D16448006820F4E050E168084369
:1017900061490860207800F00800082808D15E48F8
:1017A000006820F46040216940EAC1005A4908609D
:1017B0000F20FEF764FD0020BEE670B586B0064639
:1017C0000C46154636BB00BF53482830006840F031
:1017D00001005149283108600846006800F0010006
:1017E000009000BF00BF88150190022002900320E6
:1017F000049000200390059001A94848FFF7A6FA3D
:101800004548006820F0EC6044EA0501084342497D
:10181000086025E000BF40482830006840F0040020
:101820003D49283108600846006800F00400009037
:1018300000BF00BF481501900220029003200490D1
:1018400000200390059001A93548FFF77FFA324840
:10185000006820F0784044EAC50108432E4908603A
:1018600006B070BD01202F49C864704700202D4983
:10187000C864704770B50021002200230020264C68
:10188000246804F00C0424B1042C04D0082C4FD19B
:1018900003E025484EE025484CE01F4C241F2468F7
:1018A00004F03F011C4C241F246804F4800484B11C
:1018B0001E4CB4FBF1F5184C241F246847F6C07683
:1018C000344096FAA6F6B6FA86F6F44005FB04F222
:1018D0000FE0154CB4FBF1F50F4C241F246847F6BC
:1018E000C076344096FAA6F6B6FA86F6F44005FBC2
:1018F00004F2094C241F246804F440344FF44035AA
:1019000095FAA5F5B5FA85F5EC40641C6300B2FBC9
:10191000F3F00FE0003C02400838024000000240B3
:1019200000080240000047420024F40000127A0040
:101930007E4800BF00BF70BD10B5FFF79BFF7C491C
:10194000096801F0F001F02292FAA2F2B2FA82F2F2
:10195000D140784A515CC840774908600846006821
:1019600010BD10B5FFF7E8FF7149096801F4E051B7
:101970004FF4E05292FAA2F2B2FA82F2D1406D4AEA
:10198000515CC84010BD10B5FFF7D6FF6849096823
:1019900001F460414FF4604292FAA2F2B2FA82F28C
:1019A000D140644A515CC84010BD0F2101606049BC
:1019B0000839096801F48021B1F5802F02D1052191
:1019C00041600CE05A490839096801F48031B1F5E9
:1019D000803F02D10121416001E000214160544972
:1019E0000839096801F0010111B10121C16001E06C
:1019F0000021C1604E490839096801F0F801F82258
:101A000092FAA2F2B2FA82F2D140016148496831F9
:101A1000096801F00401042902D1052181600AE06E
:101A200043496831096801F0010111B10121816068
:101A300001E0002181603E496C31096801F001013B
:101A400011B10121416101E00021416138490839AA
:101A5000096801F08071B1F1807F02D102218161BA
:101A600001E0012181613249091F096801F4800206
:101A7000C2612F49091F096801F03F0202622C4927
:101A8000091F096847F6C072114092FAA2F2B2FA31
:101A900082F2D14041622649091F096801F44031B0
:101AA00001F5803149004FF4403292FAA2F2B2FAC5
:101AB00082F2D14081621E49091F096801F07061FC
:101AC0004FF0706292FAA2F2B2FA82F2D140C16291
:101AD00070470F220260164A126802F00302426049
:101AE000134A126802F0F0028260114A126802F48E
:101AF000E052C2600E4A126802F46042D2080261EB
:101B00000E4A126802F00F020A607047704710B563
:101B10000748001D006800F08000802805D1FFF70D
:101B2000F5FF80200249891D087010BD0024F400D3
:101B3000083802409CE8000898000020003C024061
:101B40002DE9F041044600252068056925F440553B
:101B5000E0680543206805612068C56849F20C60AB
:101B600085432169A068084361690843E169084326
:101B700005432068C5602068456925F44075A06963
:101B8000054320684561E069B0F5004F72D1FE4918
:101B90002068884203D0FD492068884234D1FFF78D
:101BA000F2FE00EBC00101EB001061684900B0FBE0
:101BB000F1F06421B0FBF1F6FFF7E5FE00EBC001A8
:101BC00001EB001061684900B0FBF1F7FFF7DBFEA5
:101BD00000EBC00101EB001061684900B0FBF1F0BF
:101BE0006421B0FBF1F000EBC00101EB0010A7EBAA
:101BF0008000322101EB00106421B0FBF1F066F3AC
:101C00001F1021688860A6E0FFF7ABFE00EBC00163
:101C100001EB001061684900B0FBF1F06421B0FBFA
:101C2000F1F6FFF79EFE00EBC00101EB00106168CA
:101C30004900B0FBF1F7FFF794FE00EBC00101EBA8
:101C4000001061684900B0FBF1F06421B0FBF1F0D5
:101C500000EBC00101EB0010A7EB8000322101EB8B
:101C600000106421B0FBF1F066F31F10216888605A
:101C700071E0FFE7C4492068884203D0C349206867
:101C8000884234D1FFF77FFE00EBC00101EB00106A
:101C900061688900B0FBF1F06421B0FBF1F6FFF759
:101CA00072FE00EBC00101EB001061688900B0FB1F
:101CB000F1F7FFF768FE00EBC00101EB001061686F
:101CC0008900B0FBF1F06421B0FBF1F000EBC00142
:101CD00001EB0010A7EB8000322101EB0010642122
:101CE000B0FBF1F066F31F102168886033E0FFF766
:101CF00038FE00EBC00101EB001061688900B0FB09
:101D0000F1F06421B0FBF1F6FFF72BFE00EBC00110
:101D100001EB001061688900B0FBF1F7FFF721FECD
:101D200000EBC00101EB001061688900B0FBF1F02D
:101D30006421B0FBF1F000EBC00101EB0010A7EB58
:101D40008000322101EB00106421B0FBF1F066F35A
:101D50001F1021688860BDE8F081704710B5044607
:101D60000CB9012010BDA06900B100E000BF94F8DB
:101D7000390028B9002084F838002046FFF7EDFF2D
:101D8000022084F839002068C06820F400502168DF
:101D9000C8602046FFF7D4FE2068006920F4904018
:101DA000216808612068406920F02A0021684861A4
:101DB0002068C06840F400502168C8600020E063DB
:101DC000012084F839000020CCE710B504460CB996
:101DD000012010BD94F8390028B9002084F838009B
:101DE0002046FFF7BAFF022084F839002068C06857
:101DF00020F400502168C8602046FFF7A1FE20684B
:101E0000006920F49040216808612068406920F052
:101E10002200216848612068406940F0080021687C
:101E200048612068C06840F400502168C860002004
:101E3000E063012084F839000020CAE770B5044649
:101E40000D460CB9012070BD94F8390028B9002066
:101E500084F838002046FFF780FF022084F839001C
:101E60002068C06820F400502168C8602046FFF751
:101E700067FE2068006920F400602168086120681E
:101E8000406920F02A00216848612068006940F418
:101E90008040216808612068006920F020002168E6
:101EA0000861206800692843216808612068C068CB
:101EB00040F400502168C8600020E063012084F8ED
:101EC00039000020BFE770B504460D4616460CB930
:101ED000012070BD94F8390028B9002084F838003A
:101EE0002046FFF73AFF022084F839002068C068D6
:101EF00020F400502168C8602046FFF721FE2068CA
:101F0000006920F49040216808612068406920F051
:101F10002A00216848612068006920F00F002168CC
:101F20000861206800692843216808612068C0684A
:101F300020F400602168C8602068C06830432168D0
:101F4000C8602068C06840F400502168C860002064
:101F5000E063012084F839000020BAE7704710B52B
:101F600004460CB9012010BD022084F83900204637
:101F7000FFF7F4FF0020E06384F8390000BF84F825
:101F8000380000BF00BFEEE7001001400014014020
:101F90002DE9F04104460E4617461D464FF0000855
:101FA00001F068F880469FBB2BE0681C48B32DB158
:101FB00001F060F8A0EB0800A84222D92068C068B0
:101FC00020F080002168C8602068C06820F02000F0
:101FD0002168C8602068C06820F480702168C860EB
:101FE0002068406920F0010021684861012084F8E0
:101FF000390000BF002084F8380000BF0320BDE88E
:10200000F081206800683040B04202D1012001E038
:1020100003E000200028C8D035E02AE0681C40B367
:102020002DB101F027F8A0EB0800A84221D92068C3
:10203000C06820F080002168C8602068C06820F077
:1020400020002168C8602068C06820F48070216882
:10205000C8602068406920F00100216848610120C3
:1020600084F8390000BF002084F8380000BF032046
:10207000C5E7206800683040B04201D1012000E08F
:1020800000200028CAD10020B9E72DE9F047044616
:102090000D46164699464FF0000894F83980B8F17D
:1020A000010F02D0B8F1220F65D105B116B9012098
:1020B000BDE8F08700BF94F83800012801D1022064
:1020C000F6E7012084F8380000BF0020E06394F8B0
:1020D0003900222803D1322084F8390002E012208E
:1020E00084F83900A684E68428E0E08C401EE08471
:1020F000A068B0F5805F14D14B46002280212046B5
:10210000FFF746FF08B10320D2E72F463888C0F317
:10211000080021684860206908B9AD1C0EE06D1CFC
:102120000CE04B46002280212046FFF731FF08B12A
:102130000320BDE715F8010B21684860E08C0028FA
:10214000D3DC4B46002240212046FFF721FF08B197
:102150000320ADE794F83900322803D1222084F817
:10216000390002E0012084F8390000BF002084F823
:10217000380000BF9CE702209AE72DE9F0470446AB
:102180000D46164699464FF0000894F83980B8F18C
:10219000010F02D0B8F1120F69D105B116B90120B3
:1021A000BDE8F08700BF94F83800012801D1022073
:1021B000F6E7012084F8380000BF0020E06394F8BF
:1021C0003900122803D1322084F8390002E022209D
:1021D00084F83900A685E68535E0E08D401EE0856F
:1021E000A068B0F5805F18D14B4600222021204620
:1021F000FFF7CEFE08B10320D2E72F46206930B9A1
:1022000020684068C0F308003880AD1C1BE02068DF
:102210004068C0B238806D1C15E04B46002220217A
:102220002046FFF7B5FE08B10320B9E7206920B9C1
:102230002068406805F8010B05E02068406800F060
:102240007F0005F8010BE08D0028C6DC94F839000A
:10225000322803D1122084F8390002E0012084F8EA
:10226000390000BF002084F8380000BF98E7022042
:1022700096E730B50346002493F83940012C01D08D
:10228000222C37D101B10AB9012030BD00BF93F82B
:102290003800012801D10220F7E7012083F8380037
:1022A00000BF19629A84DA840020D86393F8390059
:1022B000222803D1322083F8390002E0122083F86B
:1022C00039001868C06840F480701D68E8601868BC
:1022D000406940F001001D68686100BF002083F87C
:1022E000380000BF1868C06840F080001D68E860D2
:1022F0000020CAE70220C8E730B50346002493F85F
:102300003940012C01D0122C37D101B10AB901207A
:1023100030BD00BF93F83800012801D10220F7E753
:10232000012083F8380000BF99629A85DA85002081
:10233000D86393F83900122803D1322083F839008A
:1023400002E0222083F839001868C06840F48070E9
:102350001D68E8601868406940F001001D68686108
:1023600000BF002083F8380000BF1868C06840F044
:1023700020001D68E8600020CAE70220C8E7704717
:1023800070B50546AC6B0020E085E084012084F840
:102390003900E06B40F01000E0632046FFF7EFFFEC
:1023A00070BD704770B50446A56B2846FFF7F9FF6E
:1023B00070BD704770B50546AC6B2868006800F4C6
:1023C000807070B90020E0842068406920F08000AF
:1023D000216848612068C06840F040002168C860FA
:1023E00002E02046FFF7E5FF70BDF7B5044615464D
:1023F000002794F83970012F01D0222F41D1019884
:1024000000B10DB90120FEBD00BF94F838000128CD
:1024100001D10220F7E7012084F8380000BF0198BD
:102420002062A584E5840020E06394F83900222826
:1024300003D1322084F8390002E0122084F83900F8
:10244000F748216BC863F748216B0864F648216B95
:10245000886401AE23681A1D31682B46206BFEF795
:1024600031FA6FF04000216808602068406940F050
:1024700080002168486100BF002084F8380000BF58
:10248000C1E70220BFE7704770B50446A56B284638
:10249000FFF7F9FF70BD704770B50546AC6B286853
:1024A000006800F4807090B90020E08520684069E1
:1024B00020F040002168486194F83900322803D1A7
:1024C000122084F8390002E0012084F83900204607
:1024D000FFF7E1FF70BDF7B504461546002794F8F5
:1024E0003970012F01D0122F3CD1019800B10DB9E4
:1024F0000120FEBD00BF94F83800012801D1022060
:10250000F7E7012084F8380000BF0198A062A58594
:102510000020E06394F83900122803D1322084F8B7
:10252000390002E0222084F83900C048616BC8639A
:10253000BF48616B0864BC48616B886401AE326857
:102540002368191D2B46606BFEF7BCF920684069B3
:1025500040F040002168486100BF002084F8380046
:1025600000BFC6E70220C4E7014600BF91F838006B
:10257000012801D102207047012081F8380000BFF6
:1025800091F83900122806D10868406920F08000CF
:102590000A6850611AE091F83900222806D10868CB
:1025A000406920F040000A6850610FE091F839005E
:1025B00032280BD10868406920F080000A68506119
:1025C0000868406920F040000A68506100BF0020A0
:1025D00081F8380000BF00BFCDE708B5014600BF55
:1025E00091F83800012801D1022008BD012081F8AE
:1025F000380000BF91F83900122806D108684069F8
:1026000040F080000A6850612CE091F839002228DF
:102610000FD100BF0868006800900868406800900B
:1026200000BF00BF0868406940F040000A68506180
:1026300018E091F83900322814D100BF086800680A
:10264000009008684068009000BF00BF08684069BB
:1026500040F080000A6850610868406940F040001E
:102660000A68506100BF002081F8380000BF00BF39
:10267000BBE710B504462068406920F0800021685F
:1026800048612068406920F0400021684861206B63
:1026900010B1206BFEF74BF9606B10B1606BFEF769
:1026A00046F9012084F83900002010BD10B5044619
:1026B0002068C06820F040002168C86094F83900A4
:1026C000322803D1222084F839000EE02068C06847
:1026D00020F480702168C8602068406920F0010003
:1026E00021684861012084F839002046FFF761FE27
:1026F000002010BD10B50146002391F83930122B8F
:1027000001D0322B2CD18868B0F5805F0FD10A6AD6
:102710001088C0F308000C686060086918B9086A7E
:10272000801C086209E0086A401C086205E00C6A27
:10273000601C086220780C686060C88C401E80B203
:10274000C88458B90868C06820F080000C68E06050
:102750000868C06840F040000C68E060002010BDD0
:102760000220FCE770B50446002694F83960222E5A
:1027700001D0322E52D1A068B0F5805F13D1A56A86
:10278000206940B920684068C0F308002880A06A2A
:10279000801CA06219E020684068C0B22880A06A4E
:1027A000401CA06211E0206938B920684068C1B2BD
:1027B000A26A501CA062117007E02068406800F017
:1027C0007F01A26A501CA0621170E08D401E80B291
:1027D000E08508BB2068C06820F020002168C86040
:1027E00094F83900322803D1122084F839000EE021
:1027F0002068C06820F480702168C8602068406943
:1028000020F0010021684861012084F83900204649
:10281000FFF741FE002070BD0020FCE70220FAE730
:10282000B5230008A5230008812300089924000887
:1028300089240008F8B504460025002620680068B1
:1028400000F001052068C06800F480766DB166B1C3
:1028500000BF20680068009020684068009000BFBA
:1028600000BFE06B40F00100E06320680068C0F347
:1028700040052068406900F001066DB166B100BFF7
:1028800020680068009020684068009000BF00BF8A
:10289000E06B40F00400E06320680068C0F380054E
:1028A0002068406900F001066DB166B100BF206884
:1028B0000068009020684068009000BF00BFE06B97
:1028C00040F00200E06320680068C0F3C0052068A3
:1028D000406900F001066DB166B100BF2068006874
:1028E000009020684068009000BF00BFE06B40F09F
:1028F0000800E06320680068C0F340152068C068E5
:1029000000F020061DB116B12046FFF72BFF20680E
:102910000068C0F3C0152068C06800F080061DB1D3
:1029200016B12046FFF7E6FE20680068C0F3801568
:102930002068C06800F040061DB116B12046FFF7C0
:10294000B5FEE06B28B1012084F839002046FFF77E
:1029500016FDF8BD014600BF91F83800012801D1ED
:1029600002207047012081F8380000BF022081F862
:1029700039000868C06840F001000A68D060012092
:1029800081F8390000BF002081F8380000BF00BF87
:10299000E7E7014600BF91F83800012801D1022085
:1029A0007047012081F8380000BF022081F839000B
:1029B0000868C06840F002000A68D060012081F811
:1029C000390000BF002081F8380000BF00BFE7E7F2
:1029D000014600BF91F83800012801D1022070475C
:1029E000012081F8380000BF022081F83900086812
:1029F000C06820F002000A68D060012081F8390028
:102A000000BF002081F8380000BF00BFE7E70146A3
:102A1000002200BF91F83800012801D10220704740
:102A2000012081F8380000BF022081F839000868D1
:102A3000C26822F00C0242F008020868C26001205D
:102A400081F8390000BF002081F8380000BF00BFC6
:102A5000E5E70146002200BF91F83800012801D1C6
:102A600002207047012081F8380000BF022081F861
:102A700039000868C26822F00C0242F004020868BB
:102A8000C260012081F8390000BF002081F83800C1
:102A900000BF00BFE5E7014691F8390070470146E5
:102AA000C86B704700B593B000BF2748006840F07E
:102AB0008050254908600846006800F08050019069
:102AC00000BF00BF00BF2148006840F480401F499C
:102AD00008600846006800F48040019000BF00BF15
:102AE000012002900390002005904FF4800109918D
:102AF0000220089008210A914FF4A8710B9102213D
:102B00000C9107210D9102A8FEF701FB10B10120E5
:102B100013B000BD02200F900020109007200E90EF
:102B20000E9840F008000E904FF4A05011904FF412
:102B30008050129006210EA8FEF7EBFC08B1012090
:102B4000E6E70020E4E70000403802400070004063
:102B500001464FF40030081AC0F38F2070472DE96A
:102B6000F04304460E461546DDE907892046FFF787
:102B7000EFFFC7B2002243E001209040304000B98F
:102B80003CE0B14830F81700012191400843AE49BC
:102B900021F81700E0684FEA420C032101FA0CF11A
:102BA0008843510008FA01F10843E06020684FEAC9
:102BB000420C032101FA0CF18843510005FA01F19E
:102BC00008432060012D01D0022D16D1616801203B
:102BD000904080B221EA000003FA02F189B2084372
:102BE0006060A0684FEA420C032101FA0CF18843AF
:102BF000510009FA01F10843A06000BF501CC2B2A5
:102C0000102AB9DBBDE8F08300B502461046FFF795
:102C10009FFF012101FA00F08C49096808438B49A4
:102C2000086000BD2DE9FC4305460C4616461F46CC
:102C3000DDE909890CB9BDE8FC832846FFF7E4FF0C
:102C40003B46324621462846CDE90089FFF787FFFB
:102C500000BFF0E72DE9FC4705460E4617469846AB
:102C6000DDE90A9A0EB9BDE8FC872846FFF7CCFFDC
:102C700000241AE00120A040304000B914E0E1082F
:102C800005F1200050F821006107CA0E0F21914084
:102C900088436107C90E0AFA01F10843E20805F109
:102CA000200141F8220000BF641C102CE2D33B46F7
:102CB000022231462846CDE90089FFF750FF00BFC8
:102CC000D1E770B503460C461846FFF741FFC5B281
:102CD000002214E001209040204070B11868560096
:102CE0000321B14008431860574830F8150001210E
:102CF00091408843544921F81500501CC2B2102A53
:102D0000E8DB70BD30B5024600200BE001238340B4
:102D10000B402BB1136845000324AC40A343136060
:102D2000431CD8B21028F1DB30BD30B5024600207C
:102D30000FE0012383400B404BB11368450003248F
:102D4000AC40A34345000124AC4023431360431C23
:102D5000D8B21028EDDB30BD30B5024600200BE0C4
:102D6000012383400B402BB1136845000324AC4082
:102D700023431360431CD8B21028F1DB30BD30B5BB
:102D80000246002011E0012383400B4003B90AE012
:102D9000136845000324AC40A34345000224AC4023
:102DA0002343136000BF431CD8B21028EBDB30BDB7
:102DB00070B50346002011E0012484400C4004B9A2
:102DC0000AE0DC6846000325B540AC43450002FA42
:102DD00005F52C43DC6000BF441CE0B21028EBDB9F
:102DE00070BD41F48032C261C161C261C369C3690F
:102DF00070470146002002E0421C90B249100129B0
:102E0000FADC704700B502461046FFF7A1FE01212B
:102E100081400E48006888430C49086000BD00B539
:102E200002461046FFF794FE074931F8100000BD36
:102E300000B502461046FFF78BFE034931F810003B
:102E4000C04380B200BD00002C0100203038024099
:102E50009748006820F08070954A1060104600681E
:102E600040F0807010609348006820F00100914AA3
:102E700010601046006840F00100106000205060B3
:102E80001046416800BF00BF8A484068401A70473A
:102E90002DE9F04705460E4617469846DDF8209086
:102EA00085480078052802DB0020BDE8F087142063
:102EB0000BF0BAFC04460CB90020F6E765606068C8
:102EC000A060207866F300002070207867F341004E
:102ED0002070C4F80C80C4F810907748017800780E
:102EE000401C754A1070101D40F821402046DCE758
:102EF0002DE9F0410646002408E06F48001D50F817
:102F00002400B04200D105E0601CC4B26A480078D9
:102F1000A042F2DC00BF68480078A04201D1BDE8C1
:102F2000F0816548001D50F8247000BFEFF3108059
:102F3000054672B608E06048001D611C50F821107B
:102F400040F82410601CC4B25B480078401EA042C8
:102F5000F1DC59480078401E5749087038460BF09C
:102F60003BFC05B962B600BFD9E7017821F0020148
:102F700001707047017821F00201891C01707047CF
:102F800041688160704709B1012200E000220378A6
:102F900062F300030370704741607047704710B5DB
:102FA00046480068401C454908604548006820B113
:102FB00043480068401E42490860002453E03E48F0
:102FC000001D50F8240000284BD03B48001D50F84D
:102FD00024000078C0F34000F0B33748001D50F8DB
:102FE0002400806850B13448001D50F824008068E7
:102FF000401E3149091D51F8241088602E48001DDB
:1030000050F82400806838BB2B4B1B1D53F824302C
:103010001969294B1B1D53F8240053F82430DA6832
:1030200090472548001D50F8240041682248001DA3
:1030300050F8240081602048001D50F824000078DA
:1030400000F0010040B91C48001D50F82400007831
:1030500020F00201184800E003E0001D50F82400B1
:103060000170601CC4B214480078A042A7DC01F0D3
:103070002CF810BD11480068704700B5014600BF2C
:10308000EFF3058048B9FFF7F5FF024600BFFFF7F1
:10309000F1FF801A8842FAD309E006E04FF0E02001
:1030A000006900F4803000B1491E0029F6D100BD4E
:1030B000FCED00E0001000E04801002008000020C6
:1030C000040000201CB5032000210B460122CDE99D
:1030D00000104FF470411E48FFF7A4FD4FF0704000
:1030E0001B49183108601CBD1CB500200221034695
:1030F0000246CDE9001001211648FFF793FD1CBDE3
:103100001448006900F0010080F0010030B9124855
:10311000007830B9012010490870704700200E492E
:1031200008700020F9E70B48006900F0010080F00A
:10313000010038B10848007838B10020064908700D
:10314000012070470120044908700020F9E70000C1
:10315000000C0240000002400C00002070B5044644
:103160000D461646142120460BF059F92580A6601D
:103170000A206073A06868B928460BF055FBA06070
:10318000A06818B900202080012070BD207B40F08D
:1031900002002073207B40F0010020730020F4E740
:1031A00010B5044604B910BD207B00F0020010B138
:1031B000A0680BF011FB00202073208000BFF2E715
:1031C00070B5034600240BB9002070BD58881D88D7
:1031D000A84201DB002058801BE05D889888401ED3
:1031E000854206D0988828B95D881888401E854297
:1031F00000D113E011F8015B5E88701C588098685C
:103200008555601CC4B258881D88A84201DB002087
:103210005880101EA2F10105AAB2DED100BF2046DF
:10322000D3E730B5034600240BB9002030BD9888A1
:103230001D88A84201DB0020988013E098885D88F3
:10324000A84200D113E09D88681C98809868405D72
:1032500001F8010B601C84B298881D88A84201DB2C
:1032600000209880101EA2F10105AAB2E6D100BF8D
:103270002046DBE730B5014609B9002030BD4A8859
:103280008B889A4200D10C88934200D99C1A9A42AA
:1032900002D90888D51A441B601E80B2EEE730B50B
:1032A00003460BB9002030BD59889A88914200D15D
:1032B0000024914200D98C1A8A4202D91888551AE2
:1032C000441BA0B2EFE700B9704700214180818024
:1032D00000BFF9E72DE9F04104460F464FF0000822
:1032E0001CB94FF0FF30BDE8F0812046FFF7D7FF53
:1032F0000546A68812E02088B04200DC0026A068BF
:10330000805DB84202D10FFA88F0ECE7701C86B2FB
:10331000681E85B208F101001FFA80F8002DEADC72
:103320004FF0FF30DFE72DE9F04F04468946904625
:103330004FF0000AD3462CB12046FFF7B0FF0646F7
:10334000404503DA4FF0FF30BDE8F08FA58835E047
:103350002088A84200DC0025A068405D99F8001094
:10336000884201D14FF0010B681C85B2701E86B2F5
:103370000AF101001FFA80FABBF1000F1ED00127ED
:1033800014E02088A84200DC0025A068405D19F800
:103390000710884204D0781E50441FFA80FA07E0D4
:1033A000681C85B2701E86B2781C87B24745E8DB80
:1033B00000BF474502D10FFA8AF0C5E7002EC7DCEF
:1033C0004FF0FF30C0E770B505460C4620460BF0C5
:1033D0003DF886B2324621462846FFF7F1FE70BD21
:1033E0002DE9F84306460D461746002416B900207D
:1033F000BDE8F8833046FFF73DFF81463046FFF7D2
:103400004EFF8046B8F1000F0AD0717B3046FFF7BF
:1034100061FF002806DAB9F1000F03D0B84501DAE0
:103420000020E5E710E0012269463046FFF7F9FE8B
:1034300000B90CE09DF800002855285D717B88429A
:1034400000D104E0601C84B2781EA042EBDC00BF17
:10345000781EA04202D10020285504E00021601C03
:1034600080B2044629542046C2E770B503460C4694
:10347000154600220BB9002070BD5E88998807E0D0
:10348000481C81B2501C82B21888884200DC00219E
:10349000A24201DA8E42F3D1A24204D19868405C84
:1034A00028700120E8E70020E6E700000146F94A1D
:1034B000914200D10020F84A914200D10120F74A00
:1034C000914200D10220F64A914200D10420F54AEF
:1034D000914200D10520F44A914200D10620704764
:1034E00070471CB504464CB9082003210123002273
:1034F000CDE90010C021ED48FFF7ACFB012C0AD14B
:103500000820032101230022CDE900104FF484415B
:10351000E748FFF79FFB032C03D10821E248FFF7A0
:10352000DFFF1CBD1CB504469CB908200321012304
:103530000022CDE900104102DC48FFF78BFB082098
:10354000032101230022CDE900100421D948FFF70F
:1035500081FB032C03D10821D248FFF7C1FF1CBD1A
:103560001CB5044644B90820032101230022CDE9FB
:103570000010D148FFF76EFB012C09D10820032170
:1035800001230022CDE900108902C848FFF762FB41
:10359000032C03D10821C248FFF7A2FF1CBD1CB5B4
:1035A00004464CB90720032101230022CDE9001075
:1035B0008902C248FFF74EFB012C09D107200321E5
:1035C00001230022CDE900108902B848FFF742FB31
:1035D000022C09D10720032101230022CDE900108C
:1035E0000902B448FFF736FB032C03D10721AB488F
:1035F000FFF776FF1CBD1CB504464CB9072003211C
:1036000001230022CDE900100C21AB48FFF722FB7B
:10361000012C09D10720032101230022CDE900104C
:103620006021A448FFF716FB032C03D107219A4819
:10363000FFF756FF1CBD1CB504464CB907200321FB
:1036400001230022CDE9001049029B48FFF702FB4D
:10365000012C09D10720032101230022CDE900100C
:10366000C0219648FFF7F6FA032C03D107218948B9
:10367000FFF736FF1CBD2DE9F04F91B004460D4613
:1036800016461F46DDE91BABDDF868908148844291
:103690001FD100BF8A48006840F0100088490860C8
:1036A0000846006800F01000009000BF00BF84488A
:1036B0002038006840F01000814920390860084631
:1036C000006820F0100008602846FFF7B4FF4FF0B4
:1036D00025087148844221D100BF7948001F006845
:1036E00040F400307649091F08600846006800F47D
:1036F0000030009000BF00BF71482438006840F4DB
:1037000000306F49243908600846006820F4003012
:1037100008602846FFF76FFF4FF026085F48844295
:1037200021D100BF6648001F006840F48020644932
:10373000091F08600846006800F48020009000BF60
:1037400000BF5F482438006840F480205C49243979
:1037500008600846006820F4802008602846FFF7CB
:103760001EFF4FF027084E48844221D100BF544825
:10377000001F006840F400205149091F08600846F6
:10378000006800F40020009000BF00BF4C482438BF
:10379000006840F400204A4924390860084600685F
:1037A00020F4002008602846FFF7DAFE4FF03408C6
:1037B0003C48844221D100BF4148001F006840F4CA
:1037C00080103F49091F08600846006800F4801017
:1037D000009000BF00BF3A482438006840F48010D1
:1037E0003749243908600846006820F480100860D2
:1037F0002846FFF797FE4FF035082B4884421FD12B
:1038000000BF2F48006840F020002D49086008469E
:10381000006800F02000009000BF00BF284820385A
:10382000006840F0200026492039086008460068FA
:1038300020F0200008602846FFF753FE4FF04708AD
:10384000019402960797CDF81890CDF814A0CDF802
:1038500010B01D980390002108914046FCF749FEE6
:103860002046FFF723FE0246062100904046FCF763
:10387000F5FD4046FCF730FE4046FCF714FF01A87A
:10388000FEF76CFAE06840F02000E06011B0BDE89F
:10389000F08F00000010014000440040004800404C
:1038A000004C00400050004000140140000802405D
:1038B00000180240000C02400000024000040240D8
:1038C000443802407FB504460D461646F648844209
:1038D0000BD100200C23CDE9003002900346324684
:1038E000294603902046FFF7C6FEF04884420BD1DC
:1038F00000200C23CDE900300290034632462946D1
:1039000003902046FFF7B7FEE94884420BD1002020
:103910000C23CDE90030029003463246294603903D
:103920002046FFF7A8FEE34884420BD100200C2379
:10393000CDE90030029003463246294603902046E6
:10394000FFF799FEDC4884420BD100200C23CDE91F
:103950000030029003463246294603902046FFF786
:103960008AFED64884420BD100200C23CDE90030DA
:10397000029003463246294603902046FFF77BFE1D
:103980007FBD2DE9FF4104460D4616461F46C64839
:1039900084420BD100200C23CDE9003002903B463D
:1039A0003246294603902046FFF765FEBF48844211
:1039B0000BD100200C23CDE9003002903B4632466B
:1039C000294603902046FFF756FEB94884420BD1A2
:1039D00000200C23CDE9003002903B4632462946B8
:1039E00003902046FFF747FEB24884420BD10020E7
:1039F0000C23CDE9003002903B4632462946039025
:103A00002046FFF738FEAC4884420BD100200C233F
:103A1000CDE9003002903B463246294603902046CD
:103A2000FFF729FEA54884420BD100200C23CDE9E5
:103A3000003002903B463246294603902046FFF76D
:103A40001AFEBDE8FF810146974A914200D19C4889
:103A5000964A914200D19B48954A914200D19A489A
:103A6000944A914200D19948934A914200D1984892
:103A7000924A914200D19748704738B50446204693
:103A8000FFF7E1FF054601226946FFF7CAFB10B1C7
:103A90009DF8000038BD0020FCE72DE9F041044608
:103AA0000D4616462046FFF7CEFF0746324629460A
:103AB000FFF796FCBDE8F0810EE000BF026802F05F
:103AC0008002002AFAD011F8012B426000BF026880
:103AD00002F08002002AFAD00A78002AEDD170475D
:103AE00010B50EE000BF036803F08003002BFAD08E
:103AF00011F8013B436000BF036803F08003002B13
:103B0000FAD0131EA2F10104A2B2EBD110BD70B520
:103B100004460D462046FFF796FF06462946FFF766
:103B2000D9FB70BD2DE9F04105460C4620460AF050
:103B30008DFC86B22846FFF786FF074632462146AF
:103B4000FFF7F1FBBDE8F08170B504462046FFF7B2
:103B50007AFF0546FFF7A3FB08B9012070BD0020DE
:103B6000FCE770B504462046FFF76DFF0546FFF7FA
:103B700081FB08B9012070BD0020FCE770B5044648
:103B80002046FFF760FF0546FFF789FB70BD70B563
:103B900004462046FFF757FF0546FFF794FB70BD2C
:103BA00070B505460C462846FFF74DFF447370BDBF
:103BB00013B50446012201A92046FFF701FB1CBDF5
:103BC00038B505460C464448056000BF00680068EB
:103BD0000090414800684068009000BF00BF00BFEF
:103BE0003D480068006800903B48006840680090CD
:103BF00000BF00BF00BF384800680068009036482A
:103C000000684068009000BF00BF00BF32480068F5
:103C100000680090304800684068009000BF00BF16
:103C200000BF2D480068006800902B48006840687D
:103C3000009000BF00BF2046FCF735FD38BD70473F
:103C400010B51948006800F0200020B116494968F5
:103C5000C8B207F0C6FF25211348FFF7B1FF10BD1A
:103C600010B51248006800F0200030B10F48001D68
:103C70000068C1B21348FFF79BFF26210B48FFF7EE
:103C80009FFF10BD10B50A48006800F0200030B159
:103C90000748001D0068C1B20B48FFF789FF2721C4
:103CA0000348FFF78DFF10BD0010014000440040A5
:103CB00000480040004C004000500040001401400B
:103CC0001000002024000020380000204C000020BC
:103CD00060000020740000202002002010B51D4864
:103CE000006800F0200030B11A48001D0068C1B221
:103CF0001948FFF75DFF34211648FFF761FF10BD3B
:103D000010B51648006800F0200028B1134840683C
:103D1000C1B21348FFF74CFF35211048FFF750FFA1
:103D200010BD10B50F48006800F0200030B10D48FC
:103D3000001D0068C1B20C48FFF73AFF472109484F
:103D4000FFF73EFF10BD70477047704770477047E0
:103D500070477047004C00404C000020005000406D
:103D600060000020001401407400002030B50246BD
:103D70000B46BE4CA24207D2BD49BD4C0834141BB1
:103D80001825B4FBF5F006E0B8490839B74C141B08
:103D90001825B4FBF5F0042801D3091D001F03F01A
:103DA0003D04B44D2D5CAC400C6030BD10B50446F4
:103DB0003D212046FFF7DAFF10BD70B502460C46E4
:103DC000002100230020A94DAA4208D2A84B083B9D
:103DD000A74D0835551B1826B5FBF6F106E0A34B99
:103DE000103BA24D551B1826B5FBF6F1042901D353
:103DF0001B1D091F18689F4D6D5CE84000F03D00D9
:103E000070BD2DE9F04104463D212046FFF7AEFF8D
:103E10009648844209D296480830201A1821B0FBEF
:103E2000F1F501279448465708E09048201A1821D8
:103E3000B0FBF1F501279048083046573046FCF7B3
:103E400058FB2A4639463046FCF708FB3046FCF75B
:103E500043FB206840F01E002060606940F0800055
:103E60006061BDE8F08170B504463D212046FFF752
:103E70007DFF7E48844208D27D480830201A1821F0
:103E8000B0FBF1F07C490D5606E07848201A182165
:103E9000B0FBF1F078490D562846FCF72AFB206864
:103EA00020F01E002060606900F08000606170BD3D
:103EB00070B505460C464CB100BF002084F83400B4
:103EC00000BF25602046FCF74CFC0FE067488542A8
:103ED00006D36A48006840F480006849086005E03D
:103EE0006648006840F400106449086070BD10B571
:103EF00096B0044600946846FCF773FC16B010BDFB
:103F00002DE9F04104460D4616461F4600BF00202D
:103F100084F8340000BF3B46324629462046FCF771
:103F2000A8FCBDE8F0817047704770477047704744
:103F300070B504463D212046FFF73FFF85B23D2185
:103F40002046FFF713FF05F0200030B1206800F095
:103F5000100010B12046FFF7E6FF05F0100030B169
:103F6000206800F0080010B12046FFF7DDFF05F0E3
:103F7000080030B1206800F0040010B12046FFF7BF
:103F8000D4FF05F0040030B1206800F0020010B149
:103F90002046FFF7CBFF05F0010030B1606900F06B
:103FA000800010B12046FFF7C2FF70BD10B5304849
:103FB0000830FFF7BDFF10BD10B52D482030FFF7CA
:103FC000B7FF10BD10B52A483830FFF7B1FF10BD5C
:103FD00010B527485030FFF7ABFF10BD10B524488F
:103FE0006830FFF7A5FF10BD10B521488030FFF7FE
:103FF0009FFF10BD10B51E489830FFF799FF10BD08
:1040000010B51B48B030FFF793FF10BD10B517482F
:10401000FFF78EFF10BD10B514481830FFF788FF6A
:1040200010BD10B511483030FFF782FF10BD10B53C
:104030000E484830FFF77CFF10BD10B50B486030CC
:10404000FFF776FF10BD10B508487830FFF770FF16
:1040500010BD10B505489030FFF76AFF10BD10B5D0
:104060000248A830FFF764FF10BD00001064024052
:1040700008600240ACE80008B0E8000830380240B0
:10408000FEF710FDFCF70DF9FFF71CF8FFF72CF811
:10409000FEF7DEFE4FF4612200216F48FFF712FCAD
:1040A0006EA271A173A00AF081FA00217B4809F089
:1040B0005FFC7B49086000217A4809F059FC7A4985
:1040C000086009F03DFC00BFFEE710B5012177480C
:1040D00005F053FD0AF005F810BD02E0734805F045
:1040E000F7FBFBE74FF4E13271A1704805F081FA6C
:1040F0000446214670A00AF059FA8FE06B4805F09B
:1041000048FD6FE07248006841880123714A6748A2
:1041100006F021FA70490870002858D16FA00AF003
:1041200045FA72A16B48C01C0AF097F968B94FF4C0
:1041300070407049086001236FA26649B8315B483E
:1041400006F0B5F96449087034E06CA16148C01C00
:104150000AF083F968B94FF070406649086001239E
:1041600065A25C49B831514806F0A1F95A49087076
:1041700020E064A15748C01C0AF06FF988B95D4877
:10418000001F006880F470405A49091F086001232D
:1041900059A25049B831454806F089F94E4908708E
:1041A00008E001235AA24B49B831404806F07FF994
:1041B000494908704848007818B957A00AF0F6F93C
:1041C0000AE04548017858A00AF0F0F904E04248B6
:1041D00001785CA00AF0EAF901223D480168334801
:1041E00006F05BFB0121314806F019FB38490860F5
:1041F000002887D1FEF784FF80B1012205212B48DA
:1042000006F0ABFA3449087018B955A00AF0CEF997
:1042100004E03148017858A00AF0C8F96EE7704709
:1042200008B5C2B200920C4AD26802F400528AB1B8
:1042300000BF094A126802F08002002AF9D09DF8F6
:104240000020054B5A6000BF034A126802F080024A
:10425000002AF9D000BF08BD0044004032313A3294
:10426000383A3533000000004F6374203136203275
:104270003031360047534D20636F6D6D616E64734E
:10428000207061727365723B20436F6D70696C655D
:10429000643A202573202573200D0A00C0E8000829
:1042A00090000020D4E80008940000206002002064
:1042B000313233340000000047534D20496E697499
:1042C000207374617475733A2025640D0A00000030
:1042D0008C0000202403002088000020534D532030
:1042E00052454144204F4B210D0A00004C454420CB
:1042F0004F4E0000180C02404F4B00004C4544202C
:104300004F4646004C454420544F47474C4500001B
:104310004552524F5200000053454E442042414303
:104320004B204F4B210D0A004572726F7220747240
:1043300079696E6720746F2073656E643A20256416
:104340000D0A00004572726F7220747279696E678F
:1043500020746F20726561643A2025640D0A0000A4
:10436000534D53204D4153532044454C4554452013
:104370004F4B0D0A000000004572726F722074727C
:1043800079696E6720746F206D6173732064656C4A
:104390006574653A2025640D0A000000704700BF6F
:1043A000FEE700BFFEE700BFFEE700BFFEE7704785
:1043B000704710B5FEF7F3FD10BD00003F480068E0
:1043C00040F470003D4908603D48006840F001003D
:1043D0003B49086000203A490831086038480068C5
:1043E00038490840364908603748091D0860081FE9
:1043F000006820F48020091F0860002030490C313B
:1044000008604FF000602D4980390860704770B532
:1044100000200022022300240221294D08352D68A6
:1044200005F00C0020B1042806D0082834D107E09C
:10443000264D274E356033E0264D254E35602FE062
:104440001F4D2D1D2D68C5F380541D4D2D1D2D684C
:1044500005F03F0154B11F4DB5FBF1F5184E361D67
:104460003668C6F3881605FB06F209E0174DB5FB62
:10447000F1F5134E361D3668C6F3881605FB06F2B5
:104480000F4D2D1D2D68C5F301456D1C6B00B2FB52
:10449000F3F50F4E356003E00C4D0D4E356000BF57
:1044A00000BF074D08352D68C5F303150A4E705D32
:1044B000074D2D68C540064E356070BD88ED00E0A3
:1044C00000380240FFFFF6FE103000240024F40004
:1044D0009800002000127A00E8E800082DE9F04773
:1044E00080460C4691461D464746CA46A54202D91B
:1044F0000020BDE8F087AC4209D12A465146384633
:1045000009F0B9FF08B93846F3E70020F1E7641B6A
:10451000002608E0B8192A46514609F0ACFF08B950
:10452000B819E6E7761CA642F4D30020E1E770B59F
:10453000024600250024002310782D2803D10125F0
:10454000521C601CC4B207E0107830380A2603FB06
:104550000603521C601CC4B21078302802DB1078AD
:104560003928F1DD01B10C700DB1584270BD18460B
:10457000FCE7F8B507460C4615460026694628466E
:10458000FFF7D5FF00F5FA6060809DF80000401C41
:104590003044C6B2A8196946FFF7C9FF60709DF89C
:1045A0000000401C3044C6B2A8196946FFF7BFFF9F
:1045B0002070F8BDF8B507460C461546002669463A
:1045C0002846FFF7B4FF20709DF80000401C3044DF
:1045D000C6B2A8196946FFF7AAFF60709DF80000EF
:1045E000401C3044C6B2A8196946FFF7A0FFA0706E
:1045F000F8BD2DE9F84380460D461746B94600261A
:104600006A46FEA1484609F05BFF04463BE020787D
:10461000222800D1641C204609F018FF401E205CAF
:10462000222805D1204609F011FF401E0021215407
:10463000052E1FD2DFE806F003040A10170019E068
:10464000214605F1B80009F023FF13E0214605F1EA
:10465000A40009F01DFF0DE0224605F1CC01404603
:10466000FFF787FF06E0224605F1D0014046FFF73D
:10467000A1FF00BF00BF701CC6B26A46DFA10020C8
:1046800009F01EFF0446002CC1D1BDE8F883F8B53F
:1046900006460D46144669462046FFF748FF288027
:1046A0009DF80000401C0444224629463046FFF78E
:1046B000A0FFF8BDF8B506460D4614460020009050
:1046C00069462046FFF733FF28709DF80000401C24
:1046D000C0B20444009069462046FFF728FF687086
:1046E0009DF80000401CC0B204440090694620467A
:1046F000FFF71DFFA8709DF80000401CC0B20444E5
:10470000009069462046FFF712FFE8709DF8000010
:10471000401CC0B20444009069462046FFF707FFE2
:1047200028759DF80000401CC0B204440090207819
:10473000222800D1641C0020287100900CE014F89D
:10474000011B9DF80020501CC0B20090281D815410
:1047500000219DF800208154207810B12078222873
:10476000EDD12078222800D1641C641C69462046C3
:10477000FFF7DDFE68759DF80000401CC0B20444E0
:1047800000902078222800D1641C0020A875009099
:104790000DE014F8011B9DF80020501CC0B20090E1
:1047A00005F11600815400219DF8002081542078E5
:1047B00010B120782228ECD1F8BD70B506460D4620
:1047C00014462078222800D1641C02228CA12046A5
:1047D00009F067FE10B90320287007E0022289A1C2
:1047E000204609F05EFE08B900202870241D002133
:1047F0002046FFF79CFE688070BD70B504460D46EC
:1048000081A1284609F029FE18B9012084F86C001E
:1048100034E07FA1284609F020FE18B9022084F870
:104820006C002BE07DA1284609F017FE18B9032083
:1048300084F86C0022E07CA1284609F00EFE18B92D
:10484000062084F86C0019E07AA1284609F005FEDC
:1048500018B9072084F86C0010E079A1284609F007
:10486000FCFD18B9042084F86C0007E078A1284604
:1048700009F0F3FD10B9052084F86C0070BDF8B59F
:1048800006460D46144669462046FFF750FE28802E
:104890009DF80000401C04442078222800D1641CAC
:1048A00000200090A8750DE014F8011B9DF8002071
:1048B000501CC0B2009005F11600815400219DF8F3
:1048C00000208154207810B120782228ECD1207863
:1048D000222800D1641C641C00E0641C207830286D
:1048E00002DB20783928F8DD641C2078222800D1EA
:1048F000641C00200090A8700CE014F8011B9DF8C7
:104900000020501CC0B20090A81C815400219DF8CA
:1049100000208154207810B120782228EDD1207811
:10492000222800D1641CF8BDF8B506460C46154691
:1049300069462846FFF7FBFD04F8010B9DF80000CF
:10494000401C054469462846FFF7F1FD04F8010BB9
:104950009DF80000401C054469462846FFF7E7FD26
:1049600004F8010B9DF80000401C054469462846E8
:10497000FFF7DDFD04F8010BF8BD70B505460C46E8
:10498000042085F820002078302806D1A41C0021BE
:104990002046FFF7CCFD85F8200070BD2DE9F843D7
:1049A00006460C46154669462846FFF7C0FDC7B2C5
:1049B0009DF80000401C054469462846FFF7B7FDF6
:1049C00000F0FF08012F0AD11CB906F1740050F85D
:1049D000284024B1A07D20F00200801CA0759DF825
:1049E0000000401C0544022F42D1CCB36946284642
:1049F000FFF79DFD20829DF8000032E02C000000B2
:104A00004D450000534D000052454144590D0A00E8
:104A100053494D2050494E0D0A00000053494D2086
:104A200050554B0D0A00000053494D2050494E325D
:104A30000D0A000053494D2050554B320D0A00001D
:104A400050485F53494D2050494E0D0A0000000068
:104A500050485F53494D2050554B0D0A000000004F
:104A600006E0401C054400212846FFF760FD6082F7
:104A7000BDE8F883F8B506460C4615466946284653
:104A8000FFF755FD20709DF80000401C0544694665
:104A90002846FFF74CFD20819DF80000401C05448E
:104AA00000212846FFF743FD6061F8BD2DE9F0477E
:104AB0000446894609F1010599F800704FF0000A93
:104AC000D04628780D2804D168780A2801D1BDE89D
:104AD000F087A089B0F5E46F09D1FEA1284609F05E
:104AE000BCFC08B9012000E00020824608E0FCA1DF
:104AF000284609F0B2FC08B9012000E000208246F7
:104B0000BAF1000F18D128782B2809D10B22F6A171
:104B1000284609F0C6FC08B9012000E000208046C4
:104B2000B8F1000F08D1F3A1284609F096FC08B9A6
:104B3000012000E000208046A08940F225718842D3
:104B40000DD1287830280ADB2878392807DC2A4656
:104B500004F16D012046FFF7E7FE4FF0010AA0893E
:104B6000B0F5806F5BDBA089B0F5A06F57DABAF1C2
:104B7000000F54D1B8F1000F51D1A08940F2024189
:104B800088420DD10722DDA1284609F08AFC0028C1
:104B900045D0BA1EDB49C868294609F04BFC3EE007
:104BA000A08940F2014188420CD10722D6A12846B3
:104BB00009F077FC08B3BA1ED249C868294609F043
:104BC00039FC2CE0A08940F20341884216D107222B
:104BD000CFA1284609F065FC78B10922CEA128466C
:104BE00009F05FFC18B90935A7F1090087B2BA1EB0
:104BF000C449C868294609F01DFC10E0A08940F2AC
:104C0000054188420BD10722C6A1284609F049FC7C
:104C100028B1BA1EBB49C868294609F00BFCC3A1DC
:104C2000284609F01AFC30B9C120005D20F00800C8
:104C30000830C1210855C1A1284609F00EFC30B941
:104C4000C120005D20F010001030C1210855A0895E
:104C500040F2297188422CD12878302829DB287825
:104C6000392826DCB8A1681C09F0F7FB38B994F89C
:104C7000C00020F00800083084F8C0004FE0B6A162
:104C8000681C09F0EAFB38B994F8C00020F0100065
:104C9000103084F8C00042E0B4A1681C09F0DDFBCC
:104CA00070BB94F8C00020F02000203084F8C000D1
:104CB00035E0A08940F22B7188420ED1B0A1681C6A
:104CC00009F0CBFBE0B994F8C00020F04000403080
:104CD00084F8C0004FF0010A21E0A08940F22A7157
:104CE00088421CD1AAA1681C09F0B7FB48B994F806
:104CF000C00020F08000803084F8C0004FF0010A2E
:104D00000DE0A6A1681C09F0A8FB40B9C120005D18
:104D100020F00100401CC12108554FF00108A3A15B
:104D2000284609F09AFB38B9BD20005D20F0080044
:104D30000830BD21085508E09EA1284609F08DFBEA
:104D400018B19EA1284609F088FB28782B2876D137
:104D5000B8F1000FFBD1A08940F23A7188420AD124
:104D600006229AA1284609F09CFB20B9E91D20469D
:104D7000FFF703FE45E1A089B0F5E06F03DBA089F2
:104D8000B0F5006FF6DBA089B0F5007F58DBA08995
:104D9000B0F5407F54DAA08940F2012188420BD15E
:104DA00006228CA1284609F07CFB28B90021E81DC9
:104DB000FFF7BDFBA08524E1A08940F202218842D3
:104DC00018D1062285A1284609F06BFB90B94D4801
:104DD000EA1DC1682046FFF70CFCBD20005D20F0F5
:104DE0000100401CBD21085500204649C96881F8D2
:104DF000A30006E1A08940F20521884244D10622A1
:104E000078A1284609F04DFBF0BB3E4800690088B8
:104E10003C49496988420AD23A48EA1DC16820469D
:104E2000FFF735FC00203749C96881F8A300BD2091
:104E3000005D20F00100401CBD210855E1E0AFE11C
:104E4000A089B0F5A06F1FDBA089B0F5C06F1BDA99
:104E5000062266A1284609F024FBC0B92948EA1DAC
:104E6000C1682046FFF70BFDA08940F2055188423A
:104E70000AD12448C0682A302249C860084600691F
:104E80000088401C096900E022E00880B9E0A089A0
:104E900040F2065188421BD1062256A1284609F04D
:104EA00000FBA8B91748006900881649496988427B
:104EB0000ED21448EA1DC1682046FFF7E0FC1148F5
:104EC000C0682A300F49C86008460069008895E02C
:104ED00097E0000053485554204F4B0D0A00000046
:104EE0004F4B0D0A000000002B434D452045525208
:104EF0004F523A004552524F520D0A0041542B4333
:104F0000474D49009406002041542B43474D4D0026
:104F100041542B43474D52005265766973696F6E59
:104F20003A00000041542B4347534E0043616C6CE0
:104F30002052656164790D0A00000000534D532032
:104F400052656164790D0A002C20434F4E4E454353
:104F500054204F4B0D0A00002C20434F4E4E45432A
:104F600054204641494C0D0A000000002C20414CC1
:104F7000524541445920434F4E4E4543540D0A007B
:104F80002C20434C4F5345204F4B0D0A000000008E
:104F90002C2053454E44204F4B0D0A002C205345E6
:104FA0004E44204641494C0D0A00000052494E47EC
:104FB0000D0A0000425553590D0A00004E4F204380
:104FC0004152524945520D0A000000002B43524500
:104FD000473A00002B434D47533A00002B434D47BF
:104FE000523A00002B434D474C3A00002B435042AD
:104FF000523A00002B435042463A0000401C0969D7
:1050000008800622FEA1284609F04BFA20B9E91DC6
:105010002046FFF7F2FBC3E00622FBA1284609F079
:1050200040FA68B9EA1D04F142012046FFF742FB4D
:10503000BD20005D20F00400001DBD210855AFE03B
:105040000622F3A1284609F02CFAE8BB002600BF8F
:1050500045E006EB460104F1300000EB4100007929
:10506000C0F3400088BB06EB460104F1300000EBC2
:105070004100007900F0010038BB06EB460104F165
:10508000300000EB4100007920F00200801C06EBAC
:10509000460204F1300101EB4201087106EB4601C2
:1050A00004F1300000EB4100007920F00100401CC9
:1050B00006EB460204F1300101EB4201087106EBF8
:1050C000460204F1300001E014E006E000EB42018A
:1050D000EA1D2046FFF771FB03E0701CC6B2032EE9
:1050E000B7DB00BFBD20005D20F00200801CBD21A9
:1050F000085555E00A22C8A1284609F0D2F920BB7C
:1051000005F10B0009F0A2F9052817D9C548C668B2
:1051100005F10B0231462046FFF740FCBD20005D43
:1051200020F02001BD200155308A30B1BD20005D46
:1051300020F020002030BD21085531E005F10B02A0
:1051400000212046FFF72AFC2AE00C22B6A12846BF
:1051500009F0A7F970B905F10D0204F18C012046A0
:10516000FFF788FCC120005D20F00200801CC121F7
:10517000085515E00A22B0A1284609F092F978B93D
:105180000021AC20015105F10B00FFF7D0F9B0214F
:105190000851BD20005D20F040004030BD21085581
:1051A000A08940F22F7188420CD10822A5A128467F
:1051B00009F077F930B9C120005D20F00400001D2E
:1051C000C1210855BAF1000F12D014F8C00F20F019
:1051D0000100401C2070207820F0020004F8C00973
:1051E000BD20005D20F080008030BD21085513E017
:1051F000B8F1000F10D014F8C00F20F0010020709B
:10520000207820F00200801C04F8C009BD20005D59
:1052100020F08001BD20015500BF58E4034699816C
:105220001A611868586100201876704770B50546F5
:105230000C46224686A1284609F0C8F970BD70B513
:1052400005460C46288840F23F32811A90427CD0B5
:1052500006DC50B1A0F2293030B30B2876D17EE0C5
:105260000B2974D01629F9D1CAE1A089052853D198
:1052700000BF0020C4F8C00000BF022275A104F1E5
:10528000080006F08AFC0222AFF2383104F108006F
:1052900006F083FC002204212046FFF7BFFF00BF79
:1052A00040F22930288000BF94F8C00000F00100CF
:1052B00030B994F8C000C0F3400008B9002070BDB8
:1052C00000BF94F8C00000F0010080F001002076DB
:1052D00000BF04F1B80006F0B1FC0020A0815E49D7
:1052E00008805E4908805E4908805E4908805E4902
:1052F00008805E4908805E4908805E49088094F80D
:10530000BC0000F0010030B994F8BC0020F00200AD
:10531000801C84F8BC00ABE1A089042857D100BFF1
:105320000020C4F8C00000BF042253A104F108000B
:1053300006F033FC0222AFF2E43104F1080006F07B
:105340002CFC00220421204602E0AAE091E100E1C9
:10535000FFF764FF00BF4FF44D70288000BF94F842
:10536000C00000F0010030B994F8C000C0F3400064
:1053700008B90020A3E700BF94F8C00000F00100C6
:1053800080F00100207600BF04F1B80006F056FC62
:105390000020A081304908803049088030490880C9
:1053A00030490880304908803049088030490880F9
:1053B0003049088094F8BC0000F0010030B994F83E
:1053C000BC0020F00200801C84F8BC0050E1A089E1
:1053D000012872D100BF0020C4F8C00000BF112214
:1053E00027A104F1080006F0D8FB0222AFF29C418D
:1053F00004F1080006F0D1FB00220121204649E01B
:105400002B4350494E3A00002B434C43433A000093
:105410002B434D54493A00002B43495052584745BD
:10542000543A0000940600202B48545450414354F1
:10543000494F4E3A000000002B4854545052454109
:10544000443A0000444F574E4C4F41440000000086
:105450002564000041540000A0000020A2000020AC
:10546000A4000020A6000020A8000020AA00002020
:10547000AC000020AE000020415426460000000091
:1054800041542B434E4D493D312C322C302C302C85
:1054900030000000FFF7C2FE00BF40F23F3028801E
:1054A00000BF94F8C00000F0010038B994F8C000C3
:1054B000C0F3400010B9002001E72BE000BF94F8D2
:1054C000C00000F0010080F00100207600BF04F170
:1054D000B80006F0B3FB0020A081FD490880FD491B
:1054E0000880FD490880FD490880FD490880FD4984
:1054F0000880FD490880FD49088094F8BC0000F050
:10550000010030B994F8BC0020F00200801C84F83F
:10551000BC00ADE0A089022853D100BF0020C4F830
:10552000C00000BF0922F2A104F1080006F035FB1B
:105530000222AFF2E05104F1080006F02EFB002237
:1055400002212046FFF76AFE00BF40F24A30288061
:1055500000BF94F8C00000F0010030B994F8C0001A
:10556000C0F3400008B90020A9E600BF94F8C000CD
:1055700000F0010080F00100207600BF04F1B800C7
:1055800006F05CFB0020A081D1490880D149088049
:10559000D1490880D1490880D1490880D149088083
:1055A000D1490880D149088094F8BC0000F001007E
:1055B00030B994F8BC0020F00200801C84F8BC00D4
:1055C00056E0A089032853D100BF0020C4F8C000D2
:1055D00000BF0922C9A104F1080006F0DEFA022288
:1055E000AFF2906104F1080006F0D7FA002203211F
:1055F0002046FFF713FE00BF40F25530288000BF61
:1056000094F8C00000F0010030B994F8C000C0F375
:10561000400008B9002052E600BF94F8C00000F036
:10562000010080F00100207600BF04F1B80006F010
:1056300005FB0020A081A6490880A6490880A6494C
:105640000880A6490880A6490880A6490880A6497E
:105650000880A649088094F8BC0000F0010030B929
:1056600094F8BC0020F00200801C84F8BC0000BF4D
:1056700000BF00BF00202880032020E670B505464B
:105680000C46288840F27332811A90427ED004DCA6
:1056900040B1B0F55A7F7AD127E00B2978D016298E
:1056A000F9D154E1A08940F20241884255D100BFAE
:1056B0000020C4F8C00000BF0722AFF2C07104F19F
:1056C000080006F06AFA0222AFF2787104F10800CD
:1056D00006F063FA002240F202412046FFF79EFDE9
:1056E00000BF4FF45A70288000BF94F8C00000F04B
:1056F000010030B994F8C000C0F3400008B90020A0
:1057000070BD00BF94F8C00000F0010080F00100FF
:10571000207600BF04F1B80006F090FA0020A081C6
:105720006B4908806B4908806B4908806B49088089
:105730006B4908806B4908806B4908806B49088079
:1057400094F8BC0000F0010030B994F8BC0020F0DF
:105750000200801C84F8BC0031E1A08940F20141C4
:10576000884259D100BF0020C4F8C00000BF072202
:10577000AFF66C0104F1080006F00FFA0222AFF652
:105780002C0104F1080006F008FA02E00CE017E131
:1057900065E0002240F201412046FFF73FFD00BFD7
:1057A00040F27330288000BF94F8C00000F0010080
:1057B00030B994F8C000C0F3400008B900209FE75A
:1057C00000BF94F8C00000F0010080F001002076D6
:1057D00000BF04F1B80006F031FA0020A0813C4976
:1057E00008803C4908803C4908803C4908803C4985
:1057F00008803C4908803C4908803C49088094F86E
:10580000BC0000F0010030B994F8BC0020F00200A8
:10581000801C84F8BC00D2E0A08940F20341884299
:1058200072D100BF0020C4F8C00000BF0722AFF64D
:10583000201104F1080006F0B0F90222AFF6EC01E5
:1058400004F1080006F0A9F9002240F203412046C5
:10585000FFF7E4FC00BF40F27E30288000BF94F8E0
:10586000C00000F0010030B994F8C000C0F340005F
:1058700008B9002044E700BF94F8C00000F0010020
:1058800080F00100207600BF04F1B80006F0D6F9E0
:105890000020A0810E4908800E4908800E4908802A
:1058A0000E4908800E4908800E4908800E4908807C
:1058B0000E49088094F8BC0000F0010030B994F85B
:1058C000BC0020F00200801C84F8BC0077E01BE0E4
:1058D000A0000020A2000020A4000020A6000020BC
:1058E000A8000020AA000020AC000020AE0000208C
:1058F00041542B434D45453D3100000041542B435D
:105900004C43433D31000000A08940F205418842EC
:1059100055D100BF0020C4F8C00000BF0722AFF679
:10592000FC1104F1080006F038F90222AFF6DC1190
:1059300004F1080006F031F9002240F2054120464A
:10594000FFF76CFC00BF40F28930288000BF94F85C
:10595000C00000F0010030B994F8C000C0F340006E
:1059600008B90020CCE600BF94F8C00000F00100A8
:1059700080F00100207600BF04F1B80006F05EF967
:105980000020A081FE490880FE490880FE49088069
:10599000FE490880FE490880FE490880FE490880CB
:1059A000FE49088094F8BC0000F0010030B994F87A
:1059B000BC0020F00200801C84F8BC0000BF00BFC7
:1059C00000BF0020288003209AE670B505460C46EB
:1059D000288840F2BF32811A90427DD006DC60B147
:1059E000A0F29B3000B3152877D1BEE0122975D004
:1059F000282974D03529F7D1BCE200BF0020C4F8B3
:105A0000C00000BF0822E6A104F1080006F0C5F8B6
:105A10000222AFF6C02104F1080006F0BEF800BF74
:105A200040F29B30288000BF94F8C00000F00100D5
:105A300030B994F8C000C0F3400008B9002070BD30
:105A400000BF94F8C000C0F3400050B3012020769E
:105A500000BF04F1B80006F0F1F80020A081C849A9
:105A60000880C8490880C8490880C8490880C849D2
:105A70000880C8490880C8490880C849088094F847
:105A8000BC0000F0010030B994F8BC0020F0020026
:105A9000801C84F8BC0000BF00BF002028800220CA
:105AA000CDE7A08940F2011188427CD194F86C00C6
:105AB000022831D094F86C0006282DD000BF04F1E4
:105AC000B80006F0BBF80020A081AD490880AD49C0
:105AD0000880AD49088003E087E084E22EE1DEE142
