:020000040800F2
:10000000E8A50020AD0100083124000829240008DB
:100010002D240008CD0A000861A20008000000009D
:10002000000000000000000000000000BF01000808
:10003000D10B000800000000C30100083197000840
:10004000C7010008C7010008C7010008C701000870
:10005000C7010008C7010008C7010008C701000860
:10006000C7010008C7010008C7010008D10A00083D
:10007000E10A0008F10A0008010B0008110B000852
:10008000210B0008310B0008C70100080000000028
:10009000000000000000000000000000C701000890
:1000A000C7010008C7010008C7010008C701000810
:1000B000C7010008C7010008C7010008C701000800
:1000C000C7010008C7010008C7010008C7010008F0
:1000D000C7010008E5A1000809A20008000000000F
:1000E000C7010008C7010008C701000800000000A0
:1000F000000000000000000000000000410B0008AC
:1001000000000000C7010008C7010008C70100087F
:1001100000000000000000000000000000000000DF
:10012000510B0008610B0008710B0008810B0008DF
:10013000910B00080000000000000000000000001B
:10014000000000000000000000000000C7010008DF
:10015000A10B0008B10B0008C10B000835A2000874
:10016000C7010008C70100080000000000000000EF
:10017000000000000000000000000000000000007F
:1001800000000000C701000800000000000000009F
:10019000C7010008C7010008DFF80CD000F034FBED
:1001A0000048004715B30008E8A50020064880472E
:1001B00006480047FEE7FEE7FEE7FEE7FEE7FEE74C
:1001C000FEE7FEE7FEE7FEE7399700089901000821
:1001D00040EA01039B0703D009E008C9121F08C0C9
:1001E000042AFAD203E011F8013B00F8013B521E49
:1001F000F9D27047D2B201E000F8012B491EFBD2C0
:1002000070470022F6E710B513460A460446194621
:10021000FFF7F0FF204610BD10B5044604E00B7850
:1002200000F8013B03B1491C521EF8D2204610BD14
:10023000421C10F8011B0029FBD1801A704710B531
:10024000002200E0521C835C8C5CA34201D1002B95
:10025000F8D1D8B2E1B2401A10BD034611F8012B13
:1002600000F8012B002AF9D11846704730B5054631
:100270000020034600E05B1C934205D2EC5CC85CA6
:10028000201A01D1002CF6D130BD000070B500B9A4
:100290001068002512E00B4602E0A64203D05B1C6A
:1002A0001C78002CF9D1E3B22B4305D02CB125B139
:1002B000002100F8011B04E00546401C0678002ED2
:1002C000E9D11060284670BD004ADFE784000020B5
:1002D0000EB540F2334102910021CDE900110A46EA
:1002E0000B4600F07AF803B000BD01F0004330B4D3
:1002F00021F0004150EA010206D00A0DA2F5607219
:10030000C1F31301002A02DC30BC00207047440F07
:1003100044EAC104C100E01830BC00EBC25000F058
:1003200016B830B50B46014600202022012409E012
:1003300021FA02F59D4205D303FA02F5491B04FA9E
:1003400002F52844151EA2F10102F1DC30BD00299E
:10035000A8BF7047401C490008BF20F0010070474B
:1003600010B4B0FA80FC00FA0CF050EA010404BFAB
:1003700010BC704749B1CCF1200421FA04F411FA01
:100380000CF118BF012121430843A3EB0C01CB1D45
:100390004FEA00614FEA102042BF002010BC7047B6
:1003A00000EBC35010440029A4BF10BC7047401C90
:1003B000490008BF20F0010010BC704710B5141EA2
:1003C00073F1000408DA401C41F1000192185B410E
:1003D0001A4301D120F0010010BD2DE9F04D9246E5
:1003E0009B4611B1B1FA81F202E0B0FA80F22032FC
:1003F000904600F01BFA04460F4640EA0A0041EA24
:100400000B0153465A46084313D0114653EA0100E4
:1004100019D0C8F14002504600F017FA05460E46C2
:1004200050465946424600F001FA084305D00120E3
:1004300004E020463946BDE8F08D0020054346EA39
:10044000E0762C4337430A986305E40AA0EB0800E2
:100450000022FD0A44EA47540A3002D50020014632
:10046000E9E7010510196941DDE90845001969410D
:10047000BDE8F04DA2E72DE9FE4F804681EA03007A
:10048000C00F0C46009021F0004123F00045B8EB6E
:100490000200A94105D24046214690461C460B4623
:1004A000024623F00040104347D0270DC7F30A004F
:1004B000C3F30A510290401A019040286BDAC3F34B
:1004C000130040F4801B0098924620B10023D2EB29
:1004D000030A63EB0B0B01985946C0F140025046EA
:1004E00000F0A4F906460D4650465946019A00F020
:1004F000BCF910EB08006141002487EA115284EA3C
:10050000E7731A4340D0009A62B3019A012A4FEA76
:10051000075215DC001B61EB02014FF0004202EABA
:100520000752CDE90042001C41F5801132462B46AE
:10053000FFF753FF03B0BDE8F08F40462146F9E7CF
:10054000001B61EB0201001C41F5801300185B41A8
:100550002018A2F5001747EB030140EAD570B61941
:100560006D4111E06D084FEA360645EAC0754FEA65
:100570000752001B61EB0201001C41F58011490884
:100580004FEA30000019514132462B4603B0BDE816
:10059000F04FFFF713BF0098012240000023D0EB7B
:1005A000020263EBE073009821464FEAE074B8EB77
:1005B000000061EB0401E9E783F000435BE781F0B1
:1005C000004158E72DE9FE4F81EA030404F000449E
:1005D00021F0004100944FF0000B23F0004350EA5B
:1005E00001045ED052EA03045BD0C3F30A54C1F3A2
:1005F0000A552C44A4F2F3340194A0FB0254C1F335
:10060000130141F48011C3F3130343F4801301FB7E
:10061000024400FB034E840A970A44EA815447EAE5
:100620008357A4FB076802958D0A05FB07854FEAEF
:10063000932C04FB0C542705029D4FEA065847EA09
:100640001637B5EB08056EEB070C870E920E47EADE
:10065000811742EA8312A7FB0201B6EB0B0164EBA0
:1006600000042B0D43EA0C335E1844EB1C50DA46B1
:100670005146E7FB0201C5F313044FEA0B3343EA8B
:1006800014534FEA0432019C43EA0603A4F10C041C
:100690000294009CCDE900B4FFF79FFE03B0BDE8D3
:1006A000F08F00200146F9E72DE9F04D81EA0304BF
:1006B00004F0004B21F0004514464FF0000A23F0EF
:1006C000004150EA050220D054EA01021DD0C5F3D2
:1006D0000A570246C5F31303C1F31300C1F30A56C8
:1006E00040F4801543F48013A7EB0608101BD64690
:1006F00008F2FD3873EB050002D308F1010801E0B0
:1007000092185B41B8F1000F03DA00200146BDE802
:10071000F08D00204FF48011064684460EE0171B32
:1007200073EB050705D3121B63EB050306434CEA85
:10073000010C49084FEA300092185B4150EA01076A
:10074000EDD152EA030012D082EA040083EA0501E7
:10075000084305D0101BAB4106D20122002306E05E
:1007600000224FF0004302E06FF0010253101AEB39
:1007700006004CEB085110EB0A0041EB0B01BDE801
:10078000F04DFFF71BBE70B521F0004303430CD0C2
:10079000C1F30A550024D5EB040564EB0403D61716
:1007A000AD1AB34102DB0020014670BD201841EBB9
:1007B000025170BD0EB5C10F80EAE0700844CA074F
:1007C000002140F233438DE80E000A460B46FFF746
:1007D00004FE03B000BD000030B5041E71F100043A
:1007E00004DB4FF00044404264EB0101141E73F13E
:1007F000000405DB1C464FF00043524263EB040348
:10080000994208BF904230BD064C074D06E0E068B3
:1008100040F0010394E8070098471034AC42F6D347
:10082000FFF7BEFC20B6000840B60008202A04DB13
:10083000203A00FA02F1002070479140C2F12003F3
:1008400020FA03F3194390407047202A04DB203A32
:1008500021FA02F00021704721FA02F3D040C2F1E0
:1008600020029140084319467047202A06DBCB1727
:10087000203A41FA02F043EAE07306E041FA02F35B
:10088000D040C2F1200291400843194670472DE93B
:10089000F04D00231A461B1A8A4103DB0020014653
:1008A000BDE8F08DC1F30A52C1F3130141F4801584
:1008B0004FF0000BD10702D100186D41521E0027E6
:1008C000044640F2FF11384601EB620A3E4680467C
:1008D000024600204FF48011FFF7B7FFC2197141A3
:1008E000BB1846EB0100B4EB030C75EB000C04D312
:1008F000E41A65EB000517460E46241908F10100BD
:100900006D4180463428E3DDF91946EB0600091BEA
:10091000A84103D24FF0FF32134601E000221346F4
:100920001BEB070046EB0A51BDE8F04DFFF746BD53
:1009300030B50146002409B9002030BD4A688B68F3
:100940009A4200D10C68934200D99C1A9A4202D96B
:10095000D51A0868441B601EEFE730B503460BB993
:10096000002030BD59689A68914200D1002491421C
:1009700000D98C1A8A4202D9551A1868441B20469D
:10098000EFE770B504460D4616460CB9012070BD60
:1009900018212046FFF735FC2560E6600A206074C8
:1009A000E06868B928460AF071FDE060E06818B9AF
:1009B000002020600120EAE7207C40F00200207443
:1009C000207C40F0010020740020E0E72DE9F04792
:1009D0000446894615464FF00008CA4604B115B9C9
:1009E0000020BDE8F0872168A068884201D300207C
:1009F000A0602046FFF7B1FF0746AF4203D20FB910
:100A00000020EEE73D46A1682068461AAE4200D9B4
:100A10002E46D4E90220811832465046FFF7D8FB13
:100A2000B044A0683044A060AD1B35B10AEB0800AB
:100A30002A46E168FFF7CCFBA5602168A0688842E0
:100A400001D30020A06008EB0500CAE72DE9F047BC
:100A50000446894615464FF00008CA4604B115B948
:100A60000020BDE8F087D4E90010884201D30020BF
:100A700060602046FFF75CFF0746AF4203D20FB924
:100A80000020EEE73D46D4E90001461AAE4200D907
:100A90002E466268E168881832465146FFF798FB97
:100AA000B044606830446060AD1B35B10AEB0801AA
:100AB0002A46E068FFF78CFB6560D4E900108842A5
:100AC00001D30020606008EB0500CAE700BFFEE725
:100AD00010B5024808F04BFF10BD00001060024046
:100AE00010B5024808F043FF10BD00002860024026
:100AF00010B5024808F03BFF10BD00004060024006
:100B000010B5024808F033FF10BD000058600240E5
:100B100010B5024808F02BFF10BD000070600240C5
:100B200010B5024808F023FF10BD000088600240A5
:100B300010B5024808F01BFF10BD0000A060024085
:100B400010B5024808F013FF10BD0000B860024065
:100B500010B5024808F00BFF10BD00001064024001
:100B600010B5024808F003FF10BD000028640240E1
:100B700010B5024808F0FBFE10BD000040640240C2
:100B800010B5024808F0F3FE10BD000058640240A2
:100B900010B5024808F0EBFE10BD00007064024082
:100BA00010B5024808F0E3FE10BD00008864024062
:100BB00010B5024808F0DBFE10BD0000A064024042
:100BC00010B5024808F0D3FE10BD0000B864024022
:100BD0007047024612B1062A02D100E001E000E0AF
:100BE00000BF00BF00207047024600207047000091
:100BF00070B504460D46034E2A4621463046FFF79F
:100C000025FF70BD2C03002038B504460D46206832
:100C1000009000BF204600F0B5FC20680099401A03
:100C2000A842F7D300BF0020207138BD0146087EDE
:100C300000220A76704700002DE9F04705460E466F
:100C4000174698463224DFF89C93E7480560EC216C
:100C50000068FFF7D6FAE4480068C0F8D880E24898
:100C60000068D0F8D80020B9E048DF490968C1F829
:100C7000D8000020DC49096881F86C000621DA48B8
:100C8000006880F844100020D74909680860D84AF5
:100C90004FF400714846FFF774FED3480068876040
:100CA000D1480068083000F0C1F930B100BF07201A
:100CB000CD4909680871BDE8F0870121CA4800687C
:100CC000083000F0E3F90A21C7480068FFF79CFFED
:100CD0000021C5480068083000F0D8F900BF0020A6
:100CE000C4490880C4490880C4490880C4490880B0
:100CF000C4490880C4490880C4490880C4490880A0
:100D0000C449088000BFB848006890F8D40020F0BB
:100D10000100401CB449096881F8D4004FF47A708E
:100D2000B1490968C8611C21BB48FFF76AFA1BE09A
:100D300000BFAD480068808928B9AB4800680068EA
:100D4000A949096848610520A7490968888100BF49
:100D50004FF47A71A448006800F0EAFDA2480068E8
:100D6000007E00B902E0641E002CE1D100BF1BE050
:100D700000BF9D480068808928B99B4800680068CA
:100D8000994909684861042097490968888100BF2A
:100D90004FF47A719448006800F0CAFD92480068E8
:100DA000007E00B902E0641E002CE1D100BF1BE010
:100DB00000BF8D480068808928B98B4800680068AA
:100DC000894909684861022087490968888100BF0C
:100DD0004FF47A718448006800F0AAFD82480068E8
:100DE000007E00B902E0641E002CE1D100BF1BE0D0
:100DF00000BF7D480068808928B97B48006800688A
:100E0000794909684861032077490968888100BFEA
:100E10004FF47A717448006800F08AFD72480068E7
:100E2000007E00B902E0641E002CE1D100BF23E087
:100E30007948066000BF6C480068808928B96A4814
:100E40000068006868490968486140F20110664915
:100E50000968888100BF4FF47A716348006800F028
:100E600067FD61480068007E00B907E064215E48C4
:100E70000068FFF7C9FE641E002CD9D100BF1C21F9
:100E80006548FFF7BEF91CE000BF5748006880893D
:100E900028B955480068006853490968486140F21C
:100EA000064051490968888100BF4FF47A714E4865
:100EB000006800F03DFD4C480068007E00B902E08B
:100EC000641E002CE0D100BF1BE000BF4648006854
:100ED000808928B944480068006843490968486126
:100EE000072041490968888100BF4FF47A713E4864
:100EF000006800F01DFD3C480068007E00B902E07B
:100F0000641E002CE1D100BF1BE000BF3648006822
:100F1000808928B934480068006833490968486105
:100F20000A2031490968888100BF4FF47A712E4840
:100F3000006800F0FDFC2C480068007E00B902E06B
:100F4000641E002CE1D100BF2748006890F8D4004F
:100F500020F001002449096881F8D40000BF002076
:100F600021490968888100BF2249088022490880F8
:100F700022490880224908802249088022490880A5
:100F800022490880224908802249088000BF16486B
:100F9000006890F8D40000F0010050B912480068D1
:100FA00090F8D40020F00200801C0F49096881F8F5
:100FB000D4001C211848FFF724F900BF0A48006834
:100FC00090F8D40020F002000749096881F8D400A5
:100FD00000BF05480068007E287103480068007E55
:100FE00069E600002C03002058000020E90B0008EF
:100FF000440300205C0000205E0000206000002010
:1010000062000020640000206600002068000020CC
:101010006A0000206C000020C80500200146888975
:1010200008B1012070470020FCE700001CB5044611
:1010300000210D48226808F073FF002001210346BB
:101040000A46CDE900100221084808F03FFD0020C3
:10105000012103460A46CDE900100821034808F0A3
:1010600035FD00201CBD00000010014000000240C2
:1010700070B506460C4615462A462146024808F039
:1010800088FF002070BD00000010014002460129C9
:1010900003D14804034B986102E00220014B9861A0
:1010A000002070470000024070B50446A08978B95E
:1010B00094F8D400C0F3400050B114F8D40F20F0DD
:1010C000020020706268D43C04F1DC0100209047EB
:1010D000A089C8B994F8D400C0F34000A0B9D520C5
:1010E000005DC0F3800078B1D520005D20F00401E0
:1010F000D520015504F14200C4F8DC00D4F8D82012
:1011000004F1DC0104209047A089C8B994F8D40008
:10111000C0F34000A0B9D520005DC0F3C00078B195
:10112000D520005D20F00801D520015504F14200D2
:10113000C4F8DC00D4F8D82004F1DC010520904785
:10114000A089A8B994F8D400C0F3400080B9D52094
:10115000005DC0F3400058B1D520005D20F00201D1
:10116000D5200155D4F8D82004F1DC0106209047A1
:10117000A089A8B994F8D400C0F3400080B9D62063
:10118000005D00F0010058B1D620005D20F00101A3
:10119000D6200155D4F8D82004F1DC01072090476F
:1011A000A089A8B994F8D400C0F3400080B9D62033
:1011B000005DC0F3400058B1D620005D20F0020170
:1011C000D6200155D4F8D82004F1DC01082090473E
:1011D000A089A8B994F8D400C0F3400080B9D62003
:1011E000005DC0F3800058B1D620005D20F00401FE
:1011F000D6200155D4F8D82004F1DC01092090470D
:10120000A089A8B994F8D400C0F3400080B9D620D2
:10121000005DC0F3C00058B1D620005D20F0080189
:10122000D6200155D4F8D82004F1DC010A209047DB
:10123000A089A8B994F8D400C0F3400080B9D620A2
:10124000005DC0F3001058B1D620005D20F0100101
:10125000D6200155D4F8D82004F1DC010B209047AA
:1012600000252DE004F1740050F8250000B925E0B8
:10127000A08910BB94F8D400C0F34000E8B904F191
:10128000740050F82500807DC0F38000A8B104F1FF
:10129000740151F8251001F11600897D21F0040137
:1012A000017004F1740050F82500C4F8DC00D4F893
:1012B000D82004F1DC010120904700BF681CC5B2B2
:1012C000062DCFDB00BF0020207170BD034600203B
:1012D0000871704730B502460B46002100BF33E06D
:1012E00001EB410402F1300000EB4400007900F012
:1012F000010038B301EB410402F1300000EB44007F
:10130000007920F0010401EB410502F1300000EB0F
:101310004500047101EB410402F1300000EB440090
:10132000007920F00200801C01EB410502F130043D
:1013300004EB4504207101EB410402F1300000EBA5
:10134000440030BD481CC1B20329C9DB0020F8E7C6
:101350002DE9F04104460D46174600BFA08920B98B
:1013600094F8D400C0F3400020B100BF02202071E7
:10137000BDE8F08100BF00BFA08908B920686061A6
:101380004FF40170A08100BF062D1CD2DFE805F0EC
:1013900003070B0F13171EA01F49086014E01FA0BE
:1013A0001D49086010E01FA01B4908600CE01FA049
:1013B0001949086008E01FA01749086004E01FA051
:1013C0001549086000E000BF00BF00BF3220E061A7
:1013D0004FB994F8D40020F0010084F8D40000BF85
:1013E00000202071C4E794F8D40020F00100401CD4
:1013F00084F8D4003221204600F09AFA0646042EE2
:1014000000D1B5E7267E002020763046B0E7000008
:101410005245414400000000C8050020554E524589
:101420004144000053454E5400000000554E5345C2
:101430004E540000494E424F58000000414C4C00B1
:101440002DE9F04104460F461546984600BF25B9E0
:1014500000BF03202071BDE8F08100BF00BFA0895C
:1014600020B994F8D400C0F3400018B100BF0220A6
:101470002071F0E700BF00BFA08908B92068606153
:1014800040F20220A08100BF2F801448C56000BF39
:101490004FF4FA70E061B8F1000F09D194F8D4006C
:1014A00020F0010084F8D40000BF00202071D2E7B2
:1014B00094F8D40020F00100401C84F8D4004FF4CC
:1014C000FA71204600F034FA0646042E00D1C2E735
:1014D000267E002020763046BDE70000C8050020AB
:1014E0002DE9F04104460E461546984600BF2EB140
:1014F00025B12846FEF79CFEA02804D900BF032092
:101500002071BDE8F08100BF00BFA08920B994F828
:10151000D400C0F3400018B100BF02202071F0E7F2
:1015200000BF00BFA08908B92068606140F20120B7
:10153000A08100BFA562666200BF47F23050E06143
:10154000B8F1000F09D194F8D40020F0010084F81C
:10155000D40000BF00202071D3E794F8D40020F01D
:101560000100401C84F8D40047F23051204600F0BE
:10157000DFF90746042F00D1C3E7277E002020763D
:101580003846BEE7F8B50446DE4D4FF4FA76A0893A
:1015900088B120686169401AE16988420BD914F862
:1015A000E80F20F00400001D2070207820F00200D9
:1015B000801C04F8E80997E1A08940F23171884263
:1015C0001FD1D520005DC0F38010D0B19DF8003050
:1015D000AC210859411CAC221151982109590B54D6
:1015E000B0200059401EB0210851B02000590028F9
:1015F00006D1D520005D20F04001D5200155002600
:101600006AE1A08940F23E7188421ED1D520005D7A
:10161000C009D0B19DF80030C0210859411CC0223A
:101620001151B82109590B54C4200059401EC4213E
:101630000851C42000590028E2D1D520005D20F0D7
:101640008001D5200155002646E1A08940F22C7189
:10165000884222D1D520005DC0F34010E8B1AA49EC
:10166000C8689DF800204389591C41814168CA54CB
:10167000018A491E0182018A71B9D521095D21F0D3
:101680002002D5210A55817D21F002018175817DDD
:1016900021F00401817500261EE1A08940F202219B
:1016A000884240D1D520005D00F00100D0B39649BA
:1016B000C86890F8A3109F2909D29DF8002010F85F
:1016C000A33F0178491C00F8A319C11CCA549DF816
:1016D00000100A2925D18D4909780D2921D190F8CA
:1016E000A31002291DDB90F8A310891EC21C515CB7
:1016F0000D290AD190F8A310491E515C0A2904D182
:1017000090F8A310891E80F8A310002290F8A3304F
:10171000C11CCA54D521095D21F00102D5210A5509
:101720000026D9E0FFE7A08940F20521884250D188
:10173000D520005D00F00100D0B373480069008837
:1017400071498969884234D26F49C8689DF8002080
:1017500010F8A33F0178491C00F8A319C11CCA5412
:101760009DF800100A2922D1684909780D291ED157
:1017700090F8A31002291ADB10F8A31F891E01702C
:10178000002210F8A339C11CCA545F49C968D4317A
:101790005D4AD160114609690988491C12691180A6
:1017A000D521095D21F00102D5210A55002693E0DB
:1017B0000FE09DF800000A28B3D1544800780D28A6
:1017C000AFD1D520005D20F00101D52001550026C4
:1017D00082E0D620005DC0F34010C0B19DF800004B
:1017E0000A2806D1D620005D20F02001D620015520
:1017F00072E09DF800003A2801D1012000E00020AD
:1018000002469DF80010204606F050FD64E09DF869
:1018100000000A281BD100BF9DF800103C48027848
:101820000078401C3A4B1870581C81540021401E0F
:101830000278401C815400BF411E204607F02EF85C
:1018400000BF002032490870487000BF43E09DF897
:10185000000020280ED12D4800783E280AD12D48BE
:1018600000780A2806D194F8E80020F00800083033
:1018700084F8E80000BF9DF8001025480278007841
:10188000401C234B1870581C81540021401E0278C4
:10189000401C815400BFA089B0F5026F1AD11846D0
:1018A0000078052816D1184640782B2812D1052239
:1018B00019A1581CFEF7DAFC60B9D620005D20F0B3
:1018C00020002030D621085500BF002010490870A4
:1018D000487000BF00BF00BF0C4800780D49087079
:1018E0009DF80000094908703EB10122694628466A
:1018F000FFF76CF800287FF45FAE204607F028FD64
:10190000F8BD00002C030020C80500208100002045
:1019100045050020820000202B434F50530000005B
:10192000024610680844106000BF00201071704724
:1019300070B504460D46E56100BF2046FFF722FE64
:10194000A0890028F9D194F8D400C0F34000002801
:10195000F3D100BF207E2071207E70BD0148006859
:10196000704700000400002010B52E480068401C9D
:101970002C4908602C48006820B12B480068401EA4
:1019800029490860002444E0284850F82400002831
:101990003DD0264850F824000078C0F34000B0B392
:1019A000224850F82400806840B1204850F82400B4
:1019B0008068401E1D4951F8241088601B4850F86B
:1019C0002400806818BB194B53F824301969174B51
:1019D00053F8240053F82430DA689047134850F83D
:1019E00024004168114850F8240081600F4850F8E5
:1019F0002400007800F0010048B90C4850F8240099
:101A0000007820F00201094850F824000170601CA1
:101A1000C4B20648001F0078A042B5DC07F0F0FE13
:101A200010BD00000400002000000020B8000020CD
:101A300010B50D48006840F400700B490860084676
:101A4000006840F4806008600846006840F48070D8
:101A50000860032000F086F80F2000F007F800F07F
:101A600017F8002010BD0000003C024070B504468D
:101A700000F0E4F94FF47A71B0FBF1F5284600F07C
:101A800081FC00222146501E00F02DF8002070BD80
:101A90007047000000BF00F01F0201219140034A7F
:101AA000430942F8231000BF7047000080E200E0C5
:101AB00000BF00F01F0201219140034A430942F890
:101AC000231000BF7047000080E100E000BF00F07D
:101AD0001F02012191404209920002F1E022C2F866
:101AE000001100BF70472DE9F05F80460D46164695
:101AF000002700F09FFC074639462A46334601F08E
:101B00000700C0F1070ABAF1040F02D94FF0040A26
:101B100001E0C0F1070AD14600F1040ABAF1070F4B
:101B200002D24FF0000A01E0A0F1030AD4464FF0C0
:101B3000010A0AFA09FAAAF1010A0AEA020A0AFAE9
:101B40000CFA4FF0010B0BFA0CFBABF1010B0BEA9B
:101B5000030B4AEA0B042146404600F073FCBDE843
:101B6000F09F000000BF00F00702064B19684FF617
:101B7000FF031940044B0B4343EA0221014B196058
:101B800000BF70470CED00E00000FA0570B5044698
:101B90000E460025A748006800F00F00B0426FD243
:101BA000A4490E700846006800F00F00B04201D052
:101BB000012070BD207800F00200022807D19E4865
:101BC000006820F0F000A16808439B490860207875
:101BD00000F0010000283ED06068012807D1964837
:101BE00008380068C0F34040B8B90120E1E76068F8
:101BF000022802D06068032807D18F48083800689F
:101C0000C0F3406048B90120D3E78B48083800682A
:101C1000C0F3400008B90120CBE78748006820F0F6
:101C200003006168084384490860FFF797FE054692
:101C30006068012810D108E0FFF790FE401B41F2D8
:101C40008831884201D90320B3E77B48006800F05F
:101C50000C000428F0D1CDE06068022811D108E022
:101C6000FFF77CFE401B41F28831884201D90320F6
:101C70009FE77148006800F00C000828F0D1B9E037
:101C800024E06068032810D108E0FFF767FE401BDE
:101C900041F28831884201D903208AE7664800680A
:101CA00000F00C000328F0D1A4E008E0FFF756FE96
:101CB000401B41F28831884201D9032079E75E4810
:101CC000006800F00C000028F0D193E0207800F0CC
:101CD0000200022807D15848006820F0F000A168EF
:101CE000084355490860207800F00100002877D0AB
:101CF0006068012807D1504808380068C0F34040A8
:101D0000B8B9012055E76068022802D0606803284E
:101D100007D1494808380068C0F3406048B901203D
:101D200047E7454808380068C0F3400008B901207B
:101D30003FE74148006820F00300616808433E49DE
:101D40000860FFF70BFE05466068012810D108E027
:101D5000FFF704FE401B41F28831884201D903207D
:101D600027E73548006800F00C000428F0D137E080
:101D70006068022810D108E0FFF7F0FD401B41F237
:101D80008831884201D9032013E72B48006800F00E
:101D90000C000828F0D123E06068032810D108E087
:101DA000FFF7DCFD401B41F28831884201D9032056
:101DB000FFE62148006800F00C000328F0D10FE096
:101DC00008E0FFF7CBFD401B41F28831884201D982
:101DD0000320EEE61848006800F00C000028F0D15F
:101DE00014490E700846006800F00F00B04201D0A0
:101DF0000120DEE6207800F00400042807D10E4818
:101E0000006820F4E050E16808430B49086020783E
:101E100000F00800082808D10748006820F4604056
:101E2000216940EAC100044908600F20FFF71EFE47
:101E30000020BEE6003C02400838024010B500F029
:101E400045F80949096801F0F001F02292FAA2F27E
:101E5000B2FA82F2D140054A515CC8400449086098
:101E60000846006810BD00000838024066B500084A
:101E70005400002010B5FFF7E1FF0749096801F49D
:101E8000E0514FF4E05292FAA2F2B2FA82F2D1405B
:101E9000024A515CC84010BD0838024066B50008CF
:101EA00010B5FFF7CBFF0749096801F460414FF413
:101EB000604292FAA2F2B2FA82F2D140024A515C36
:101EC000C84010BD0838024066B5000870B5002152
:101ED000002200230020274C246804F00C0424B1C5
:101EE000042C04D0082C41D103E0234840E02348CF
:101EF0003EE0204C241F246804F03F011D4C241FA9
:101F0000246804F4800484B11C4CB4FBF1F5194C32
:101F1000241F246847F6C076344096FAA6F6B6FA2F
:101F200086F6F44005FB04F20FE0134CB4FBF1F528
:101F3000104C241F246847F6C076344096FAA6F663
:101F4000B6FA86F6F44005FB04F20A4C241F246816
:101F500004F440344FF4403595FAA5F5B5FA85F50B
:101F6000EC40641C6300B2FBF3F001E0024800BFE8
:101F700000BF70BD083802400024F40000127A004F
:101F800038B504460025207800F00100002866D00E
:101F9000F648006800F00C0004280DD0F3480068F3
:101FA00000F00C00082813D1F048001F006800F46E
:101FB0008000B0F5800F0BD1EC4808380068C0F302
:101FC000404000284BD06068002848D1012038BD2F
:101FD0000020E649891F0870FFF7C0FC054608E0AD
:101FE000FFF7BCFC401B41F28831884201D9032035
:101FF000EDE7DE4808380068C0F340400028EFD124
:102000002079DA49891F08706068A0B1FFF7A6FC43
:10201000054608E0FFF7A2FC401B41F288318842E8
:1020200001D90320D3E7D14808380068C0F3404005
:102030000028EFD013E0FFF791FC054608E0FFF71A
:102040008DFC401B41F28831884201D90320BEE754
:10205000C64808380068C0F340400028EFD1207817
:1020600000F00200022869D1C048006800F00C00AE
:1020700058B1BE48006800F00C00082821D1BB48C8
:10208000001F006800F48000D8B9B848083800681C
:10209000C0F3400020B1E068012801D0012096E79C
:1020A000B2480838006820F0F800F82292FAA2F24C
:1020B000B2FA82F2216991400843AC4908390860BC
:1020C0003CE0E06828B30120A9490860FFF746FC1E
:1020D000054606E0FFF742FC401B642801D90320B7
:1020E00075E7A24808380068C0F340000028F1D026
:1020F0009E480838006820F0F800F82292FAA2F210
:10210000B2FA82F22169914008439849083908607F
:1021100014E0002096490860FFF720FC054606E021
:10212000FFF71CFC401B642801D903204FE78F48B0
:1021300008380068C0F340000028F1D1207800F092
:10214000080008282CD16069A8B1012089490860DD
:10215000FFF704FC054606E0FFF700FC401B64287F
:1021600001D9032033E781486C300068C0F3400098
:102170000028F1D014E000207E490860FFF7EEFB54
:10218000054606E0FFF7EAFB401B642801D903205F
:102190001DE776486C300068C0F340000028F1D19C
:1021A000207800F0040004286DD100BF6F4838305B
:1021B000006840F080506D4938310860084600687A
:1021C00000F08050009000BF00BF6B48006840F4F2
:1021D000807069490860FFF7C1FB054606E0FFF71C
:1021E000BDFB401B642801D90320F0E6624800686B
:1021F00000F480700028F2D000205C49683108703B
:10220000FFF7ACFB054608E0FFF7A8FB401B41F2D7
:102210008831884201D90320D9E6544868300068E3
:10222000C0F340000028EFD1207A5049683108708F
:10223000A068A0B1FFF792FB054608E0FFF78EFB10
:10224000401B41F28831884201D90320BFE647484C
:1022500068300068C0F340000028EFD013E0FFF7BB
:102260007DFB054608E0FFF779FB401B41F2883112
:10227000884201D90320AAE63C4868300068C0F3D0
:1022800040000028EFD1A069F0B33848006800F0A2
:102290000C00082872D0A069022850D100203449CF
:1022A0000866FFF75BFB054606E0FFF757FB401BA0
:1022B000642801D903208AE62C4808380068C0F356
:1022C00040600028F1D1D4E90701084347F6C07205
:1022D00092FAA2F2B2FA82F2616A914008430122B4
:1022E000A16AC2EB51014FF4403292FAA2F2B2FA63
:1022F00082F2914008434FF0706292FAA2F2B2FA71
:1023000082F2E16A914000E03AE008431749091F70
:102310000860012016490866FFF720FB054606E025
:10232000FFF71CFB401B642801D903204FE60F4830
:1023300008380068C0F340600028F1D020E0002099
:102340000B490866FFF70AFB054606E0FFF706FBA8
:10235000401B642801D9032039E604480838006886
:10236000C0F340600028F1D10AE007E008380240DD
:1023700000004742800E474200700040012026E6E0
:10238000002024E670B504462546681EB0F1807F23
:1023900001D301200FE0681E4FF0E02148610F21BA
:1023A0004FF0FF3000F04EF800204FF0E021886140
:1023B00007200861002070BD10B504460CB901204B
:1023C00010BDA06900B100E000BF94F8390028B941
:1023D000002084F83800204600F025F8022084F818
:1023E00039002068C06820F400502168C860204689
:1023F00007F0E6FD2068006920F49040216808613C
:102400002068406920F02A00216848612068C0687F
:1024100040F400502168C8600020E063012084F887
:1024200039000020CCE7704700BFFEE700BFFEE7A1
:102430007047000002480068C0F3022070470000A7
:102440000CED00E010B5002807DA0A07140E054A63
:1024500000F00F031B1FD45403E00A07130E024AB7
:10246000135410BD18ED00E000E400E070B505461F
:102470000C46224602A1284607F004FF70BD00006A
:10248000257500007CB505460C46288840F2EF52C1
:10249000811A90427DD008DC70B1A0F2CB5028B3F5
:1024A0000A2877D0182876D10CE10D2974D0182984
:1024B00073D02329F7D1BDE294F86C00012855D0E0
:1024C00000BF0020C4F8E80000BF0822FEA104F10C
:1024D0000800FEF7CDFD0222FEA104F10800FEF780
:1024E000C7FD00BF40F2CB50288000BF94F8E80041
:1024F00000F0010030B994F8E800C0F3400008B9DA
:1025000000207CBD00BF94F86C0001282ED008206C
:10251000207600BF0020A08100BFEF490880EF496E
:102520000880EF490880EF490880EF490880EF49AB
:102530000880EF490880EF490880EF49088000BF14
:1025400094F8D40000F0010030B994F8D40020F0E1
:102550000200801C84F8D4001C21E848FDF751FEDD
:1025600000BF00BF002028800220CAE7A08940F2F7
:102570000131884270D100BF0020C4F8E80000BFDC
:102580000322DFA104F10800FEF772FDDB490868B1
:1025900004E000E123E08AE269E1EEE1FDF748FEB4
:1025A00086B2D6483246016804F10800FEF760FDA5
:1025B0000122D4A104F10800FEF75AFD0222C5A1B0
:1025C00004F10800FEF754FD002240F201312046DC
:1025D00007F0A6F800BF40F2D550288000BF94F85D
:1025E000E80000F0010030B994F8E800C0F34000C2
:1025F00008B9002085E700BF94F8E80000F001006A
:1026000080F00100207600BF0020A08100BFB24909
:102610000880B2490880B2490880B2490880B249AE
:102620000880B2490880B2490880B2490880B2499E
:10263000088000BF94F8D40000F0010030B994F88D
:10264000D40020F00200801C84F8D4001C21AB4888
:10265000FDF7D7FD2AE2FFE7A08940F20531884265
:102660006CD100BF0020C4F8E80000BFA348816916
:102670006846FFF7FBFE0922A3A104F10800FEF75C
:10268000F7FC6846FDF7D4FD86B23246694604F190
:102690000800FEF7EDFC01229AA104F10800FEF704
:1026A000E7FC02228BA104F10800FEF7E1FC002206
:1026B00040F20531204607F033F800BF40F2E35006
:1026C000288000BF94F8E80000F0010030B994F8C9
:1026D000E800C0F3400008B9002012E700BF94F8FA
:1026E000E80000F0010080F00100207600BF00202B
:1026F000A08100BF7849088078490880784908801F
:1027000078490880784908807849088078490880A5
:10271000784908807849088000BF94F8D40000F018
:10272000010030B994F8D40020F00200801C84F835
:10273000D4001C217148FDF764FDB7E1A08940F287
:102740000231884263D100BF0020C4F8E80000BF16
:1027500003226BA104F10800FEF78AFC67490868B0
:10276000FDF766FD86B265483246016804F108004F
:10277000FEF77EFC022257A104F10800FEF778FC68
:10278000002240F20231204606F0CAFF00BF40F2AC
:10279000EF50288000BF94F8E80000F0010030B945
:1027A00094F8E800C0F3400008B90020A9E600BF93
:1027B00094F8E80000F0010080F00100207600BFEE
:1027C0000020A08100BF4449088044490880444952
:1027D00008804449088044490880444908804449A5
:1027E0000880444908804449088000BF94F8D40018
:1027F00000F0010030B994F8D40020F00200801CF1
:1028000084F8D4001C213D48FDF7FBFC4EE1A08973
:1028100040F20631884256D100BF0020C4F8E800DB
:1028200000BF364881696846FFF720FE092236A1BD
:1028300004F10800FEF71CFC6846FDF7F9FC86B2BF
:102840003246694604F10800FEF712FC022221A17B
:1028500004F10800FEF70CFC002240F2063120468D
:1028600006F05EFF00BF40F2FC50288000BF94F8E5
:10287000E80000F0010030B994F8E800C0F340002F
:1028800008B900203DE600BF94F8E80000F0010020
:1028900080F00100207600BF0020A08100BF0E491B
:1028A00008800E4908800E4908800E4908800E49AC
:1028B00008800E4908800E4908800E4908800E499C
:1028C000088000BF26E036E041542B4350494E3F7C
:1028D000000000000D0A00005C0000205E000020E7
:1028E00060000020620000206400002066000020DC
:1028F000680000206A0000206C000020C80500204D
:10290000415444003B0000004154443E22534D22B8
:102910002000000094F8D40000F0010030B994F8D1
:10292000D40020F00200801C84F8D4001C216248EE
:10293000FDF767FCBAE0A08940F20331884258D124
:1029400000BF0020C4F8E80000BF03225BA104F12F
:102950000800FEF78DFB0222AFF2880104F10800A7
:10296000FEF786FB002240F20331204606F0D8FE37
:1029700000BF40F20760288000BF94F8E80000F034
:10298000010030B994F8E800C0F3400008B9002015
:10299000B7E500BF94F8E80000F0010080F0010006
:1029A000207600BF0020A08100BF4549088045492E
:1029B00008804549088045490880454908804549BF
:1029C000088045490880454908804549088000BF7E
:1029D00094F8D40000F0010030B994F8D40020F04D
:1029E0000200801C84F8D4001C213348FDF709FC48
:1029F0005CE0A089B0F5417F58D100BF0020C4F849
:102A0000E80000BF032237A104F10800FEF730FB05
:102A10000222AFF2401104F10800FEF729FB002268
:102A20004FF44171204606F07BFE00BF40F2126079
:102A3000288000BF94F8E80000F0010030B994F855
:102A4000E800C0F3400008B900205AE500BF94F840
:102A5000E80000F0010080F00100207600BF0020B7
:102A6000A08100BF164908801649088016490880D1
:102A700016490880164908801649088016490880BA
:102A8000164908801649088000BF94F8D40000F069
:102A9000010030B994F8D40020F00200801C84F8C2
:102AA000D4001C210448FDF7ACFB00BF00BF00BFF1
:102AB00000202880032024E5C8050020415441005F
:102AC0005C0000205E00002060000020620000200A
:102AD0006400002066000020680000206A000020DA
:102AE0006C0000204154480070B505460C4628880B
:102AF00018B1B0F5E16F5ED120E0A08940F201612C
:102B0000884257D100BF0020C4F8E80000BF082267
:102B10002BA104F10800FEF7ABFA02222BA104F16D
:102B20000800FEF7A5FA002240F20161204606F0F7
:102B3000F7FD00BF4FF4E160288000BF94F8E80083
:102B400000F0010030B994F8E800C0F3400008B983
:102B5000002070BD00BF94F8E80000F0010080F094
:102B60000100207600BF0020A08100BF1849088026
:102B700018490880184908801849088018490880B1
:102B800018490880184908801849088018490880A1
:102B900000BF94F8D40000F0010030B994F8D400DC
:102BA00020F00200801C84F8D4001C211148FDF79D
:102BB00028FB00BF00BF00BF002028800320C8E71B
:102BC00041542B43434C4B3F000000000D0A0000D2
:102BD0005C0000205E0000206000002062000020F9
:102BE0006400002066000020680000206A000020C9
:102BF0006C000020C80500207CB505460C462888DE
:102C000040F2D242811A904275D011DC40F2B142BA
:102C1000A0EB020190426FD005DC90B1A0F2A6407B
:102C200000286AD12BE00B2968D01629F9D13CE1A4
:102C30000B297CD016297BD023297AD03429F0D1D6
:102C40004AE3A08905285AD100BF0020C4F8E80053
:102C500000BF0222FEA104F10800FEF709FA0222D9
:102C6000FCA104F10800FEF703FA0022042120462B
:102C700006F056FD00BF40F2A640288000BF94F841
:102C8000E80000F0010030B994F8E800C0F340001B
:102C900008B900207CBD00BF94F8E80000F00100F6
:102CA00080F00100207600BF0020A08100BFEA492B
:102CB0000880EA490880EA490880EA490880EA4928
:102CC0000880EA490880EA490880EA490880EA4918
:102CD000088000BF94F8D40000F0010030B994F8E7
:102CE000D40020F00200801C84F8D4001C21E348AA
:102CF000FDF787FA2CE332E123E02AE37BE0A089A9
:102D000004285AD100BF0020C4F8E80000BF042204
:102D1000DBA104F10800FEF7ABF90222CDA104F11A
:102D20000800FEF7A5F900220421204602E070E128
:102D300002E26BE206F0F4FC00BF40F2B1402880F2
:102D400000BF94F8E80000F0010030B994F8E80002
:102D5000C0F3400008B900209CE700BF94F8E800E9
:102D600000F0010080F00100207600BF0020A0816B
:102D700000BFB9490880B9490880B9490880B949F4
:102D80000880B9490880B9490880B9490880B9491B
:102D90000880B949088000BF94F8D40000F0010011
:102DA00030B994F8D40020F00200801C84F8D400DC
:102DB0001C21B248FDF725FACAE2A089012856D1A4
:102DC00000BF0020C4F8E80000BF1122AEA104F14A
:102DD0000800FEF74DF902229EA104F10800FEF75B
:102DE00047F900220121204606F09AFC00BF40F27C
:102DF000BC40288000BF94F8E80000F0010030B922
:102E000094F8E800C0F3400008B9002042E700BF92
:102E100094F8E80000F0010080F00100207600BF87
:102E20000020A08100BF8C4908808C4908808C4913
:102E300008808C4908808C4908808C4908808C491E
:102E400008808C4908808C49088000BF94F8D40021
:102E500000F0010030B994F8D40020F00200801C8A
:102E600084F8D4001C218548FDF7CBF970E2A089D5
:102E7000022856D100BF0020C4F8E80000BF092294
:102E800086A104F10800FEF7F3F8022271A104F113
:102E90000800FEF7EDF800220221204606F040FC73
:102EA00000BF40F2C740288000BF94F8E80000F05F
:102EB000010030B994F8E800C0F3400008B90020E0
:102EC000E8E600BF94F8E80000F0010080F001009F
:102ED000207600BF0020A08100BF5F4908805F49C5
:102EE00008805F4908805F4908805F4908805F4922
:102EF00008805F4908805F4908805F49088000BFFB
:102F000094F8D40000F0010030B994F8D40020F017
:102F10000200801C84F8D4001C215848FDF771F988
:102F200016E2A089032856D100BF0020C4F8E800AB
:102F300000BF09225CA104F10800FEF799F8022203
:102F400044A104F10800FEF793F800220321204673
:102F500006F0E6FB00BF40F2D240288000BF94F8A4
:102F6000E80000F0010030B994F8E800C0F3400038
:102F700008B900208EE600BF94F8E80000F00100D8
:102F800080F00100207600BF0020A08100BF324900
:102F90000880324908803249088032490880324925
:102FA0000880324908803249088032490880324915
:102FB000088000BF94F8D40000F0010030B994F804
:102FC000D40020F00200801C84F8D4001C212B487F
:102FD000FDF717F9BCE1A08906286FD100BF0020DA
:102FE000C4F8E80000BF042232A104F10800FEF793
:102FF0003FF8022217A104F10800FEF739F8002279
:103000000621204606F08CFB00BF40F2DD40288000
:1030100000BF94F8E80000F0010030B994F8E8002F
:10302000C0F3400008B9002034E600BF94F8E8007F
:1030300000F0010080F00100207600BF0020A08198
:1030400000BF05490880054908800549088036E029
:10305000415400000D0A00005C0000205E000020CA
:103060006000002062000020640000206600002054
:10307000680000206A0000206C000020C8050020C5
:10308000415426460000000041542B434E4D493D1B
:10309000312C322C302C302C3000000041542B438A
:1030A0004D45453D3100000041542B434C43433DC9
:1030B0003100000041544530000000001DE0A749E8
:1030C0000880A7490880A7490880A7490880A74920
:1030D0000880A749088000BF94F8D40000F00100E0
:1030E00030B994F8D40020F00200801C84F8D40099
:1030F0001C21A048FDF785F82AE1A089072857D1AF
:1031000000BF0020C4F8E80000BF04229AA104F127
:103110000800FDF7ADFF0222AFF2C80104F108007C
:10312000FDF7A6FF00220721204606F0F9FA00BFAE
:103130004FF49D60288000BF94F8E80000F0010083
:1031400030B994F8E800C0F3400008B90020A1E5C8
:1031500000BF94F8E80000F0010080F00100207644
:1031600000BF0020A08100BF8549088085490880F4
:10317000854908807949088079490880794908801B
:1031800079490880794908807949088000BF94F816
:10319000D40000F0010030B994F8D40020F002000F
:1031A000801C84F8D4001C217248FDF72AF8CFE077
:1031B000A08909286CD100BF0020C4F8E80000BF36
:1031C0006C4881696846FFF751F908226FA104F144
:1031D0000800FDF74DFF6846FDF72AF886B2324633
:1031E000694604F10800FDF743FF0222AFF29C118B
:1031F00004F10800FDF73CFF00220821204606F0FC
:103200008FFA00BF40F2F540288000BF94F8E80034
:1032100000F0010030B994F8E800C0F3400008B9AC
:10322000002037E500BF94F8E80000F0010080F0CE
:1032300001002076207E18B94E48806984F86D0020
:1032400000BF0020A08100BF4D4908804D49088083
:103250004D4908804149088041490880414908801A
:1032600041490880414908804149088000BF94F8DD
:10327000D40000F0010030B994F8D40020F002002E
:10328000801C84F8D4001C213A48FCF7BAFF5FE0A8
:10329000A0890A285CD100BF0020C4F8E80000BF64
:1032A000344881696846FFF7E1F808223AA104F141
:1032B0000800FDF7DDFE0222AFF2682104F10800EC
:1032C000FDF7D6FE00220821204606F029FA00BFAD
:1032D00040F20650288000BF94F8E80000F001009A
:1032E00030B994F8E800C0F3400008B90020D1E4F8
:1032F00000BF94F8E80000F0010080F001002076A3
:1033000000BF0020A08100BF1D4908801D49088022
:103310001D49088011490880114908801149088019
:1033200011490880114908801149088000BF94F8AC
:10333000D40000F0010030B994F8D40020F002006D
:10334000801C84F8D4001C210A48FCF75AFF00BFF7
:1033500000BF00BF0020288003209BE46200002003
:103360006400002066000020680000206A00002041
:103370006C000020C80500204154453100000000C9
:103380005C0000205E0000206000002041542B43C0
:1033900046554E3D0000000041542B4346554E3FDC
:1033A000000000002DE9FF4105460C46FE48C668B6
:1033B0001A200190288840F6EC02811A904201F010
:1033C000588363DC40F2EB72A0EB0201904273D0B1
:1033D00031DCB0F5EE6F70D017DC40F24272A0EB3A
:1033E000020190426AD009DC002868D0A0F21D706A
:1033F00000286FD0152842F0E585AEE109296AD092
:10340000172969D02029F6D1BCE240F2B272811AA4
:10341000904270D008DCA0F27E7000286CD00E289C
:103420006BD02628E7D1C1E30E2967D01C297DD0B7
:103430002529E0D1D2E3892901F04B8011DC2F2925
:1034400075D006DC082973D01A2972D02929D2D167
:10345000C5E349296ED063296DD06B29CBD100F02B
:10346000AABFD12901F0D28109DC992901F0B180EC
:10347000AF2901F01D81BD29BDD101F04EB9DC2974
:1034800001F0F581F229B6D101F0B2BAE92902F0D2
:1034900061803BDC7A2901F0BE851EDC3E2901F00B
:1034A0003D840DDC0D2901F01983152901F03383CA
:1034B0002729A0D101F0ABBBF1E398E2D7E166E0A8
:1034C0004B2901F08D845C2901F022856B2992D172
:1034D00001F05FBD83E0F4E12AE2B72901F034870F
:1034E0000DDC882901F0F385992901F06586A8296A
:1034F00089D101F0A5BEC6E3AEE2E2E2F9E3C62956
:1035000001F06A87D9298DD101F0DCBF40F2751234
:10351000881A914202F0F38224DCB1F59A7F02F01E
:10352000B88112DCF72902F04C8005E0F9E3F9E3F9
:10353000F9E3F9E3F9E3F9E3B1F5807F02F05E80A6
:10354000B1F58E7F8AD102F021B9B1F5A37F02F0E7
:103550001482A1F25711002902F0558210298BD153
:1035600002F099BA392802F0F98309DC092802F03F
:10357000E382262802F0A7832F2884D102F0C8BB5B
:10358000592802F07484692893D102F0D2BCA08932
:10359000E08194F8200001287ED094F820000528CE
:1035A0007AD0A089E08100BF0020C4F8E80000BF05
:1035B00008227EA104F10800FDF75AFD02227EA137
:1035C00004F10800FDF754FD002240F2337120465B
:1035D00006F0A6F800BF40F21D70288000BF94F8E6
:1035E000E80000F0010040B994F8E800C0F34000A2
:1035F00018B9002004B0BDE8F08100BFE089A081C7
:1036000094F82000012847D094F82000052843D0E2
:1036100094F8200010B90B2020760FE094F82000D9
:10362000022802D10C20207608E094F8200003281C
:1036300002D10D20207601E00E20207600BF002070
:10364000A08100BF5D4908805D4908805D49088010
:103650005D4908805D4908805D4908805D490880B2
:103660005D4908805D49088000BF94F8D40000F0EF
:10367000010030B994F8D40020F00200801C84F8D6
:10368000D4001C214848FCF7BCFD00BF00BF00204F
:1036900028800220AEE7FFE7E089A081A08940F200
:1036A000017188427ED1A089E08100BF0020C4F86A
:1036B000E80000BF09224AA104F10800FDF7D8FC88
:1036C00039490868FCF7B4FD87B237483A460168C3
:1036D00004F10800FDF7CCFC032244A104F108002A
:1036E000FDF7C6FC3048406858B12F494868FCF7E0
:1036F0009FFD87B22C483A46416804F10800FDF767
:10370000B7FC032239A104F10800FDF7B1FC2648FB
:10371000806858B124498868FCF78AFD87B222483E
:103720003A46816804F10800FDF7A2FC01222EA1AF
:1037300004F10800FDF79CFC02221FA104F108001F
:10374000FDF796FC002240F20171204605F0E8FFEB
:1037500000BF40F23270288000BF94F8E80000F00B
:10376000010030B994F8E800C0F3400008B9002027
:1037700040E700BF94F8E80000F0010080F001008D
:103780002076E089A08100BF0020A08100BF0B4906
:1037900008800B4908800B4908800B4908800B49B9
:1037A000088025E03FE00000C805002041542B437D
:1037B0005245473F000000000D0A00005C00002059
:1037C0005E000020600000206200002064000020F5
:1037D00066000020680000206A0000206C000020C5
:1037E00041542B435354543D22000000222C22000C
:1037F000FB490880FB490880FB490880FB49088099
:1038000000BF94F8D40000F0010030B994F8D4005F
:1038100020F00200801C84F8D4001C21F448FCF73E
:10382000F0FC02F0CEBBA08940F2027188427DD14B
:10383000A089E08100BF0020C4F8E80000BF0A2290
:10384000ECA104F10800FDF713FC0222AFF298018D
:1038500004F10800FDF70CFC002240F22271204622
:1038600005F05EFF00BF40F24270288000BF94F870
:10387000E80000F0010030B994F8E800C0F340001F
:1038800008B90020B6E600BF00BF0020C4F8E80079
:1038900000BF0A22DAA104F10800FDF7E9FB0222C9
:1038A000AFF2EC0104F10800FDF7E2FB002240F268
:1038B0002271204605F034FF00BF40F24B70288093
:1038C00000BF94F8E80000F0010030B994F8E80077
:1038D000C0F3400008B900208CE600BF94F8E8006F
:1038E00000F0010080F001002076207E012800D148
:1038F00072E200BF0020C4F8E80000BF0A22C3A1A2
:1039000004F10800FDF7B4FB0222AFF2541104F1F8
:103910000800FDF7ADFB002240F22171204605F0C2
:10392000FFFE00BF40F25970288000E08FE200BF28
:1039300094F8E80000F0010030B994F8E800C0F312
:10394000400008B9002055E600BF00BF0020C4F8C1
:10395000E80000BF0A22B0A104F10800FDF788FBCF
:103960000222AFF2AC1104F10800FDF781FB002246
:1039700040F22171204605F0D3FE00BF40F2627094
:10398000288000BF94F8E80000F0010030B994F8F6
:10399000E800C0F3400008B900202BE600BF94F80F
:1039A000E80000F0010080F001002076207E012870
:1039B00000D111E200BF0020C4F8E80000BF0A22D5
:1039C00098A104F10800FDF753FB0222AFF2182181
:1039D00004F10800FDF74CFB00224FF4E46120469F
:1039E00005F09EFE00BF4FF4EE60288000BF94F803
:1039F000E80000F0010030B994F8E800C0F340009E
:103A000008B90020F6E500BF94F8E80000F00100D6
:103A100080F001002076207E012800D1DCE100BF8B
:103A20000020C4F8E80000BF0B2281A104F10800C7
:103A3000FDF71EFB0222AFF2802104F10800FDF722
:103A400017FB002240F22771204605F069FE00BFF7
:103A500040F27E70288000BF94F8E80000F001007A
:103A600030B994F8E800C0F3400008B90020C1E57F
:103A700000BF94F8E80000F0010080F0010020761B
:103A8000207E012800D1A7E100BF0020C4F8E80093
:103A900000BF0D2269A104F10800FDF7E9FA022236
:103AA000AFF2EC2104F10800FDF7E2FA002240F247
:103AB0002C71204605F034FE00BF40F28C70288047
:103AC00000BF94F8E80000F0010030B994F8E80075
:103AD000C0F3400008B900208CE500BF94F8E8006E
:103AE00000F0010080F001002076207E012800D146
:103AF00072E100BF0020C4F8E80000BF0922AFF265
:103B0000203104F10800FDF7B3FA39490868FCF7E1
:103B10008FFB87B236483A46016804F10800FDF78A
:103B2000A7FA0322AFF23C3104F10800FDF7A0FA36
:103B30002F48406858B12E494868FCF779FB87B296
:103B40002B483A46416804F10800FDF791FA032238
:103B5000AFF2683104F10800FDF78AFA2448806862
:103B600058B123498868FCF763FB87B220483A467E
:103B7000816804F10800FDF77BFA0122AFF2983169
:103B800004F10800FDF774FA0222AFF2D43104F117
:103B90000800FDF76DFA002240F22671204605F07C
:103BA000BFFD00BF40F2A470288000BF94F8E80079
:103BB00000F0010030B994F8E800C0F3400008B903
:103BC000002017E500BF94F8E80000F0010080F045
:103BD00001002076207E012838D1FDE0EEE0A1E250
:103BE00066000020680000206A0000206C000020B1
:103BF000C805002041542B43474143543D30000049
:103C000041542B43474143543D31000041542B4321
:103C1000474154543D30000041542B4347415454D4
:103C20003D31000041542B43495053485554000046
:103C300041542B4349504D55583D310041542B437D
:103C4000495052584745543D3100000000BF002004
:103C5000C4F8E80000BF0822FEA104F10800FDF747
:103C600007FA0222AFF2B04104F10800FDF700FAB2
:103C7000002240F22471204605F052FD00BF40F2C0
:103C8000B270288000BF94F8E80000F0010038B955
:103C900094F8E800C0F3400010B90020AAE4FAE06C
:103CA00000BF94F8E80000F0010080F001002076E9
:103CB000207E012800D18FE000BF0020C4F8E8007A
:103CC00000BF0822E6A104F10800FDF7D1F90222A5
:103CD000AFF21C5104F10800FDF7CAF9002240F2CE
:103CE0002571204605F01CFD00BF4FF4F8602880C8
:103CF00000BF94F8E80000F0010030B994F8E80043
:103D0000C0F3400008B9002074E400BF94F8E80054
:103D100000F0010080F001002076207E012806D10D
:103D20005AE021E019E2E1E057E18CE218E300BF3C
:103D30000020C4F8E80000BF0B22CCA104F1080069
:103D4000FDF796F90222AFF2905104F10800FDF759
:103D50008FF9002240F23271204605F0E1FC00BFED
:103D600040F2CE70288000BF94F8E80000F0010017
:103D700030B994F8E800C0F3400008B9002039E4F5
:103D800000BF00BF0020C4F8E80000BF0C22BAA1A9
:103D900004F10800FDF76CF90222AFF2E45104F1DE
:103DA0000800FDF765F9002240F22371204605F076
:103DB000B7FC00BF40F2D770288000BF94F8E8003D
:103DC00000F0010030B994F8E800C0F3400008B9F1
:103DD00000200FE400BF00BF207E38B9D620005D70
:103DE00020F00100401CD621085506E0D620005DD9
:103DF00020F00200801CD6210855E089A08100BF78
:103E00000020A08100BFA0490880A0490880A049E7
:103E10000880A0490880A0490880A0490880A049DE
:103E20000880A0490880A049088000BF94F8D40009
:103E300000F0010030B994F8D40020F00200801C9A
:103E400084F8D4001C219948FCF7DBF9E9E4A08947
:103E500040F2037188427DD1A089E08100BF00203B
:103E6000C4F8E80000BF0C2291A104F10800FDF79E
:103E7000FFF80222AFF2C06104F10800FDF7F8F884
:103E8000002240F22371204605F04AFC00BF40F2B8
:103E9000EB70288000BF94F8E80000F0010030B912
:103EA00094F8E800C0F3400008B9002060E400BFC7
:103EB00000BF0020C4F8E80000BF0A22AFF2B4211E
:103EC00004F10800FDF7D4F80222AFF2147104F1F6
:103ED0000800FDF7CDF8002240F22171204605F0E0
:103EE0001FFC00BF40F2F370288000BF94F8E80088
:103EF00000F0010030B994F8E800C0F3400008B9C0
:103F0000002035E400BF94F8E80000F0010080F0E4
:103F100001002076D620005D20F00400001DD6218F
:103F20000855E089A08100BF0020A08100BF56494C
:103F300008805649088056490880564908805649E5
:103F400008805649088056490880564908805649D5
:103F5000088000E011E000BF94F8D40000F00100F8
:103F600030B994F8D40020F00200801C84F8D4000A
:103F70001C214E48FCF745F953E4A08940F2297111
:103F8000884265D1A089E08100BF0020C4F8E80024
:103F900000BF0A224AA104F10800FDF769F843496D
:103FA0008868FCF745F987B240483A46816804F1D1
:103FB0000800FDF75DF80222AFF6040104F10800E5
:103FC000FDF756F8002240F24471204605F0A8FBA8
:103FD00000BF40F60500288000BF94F8E80000F01C
:103FE000010030B994F8E800C0F3400008B900209F
:103FF00048E400BF2D48816902A8FEF737FA00BFE8
:104000000020C4F8E80000BF0F2230A104F108002E
:10401000FDF72EF825494868FCF70AF987B22348CE
:104020003A46416804F10800FDF722F80322AFF692
:10403000440104F10800FDF71BF81C490868FCF76F
:10404000F7F887B219483A46016804F1080045E0DC
:10405000D0E0000041542B43494943520000000086
:1040600041542B43494653520000000041542B4811
:104070005454505445524D0041542B5341504252D8
:104080003D312C31000000005C0000205E0000206B
:104090006000002062000020640000206600002014
:1040A000680000206A0000206C000020C805002085
:1040B00041542B53415042523D302C3100000000FE
:1040C00041542B43495053534C3D000041542B4322
:1040D000495053544152543D302C2200FCF7C8FF44
:1040E0000222FEA104F10800FCF7C2FF02A8FCF7BF
:1040F0009FF887B23A4602A904F10800FCF7B8FF1E
:104100000222AFF64C1104F10800FCF7B1FF0022C7
:1041100040F22971204605F003FB00BF40F6140071
:10412000288000BF94F8E80000F0010030B994F84E
:10413000E800C0F3400008B9002004E400BF94F890
:10414000E80000F0010080F001002076207E38BBFE
:1041500000BF40F61A00288000BF94F8E800C0F3C2
:10416000001058B994F8E800C0F3401030B994F842
:10417000E800C0F3801008B900200EE400BF94F8F6
:10418000E800C0F3001020B100203070D448C068AF
:10419000606794F8E800C0F3401008B10120207671
:1041A000E089A08100BF0020A08100BFCD49088028
:1041B000CD490880CD490880CD490880CD49088087
:1041C000CD490880CD490880CD490880CD49088077
:1041D00000BF94F8D40000F0010030B994F8D40086
:1041E00020F00200801C84F8D4001C21BC48FCF79D
:1041F00008F82BE6A08940F22B71884266D1A0898D
:10420000E081B748816902A8FEF730F900BF0020BD
:10421000C4F8E80000BF0D22BBA104F10800FCF7C0
:1042200027FF0222AFF6702104F10800FCF720FFFF
:10423000002240F22B71204605F072FA00BF40F6D2
:104240003400288000BF94F8E800C0F3400028B98B
:1042500094F8E800C00908B9002008E400BF616FC5
:1042600001F11600897D21F00101017094F8E80048
:10427000012181EAD0102076E089A08100BF0020D2
:10428000A08100BF97490880974908809749088016
:10429000974908809749088097490880974908807E
:1042A000974908809749088000BF94F8D40000F02F
:1042B000010030B994F8D40020F00200801C84F88A
:1042C000D4001C218648FBF79CFFBFE5A08940F283
:1042D0002A7188427ED1A089E0818148006918B1A5
:1042E00000207F490969086003208B49087000BFDE
:1042F0007B48806940F2B451884201D9084601E008
:1043000077488069854908600846016802A8FEF779
:10431000ADF800BF0020C4F8E80000BF0D2280A166
:1043200004F10800FCF7A4FE02A8FBF781FF87B2A6
:104330003A4602A904F10800FCF79AFE0222AFF601
:10434000883104F10800FCF793FE002240F22A7144
:10435000204605F0E5F900BF40F64E00288000BF7A
:1043600094F8E800C0F3C00030B994F8E800C0F356
:10437000400008B9002024E400BF94F8E800C0F32E
:10438000C00040B300BF0020C4F8E80000BF63488D
:10439000008882B25248016804F10800FCF768FE08
:1043A000012201A904F10800FCF762FE00BF40F6FB
:1043B0005600288000BFE920005D00F0010070B9C0
:1043C000E920005DC0F3400048B994F8E800C0F36C
:1043D000400001E06EE01BE008B900205EE400BF91
:1043E000E920005D00F0010008B1002000E0052098
:1043F0002076207E98B93A48006980B13848006933
:10440000006846490968084435490969086006E0BA
:1044100094F8E800C0F3400008B101202076207E27
:1044200088B903203C4908702D4880693B490968D8
:10443000401A2B49886108460068384909680844D1
:104440002749086004E034480078401E324908706B
:104450002348806920B13048007800287FF448AFB5
:10446000E089A08100BF0020A08100BF1D49088015
:104470001D4908801D4908801D4908801D49088084
:104480001D4908801D4908801D4908801D49088074
:1044900000BF94F8D40000F0010030B994F8D400C3
:1044A00020F00200801C84F8D4001C210C48FBF78B
:1044B000A8FECBE4A08940F22C7188427ED1A0896D
:1044C000E08120681A49086000BF40F67400288027
:1044D00000BF206816490968401A2BE0222C000012
:1044E000C80500205C0000205E0000206000002065
:1044F00062000020640000206600002068000020A8
:104500006A0000206C00002041542B434950434C6A
:104510004F53453D30000000800000207C0000200B
:1045200041542B43495053454E443D302C0000002C
:1045300078000020B18A884201D200201FE400BF29
:10454000308940F2B451884201DD0846308100BF15
:104550000020C4F8E80000BF0E22FEA104F108000C
:10456000FCF786FD317802A8FDF780FF02A8FBF773
:104570005FFE87B23A4602A904F10800FCF778FD15
:104580000122AFF2580104F10800FCF771FD3189F6
:1045900002A8FDF76BFF02A8FBF74AFE87B23A4676
:1045A00002A904F10800FCF763FD0222AFF6F851FE
:1045B00004F10800FCF75CFD002200E054E040F24A
:1045C0002C71204605F0ACF800BF40F6840028802E
:1045D00000BF94F8E80000F0010030B994F8E8005A
:1045E000C0F3400008B9002060E400BF94F8E80080
:1045F00000F0010080F001002076207E50B9718922
:10460000F0680844F060D748006918B17089D5494E
:1046100009690860E089A08100BF0020A08100BF77
:10462000D1490880D1490880D1490880D149088002
:10463000D1490880D1490880D1490880D1490880F2
:10464000D149088000BF94F8D40000F0010030B9CF
:1046500094F8D40020F00200801C84F8D4001C21BF
:10466000C048FBF7CEFD87E4A08940F20471884280
:104670007ED1A089E08100BF0020C4F8E80000BF1F
:104680000B22C2A104F10800FCF7F2FC0222AFF6F3
:10469000D86104F10800FCF7EBFC002240F22D7118
:1046A000204605F03DF800BF40F69A00288000BF84
:1046B00094F8E80000F0010030B994F8E800C0F385
:1046C000400008B900201CE400BF94F8E80000F0A6
:1046D000010080F001002076207E012800D131E029
:1046E00000BF0020C4F8E80000BF1322AAA104F113
:1046F0000800FCF7BDFC0222AFF6447104F108008B
:10470000FCF7B6FC002240F22D71204605F008F8B7
:1047100000BF40F6A800288000BF94F8E80000F031
:10472000010030B994F8E800C0F3400008B9002057
:104730005EE400BF94F8E80000F0010080F00100A2
:10474000207600BFE089A08100BF0020A08100BFCB
:104750008549088085490880854908808549088001
:10476000854908808549088085490880854900E099
:1047700014E008808449088000BF94F8D40000F059
:10478000010030B994F8D40020F00200801C84F8B5
:10479000D4001C217348FBF734FD2AE5A08940F2C0
:1047A000077188426FD1A089E08100BF0020C4F862
:1047B000E80000BF0C227DA104F10800FCF758FCC2
:1047C0009C20015902A8FDF751FE02A8FBF730FD1D
:1047D00087B23A4602A904F10800FCF749FC062218
:1047E00076A104F10800FCF743FC022275A104F154
:1047F0000800FCF73DFC002240F22F71204604F037
:104800008FFF00BF40F6BC00288000BFE920005D9C
:10481000C0F3401058B994F8E80000F0010030B936
:1048200094F8E800C0F3400008B9002085E400BF18
:1048300094F8E800C0F3400070B9E920005DC0F3CF
:10484000401048B19C20005982B29820015904F1CF
:104850000800FCF70DFC00E023E000BF0020C4F8D6
:10486000E80000BF00BF40F6C700288000BF94F8F2
:10487000E80000F0010038B994F8E800C0F3400007
:1048800010B9002059E436E000BF94F8E80000F0C9
:10489000010080F001002076207E012800D100E098
:1048A00000BFE089A08100BF0020A08100BF2E4989
:1048B00008802E4908802E4908802E4908802E49FC
:1048C00008802E4908802E4908802E4908802E49EC
:1048D000088000BF94F8D40000F0010030B994F8CB
:1048E000D40020F00200801C84F8D4001C211D4854
:1048F000FBF787FC7DE4A08940F2067188426FD106
:10490000A089E08100BF0020C4F8E80000BF1322A6
:104910002DA104F10800FCF7ABFB90210859FBF72F
:1049200087FC87B2902001593A4604F10800FCF751
:104930009FFB012229A104F10800FCF799FB022248
:1049400020A104F10800FCF793FB002240F22E7135
:10495000204646E041542B43495052584745543D68
:10496000322C0000C80500205C0000205E00002002
:10497000600000206200002064000020660000202B
:10498000680000206A0000206C00002041542B4881
:10499000545450494E49540041542B48545450509B
:1049A0004152413D22434944222C310041542B487D
:1049B000545450444154413D000000002C313030EB
:1049C000303000000D0A000041542B485454505020
:1049D0004152413D2255524C222C2200220000001F
:1049E000CCE004F09DFE00BF40F6DD00288000BF53
:1049F00094F8E80000F0010030B994F8E800C0F342
:104A0000400008B9002028E400BF94F8E80000F056
:104A1000010080F001002076207E012800D183E093
:104A200000BF0020C4F8E80000BF0B22FDA104F184
:104A30000800FCF71DFBFE490868FBF7F9FB87B28D
:104A4000FB483A46016804F10800FCF711FB02221A
:104A5000AFF2900104F10800FCF70AFB002240F2DB
:104A60004271204604F05CFE00BF40F6EC00288056
:104A700000BF94F8E80000F0010030B994F8E800B5
:104A8000C0F3400008B9002075E400BF00BF00205B
:104A9000C4F8E80000BF0E22E6A104F10800FCF70C
:104AA000E7FA94F88C003030C0B2009001226946D9
:104AB00004F10800FCF7DCFA0222AFF2F80104F17D
:104AC0000800FCF7D5FA00224FF4E661204604F016
:104AD00027FE00BF40F6F900288000BF94F8E800E8
:104AE00000F0010030B994F8E800C0F3400008B9C4
:104AF000002040E400BF94F8E80000F0010080F0DE
:104B000001002076207E012800D10DE000BF40F694
:104B10000110288000BFE920005DC0F3001008B933
:104B2000002028E400BF00BFE089A08100BF002072
:104B3000A08100BFC3490880C3490880C3490880D9
:104B4000C3490880C3490880C3490880C349088015
:104B5000C3490880C349088000BF94F8D40000F01E
:104B6000010030B994F8D40020F00200801C84F8D1
:104B7000D4001C21AE48FBF744FB9AE4A08940F224
:104B8000317188427ED1A089E08100BF0020C4F845
:104B9000E80000BF0C22B4A104F10800FCF768FA99
:104BA000A420015902A8FDF761FC02A8FBF740FB15
:104BB00087B23A4602A904F10800FCF759FA01222B
:104BC000AFF2986104F10800FCF752FAA820015BEB
:104BD00002A8FDF74BFC02A8FBF72AFB87B23A4676
:104BE00002A904F10800FCF743FA0222AFF22C21DB
:104BF00004F10800FCF73CFA002240F23171204633
:104C000004F08EFD00BF40F61310288000BF94F81A
:104C1000E80000F0010030B994F8E800C0F340006B
:104C200008B900208AE400BF94F8E80000F0010011
:104C300080F001002076207E70B9A4200159AC20BC
:104C400000590144A42001517948C06820B1AC202A
:104C500000597749C9680860E089A08100BF002039
:104C6000A08100BF7749088077490880774908808C
:104C70007749088077490880774908807749088014
:104C8000774900E014E008807649088000BF94F876
:104C9000D40000F0010030B994F8D40020F00200F4
:104CA000801C84F8D4001C216148FBF7AAFADAE4DE
:104CB000A089B0F5E16F70D1A089E08100BF00202C
:104CC000C4F8E80000BF17226BA104F10800FCF74C
:104CD000CFF990210859FBF7ABFA87B29020015920
:104CE0003A4604F10800FCF7C3F90122AFF214318F
:104CF00004F10800FCF7BCF90222AFF2383104F1EC
:104D00000800FCF7B5F9002240F22E71204604F0AD
:104D100007FD00BF40F62A10288000BF94F8E80085
:104D200000F0010030B994F8E800C0F3400008B981
:104D3000002059E400BF94F8E80000F0010080F082
:104D400001002076E089A08100BF0020A08100BF83
:104D50003C4908803C4908803C4908803C4908801F
:104D60003C4908803C4908803C4908803C4908800F
:104D70003C49088000BF94F8D40000F0010030B92D
:104D800094F8D40020F00200801C84F8D4001C2188
:104D90002748FBF736FA66E4FFE7A08940F2327154
:104DA000884275D100BF0020C4F8E80000BF0B2284
:104DB000AFF6485104F10800FCF75AF90222AFF2AD
:104DC000FC3104F10800FCF753F9002240F2327183
:104DD000204604F0A5FC00BF40F63710288000BF35
:104DE00094F8E80000F0010030B994F8E800C0F34E
:104DF000400008B9002066E400BF94F8E80000F025
:104E0000010080F00100207600BF0020A08100BFDB
:104E10000C4908800C4908800C4908800C4908801E
:104E20000C4936E041542B4854545053534C3D00E8
:104E3000C805002041542B48545450414354494F15
:104E40004E3D00005C0000205E000020600000205D
:104E5000620000206400002066000020680000203E
:104E60006A0000206C00002041542B4854545052DA
:104E70004541443D0000000041542B4854545050DB
:104E80004152413D22434F4E54454E54222C220064
:104E90001AE00880F7490880F7490880F749088038
:104EA000F749088000BF94F8D40000F0010030B941
:104EB00094F8D40020F00200801C84F8D4001C2157
:104EC000F048FBF79EF968E4A08940F20971884236
:104ED00077D1A089E08100BF0020C4F8E80000BFBE
:104EE0000B22E9A104F10800FCF7C2F80222AFF29C
:104EF0002C5104F10800FCF7BBF8002240F2347199
:104F0000204604F00DFC00BF40F64810288000BF8A
:104F100094F8E80000F0010030B994F8E800C0F31C
:104F2000400008B9002081E400BF94F8E80000F0D8
:104F3000010080F001002076207E012800D178E079
:104F400000BF0020C4F8E80000BF0B22D1A104F18B
:104F50000800FCF78DF8CB490868FBF769F987B2C0
:104F6000C8483A46016804F10800FCF781F80222BB
:104F7000AFF2B05104F10800FCF77AF8002240F2D9
:104F80004171204604F0CCFB00BF40F6571028804A
:104F900000BF94F8E80000F0010030B994F8E80090
:104FA000C0F3400008B9002040E400BF94F8E800D6
:104FB00000F0010080F001002076207E012801D160
:104FC00037E060E000BF0020C4F8E80000BF0A221C
:104FD000B3A104F10800FCF74BF8AA494868FBF7B5
:104FE00027F987B2A7483A46416804F10800FCF760
:104FF0003FF80222AFF2346104F10800FCF738F800
:10500000002240F24371204604F08AFB00BF40F6C4
:105010006610288000BF94F8E80000F0010030B965
:1050200094F8E800C0F3400008B900202AE400BF6B
:1050300000BFE089A08100BF0020A08100BF9B4984
:1050400008809B4908809B4908809B4908809B49B0
:1050500008808849088088490880884908808849EC
:10506000088000BF94F8D40000F0010030B994F833
:10507000D40020F00200801C84F8D4001C21814858
:10508000FBF7BFF836E4A08940F20A7188425CD190
:10509000A089E08100BF0020C4F8E80000BF0A2218
:1050A00087A104F10800FBF7E3FF0222AFF2EC61F5
:1050B00004F10800FBF7DCFF00224FF4E861204612
:1050C00004F02EFB00BF40F67410288000BF94F857
:1050D000E80000F0010030B994F8E800C0F34000A7
:1050E00008B900208FE400BF94F8E80000F0010048
:1050F00080F001002076E089A08100BF0020A0811F
:1051000000BF6A4908806A4908806A4908806A497C
:1051100008806A49088057490880574908805749DC
:1051200008805749088000BF94F8D40000F00100BF
:1051300030B994F8D40020F00200801C84F8D40028
:105140001C215048FBF75DF817E5A08940F20B7170
:1051500088427DD1A089E08100BF0020C4F8E8002A
:1051600000BF0C2259A104F10800FBF781FF45495B
:105170000868FBF75DF887B242483A46016804F1D7
:105180000800FBF775FF0122AFF2B07104F10800CF
:10519000FBF76EFF0222AFF2D47104F10800FBF7B7
:1051A00067FF002240F23571204604F0B9FA00BFD3
:1051B00040F68510288000BF94F8E80000F0010058
:1051C00030B994F8E800C0F3400008B900201AE4B0
:1051D00000BF94F8E80000F0010080F001002076A4
:1051E000207E012800D10CE12648816902A8FDF744
:1051F0003DF900BF0020C4F8E80000BF0B2237A132
:1052000004F10800FBF734FF02A8FBF711F887B29E
:105210003A4602A904F10800FBF72AFF0222AFF682
:105220005C0104F10800FBF723FF002240F2367115
:10523000204604F075FA00BF40F69410288000BFA5
:1052400094F8E80000F0010040B994F8E80000E0AC
:1052500001E1C0F3400008B9002015E400BF94F854
:10526000E80000F0010080F001002076207E012897
:105270003AD1C6E066000020680000206A000020E5
:105280006C000020C805002041542B46545043496F
:10529000443D310041542B4654504D4F44453D0050
:1052A00041542B46545053534C3D00005C000020A9
:1052B0005E000020600000206200002064000020EA
:1052C00041542B46545051554954000041542B46EB
:1052D0005450534552563D220000000041542B4685
:1052E0005450504F52543D0000BF0020C4F8E80015
:1052F00000BF0A22FDA104F10800FBF7B9FEFE4938
:105300004868FAF795FF87B2FB483A46416804F1CE
:105310000800FBF7ADFE0122AFF6401104F10800D2
:10532000FBF7A6FE0222AFF6641104F10800FBF7BA
:105330009FFE002240F23771204604F0F1F900BFD1
:1053400040F6A310288000BF94F8E80000F00100A8
:1053500030B994F8E800C0F3400008B9002061E4D7
:1053600000BF94F8E80000F0010080F00100207612
:10537000207E012800D144E000BF0020C4F8E800EE
:1053800000BF0A22DDA104F10800FBF771FEDA4933
:105390008868FAF74DFF87B2D7483A46816804F12A
:1053A0000800FBF765FE0122AFF6D01104F10800FA
:1053B000FBF75EFE0222AFF6F41104F10800FBF7E2
:1053C00057FE00224FF4E761204604F0A9F900BF20
:1053D00040F6B210288000BF94F8E80000F0010009
:1053E00030B994F8E800C0F3400008B9002019E48F
:1053F00000BF94F8E80000F0010080F00100207682
:1054000000BFE089A08100BF0020A08100BFBE498D
:105410000880BE490880BE490880BE490880BE4950
:105420000880BE490880BE490880BE490880BE4940
:10543000088000BF94F8D40000F0010030B994F85F
:10544000D40020F00200801C84F8D4001C21AA485B
:10545000FAF7D7FE2BE4A08940F20D7188427CD187
:10546000A089E08100BF0020C4F8E80000BF0F223F
:10547000AEA104F10800FBF7FBFD9F490868FAF7AD
:10548000D7FE87B29C483A46016804F10800FBF752
:10549000EFFD0122AFF6BC2104F10800FBF7E8FDA7
:1054A0000222AFF6E02104F10800FBF7E1FD002243
:1054B00040F23C71204604F033F900BF40F6C510BD
:1054C000288000BF94F8E80000F0010030B994F89B
:1054D000E800C0F3400008B900202AE400BF94F8B7
:1054E000E80000F0010080F001002076207E012815
:1054F00000D1AFE000BF0020C4F8E80000BF0F22D9
:105500008EA104F10800FBF7B3FD7B494868FAF768
:105510008FFE87B278483A46416804F10800FBF7ED
:10552000A7FD0122AFF64C3104F10800FBF7A0FD06
:105530000222AFF6703104F10800FBF799FD00225A
:1055400040F23D71204604F0EBF800BF40F6D51064
:10555000288000BF94F8E80000E0A5E000F001001A
:1055600030B994F8E800C0F3400008B9002042E4E4
:1055700000BF94F8E80000F0010080F00100207600
:10558000207E012800D165E000BF0020C4F8E800BB
:1055900000BF0B226DA104F10800FBF769FD022298
:1055A000AFF6E03104F10800FBF762FD002240F2A3
:1055B0003E71204604F0B4F800BF40F6E3102880A6
:1055C00000BF94F8E80000F0010030B994F8E8005A
:1055D000C0F3400008B900200DE400BF94F8E800D3
:1055E00000F0010080F001002076207E012800D12B
:1055F00030E000BF40F6EC10288000BFE920005DDD
:10560000C0F3801030B994F8E800C0F3400008B946
:10561000002088E400BF01202076E920005DC0F36F
:105620008010B0B194F8B400012812D1B520005D0B
:1056300001280ED1D020005D20F00100401CD021B7
:105640000855D020005D20F00200801C0855002085
:10565000207600BFE089A08100BF0020A08100BFAC
:105660002949088029490880294908802949088052
:105670002949088029490880294908802949088042
:105680002949088000BF94F8D40000F0010030B927
:1056900094F8D40020F00200801C84F8D4001C216F
:1056A0001548FAF7AEFD8DE2A08940F20C718842F0
:1056B00078D1A089E08100BF0020C4F8E80000BFD5
:1056C000BC20015902A8FCF7D1FE0C2222A104F152
:1056D0000800FBF7CDFC02A8FAF7AAFD87B23A460C
:1056E00002A904F10800FBF7C3FC3DE041542B463E
:1056F0005450554E3D220000C805002041542B4611
:10570000545050573D2200005C0000205E000020F5
:10571000600000206200002064000020660000207D
:10572000680000206A0000206C00002041542B46D5
:105730005450474554504154483D220041542B4653
:1057400054504745544E414D453D220041542B464F
:1057500054504745543D310041542B465450474521
:10576000543D322C000000000222AFF6A85104F193
:105770000800FBF77DFC002240F23E71204603F05A
:10578000CFFF00BF40F60820288000BF94F8E80053
:1057900000F0010038B994F8E800C0F3400010B9F7
:1057A000002043E451E000BF94F8E80000F001005D
:1057B00080F001002076207EE8B9C0200159BC208D
:1057C0000059814202D1C020005928B9D020005D83
:1057D00020F00101D0200155C8200159C0200059F6
:1057E0000144C8200151F848C06820B1C0200059C8
:1057F000F549C9680860E089A08100BF0020A08148
:1058000000BFF2490880F2490880F2490880F24955
:105810000880F2490880F2490880F2490880F2497C
:105820000880F249088000BF94F8D40000F001001D
:1058300030B994F8D40020F00200801C84F8D40021
:105840001C21E148FAF7DDFCBBE3A08940F20E71B0
:1058500088425CD1A089E08100BF0020C4F8E80044
:1058600000BF0D22E2A104F10800FBF701FC0222B7
:10587000AFF6B06104F10800FBF7FAFB002240F23A
:105880003E71204603F04CFF00BF4FF42260288099
:1058900000BF94F8E80000F0010030B994F8E80087
:1058A000C0F3400008B900201CE400BF94F8E800F1
:1058B00000F0010080F001002076E089A08100BFA7
:1058C0000020A08100BFC1490880C1490880C149AA
:1058D0000880C1490880C1490880C1490880C14980
:1058E0000880C1490880C149088000BF94F8D400ED
:1058F00000F0010030B994F8D40020F00200801CC0
:1059000084F8D4001C21B048FAF77BFC59E3A08945
:10591000B0F5E26F7DD1A089E08100BF0020C4F81E
:10592000E80000BF0E22B6A104F10800FBF7A0FBBF
:10593000A5498868FAF77CFC87B2A3483A46816893
:1059400004F10800FBF794FB0122AFF6707104F13B
:105950000800FBF78DFB0222AFF6987104F10800F6
:10596000FBF786FB002240F23F71204603F0D8FE91
:1059700000BF40F63220288000BF94F8E80000F015
:10598000010030B994F8E800C0F3400008B90020E5
:105990001DE400BF94F8E80000F0010080F0010071
:1059A0002076207E012800D1E3E000BF0020C4F86B
:1059B000E80000BF0F2296A104F10800FBF758FB96
:1059C00081490868FAF734FC87B27F483A46016893
:1059D00004F10800FBF74CFB012291A104F108003F
:1059E000FBF746FB02228FA104F10800FBF740FB06
:1059F000002240F23A71204603F092FE00BF40F6CA
:105A00004320288000BF94F8E80000F0010040B96E
:105A100000E017E194F8E800C0F3400008B9002066
:105A20001BE400BF94F8E80000F0010080F00100E2
:105A30002076207E012800D19BE000BF0020C4F822
:105A4000E80000BF0F2278A104F10800FBF710FB6B
:105A50005D494868FAF7ECFB87B25B483A46416813
:105A600004F10800FBF704FB01226DA104F108001A
:105A7000FBF7FEFA02226BA104F10800FBF7F8FA2B
:105A8000002240F23971204603F04AFE00BF40F682
:105A90005320288000BF94F8E80000F0010030B9DE
:105AA00094F8E800C0F3400008B9002057E400BFB4
:105AB00094F8E80000F0010080F001002076207EDC
:105AC000012800D155E000BF0020C4F8E80000BF65
:105AD0000B2259A104F10800FBF7CAFA022251A1D6
