:020000040800F2
:10000000B0E6002069020008B9230008B123000807
:10001000B5230008CB0500080D9200080000000081
:10002000000000000000000000000000AD0100081A
:10003000D106000800000000010200080587000842
:10004000830200088302000883020008830200087C
:10005000830200088302000883020008830200086C
:10006000830200088302000883020008D10500080B
:10007000E1050008F1050008010600081106000866
:100080002106000831060008830200080000000075
:1000900000000000000000000000000083020008D3
:1000A000830200088302000883020008830200081C
:1000B000830200088302000883020008830200080C
:1000C00083020008830200088302000883020008FC
:1000D0008302000891910008B5910008000000001B
:1000E0008302000883020008830200080000000069
:1000F00000000000000000000000000041060008B1
:100100000000000083020008830200088302000848
:1001100000000000000000000000000000000000DF
:1001200051060008610600087106000881060008F3
:100130009106000800000000000000000000000020
:100140000000000000000000000000008302000822
:10015000A1060008B1060008C1060008E1910008E8
:100160008302000883020008000000000000000075
:10017000000000000000000000000000000000007F
:1001800000000000830200080000000000000000E2
:100190008302000883020008DFF80CD000F00CF99D
:1001A0000048004789940008B0E600202B4B1968EE
:1001B0000868B0E8F04F80F30988BFF36F8F4FF005
:1001C000000080F3118870470000000006480068B6
:1001D000006880F3088862B661B6BFF34F8FBFF343
:1001E0006F8F00DF00BF00BF08ED00E0DFF80C00FC
:1001F000016841F470010160704700BF88ED00E0C4
:10020000EFF30980BFF36F8F144B1A681EF0100FC5
:1002100008BF20ED108A20E9F04F106008B44FF0BD
:10022000500080F31188BFF34F8FBFF36F8F09F039
:1002300099FE4FF0000080F3118808BC1968086827
:10024000B0E8F04F1EF0100F08BFB0EC108A80F33A
:100250000988BFF36F8F704700BF00BFDC0000202C
:10026000EFF30580704700000648804706480047C6
:10027000FEE7FEE7FEE7FEE7FEE7FEE7FEE7FEE756
:10028000FEE7FEE70D8700089901000840EA010338
:100290009B0703D009E008C9121F08C0042AFAD23C
:1002A00003E011F8013B00F8013B521EF9D2704700
:1002B000D2B201E000F8012B491EFBD270470022A8
:1002C000F6E710B513460A4604461946FFF7F0FF55
:1002D000204610BD10B5044604E00B7800F8013B41
:1002E00003B1491C521EF8D2204610BD421C10F822
:1002F000011B0029FBD1801A704710B5002200E0D5
:10030000521C835C8C5CA34201D1002BF8D1D8B283
:10031000E1B2401A10BD034611F8012B00F8012B81
:10032000002AF9D11846704730B50546002003462B
:1003300000E05B1C934205D2EC5CC85C201A01D142
:10034000002CF6D130BD000070B500B91068002552
:1003500012E00B4602E0A64203D05B1C1C78002C86
:10036000F9D1E3B22B4305D02CB125B1002100F81F
:10037000011B04E00546401C0678002EE9D1106000
:10038000284670BD004ADFE73801002030B50B4633
:10039000014600202022012409E021FA02F59D42B5
:1003A00005D303FA02F5491B04FA02F52844151E89
:1003B000A2F10102F1DC30BD064C074D06E0E06819
:1003C00040F0010394E8070098471034AC42F6D39C
:1003D000FFF7E6FE34A9000854A9000870B58C1890
:1003E00010F8015B15F0070301D110F8013B2A1149
:1003F00006D110F8012B03E010F8016B01F8016B36
:100400005B1EF9D12B0705D40023521E0DD401F831
:10041000013BFAE710F8013BCB1A921C03E013F8FA
:10042000015B01F8015B521EF9D5A142D8D300202F
:1004300070BD30B50146002409B9002030BD4A68BE
:100440008B689A4200D10C68934200D99C1A9A4258
:1004500002D9D51A0868441B601EEFE730B5034681
:100460000BB9002030BD59689A68914200D1002430
:10047000914200D98C1A8A4202D9551A1868441B35
:100480002046EFE770B504460D4616460CB901202C
:1004900070BD18212046FFF712FF2560E6600A2094
:1004A0006074E06868B9284609F046F8E060E068E2
:1004B00018B9002020600120EAE7207C40F002000B
:1004C0002074207C40F0010020740020E0E72DE93A
:1004D000F0470446884615464FF0000904B115B9A7
:1004E0000020BDE8F0872168A068884201D3002081
:1004F000A0602046FFF7B2FF0746AF4203D20FB914
:100500000020EEE73D46A1682068461AAE4200D9B9
:100510002E46D4E90220811832464046FFF7B6FE47
:10052000B144A0683044A060AD1B35B108EB0900B0
:100530002A46E168FFF7AAFEA5602168A068884204
:1005400001D30020A06009EB0500CAE72DE9F047C0
:100550000446894615464FF0000804B115B900203D
:10056000BDE8F087D4E90010884201D30020606024
:100570002046FFF75EFF0746AF4203D20FB90020C7
:10058000EEE73D46D4E90001461AAE4200D92E46B8
:100590006268E168881832464946FFF777FEB04442
:1005A000606830446060AD1B35B109EB08012A4634
:1005B000E068FFF76BFE6560D4E90010884201D364
:1005C0000020606008EB0500CAE700BFFEE70000FE
:1005D00010B5024808F0B7F910BD000010600240E5
:1005E00010B5024808F0AFF910BD000028600240C5
:1005F00010B5024808F0A7F910BD000040600240A5
:1006000010B5024808F09FF910BD00005860024084
:1006100010B5024808F097F910BD00007060024064
:1006200010B5024808F08FF910BD00008860024044
:1006300010B5024808F087F910BD0000A060024024
:1006400010B5024808F07FF910BD0000B860024004
:1006500010B5024808F077F910BD000010640240A0
:1006600010B5024808F06FF910BD00002864024080
:1006700010B5024808F067F910BD00004064024060
:1006800010B5024808F05FF910BD00005864024040
:1006900010B5024808F057F910BD00007064024020
:1006A00010B5024808F04FF910BD00008864024000
:1006B00010B5024808F047F910BD0000A0640240E0
:1006C00010B5024808F03FF910BD0000B8640240C0
:1006D0007047000070B504460D46164600BF1DB9B0
:1006E00000BF0320207170BD00BF00BFA08920B9EA
:1006F00094F8D800C0F3400018B100BF0220207168
:10070000F1E700BF00BF04F1D40000F031FF08B1F1
:100710000420E8E7A08908B92068606140F22B70E6
:10072000A08100BF1248C56000BF4FF47A70E0613D
:100730004EB994F8D80020F0010084F8D80000BF2A
:1007400000202071CFE794F8D80020F00100401C71
:1007500084F8D8004FF47A71204601F0B1F80346CE
:10076000042B00D1BFE7237E002020761846BAE78D
:10077000A8090020034609B900207047488A18B923
:10078000887DC0F3400008B10120F6E70020F4E7BF
:100790002DE9F04704460D4616461F46DDE9099A45
:1007A000DDF8208000BF0DB106B127B900BF0320DE
:1007B0002071BDE8F08700BF00BFA08920B994F880
:1007C000D800C0F3400018B100BF02202071F0E74C
:1007D00000BF00BF04F1D40000F0CAFE08B104203D
:1007E000E7E7A08908B92068606140F22C70A08119
:1007F00000BF6E602F8100206881A5F81490184812
:10080000C560C0F81080B8F1000F02D00020C8F811
:10081000000000BF4FF47A70E061BAF1000F09D117
:1008200094F8D80020F0010084F8D80000BF002020
:100830002071BEE794F8D80020F00100401C84F835
:10084000D8004FF47A71204601F03AF80346042BA1
:1008500000D1AEE7237E002020761846A9E70000ED
:10086000A80900202DE9F04704460D4616461F460C
:10087000DDE9088900BF0DB106B127B900BF03202B
:100880002071BDE8F08700BF00BFA08920B994F8AF
:10089000D800C0F3400018B100BF02202071F0E77B
:1008A00000BF00BF04F1D40000F062FE08B10420D4
:1008B000E7E7A08908B92068606140F22A70A0814A
:1008C00000BF1948C560C0F8108006604761B8F1E4
:1008D000000F02D00020C8F8000000BF42F21070E4
:1008E000E061B9F1000F09D194F8D80020F00100BF
:1008F00084F8D80000BF00202071C2E794F8D80027
:1009000020F00100401C84F8D80042F2107120460B
:1009100000F0D6FF0346042B00D1B2E7237E00206F
:1009200020761846ADE70000A80900202DE9F04721
:1009300004460D4616461F46DDE9099ADDF820807B
:1009400000BF15B1B8F1000F04D100BF0320207122
:10095000BDE8F08700BF00BFA08920B994F8D80097
:10096000C0F3400018B100BF02202071F0E700BFC3
:1009700000BF04F1D40000F0FBFD08B10420E7E75C
:10098000A08908B92068606140F22970A08100BF89
:100990001D48C560C0F800800EB91CA000E01CA076
:1009A0001949486016B90FB11AA000E01AA01649FB
:1009B00088600846C0F814900020287000BF4FF4EB
:1009C0007A70E061BAF1000F09D194F8D80020F0F4
:1009D000010084F8D80000BF00202071B8E794F827
:1009E000D80020F00100401C84F8D8004FF47A7140
:1009F000204600F065FF0346042B00D1A8E7237EC4
:100A0000002020761846A3E7A80900205443500090
:100A100055445000310000003000000070B504461D
:100A20000D461CB903A008F0F3FB00E000BF00BFB7
:100A3000002070BD537461636B2069732049444C7E
:100A400045210D0A0000000002460020704700000A
:100A500070B504460D46034E2A4621463046FFF740
:100A600075FD70BD0C07002008B5024610680090A7
:100A700000BF1068009BC01A8842FAD300BF002054
:100A8000107108BD2DE9F04104460F4615461E467B
:100A9000DDF8188000BF27B900BF03202071BDE832
:100AA000F08100BF00BFA08920B994F8D800C0F33E
:100AB000400018B100BF02202071F0E700BF00BF66
:100AC00004F1D40000F054FD08B10420E7E7A08948
:100AD00008B92068606140F20270A08100BF1C4824
:100AE000076000201A49486088602DB12846FFF74A
:100AF000FDFB08B1164845602EB13046FFF7F6FB06
:100B000008B11348866000BF1248E061B8F1000FD9
:100B100009D194F8D80020F0010084F8D80000BF73
:100B200000202071BBE794F8D80020F00100401CA1
:100B300084F8D8000749204600F0C2FE0346042B83
:100B400000D1ACE7237E002020761846A7E70000FE
:100B5000A809002020BF020070B504460D4600BF62
:100B6000A08920B994F8D800C0F3400018B100BFA4
:100B70000220207170BD00BF00BF04F1D40000F05E
:100B8000F7FC08B10420F5E7A08908B92068606186
:100B900040F20370A08100BF00BF4FF47A70E061A3
:100BA0004DB994F8D80020F0010084F8D80000BFB7
:100BB00000202071DEE794F8D80020F00100401CEE
:100BC00084F8D8004FF47A71204600F079FE03468D
:100BD000042B00D1CEE7237E002020761846C9E7FB
:100BE0002DE9F04705460E46174698463224DFF8B1
:100BF0008C93E3480560F0210068FFF760FBE04854
:100C00000068C0F8DC80DE480068D0F8DC0020B95D
:100C1000DC48DB490968C1F8DC000020D8490968D4
:100C200081F86C000621D648006880F84410002046
:100C3000D34909680860D44A4FF400714846FFF769
:100C400021FCCF4800688760CD480068083000F07C
:100C5000AFF930B100BF0720C94909680871BDE884
:100C6000F0870121C6480068083000F0D1F90A2158
:100C7000C3480068FFF7F8FE0021C148006808304B
:100C800000F0C6F9BE480068D43000F053FC28B12B
:100C900000BF0620BA4909680871E0E700BF0020DC
:100CA000BA490880BA490880BA490880BA49088018
:100CB000BA490880BA490880BA490880BA49088008
:100CC00000BFAF48006890F8D80020F00100401C39
:100CD000AB49096881F8D8004FF47A70A8490968CF
:100CE000C86123E000BFA6480068D43000F040FC93
:100CF00008B10420B3E7A2480068808928B9A04859
:100D0000006800689E490968486105209C49096897
:100D1000888100BF4FF47A719948006800F0D0FDD7
:100D200097480068007E00B902E0641E002CD9D10B
:100D300000BF23E000BF92480068D43000F018FCE8
:100D400008B104208BE78E480068808928B98C4858
:100D5000006800688A490968486104208849096870
:100D6000888100BF4FF47A718548006800F0A8FDC3
:100D700083480068007E00B902E0641E002CD9D1CF
:100D800000BF23E000BF7E480068D43000F0F0FBD5
:100D900008B1042063E77A480068808928B9784858
:100DA000006800687649096848610220744909684A
:100DB000888100BF4FF47A717148006800F080FDAF
:100DC0006F480068007E00B902E0641E002CD9D193
:100DD00000BF23E000BF6A480068D43000F0C8FBC1
:100DE00008B104203BE766480068808928B9644858
:100DF0000068006862490968486103206049096821
:100E0000888100BF4FF47A715D48006800F058FD9A
:100E10005B480068007E00B902E0641E002CD9D156
:100E200000BF2BE06148066000BF55480068D43021
:100E300000F09EFB08B1042011E75148006880894A
:100E400028B94F48006800684D490968486140F278
:100E500001104B490968888100BF4FF47A714848F6
:100E6000006800F02DFD46480068007E00B907E0EC
:100E7000642143480068FFF7F7FD641E002CD1D1C0
:100E800000BF28E000BF3E480068D43000F070FB8F
:100E900008B10420E3E63A480068808928B9384858
:100EA00000680068364909684861072034490968C4
:100EB000888100BF4FF47A713148006800F000FD6E
:100EC0002F480068007E00B907E064212C480068C4
:100ED000FFF7CAFD641E002CD4D100BF284800686B
:100EE00090F8D80020F001002549096881F8D80061
:100EF00000BF23480068D43000F02CFB00202049BC
:100F00000968888100BF214908802149088021495A
:100F10000880214908802149088021490880214909
:100F200008802149088000BF1548006890F8D80063
:100F300000F0010050B91248006890F8D80020F085
:100F40000200801C0E49096881F8D8001821174852
:100F5000FFF7B5F900BF0A48006890F8D80020F004
:100F600002000749096881F8D80000BF04480068FA
:100F7000007E287102480068007E70E60C070020A1
:100F8000B4000020490A000824070020B80000200F
:100F9000BA000020BC000020BE000020C0000020DD
:100FA000C2000020C4000020C6000020A8090020C4
:100FB0001CB5044600210D48226807F087FF002079
:100FC000012103460A46CDE900100221084807F036
:100FD00069FD0020012103460A46CDE900100821E1
:100FE000034807F05FFD00201CBD00000010014019
:100FF0000000024070B506460C4615462A462146BA
:10100000024807F09CFF002070BD00000010014066
:101010000246012903D14804034B986102E00220F3
:10102000014B986100207047000002401FB500246A
:10103000584B4FF4E13258A15948FFF7D1FD05460E
:10104000294658A008F0E4F8A2E0554800F090F9CD
:1010500007F0FCFB0028F7D0012050A34FA257A1B6
:1010600000904F48FFF70EFD57490870002870D1D7
:1010700056A008F0CDF80120502158A20023CDE958
:10108000002102901A4658494548FFF74FFC4E4947
:10109000087000285AD155A008F0BAF80120594923
:1010A0005223594ACDE900104F493D48FFF7DAFB7A
:1010B00045490870002843D13948006803905148D9
:1010C000016852A008F0A4F800BF01224649344844
:1010D000FFF750FBD8B101200A21584A4FF47A7328
:1010E000CDE900210290564A3F492D48FFF750FBB9
:1010F00040B95248016853A008F08AF828480068AF
:10110000039004E03048017855A008F081F82448A5
:1011100000680399401AB0F5FA6FD6D3012232491C
:101120001F48FFF7D7FA2849087018B955A008F0EA
:101130006FF804E02448017858A008F069F80CE042
:10114000214801785FA008F063F806E01E480178A6
:1011500000E013E065A008F05BF801211048FFF7FC
:10116000FBFC1949087018B96BA008F051F80AE0A7
:10117000154801786CA008F04BF804E0124801789B
:1011800073A008F045F80CB9012000E000200446E7
:101190005BE700001D0A000834353931000000000B
:1011A0001C02002047534D20496E697420737461FE
:1011B0007475733A2025640D0A000000696E746529
:1011C000726E6574000000004800002047505253C2
:1011D0002041747461636865640D0A006578616D0F
:1011E000706C652E636F6D000C030020436F6E6E94
:1011F000656374656420746F20736572766572210F
:101200000D0A0000A4000020500000204461746119
:101210002073656E7420746F207365727665722119
:10122000204E756D626572206F66206279746573F9
:101230002073656E743A2025640D0A004C0000206E
:101240002403002052656365697665642025642067
:101250006279746573206F6620646174610D0A00A1
:101260004572726F7220747279696E6720746F2094
:101270007265636569766520646174613A202564EE
:101280000D0A0000436F6E6E656374696F6E2063B4
:101290006C6F736564210D0A000000004572726F67
:1012A0007220747279696E6720746F20636C6F733B
:1012B0006520636F6E6E656374696F6E3A20256496
:1012C0000D0A00004572726F7220747279696E6740
:1012D00020746F20636F6E6E65637420746F20736B
:1012E00065727665723A2025640D0A00436F756C4D
:1012F00064206E6F7420657865637574652072650F
:10130000717565737420746F207365727665723AB7
:101310002025640D0A000000475052532044657494
:1013200061636865640D0A0050726F626C656D736D
:1013300020747279696E6720746F206465746163CC
:101340006820475052533A2025640D0A00000000DF
:10135000436F756C64206E6F742061747461636890
:1013600020746F20475052533A2025640D0A000024
:1013700070B50446A08978B994F8D800C0F340004D
:1013800050B114F8D80F20F0020020706268D83CE9
:1013900004F1E00100209047A089C8B994F8D80072
:1013A000C0F34000A0B9D920005DC0F3800078B13F
:1013B000D920005D20F00401D920015504F142003C
:1013C000C4F8E000D4F8DC2004F1E00104209047E8
:1013D000A089C8B994F8D800C0F34000A0B9D920BA
:1013E000005DC0F3C00078B1D920005D20F0080195
:1013F000D920015504F14200C4F8E000D4F8DC2003
:1014000004F1E00105209047A089A8B994F8D8001C
:10141000C0F3400080B9D920005DC0F3400058B14E
:10142000D920005D20F00201D9200155D4F8DC203C
:1014300004F1E00106209047A089A8B994F8D800EB
:10144000C0F3400080B9DA20005D00F0010058B11F
:10145000DA20005D20F00101DA200155D4F8DC200B
:1014600004F1E00107209047A089A8B994F8D800BA
:10147000C0F3400080B9DA20005DC0F3400058B1ED
:10148000DA20005D20F00201DA200155D4F8DC20DA
:1014900004F1E00108209047A089A8B994F8D80089
:1014A000C0F3400080B9DA20005DC0F3800058B17D
:1014B000DA20005D20F00401DA200155D4F8DC20A8
:1014C00004F1E0010920904700252DE004F17400AB
:1014D00050F8250000B925E0A08910BB94F8D80089
:1014E000C0F34000E8B904F1740050F82500807D95
:1014F000C0F38000A8B104F1740151F8251001F186
:101500001600897D21F00401017004F1740050F887
:101510002500C4F8E000D4F8DC2004F1E00101204B
:10152000904700BF681CC5B2062DCFDB00BF00206E
:10153000207170BD10B50446204608F038F8044903
:1015400008600846006808B9012010BD0020FCE7CB
:10155000D800002010B504460448006808F02EF8B2
:1015600008B1012010BD0020FCE70000D8000020D9
:1015700010B504464FF47A710448006808F046F844
:1015800008B1012010BD0020FCE70000D8000020B9
:10159000F8B50446BD4D4FF4FA76A08960B12068D5
:1015A0006169401AE169884206D994F8EC0020F09C
:1015B0000200801C84F8EC005AE1A08940F23171ED
:1015C00088421FD1D920005DC0F38010D0B19DF8B2
:1015D0000030AC210859411CAC2211519821095905
:1015E0000B54B0200059401EB0210851B0200059C2
:1015F000002806D1D920005D20F04001D9200155F6
:1016000000262DE1A08940F23E7188421ED1D920EA
:10161000005DC009D0B19DF80030C0210859411CBF
:10162000C0221151B82109590B54C4200059401E41
:10163000C4210851C42000590028E2D1D920005DFE
:1016400020F08001D9200155002609E1A08940F24F
:101650002C71884222D1D920005DC0F34010E8B13E
:101660008B49C8689DF800204389591C4181416815
:10167000CA54018A491E0182018A71B9D921095DC2
:1016800021F02002D9210A55817D21F002018175C6
:10169000817D21F0040181750026E1E0A08940F2FE
:1016A0000221884240D1D920005D00F00100D0B372
:1016B0007749C86890F8A3109F2909D29DF80020A7
:1016C00010F8A33F0178491C00F8A319C11CCA54A3
:1016D0009DF800100A2925D16E4909780D2921D1DC
:1016E00090F8A31002291DDB90F8A310891EC21CDC
:1016F000515C0D290AD190F8A310491E515C0A29AA
:1017000004D190F8A310891E80F8A310002290F84D
:10171000A330C11CCA54D921095D21F00102D9218D
:101720000A5500269CE0FFE7A08940F20521884287
:1017300050D1D920005D00F00100D0B354480069B9
:10174000008853494969884234D25149C8689DF894
:10175000002010F8A33F0178491C00F8A319C11C10
:10176000CA549DF800100A2922D14A4909780D2946
:101770001ED190F8A31002291ADB10F8A31F891EAE
:101780000170002210F8A339C11CCA544049C9682D
:10179000D4313F4AD160114609690988491C126950
:1017A0001180D921095D21F00102D9210A550026B5
:1017B00056E00FE09DF800000A2851D13548007826
:1017C0000D284DD1D920005D20F00101D92001550F
:1017D000002645E09DF800000A281BD100BF9DF8B7
:1017E00000102D4802780078401C2B4B1870581CB4
:1017F00081540021401E0278401C815400BF411ECC
:10180000204606F077FA00BF002023490870487090
:1018100000BF24E09DF8000020280ED11D4800786C
:101820003E280AD11D4800780A2806D194F8EC0019
:1018300020F00400001D84F8EC0000BF9DF80010AB
:10184000154802780078401C134B1870581C8154BE
:101850000021401E0278401C815400BF00BF00BF21
:101860000C4800780D4908709DF80000094908707F
:101870003EB1012269462846FEF729FE00287FF482
:101880009CAE204606F0C2FEF8BD00000C0700200A
:10189000A8090020D500002025090020D60000203E
:1018A000024610680844106000BF002010717047A5
:1018B00002E00248FFF76CFEFBE700001C0200207C
:1018C0000246D16100BF90890028FCD192F8D8006F
:1018D000C0F340000028F6D100BF107E1071107ECA
:1018E00070470000014800687047000004000020B5
:1018F00010B52E480068401C2C4908602C48006830
:1019000020B12B480068401E29490860002444E0AB
:10191000284850F8240000283DD0264850F82400DC
:101920000078C0F34000B0B3224850F8240080682B
:1019300040B1204850F824008068401E1D4951F8ED
:10194000241088601B4850F82400806818BB194B8D
:1019500053F824301969174B53F8240053F82430F6
:10196000DA689047134850F824004168114850F84D
:10197000240081600F4850F82400007800F0010036
:1019800048B90C4850F82400007820F002010948BA
:1019900050F824000170601CC4B20648001F007893
:1019A000A042B5DC06F016FF10BD000004000020C8
:1019B000000000206801002010B50D48006840F4C8
:1019C00000700B4908600846006840F480600860B9
:1019D0000846006840F480700860032000F086F834
:1019E0000F2000F007F800F017F8002010BD0000ED
:1019F000003C024070B5044600F0E4F94FF47A71FF
:101A0000B0FBF1F5284600F081FC00222146501E73
:101A100000F02DF8002070BD7047000000BF00F0FE
:101A20001F0201219140034A430942F8231000BFDD
:101A30007047000080E200E000BF00F01F020121BB
:101A40009140034A430942F8231000BF7047000049
:101A500080E100E000BF00F01F0201219140420937
:101A6000920002F1E022C2F8001100BF70472DE998
:101A7000F05F80460D461646002700F09FFC0746A3
:101A800039462A46334601F00700C0F1070ABAF189
:101A9000040F02D94FF0040A01E0C0F1070AD14651
:101AA00000F1040ABAF1070F02D24FF0000A01E078
:101AB000A0F1030AD4464FF0010A0AFA09FAAAF182
:101AC000010A0AEA020A0AFA0CFA4FF0010B0BFAB1
:101AD0000CFBABF1010B0BEA030B4AEA0B042146AA
:101AE000404600F073FCBDE8F09F000000BF00F02E
:101AF0000702064B19684FF6FF031940044B0B43CE
:101B000043EA0221014B196000BF70470CED00E071
:101B10000000FA0570B504460E460025A748006887
:101B200000F00F00B0426FD2A4490E700846006862
:101B300000F00F00B04201D0012070BD207800F00D
:101B40000200022807D19E48006820F0F000A1683A
:101B500008439B490860207800F0010000283ED02F
:101B60006068012807D1964808380068C0F34040F3
:101B7000B8B90120E1E76068022802D06068032854
:101B800007D18F4808380068C0F3406048B9012089
:101B9000D3E78B4808380068C0F3400008B901203B
:101BA000CBE78748006820F0030061680843844958
:101BB0000860FFF797FE05466068012810D108E02D
:101BC000FFF790FE401B41F28831884201D9032083
:101BD000B3E77B48006800F00C000428F0D1CDE0AA
:101BE0006068022811D108E0FFF77CFE401B41F23B
:101BF0008831884201D903209FE77148006800F0CE
:101C00000C000828F0D1B9E024E06068032810D166
:101C100008E0FFF767FE401B41F28831884201D996
:101C200003208AE76648006800F00C000328F0D122
:101C3000A4E008E0FFF756FE401B41F288318842DD
:101C400001D9032079E75E48006800F00C00002805
:101C5000F0D193E0207800F00200022807D1584824
:101C6000006820F0F000A16808435549086020781A
:101C700000F00100002877D06068012807D15048A3
:101C800008380068C0F34040B8B9012055E76068E3
:101C9000022802D06068032807D149480838006844
:101CA000C0F3406048B9012047E74548083800685C
:101CB000C0F3400008B901203FE74148006820F028
:101CC0000300616808433E490860FFF70BFE0546C4
:101CD0006068012810D108E0FFF704FE401B41F2C4
:101CE0008831884201D9032027E73548006800F091
:101CF0000C000428F0D137E06068022810D108E019
:101D0000FFF7F0FD401B41F28831884201D90320E2
:101D100013E72B48006800F00C000828F0D123E0FE
:101D20006068032810D108E0FFF7DCFD401B41F29A
:101D30008831884201D90320FFE62148006800F07D
:101D40000C000328F0D10FE008E0FFF7CBFD401BAB
:101D500041F28831884201D90320EEE61848006834
:101D600000F00C000028F0D114490E7008460068FD
:101D700000F00F00B04201D00120DEE6207800F034
:101D80000400042807D10E48006820F4E050E16800
:101D900008430B490860207800F00800082808D1A3
:101DA0000748006820F46040216940EAC100044906
:101DB00008600F20FFF71EFE0020BEE6003C024038
:101DC0000838024010B500F045F80949096801F0EB
:101DD000F001F02292FAA2F2B2FA82F2D140054A60
:101DE000515CC840044908600846006810BD000006
:101DF00008380240D0A80008B000002010B5FFF756
:101E0000E1FF0749096801F4E0514FF4E05292FA0A
:101E1000A2F2B2FA82F2D140024A515CC84010BD2F
:101E200008380240D0A8000810B5FFF7CBFF0749DB
:101E3000096801F460414FF4604292FAA2F2B2FAEA
:101E400082F2D140024A515CC84010BD08380240BD
:101E5000D0A8000870B50021002200230020274CE4
:101E6000246804F00C0424B1042C04D0082C41D1C3
:101E700003E0234840E023483EE0204C241F246830
:101E800004F03F011D4C241F246804F4800484B135
:101E90001C4CB4FBF1F5194C241F246847F6C0769E
:101EA000344096FAA6F6B6FA86F6F44005FB04F23C
:101EB0000FE0134CB4FBF1F5104C241F246847F6D7
:101EC000C076344096FAA6F6B6FA86F6F44005FBDC
:101ED00004F20A4C241F246804F440344FF44035C3
:101EE00095FAA5F5B5FA85F5EC40641C6300B2FBE4
:101EF000F3F001E0024800BF00BF70BD08380240A7
:101F00000024F40000127A0038B504460025207839
:101F100000F00100002866D0F648006800F00C00D0
:101F200004280DD0F348006800F00C00082813D1F5
:101F3000F048001F006800F48000B0F5800F0BD15E
:101F4000EC4808380068C0F3404000284BD0606877
:101F5000002848D1012038BD0020E649891F0870BB
:101F6000FFF7C0FC054608E0FFF7BCFC401B41F250
:101F70008831884201D90320EDE7DE48083800683F
:101F8000C0F340400028EFD12079DA49891F08705A
:101F90006068A0B1FFF7A6FC054608E0FFF7A2FCC9
:101FA000401B41F28831884201D90320D3E7D14850
:101FB00008380068C0F340400028EFD013E0FFF776
:101FC00091FC054608E0FFF78DFC401B41F288318B
:101FD000884201D90320BEE7C64808380068C0F32C
:101FE00040400028EFD1207800F00200022869D19B
:101FF000C048006800F00C0058B1BE48006800F00E
:102000000C00082821D1BB48001F006800F48000A4
:10201000D8B9B84808380068C0F3400020B1E0687B
:10202000012801D0012096E7B2480838006820F066
:10203000F800F82292FAA2F2B2FA82F221699140F3
:102040000843AC49083908603CE0E06828B3012047
:10205000A9490860FFF746FC054606E0FFF742FC89
:10206000401B642801D9032075E7A248083800689E
:10207000C0F340000028F1D09E480838006820F0E6
:10208000F800F82292FAA2F2B2FA82F221699140A3
:10209000084398490839086014E000209649086010
:1020A000FFF720FC054606E0FFF71CFC401B6428F8
:1020B00001D903204FE78F4808380068C0F340007B
:1020C0000028F1D1207800F0080008282CD16069A0
:1020D000A8B1012089490860FFF704FC054606E025
:1020E000FFF700FC401B642801D9032033E7814837
:1020F0006C300068C0F340000028F1D014E00020EC
:102100007E490860FFF7EEFB054606E0FFF7EAFBB5
:10211000401B642801D903201DE776486C30006815
:10212000C0F340000028F1D1207800F0040004281A
:102130006DD100BF6F483830006840F080506D4965
:10214000383108600846006800F08050009000BFF9
:1021500000BF6B48006840F4807069490860FFF771
:10216000C1FB054606E0FFF7BDFB401B642801D913
:102170000320F0E66248006800F480700028F2D086
:1021800000205C4968310870FFF7ACFB054608E0A9
:10219000FFF7A8FB401B41F28831884201D9032098
:1021A000D9E6544868300068C0F340000028EFD1F9
:1021B000207A504968310870A068A0B1FFF792FBFF
:1021C000054608E0FFF78EFB401B41F2883188424C
:1021D00001D90320BFE6474868300068C0F34000DB
:1021E0000028EFD013E0FFF77DFB054608E0FFF77E
:1021F00079FB401B41F28831884201D90320AAE6CD
:102200003C4868300068C0F340000028EFD1A06966
:10221000F0B33848006800F00C00082872D0A069BC
:10222000022850D1002034490866FFF75BFB0546C1
:1022300006E0FFF757FB401B642801D903208AE61C
:102240002C4808380068C0F340600028F1D1D4E978
:102250000701084347F6C07292FAA2F2B2FA82F27C
:10226000616A914008430122A16AC2EB51014FF417
:10227000403292FAA2F2B2FA82F2914008434FF051
:10228000706292FAA2F2B2FA82F2E16A914000E040
:102290003AE008431749091F0860012016490866FB
:1022A000FFF720FB054606E0FFF71CFB401B6428F8
:1022B00001D903204FE60F4808380068C0F340609A
:1022C0000028F1D020E000200B490866FFF70AFB48
:1022D000054606E0FFF706FB401B642801D90320F2
:1022E00039E6044808380068C0F340600028F1D19E
:1022F0000AE007E00838024000004742800E4742EB
:1023000000700040012026E6002024E670B5044657
:102310002546681EB0F1807F01D301200FE0681EC2
:102320004FF0E02148610F214FF0FF3000F04EF8F0
:1023300000204FF0E021886107200861002070BD77
:1023400010B504460CB9012010BDA06900B100E031
:1023500000BF94F8390028B9002084F838002046DE
:1023600000F025F8022084F839002068C06820F4C5
:1023700000502168C860204606F0F8FD206800691A
:1023800020F49040216808612068406920F02A000C
:10239000216848612068C06840F400502168C86026
:1023A0000020E063012084F839000020CCE770476A
:1023B00000BFFEE700BFFEE770470000024800686C
:1023C000C0F30220704700000CED00E010B50028BB
:1023D00007DA0A07140E054A00F00F031B1FD45436
:1023E00003E00A07130E024A135410BD18ED00E073
:1023F00000E400E070B505460C46224602A12846DE
:1024000006F016FF70BD0000256400007CB505468F
:102410000C46288840F2A542811A90427ED008DC02
:1024200070B1A0F2814028B30A2878D0182877D15B
:1024300010E10D2975D0182974D02329F7D1C7E2EE
:1024400094F86C00012857D000BF0020C4F8EC00BD
:1024500000BF0822FEA104F10800FEF7CBFD022216
:10246000FEA104F10800FEF7C5FD00BF40F2814067
:10247000288000BF94F8EC0000F0010030B994F817
:10248000EC00C0F3400008B900207CBD00BF94F808
:102490006C00012830D00820207600BF04F1D40061
:1024A000FFF758F80020A08100BFED490880ED49F2
:1024B0000880ED490880ED490880ED490880ED4924
:1024C0000880ED490880ED49088000BF94F8D800E5
:1024D00000F0010030B994F8D80020F00200801C10
:1024E00084F8D8001821E648FDF7E9FE00BF00BFD8
:1024F000002028800220C8E7A08940F201318842EC
:1025000072D100BF0020C4F8EC0000BF0322DDA19F
:1025100004F10800FEF76EFDD94904E005E124E06E
:1025200095E270E1F5E10868FDF7E0FE86B2D44877
:102530003246016804F10800FEF75CFD0122D2A1D9
:1025400004F10800FEF756FD0222C4A104F10800C0
:10255000FEF750FD002240F20131204606F0CAF895
:1025600000BF40F28B40288000BF94F8EC0000F0E0
:10257000010030B994F8EC00C0F3400008B9002025
:1025800083E700BF94F8EC0000F0010080F0010048
:10259000207600BF04F1D400FEF7DCFF0020A0810C
:1025A00000BFAF490880AF490880AF490880AF49F4
:1025B0000880AF490880AF490880AF490880AF491B
:1025C000088000BF94F8D80000F0010030B994F8FA
:1025D000D80020F00200801C84F8D8001821A848F8
:1025E000FDF76DFE32E2FFE7A08940F20531884237
:1025F0006ED100BF0020C4F8EC0000BFA0484169C4
:102600006846FFF7F7FE0922A0A104F10800FEF7D3
:10261000F1FC6846FDF76AFE86B23246694604F16F
:102620000800FEF7E7FC012297A104F10800FEF77D
:10263000E1FC022289A104F10800FEF7DBFC002284
:1026400040F20531204606F055F800BF40F29940AF
:10265000288000BF94F8EC0000F0010030B994F835
:10266000EC00C0F3400008B900200EE700BF94F86A
:10267000EC0000F0010080F00100207600BF04F1C2
:10268000D400FEF767FF0020A08100BF74490880D6
:102690007449088074490880744908807449088026
:1026A00074490880744908807449088000BF94F810
:1026B000D80000F0010030B994F8D80020F00200F2
:1026C000801C84F8D80018216D48FDF7F8FDBDE1A5
:1026D000A08940F20231884265D100BF0020C4F8D1
:1026E000EC0000BF032267A104F10800FEF782FCA2
:1026F00063490868FDF7FAFD86B261483246016811
:1027000004F10800FEF776FC022254A104F108004F
:10271000FEF770FC002240F20231204605F0EAFF8D
:1027200000BF40F2A540288000BF94F8EC0000F004
:10273000010030B994F8EC00C0F3400008B9002063
:10274000A3E600BF94F8EC0000F0010080F0010067
:10275000207600BF04F1D400FEF7FCFE0020A0812B
:1027600000BF3F4908803F4908803F4908803F49F2
:1027700008803F4908803F4908803F4908803F4919
:10278000088000BF94F8D80000F0010030B994F838
:10279000D80020F00200801C84F8D80018213848A6
:1027A000FDF78DFD52E1A08940F20631884273D1D8
:1027B00000BF0020C4F8EC0000BF31484169684602
:1027C000FFF718FE092231A104F10800FEF712FC00
:1027D0006846FDF78BFD86B23246694604F1080073
:1027E000FEF708FC02221DA104F10800FEF702FC1E
:1027F000002240F20631204605F07CFF00BF40F287
:10280000B240288000BF94F8EC0000F0010030B91D
:1028100094F8EC00C0F3400008B9002035E600BF92
:1028200094F8EC0000F0010080F00100207600BF79
:1028300004F1D400FEF78EFE0020A08100BF0849FD
:10284000088008490880084908800849088024E071
:1028500041542B4350494E3F000000000D0A000038
:10286000B8000020BA000020BC000020BE000020FC
:10287000C0000020C2000020C4000020C6000020CC
:10288000A8090020415444003B0000004154443E4C
:1028900022534D222000000019E06F4908806F4943
:1028A00008806F4908806F49088000BF94F8D800FD
:1028B00000F0010030B994F8D80020F00200801C2C
:1028C00084F8D80018216848FDF7F9FCBEE0A0891B
:1028D00040F2033188425AD100BF0020C4F8EC0016
:1028E00000BF032261A104F10800FEF783FB02226E
:1028F000AFF2980104F10800FEF77CFB002240F2E1
:102900000331204605F0F6FE00BF40F2BD402880AE
:1029100000BF94F8EC0000F0010030B994F8EC002E
:10292000C0F3400008B90020AFE500BF94F8EC0008
:1029300000F0010080F00100207600BF04F1D40017
:10294000FEF708FE0020A08100BF494908804949E0
:10295000088049490880494908803F4908803F4923
:1029600008803F4908803F49088000BF94F8D8009C
:1029700000F0010030B994F8D80020F00200801C6B
:1029800084F8D80018213848FDF799FC5EE0A0894A
:10299000B0F5417F5AD100BF0020C4F8EC0000BF61
:1029A000032237A104F10800FEF724FB0222AFF254
:1029B000541104F10800FEF71DFB00224FF4417191
:1029C000204605F097FE00BF4FF49960288000BFB5
:1029D00094F8EC0000F0010030B994F8EC00C0F37A
:1029E000400008B9002050E500BF94F8EC0000F06A
:1029F000010080F00100207600BF04F1D400FEF752
:102A0000A9FD0020A08100BF19490880194908804C
:102A100019490880194908800F4908800F49088022
:102A20000F4908800F49088000BF94F8D80000F0D3
:102A3000010030B994F8D80020F00200801C84F81E
:102A4000D80018210848FDF73AFC00BF00BF00BFBE
:102A500000202880032018E5C0000020C2000020CC
:102A6000C4000020C6000020A809002041544100F5
:102A7000B8000020BA000020BC000020BE000020EA
:102A80004154480070B505460C46288820B1A0F294
:102A9000BE50002860D120E0A08940F20161884248
:102AA00059D100BF0020C4F8EC0000BF08222DA1BE
:102AB00004F10800FEF79EFA02222DA104F108009D
:102AC000FEF798FA002240F20161204605F012FE5E
:102AD00000BF40F2BE50288000BF94F8EC0000F028
:102AE000010030B994F8EC00C0F3400008B90020B0
:102AF00070BD00BF94F8EC0000F0010080F0010010
:102B0000207600BF04F1D400FEF724FD0020A08150
:102B100000BF1849088018490880184908801849DA
:102B20000880184908801849088018490880184901
:102B3000088000BF94F8D80000F0010030B994F884
:102B4000D80020F00200801C84F8D8001821114819
:102B5000FDF7B5FB00BF00BF00BF002028800320A9
:102B6000C6E7000041542B43434C4B3F000000009C
:102B70000D0A0000B8000020BA000020BC000020B0
:102B8000BE000020C0000020C2000020C4000020C1
:102B9000C6000020A809002070B505460C4628880C
:102BA00040F2B332811A90427DD008DC70B1A0F2BD
:102BB000923048B30B2877D0162876D1E2E00B2963
:102BC00074D0162973D02129F7D183E2A089052872
:102BD00058D100BF0020C4F8EC0000BF0222F9A1C8
:102BE00004F10800FEF706FA0222F7A104F108003A
:102BF000FEF700FA00220421204605F07BFD00BF0D
:102C000040F29230288000BF94F8EC0000F0010000
:102C100030B994F8EC00C0F3400008B9002070BD52
:102C200000BF94F8EC0000F0010080F00100207675
:102C300000BF04F1D400FEF78DFC0020A08100BF8E
:102C4000E2490880E2490880E2490880E2490880B8
:102C5000E2490880E2490880E2490880E2490880A8
:102C600000BF94F8D80000F0010030B994F8D80003
:102C700020F00200801C84F8D8001821DB48FDF702
:102C80001EFB65E2A08904285ED100BF0020C4F8C5
:102C9000EC0000BF0422D6A104F10800FEF7AAF957
:102CA0000222C9A104E0C9E010E052E222E17DE184
:102CB00004F10800FEF79EF900220421204605F0E9
:102CC00019FD00BF40F29D30288000BF94F8EC0051
:102CD00000F0010030B994F8EC00C0F3400008B9EE
:102CE00000209CE700BF94F8EC0000F0010080F0A9
:102CF0000100207600BF04F1D400FEF72BFC002079
:102D0000A08100BFB1490880B1490880B14908805D
:102D1000B1490880B1490880B1490880B1490880AB
:102D2000B149088000BF94F8D80000F0010030B924
:102D300094F8D80020F00200801C84F8D8001821F4
:102D4000AA48FDF7BCFA03E2A089012858D100BFC8
:102D50000020C4F8EC0000BF1122A7A104F1080074
:102D6000FEF748F9022298A104F10800FEF742F9A3
:102D700000220121204605F0BDFC00BF4FF46A701F
:102D8000288000BF94F8EC0000F0010030B994F8FE
:102D9000EC00C0F3400008B9002040E700BF94F801
:102DA000EC0000F0010080F00100207600BF04F18B
:102DB000D400FEF7CFFB0020A08100BF834908802C
:102DC00083490880834908808349088083490880B3
:102DD00083490880834908808349088000BF94F8AC
:102DE000D80000F0010030B994F8D80020F00200BB
:102DF000801C84F8D80018217C48FDF760FAA7E110
:102E0000A089022858D100BF0020C4F8EC0000BF00
:102E100009227EA104F10800FEF7ECF802226AA163
:102E200004F10800FEF7E6F800220221204605F032
:102E300061FC00BF40F2B330288000BF94F8EC0082
:102E400000F0010030B994F8EC00C0F3400008B97C
:102E50000020E4E600BF94F8EC0000F0010080F0F0
:102E60000100207600BF04F1D400FEF773FB0020C0
:102E7000A08100BF55490880554908805549088000
:102E800055490880554908805549088055490880AA
:102E90005549088000BF94F8D80000F0010030B90F
:102EA00094F8D80020F00200801C84F8D800182183
:102EB0004E48FDF704FA4BE1A089032858D100BF22
:102EC0000020C4F8EC0000BF092253A104F108005F
:102ED000FEF790F802223CA104F10800FEF78AF800
:102EE00000220321204605F005FC00BF40F2BE3061
:102EF000288000BF94F8EC0000F0010030B994F88D
:102F0000EC00C0F3400008B9002088E600BF94F848
:102F1000EC0000F0010080F00100207600BF04F119
:102F2000D400FEF717FB0020A08100BF27490880CE
:102F300027490880274908802749088027490880B1
:102F400027490880274908802749088000BF94F84E
:102F5000D80000F0010030B994F8D80020F0020049
:102F6000801C84F8D80018212048FDF7A8F9EFE06C
:102F7000A08906287DD100BF0020C4F8EC0000BF66
:102F8000042228A104F10800FEF734F802220EA161
:102F900004F10800FEF72EF800220621204605F075
:102FA000A9FB00BF40F2C930288000BF94F8EC00B4
:102FB00000F00100D0BB94F8EC00C0F34000A8BBC7
:102FC00000202CE6415400000D0A0000B80000204B
:102FD000BA000020BC000020BE000020C00000207D
:102FE000C2000020C4000020C6000020A809002064
:102FF000415426460000000041542B434E4D493DAC
:10300000312C322C302C302C3000000041542B431A
:103010004D45453D3100000041542B434C43433D59
:10302000310000004154453000000000FFE700BFC0
:1030300094F8EC0000F0010080F00100207600BF61
:1030400004F1D400FEF786FA0020A08100BF4349B6
:103050000880434908804349088043490880434920
:10306000088043490880434908804349088000BFDD
:1030700000E010E094F8D80000F0010030B994F8B6
:10308000D80020F00200801C84F8D80018213B48AA
:10309000FDF715F95CE0A089072859D100BF002091
:1030A000C4F8EC0000BF042235A104F10800FDF7CC
:1030B000A1FF0222AFF2F00104F10800FDF79AFF30
:1030C00000220721204605F015FB00BF4FF4757064
:1030D000288000BF94F8EC0000F0010030B994F8AB
:1030E000EC00C0F3400008B9002098E500BF94F858
:1030F000EC0000F0010080F00100207600BF04F138
:10310000D400FEF727FA0020A08100BF13490880F1
:10311000134908801349088013490880134908801F
:1031200013490880134908801349088000BF94F8A8
:10313000D80000F0010030B994F8D80020F0020067
:10314000801C84F8D80018210C48FDF7B8F800BF9F
:1031500000BF00BF00202880032060E5B8000020E9
:10316000BA000020BC000020BE000020C0000020EB
:10317000C2000020C4000020C6000020A8090020D2
:1031800041544531000000002DE9FF4105460C4641
:10319000FE48C6681A200090298840F29172881A69
:1031A000914201F0CA825EDC40F28C62A1EB020027
:1031B00091426ED02DDC40F22562A1EB02009142DB
:1031C00068D017DC40F2F752A1EB020091427AD0AE
:1031D00009DC002978D0A1F2D251002975D0152937
:1031E00042F08B8597E1092870D017286FD02028EE
:1031F000F6D1A6E242286BD006DC0E2869D01C2846
:1032000068D03428ECD1B0E350287CD05E28E7D1D8
:10321000DCE37F2800F0B38710DC3D2874D006DCA7
:10322000142872D01C2871D02E28D9D1CFE343287E
:103230006DD05D286CD07728D2D1FDE3D02801F085
:10324000558109DC9D2801F02880AD2801F07580AA
:10325000C228C5D101F015B9E42801F0C281EF28D8
:10326000BED101F0EFB9E62802F028803ADC7628DA
:1032700001F0808519DC342801F0B5830BDC0F28C0
:1032800001F09B821A2801F013832228A8D101F0B3
:103290002CBBEFE38AE24B2801F02E84582801F082
:1032A0008F8467289CD101F022BDB52801F0BC862F
:1032B00011DC852801F09F85952801F0FA85A62864
:1032C0008ED101F06DBEB1E152E079E0D8E10CE2BF
:1032D000B8E3A0E2D4E2C42801F0F086D32887D175
:1032E00001F074BFB0F5BA7F02F0D68225DC40F25F
:1032F0002912A0EB0201904202F0078113DCF628AC
:1033000002F0248005E0D3E3FEE3FEE3FEE3FEE308
:10331000FEE3B0F5827F02F05080A0F20D1000288D
:103320008AD102F067B8182902F0AE812A2902F08A
:1033300023823B298DD102F067BA40F2B112811A83
:10334000904202F0A8830CDCB0F5C17F02F0D88275
:10335000A0F28B10002802F0F0821D2896D102F016
:1033600077BB0A2902F0FB832A298FD102F084BCA3
:10337000A089E08194F8200001286BD094F8200007
:10338000052867D0A089E08100BF0020C4F8EC00C8
:1033900000BF08227EA104F10800FDF72BFE0222E7
:1033A0007EA104F10800FDF725FE002240F23371F2
:1033B000204605F09FF900BF40F2D250288000BFA0
:1033C00094F8EC0000F0010040B994F8EC00C0F370
:1033D000400018B9002004B0BDE8F08100BFE089CA
:1033E000A08194F82000012834D094F8200005280A
:1033F00030D00B20207600BF04F1D400FEF7AAF8ED
:103400000020A08100BF664908806649088066499F
:1034100008806649088066490880664908806649D0
:1034200008806649088000BF94F8D80000F00100C9
:1034300030B994F8D80020F00200801C84F8D8003D
:1034400018215248FCF73BFF00BF00BF0020288036
:103450000220C0E7E089A081A08940F20171884282
:103460007ED1A089E08100BF0020C4F8EC0000BF3D
:10347000092253A104F10800FDF7BCFD4349086887
:10348000FCF734FF87B241483A46016804F108006E
:10349000FDF7B0FD03224DA104F10800FDF7AAFDE0
:1034A0003A48406858B139494868FCF71FFF87B26D
:1034B00036483A46416804F10800FDF79BFD0322B7
:1034C00042A104F10800FDF795FD3048806858B12D
:1034D0002E498868FCF70AFF87B22C483A46816873
:1034E00004F10800FDF786FD012237A104F1080070
:1034F000FDF780FD022229A104F10800FDF77AFD05
:10350000002240F20171204605F0F4F800BF40F2BD
:10351000E750288000BF94F8EC0000F0010030B9BB
:1035200094F8EC00C0F3400008B9002053E700BF56
:1035300094F8EC0000F0010080F001002076E089B2
:10354000A08100BF04F1D400FEF704F80020A081A0
:1035500000BF13490880134908801349088000E020
:1035600040E0124908801249088012490880124937
:1035700008801249088000BF94F8D80000F00100CC
:1035800030BB94F8D80020F0020022E0A809002007
:1035900041542B435245473F000000000D0A0000F4
:1035A000B8000020BA000020BC000020BE000020AF
:1035B000C0000020C2000020C4000020C60000207F
:1035C00041542B435354543D22000000222C22002E
:1035D00002E0801C84F8D8001821FD48FCF76FFE3B
:1035E00002F08ABBA08940F2027188427ED1A08994
:1035F000E08100BF0020C4F8EC0000BF0A22F5A162
:1036000004F10800FDF7F6FC0222AFF2700104F1AC
:103610000800FDF7EFFC002240F22271204605F081
:1036200069F800BF40F2F750288000BF94F8EC0022
:1036300000F0010030B994F8EC00C0F3400008B984
:103640000020C8E600BF00BF0020C4F8EC0000BFA7
:103650000A22E3A104F10800FDF7CCFC0222AFF23C
:10366000C40104F10800FDF7C5FC002240F22271FC
:10367000204605F03FF800BF4FF4C060288000BF2F
:1036800094F8EC0000F0010030B994F8EC00C0F3BD
:10369000400008B900209EE600BF94F8EC0000F05E
:1036A000010080F001002076207E012800D172E226
:1036B00000BF0020C4F8EC0000BF0A22CBA104F137
:1036C0000800FDF797FC0222AFF2301104F1080068
:1036D000FDF790FC002240F22171204605F00AF827
:1036E00000BF40F20E60288000BF00E090E294F836
:1036F000EC0000F0010030B994F8EC00C0F3400099
:1037000008B9002067E600BF00BF0020C4F8EC0045
:1037100000BF0A22B8A104F10800FDF76BFC0222E9
:10372000AFF2881104F10800FDF764FC002240F2BA
:103730002171204604F0DEFF00BF40F217602880B0
:1037400000BF94F8EC0000F0010030B994F8EC00F0
:10375000C0F3400008B900203DE600BF94F8EC003B
:1037600000F0010080F001002076207E012800D1C9
:1037700011E200BF0020C4F8EC0000BF0A22A1A1A2
:1037800004F10800FDF736FC0222AFF2F01104F15B
:103790000800FDF72FFC00224FF4E461204604F0FE
:1037A000A9FF00BF40F22560288000BF94F8EC001C
:1037B00000F0010030B994F8EC00C0F3400008B903
:1037C000002008E600BF94F8EC0000F0010080F053
:1037D00001002076207E012800D1DCE100BF00201E
:1037E000C4F8EC0000BF0B2289A104F10800FDF72A
:1037F00001FC0222AFF25C2104F10800FDF7FAFBA4
:10380000002240F22771204604F074FF00BF40F20E
:103810003360288000BF94F8EC0000F0010030B95C
:1038200094F8EC00C0F3400008B90020D3E500BFD5
:1038300094F8EC0000F0010080F001002076207E7A
:10384000012800D1A7E100BF0020C4F8EC0000BFB0
:103850000D2272A104F10800FDF7CCFB0222AFF2A9
:10386000C42104F10800FDF7C5FB002240F22C71D1
:10387000204604F03FFF00BF40F24160288000BFB7
:1038800094F8EC0000F0010030B994F8EC00C0F3BB
:10389000400008B900209EE500BF94F8EC0000F05D
:1038A000010080F001002076207E012800D172E125
:1038B00000BF0020C4F8EC0000BF0922AFF20031C5
:1038C00004F10800FDF796FB41490868FCF70EFD7E
:1038D00087B23F483A46016804F10800FDF78AFBC9
:1038E0000322AFF2183104F10800FDF783FB3848DA
:1038F000406858B136494868FCF7F8FC87B234484C
:103900003A46416804F10800FDF774FB0322AFF268
:10391000443104F10800FDF76DFB2D48806858B173
:103920002B498868FCF7E2FC87B229483A4681684F
:1039300004F10800FDF75EFB0122AFF2743104F1DF
:103940000800FDF757FB0222AFF2B03104F1080086
:10395000FDF750FB002240F22671204604F0CAFE1B
:1039600000BF40F25960288000BF94F8EC0000F0DE
:10397000010030B994F8EC00C0F3400008B9002011
:1039800029E500BF94F8EC0000F0010080F0010090
:103990002076207E012800D1FDE000BF0020C4F881
:1039A000EC0000BF082221A104F10800FDF722FB72
:1039B0000222AFF2184104F10800FDF71BFB0022C0
:1039C00040F22471204604F095FE36E0ABE0E7E1DA
:1039D000A809002041542B43474143543D30000087
:1039E00041542B43474143543D31000041542B4344
:1039F000474154543D30000041542B4347415454F7
:103A00003D31000041542B43495053485554000068
:103A100041542B4349504D55583D310041542B439F
:103A2000495052584745543D3100000041542B4302
:103A3000494943520000000076E300BF40F267604E
:103A4000288000BF94F8EC0000F0010030B994F831
:103A5000EC00C0F3400008B90020BCE400BF94F8BB
:103A6000EC0000F0010080F001002076207E0128AB
:103A700001D190E081E000BF0020C4F8EC0000BF5D
:103A80000822FEA104F10800FDF7B4FA0222AFF209
:103A9000F44104F10800FDF7ADFA002240F225716F
:103AA000204604F027FE00BF40F27560288000BF6A
:103AB00094F8EC0000F0010030B994F8EC00C0F389
:103AC000400008B9002086E400BF94F8EC0000F044
:103AD000010080F001002076207E012800D15AE00C
:103AE00000BF0020C4F8EC0000BF0B22E6A104F1E7
:103AF0000800FDF77FFA0222AFF2605104F10800DE
:103B0000FDF778FA002204E0AAE1A5E0CFE002E2A6
:103B100079E240F23271204604F0ECFD00BF40F241
:103B20008360288000BF94F8EC0000F0010030B9F9
:103B300094F8EC00C0F3400008B900204BE400BF4B
:103B400000BF0020C4F8EC0000BF0C22D1A104F19A
:103B50000800FDF74FFA0222AFF2C05104F108004D
:103B6000FDF748FA002240F22371204604F0C2FD1E
:103B700000BF40F28C60288000BF94F8EC0000F099
:103B8000010030B994F8EC00C0F3400008B90020FF
:103B900021E400BF00BF207E38B9DA20005D20F0AC
:103BA0000100401CDA21085506E0DA20005D20F013
:103BB0000200801CDA210855E089A08100BF04F1D1
:103BC000D400FDF7C7FC0020A08100BFB5490880E4
:103BD000B5490880B5490880B5490880B5490880CD
:103BE000B5490880B5490880B549088000BF94F8F8
:103BF000D80000F0010030B994F8D80020F002009D
:103C0000801C84F8D8001821AE48FCF758FBE7E484
:103C1000A08940F2037188427ED1A089E08100BF73
:103C20000020C4F8EC0000BF0C22A7A104F108009A
:103C3000FDF7E0F90222AFF29C6104F10800FDF704
:103C4000D9F9002240F22371204604F053FD00BF51
:103C50004FF4D460288000BF94F8EC0000F001001D
:103C600030B994F8EC00C0F3400008B900205DE4DE
:103C700000BF00BF0020C4F8EC0000BF0A22AFF272
:103C8000942104F10800FDF7B5F90222AFF2F461C6
:103C900004F10800FDF7AEF9002240F22171204640
:103CA00004F028FD00BF4FF4D560288000BF94F8D1
:103CB000EC0000F0010030B994F8EC00C0F34000D3
:103CC00008B9002032E400BF94F8EC0000F00100D5
:103CD00080F001002076DA20005D20F00400001D55
:103CE000DA210855E089A08100BF04F1D400FDF776
:103CF00031FC0020A08100BF6A4908806A49088021
:103D00006A4908806A4908806A4908806A490880C7
:103D10006A4908806A4900E012E0088000BF94F810
:103D2000D80000F0010030B994F8D80020F002006B
:103D3000801C84F8D80018216248FCF7C0FA4FE4D0
:103D4000A08940F2297188427ED1A089E08100BF1C
:103D50000020C4F8EC0000BF0A225FA104F10800B3
:103D6000FDF748F957498868FCF7C0FA87B255480B
:103D70003A46816804F10800FDF73CF90222AFF2EF
:103D8000E47104F10800FDF735F9002240F24471B6
:103D9000204604F0AFFC00BF40F2BA60288000BFAC
:103DA00094F8EC0000F0010030B994F8EC00C0F396
:103DB000400008B9002044E400BF4248416902A81D
:103DC000FEF718FB00BF0020C4F8EC0000BF0F2274
:103DD00044A104F10800FDF70DF93A494868FCF7E1
:103DE00085FA87B237483A46416804F10800FDF782
:103DF00001F90322AFF62C0104F10800FDF7FAF8EF
:103E000030490868FCF772FA87B22E483A460168D2
:103E100004F10800FDF7EEF8022236A104F10800D3
:103E2000FDF7E8F802A8FCF761FA87B23A4602A962
:103E300004F10800FDF7DEF80222AFF6A00104F15C
:103E40000800FDF7D7F800E0B4E0002240F2297145
:103E5000204604F04FFC00BF40F2C960288000BF3C
:103E600094F8EC0000F0010030B994F8EC00C0F3D5
:103E7000400008B900200EE43EE0000041542B430E
:103E8000494653520000000041542B4854545054AA
:103E900045524D0041542B53415042523D312C313B
:103EA00000000000B8000020BA000020BC00002084
:103EB000BE000020C0000020C2000020C40000207E
:103EC000C6000020A809002041542B534150425203
:103ED0003D302C310000000041542B4349505353D6
:103EE0004C3D000041542B43495053544152543DE2
:103EF000302C2200222C000000BF94F8EC0000F0CF
:103F0000010080F001002076207E38BB00BF40F227
:103F1000CF60288000BF94F8EC00C0F3C00058B90F
:103F200094F8EC00C0F3001030B994F8EC00C0F342
:103F3000401008B900200FE400BF94F8EC00C0F373
:103F4000C00020B100203070FE48C068606794F85F
:103F5000EC00C0F3001008B101202076E089A081B8
:103F600000BF04F1D400FDF7F5FA0020A08100BFE6
:103F7000F5490880F5490880F5490880F549088029
:103F8000F5490880F5490880F5490880F549088019
:103F900000BF94F8D80000F0010030B994F8D800C0
:103FA00020F00200801C84F8D8001821E548FCF7B6
:103FB00086F92CE6A08940F22B7188426AD1A0894B
:103FC000E081E048416902A8FEF714FA00BF002032
:103FD000C4F8EC0000BF0D22E3A104F10800FDF7D6
:103FE00009F80222AFF64C2104F10800FDF702F8AF
:103FF000002240F22B71204604F07CFB00BF40F20F
:10400000E960288000BF94F8EC00C0F3400030B9AC
:1040100094F8EC00C0F3801008B9002006E400BF5B
:10402000616F01F11600897D21F00101017094F8A2
:10403000EC00C0F3801080F001002076E089A081C0
:1040400000BF04F1D400FDF785FA0020A08100BF75
:10405000BD490880BD490880BD490880BD49088028
:10406000BD490880BD490880BD490880BD49088018
:1040700000BF94F8D80000F0010030B994F8D800DF
:1040800020F00200801C84F8D8001821AD48FCF70D
:1040900016F9BCE5A08940F22A7188427ED1A08938
:1040A000E081A848006918B10020A64909690860A4
:1040B0000320B149087000BFA248406940F2B451E2
:1040C000884201D9084601E09E484069AB49086032
:1040D0000846016802A8FEF78DF900BF0020C4F869
:1040E000EC0000BF0D22A6A104F10800FCF782FF3E
:1040F00002A8FCF7FBF887B23A4602A904F10800CF
:10410000FCF778FF0222AFF66C3104F10800FCF7EF
:1041100071FF002240F22A71204604F0EBFA00BF42
:1041200040F20370288000BF94F8EC00C0F38000D8
:1041300030B994F8EC00C0F3400008B900201FE447
:1041400000BF94F8EC00C0F3800040B300BF002033
:10415000C4F8EC0000BF8948008882B27948016841
:1041600004F10800FCF746FF0122694604F108004B
:10417000FCF740FF00BF40F20B70288000BF94F8AE
:10418000EC00C00970B9ED20005D00F0010048B9F5
:1041900094F8EC00C0F3400020B901E06EE019E0B3
:1041A00000205AE400BF94F8EC00C00908B10020D8
:1041B00000E005202076207E98B96248006980B131
:1041C0006048006900686D49096808445D490969EB
:1041D000086006E094F8EC00C0F3400008B101204C
:1041E0002076207E88B903206349087055484069CD
:1041F00062490968401A53494861084600685F49A6
:10420000096808444F49086004E05B480078401E94
:10421000594908704B48406920B157480078002838
:104220007FF44AAFE089A08100BF04F1D400FDF71C
:1042300091F90020A08100BF4349088043490880CC
:10424000434908804349088043490880434908801E
:10425000434908804349088000BF94F8D80000F023
:10426000010030B994F8D80020F00200801C84F8D6
:10427000D80018213348FCF722F8C8E4A08940F29E
:104280002C7188425CD1A089E08120684049086097
:1042900000BF40F22970288000BF20683C490968AF
:1042A000401AB18A884201D200200CE400BF308954
:1042B00040F2B451884201DD0846308100BF002041
:1042C000C4F8EC0000BF0E2232A104F10800FCF794
:1042D00091FE317802A8FEF78DF802A8FCF706F8E7
:1042E00087B23A4602A904F10800FCF783FE0122D6
:1042F00026A104F10800FCF77DFE318902A8FEF733
:1043000079F802A8FBF7F2FF87B23A4602A904F156
:104310000800FCF76FFE0222AFF6805104F108009E
:10432000FCF768FE002240F22C71204604F0E2F90E
:1043300000BF40F23970288000BF94F8EC0031E0F3
:104340007BE00000A8090020B8000020BA0000208F
:10435000BC000020BE000020C0000020C2000020E1
:10436000C4000020C600002041542B434950434C58
:104370004F53453D30000000D4000020D000002005
:1043800041542B43495053454E443D302C000000CE
:10439000CC00002041542B43495052584745543DCE
:1043A000322C000000F0010030B994F8EC00C0F3AA
:1043B000400008B900205AE400BF94F8EC0000F077
:1043C000010080F001002076207E50B97189F068EC
:1043D0000844F060FE48006918B17089FC49096919
:1043E0000860E089A08100BF04F1D400FDF7B2F8B5
:1043F0000020A08100BFF7490880F7490880F749ED
:104400000880F7490880F7490880F7490880F7498C
:104410000880F749088000BF94F8D80000F0010038
:1044200030B994F8D80020F00200801C84F8D8003D
:104430001821E748FBF743FF81E4A08940F20471AB
:1044400088427DD1A089E08100BF0020C4F8EC0043
:1044500000BF0B22E7A104F10800FCF7CBFD02220C
:10446000AFF6C86104F10800FCF7C4FD002240F279
:104470002D71204604F03EF900BF40F24E702880B6
:1044800000BF94F8EC0000F0010030B994F8EC00A3
:10449000C0F3400008B9002014E400BF94F8EC0019
:1044A00000F0010080F001002076207E012800D17C
:1044B00031E000BF0020C4F8EC0000BF1322D0A1FF
:1044C00004F10800FCF796FD0222AFF6307104F10A
:1044D0000800FCF78FFD002240F22D71204604F009
:1044E00009F900BF40F25C70288000BF94F8EC002E
:1044F00000F0010030B994F8EC00C0F3400008B9B6
:10450000002058E400BF94F8EC0000F0010080F0B7
:104510000100207600BFE089A08100BF04F1D40033
:10452000FDF718F80020A08100BFAA490880AA4919
:104530000880AA490880AA490880AA49088000E0A2
:1045400017E0A9490880A9490880A949088000BF47
:1045500094F8D80000F0010030B994F8D80020F0A9
:104560000200801C84F8D80018219948FBF7A7FEA8
:104570001FE5A08940F2077188426FD1A089E081D0
:1045800000BF0020C4F8EC0000BF0C22A1A104F180
:104590000800FCF72FFD9C20015902A8FDF72AFF17
:1045A00002A8FBF7A3FE87B23A4602A904F108006D
:1045B000FCF720FD06229BA104F10800FCF71AFD80
:1045C00002229AA104F10800FCF714FD002240F237
:1045D0002F71204604F08EF800BF4FF4EE60288063
:1045E00000BFED20005DC0F3800058B994F8EC00E6
:1045F00000F0010030B994F8EC00C0F3400008B9B5
:10460000002038E400BF94F8EC00C0F3400070B91B
:10461000ED20005DC0F3800048B19C20005982B2BB
:104620009820015904F10800FCF7E4FC00E023E0C5
:1046300000BF0020C4F8EC0000BF00BF40F27B7058
:10464000288000BF94F8EC0000F0010038B994F81D
:10465000EC00C0F3400010B900200CE438E000BFCB
:1046600094F8EC0000F0010080F001002076207E3C
:10467000012800D100E000BFE089A08100BF04F163
:10468000D400FCF767FF0020A08100BF51490880DB
:104690005149088051490880514908805149088092
:1046A00051490880514908805149088000BF94F859
:1046B000D80000F0010030B994F8D80020F00200D2
:1046C000801C84F8D80018214148FBF7F8FD70E4FD
:1046D000A08940F20671884277D1A089E08100BFAD
:1046E0000020C4F8EC0000BF132251A104F108001F
:1046F000FCF780FC90210859FBF7F8FD87B2902069
:1047000001593A4604F10800FCF774FC01224DA15E
:1047100004F10800FCF76EFC022244A104F1080039
:10472000FCF768FC002240F22E71204603F0E2FF05
:1047300000BF40F29170288000BF94F8EC0000F0B8
:10474000010030B994F8EC00C0F3400008B9002033
:1047500064E400BF94F8EC0000F0010080F0010078
:104760002076207E012800D1C8E000BF0020C4F8D8
:10477000EC0000BF0B2234A104F10800FCF73AFC66
:1047800013490868FBF7B2FD87B211483A46016841
:1047900004F10800FCF72EFC022224A104F1080019
:1047A000FCF728FC002240F24271204603F0A2FFF1
:1047B00000BF4FF4F460288000BF94F8EC0000F0D4
:1047C000010018B994F8EC0044E0C3E047E00000B1
:1047D000A8090020B8000020BA000020BC0000207A
:1047E000BE000020C0000020C2000020C400002045
:1047F000C600002041542B48545450494E4954009F
:1048000041542B48545450504152413D2243494455
:10481000222C310041542B48545450444154413DC2
:10482000000000002C313030303000000D0A000054
:1048300041542B48545450504152413D2255524C02
:10484000222C22002200000041542B485454505383
:10485000534C3D00C0F3400008B900206FE400BF96
:1048600000BF0020C4F8EC0000BF0E22FEA104F13E
:104870000800FCF7BFFB94F88C003030C0B2019008
:10488000012201A904F10800FCF7B4FB0222AFF2F7
:10489000640104F10800FCF7ADFB00224FF4E6616F
:1048A000204603F027FF00BF40F2AB70288000BF16
:1048B00094F8EC0000F0010030B994F8EC00C0F37B
:1048C000400008B900203AE400BF94F8EC0000F082
:1048D000010080F001002076207E012800D10DE04B
:1048E00000BF40F2B370288000BFED20005DC0F330
:1048F000400008B9002022E400BF00BFE089A08189
:1049000000BF04F1D400FCF725FE0020A08100BF09
:10491000D9490880D9490880D9490880D9490880EF
:10492000D9490880D9490880D9490880D9490880DF
:1049300000BF94F8D80000F0010030B994F8D80016
:1049400020F00200801C84F8D8001821D248FBF720
:10495000B6FC92E4A08940F2317188427ED1A089F0
:10496000E08100BF0020C4F8EC0000BF0C22CBA106
:1049700004F10800FCF73EFBA420015902A8FDF752
:1049800039FD02A8FBF7B2FC87B23A4602A904F14E
:104990000800FCF72FFB0122AFF2106104F10800C0
:1049A000FCF728FBA820015B02A8FDF723FD02A865
:1049B000FBF79CFC87B23A4602A904F10800FCF719
:1049C00019FB0222AFF29C1104F10800FCF712FB64
:1049D000002240F23171204603F08CFE00BF40F20D
:1049E000C570288000BF94F8EC0000F0010030B9D9
:1049F00094F8EC00C0F3400008B9002055E400BF73
:104A000094F8EC0000F0010080F001002076207E98
:104A100070B9A4200159AC2000590144A4200151CF
:104A20009D48C06820B1AC2000599B49C968086006
:104A3000E089A08100BF04F1D400FCF78BFD0020C9
:104A4000A08100BF8C4908808C4908808C4908806F
:104A50008C4908808C4908808C4900E016E0088069
:104A60008B4908808B49088000BF94F8D80000F07B
:104A7000010030B994F8D80020F00200801C84F8BE
:104A8000D80018218448FBF71AFCD5E4A089B0F5BA
:104A9000E16F72D1A089E08100BF0020C4F8EC0072
:104AA00000BF172281A104F10800FCF7A3FA9021AE
:104AB0000859FBF71BFC87B2902001593A4604F1D4
:104AC0000800FCF797FA0122AFF2882104F10800F0
:104AD000FCF790FA0222AFF2AC2104F10800FCF7D7
:104AE00089FA002240F22E71204603F003FE00BF37
:104AF00040F2DC70288000BF94F8EC0000F0010068
:104B000030B994F8EC00C0F3400008B9002052E43A
:104B100000BF94F8EC0000F0010080F00100207666
:104B2000E089A08100BF04F1D400FCF713FD002050
:104B3000A08100BF50490880504908805049088032
:104B400050490880504908805049088050490880E1
:104B50005049088000BF94F8D80000F0010030B937
:104B600094F8D80020F00200801C84F8D8001821A6
:104B70004948FBF7A4FB5FE4FFE7A08940F23271EC
:104B800088425BD100BF0020C4F8EC0000BF0B22BC
:104B9000AFF60C5104F10800FCF72CFA0222AFF238
:104BA000743104F10800FCF725FA002240F232715A
:104BB000204603F09FFD00BF40F2E970288000BF4F
:104BC00094F8EC0000F0010030B994F8EC00C0F368
:104BD000400008B900205FE400BF94F8EC0000F04A
:104BE000010080F00100207600BF04F1D400FCF742
:104BF000B1FC0020A08100BF1F4908801F49088028
:104C00001F4908801F4908801F4908801F490880E4
:104C10001F4908801F49088000BF94F8D80000F0A1
:104C2000010030B994F8D80020F00200801C84F80C
:104C3000D80018211848FBF742FB99E4A08940F2FC
:104C4000097188427ED1A089E08100BF0020C4F8AC
:104C5000EC0000BF0B221BA104F10800FCF7CAF90D
:104C60000222AFF2384133E041542B4854545041B2
:104C70004354494F4E3D0000B8000020BA000020C8
:104C8000BC000020BE000020C0000020C2000020A8
:104C9000C4000020C6000020A809002041542B4871
:104CA000545450524541443D0000000041542B48AB
:104CB000545450504152413D22434F4E54454E545E
:104CC000222C220041542B4654504349443D31008C
:104CD00004F10800FCF78EF9002240F234712046FE
:104CE00003F008FD00BF4FF4FF60288000BF94F878
:104CF000EC0000F0010030B994F8EC00C0F3400083
:104D000008B900207DE400BF94F8EC0000F0010039
:104D100080F001002076207E012800D179E000BFDC
:104D20000020C4F8EC0000BF0B22FEA104F1080033
:104D3000FCF760F9FE490868FBF7D8FA87B2FC482F
:104D40003A4600E091E0016804F10800FCF752F9EE
:104D50000222AFF2285104F10800FCF74BF90022BF
:104D600040F24171204603F0C5FC00BF40F6070049
:104D7000288000BF94F8EC0000F0010030B994F8EE
:104D8000EC00C0F3400008B900203AE400BF94F8FA
:104D9000EC0000F0010080F001002076207E012868
:104DA00000D136E000BF0020C4F8EC0000BF0A22AA
:104DB000E0A104F10800FCF71DF9DD494868FBF7A4
:104DC00095FA87B2DA483A46416804F10800FCF7E0
:104DD00011F90222AFF2AC5104F10800FCF70AF914
:104DE000002240F24371204603F084FC00BF40F6ED
:104DF0001600288000BF94F8EC0000F0010030B9E4
:104E000094F8EC00C0F3400008B9002025E400BF8E
:104E100000BFE089A08100BF04F1D400FCF79AFB39
:104E20000020A08100BFC6490880C6490880C64945
:104E30000880C6490880C6490880C6490880C64916
:104E40000880C649088000BF94F8D80000F001002F
:104E500030B994F8D80020F00200801C84F8D80003
:104E60001821B348FBF72BFA31E4A08940F20A710C
:104E700088425ED1A089E08100BF0020C4F8EC0028
:104E800000BF0A22B6A104F10800FCF7B3F8022221
:104E9000AFF2686104F10800FCF7ACF800224FF4AF
:104EA000E861204603F026FC00BF40F6260028807B
:104EB00000BF94F8EC0000F0010030B994F8EC0069
:104EC000C0F3400008B9002042E400BF94F8EC00B1
:104ED00000F0010080F001002076E089A08100BF91
:104EE00004F1D400FCF736FB0020A08100BF9449F8
:104EF000088094490880944908809449088094491E
:104F0000088094490880944908809449088000BF2B
:104F100094F8D80000F0010030B994F8D80020F0DF
:104F20000200801C84F8D80018218148FBF7C7F9DB
:104F30000FE5A08940F20B7188427DD1A089E08104
:104F400000BF0020C4F8EC0000BF0C2287A104F1D0
:104F50000800FCF74FF876490868FBF7C7F987B2F5
:104F600073483A46016804F10800FCF743F801224F
:104F7000AFF2307104F10800FCF73CF80222AFF206
:104F8000547104F10800FCF735F8002240F2357145
:104F9000204603F0AFFB00BF40F63700288000BF7B
:104FA00094F8EC0000F0010030B994F8EC00C0F384
:104FB000400008B9002051E400BF94F8EC0000F074
:104FC000010080F001002076207E012800D112E14E
:104FD0005748416902A8FDF70DFA00BF0020C4F848
:104FE000EC0000BF0B2265A104F10800FCF702F8F9
:104FF00002A8FBF77BF987B23A4602A904F1080040
:10500000FBF7F8FF0222AFF2DC7104F10800FBF7B6
:10501000F1FF002240F23671204603F06BFB00BF27
:1050200040F64600288000BF94F8EC0000F0010034
:1050300040B994F8EC0000E009E1C0F3400008B981
:1050400000200BE400BF94F8EC0000F0010080F0B9
:1050500001002076207E012800D1CCE000BF002096
:10506000C4F8EC0000BF0A2247A104F10800FBF7D6
:10507000C1FF2F494868FBF739F987B22C483A46F7
:10508000416804F10800FBF7B5FF0122AFF64C01BF
:1050900004F10800FBF7AEFF0222AFF6700104F145
:1050A0000800FBF7A7FF002240F23771204603F00B
:1050B00021FB00BF40F65500288000BF94F8EC00AB
:1050C00000F0010030B994F8EC00C0F3400008B9DA
:1050D000002010E400BF94F8EC0000F0010080F024
:1050E00001002076207E012800D184E000BF00204E
:1050F000C4F8EC0000BF0A2226A104F10800FBF767
:1051000079FF0B498868FBF7F1F887B208483A46FF
:10511000816804F10800FBF76DFF0122AFF6DC01A6
:105120003EE0000041542B4654504D4F44453D0055
:10513000A809002041542B46545053534C3D0000C5
:10514000B8000020BA000020BC000020BE000020F3
:10515000C0000020C2000020C4000020C6000020C3
:1051600041542B46545051554954000041542B464C
:105170005450534552563D220000000041542B46E6
:105180005450504F52543D0041542B465450554EAC
:105190003D22000041542B46545050573D22000000
:1051A00004F10800FBF726FF0222AFF6801104F19C
:1051B0000800FBF71FFF00224FF4E761204603F0D1
:1051C00099FA00BF40F66400288000BF94F8EC0014
:1051D00000F0010030B994F8EC00C0F3400008B9C9
:1051E00000200BE400BF94F8EC0000F0010080F018
:1051F0000100207600BFE089A08100BF04F1D40047
:10520000FCF7A8F90020A08100BFFE490880FE49F4
:105210000880FE490880FE490880FE490880FE4952
:105220000880FE490880FE49088000BF94F8D80035
:1052300000F0010030B994F8D80020F00200801C82
:1052400084F8D8001821F748FBF739F81DE4A08945
:1052500040F20D7188427CD1A089E08100BF00201E
:10526000C4F8EC0000BF0F22EFA104F10800FBF727
:10527000C1FEEC490868FBF739F887B2E9483A46BD
:10528000016804F10800FBF7B5FE0122AFF64C21DE
:1052900004F10800FBF7AEFE0222AFF6702104F124
:1052A0000800FBF7A7FE002240F23C71204603F005
:1052B00021FA00BF40F67700288000BF94F8EC0088
:1052C00000F0010030B994F8EC00C0F3400008B9D8
:1052D00000201CE400BF94F8EC0000F0010080F016
:1052E00001002076207E012800D1AFE000BF002021
:1052F000C4F8EC0000BF0F22CFA104F10800FBF7B7
:1053000079FEC8494868FAF7F1FF87B2C5483A46BE
:10531000416804F10800FBF76DFE0122AFF6DC21C5
:1053200004F10800FBF766FE0222AFF6003104F13B
:105330000800FBF75FFE002240F23D71204603F0BB
:10534000D9F900BF40F68700288000BF94F8EC0030
:1053500000E0A7E000F0010030B994F8EC00C0F3E1
:10536000400008B9002036E400BF94F8EC0000F0DB
:10537000010080F001002076207E012800D165E048
:1053800000BF0020C4F8EC0000BF0B22AEA104F166
:105390000800FBF72FFE0222AFF6703104F108007F
:1053A000FBF728FE002240F23E71204603F0A2F9EE
:1053B00000BF40F69500288000BF94F8EC0000F094
:1053C000010030B994F8EC00C0F3400008B90020A7
:1053D00098E400BF94F8EC0000F0010080F00100B8
:1053E0002076207E012800D130E000BF40F69E00EC
:1053F000288000BFED20005DC0F3401030B994F864
:10540000EC00C0F3400008B900207BE400BF01209D
:105410002076ED20005DC0F34010B0B194F8B400E8
:10542000012812D1B520005D01280ED1D020005DE9
:1054300020F00100401CD0210855D020005D20F054
:105440000200801C08550020207600BFE089A08162
:1054500000BF04F1D400FCF77DF80020A08100BF5C
:105460006849088068490880684908806849088058
:105470006849088068490880684908806849088048
:1054800000BF94F8D80000F0010030B994F8D800BB
:1054900020F00200801C84F8D80018216148FAF737
:1054A0000EFF94E2A08940F20C7188427DD1A08960
:1054B000E08100BF0020C4F8EC0000BFBC2001590F
:1054C00002A8FCF797FF0C2262A104F10800FBF789
:1054D00091FD02A8FAF70AFF87B23A4602A904F141
:1054E0000800FBF787FD0222AFF6C04104F1080077
:1054F000FBF780FD002240F23E71204603F0FAF8EF
:1055000000BF40F6BA00288000BF94F8EC0000F01D
:10551000010030B994F8EC00C0F3400008B9002055
:1055200033E400BF94F8EC0000F0010080F00100CB
:105530002076207EE8B9C0200159BC200059814264
:1055400002D1C020005928B9D020005D20F001010F
:10555000D0200155C8200159C02000590144C8205D
:1055600001513048C06820B1C02000592D49C96898
:105570000860E089A08100BF04F1D400FBF7EAFFD6
:105580000020A08100BF1F4908801F4908801F49D3
:1055900008801F4908801F4908801F4908801F494B
:1055A00008801F49088000BF00E010E094F8D80090
:1055B00000F0010030B994F8D80020F00200801CFF
:1055C00084F8D80018211748FAF779FE94E3A089E7
:1055D00040F20E7188427DD1A089E08100BF002099
:1055E000C4F8EC0000BF0D221EA104F10800FBF777
:1055F00001FD0222AFF6CC5104F10800FBF7FAFCE2
:10560000002237E0B8000020BA000020BC000020D3
:10561000BE000020C0000020C2000020C400002006
:10562000C6000020A809002041542B46545047458D
:1056300054504154483D220041542B465450474554
:10564000544E414D453D220041542B465450474550
:10565000543D310041542B4654504745543D322C63
:105660000000000041542B4654504745543D312C16
:105670003000000040F23E71204603F03BF800BFCE
:1056800040F6D200288000BF94F8EC0000F0010042
:1056900030B994F8EC00C0F3400008B9002013E4DE
:1056A00000BF94F8EC0000F0010080F001002076CB
:1056B000E089A08100BF04F1D400FBF74BFF00207C
:1056C000A08100BFFB490880FB490880FB49088096
:1056D000FB4900E01AE00880FA490880FA4908808E
:1056E000FA490880FA49088000BF94F8D80000F011
:1056F000010030B994F8D80020F00200801C84F832
:10570000D8001821F348FAF7DAFDF5E2A089B0F5E0
:10571000E26F7CD1A089E08100BF0020C4F8EC00DA
:1057200000BF0E22ECA104F10800FBF763FCE9497D
:105730008868FAF7DBFD87B2E6483A46816804F1EB
:105740000800FBF757FC0122AFF6087104F10800CE
:10575000FBF750FC0222AFF62C7104F10800FBF7B6
:1057600049FC002240F23F71204602F0C3FF00BF17
:1057700040F6E400288000BF94F8EC0000F001003F
:1057800030B994F8EC00C0F3400008B9002012E4EE
:1057900000BF94F8EC0000F0010080F001002076DA
:1057A000207E012800D1E7E000BF0020C4F8EC0013
:1057B00000BF0F22CCA104F10800FBF71BFCC54978
:1057C0000868FAF793FD87B2C2483A46016804F1C7
:1057D0000800FBF70FFC0122AFF6987104F10800F6
:1057E000FBF708FC0222AFF6BC7104F10800FBF7DE
:1057F00001FC002240F23A71204602F07BFF00BF1C
:1058000040F6F500288000BF94F8EC0000E0DFE0EF
:1058100000F0010030B994F8EC00C0F3400008B982
:1058200000200EE400BF94F8EC0000F0010080F0CE
:1058300001002076207E012800D19DE000BF0020DD
:10584000C4F8EC0000BF0F22ABA104F10800FBF785
:10585000D1FBA0494868FAF749FD87B29D483A460E
:10586000416804F10800FBF7C5FB0122A6A104F181
:105870000800FBF7BFFB0222A4A104F10800FBF71C
:10588000B9FB002240F23971204602F033FF00BF1D
:1058900040F60510288000BF94F8EC0000F00100ED
:1058A00030B994F8EC00C0F3400008B9002010E4CF
:1058B00000BF94F8EC0000F0010080F001002076B9
:1058C000207E012800D157E000BF0020C4F8EC0082
:1058D00000BF0B228EA104F10800FBF78BFB022214
:1058E0008AA104F10800FBF785FB002240F23B711E
:1058F000204602F0FFFE00BF40F61310288000BFD4
:1059000094F8EC0000F0010030B994F8EC00C0F31A
:10591000400008B9002064E400BF94F8EC0000F0F7
:10592000010080F001002076207E012800D123E0D4
:1059300000BF40F61C10288000BFED20005DC0F3C2
:10594000801030B994F8EC00C0F3400008B9002092
:1059500047E400BF01202076ED20005DC0F38010F9
:1059600048B194F8B400012805D1B520005D0128A4
:1059700001D10020207600BFE089A08100BF04F1A2
:10598000D400FBF7E7FD0020A08100BF4949088053
:10599000494908804949088049490880494908809F
:1059A00049490880494908804949088000BF94F85E
:1059B000D80000F0010030B994F8D80020F00200BF
:1059C000801C84F8D80018214248FAF778FC93E14B
:1059D000A08940F20F71884269D1A089E08100BF9F
:1059E000BC200159CC200059814202D9CC20005959
:1059F00001E0BC200059494908600846016802A836
:105A0000FCF7F8FC00BF0020C4F8EC0000BF0C223B
:105A100043A104F10800FBF7EDFA02A8FAF766FCCF
:105A200087B23A4602A904F10800FBF7E3FA022222
:105A300036A104F10800FBF7DDFA002240F23B71C9
:105A4000204602F057FE00BF40F63910288000BF04
:105A5000ED20005DC00930B994F8EC00C0F34000BF
:105A600008B9002035E400BFED20005DC009F8B1A1
:105A700000BF0020C4F8EC0000BF2848008882B2B4
:105A8000B820015904F10800FBF7B4FA00BF40F652
:105A90004210288000BF94F8EC0000F0010040B9EB
:105AA00094F8EC00C0F3400018B9002011E4BFE006
:105AB00074E03DE0B8000020BA000020BC000020E7
:105AC000BE000020C0000020C2000020C400002052
:105AD000C6000020A809002041542B4654505055C0
