:020000040800F2
:1000000098E6002069020008412200083922000811
:100010003D220008CB050008657D000800000000B7
:10002000000000000000000000000000AD0100081A
:10003000D106000800000000010200085D720008FF
:10004000830200088302000883020008830200087C
:10005000830200088302000883020008830200086C
:10006000830200088302000883020008D10500080B
:10007000E1050008F1050008010600081106000866
:100080002106000831060008830200080000000075
:1000900000000000000000000000000083020008D3
:1000A000830200088302000883020008830200081C
:1000B000830200088302000883020008830200080C
:1000C00083020008830200088302000883020008FC
:1000D00083020008E97C00080D7D00080000000094
:1000E0008302000883020008830200080000000069
:1000F00000000000000000000000000041060008B1
:100100000000000083020008830200088302000848
:1001100000000000000000000000000000000000DF
:1001200051060008610600087106000881060008F3
:100130009106000800000000000000000000000020
:100140000000000000000000000000008302000822
:10015000A1060008B1060008C1060008397D0008A4
:100160008302000883020008000000000000000075
:10017000000000000000000000000000000000007F
:1001800000000000830200080000000000000000E2
:100190008302000883020008DFF80CD000F00CF99D
:1001A00000480047E17F000898E600202B4B1968C3
:1001B0000868B0E8F04F80F30988BFF36F8F4FF005
:1001C000000080F3118870470000000006480068B6
:1001D000006880F3088862B661B6BFF34F8FBFF343
:1001E0006F8F00DF00BF00BF08ED00E0DFF80C00FC
:1001F000016841F470010160704700BF88ED00E0C4
:10020000EFF30980BFF36F8F144B1A681EF0100FC5
:1002100008BF20ED108A20E9F04F106008B44FF0BD
:10022000500080F31188BFF34F8FBFF36F8F08F03A
:1002300045FC4FF0000080F3118808BC196808687D
:10024000B0E8F04F1EF0100F08BFB0EC108A80F33A
:100250000988BFF36F8F704700BF00BFDC0000202C
:10026000EFF30580704700000648804706480047C6
:10027000FEE7FEE7FEE7FEE7FEE7FEE7FEE7FEE756
:10028000FEE7FEE7657200089901000840EA0103F5
:100290009B0703D009E008C9121F08C0042AFAD23C
:1002A00003E011F8013B00F8013B521EF9D2704700
:1002B000D2B201E000F8012B491EFBD270470022A8
:1002C000F6E710B513460A4604461946FFF7F0FF55
:1002D000204610BD10B5044604E00B7800F8013B41
:1002E00003B1491C521EF8D2204610BD421C10F822
:1002F000011B0029FBD1801A704710B5002200E0D5
:10030000521C835C8C5CA34201D1002BF8D1D8B283
:10031000E1B2401A10BD034611F8012B00F8012B81
:10032000002AF9D11846704730B50546002003462B
:1003300000E05B1C934205D2EC5CC85C201A01D142
:10034000002CF6D130BD000070B500B91068002552
:1003500012E00B4602E0A64203D05B1C1C78002C86
:10036000F9D1E3B22B4305D02CB125B1002100F81F
:10037000011B04E00546401C0678002EE9D1106000
:10038000284670BD004ADFE73801002030B50B4633
:10039000014600202022012409E021FA02F59D42B5
:1003A00005D303FA02F5491B04FA02F52844151E89
:1003B000A2F10102F1DC30BD064C074D06E0E06819
:1003C00040F0010394E8070098471034AC42F6D39C
:1003D000FFF7E6FE8C940008AC94000870B58C180A
:1003E00010F8015B15F0070301D110F8013B2A1149
:1003F00006D110F8012B03E010F8016B01F8016B36
:100400005B1EF9D12B0705D40023521E0DD401F831
:10041000013BFAE710F8013BCB1A921C03E013F8FA
:10042000015B01F8015B521EF9D5A142D8D300202F
:1004300070BD30B50146002409B9002030BD4A68BE
:100440008B689A4200D10C68934200D99C1A9A4258
:1004500002D9D51A0868441B601EEFE730B5034681
:100460000BB9002030BD59689A68914200D1002430
:10047000914200D98C1A8A4202D9551A1868441B35
:100480002046EFE770B504460D4616460CB901202C
:1004900070BD18212046FFF712FF2560E6600A2094
:1004A0006074E06868B9284607F0F2FDE060E06833
:1004B00018B9002020600120EAE7207C40F002000B
:1004C0002074207C40F0010020740020E0E72DE93A
:1004D000F0470446884615464FF0000904B115B9A7
:1004E0000020BDE8F0872168A068884201D3002081
:1004F000A0602046FFF7B2FF0746AF4203D20FB914
:100500000020EEE73D46A1682068461AAE4200D9B9
:100510002E46D4E90220811832464046FFF7B6FE47
:10052000B144A0683044A060AD1B35B108EB0900B0
:100530002A46E168FFF7AAFEA5602168A068884204
:1005400001D30020A06009EB0500CAE72DE9F047C0
:100550000446894615464FF0000804B115B900203D
:10056000BDE8F087D4E90010884201D30020606024
:100570002046FFF75EFF0746AF4203D20FB90020C7
:10058000EEE73D46D4E90001461AAE4200D92E46B8
:100590006268E168881832464946FFF777FEB04442
:1005A000606830446060AD1B35B109EB08012A4634
:1005B000E068FFF76BFE6560D4E90010884201D364
:1005C0000020606008EB0500CAE700BFFEE70000FE
:1005D00010B5024806F063FF10BD00001060024035
:1005E00010B5024806F05BFF10BD00002860024015
:1005F00010B5024806F053FF10BD000040600240F5
:1006000010B5024806F04BFF10BD000058600240D4
:1006100010B5024806F043FF10BD000070600240B4
:1006200010B5024806F03BFF10BD00008860024094
:1006300010B5024806F033FF10BD0000A060024074
:1006400010B5024806F02BFF10BD0000B860024054
:1006500010B5024806F023FF10BD000010640240F0
:1006600010B5024806F01BFF10BD000028640240D0
:1006700010B5024806F013FF10BD000040640240B0
:1006800010B5024806F00BFF10BD00005864024090
:1006900010B5024806F003FF10BD00007064024070
:1006A00010B5024806F0FBFE10BD00008864024051
:1006B00010B5024806F0F3FE10BD0000A064024031
:1006C00010B5024806F0EBFE10BD0000B864024011
:1006D0007047000070B504460D46164600BF1DB9B0
:1006E00000BF0320207170BD00BF00BFA08920B9EA
:1006F00094F8BC00C0F3400018B100BF0220207184
:10070000F1E700BF00BF04F1B80000F099FE08B1A6
:100710000420E8E7A08908B92068606140F22B70E6
:10072000A08100BF1148C56000BF4EB994F8BC005D
:1007300020F0010084F8BC0000BF00202071D2E747
:1007400094F8BC0020F00100401C84F8BC004FF479
:100750007A71204600F0F8FF0346042B00D1C2E76F
:10076000237E002020761846BDE700008C0900207B
:10077000034609B900207047488A18B9887DC0F33C
:10078000400008B10120F6E70020F4E72DE9F0472A
:1007900004460D4616461F46DDE9099ADDF820801D
:1007A00000BF0DB106B127B900BF03202071BDE81D
:1007B000F08700BF00BFA08920B994F8BC00C0F347
:1007C000400018B100BF02202071F0E700BF00BF59
:1007D00004F1B80000F034FE08B10420E7E7A08976
:1007E00008B92068606140F22C70A08100BF6E6083
:1007F0002F8100206881A5F814901648C560C0F8C4
:100800001080B8F1000F02D00020C8F8000000BF2F
:10081000BAF1000F09D194F8BC0020F0010084F86F
:10082000BC0000BF00202071C1E794F8BC0020F09C
:100830000100401C84F8BC004FF47A71204600F09F
:1008400083FF0346042B00D1B1E7237E00202076EE
:100850001846ACE78C0900202DE9F04704460D4608
:1008600016461F46DDE9088900BF0DB106B127B95C
:1008700000BF03202071BDE8F08700BF00BFA08942
:1008800020B994F8BC00C0F3400018B100BF0220AA
:100890002071F0E700BF00BF04F1B80000F0D0FD08
:1008A00008B10420E7E7A08908B92068606140F238
:1008B0002A70A08100BF1748C560C0F8108006608C
:1008C0004761B8F1000F02D00020C8F8000000BF57
:1008D000B9F1000F09D194F8BC0020F0010084F8B0
:1008E000BC0000BF00202071C5E794F8BC0020F0D8
:1008F0000100401C84F8BC0042F21071204600F058
:1009000023FF0346042B00D1B5E7237E0020207689
:100910001846B0E78C0900202DE9F04704460D4643
:1009200017461E46DDE9088900BF05B126B900BF9C
:1009300003202071BDE8F08700BF00BFA08920B967
:1009400094F8BC00C0F3400018B100BF0220207131
:10095000F0E700BF00BF04F1B80000F071FD08B17E
:100960000420E7E7A08908B92068606140F2297097
:10097000A08100BF1948C56006601FB918A01749BB
:10098000486002E017A0154948601448C0F8148078
:100990000020287000BFB9F1000F09D194F8BC0005
:1009A00020F0010084F8BC0000BF00202071C1E7E6
:1009B00094F8BC0020F00100401C84F8BC004FF407
:1009C0007A71204600F0C0FE0346042B00D1B1E747
:1009D000237E002020761846ACE700008C0900201A
:1009E000544350005544500070B504460D461CB9A0
:1009F00003A007F0B9F900E000BF00BF002070BD00
:100A0000537461636B2069732049444C45210D0A7E
:100A100000000000024600207047000070B5044648
:100A20000D46034E2A4621463046FFF78FFD70BD26
:100A3000F006002008B502461068009000BF10685C
:100A4000009BC01A8842FAD300BF0020107108BD75
:100A50002DE9F04104460F4615461E46DDF8188084
:100A600000BF27B900BF03202071BDE8F08100BF9F
:100A700000BFA08920B994F8BC00C0F3400018B1B1
:100A800000BF02202071F0E700BF00BF04F1B800F2
:100A900000F0D6FC08B10420E7E7A08908B9206877
:100AA000606140F20270A08100BF1B480760002017
:100AB0001949486088602DB12846FFF717FC08B136
:100AC000154845602EB13046FFF710FC08B11248BA
:100AD000866000BFB8F1000F09D194F8BC0020F087
:100AE000010084F8BC0000BF00202071BDE794F82D
:100AF000BC0020F00100401C84F8BC0007492046DF
:100B000000F022FE0346042B00D1AEE7237E002036
:100B100020761846A9E700008C09002020BF0200BB
:100B200070B504460D4600BFA08920B994F8BC00FA
:100B3000C0F3400018B100BF0220207170BD00BF9B
:100B400000BF04F1B80000F07BFC08B10420F5E719
:100B5000A08908B92068606140F20370A08100BFDD
:100B600000BF4DB994F8BC0020F0010084F8BC002F
:100B700000BF00202071E1E794F8BC0020F00100E4
:100B8000401C84F8BC004FF47A71204600F0DCFD74
:100B90000346042B00D1D1E7237E0020207618469F
:100BA000CCE700002DE9F04705460E46174698466B
:100BB0003224DFF82093C8480560D4210068FFF78D
:100BC0007EFBC5480068C0F8C080C3480068D0F804
:100BD000C00020B9C148C0490968C1F8C000002060
:100BE000BD49096881F86C000621BB48006880F89F
:100BF00044100020B84909680860B94A4FF40071F0
:100C00004846FFF73FFCB44800688760B248006878
:100C1000083000F079F930B100BF0720AE4909680B
:100C20000871BDE8F0870121AB480068083000F08A
:100C30009BF90A21A8480068FFF7FCFE0021A6489E
:100C40000068083000F090F9A3480068B83000F060
:100C5000D9FB28B100BF06209F4909680871E0E769
:100C60000020A0490880A0490880A0490880A04928
:100C70000880A0490880A0490880A0490880A049B0
:100C800008809548006890F8BC0020F00100401CE6
:100C90009149096881F8BC004FF47A708E4909685F
:100CA000C86100BF00BF8C480068B83000F0C8FBC6
:100CB00008B10420B5E788480068808928B98648CB
:100CC000006800688449096848610520824909680C
:100CD000888100BF4FF47A717F48006800F034FDCE
:100CE0007D480068007E00B903E0201EA4F10104E5
:100CF000D8D100BF00BF00BF77480068B83000F00F
:100D00009FFB08B104208CE773480068808928B9EC
:100D100071480068006870490968486104206E499C
:100D20000968888100BF4FF47A716B48006800F051
:100D30000BFD69480068007E00B903E0201EA4F1A5
:100D40000104D8D100BF00BF00BF63480068B830BD
:100D500000F076FB08B1042063E75F4800688089F3
:100D600028B95D48006800685B490968486102204D
:100D700059490968888100BF4FF47A715648006864
:100D800000F0E2FC54480068007E00B903E0201E39
:100D9000A4F10104D8D100BF00BF00BF4E480068D5
:100DA000B83000F04DFB08B104203AE74A4800682B
:100DB000808928B94848006800684749096848613F
:100DC000032045490968888100BF4FF47A71424881
:100DD000006800F0B9FC40480068007E00B903E0FC
:100DE000201EA4F10104D8D100BF00BF4548066011
:100DF00000BF39480068B83000F022FB08B1042079
:100E00000FE735480068808928B9334800680068D2
:100E100031490968486140F201102F490968888109
:100E200000BF4FF47A712C48006800F08DFC2A480E
:100E30000068007E00B908E0642127480068FFF7D9
:100E4000F9FD201EA4F10104D0D100BF22480068A2
:100E500090F8BC0020F001001F49096881F8BC002F
:100E600000BF1D480068B83000F0DCFA00201A49C5
:100E7000096888811B4908801B4908801B49088034
:100E80001B4908801B4908801B4908801B490880B2
:100E90001B4908801048006890F8BC0000F0010071
:100EA00050B90D48006890F8BC0020F00200801C8A
:100EB0000949096881F8BC0018211248FFF7FFF9B9
:100EC00000BF00BF04480068007E28710248006827
:100ED000007EA6E6F0060020B4000020150A0008F7
:100EE00008070020B8000020BA000020BC00002045
:100EF000BE000020C0000020C2000020C40000206E
:100F0000C60000208C0900201CB5044600210D48B5
:100F1000226806F087FD0020012103460A46CDE93C
:100F200000100221084806F069FB00200121034659
:100F30000A46CDE900100821034806F05FFB0020B7
:100F40001CBD0000001001400000024070B50646C4
:100F50000C4615462A462146024806F09CFD002014
:100F600070BD0000001001400246012903D1480471
:100F7000034B986102E00220014B9861002070470A
:100F8000000002401FB50024574B4FF4E13257A137
:100F90005848FFF707FE0546294657A006F0E4FE2D
:100FA000A0E0544800F094F906F0FCF90028F7D0CE
:100FB00001204FA34EA256A100904E48FFF748FDD6
:100FC0005649087000286ED155A006F0CDFE0120CC
:100FD000502157A30022CDE900105B494548FFF797
:100FE0009BFC4E49087000285AD158A006F0BCFE60
:100FF00001205C4952235C4ACDE9001052493D482A
:10100000FFF72AFC45490870002843D13948006899
:1010100003905448016855A006F0A6FE00BF0122C7
:1010200049493448FFF7A4FBD8B101200A215B4AA3
:101030004FF47A73CDE900210290594A42492D4874
:10104000FFF7A4FB40B95548016856A006F08CFE96
:1010500028480068039004E03048017858A006F062
:1010600083FE244800680399401AB0F5FA6FD6D37E
:10107000012235491F48FFF72DFB2849087018B990
:1010800058A006F071FE04E0244801785BA006F049
:101090006BFE0CE02148017862A006F065FE06E0D8
:1010A0001E48017800E013E068A006F05DFE012113
:1010B0001048FFF735FD1949087018B96EA006F001
:1010C00053FE0AE0154801786FA006F04DFE04E0DB
:1010D0001248017876A006F047FE0CB9012000E026
:1010E000002004465DE70000E9090008313233348E
:1010F000000000001C02002047534D20496E697417
:10110000207374617475733A2025640D0A00000021
:10111000696E7465726E65740000000048000020FE
:10112000475052532041747461636865640D0A002E
:1011300073746D333266342D646973636F766572D0
:10114000792E6E6574000000F0020020436F6E6E11
:10115000656374656420746F2073657276657221AF
:101160000D0A0000A40000205000002044617461BA
:101170002073656E7420746F2073657276657221BA
:10118000204E756D626572206F662062797465739A
:101190002073656E743A2025640D0A004C0000200F
:1011A0000803002052656365697665642025642024
:1011B0006279746573206F6620646174610D0A0042
:1011C0004572726F7220747279696E6720746F2035
:1011D0007265636569766520646174613A2025648F
:1011E0000D0A0000436F6E6E656374696F6E206355
:1011F0006C6F736564210D0A000000004572726F08
:101200007220747279696E6720746F20636C6F73DB
:101210006520636F6E6E656374696F6E3A20256436
:101220000D0A00004572726F7220747279696E67E0
:1012300020746F20636F6E6E65637420746F20730B
:1012400065727665723A2025640D0A00436F756CED
:1012500064206E6F742065786563757465207265AF
:10126000717565737420746F207365727665723A58
:101270002025640D0A000000475052532044657435
:1012800061636865640D0A0050726F626C656D730E
:1012900020747279696E6720746F2064657461636D
:1012A0006820475052533A2025640D0A0000000080
:1012B000436F756C64206E6F742061747461636831
:1012C00020746F20475052533A2025640D0A0000C5
:1012D00070B50446A08978B994F8BC00C0F340000A
:1012E00050B114F8BC0F20F0020020706268BC3CC2
:1012F00004F1C40100209047A089C8B994F8BC004B
:10130000C0F34000A0B9BD20005DC0F3800078B1FB
:10131000BD20005D20F00401BD20015504F1420014
:10132000C4F8C400D4F8C02004F1C40104209047DC
:10133000A089C8B994F8BC00C0F34000A0B9BD2092
:10134000005DC0F3C00078B1BD20005D20F0080151
:10135000BD20015504F14200C4F8C400D4F8C020F7
:1013600004F1C40105209047A089A8B994F8BC00F5
:10137000C0F3400080B9BD20005DC0F3400058B10B
:10138000BD20005D20F00201BD200155D4F8C02031
:1013900004F1C4010620904700252DE004F17400FB
:1013A00050F8250000B925E0A08910BB94F8BC00D6
:1013B000C0F34000E8B904F1740050F82500807DC6
:1013C000C0F38000A8B104F1740151F8251001F1B7
:1013D0001600897D21F00401017004F1740050F8B9
:1013E0002500C4F8C400D4F8C02004F1C4010120D1
:1013F000904700BF681CC5B2062DCFDB00BF0020A0
:10140000207170BD10B50446204606F07CFE0449EC
:1014100008600846006808B9012010BD0020FCE7FC
:10142000D800002010B504460448006806F072FE9B
:1014300008B1012010BD0020FCE70000D80000200A
:1014400010B504464FF47A710448006806F08AFE2D
:1014500008B1012010BD0020FCE70000D8000020EA
:10146000F8B50446AB4D4FF4FA76A08960B1206818
:101470006169401AE169884206D994F8D00020F0E9
:101480000200801C84F8D00036E1A08940F231715E
:1014900088421FD1BD20005DC0F38010D0B19DF8FF
:1014A0000030AC210859411CAC2211519821095936
:1014B0000B54B0200059401EB0210851B0200059F3
:1014C000002806D1BD20005D20F04001BD2001555F
:1014D000002609E1A08940F22C71884222D1BD206A
:1014E000005DC0F34010E8B18B49C8689DF800204A
:1014F0004389591C41814168CA54018A491E0182AD
:10150000018A71B9BD21095D21F02002BD210A5572
:10151000817D21F002018175817D21F004018175B9
:101520000026E1E0A08940F20221884240D1BD209E
:10153000005D00F00100D0B37749C86890F8A310AF
:101540009F2909D29DF8002010F8A33F0178491C7B
:1015500000F8A319C11CCA549DF800100A2925D10E
:101560006E4909780D2921D190F8A31002291DDBBD
:1015700090F8A310891EC21C515C0D290AD190F865
:10158000A310491E515C0A2904D190F8A310891EAA
:1015900080F8A310002290F8A330C11CCA54BD21CA
:1015A000095D21F00102BD210A5500269CE0FFE7FC
:1015B000A08940F20521884250D1BD20005D00F095
:1015C000010000284AD054480069008852494969FE
:1015D000884233D25049C8689DF8002010F8A33FD4
:1015E0000178491C00F8A319C11CCA549DF80010C9
:1015F0000A2922D1494909780D291ED190F8A31052
:1016000002291ADB10F8A31F891E0170002210F8AE
:10161000A339C11CCA544049C968D4313E4AD1607B
:10162000114609690988491C12691180BD21095DAB
:1016300021F00102BD210A55002655E09DF8000069
:101640000A2851D1354800780D284DD1BD20005DC4
:1016500020F00101BD200155002645E09DF8000065
:101660000A281BD100BF9DF800102D480278007891
:10167000401C2B4B1870581C81540021401E0278CE
:10168000401C815400BF411E204605F06BF900BF8D
:10169000002023490870487000BF24E09DF8000036
:1016A00020280ED11D4800783E280AD11D48007818
:1016B0000A2806D194F8D00020F00400001D84F818
:1016C000D00000BF9DF80010154802780078401C3B
:1016D000134B1870581C81540021401E0278401C86
:1016E000815400BF00BF00BF0C4800780D4908704E
:1016F0009DF80000094908703EB10122694628465C
:10170000FEF7E5FE00287FF4C0AE204605F02AFD76
:10171000F8BD0000F00600208C090020D500002054
:1017200009090020D6000020024610680844106015
:1017300000BF00201071704702E00248FFF790FEE2
:10174000FBE700001C0200200246D16100BF908927
:101750000028FCD192F8BC00C0F340000028F6D16C
:1017600000BF107E1071107E7047000001480068B5
:10177000704700000400002010B52E480068401C8F
:101780002C4908602C48006820B12B480068401E96
:1017900029490860002444E0284850F82400002823
:1017A0003DD0264850F824000078C0F34000B0B384
:1017B000224850F82400806840B1204850F82400A6
:1017C0008068401E1D4951F8241088601B4850F85D
:1017D0002400806818BB194B53F824301969174B43
:1017E00053F8240053F82430DA689047134850F82F
:1017F00024004168114850F8240081600F4850F8D7
:101800002400007800F0010048B90C4850F824008A
:10181000007820F00201094850F824000170601C93
:10182000C4B20648001F0078A042B5DC05F07EFD7A
:1018300010BD00000400002000000020680100200E
:1018400010B50D48006840F400700B490860084668
:10185000006840F4806008600846006840F48070CA
:101860000860032000F086F80F2000F007F800F071
:1018700017F8002010BD0000003C024070B504467F
:1018800000F0E4F94FF47A71B0FBF1F5284600F06E
:1018900081FC00222146501E00F02DF8002070BD72
:1018A0007047000000BF00F01F0201219140034A71
:1018B000430942F8231000BF7047000080E200E0B7
:1018C00000BF00F01F0201219140034A430942F882
:1018D000231000BF7047000080E100E000BF00F06F
:1018E0001F02012191404209920002F1E022C2F858
:1018F000001100BF70472DE9F05F80460D46164687
:10190000002700F09FFC074639462A46334601F07F
:101910000700C0F1070ABAF1040F02D94FF0040A18
:1019200001E0C0F1070AD14600F1040ABAF1070F3D
:1019300002D24FF0000A01E0A0F1030AD4464FF0B2
:10194000010A0AFA09FAAAF1010A0AEA020A0AFADB
:101950000CFA4FF0010B0BFA0CFBABF1010B0BEA8D
:10196000030B4AEA0B042146404600F073FCBDE835
:10197000F09F000000BF00F00702064B19684FF609
:10198000FF031940044B0B4343EA0221014B19604A
:1019900000BF70470CED00E00000FA0570B504468A
:1019A0000E460025A748006800F00F00B0426FD235
:1019B000A4490E700846006800F00F00B04201D044
:1019C000012070BD207800F00200022807D19E4857
:1019D000006820F0F000A16808439B490860207867
:1019E00000F0010000283ED06068012807D1964829
:1019F00008380068C0F34040B8B90120E1E76068EA
:101A0000022802D06068032807D18F480838006890
:101A1000C0F3406048B90120D3E78B48083800681C
:101A2000C0F3400008B90120CBE78748006820F0E8
:101A300003006168084384490860FFF797FE054684
:101A40006068012810D108E0FFF790FE401B41F2CA
:101A50008831884201D90320B3E77B48006800F051
:101A60000C000428F0D1CDE06068022811D108E014
:101A7000FFF77CFE401B41F28831884201D90320E8
:101A80009FE77148006800F00C000828F0D1B9E029
:101A900024E06068032810D108E0FFF767FE401BD0
:101AA00041F28831884201D903208AE766480068FC
:101AB00000F00C000328F0D1A4E008E0FFF756FE88
:101AC000401B41F28831884201D9032079E75E4802
:101AD000006800F00C000028F0D193E0207800F0BE
:101AE0000200022807D15848006820F0F000A168E1
:101AF000084355490860207800F00100002877D09D
:101B00006068012807D1504808380068C0F3404099
:101B1000B8B9012055E76068022802D06068032840
:101B200007D1494808380068C0F3406048B901202F
:101B300047E7454808380068C0F3400008B901206D
:101B40003FE74148006820F00300616808433E49D0
:101B50000860FFF70BFE05466068012810D108E019
:101B6000FFF704FE401B41F28831884201D903206F
:101B700027E73548006800F00C000428F0D137E072
:101B80006068022810D108E0FFF7F0FD401B41F229
:101B90008831884201D9032013E72B48006800F000
:101BA0000C000828F0D123E06068032810D108E079
:101BB000FFF7DCFD401B41F28831884201D9032048
:101BC000FFE62148006800F00C000328F0D10FE088
:101BD00008E0FFF7CBFD401B41F28831884201D974
:101BE0000320EEE61848006800F00C000028F0D151
:101BF00014490E700846006800F00F00B04201D092
:101C00000120DEE6207800F00400042807D10E4809
:101C1000006820F4E050E16808430B490860207830
:101C200000F00800082808D10748006820F4604048
:101C3000216940EAC100044908600F20FFF71EFE39
:101C40000020BEE6003C02400838024010B500F01B
:101C500045F80949096801F0F001F02292FAA2F270
:101C6000B2FA82F2D140054A515CC840044908608A
:101C70000846006810BD000008380240289400089B
:101C8000B000002010B5FFF7E1FF0749096801F433
:101C9000E0514FF4E05292FAA2F2B2FA82F2D1404D
:101CA000024A515CC84010BD083802402894000820
:101CB00010B5FFF7CBFF0749096801F460414FF405
:101CC000604292FAA2F2B2FA82F2D140024A515C28
:101CD000C84010BD083802402894000870B50021A3
:101CE000002200230020274C246804F00C0424B1B7
:101CF000042C04D0082C41D103E0234840E02348C1
:101D00003EE0204C241F246804F03F011D4C241F9A
:101D1000246804F4800484B11C4CB4FBF1F5194C24
:101D2000241F246847F6C076344096FAA6F6B6FA21
:101D300086F6F44005FB04F20FE0134CB4FBF1F51A
:101D4000104C241F246847F6C076344096FAA6F655
:101D5000B6FA86F6F44005FB04F20A4C241F246808
:101D600004F440344FF4403595FAA5F5B5FA85F5FD
:101D7000EC40641C6300B2FBF3F001E0024800BFDA
:101D800000BF70BD083802400024F40000127A0041
:101D900038B504460025207800F00100002866D000
:101DA000F648006800F00C0004280DD0F3480068E5
:101DB00000F00C00082813D1F048001F006800F460
:101DC0008000B0F5800F0BD1EC4808380068C0F3F4
:101DD000404000284BD06068002848D1012038BD21
:101DE0000020E649891F0870FFF7C0FC054608E09F
:101DF000FFF7BCFC401B41F28831884201D9032027
:101E0000EDE7DE4808380068C0F340400028EFD115
:101E10002079DA49891F08706068A0B1FFF7A6FC35
:101E2000054608E0FFF7A2FC401B41F288318842DA
:101E300001D90320D3E7D14808380068C0F34040F7
:101E40000028EFD013E0FFF791FC054608E0FFF70C
:101E50008DFC401B41F28831884201D90320BEE746
:101E6000C64808380068C0F340400028EFD1207809
:101E700000F00200022869D1C048006800F00C00A0
:101E800058B1BE48006800F00C00082821D1BB48BA
:101E9000001F006800F48000D8B9B848083800680E
:101EA000C0F3400020B1E068012801D0012096E78E
:101EB000B2480838006820F0F800F82292FAA2F23E
:101EC000B2FA82F2216991400843AC4908390860AE
:101ED0003CE0E06828B30120A9490860FFF746FC10
:101EE000054606E0FFF742FC401B642801D90320A9
:101EF00075E7A24808380068C0F340000028F1D018
:101F00009E480838006820F0F800F82292FAA2F201
:101F1000B2FA82F221699140084398490839086071
:101F200014E0002096490860FFF720FC054606E013
:101F3000FFF71CFC401B642801D903204FE78F48A2
:101F400008380068C0F340000028F1D1207800F084
:101F5000080008282CD16069A8B1012089490860CF
:101F6000FFF704FC054606E0FFF700FC401B642871
:101F700001D9032033E781486C300068C0F340008A
:101F80000028F1D014E000207E490860FFF7EEFB46
:101F9000054606E0FFF7EAFB401B642801D9032051
:101FA0001DE776486C300068C0F340000028F1D18E
:101FB000207800F0040004286DD100BF6F4838304D
:101FC000006840F080506D4938310860084600686C
:101FD00000F08050009000BF00BF6B48006840F4E4
:101FE000807069490860FFF7C1FB054606E0FFF70E
:101FF000BDFB401B642801D90320F0E6624800685D
:1020000000F480700028F2D000205C49683108702C
:10201000FFF7ACFB054608E0FFF7A8FB401B41F2C9
:102020008831884201D90320D9E6544868300068D5
:10203000C0F340000028EFD1207A50496831087081
:10204000A068A0B1FFF792FB054608E0FFF78EFB02
:10205000401B41F28831884201D90320BFE647483E
:1020600068300068C0F340000028EFD013E0FFF7AD
:102070007DFB054608E0FFF779FB401B41F2883104
:10208000884201D90320AAE63C4868300068C0F3C2
:1020900040000028EFD1A069F0B33848006800F094
:1020A0000C00082872D0A069022850D100203449C1
:1020B0000866FFF75BFB054606E0FFF757FB401B92
:1020C000642801D903208AE62C4808380068C0F348
:1020D00040600028F1D1D4E90701084347F6C072F7
:1020E00092FAA2F2B2FA82F2616A914008430122A6
:1020F000A16AC2EB51014FF4403292FAA2F2B2FA55
:1021000082F2914008434FF0706292FAA2F2B2FA62
:1021100082F2E16A914000E03AE008431749091F62
:102120000860012016490866FFF720FB054606E017
:10213000FFF71CFB401B642801D903204FE60F4822
:1021400008380068C0F340600028F1D020E000208B
:102150000B490866FFF70AFB054606E0FFF706FB9A
:10216000401B642801D9032039E604480838006878
:10217000C0F340600028F1D10AE007E008380240CF
:1021800000004742800E474200700040012026E6D2
:10219000002024E670B504462546681EB0F1807F15
:1021A00001D301200FE0681E4FF0E02148610F21AC
:1021B0004FF0FF3000F04EF800204FF0E021886132
:1021C00007200861002070BD10B504460CB901203D
:1021D00010BDA06900B100E000BF94F8390028B933
:1021E000002084F83800204600F025F8022084F80A
:1021F00039002068C06820F400502168C86020467B
:1022000005F060FC2068006920F4904021680861B6
:102210002068406920F02A00216848612068C06871
:1022200040F400502168C8600020E063012084F879
:1022300039000020CCE7704700BFFEE700BFFEE793
:102240007047000002480068C0F302207047000099
:102250000CED00E010B5002807DA0A07140E054A55
:1022600000F00F031B1FD45403E00A07130E024AA9
:10227000135410BD18ED00E000E400E070B5054611
:102280000C46224602A1284605F07EFD70BD0000E6
:10229000256400007CB505460C462888B0F5866F9D
:1022A0007ED008DC80B1A0F20C4038B30A2878D088
:1022B000182877D10EE1A0F23D40002873D00B28FA
:1022C00072D01628F5D1BBE294F86C00012855D0E5
:1022D00000BF0020C4F8D00000BF0822FEA104F116
:1022E0000800FEF733FE0222FEA104F10800FEF70B
:1022F0002DFE00BF40F20C40288000BF94F8D000B3
:1023000000F0010030B994F8D000C0F3400008B9E3
:1023100000207CBD00BF94F86C0001282ED008205E
:10232000207600BF04F1B800FFF77CF80020A08100
:10233000ED490880ED490880ED490880ED490880A5
:10234000ED490880ED490880ED490880ED49088095
:1023500094F8BC0000F0010030B994F8BC0020F003
:102360000200801C84F8BC001821E748FDF7A7FF95
:1023700000BF00BF002028800220CAE7A08940F2E9
:102380000131884270D100BF0020C4F8D00000BFE6
:102390000322DEA104F10800FEF7D8FDDA4904E0CB
:1023A00001E124E089E26AE1EDE10868FDF79EFFC2
:1023B00086B2D5483246016804F10800FEF7C6FD32
:1023C0000122D3A104F10800FEF7C0FD0222C5A13D
:1023D00004F10800FEF7BAFD002240F20131204668
:1023E00004F034FF00BF40F21640288000BF94F88C
:1023F000D00000F0010030B994F8D000C0F34000E4
:1024000008B9002085E700BF94F8D00000F0010073
:1024100080F00100207600BF04F1B800FFF702F859
:102420000020A081B0490880B0490880B0490880E8
:10243000B0490880B0490880B0490880B049088098
:10244000B049088094F8BC0000F0010030B994F85D
:10245000BC0020F00200801C84F8BC001821AA48AF
:10246000FDF72DFF28E2FFE7A08940F20531884201
:102470006CD100BF0020C4F8D00000BFA248416961
:102480006846FFF7FBFE0922A2A104F10800FEF74F
:102490005DFD6846FDF72AFF86B23246694604F1C3
:1024A0000800FEF753FD012299A104F10800FEF790
:1024B0004DFD02228BA104F10800FEF747FD00222A
:1024C00040F20531204604F0C1FE00BF40F2244036
:1024D000288000BF94F8D00000F0010030B994F8D3
:1024E000D000C0F3400008B9002012E700BF94F804
:1024F000D00000F0010080F00100207600BF04F160
:10250000B800FEF78FFF0020A08177490880774947
:10251000088077490880774908807749088077499B
:102520000880774908807749088094F8BC0000F05B
:10253000010030B994F8BC0020F00200801C84F83F
:10254000BC0018217048FDF7BAFEB5E1A08940F241
:102550000231884263D100BF0020C4F8D00000BF20
:1025600003226AA104F10800FEF7F0FC664908683E
:10257000FDF7BCFE86B264483246016804F10800EB
:10258000FEF7E4FC022257A104F10800FEF7DEFC8E
:10259000002240F20231204604F058FE00BF4FF402
:1025A0008660288000BF94F8D00000F0010030B9A8
:1025B00094F8D000C0F3400008B90020A9E600BF9D
:1025C00094F8D00000F0010080F00100207600BFF8
:1025D00004F1B800FEF726FF0020A08142490880E0
:1025E000424908804249088042490880424908809F
:1025F00042490880424908804249088094F8BC005A
:1026000000F0010030B994F8BC0020F00200801CFA
:1026100084F8BC0018213C48FDF751FE4CE1A0892C
:1026200040F20631884256D100BF0020C4F8D000E5
:1026300000BF354841696846FFF720FE092235A1F1
:1026400004F10800FEF782FC6846FDF74FFE86B2F3
:102650003246694604F10800FEF778FC022221A107
:1026600004F10800FEF772FC002240F20631204619
:1026700004F0ECFD00BF40F23D40288000BF94F81C
:10268000D00000F0010030B994F8D000C0F3400051
:1026900008B900203DE600BF94F8D00000F001002A
:1026A00080F00100207600BF04F1B800FEF7BAFE0A
:1026B0000020A0810C4908800C4908800C49088042
:1026C0000C4908800C4908800C4908800C49088096
:1026D0000C49088024E034E041542B4350494E3FDC
:1026E000000000000D0A0000B8000020BA00002021
:1026F000BC000020BE000020C0000020C20000205E
:10270000C4000020C60000208C0900204154440071
:102710003B0000004154443E22534D222000000063
:1027200094F8BC0000F0010030B994F8BC0020F02F
:102730000200801C84F8BC0018216248FDF7BFFD30
:10274000BAE0A08940F20331884258D100BF00208E
:10275000C4F8D00000BF03225BA104F10800FEF71B
:10276000F5FB0222AFF2840104F10800FEF7EEFB54
:10277000002240F20331204604F068FD00BF4FF410
:102780008960288000BF94F8D00000F0010030B9C3
:1027900094F8D000C0F3400008B90020B9E500BFAC
:1027A00094F8D00000F0010080F00100207600BF16
:1027B00004F1B800FEF736FE0020A08143490880EE
:1027C00043490880434908804349088043490880B9
:1027D00043490880434908804349088094F8BC0075
:1027E00000F0010030B994F8BC0020F00200801C19
:1027F00084F8BC0018213348FDF761FD5CE0A08936
:10280000B0F5417F58D100BF0020C4F8D00000BF10
:10281000032236A104F10800FEF798FB0222AFF272
:102820003C1104F10800FEF791FB00224FF44171C6
:10283000204604F00BFD00BF40F25340288000BF4B
:1028400094F8D00000F0010030B994F8D000C0F343
:10285000400008B900205CE500BF94F8D00000F00B
:10286000010080F00100207600BF04F1B800FEF7FF
:10287000D9FD0020A0811549088015490880154917
:1028800008801549088015490880154908801549B0
:1028900008801549088094F8BC0000F0010030B9A8
:1028A00094F8BC0020F00200801C84F8BC001821C1
:1028B0000448FDF704FD00BF00BF00BF00202880D2
:1028C000032026E58C09002041544100B800002077
:1028D000BA000020BC000020BE000020C000002084
:1028E000C2000020C4000020C6000020415448005F
:1028F00070B505460C46288820B1A0F24750002844
:102900005ED120E0A08940F20161884257D100BF2A
:102910000020C4F8D00000BF08222CA104F1080058
:10292000FEF714FB02222CA104F10800FEF70EFBB7
:10293000002240F20161204604F088FC00BF40F212
:102940004750288000BF94F8D00000F0010030B953
:1029500094F8D000C0F3400008B9002070BD00BF5B
:1029600094F8D00000F0010080F00100207600BF54
:1029700004F1B800FEF756FD0020A0811749088039
:1029800017490880174908801749088017490880A7
:1029900017490880174908801749088094F8BC0037
:1029A00000F0010030B994F8BC0020F00200801C57
:1029B00084F8BC0018211148FDF781FC00BF00BF5E
:1029C00000BF002028800320C8E7000041542B43AB
:1029D000434C4B3F000000000D0A0000B8000020EF
:1029E000BA000020BC000020BE000020C000002073
:1029F000C2000020C4000020C60000208C09002076
:102A000070B505460C46288840F24932811A90423A
:102A10007ED006DC50B1A0F2333028B30B2878D139
:102A200080E00B2976D01629F9D189E1A089052803
:102A300056D100BF0020C4F8D00000BF0222E1A19F
:102A400004F10800FEF782FA0222DFA104F1080077
:102A5000FEF77CFA00220421204604F0F7FB00BFB9
:102A600040F23330288000BF94F8D00000F001001D
:102A700030B994F8D000C0F3400008B9002070BD10
:102A800000BF94F8D00000F0010080F00100207633
:102A900000BF04F1B800FEF7C5FC0020A081CB49BF
:102AA0000880CB490880CB490880CB490880CB49B6
:102AB0000880CB490880CB490880CB49088094F82E
:102AC000BC0000F0010030B994F8BC0020F0020016
:102AD000801C84F8BC001821C448FDF7F0FB6BE1B2
:102AE000A08904285AD100BF0020C4F8D00000BF3C
:102AF0000422BFA104F10800FEF728FA0222B2A1C5
:102B000004F10800FEF722FA00220421204602E028
:102B100062E052E1BAE004F099FB00BF40F23E30BF
:102B2000288000BF94F8D00000F0010030B994F87C
:102B3000D000C0F3400008B90020A0E700BF94F81F
:102B4000D00000F0010080F00100207600BF04F109
:102B5000B800FEF767FC0020A0819C4908809C49D2
:102B600008809C4908809C4908809C4908809C49B1
:102B700008809C4908809C49088094F8BC0000F0BB
:102B8000010030B994F8BC0020F00200801C84F8E9
:102B9000BC0018219548FDF792FB0DE1A0890128A2
:102BA00056D100BF0020C4F8D00000BF112292A16E
:102BB00004F10800FEF7CAF9022283A104F108001B
:102BC000FEF7C4F900220121204604F03FFB00BFBC
:102BD00040F24930288000BF94F8D00000F0010096
:102BE00030B994F8D000C0F3400008B9002046E79F
:102BF00000BF94F8D00000F0010080F001002076C2
:102C000000BF04F1B800FEF70DFC0020A0816F4961
:102C100008806F4908806F4908806F4908806F49B4
:102C200008806F4908806F4908806F49088094F8D0
:102C3000BC0000F0010030B994F8BC0020F00200A4
:102C4000801C84F8BC0018216848FDF738FBB3E00D
:102C5000A089022856D100BF0020C4F8D00000BFD0
:102C600009226AA104F10800FEF770F9022256A1B8
:102C700004F10800FEF76AF900220221204604F060
:102C8000E5FA00BF4FF45570288000BF94F8D000DB
:102C900000F0010030B994F8D000C0F3400008B94A
:102CA0000020ECE600BF94F8D00000F0010080F0B6
:102CB0000100207600BF04F1B800FEF7B3FB00204E
:102CC000A08142490880424908804249088042491F
:102CD00008804249088042490880424908804249A8
:102CE000088094F8BC0000F0010030B994F8BC00F2
:102CF00020F00200801C84F8BC0018213B48FDF73E
:102D0000DEFA59E0A089032856D100BF0020C4F89C
:102D1000D00000BF092240A104F10800FEF716F917
:102D2000022229A104F10800FEF710F90022032174
:102D3000204604F08BFA00BF40F25F30288000BFCD
:102D400094F8D00000F0010030B994F8D000C0F33E
:102D5000400008B9002092E600BF94F8D00000F0CF
:102D6000010080F00100207600BF04F1B800FEF7FA
:102D700059FB0020A0811549088015490880154994
:102D800008801549088015490880154908801549AB
:102D900008801549088094F8BC0000F0010030B9A3
:102DA00094F8BC0020F00200801C84F8BC001821BC
:102DB0000E48FDF784FA00BF00BF00BF0020288046
:102DC00003205CE6415400000D0A0000B80000201A
:102DD000BA000020BC000020BE000020C00000207F
:102DE000C2000020C4000020C60000208C09002082
:102DF000415426460000000041542B434E4D493DAE
:102E0000312C322C302C302C3000000041542B431C
:102E10004D45453D3100000041542B434C43433D5B
:102E2000310000002DE9FF4105460C46FE48C6680A
:102E30001A200090288840F25E62811A904279D070
:102E400036DC40F2CA52A0EB0201904273D01ADC89
:102E500040F28952A0EB020190426DD00ADCD0B35F
:102E6000A0F25B50002868D0152867D0252841F0D3
:102E70001186A7E10E297CD017297BD025297AD08D
:102E80003329F4D1C1E24B2976D008DC182974D05B
:102E9000262973D0342972D04229E8D1FEE35A2979
:102EA0006ED062296DD078296CD07E29DFD1F6E30F
:102EB000B82901F017821CDC652901F042800BDC87
:102EC0001A297DD022297CD0402900F07987502909
:102ED000CDD100F0C5BF32E0732901F0A180872970
:102EE00001F01681922901F04481A829BFD101F097
:102EF000BAB9B1F5827F01F010840CDCC02901F071
:102F00000F82D22901F08782E92901F04583F62951
:102F1000ADD101F0A2BBA1F21511002901F071841D
:102F20000F2901F0B2841E2901F02C852D299ED194
:102F300001F070BDF0E39DE26DE133E0DEE0A089D9
:102F4000E08194F82000012877D094F8200005282B
:102F500073D0A089E08100BF0020C4F8D00000BF7A
:102F60000822B2A104F10800FDF7F0FF0222B2A18D
:102F700009E0B6E1DFE113E2F4E3F0E224E358E331
:102F8000FCE3FCE3FCE304F10800FDF7DFFF0022B3
:102F900040F23A71204604F059F900BF40F25B500C
:102FA000288000BF94F8D00000F0010050B994F8D8
:102FB000D000C0F3400028B9002004B0BDE8F08183
:102FC000FDE3FDE300BFE089A08194F82000012823
:102FD00033D094F8200005282FD00B20207600BF96
:102FE00004F1B800FEF71EFA0020A0819349088082
:102FF0009349088093490880934908809349088041
:1030000093490880934908809349088094F8BC004C
:1030100000F0010030B994F8BC0020F00200801CE0
:1030200084F8BC0018218048FDF749F900BF00BFB3
:10303000002028800220C0E7FFE7E089A081A08966
:1030400040F2017188427DD1A089E08100BF00205B
:10305000C4F8D00000BF092280A104F10800FDF7E8
:1030600075FF71490868FDF741F987B26E483A4625
:10307000016804F10800FDF769FF03227AA104F159
:103080000800FDF763FF6848406858B16649486822
:10309000FDF72CF987B264483A46416804F108000C
:1030A000FDF754FF032270A104F10800FDF74EFF65
:1030B0005D48806858B15C498868FDF717F987B2A8
:1030C00059483A46816804F10800FDF73FFF0122A4
:1030D00064A104F10800FDF739FF022256A104F1B2
:1030E0000800FDF733FF002240F20171204604F092
:1030F000ADF800BF4FF4AE60288000BF94F8D00058
:1031000000F0010030B994F8D000C0F3400008B9D5
:10311000002052E700BF94F8D00000F0010080F0DA
:1031200001002076E089A08100BF04F1B800FEF71D
:1031300079F90020A081414908804149088041492E
:10314000088000E01BE04049088040490880404971
:103150000880404908804049088094F8BC0000F08D
:10316000010030B994F8BC0020F00200801C84F803
:10317000BC0018212C48FDF7A2F801F08ABCA089F8
:1031800040F2027188424ED1A089E08100BF002048
:10319000C4F8D00000BF0A2234A104F10800FDF7F2
:1031A000D5FE022224A104F10800FDF7CFFE002283
:1031B00040F22271204604F049F800BF4FF4B0609D
:1031C000288000BF94F8D00000F0010030B994F8D6
:1031D000D000C0F3400008B90020EEE600BF00BFF9
:1031E0000020C4F8D00000BF0A2223A104F1080087
:1031F000FDF7ACFE022210A104F10800FDF7A6FEC7
:10320000002240F22271204604F020F800BF40F274
:103210008950288000BF94F8D00000F0010088BBDE
:1032200094F8D0002FE0DBE28C09002041542B43BE
:103230005245473F000000000D0A0000B800002082
:10324000BA000020BC000020BE000020C00000200A
:10325000C2000020C4000020C600002041542B43BF
:103260005354543D22000000222C220041542B4391
:10327000474143543D30000041542B4347414354A0
:103280003D31000004E0C0F3400008B9002094E69E
:1032900000BF94F8D00000F0010080F0010020761B
:1032A000207E012800D16EE200BF0020C4F8D000CB
:1032B00000BF0A22FEA104F10800FDF747FE02222A
:1032C000AFF28C0104F10800FDF740FE002240F24D
:1032D0002171204603F0BAFF00BF40F297502880CA
:1032E00000BF94F8D00000F0010030B994F8D0008D
:1032F000C0F3400008B900205FE600BF00BF002017
:10330000C4F8D00000BF0A22ECA104F10800FDF7C8
:103310001DFE0222AFF2E00104F10800FDF716FEE7
:10332000002240F22171204603F090FF00BF4FF4CD
:10333000B460288000BF94F8D00000F0010030B9DC
:1033400094F8D000C0F3400008B9002035E600BF73
:1033500094F8D00000F0010080F001002076207E7B
:10336000012800D10FE200BF0020C4F8D00000BF48
:103370000A22D5A104F10800FDF7E8FD0222AFF210
:10338000481104F10800FDF7E1FD00224FF4E4616B
:10339000204603F05BFF00BF40F2AE50288000BF24
:1033A00094F8D00000F0010030B994F8D000C0F3D8
:1033B000400008B9002000E600BF94F8D00000F0FB
:1033C000010080F001002076207E012800D1DAE1A2
:1033D00000BF0020C4F8D00000BF0B22BDA104F143
:1033E0000800FDF7B3FD0222AFF2B41104F10800AA
:1033F000FDF7ACFD002240F22771204603F026FFC6
:1034000000BF40F2BC50288000BF94F8D00000F00C
:10341000010030B994F8D000C0F3400008B9002092
:10342000CBE500BF94F8D00000F0010080F001006F
:103430002076207E012800D1A5E100BF0020C4F83D
:10344000D00000BF0D22A6A104F10800FDF77EFD0B
:103450000222AFF21C2104F10800FDF777FD0022E3
:1034600040F22C71204603F0F1FE00BF40F2CA503A
:10347000288000BF94F8D00000F0010030B994F823
:10348000D000C0F3400008B9002096E500BF94F8D2
:10349000D00000F0010080F001002076207E01289D
:1034A00000D170E100BF0020C4F8D00000BF0922A5
:1034B000AFF2582104F10800FDF748FD8C49086877
:1034C000FCF714FF87B28A483A46016804F1080005
:1034D000FDF73CFD0322AFF2702104F10800FDF777
:1034E00035FD8348406858B181494868FCF7FEFEC5
:1034F00087B27F483A46416804F10800FDF726FD8F
:103500000322AFF29C2104F10800FDF71FFD78486B
:10351000806858B176498868FCF7E8FE87B274483D
:103520003A46816804F10800FDF710FD0122AFF270
:10353000CC2104F10800FDF709FD0222AFF20831A9
:1035400004F10800FDF702FD002240F2267120463A
:1035500003F07CFE00BF40F2E250288000BF94F8E8
:10356000D00000F0010030B994F8D000C0F3400062
:1035700008B9002021E500BF94F8D00000F0010058
:1035800080F001002076207E012800D1FBE000BF02
:103590000020C4F8D00000BF082256A104F10800A2
:1035A000FDF7D4FC0222AFF2703104F10800FDF700
:1035B000CDFC002240F22471204603F047FE00BFFC
:1035C0004FF4BE60288000BF94F8D00000F00100E6
:1035D00030B994F8D000C0F3400008B90020ECE402
:1035E00000BF94F8D00000F0010080F001002076C8
:1035F000207E012800D1C6E000BF0020C4F8D00022
:1036000000BF08223EA104F10800FDF79FFC022242
:10361000AFF2DC3104F10800FDF798FC002240F223
:103620002571204603F012FE00BF40F2FE502880B4
:1036300000BF94F8D00000F0010030B994F8D00039
:10364000C0F3400008B90020B7E400BF94F8D000F0
:1036500000F0010080F001002076207E012800D1DA
:1036600091E000BF0020C4F8D00000BF0B2227A1CA
:1036700004F10800FDF76AFC0222AFF2444104F1B4
:103680000800FDF763FC002240F23271204603F08F
:10369000DDFD00BF40F20C60288001E001E0A1E107
:1036A00000BF94F8D00000F0010000B935E03BE025
:1036B00041542B43474154543D30000041542B4367
:1036C000474154543D31000041542B434950534825
:1036D0005554000041542B4349504D55583D31003D
:1036E00041542B43495052584745543D3100000046
:1036F0008C09002041542B434949435200000000EB
:1037000041542B43494653520000000041542B487A
:103710005454505445524D00D5E194F8D000C0F3B4
:10372000400008B9002048E400BF00BF0020C4F8F2
:10373000D00000BF0C22FEA104F10800FDF706FC3A
:103740000222AFF20C5104F10800FDF7FFFB00224A
:1037500040F22371204603F079FD00BF40F215606E
:10376000288000BF94F8D00000F0010048B994F818
:10377000D000C0F3400020B900201EE454E07EE0F9
:1037800015E100BF00BFE089A08100BF04F1B800CF
:10379000FDF748FE0020A081E9490880E94908803A
:1037A000E9490880E9490880E9490880E949088031
:1037B000E9490880E949088094F8BC0001E048E242
:1037C00072E200F0010030B994F8BC0020F0020071
:1037D000801C84F8BC001821E148FCF770FDCCE4A3
:1037E000A08940F2037188427ED1A089E08100BFA8
:1037F0000020C4F8D00000BF0C22DAA104F10800B8
:10380000FDF7A4FB0222AFF2D05104F10800FDF74E
:103810009DFB002240F22371204603F017FD00BFFC
:1038200040F22460288000BF94F8D00000F001002E
:1038300030B994F8D000C0F3400008B9002068E423
:1038400000BF00BF0020C4F8D00000BF0A22AFF2C2
:10385000A01104F10800FDF779FB0222AFF2286104
:1038600004F10800FDF772FB002240F221712046AE
:1038700003F0ECFC00BF40F22C60288000BF94F8FD
:10388000D00000F0010030B994F8D000C0F340003F
:1038900008B900203DE400BF94F8D00000F001001A
:1038A00080F001002076E089A08100BF04F1B8001B
:1038B000FDF7B8FD0020A081A1490880A14908803A
:1038C000A1490880A1490880A1490880A149088030
:1038D000A1490880A149088094F8BC0000F00100CB
:1038E00040B994F8BC0000E009E020F00200801C20
:1038F00084F8BC0018219A48FCF7E1FC3DE4A0895B
:1039000040F2297188427DD1A089E08194484169C3
:1039100002A8FEF7B3FC00BF0020C4F8D00000BF2F
:103920000F2294A104F10800FDF710FB8C494868B0
:10393000FCF7DCFC87B28A483A46416804F108008B
:10394000FDF704FB0322AFF2E06104F10800FDF78C
:10395000FDFA83490868FCF7C9FC87B280483A46FB
:10396000016804F10800FDF7F1FA022285A104F1D3
:103970000800FDF7EBFA02A8FCF7B8FC87B23A465C
:1039800002A904F10800FDF7E1FA0222AFF2587132
:1039900004F10800FDF7DAFA002240F2297120460E
:1039A00003F054FC00BF40F24260288000BF94F84E
:1039B000D00000F0010030B994F8D000C0F340000E
:1039C00008B9002009E400BF94F8D00000F001001D
:1039D00080F001002076207E10BB00BF4FF4C9604C
:1039E000288000BF94F8D000C0F3C00068B994F8F4
:1039F000D000C0F3001040B994F8D000C0F34010DC
:103A000018B900E036E0002041E400BF94F8D0008F
:103A1000C0F3C00020B1002030705148C06860671A
:103A2000E089A08100BF04F1B800FDF7FBFC002095
:103A3000A08143490880434908804349088043499D
:103A40000880434908804349088043490880434926
:103A5000088094F8BC0000F0010030B994F8BC0074
:103A600020F00200801C84F8BC0018213C48FCF7C0
:103A700026FCB4E6A08940F22B71884256D1A08979
:103A8000E0813748416902A8FEF7F8FB00BF00203B
:103A9000C4F8D00000BF0D223BA104F10800FDF7DF
:103AA00055FA0222AFF6700104F10800FDF74EFA54
:103AB000002240F22B71204603F0C8FB00BF40F209
:103AC0005E60288000BF94F8D000C0F3400030B999
:103AD00094F8D000C0F3801008B900200CE400BFB7
:103AE000616F01F11600897D21F00101017094F8E8
:103AF000D000C0F3801080F001002076E089A08122
:103B000000BF04F1B800FDF78DFC0020A0810C4936
:103B100008800C4908800C4908800C4908800C4931
:103B200008800C4908800C49088035E047E0000017
:103B300041542B53415042523D312C310000000082
:103B4000B8000020BA000020BC000020BE00002009
:103B5000C0000020C2000020C4000020C6000020D9
:103B60008C09002041542B53415042523D302C319E
:103B70000000000041542B43495053544152543DDE
:103B8000302C2200222C000041542B434950434C3E
:103B90004F53453D30000000FD49088094F8BC00BB
:103BA00000F0010030B994F8BC0020F00200801C45
:103BB00084F8BC001821F748FCF781FB0FE6A089C8
:103BC00040F22A7188427DD1A089E081F1480069E4
:103BD00018B10020EF49096908600320EE49087018
:103BE00000BFEC48406940F2B451884201D9084610
:103BF00001E0E8484069E94908600846016802A810
:103C0000FEF73CFB00BF0020C4F8D00000BF0D222F
:103C1000E3A104F10800FDF799F902A8FCF766FB9F
:103C200087B23A4602A904F10800FDF78FF9022293
:103C3000AFF6FC1104F10800FDF788F9002240F20C
:103C40002A71204603F002FB00BF4FF4CF602880AA
:103C500000BF94F8D000C0F3800030B994F8D000D1
:103C6000C0F3400008B900200FE400BF94F8D00072
:103C7000C0F3800038B300BF0020C4F8D00000BFFC
:103C8000C648008882B2C348016804F10800FDF705
:103C90005DF90122694604F10800FDF757F900BFFC
:103CA0004FF4D060288000BF94F8D000C00970B9EC
:103CB000D120005D00F0010048B994F8D000C0F3B5
:103CC000400001E06DE01AE008B9002052E400BFB6
:103CD00094F8D000C00908B1002000E0052020764B
:103CE000207E98B9AB48006980B1AA480069006895
:103CF000AA4909680844A7490969086006E094F8D8
:103D0000D000C0F3400008B101202076207E88B9A1
:103D10000320A14908709F484069A0490968401ADA
:103D20009C494861084600689C49096808449949CB
:103D3000086004E098480078401E9749087095484C
:103D4000406920B19448007800287FF44AAFE089A8
:103D5000A08100BF04F1B800FDF764FB0020A08142
:103D600093490880934908809349088093490880C3
:103D700093490880934908809349088084490880C2
:103D800094F8BC0000F0010030B994F8BC0020F0B9
:103D90000200801C84F8BC0018217E48FCF78FFAD2
:103DA0001DE5A08940F22C7188427DD1A089E08177
:103DB00020688649086000BF40F29E60288000BFEE
:103DC000206882490968401AB18A884201D20020DD
:103DD00005E400BF308940F2B451884201DD084655
:103DE000308100BF0020C4F8D00000BF0E2278A1AF
:103DF00004F10800FDF7AAF8317802A8FEF73EFAB0
:103E000002A8FCF773FA87B23A4602A904F1080047
:103E1000FDF79CF8012265A104F10800FDF796F872
:103E2000318902A8FEF72AFA02A8FCF75FFA87B2E6
:103E30003A4602A904F10800FDF788F80222AFF61D
:103E4000084104F10800FDF781F8002240F22C71CE
:103E5000204603F0FBF900BF40F2AE60288000BFAF
:103E600094F8D00000F0010030B994F8D000C0F30D
:103E7000400008B9002056E400BF94F8D00000F0DC
:103E8000010080F001002076207E50B97189F06831
:103E90000844F0603F48006918B170893D490969DC
:103EA0000860E089A08100E027E000BF04F1B800CD
:103EB000FDF7B8FA0020A0813D4908803D490880FF
:103EC0003D4908803D4908803D4908803D490880BA
:103ED0003D4908802E49088094F8BC0000F001009C
:103EE00030B994F8BC0020F00200801C84F8BC00BB
:103EF00018212848FCF7E3F971E4A08940F2047125
:103F000088427DD1A089E08100BF0020C4F8D000A4
:103F100000BF0B2232A104F10800FDF717F80222BE
:103F2000AFF6EC4104F10800FDF710F8002240F272
:103F30002D71204603F08AF900BF40F2C36028804B
:103F400000BF94F8D00000F0010030B994F8D00020
:103F5000C0F3400008B900200FE400BF94F8D0007F
:103F600000F0010080F001002076207E012800D1C1
:103F70006BE000BF0020C4F8D00000BF13221BA1DB
:103F800004F10800FCF7E2FF0222AFF6545138E0DA
:103F9000C60000208C090020D4000020D0000020A2
:103FA00041542B43495053454E443D302C000000B2
:103FB000B8000020BA000020BC000020BE00002095
:103FC000C0000020C2000020C4000020CC0000205F
:103FD00041542B43495052584745543D322C000020
:103FE00041542B48545450494E49540041542B4895
:103FF000545450504152413D22434944222C3100F7
:104000004DE004F10800FCF7A1FF002240F22D7101
:10401000204603F01BF900BF40F2D160288000BFAA
:1040200094F8D00000F0010030B994F8D000C0F34B
:10403000400008B900202DE400BF94F8D00000F043
:10404000010080F00100207600BFE089A08100BF60
:1040500004F1B800FDF7E6F90020A081FE490880D0
:10406000FE490880FE490880FE490880FE49088014
:10407000FE490880FE490880FE49088094F8BC008B
:1040800000F0010030B994F8BC0020F00200801C60
:1040900084F8BC001821F848FCF711F92EE4A08937
:1040A00040F20771884270D1A089E08100BF0020F2
:1040B000C4F8D00000BF0C22F0A104F10800FCF706
:1040C00045FF9C20015902A8FEF7D8F802A8FCF78A
:1040D0000DF987B23A4602A904F10800FCF736FF51
:1040E0000622EAA104F10800FCF730FF0222AFF635
:1040F000B86104F10800FCF729FF002240F22F719B
:10410000204603F0A3F800BF40F2E560288000BF1E
:10411000D120005DC0F3800058B994F8D00000F0C1
:10412000010030B994F8D000C0F3400008B9002075
:1041300048E400BF94F8D000C0F3400070B9D1202B
:10414000005DC0F3800048B19C20005982B29820E5
:10415000015904F10800FCF7F9FE00E023E000BF7C
:104160000020C4F8D00000BF00BF4FF4DE602880FC
:1041700000BF94F8D00000F0010038B994F8D000E6
:10418000C0F3400010B900201CE436E000BF94F8F2
:10419000D00000F0010080F001002076207E012890
:1041A00000D100E000BFE089A08100BF04F1B800A9
:1041B000FDF738F90020A081A7490880A7490880A9
:1041C000A7490880A7490880A7490880A74908800F
:1041D000A7490880A749088094F8BC0000F00100B6
:1041E00030B994F8BC0020F00200801C84F8BC00B8
:1041F0001821A148FCF763F83BE4A08940F206715E
:1042000088427BD1A089E08100BF0020C4F8D000A3
:1042100000BF13229FA104F10800FCF797FE902134
:104220000859FCF763F887B2902001593A4604F127
:104230000800FCF78BFE0122AFF6D87104F10800EC
:10424000FCF784FE022298A104F10800FCF77EFE30
:10425000002240F22E71204602F0F8FF00BF40F22B
:104260000670288000BF94F8D00000F0010030B93B
:1042700094F8D000C0F3400008B900202EE400BF3D
:1042800094F8D00000F0010080F001002076207E3C
:10429000012800D14DE000BF0020C4F8D00000BFCD
:1042A0000E2282A104F10800FCF750FE94F88C0065
:1042B0003030C0B20190012201A904F10800FCF7DE
:1042C00045FE022278A104F10800FCF73FFE00221F
:1042D0004FF4E661204602F0B9FF00BF40F21670CD
:1042E000288000BF94F8D00000F0010038B994F89D
:1042F000D000C0F3400010B90020B5E443E000BF97
:1043000094F8D00000F0010080F001002076207EBB
:10431000012800D10DE000BF40F21E70288000BFD0
:10432000D120005DC0F3400008B900209CE400BF2C
:1043300000BFE089A08100BF04F1B800FDF772F86A
:104340000020A081444908804449088044490880ED
:104350004449088044490880444908804449088009
:104360004449088094F8BC0000F0010030B994F88A
:10437000BC0020F00200801C84F8BC0018213E48DC
:10438000FBF79DFF85E3A08940F23171884261D13E
:10439000A089E08100BF0020C4F8D00000BF0C223B
:1043A00046A104F10800FCF7D1FDA420015902A8A0
:1043B000FDF764FF02A8FBF799FF87B23A4602A90E
:1043C00004F10800FCF7C2FD0122AFF2204104F124
:1043D0000800FCF7BBFDA820015B02A8FDF74EFF1B
:1043E00002A8FBF783FF87B23A4602A904F108004E
:1043F000FCF7ACFD02222CA104F10800FCF7A6FD9D
:10440000002240F23171204602F020FF00BF4FF43D
:10441000E660288000BF94F8D00000F0010030B9B9
:1044200094F8D000C0F3400008B900201CE400BF9D
:1044300094F8D00000F0010080F001002076207E8A
:1044400048B9A4200159AC2000590144A4200151CD
:1044500009483BE06BE040E0B8000020BA000020D3
:10446000BC000020BE000020C0000020C2000020D0
:10447000C4000020C60000208C09002041542B48B5
:10448000545450444154413D000000002C31303020
:104490003030000041542B48545450504152413D5B
:1044A0002255524C222C22000D0A000041542B4868
:1044B000545450414354494F4E3D000041542B4801
:1044C000545450524541443D00000000C06820B1A2
:1044D000AC200059F949C9680860E089A08100BF93
:1044E00004F1B800FCF79EFF0020A081F449088089
:1044F000F4490880F4490880F4490880F4490880A8
:10450000F4490880F4490880F449088094F8BC0014
:1045100000F0010030B994F8BC0020F00200801CCB
:1045200084F8BC001821E548FBF7C9FEB1E2A08978
:10453000B0F5E16F6ED1A089E08100BF0020C4F822
:10454000D00000BF1722E6A104F10800FCF7FEFC32
:1045500090210859FBF7CAFE87B2902001593A46CC
:1045600004F10800FCF7F2FC0122E3A104F10800C9
:10457000FCF7ECFC0222AFF2D00104F10800FCF7DA
:10458000E5FC002240F22E71204602F05FFE00BFE3
:1045900040F24770288000BF94F8D00000F001007E
:1045A00030B994F8D000C0F3400008B900200FE4FF
:1045B00000BF94F8D00000F0010080F001002076E8
:1045C000E089A08100BF04F1B800FCF72BFF0020B8
:1045D000A081BB490880BB490880BB490880BB4912
:1045E0000880BB490880BB490880BB490880BB499B
:1045F000088094F8BC0000F0010030B994F8BC00C9
:1046000020F00200801C84F8BC001821AB48FBF7A6
:1046100056FE3EE2A08940F23271884259D100BF75
:104620000020C4F8D00000BF0B22AFF6207104F1C7
:104630000800FCF78BFC0222AFF2941104F1080091
:10464000FCF784FC002240F23271204602F0FEFDAD
:1046500000BF40F25470288000BF94F8D00000F0F2
:10466000010030B994F8D000C0F3400008B9002030
:1046700072E400BF94F8D00000F0010080F0010067
:10468000207600BF04F1B800FCF7CCFE0020A0812A
:104690008B4908808B4908808B4908808B490880AA
:1046A0008B4908808B4908808B4908808B4908809A
:1046B00094F8BC0000F0010030B994F8BC0020F080
:1046C0000200801C84F8BC0018217C48FBF7F7FD31
:1046D000DFE1A08940F2097188425CD1A089E081C4
:1046E00000BF0020C4F8D00000BF0B2283A104F15A
:1046F0000800FCF72BFC0222AFF2542104F1080061
:10470000FCF724FC002240F23371204602F09EFDAB
:1047100000BF40F26270288000BF94F8D00000F023
:10472000010030B994F8D000C0F3400008B900206F
:1047300012E400BF94F8D00000F0010080F0010006
:104740002076E089A08100BF04F1B800FCF76AFE82
:104750000020A0815A4908805A4908805A49088097
:104760005A4908805A4908805A4908805A4908809D
:104770005A49088094F8BC0000F0010030B994F860
:10478000BC0020F00200801C84F8BC0018214B48BB
:10479000FBF795FD7DE1A08940F20B71884297D12E
:1047A000A089E08100BF0020C4F8D00000BF0C2227
:1047B00055A104F10800FCF7C9FB40490868FBF764
:1047C00095FD87B23D483A46016804F10800FCF7C0
:1047D000BDFB012248A104F10800FCF7B7FB02224F
:1047E000AFF23C3104F10800FCF7B0FB002240F2CC
:1047F0003471204602F02AFD00BF40F27370288019
:1048000000BF94F8D00000F0010030B994F8D00057
:10481000C0F3400008B900200DE400BF94F8D000B8
:1048200000F0010080F001002076207E012800D1F8
:1048300005E12248416902A8FDF720FD00BF0020E4
:10484000C4F8D00000BF0B2233A104F10800FCF72C
:104850007DFB02A8FBF74AFD87B23A4602A904F1A4
:104860000800FCF773FB0222AFF2C43104F1080028
:10487000FCF76CFB002240F23971204602F0E6FCA6
:1048800000BF40F28270288000BF94F8D00000F092
:10489000010030B994F8D000C0F3400008B90020FE
:1048A00046E400BF94F8D00000F0010080F0010061
:1048B0002076207E012835D1C1E000008C0900203F
:1048C000B8000020BA000020BC000020BE0000207C
:1048D000C0000020C2000020C4000020C60000204C
:1048E00041542B48545450504152413D22434F4E65
:1048F00054454E54222C22002200000041542B46E5
:1049000054504349443D310041542B465450534583
:1049100052563D220000000041542B465450504F47
:1049200052543D0000BF0020C4F8D00000BF0A224E
:104930005BA104F10800FCF709FB5C494868FBF740
:10494000D5FC87B259483A46416804F10800FCF7A3
:10495000FDFA0122AFF2600104F10800FCF7F6FA5B
:104960000222AFF2BC4104F10800FCF7EFFA00228A
:1049700040F23571204602F069FC00BF40F29170B0
:10498000288000BF94F8D00000F0010030B994F8FE
:10499000D000C0F3400008B900206FE400BF94F8D5
:1049A000D00000F0010080F001002076207E012878
:1049B00000D144E000BF0020C4F8D00000BF0A22AC
:1049C0003BA104F10800FCF7C1FA38498868FBF7FD
:1049D0008DFC87B235483A46816804F10800FCF73F
:1049E000B5FA0122AFF2F00104F10800FCF7AEFACB
:1049F0000222AFF24C5104F10800FCF7A7FA0022A2
:104A000040F23671204602F021FC00BF4FF4F46002
:104A1000288000BF94F8D00000F0010030B994F86D
:104A2000D000C0F3400008B9002027E400BF94F88C
:104A3000D00000F0010080F00100207600BFE08986
:104A4000A08100BF04F1B800FCF7ECFC0020A081BD
:104A50001A4908801A4908801A4908801A490880AA
:104A60001A4908801A4908801A4908801A4908809A
:104A700094F8BC0000F0010030B994F8BC0020F0BC
:104A80000200801C84F8BC0018210848FBF717FCC2
:104A900000BF00BF00BF0020288003202DE40000DD
:104AA00041542B465450554E3D2200008C090020A5
:104AB00041542B46545050573D220000B80000206E
:104AC000BA000020BC000020BE000020C000002072
:104AD000C2000020C4000020C600002070B50546BA
:104AE0000C46288840F27D32811A90427DD005DC48
:104AF00048B1A0F27230002878D125E00B2976D099
:104B00001629F9D13BE1A08940F20241884257D1F0
:104B100000BF0020C4F8D00000BF0722B9A104F1F3
:104B20000800FCF713FA0222B8A104F10800FCF710
:104B30000DFA002240F20241204602F087FB00BF3E
:104B400040F27230288000BF94F8D00000F00100DD
:104B500030B994F8D000C0F3400008B9002070BD0F
:104B600000BF94F8D00000F0010080F00100207632
:104B700000BF04F1B800FCF755FC0020A081A44957
:104B80000880A4490880A4490880A4490880A44951
:104B90000880A4490880A4490880A449088094F8A2
:104BA000BC0000F0010030B994F8BC0020F0020015
:104BB000801C84F8BC0018219D48FBF780FB1AE19B
:104BC000A08940F2014188425BD100BF0020C4F8B7
:104BD000D00000BF072297A104F10800FCF7B6F946
:104BE00002228AA104F1080002E00EE004E169E07B
:104BF000FCF7ACF9002240F20141204602F026FB0E
:104C000000BF40F27D30288000BF94F8D00000F053
:104C1000010030B994F8D000C0F3400008B900207A
:104C20009DE700BF94F8D00000F0010080F0010083
:104C3000207600BF04F1B800FCF7F4FB0020A0814F
:104C40007349088073490880734908807349088054
:104C50007349088073490880734908807349088044
:104C600094F8BC0000F0010030B994F8BC0020F0CA
:104C70000200801C84F8BC0018216D48FBF71FFB64
:104C8000B9E0A08940F20341884257D100BF00201B
:104C9000C4F8D00000BF072268A104F10800FCF7A7
:104CA00055F9022259A104F10800FCF74FF900223E
:104CB00040F20341204602F0C9FA00BF4FF462708F
:104CC000288000BF94F8D00000F0010030B994F8BB
:104CD000D000C0F3400008B9002040E700BF94F8BE
:104CE000D00000F0010080F00100207600BF04F148
:104CF000B800FCF797FB0020A08145490880454992
:104D0000088045490880454908804549088045494B
:104D10000880454908804549088094F8BC0000F0A7
:104D2000010030B994F8BC0020F00200801C84F827
:104D3000BC0018213E48FBF7C2FA5CE0A08940F2B3
:104D40000541884257D100BF0020C4F8D00000BF01
:104D500007223CA104F10800FCF7F8F802222BA17D
:104D600004F10800FCF7F2F8002240F20541204669
:104D700002F06CFA00BF40F29330288000BF94F834
:104D8000D00000F0010030B994F8D000C0F340002A
:104D900008B90020E3E600BF94F8D00000F001005D
:104DA00080F00100207600BF04F1B800FCF73AFB68
:104DB0000020A081164908801649088016490880FD
:104DC0001649088016490880164908801649088047
:104DD0001649088094F8BC0000F0010030B994F83E
:104DE000BC0020F00200801C84F8BC001821104890
:104DF000FBF765FA00BF00BF00BF0020288003203A
:104E0000ADE6000041542B43474D49000D0A000018
:104E1000B8000020BA000020BC000020BE00002026
:104E2000C0000020C2000020C4000020C6000020F6
:104E30008C09002041542B43474D4D0041542B43D6
:104E4000474D520041542B4347534E007CB5054615
:104E50000C462888B0F5A06F7ED008DC80B1A0F2A7
:104E6000D44038B30D2878D01F2877D14BE1A0F279
:104E70000D50002873D0102872D01E28F5D150E3B1
:104E800094F86C00012855D000BF0020C4F8D00071
:104E900000BF0822FEA104F10800FCF757F8022227
:104EA000FEA104F10800FCF751F800BF40F2D44025
:104EB000288000BF94F8D00000F0010030B994F8C9
:104EC000D000C0F3400008B900207CBD00BF94F8BA
:104ED0006C0001282ED00820207600BF04F1B80015
:104EE000FCF7A0FA0020A081ED490880ED49088078
:104EF000ED490880ED490880ED490880ED490880BA
:104F0000ED490880ED49088094F8BC0000F00100EC
:104F100030B994F8BC0020F00200801C84F8BC007A
:104F20001821E748FBF7CBF900BF00BF002028801D
:104F30000220CAE7A08940F2015188427ED100BF19
:104F40000020C4F8D00000BF0822DEA104F1080050
:104F5000FBF7FCFF022204E043E13CE01EE3DCE15E
:104F600065E2DBA104F10800FBF7F0FFD449086813
:104F7000FBF7BCF986B2D2483246016804F108005A
:104F8000FBF7E4FF0722D3A104F10800FBF7DEFFE3
:104F9000CB494868FBF7AAF986B2C948324641684E
:104FA00004F10800FBF7D2FF0122CCA104F10800B4
:104FB000FBF7CCFF0222B9A104F10800FBF7C6FF02
:104FC000002240F20151204602F040F900BF40F2B9
:104FD000E140288000BF94F8D00000F0010030B913
:104FE00094F8D000C0F3400008B900206DE700BF7E
:104FF00094F8D00000F0010080F00100207600BF9E
:1050000004F1B800FCF70EFA0020A081A449088042
:10501000A4490880A4490880A4490880A4490880BC
:10502000A4490880A4490880A449088094F8BC00D9
:1050300000F0010040B994F8BC0000E009E020F065
:105040000200801C84F8BC0018219D48FBF737F94A
:10505000A3E2A08940F2025188427DD100BF002026
:10506000C4F8D00000BF964841696846FDF706F9CC
:10507000082294A104F10800FBF768FF6846FBF7DB
:1050800035F986B23246694604F10800FBF75EFF47
:1050900002228FA104F10800FBF758FF8849086835
:1050A000FBF724F986B286483246016804F108000D
:1050B000FBF74CFF072287A104F10800FBF746FF2E
:1050C0007F494868FBF712F986B27D48324641684D
:1050D00004F10800FBF73AFF012280A104F1080067
:1050E000FBF734FF02226DA104F10800FBF72EFF4D
:1050F000002240F20251204602F0A8F800BF40F220
:10510000F340288000BF94F8D00000F0010030B9CF
:1051100094F8D000C0F3400008B90020D5E600BFE5
:1051200094F8D00000F0010080F00100207600BF6C
:1051300004F1B800FCF776F90020A08158490880F6
:1051400058490880584908805849088058490880BB
:1051500058490880584900E013E008805749088002
:1051600094F8BC0000F0010030B994F8BC0020F0C5
:105170000200801C84F8BC0018215148FBF79FF8FE
:105180000BE2A08940F20451884266D100BF0020A2
:10519000C4F8D00000BF4A4841696846FDF76EF880
:1051A00008224FA104F10800FBF7D0FE6846FBF788
:1051B0009DF886B23246694604F10800FBF7C6FE48
:1051C000022236A104F10800FBF7C0FE002240F2E3
:1051D0000451204602F03AF800BF4FF4A060288046
:1051E00000BF94F8D00000F0010030B994F8D0006E
:1051F000C0F3400008B9002067E600BF94F8D00073
:1052000000F0010080F00100207600BF04F1B8003A
:10521000FCF708F90020A081214908802149088075
:1052200021490880214908802149088021490880B6
:10523000214908802149088094F8BC0000F0010051
:1052400030B994F8BC0020F00200801C84F8BC0047
:1052500018211B48FBF733F89FE1A08940F2035166
:1052600088427DD100BF0020C4F8D00000BF1448A0
:1052700041696846FDF702F8082212A104F108000E
:10528000FBF764FE6846FBF731F886B232462DE044
:1052900041542B4350494E3F000000000D0A0000CE
:1052A000B8000020BA000020BC000020BE00002092
:1052B000C0000020C2000020C4000020C600002062
:1052C0008C09002041542B435042573D0000000000
:1052D0002C220000222C3132392C22002200000026
:1052E00041542B435042523D00000000694604F1F6
:1052F0000800FBF72BFE0222AFF2600104F1080068
:10530000FBF724FE002240F20351204601F09EFFED
:1053100000BF40F20D50288000BF94F8D00000F08C
:10532000010030B994F8D000C0F3400008B9002063
:10533000CBE500BF94F8D00000F0010080F0010040
:10534000207600BF04F1B800FCF76CF80020A081C3
:10535000954908809549088095490880954900E05D
:1053600019E008809449088094490880944908808D
:105370009449088094F8BC0000F0010030B994F81A
:10538000BC0020F00200801C84F8BC0018218E486C
:10539000FAF795FF01E1A08940F2055188427CD1DE
:1053A00000BF0020C4F8D00000BF0822AFF2D00137
:1053B00004F10800FBF7CAFD834840694FF6FF720D
:1053C00002EA10416846FCF759FF6846FAF78EFF7B
:1053D00086B23246694604F10800FBF7B7FD0122A8
:1053E0007AA104F10800FBF7B1FD7748406981B26A
:1053F0006846FCF743FF6846FAF778FF86B2324604
:10540000694604F10800FBF7A1FD0222AFF2741116
:1054100004F10800FBF79AFD002240F205512046F6
:1054200001F014FF00BF40F21D50288000BF94F827
:10543000D00000F0010030B994F8D000C0F3400073
:1054400008B9002041E500BF94F8D00000F0010049
:1054500080F00100207600BF04F1B800FBF7E2FF06
:105460000020A08150490880504908805049088098
:1054700050490880504908805049088050490880A8
:105480005049088094F8BC0000F0010040B994F83D
:10549000BC0020F00200801C00E006E084F8BC00A4
:1054A00018214948FAF70BFF77E0A08940F206512E
:1054B000884272D100BF0020C4F8D00000BF08228B
:1054C00043A104F10800FBF741FD0122AFF2F41102
:1054D00004F10800FBF73AFD3B490868FAF706FFBC
:1054E00086B239483246016804F10800FBF72EFD08
:1054F0000122AFF2182104F10800FBF727FD022278
:10550000AFF2682104F10800FBF720FD002240F211
:105510000651204601F09AFE00BF40F22B50288031
:1055200000BF94F8D00000F0010030B994F8D0002A
:10553000C0F3400008B90020C7E400BF94F8D000D1
:1055400000F0010080F00100207600BF04F1B800F7
:10555000FBF768FF0020A0811349088013490880E9
:1055600013490880134908801349088013490880AB
:10557000134908801349088094F8BC0000F001002A
:1055800030B994F8BC0020F00200801C84F8BC0004
:1055900018210D48FAF793FE00BF00BF00BF00209E
:1055A0002880032091E40000B8000020BA00002009
:1055B000BC000020BE000020C0000020C20000206F
:1055C000C4000020C60000208C0900202C00000030
:1055D00041542B435042463D0000000070B5054643
:1055E0000C46288840F2C932811A90427ED006DCEF
:1055F00060B1A0F2A530F8B1152878D1C9E0122920
:1056000076D0282975D03529F7D1D7E200BF002000
:10561000C4F8D00000BF0822FEA104F10800FBF787
:1056200095FC0222FEA104F10800FBF78FFC00BFED
:1056300040F2A530288000BF94F8D00000F00100AF
:1056400030B994F8D000C0F3400008B9002070BD14
:1056500000BF94F8D00000F0010080F00100207637
:1056600094F8D000C0F3400060B300BF04F1B8006C
:10567000FBF7D8FE0020A081EA490880EA490880AB
:10568000EA490880EA490880EA490880EA4908802E
:10569000EA490880EA49088094F8BC0000F001005B
:1056A00030B994F8BC0020F00200801C84F8BC00E3
:1056B0001821E448FAF703FE00BF00BF002028804D
:1056C0000220C4E7A08940F2011188427DD194F8FC
:1056D0006C00022835D094F86C00062831D000BF49
:1056E00004F1B800FBF79EFE002003E091E0A2E287
:1056F0003FE1F4E1A081CB490880CB490880CB4948
:105700000880CB490880CB490880CB490880CB4929
:105710000880CB49088094F8BC0000F0010030B943
:1057200094F8BC0020F00200801C84F8BC00182112
:10573000C448FAF7C4FD00BF00BF00202880022043
:1057400085E700BF0020C4F8D00000BF0822BEA13A
:1057500004F10800FBF7FAFBBA490868FAF7C6FD3E
:1057600086B2B8483246016804F10800FBF7EEFB48
:105770000222ABA104F10800FBF7E8FB002240F293
:105780000111204601F062FD00BF40F2BA302880CE
:1057900000BF94F8D00000F0010030B994F8D000B8
:1057A000C0F3400008B9002051E700BF94F8D000D2
:1057B00000F0010060B114F8BC0F20F00400001DDF
:1057C0002070207820F0080000E05FE004F8BC09B9
:1057D00094F8D000C0F3400050B114F8BC0F20F092
:1057E00004002070207820F00800083004F8BC097C
:1057F00094F8D00000F0010080F001002076207EB7
:10580000E0B920689349086000BF40F2C9302880A1
:1058100000BFD120005DC0F3C00020B1D120005DE9
:10582000C0F3001048B920688A490968401A41F25B
:105830008831884201D8002009E700BF00BF04F189
:10584000B800FBF7EFFD0020A0817649088076497B
:10585000088076490880764908807649088076492C
:105860000880764908807649088094F8BC0000F0EA
:10587000010030B994F8BC0020F00200801C84F8CC
:10588000BC0018216F48FAF71AFDD3E1A089B0F5E2
:10589000817F7AD194F86C00032830D094F86C00A2
:1058A00007282CD000BF04F1B800FBF7BBFD002097
:1058B000A0815C4908805C4908805C4908805C499B
:1058C00008805C4908805C4908805C4908805C4924
:1058D000088094F8BC0000F0010030B994F8BC00D6
:1058E00020F00200801C84F8BC0018215548FAF70B
:1058F000E6FC00BF00BF002028800220A7E600BF12
:105900000020C4F8D00000BF08224FA104F1080015
:10591000FBF71CFB4B490868FAF7E8FC86B24948DC
:105920003246016804F10800FBF710FB01224AA18E
:1059300004F10800FBF70AFB42494868FAF7D6FC75
:1059400086B240483246416804F10800FBF7FEFA8F
:10595000022233A104F10800FBF7F8FA00224FF409
:105960008171204601F072FC00BF40F2DB302880DC
:1059700000BF94F8D00000F0010038B994F8D000CE
:10598000C0F3400010B9002061E674E000BF94F855
:10599000D00000F0010050B114F8BC0F20F010004E
:1059A00010302070207820F0200004F8BC0994F812
:1059B000D000C0F3400050B114F8BC0F20F010002C
:1059C0002070207820F02000203004F8BC0994F8E2
:1059D000D00000F0010080F00100207600BF04F14B
:1059E000B800FBF71FFD0020A0810E4908800E497A
:1059F00008800E4908800E4908800E4908800E492B
:105A000008800E4908800E49088094F8BC0000F018
:105A1000010023E041542B4350494E3F0000000059
:105A20000D0A0000B8000020BA000020BC000020D1
:105A3000BE000020C0000020C2000020C4000020E2
:105A4000C60000208C09002041542B4350494E3D94
:105A500000000000C80000202C00000030B994F8BD
:105A6000BC0020F00200801C84F8BC00182174489F
:105A7000FAF725FCDEE0A08940F2031188426AD1E2
:105A800000BF0020C4F8D00000BF10226DA104F1B7
:105A90000800FBF75BFA6A490868FAF727FC86B248
:105AA00067483246016804F10800FBF74FFA01220B
:105AB00069A104F10800FBF749FA0222AFF2A00144
:105AC00004F10800FBF742FA002240F203112046DD
:105AD00001F0BCFB00BF40F2F130288000BF94F819
