:020000040800F2
:10000000B0E6002069020008B9230008B123000807
:10001000B5230008CB05000841920008000000004D
:10002000000000000000000000000000AD0100081A
:10003000D10600080000000001020008398700080E
:10004000830200088302000883020008830200087C
:10005000830200088302000883020008830200086C
:10006000830200088302000883020008D10500080B
:10007000E1050008F1050008010600081106000866
:100080002106000831060008830200080000000075
:1000900000000000000000000000000083020008D3
:1000A000830200088302000883020008830200081C
:1000B000830200088302000883020008830200080C
:1000C00083020008830200088302000883020008FC
:1000D00083020008C5910008E991000800000000B3
:1000E0008302000883020008830200080000000069
:1000F00000000000000000000000000041060008B1
:100100000000000083020008830200088302000848
:1001100000000000000000000000000000000000DF
:1001200051060008610600087106000881060008F3
:100130009106000800000000000000000000000020
:100140000000000000000000000000008302000822
:10015000A1060008B1060008C106000815920008B3
:100160008302000883020008000000000000000075
:10017000000000000000000000000000000000007F
:1001800000000000830200080000000000000000E2
:100190008302000883020008DFF80CD000F00CF99D
:1001A00000480047BD940008B0E600202B4B1968BA
:1001B0000868B0E8F04F80F30988BFF36F8F4FF005
:1001C000000080F3118870470000000006480068B6
:1001D000006880F3088862B661B6BFF34F8FBFF343
:1001E0006F8F00DF00BF00BF08ED00E0DFF80C00FC
:1001F000016841F470010160704700BF88ED00E0C4
:10020000EFF30980BFF36F8F144B1A681EF0100FC5
:1002100008BF20ED108A20E9F04F106008B44FF0BD
:10022000500080F31188BFF34F8FBFF36F8F09F039
:10023000B3FE4FF0000080F3118808BC196808680D
:10024000B0E8F04F1EF0100F08BFB0EC108A80F33A
:100250000988BFF36F8F704700BF00BFDC0000202C
:10026000EFF30580704700000648804706480047C6
:10027000FEE7FEE7FEE7FEE7FEE7FEE7FEE7FEE756
:10028000FEE7FEE7418700089901000840EA010304
:100290009B0703D009E008C9121F08C0042AFAD23C
:1002A00003E011F8013B00F8013B521EF9D2704700
:1002B000D2B201E000F8012B491EFBD270470022A8
:1002C000F6E710B513460A4604461946FFF7F0FF55
:1002D000204610BD10B5044604E00B7800F8013B41
:1002E00003B1491C521EF8D2204610BD421C10F822
:1002F000011B0029FBD1801A704710B5002200E0D5
:10030000521C835C8C5CA34201D1002BF8D1D8B283
:10031000E1B2401A10BD034611F8012B00F8012B81
:10032000002AF9D11846704730B50546002003462B
:1003300000E05B1C934205D2EC5CC85C201A01D142
:10034000002CF6D130BD000070B500B91068002552
:1003500012E00B4602E0A64203D05B1C1C78002C86
:10036000F9D1E3B22B4305D02CB125B1002100F81F
:10037000011B04E00546401C0678002EE9D1106000
:10038000284670BD004ADFE73801002030B50B4633
:10039000014600202022012409E021FA02F59D42B5
:1003A00005D303FA02F5491B04FA02F52844151E89
:1003B000A2F10102F1DC30BD064C074D06E0E06819
:1003C00040F0010394E8070098471034AC42F6D39C
:1003D000FFF7E6FE68A9000888A9000870B58C1828
:1003E00010F8015B15F0070301D110F8013B2A1149
:1003F00006D110F8012B03E010F8016B01F8016B36
:100400005B1EF9D12B0705D40023521E0DD401F831
:10041000013BFAE710F8013BCB1A921C03E013F8FA
:10042000015B01F8015B521EF9D5A142D8D300202F
:1004300070BD30B50146002409B9002030BD4A68BE
:100440008B689A4200D10C68934200D99C1A9A4258
:1004500002D9D51A0868441B601EEFE730B5034681
:100460000BB9002030BD59689A68914200D1002430
:10047000914200D98C1A8A4202D9551A1868441B35
:100480002046EFE770B504460D4616460CB901202C
:1004900070BD18212046FFF712FF2560E6600A2094
:1004A0006074E06868B9284609F060F8E060E068C8
:1004B00018B9002020600120EAE7207C40F002000B
:1004C0002074207C40F0010020740020E0E72DE93A
:1004D000F0470446884615464FF0000904B115B9A7
:1004E0000020BDE8F0872168A068884201D3002081
:1004F000A0602046FFF7B2FF0746AF4203D20FB914
:100500000020EEE73D46A1682068461AAE4200D9B9
:100510002E46D4E90220811832464046FFF7B6FE47
:10052000B144A0683044A060AD1B35B108EB0900B0
:100530002A46E168FFF7AAFEA5602168A068884204
:1005400001D30020A06009EB0500CAE72DE9F047C0
:100550000446894615464FF0000804B115B900203D
:10056000BDE8F087D4E90010884201D30020606024
:100570002046FFF75EFF0746AF4203D20FB90020C7
:10058000EEE73D46D4E90001461AAE4200D92E46B8
:100590006268E168881832464946FFF777FEB04442
:1005A000606830446060AD1B35B109EB08012A4634
:1005B000E068FFF76BFE6560D4E90010884201D364
:1005C0000020606008EB0500CAE700BFFEE70000FE
:1005D00010B5024808F0D1F910BD000010600240CB
:1005E00010B5024808F0C9F910BD000028600240AB
:1005F00010B5024808F0C1F910BD0000406002408B
:1006000010B5024808F0B9F910BD0000586002406A
:1006100010B5024808F0B1F910BD0000706002404A
:1006200010B5024808F0A9F910BD0000886002402A
:1006300010B5024808F0A1F910BD0000A06002400A
:1006400010B5024808F099F910BD0000B8600240EA
:1006500010B5024808F091F910BD00001064024086
:1006600010B5024808F089F910BD00002864024066
:1006700010B5024808F081F910BD00004064024046
:1006800010B5024808F079F910BD00005864024026
:1006900010B5024808F071F910BD00007064024006
:1006A00010B5024808F069F910BD000088640240E6
:1006B00010B5024808F061F910BD0000A0640240C6
:1006C00010B5024808F059F910BD0000B8640240A6
:1006D0007047000070B504460D46164600BF1DB9B0
:1006E00000BF0320207170BD00BF00BFA08920B9EA
:1006F00094F8D800C0F3400018B100BF0220207168
:10070000F1E700BF00BF04F1D40000F031FF08B1F1
:100710000420E8E7A08908B92068606140F22B70E6
:10072000A08100BF1248C56000BF4FF47A70E0613D
:100730004EB994F8D80020F0010084F8D80000BF2A
:1007400000202071CFE794F8D80020F00100401C71
:1007500084F8D8004FF47A71204601F0B1F80346CE
:10076000042B00D1BFE7237E002020761846BAE78D
:10077000A8090020034609B900207047488A18B923
:10078000887DC0F3400008B10120F6E70020F4E7BF
:100790002DE9F04704460D4616461F46DDE9099A45
:1007A000DDF8208000BF0DB106B127B900BF0320DE
:1007B0002071BDE8F08700BF00BFA08920B994F880
:1007C000D800C0F3400018B100BF02202071F0E74C
:1007D00000BF00BF04F1D40000F0CAFE08B104203D
:1007E000E7E7A08908B92068606140F22C70A08119
:1007F00000BF6E602F8100206881A5F81490184812
:10080000C560C0F81080B8F1000F02D00020C8F811
:10081000000000BF4FF47A70E061BAF1000F09D117
:1008200094F8D80020F0010084F8D80000BF002020
:100830002071BEE794F8D80020F00100401C84F835
:10084000D8004FF47A71204601F03AF80346042BA1
:1008500000D1AEE7237E002020761846A9E70000ED
:10086000A80900202DE9F04704460D4616461F460C
:10087000DDE9088900BF0DB106B127B900BF03202B
:100880002071BDE8F08700BF00BFA08920B994F8AF
:10089000D800C0F3400018B100BF02202071F0E77B
:1008A00000BF00BF04F1D40000F062FE08B10420D4
:1008B000E7E7A08908B92068606140F22A70A0814A
:1008C00000BF1948C560C0F8108006604761B8F1E4
:1008D000000F02D00020C8F8000000BF42F21070E4
:1008E000E061B9F1000F09D194F8D80020F00100BF
:1008F00084F8D80000BF00202071C2E794F8D80027
:1009000020F00100401C84F8D80042F2107120460B
:1009100000F0D6FF0346042B00D1B2E7237E00206F
:1009200020761846ADE70000A80900202DE9F04721
:1009300004460D4616461F46DDE9099ADDF820807B
:1009400000BF15B1B8F1000F04D100BF0320207122
:10095000BDE8F08700BF00BFA08920B994F8D80097
:10096000C0F3400018B100BF02202071F0E700BFC3
:1009700000BF04F1D40000F0FBFD08B10420E7E75C
:10098000A08908B92068606140F22970A08100BF89
:100990001D48C560C0F800800EB91CA000E01CA076
:1009A0001949486016B90FB11AA000E01AA01649FB
:1009B00088600846C0F814900020287000BF4FF4EB
:1009C0007A70E061BAF1000F09D194F8D80020F0F4
:1009D000010084F8D80000BF00202071B8E794F827
:1009E000D80020F00100401C84F8D8004FF47A7140
:1009F000204600F065FF0346042B00D1A8E7237EC4
:100A0000002020761846A3E7A80900205443500090
:100A100055445000310000003000000070B504461D
:100A20000D461CB903A008F00DFC00E000BF00BF9C
:100A3000002070BD537461636B2069732049444C7E
:100A400045210D0A0000000002460020704700000A
:100A500070B504460D46034E2A4621463046FFF740
:100A600075FD70BD0C07002008B5024610680090A7
:100A700000BF1068009BC01A8842FAD300BF002054
:100A8000107108BD2DE9F04104460F4615461E467B
:100A9000DDF8188000BF27B900BF03202071BDE832
:100AA000F08100BF00BFA08920B994F8D800C0F33E
:100AB000400018B100BF02202071F0E700BF00BF66
:100AC00004F1D40000F054FD08B10420E7E7A08948
:100AD00008B92068606140F20270A08100BF1C4824
:100AE000076000201A49486088602DB12846FFF74A
:100AF000FDFB08B1164845602EB13046FFF7F6FB06
:100B000008B11348866000BF1248E061B8F1000FD9
:100B100009D194F8D80020F0010084F8D80000BF73
:100B200000202071BBE794F8D80020F00100401CA1
:100B300084F8D8000749204600F0C2FE0346042B83
:100B400000D1ACE7237E002020761846A7E70000FE
:100B5000A809002020BF020070B504460D4600BF62
:100B6000A08920B994F8D800C0F3400018B100BFA4
:100B70000220207170BD00BF00BF04F1D40000F05E
:100B8000F7FC08B10420F5E7A08908B92068606186
:100B900040F20370A08100BF00BF4FF47A70E061A3
:100BA0004DB994F8D80020F0010084F8D80000BFB7
:100BB00000202071DEE794F8D80020F00100401CEE
:100BC00084F8D8004FF47A71204600F079FE03468D
:100BD000042B00D1CEE7237E002020761846C9E7FB
:100BE0002DE9F04705460E46174698463224DFF8B1
:100BF0008C93E3480560F0210068FFF760FBE04854
:100C00000068C0F8DC80DE480068D0F8DC0020B95D
:100C1000DC48DB490968C1F8DC000020D8490968D4
:100C200081F86C000621D648006880F84410002046
:100C3000D34909680860D44A4FF400714846FFF769
:100C400021FCCF4800688760CD480068083000F07C
:100C5000AFF930B100BF0720C94909680871BDE884
:100C6000F0870121C6480068083000F0D1F90A2158
:100C7000C3480068FFF7F8FE0021C148006808304B
:100C800000F0C6F9BE480068D43000F053FC28B12B
:100C900000BF0620BA4909680871E0E700BF0020DC
:100CA000BA490880BA490880BA490880BA49088018
:100CB000BA490880BA490880BA490880BA49088008
:100CC00000BFAF48006890F8D80020F00100401C39
:100CD000AB49096881F8D8004FF47A70A8490968CF
:100CE000C86123E000BFA6480068D43000F040FC93
:100CF00008B10420B3E7A2480068808928B9A04859
:100D0000006800689E490968486105209C49096897
:100D1000888100BF4FF47A719948006800F0D0FDD7
:100D200097480068007E00B902E0641E002CD9D10B
:100D300000BF23E000BF92480068D43000F018FCE8
:100D400008B104208BE78E480068808928B98C4858
:100D5000006800688A490968486104208849096870
:100D6000888100BF4FF47A718548006800F0A8FDC3
:100D700083480068007E00B902E0641E002CD9D1CF
:100D800000BF23E000BF7E480068D43000F0F0FBD5
:100D900008B1042063E77A480068808928B9784858
:100DA000006800687649096848610220744909684A
:100DB000888100BF4FF47A717148006800F080FDAF
:100DC0006F480068007E00B902E0641E002CD9D193
:100DD00000BF23E000BF6A480068D43000F0C8FBC1
:100DE00008B104203BE766480068808928B9644858
:100DF0000068006862490968486103206049096821
:100E0000888100BF4FF47A715D48006800F058FD9A
:100E10005B480068007E00B902E0641E002CD9D156
:100E200000BF2BE06148066000BF55480068D43021
:100E300000F09EFB08B1042011E75148006880894A
:100E400028B94F48006800684D490968486140F278
:100E500001104B490968888100BF4FF47A714848F6
:100E6000006800F02DFD46480068007E00B907E0EC
:100E7000642143480068FFF7F7FD641E002CD1D1C0
:100E800000BF28E000BF3E480068D43000F070FB8F
:100E900008B10420E3E63A480068808928B9384858
:100EA00000680068364909684861062034490968C5
:100EB000888100BF4FF47A713148006800F000FD6E
:100EC0002F480068007E00B907E064212C480068C4
:100ED000FFF7CAFD641E002CD4D100BF284800686B
:100EE00090F8D80020F001002549096881F8D80061
:100EF00000BF23480068D43000F02CFB00202049BC
:100F00000968888100BF214908802149088021495A
:100F10000880214908802149088021490880214909
:100F200008802149088000BF1548006890F8D80063
:100F300000F0010050B91248006890F8D80020F085
:100F40000200801C0E49096881F8D8001821174852
:100F5000FFF7B5F900BF0A48006890F8D80020F004
:100F600002000749096881F8D80000BF04480068FA
:100F7000007E287102480068007E70E60C070020A1
:100F8000B4000020490A000824070020B80000200F
:100F9000BA000020BC000020BE000020C0000020DD
:100FA000C2000020C4000020C6000020A8090020C4
:100FB0001CB5044600210D48226807F0A1FF00205F
:100FC000012103460A46CDE900100221084807F036
:100FD00083FD0020012103460A46CDE900100821C7
:100FE000034807F079FD00201CBD000000100140FF
:100FF0000000024070B506460C4615462A462146BA
:10100000024807F0B6FF002070BD0000001001404C
:101010000246012903D14804034B986102E00220F3
:10102000014B986100207047000002401FB500246A
:10103000584B4FF4E13258A15948FFF7D1FD05460E
:10104000294658A008F0FEF8A2E0554800F090F9B3
:1010500007F016FC0028F7D0012050A34FA257A19B
:1010600000904F48FFF70EFD57490870002870D1D7
:1010700056A008F0E7F80120502158A20023CDE93E
:10108000002102901A4658494548FFF74FFC4E4947
:10109000087000285AD155A008F0D4F80120594909
:1010A0005223594ACDE900104F493D48FFF7DAFB7A
:1010B00045490870002843D13948006803905148D9
:1010C000016852A008F0BEF800BF0122464934482A
:1010D000FFF750FBD8B101200A21584A4FF47A7328
:1010E000CDE900210290564A3F492D48FFF750FBB9
:1010F00040B95248016853A008F0A4F82848006895
:10110000039004E03048017855A008F09BF824488B
:1011100000680399401AB0F5FA6FD6D3012232491C
:101120001F48FFF7D7FA2849087018B955A008F0EA
:1011300089F804E02448017858A008F083F80CE00E
:10114000214801785FA008F07DF806E01E4801788C
:1011500000E013E065A008F075F801211048FFF7E2
:10116000FBFC1949087018B96BA008F06BF80AE08D
:10117000154801786CA008F065F804E01248017881
:1011800073A008F05FF80CB9012000E000200446CD
:101190005BE700001D0A000834353931000000000B
:1011A0001C02002047534D20496E697420737461FE
:1011B0007475733A2025640D0A000000696E746529
:1011C000726E6574000000004800002047505253C2
:1011D0002041747461636865640D0A006578616D0F
:1011E000706C652E636F6D000C030020436F6E6E94
:1011F000656374656420746F20736572766572210F
:101200000D0A0000A4000020500000204461746119
:101210002073656E7420746F207365727665722119
:10122000204E756D626572206F66206279746573F9
:101230002073656E743A2025640D0A004C0000206E
:101240002403002052656365697665642025642067
:101250006279746573206F6620646174610D0A00A1
:101260004572726F7220747279696E6720746F2094
:101270007265636569766520646174613A202564EE
:101280000D0A0000436F6E6E656374696F6E2063B4
:101290006C6F736564210D0A000000004572726F67
:1012A0007220747279696E6720746F20636C6F733B
:1012B0006520636F6E6E656374696F6E3A20256496
:1012C0000D0A00004572726F7220747279696E6740
:1012D00020746F20636F6E6E65637420746F20736B
:1012E00065727665723A2025640D0A00436F756C4D
:1012F00064206E6F7420657865637574652072650F
:10130000717565737420746F207365727665723AB7
:101310002025640D0A000000475052532044657494
:1013200061636865640D0A0050726F626C656D736D
:1013300020747279696E6720746F206465746163CC
:101340006820475052533A2025640D0A00000000DF
:10135000436F756C64206E6F742061747461636890
:1013600020746F20475052533A2025640D0A000024
:1013700070B50446A08978B994F8D800C0F340004D
:1013800050B114F8D80F20F0020020706268D83CE9
:1013900004F1E00100209047A089C8B994F8D80072
:1013A000C0F34000A0B9D920005DC0F3800078B13F
:1013B000D920005D20F00401D920015504F142003C
:1013C000C4F8E000D4F8DC2004F1E00104209047E8
:1013D000A089C8B994F8D800C0F34000A0B9D920BA
:1013E000005DC0F3C00078B1D920005D20F0080195
:1013F000D920015504F14200C4F8E000D4F8DC2003
:1014000004F1E00105209047A089A8B994F8D8001C
:10141000C0F3400080B9D920005DC0F3400058B14E
:10142000D920005D20F00201D9200155D4F8DC203C
:1014300004F1E00106209047A089A8B994F8D800EB
:10144000C0F3400080B9DA20005D00F0010058B11F
:10145000DA20005D20F00101DA200155D4F8DC200B
:1014600004F1E00107209047A089A8B994F8D800BA
:10147000C0F3400080B9DA20005DC0F3400058B1ED
:10148000DA20005D20F00201DA200155D4F8DC20DA
:1014900004F1E00108209047A089A8B994F8D80089
:1014A000C0F3400080B9DA20005DC0F3800058B17D
:1014B000DA20005D20F00401DA200155D4F8DC20A8
:1014C00004F1E0010920904700252DE004F17400AB
:1014D00050F8250000B925E0A08910BB94F8D80089
:1014E000C0F34000E8B904F1740050F82500807D95
:1014F000C0F38000A8B104F1740151F8251001F186
:101500001600897D21F00401017004F1740050F887
:101510002500C4F8E000D4F8DC2004F1E00101204B
:10152000904700BF681CC5B2062DCFDB00BF00206E
:10153000207170BD10B50446204608F052F80449E9
:1015400008600846006808B9012010BD0020FCE7CB
:10155000D800002010B504460448006808F048F898
:1015600008B1012010BD0020FCE70000D8000020D9
:1015700010B504464FF47A710448006808F060F82A
:1015800008B1012010BD0020FCE70000D8000020B9
:10159000F8B50446BD4D4FF4FA76A08960B12068D5
:1015A0006169401AE169884206D994F8EC0020F09C
:1015B0000200801C84F8EC005AE1A08940F23171ED
:1015C00088421FD1D920005DC0F38010D0B19DF8B2
:1015D0000030AC210859411CAC2211519821095905
:1015E0000B54B0200059401EB0210851B0200059C2
:1015F000002806D1D920005D20F04001D9200155F6
:1016000000262DE1A08940F23E7188421ED1D920EA
:10161000005DC009D0B19DF80030C0210859411CBF
:10162000C0221151B82109590B54C4200059401E41
:10163000C4210851C42000590028E2D1D920005DFE
:1016400020F08001D9200155002609E1A08940F24F
:101650002C71884222D1D920005DC0F34010E8B13E
:101660008B49C8689DF800204389591C4181416815
:10167000CA54018A491E0182018A71B9D921095DC2
:1016800021F02002D9210A55817D21F002018175C6
:10169000817D21F0040181750026E1E0A08940F2FE
:1016A0000221884240D1D920005D00F00100D0B372
:1016B0007749C86890F8A3109F2909D29DF80020A7
:1016C00010F8A33F0178491C00F8A319C11CCA54A3
:1016D0009DF800100A2925D16E4909780D2921D1DC
:1016E00090F8A31002291DDB90F8A310891EC21CDC
:1016F000515C0D290AD190F8A310491E515C0A29AA
:1017000004D190F8A310891E80F8A310002290F84D
:10171000A330C11CCA54D921095D21F00102D9218D
:101720000A5500269CE0FFE7A08940F20521884287
:1017300050D1D920005D00F00100D0B354480069B9
:10174000008853494969884234D25149C8689DF894
:10175000002010F8A33F0178491C00F8A319C11C10
:10176000CA549DF800100A2922D14A4909780D2946
:101770001ED190F8A31002291ADB10F8A31F891EAE
:101780000170002210F8A339C11CCA544049C9682D
:10179000D4313F4AD160114609690988491C126950
:1017A0001180D921095D21F00102D9210A550026B5
:1017B00056E00FE09DF800000A2851D13548007826
:1017C0000D284DD1D920005D20F00101D92001550F
:1017D000002645E09DF800000A281BD100BF9DF8B7
:1017E00000102D4802780078401C2B4B1870581CB4
:1017F00081540021401E0278401C815400BF411ECC
:10180000204606F091FA00BF002023490870487076
:1018100000BF24E09DF8000020280ED11D4800786C
:101820003E280AD11D4800780A2806D194F8EC0019
:1018300020F00400001D84F8EC0000BF9DF80010AB
:10184000154802780078401C134B1870581C8154BE
:101850000021401E0278401C815400BF00BF00BF21
:101860000C4800780D4908709DF80000094908707F
:101870003EB1012269462846FEF729FE00287FF482
:101880009CAE204606F0DCFEF8BD00000C070020F0
:10189000A8090020D500002025090020D60000203E
:1018A000024610680844106000BF002010717047A5
:1018B00002E00248FFF76CFEFBE700001C0200207C
:1018C0000246D16100BF90890028FCD192F8D8006F
:1018D000C0F340000028F6D100BF107E1071107ECA
:1018E00070470000014800687047000004000020B5
:1018F00010B52E480068401C2C4908602C48006830
:1019000020B12B480068401E29490860002444E0AB
:10191000284850F8240000283DD0264850F82400DC
:101920000078C0F34000B0B3224850F8240080682B
:1019300040B1204850F824008068401E1D4951F8ED
:10194000241088601B4850F82400806818BB194B8D
:1019500053F824301969174B53F8240053F82430F6
:10196000DA689047134850F824004168114850F84D
:10197000240081600F4850F82400007800F0010036
:1019800048B90C4850F82400007820F002010948BA
:1019900050F824000170601CC4B20648001F007893
:1019A000A042B5DC06F030FF10BD000004000020AE
:1019B000000000206801002010B50D48006840F4C8
:1019C00000700B4908600846006840F480600860B9
:1019D0000846006840F480700860032000F086F834
:1019E0000F2000F007F800F017F8002010BD0000ED
:1019F000003C024070B5044600F0E4F94FF47A71FF
:101A0000B0FBF1F5284600F081FC00222146501E73
:101A100000F02DF8002070BD7047000000BF00F0FE
:101A20001F0201219140034A430942F8231000BFDD
:101A30007047000080E200E000BF00F01F020121BB
:101A40009140034A430942F8231000BF7047000049
:101A500080E100E000BF00F01F0201219140420937
:101A6000920002F1E022C2F8001100BF70472DE998
:101A7000F05F80460D461646002700F09FFC0746A3
:101A800039462A46334601F00700C0F1070ABAF189
:101A9000040F02D94FF0040A01E0C0F1070AD14651
:101AA00000F1040ABAF1070F02D24FF0000A01E078
:101AB000A0F1030AD4464FF0010A0AFA09FAAAF182
:101AC000010A0AEA020A0AFA0CFA4FF0010B0BFAB1
:101AD0000CFBABF1010B0BEA030B4AEA0B042146AA
:101AE000404600F073FCBDE8F09F000000BF00F02E
:101AF0000702064B19684FF6FF031940044B0B43CE
:101B000043EA0221014B196000BF70470CED00E071
:101B10000000FA0570B504460E460025A748006887
:101B200000F00F00B0426FD2A4490E700846006862
:101B300000F00F00B04201D0012070BD207800F00D
:101B40000200022807D19E48006820F0F000A1683A
:101B500008439B490860207800F0010000283ED02F
:101B60006068012807D1964808380068C0F34040F3
:101B7000B8B90120E1E76068022802D06068032854
:101B800007D18F4808380068C0F3406048B9012089
:101B9000D3E78B4808380068C0F3400008B901203B
:101BA000CBE78748006820F0030061680843844958
:101BB0000860FFF797FE05466068012810D108E02D
:101BC000FFF790FE401B41F28831884201D9032083
:101BD000B3E77B48006800F00C000428F0D1CDE0AA
:101BE0006068022811D108E0FFF77CFE401B41F23B
:101BF0008831884201D903209FE77148006800F0CE
:101C00000C000828F0D1B9E024E06068032810D166
:101C100008E0FFF767FE401B41F28831884201D996
:101C200003208AE76648006800F00C000328F0D122
:101C3000A4E008E0FFF756FE401B41F288318842DD
:101C400001D9032079E75E48006800F00C00002805
:101C5000F0D193E0207800F00200022807D1584824
:101C6000006820F0F000A16808435549086020781A
:101C700000F00100002877D06068012807D15048A3
:101C800008380068C0F34040B8B9012055E76068E3
:101C9000022802D06068032807D149480838006844
:101CA000C0F3406048B9012047E74548083800685C
:101CB000C0F3400008B901203FE74148006820F028
:101CC0000300616808433E490860FFF70BFE0546C4
:101CD0006068012810D108E0FFF704FE401B41F2C4
:101CE0008831884201D9032027E73548006800F091
:101CF0000C000428F0D137E06068022810D108E019
:101D0000FFF7F0FD401B41F28831884201D90320E2
:101D100013E72B48006800F00C000828F0D123E0FE
:101D20006068032810D108E0FFF7DCFD401B41F29A
:101D30008831884201D90320FFE62148006800F07D
:101D40000C000328F0D10FE008E0FFF7CBFD401BAB
:101D500041F28831884201D90320EEE61848006834
:101D600000F00C000028F0D114490E7008460068FD
:101D700000F00F00B04201D00120DEE6207800F034
:101D80000400042807D10E48006820F4E050E16800
:101D900008430B490860207800F00800082808D1A3
:101DA0000748006820F46040216940EAC100044906
:101DB00008600F20FFF71EFE0020BEE6003C024038
:101DC0000838024010B500F045F80949096801F0EB
:101DD000F001F02292FAA2F2B2FA82F2D140054A60
:101DE000515CC840044908600846006810BD000006
:101DF0000838024004A90008B000002010B5FFF721
:101E0000E1FF0749096801F4E0514FF4E05292FA0A
:101E1000A2F2B2FA82F2D140024A515CC84010BD2F
:101E20000838024004A9000810B5FFF7CBFF0749A6
:101E3000096801F460414FF4604292FAA2F2B2FAEA
:101E400082F2D140024A515CC84010BD08380240BD
:101E500004A9000870B50021002200230020274CAF
:101E6000246804F00C0424B1042C04D0082C41D1C3
:101E700003E0234840E023483EE0204C241F246830
:101E800004F03F011D4C241F246804F4800484B135
:101E90001C4CB4FBF1F5194C241F246847F6C0769E
:101EA000344096FAA6F6B6FA86F6F44005FB04F23C
:101EB0000FE0134CB4FBF1F5104C241F246847F6D7
:101EC000C076344096FAA6F6B6FA86F6F44005FBDC
:101ED00004F20A4C241F246804F440344FF44035C3
:101EE00095FAA5F5B5FA85F5EC40641C6300B2FBE4
:101EF000F3F001E0024800BF00BF70BD08380240A7
:101F00000024F40000127A0038B504460025207839
:101F100000F00100002866D0F648006800F00C00D0
:101F200004280DD0F348006800F00C00082813D1F5
:101F3000F048001F006800F48000B0F5800F0BD15E
:101F4000EC4808380068C0F3404000284BD0606877
:101F5000002848D1012038BD0020E649891F0870BB
:101F6000FFF7C0FC054608E0FFF7BCFC401B41F250
:101F70008831884201D90320EDE7DE48083800683F
:101F8000C0F340400028EFD12079DA49891F08705A
:101F90006068A0B1FFF7A6FC054608E0FFF7A2FCC9
:101FA000401B41F28831884201D90320D3E7D14850
:101FB00008380068C0F340400028EFD013E0FFF776
:101FC00091FC054608E0FFF78DFC401B41F288318B
:101FD000884201D90320BEE7C64808380068C0F32C
:101FE00040400028EFD1207800F00200022869D19B
:101FF000C048006800F00C0058B1BE48006800F00E
:102000000C00082821D1BB48001F006800F48000A4
:10201000D8B9B84808380068C0F3400020B1E0687B
:10202000012801D0012096E7B2480838006820F066
:10203000F800F82292FAA2F2B2FA82F221699140F3
:102040000843AC49083908603CE0E06828B3012047
:10205000A9490860FFF746FC054606E0FFF742FC89
:10206000401B642801D9032075E7A248083800689E
:10207000C0F340000028F1D09E480838006820F0E6
:10208000F800F82292FAA2F2B2FA82F221699140A3
:10209000084398490839086014E000209649086010
:1020A000FFF720FC054606E0FFF71CFC401B6428F8
:1020B00001D903204FE78F4808380068C0F340007B
:1020C0000028F1D1207800F0080008282CD16069A0
:1020D000A8B1012089490860FFF704FC054606E025
:1020E000FFF700FC401B642801D9032033E7814837
:1020F0006C300068C0F340000028F1D014E00020EC
:102100007E490860FFF7EEFB054606E0FFF7EAFBB5
:10211000401B642801D903201DE776486C30006815
:10212000C0F340000028F1D1207800F0040004281A
:102130006DD100BF6F483830006840F080506D4965
:10214000383108600846006800F08050009000BFF9
:1021500000BF6B48006840F4807069490860FFF771
:10216000C1FB054606E0FFF7BDFB401B642801D913
:102170000320F0E66248006800F480700028F2D086
:1021800000205C4968310870FFF7ACFB054608E0A9
:10219000FFF7A8FB401B41F28831884201D9032098
:1021A000D9E6544868300068C0F340000028EFD1F9
:1021B000207A504968310870A068A0B1FFF792FBFF
:1021C000054608E0FFF78EFB401B41F2883188424C
:1021D00001D90320BFE6474868300068C0F34000DB
:1021E0000028EFD013E0FFF77DFB054608E0FFF77E
:1021F00079FB401B41F28831884201D90320AAE6CD
:102200003C4868300068C0F340000028EFD1A06966
:10221000F0B33848006800F00C00082872D0A069BC
:10222000022850D1002034490866FFF75BFB0546C1
:1022300006E0FFF757FB401B642801D903208AE61C
:102240002C4808380068C0F340600028F1D1D4E978
:102250000701084347F6C07292FAA2F2B2FA82F27C
:10226000616A914008430122A16AC2EB51014FF417
:10227000403292FAA2F2B2FA82F2914008434FF051
:10228000706292FAA2F2B2FA82F2E16A914000E040
:102290003AE008431749091F0860012016490866FB
:1022A000FFF720FB054606E0FFF71CFB401B6428F8
:1022B00001D903204FE60F4808380068C0F340609A
:1022C0000028F1D020E000200B490866FFF70AFB48
:1022D000054606E0FFF706FB401B642801D90320F2
:1022E00039E6044808380068C0F340600028F1D19E
:1022F0000AE007E00838024000004742800E4742EB
:1023000000700040012026E6002024E670B5044657
:102310002546681EB0F1807F01D301200FE0681EC2
:102320004FF0E02148610F214FF0FF3000F04EF8F0
:1023300000204FF0E021886107200861002070BD77
:1023400010B504460CB9012010BDA06900B100E031
:1023500000BF94F8390028B9002084F838002046DE
:1023600000F025F8022084F839002068C06820F4C5
:1023700000502168C860204606F012FE20680069FF
:1023800020F49040216808612068406920F02A000C
:10239000216848612068C06840F400502168C86026
:1023A0000020E063012084F839000020CCE770476A
:1023B00000BFFEE700BFFEE770470000024800686C
:1023C000C0F30220704700000CED00E010B50028BB
:1023D00007DA0A07140E054A00F00F031B1FD45436
:1023E00003E00A07130E024A135410BD18ED00E073
:1023F00000E400E070B505460C46224602A12846DE
:1024000006F030FF70BD0000256400007CB5054675
:102410000C46288840F2A542811A90427ED008DC02
:1024200070B1A0F2814028B30A2878D0182877D15B
:1024300010E10D2975D0182974D02329F7D1C7E2EE
:1024400094F86C00012857D000BF0020C4F8EC00BD
:1024500000BF0822FEA104F10800FEF7CBFD022216
:10246000FEA104F10800FEF7C5FD00BF40F2814067
:10247000288000BF94F8EC0000F0010030B994F817
:10248000EC00C0F3400008B900207CBD00BF94F808
:102490006C00012830D00820207600BF04F1D40061
:1024A000FFF758F80020A08100BFED490880ED49F2
:1024B0000880ED490880ED490880ED490880ED4924
:1024C0000880ED490880ED49088000BF94F8D800E5
:1024D00000F0010030B994F8D80020F00200801C10
:1024E00084F8D8001821E648FDF7E9FE00BF00BFD8
:1024F000002028800220C8E7A08940F201318842EC
:1025000072D100BF0020C4F8EC0000BF0322DDA19F
:1025100004F10800FEF76EFDD94904E005E124E06E
:1025200095E270E1F5E10868FDF7E0FE86B2D44877
:102530003246016804F10800FEF75CFD0122D2A1D9
:1025400004F10800FEF756FD0222C4A104F10800C0
:10255000FEF750FD002240F20131204606F0E4F87B
:1025600000BF40F28B40288000BF94F8EC0000F0E0
:10257000010030B994F8EC00C0F3400008B9002025
:1025800083E700BF94F8EC0000F0010080F0010048
:10259000207600BF04F1D400FEF7DCFF0020A0810C
:1025A00000BFAF490880AF490880AF490880AF49F4
:1025B0000880AF490880AF490880AF490880AF491B
:1025C000088000BF94F8D80000F0010030B994F8FA
:1025D000D80020F00200801C84F8D8001821A848F8
:1025E000FDF76DFE32E2FFE7A08940F20531884237
:1025F0006ED100BF0020C4F8EC0000BFA0484169C4
:102600006846FFF7F7FE0922A0A104F10800FEF7D3
:10261000F1FC6846FDF76AFE86B23246694604F16F
:102620000800FEF7E7FC012297A104F10800FEF77D
:10263000E1FC022289A104F10800FEF7DBFC002284
:1026400040F20531204606F06FF800BF40F2994095
:10265000288000BF94F8EC0000F0010030B994F835
:10266000EC00C0F3400008B900200EE700BF94F86A
:10267000EC0000F0010080F00100207600BF04F1C2
:10268000D400FEF767FF0020A08100BF74490880D6
:102690007449088074490880744908807449088026
:1026A00074490880744908807449088000BF94F810
:1026B000D80000F0010030B994F8D80020F00200F2
:1026C000801C84F8D80018216D48FDF7F8FDBDE1A5
:1026D000A08940F20231884265D100BF0020C4F8D1
:1026E000EC0000BF032267A104F10800FEF782FCA2
:1026F00063490868FDF7FAFD86B261483246016811
:1027000004F10800FEF776FC022254A104F108004F
:10271000FEF770FC002240F20231204606F004F879
:1027200000BF40F2A540288000BF94F8EC0000F004
:10273000010030B994F8EC00C0F3400008B9002063
:10274000A3E600BF94F8EC0000F0010080F0010067
:10275000207600BF04F1D400FEF7FCFE0020A0812B
:1027600000BF3F4908803F4908803F4908803F49F2
:1027700008803F4908803F4908803F4908803F4919
:10278000088000BF94F8D80000F0010030B994F838
:10279000D80020F00200801C84F8D80018213848A6
:1027A000FDF78DFD52E1A08940F20631884273D1D8
:1027B00000BF0020C4F8EC0000BF31484169684602
:1027C000FFF718FE092231A104F10800FEF712FC00
:1027D0006846FDF78BFD86B23246694604F1080073
:1027E000FEF708FC02221DA104F10800FEF702FC1E
:1027F000002240F20631204605F096FF00BF40F26D
:10280000B240288000BF94F8EC0000F0010030B91D
:1028100094F8EC00C0F3400008B9002035E600BF92
:1028200094F8EC0000F0010080F00100207600BF79
:1028300004F1D400FEF78EFE0020A08100BF0849FD
:10284000088008490880084908800849088024E071
:1028500041542B4350494E3F000000000D0A000038
:10286000B8000020BA000020BC000020BE000020FC
:10287000C0000020C2000020C4000020C6000020CC
:10288000A8090020415444003B0000004154443E4C
:1028900022534D222000000019E06F4908806F4943
:1028A00008806F4908806F49088000BF94F8D800FD
:1028B00000F0010030B994F8D80020F00200801C2C
:1028C00084F8D80018216848FDF7F9FCBEE0A0891B
:1028D00040F2033188425AD100BF0020C4F8EC0016
:1028E00000BF032261A104F10800FEF783FB02226E
:1028F000AFF2980104F10800FEF77CFB002240F2E1
:102900000331204605F010FF00BF40F2BD40288093
:1029100000BF94F8EC0000F0010030B994F8EC002E
:10292000C0F3400008B90020AFE500BF94F8EC0008
:1029300000F0010080F00100207600BF04F1D40017
:10294000FEF708FE0020A08100BF494908804949E0
:10295000088049490880494908803F4908803F4923
:1029600008803F4908803F49088000BF94F8D8009C
:1029700000F0010030B994F8D80020F00200801C6B
:1029800084F8D80018213848FDF799FC5EE0A0894A
:10299000B0F5417F5AD100BF0020C4F8EC0000BF61
:1029A000032237A104F10800FEF724FB0222AFF254
:1029B000541104F10800FEF71DFB00224FF4417191
:1029C000204605F0B1FE00BF4FF49960288000BF9B
:1029D00094F8EC0000F0010030B994F8EC00C0F37A
:1029E000400008B9002050E500BF94F8EC0000F06A
:1029F000010080F00100207600BF04F1D400FEF752
:102A0000A9FD0020A08100BF19490880194908804C
:102A100019490880194908800F4908800F49088022
:102A20000F4908800F49088000BF94F8D80000F0D3
:102A3000010030B994F8D80020F00200801C84F81E
:102A4000D80018210848FDF73AFC00BF00BF00BFBE
:102A500000202880032018E5C0000020C2000020CC
:102A6000C4000020C6000020A809002041544100F5
:102A7000B8000020BA000020BC000020BE000020EA
:102A80004154480070B505460C46288820B1A0F294
:102A9000BE50002860D120E0A08940F20161884248
:102AA00059D100BF0020C4F8EC0000BF08222DA1BE
:102AB00004F10800FEF79EFA02222DA104F108009D
:102AC000FEF798FA002240F20161204605F02CFE44
:102AD00000BF40F2BE50288000BF94F8EC0000F028
:102AE000010030B994F8EC00C0F3400008B90020B0
:102AF00070BD00BF94F8EC0000F0010080F0010010
:102B0000207600BF04F1D400FEF724FD0020A08150
:102B100000BF1849088018490880184908801849DA
:102B20000880184908801849088018490880184901
:102B3000088000BF94F8D80000F0010030B994F884
:102B4000D80020F00200801C84F8D8001821114819
:102B5000FDF7B5FB00BF00BF00BF002028800320A9
:102B6000C6E7000041542B43434C4B3F000000009C
:102B70000D0A0000B8000020BA000020BC000020B0
:102B8000BE000020C0000020C2000020C4000020C1
:102B9000C6000020A809002070B505460C4628880C
:102BA00040F2B332811A90427DD008DC70B1A0F2BD
:102BB000923048B30B2877D0162876D1E2E00B2963
:102BC00074D0162973D02129F7D183E2A089052872
:102BD00058D100BF0020C4F8EC0000BF0222F9A1C8
:102BE00004F10800FEF706FA0222F7A104F108003A
:102BF000FEF700FA00220421204605F095FD00BFF3
:102C000040F29230288000BF94F8EC0000F0010000
:102C100030B994F8EC00C0F3400008B9002070BD52
:102C200000BF94F8EC0000F0010080F00100207675
:102C300000BF04F1D400FEF78DFC0020A08100BF8E
:102C4000E2490880E2490880E2490880E2490880B8
:102C5000E2490880E2490880E2490880E2490880A8
:102C600000BF94F8D80000F0010030B994F8D80003
:102C700020F00200801C84F8D8001821DB48FDF702
:102C80001EFB65E2A08904285ED100BF0020C4F8C5
:102C9000EC0000BF0422D6A104F10800FEF7AAF957
:102CA0000222C9A104E0C9E010E052E222E17DE184
:102CB00004F10800FEF79EF900220421204605F0E9
:102CC00033FD00BF40F29D30288000BF94F8EC0037
:102CD00000F0010030B994F8EC00C0F3400008B9EE
:102CE00000209CE700BF94F8EC0000F0010080F0A9
:102CF0000100207600BF04F1D400FEF72BFC002079
:102D0000A08100BFB1490880B1490880B14908805D
:102D1000B1490880B1490880B1490880B1490880AB
:102D2000B149088000BF94F8D80000F0010030B924
:102D300094F8D80020F00200801C84F8D8001821F4
:102D4000AA48FDF7BCFA03E2A089012858D100BFC8
:102D50000020C4F8EC0000BF1122A7A104F1080074
:102D6000FEF748F9022298A104F10800FEF742F9A3
:102D700000220121204605F0D7FC00BF4FF46A7005
:102D8000288000BF94F8EC0000F0010030B994F8FE
:102D9000EC00C0F3400008B9002040E700BF94F801
:102DA000EC0000F0010080F00100207600BF04F18B
:102DB000D400FEF7CFFB0020A08100BF834908802C
:102DC00083490880834908808349088083490880B3
:102DD00083490880834908808349088000BF94F8AC
:102DE000D80000F0010030B994F8D80020F00200BB
:102DF000801C84F8D80018217C48FDF760FAA7E110
:102E0000A089022858D100BF0020C4F8EC0000BF00
:102E100009227EA104F10800FEF7ECF802226AA163
:102E200004F10800FEF7E6F800220221204605F032
:102E30007BFC00BF40F2B330288000BF94F8EC0068
:102E400000F0010030B994F8EC00C0F3400008B97C
:102E50000020E4E600BF94F8EC0000F0010080F0F0
:102E60000100207600BF04F1D400FEF773FB0020C0
:102E7000A08100BF55490880554908805549088000
:102E800055490880554908805549088055490880AA
:102E90005549088000BF94F8D80000F0010030B90F
:102EA00094F8D80020F00200801C84F8D800182183
:102EB0004E48FDF704FA4BE1A089032858D100BF22
:102EC0000020C4F8EC0000BF092253A104F108005F
:102ED000FEF790F802223CA104F10800FEF78AF800
:102EE00000220321204605F01FFC00BF40F2BE3047
:102EF000288000BF94F8EC0000F0010030B994F88D
:102F0000EC00C0F3400008B9002088E600BF94F848
:102F1000EC0000F0010080F00100207600BF04F119
:102F2000D400FEF717FB0020A08100BF27490880CE
:102F300027490880274908802749088027490880B1
:102F400027490880274908802749088000BF94F84E
:102F5000D80000F0010030B994F8D80020F0020049
:102F6000801C84F8D80018212048FDF7A8F9EFE06C
:102F7000A08906287DD100BF0020C4F8EC0000BF66
:102F8000042228A104F10800FEF734F802220EA161
:102F900004F10800FEF72EF800220621204605F075
:102FA000C3FB00BF40F2C930288000BF94F8EC009A
:102FB00000F00100D0BB94F8EC00C0F34000A8BBC7
:102FC00000202CE6415400000D0A0000B80000204B
:102FD000BA000020BC000020BE000020C00000207D
:102FE000C2000020C4000020C6000020A809002064
:102FF000415426460000000041542B434E4D493DAC
:10300000312C322C302C302C3000000041542B431A
:103010004D45453D3100000041542B434C43433D59
:10302000310000004154453000000000FFE700BFC0
:1030300094F8EC0000F0010080F00100207600BF61
:1030400004F1D400FEF786FA0020A08100BF4349B6
:103050000880434908804349088043490880434920
:10306000088043490880434908804349088000BFDD
:1030700000E010E094F8D80000F0010030B994F8B6
:10308000D80020F00200801C84F8D80018213B48AA
:10309000FDF715F95CE0A089072859D100BF002091
:1030A000C4F8EC0000BF042235A104F10800FDF7CC
:1030B000A1FF0222AFF2F00104F10800FDF79AFF30
:1030C00000220721204605F02FFB00BF4FF475704A
:1030D000288000BF94F8EC0000F0010030B994F8AB
:1030E000EC00C0F3400008B9002098E500BF94F858
:1030F000EC0000F0010080F00100207600BF04F138
:10310000D400FEF727FA0020A08100BF13490880F1
:10311000134908801349088013490880134908801F
:1031200013490880134908801349088000BF94F8A8
:10313000D80000F0010030B994F8D80020F0020067
:10314000801C84F8D80018210C48FDF7B8F800BF9F
:1031500000BF00BF00202880032060E5B8000020E9
:10316000BA000020BC000020BE000020C0000020EB
:10317000C2000020C4000020C6000020A8090020D2
:1031800041544531000000002DE9FF4105460C4641
:10319000FE48C6681A200090298840F29772881A63
:1031A000914201F0D0825EDC40F28C62A1EB020021
:1031B00091426ED02DDC40F22562A1EB02009142DB
:1031C00068D017DC40F2F752A1EB020091427AD0AE
:1031D00009DC002978D0A1F2D251002975D0152937
:1031E00042F0A58593E1092870D017286FD02028D8
:1031F000F6D1A1E242286BD006DC0E2869D01C284B
:1032000068D03428ECD1ABE350287DD05E28E7D1DC
:10321000DAE3852800F0BA8710DC422875D006DC96
:10322000142873D01C2872D02E28D9D1CDE3482879
:103230006ED063286DD07D28D2D1FBE3D62801F073
:103240005B8109DCA32801F02F80B32801F07C808A
:10325000C828C5D101F01BB9EA2801F0C881F528BA
:10326000BED101F0F5B9EB2802F041803ADC7B28B1
:1032700001F0928519DC392801F0C6830BDC0F2898
:1032800001F0A1821F2801F024832728A8D101F092
:103290003DBBFDE385E2502801F03F845D2801F04D
:1032A000A0846C289CD101F034BDBA2801F0D586E9
:1032B00011DC8A2801F0B1859A2801F01386AB2829
:1032C0008ED101F086BEACE14EE075E0D3E109E2BB
:1032D000B3E39BE2CFE2C92801F00987D82887D160
:1032E00001F08DBF40F27912811A904202F0EE8215
:1032F00025DCB0F5977F02F0218112DCFB2802F07B
:103300003E80A0F2091005E0CEE3FCE3FCE3FCE321
:10331000FCE3FCE3002802F06980092885D102F073
:1033200082B8B0F5A37F02F0C981B0F5AC7F02F09E
:103330003D82A0F2691000288BD102F07FBA3D29AE
:1033400002F0C38309DC0E2902F0F482172902F08F
:103350000E83342984D102F095BB472902F01984E9
:10336000672993D102F0A2BCA089E08194F82000E3
:1033700001286BD094F82000052867D0A089E0814F
:1033800000BF0020C4F8EC0000BF082280A104F1B7
:103390000800FDF72FFE022280A104F10800FDF7CE
:1033A00029FE002240F23371204605F0BDF900BF2E
:1033B00040F2D250288000BF94F8EC0000F00100E9
:1033C00040B994F8EC00C0F3400018B9002004B0F4
:1033D000BDE8F08100BFE089A08194F820000128B9
:1033E00034D094F82000052830D00B20207600BF80
:1033F00004F1D400FEF7AEF80020A08100BF6849B8
:1034000008806849088068490880684908806849D8
:10341000088068490880684908806849088000BFBA
:1034200094F8D80000F0010030B994F8D80020F0EA
:103430000200801C84F8D80018215448FCF73FFF94
:1034400000BF00BF002028800220C0E7E089A081E3
:10345000A08940F2017188427ED1A089E08100BF3D
:103460000020C4F8EC0000BF092255A104F10800B7
:10347000FDF7C0FD45490868FCF738FF87B24348AF
:103480003A46016804F10800FDF7B4FD03224FA19C
:1034900004F10800FDF7AEFD3C48406858B13B49D7
:1034A0004868FCF723FF87B238483A46416804F180
:1034B0000800FDF79FFD032244A104F10800FDF779
:1034C00099FD3248806858B130498868FCF70EFF92
:1034D00087B22E483A46816804F10800FDF78AFD5C
:1034E000012239A104F10800FDF784FD02222BA17D
:1034F00004F10800FDF77EFD002240F20171204634
:1035000005F012F900BF40F2E750288000BF94F8A0
:10351000EC0000F0010030B994F8EC00C0F340007A
:1035200008B9002053E700BF94F8EC0000F0010058
:1035300080F001002076E089A08100BF04F1D40072
:10354000FEF708F80020A08100BF15490880154942
:1035500008801549088000E03FE0144908801449BC
:10356000088014490880144908801449088000BF65
:1035700094F8D80000F0010030B994F8D80020F099
:103580000200801C84F8D800182121E0A80900203E
:1035900041542B435245473F000000000D0A0000F4
:1035A000B8000020BA000020BC000020BE000020AF
:1035B000C0000020C2000020C4000020C60000207F
:1035C00041542B435354543D22000000222C22002E
:1035D000FE48FCF774FE02F0A9BBA08940F202711C
:1035E00088427DD1A089E08100BF0020C4F8EC00B2
:1035F00000BF0A22F6A104F10800FDF7FBFC02223D
:10360000AFF2680104F10800FDF7F4FC002240F27B
:103610002271204605F088F800BF40F2F75028805C
:1036200000BF94F8EC0000F0010030B994F8EC0011
:10363000C0F3400008B90020C9E600BF00BF002069
:10364000C4F8EC0000BF0A22E4A104F10800FDF771
:10365000D1FC0222AFF2BC0104F10800FDF7CAFC64
:10366000002240F22271204605F05EF800BF4FF4C0
:10367000C060288000BF94F8EC0000F0010030B971
:1036800094F8EC00C0F3400008B900209FE600BFAA
:1036900094F8EC0000F0010080F001002076207E1C
:1036A000012800D173E200BF0020C4F8EC0000BF85
:1036B0000A22CDA104F10800FDF79CFC0222AFF222
:1036C000241104F10800FDF795FC002240F221715D
:1036D000204605F029F800BF40F20E60288000E087
:1036E00092E200BF94F8EC0000F0010030B994F8C9
:1036F000EC00C0F3400008B9002068E600BF00BF3E
:103700000020C4F8EC0000BF0A22BAA104F10800AE
:10371000FDF770FC0222AFF27C1104F10800FDF706
:1037200069FC002240F22171204604F0FDFF00BF39
:1037300040F21760288000BF94F8EC0000F0010010
:1037400030B994F8EC00C0F3400008B900203EE620
:1037500000BF94F8EC0000F0010080F0010020763A
:10376000207E012800D112E200BF0020C4F8EC0046
:1037700000BF0A22A2A104F10800FDF73BFC0222CF
:10378000AFF2E81104F10800FDF734FC00224FF419
:10379000E461204604F0C8FF00BF40F225602880A5
:1037A00000BF94F8EC0000F0010030B994F8EC0090
:1037B000C0F3400008B9002009E600BF94F8EC000F
:1037C00000F0010080F001002076207E012800D169
:1037D000DDE100BF0020C4F8EC0000BF0B228BA18C
:1037E00004F10800FDF706FC0222AFF2502104F1BB
:1037F0000800FDF7FFFB002240F22771204604F08D
:1038000093FF00BF40F23360288000BF94F8EC00C3
:1038100000F0010030B994F8EC00C0F3400008B9A2
:103820000020D4E500BF94F8EC0000F0010080F027
:1038300001002076207E012800D1A8E100BF0020F1
:10384000C4F8EC0000BF0D2273A104F10800FDF7DD
:10385000D1FB0222AFF2BC2104F10800FDF7CAFB44
:10386000002240F22C71204604F05EFF00BF40F2BF
:103870004160288000BF94F8EC0000F0010030B9EE
:1038800094F8EC00C0F3400008B900209FE500BFA9
:1038900094F8EC0000F0010080F001002076207E1A
:1038A000012800D173E100BF0020C4F8EC0000BF84
:1038B0000922AFF2F42104F10800FDF79BFB434914
:1038C0000868FCF713FD87B240483A46016804F1E6
:1038D0000800FDF78FFB0322AFF2103104F108005E
:1038E000FDF788FB3948406858B138494868FCF70B
:1038F000FDFC87B235483A46416804F10800FDF7FF
:1039000079FB0322AFF23C3104F10800FDF772FBB2
:103910002E48806858B12D498868FCF7E7FC87B2CB
:103920002A483A46816804F10800FDF763FB01224A
:10393000AFF26C3104F10800FDF75CFB0222AFF23C
:10394000A43104F10800FDF755FB002240F2267176
:10395000204604F0E9FE00BF40F25960288000BF15
:1039600094F8EC0000F0010030B994F8EC00C0F3DA
:10397000400008B900202AE500BF94F8EC0000F0F0
:10398000010080F001002076207E012800D1FEE0B9
:1039900000BF0020C4F8EC0000BF082222A104F1FF
:1039A0000800FDF727FB0222AFF2104104F10800E6
:1039B000FDF720FB002240F22471204604F0B4FE03
:1039C00000BF40F2676036E0A9E0E5E1A809002009
:1039D00041542B43474143543D30000041542B4355
:1039E000474143543D31000041542B434741545417
:1039F0003D30000041542B43474154543D310000B9
:103A000041542B43495053485554000041542B43D3
:103A100049504D55583D310041542B43495052585F
:103A20004745543D3100000041542B43494943521E
:103A3000000000007FE3288000BF94F8EC0000F055
:103A4000010030B994F8EC00C0F3400008B9002040
:103A5000BDE400BF94F8EC0000F0010080F001002C
:103A60002076207E012800D191E000BF0020C4F81C
:103A7000EC0000BF0822FEA104F10800FDF7BAFA2D
:103A80000222AFF2E84104F10800FDF7B3FA00E0CA
:103A90006FE0002240F22571204604F045FE00BF91
:103AA00040F27560288000BF94F8EC0000F001003F
:103AB00030B994F8EC00C0F3400008B9002086E467
:103AC00000BF94F8EC0000F0010080F001002076C7
:103AD000207E012800D15AE000BF0020C4F8EC008D
:103AE00000BF0B22E5A104F10800FDF783FA0222D2
:103AF000AFF2585104F10800FDF77CFA002240F2C1
:103B00003271204604E0B2E1A2E0CCE009E281E2B9
:103B100004F00AFE00BF40F28360288000BF94F8E2
:103B2000EC0000F0010030B994F8EC00C0F3400064
:103B300008B900204BE400BF00BF0020C4F8EC002F
:103B400000BF0C22D0A104F10800FDF753FA0222B5
:103B5000AFF2B85104F10800FDF74CFA002240F230
:103B60002371204604F0E0FD00BF40F28C60288005
:103B700000BF94F8EC0000F0010030B994F8EC00BC
:103B8000C0F3400008B9002021E400BF00BF207E40
:103B900038B9DA20005D20F00100401CDA21085518
:103BA00006E0DA20005D20F00200801CDA210855D2
:103BB000E089A08100BF04F1D400FDF7CBFC002018
:103BC000A08100BFB4490880B4490880B449088086
:103BD000B4490880B4490880B4490880B4490880D1
:103BE000B449088000BF94F8D80000F0010030B953
:103BF00094F8D80020F00200801C84F8D800182126
:103C0000AD48FCF75CFBE6E4A08940F20371884212
:103C10007ED1A089E08100BF0020C4F8EC0000BF85
:103C20000C22A6A104F10800FDF7E4F90222AFF28C
:103C3000946104F10800FDF7DDF9002240F22371E0
:103C4000204604F071FD00BF4FF4D460288000BF0F
:103C500094F8EC0000F0010030B994F8EC00C0F3E7
:103C6000400008B900205DE400BF00BF0020C4F898
:103C7000EC0000BF0A22AFF2902104F10800FDF72A
:103C8000B9F90222AFF2EC6104F10800FDF7B2F9D4
:103C9000002240F22171204604F046FD00BF4FF49F
:103CA000D560288000BF94F8EC0000F0010030B926
:103CB00094F8EC00C0F3400008B9002032E400BFE3
:103CC00094F8EC0000F0010080F001002076DA208A
:103CD000005D20F00400001DDA210855E089A08174
:103CE00000BF04F1D400FDF735FC0020A08100BF27
:103CF00069490880694908806949088069490880DC
:103D0000694908806949088069490880694900E073
:103D100012E0088000BF94F8D80000F0010030B92C
:103D200094F8D80020F00200801C84F8D8001821F4
:103D30006148FCF7C4FA4EE4A08940F22971884238
:103D40007ED1A089E08100BF0020C4F8EC0000BF54
:103D50000A225EA104F10800FDF74CF95649886873
:103D6000FCF7C4FA87B254483A46816804F1080067
:103D7000FDF740F90222AFF2DC7104F10800FDF713
:103D800039F9002240F24471204604F0CDFC00BF16
:103D900040F2BA60288000BF94F8EC0000F0010007
:103DA00030B994F8EC00C0F3400008B9002043E4B7
:103DB00000BF94F8EC0000F0010080F001002076D4
:103DC000207E012800D1D0E03B48416902A8FEF7DF
:103DD00011FB00BF0020C4F8EC0000BF0F223EA181
:103DE00004F10800FDF706F933494868FCF77EFA4C
:103DF00087B231483A46416804F10800FDF7FAF805
:103E00000322AFF6380104F10800FDF7F3F82A4960
:103E10000868FCF76BFA87B227483A46016804F154
:103E20000800FDF7E7F802222FA104F10800FDF7D2
:103E3000E1F802A8FCF75AFA87B23A4602A900E074
:103E4000BFE004F10800FDF7D5F80222AFF6B40197
:103E500004F10800FDF7CEF8002240F22971204657
:103E600004F062FC00BF40F2CE60288000BF3DE05D
:103E700041542B43494653520000000041542B4803
:103E80005454505445524D0041542B5341504252CA
:103E90003D312C3100000000B8000020BA000020A5
:103EA000BC000020BE000020C0000020C200002096
:103EB000C4000020C6000020A809002041542B5354
:103EC000415042523D302C310000000041542B4300
:103ED000495053534C3D000041542B4349505354D7
:103EE0004152543D302C2200222C000094F8EC006A
:103EF00000F0010030B994F8EC00C0F3400008B9BC
:103F0000002024E400BF94F8EC0000F0010080F0F1
:103F100001002076207E38BB00BF40F2D4602880AC
:103F200000BF94F8EC00C0F3C00058B994F8EC005E
:103F3000C0F3001030B994F8EC00C0F3401008B999
:103F4000002004E400BF94F8EC00C0F3C00020B1EE
:103F500000203070FD48C068606794F8EC00C0F342
:103F6000001008B10120207600BFE089A08100BFC9
:103F700004F1D400FDF7EEFA0020A08100BFF4495F
:103F80000880F4490880F4490880F4490880F4491D
:103F90000880F4490880F4490880F449088000BF8B
:103FA00094F8D80000F0010030B994F8D80020F05F
:103FB0000200801C84F8D8001821E448FCF77FF93F
:103FC00021E6A08940F22B7188426AD1A089E08164
:103FD000DE48416902A8FEF70DFA00BF0020C4F8D0
:103FE000EC0000BF0D22E2A104F10800FDF702F889
:103FF0000222AFF6582104F10800FCF7FBFF002273
:1040000040F22B71204604F08FFB00BF40F2EF60BE
:10401000288000BF94F8EC00C0F3400030B994F859
:10402000EC00C0F3801008B900202FE400BF616FDE
:1040300001F11600897D21F00101017094F8EC0076
:10404000C0F3801080F001002076E089A08100BFDD
:1040500004F1D400FDF77EFA0020A08100BFBC4926
:104060000880BC490880BC490880BC490880BC491C
:104070000880BC490880BC490880BC49088000BF52
:1040800094F8D80000F0010030B994F8D80020F07E
:104090000200801C84F8D8001821AC48FCF70FF906
:1040A000B1E5A08940F22A7188427DD1A089E081E2
:1040B000A648006918B10020A449096908600320D6
:1040C000AF49087000BFA148406940F2B45188422E
:1040D00001D9084601E09D484069AA4908600846A0
:1040E000016802A8FEF786F900BF0020C4F8EC00C2
:1040F00000BF0D22A4A104F10800FCF77BFF02A879
:10410000FCF7F4F887B23A4602A904F10800FCF77C
:1041100071FF0222AFF67C3104F10800FCF76AFF60
:10412000002240F22A71204604F0FEFA00BF40F25D
:104130000970288000BF94F8EC00C0F3800030B90B
:1041400094F8EC00C0F3400008B9002013E400BF6D
:1041500094F8EC00C0F3800038B300BF0020C4F82E
:10416000EC0000BF8748008882B27848016804F1FB
:104170000800FCF73FFF0122694604F10800FCF744
:1041800039FF00BF40F21170288000BF94F8EC00A6
:10419000C00970B9ED20005D00F0010048B994F845
:1041A000EC00C0F3400001E06FE01AE008B9002025
:1041B0004EE400BF94F8EC00C00908B1002000E014
:1041C00005202076207E98B96048006980B15F485C
:1041D000006900686B49096808445C49096908601E
:1041E00006E094F8EC00C0F3400008B1012020760E
:1041F000207E88B9032062490870544840696149AB
:104200000968401A51494861084600685D490968D3
:1042100008444E49086004E059480078401E584957
:1042200008704A48406920B15548007800287FF45A
:104230004AAFE089A08100BF04F1D400FDF78AF9FC
:104240000020A08100BF42490880424908804249BD
:104250000880424908804249088042490880424912
:1042600008804249088000BF94F8D80000F001009F
:1042700030B994F8D80020F00200801C84F8D800EF
:1042800018213248FCF71BF8BDE4A08940F22C71DC
:1042900088425AD1A089E08120683F49086000BF68
:1042A00040F22F70288000BF20683B490968401AFF
:1042B000B18A884201D200203CE400BF308940F23C
:1042C000B451884201DD0846308100BF0020C4F8A7
:1042D000EC0000BF0E2231A104F10800FCF78AFEB9
:1042E000317802A8FEF786F802A8FBF7FFFF87B235
:1042F0003A4602A904F10800FCF77CFE012225A140
:1043000004F10800FCF776FE318902A8FEF772F886
:1043100002A8FBF7EBFF87B23A4602A904F10800B6
:10432000FCF768FE0222AFF68C5104F10800FCF79E
:1043300061FE002240F22C71204604F0F5F900BF26
:1043400040F23F70288000BF30E07CE0A8090020E8
:10435000B8000020BA000020BC000020BE000020F1
:10436000C0000020C2000020C4000020C6000020C1
:1043700041542B434950434C4F53453D30000000BE
:10438000D4000020D000002041542B434950534515
:104390004E443D302C000000CC00002041542B4303
:1043A000495052584745543D322C000094F8EC00D7
:1043B00000F0010030B994F8EC00C0F3400008B9F7
:1043C000002050E400BF94F8EC0000F0010080F001
:1043D00001002076207E50B97189F0680844F060B1
:1043E000FE48006918B17089FC4909690860E089D4
:1043F000A08100BF04F1D400FDF7ACF80020A0813B
:1044000000BFF7490880F7490880F7490880F74955
:104410000880F7490880F7490880F7490880F7497C
:10442000088000BF94F8D80000F0010030B994F87B
:10443000D80020F00200801C84F8D8001821E7483A
:10444000FBF73DFF77E4A08940F2047188427DD1FB
:10445000A089E08100BF0020C4F8EC0000BF0B225F
:10446000E7A104F10800FCF7C5FD0222AFF6D46114
:1044700004F10800FCF7BEFD002240F22D71204639
:1044800004F052F900BF40F25470288000BF94F845
:10449000EC0000F0010030B994F8EC00C0F34000EB
:1044A00008B900200AE400BF94F8EC0000F0010015
:1044B00080F001002076207E012800D131E000BF8D
:1044C0000020C4F8EC0000BF1322D0A104F10800C2
:1044D000FCF790FD0222AFF63C7104F10800FCF7F6
:1044E00089FD002240F22D71204604F01DF900BF25
:1044F00040F26270288000BF94F8EC0000F00100E8
:1045000030B994F8EC00C0F3400008B900204EE444
:1045100000BF94F8EC0000F0010080F0010020766C
:1045200000BFE089A08100BF04F1D400FDF712F8BC
:104530000020A08100BFAA490880AA490880AA4992
:104540000880AA490880AA49088000E017E0A94924
:104550000880A9490880A949088000BF94F8D800BC
:1045600000F0010030B994F8D80020F00200801C5F
:1045700084F8D80018219948FBF7A1FE20E5A0890E
:1045800040F2077188426FD1A089E08100BF00200E
:10459000C4F8EC0000BF0C22A1A104F10800FCF754
:1045A00029FD9C20015902A8FDF724FF02A8FBF772
:1045B0009DFE87B23A4602A904F10800FCF71AFDF5
:1045C00006229BA104F10800FCF714FD02229AA127
:1045D00004F10800FCF70EFD002240F22F71204686
:1045E00004F0A2F800BF40F27670288000BFED20F2
:1045F000005DC0F3800058B994F8EC0000F00100B1
:1046000030B994F8EC00C0F3400008B9002078E419
:1046100000BF94F8EC00C0F3400070B9ED20005DDD
:10462000C0F3800048B19C20005982B29820015903
:1046300004F10800FCF7DEFC00E023E000BF0020EE
:10464000C4F8EC0000BF00BF40F28170288000BFBA
:1046500094F8EC0000F0010038B994F8EC00C0F3D5
:10466000400010B900204CE438E000BF94F8EC00A2
:1046700000F0010080F001002076207E012800D1AA
:1046800000E000BFE089A08100BF04F1D400FCF786
:1046900061FF0020A08100BF514908805149088076
:1046A0005149088051490880514908805149088082
:1046B000514908805149088000BF94F8D80000F0A3
:1046C000010030B994F8D80020F00200801C84F872
:1046D000D80018214148FBF7F2FD71E4A08940F2AF
:1046E0000671884277D1A089E08100BF0020C4F81C
:1046F000EC0000BF132251A104F10800FCF77AFC82
:1047000090210859FBF7F2FD87B2902001593A46F3
:1047100004F10800FCF76EFC01224DA104F1080031
:10472000FCF768FC022244A104F10800FCF762FCDB
:10473000002240F22E71204603F0F6FF00BF40F247
:104740009770288000BF94F8EC0000F0010030B9A9
:1047500094F8EC00C0F3400008B9002065E400BF05
:1047600094F8EC0000F0010080F001002076207E3B
:10477000012800D1D3E000BF0020C4F8EC0000BF46
:104780000B2234A104F10800FCF734FC134908683B
:10479000FBF7ACFD87B211483A46016804F1080006
:1047A000FCF728FC022224A104F10800FCF722FCFB
:1047B000002240F24271204603F0B6FF00BF40F2F3
:1047C000A670288000BF94F8EC0000F0010018B932
:1047D00094F8EC0044E0CEE047E00000A809002097
:1047E000B8000020BA000020BC000020BE0000205D
:1047F000C0000020C2000020C4000020C60000202D
:1048000041542B48545450494E49540041542B486C
:10481000545450504152413D22434944222C3100CE
:1048200041542B48545450444154413D0000000031
:104830002C313030303000000D0A000041542B483C
:10484000545450504152413D2255524C222C22008A
:104850002200000041542B4854545053534C3D0007
:10486000C0F3400008B9002070E400BF94F8EC00E9
:1048700000F0010080F001002076207E012800D1A8
:104880004DE000BF0020C4F8EC0000BF0E22FEA1E6
:1048900004F10800FCF7AEFB94F88C003030C0B295
:1048A0000190012201A904F10800FCF7A3FB0222F8
:1048B000AFF27C0104F10800FCF79CFB00224FF4EE
:1048C000E661204603F030FF00BF40F2B67028805A
:1048D00000BF94F8EC0000F0010030B994F8EC004F
:1048E000C0F3400008B9002030E400BF94F8EC00A9
:1048F00000F0010080F001002076207E012800D128
:104900000DE000BF40F2BE70288000BFED20005DCA
:10491000C0F3400008B9002018E400BF00BFE089E0
:10492000A08100BF04F1D400FCF714FE0020A08198
:1049300000BFD9490880D9490880D9490880D94998
:104940000880D9490880D9490880D9490880D949BF
:10495000088000BF94F8D80000F0010030B994F846
:10496000D80020F00200801C84F8D8001821D2481A
:10497000FBF7A5FC88E4A08940F2317188427DD123
:10498000A089E08100BF0020C4F8EC0000BF0C2229
:10499000CAA104F10800FCF72DFBA420015902A8CC
:1049A000FDF728FD02A8FBF7A1FC87B23A4602A951
:1049B00004F10800FCF71EFB0122AFF2286104F1AC
:1049C0000800FCF717FBA820015B02A8FDF712FD09
:1049D00002A8FBF78BFC87B23A4602A904F1080053
:1049E000FCF708FB0222AFF2B01104F10800FCF75B
:1049F00001FB002240F23171204603F095FE00BF1A
:104A00004FF4FA60288000BF94F8EC0000F0010039
:104A100030B994F8EC00C0F3400008B900204BE432
:104A200000BF94F8EC0000F0010080F00100207657
:104A3000207E70B9A4200159AC2000590144A42063
:104A400001519D48C06820B1AC2000599A49C968FD
:104A50000860E089A08100BF04F1D400FCF77AFD72
:104A60000020A08100BF8C4908808C4908808C49B7
:104A700008808C4908808C49088000E017E08B4949
:104A800008808B4908808B49088000BF94F8D800C3
:104A900000F0010030B994F8D80020F00200801C2A
:104AA00084F8D80018218448FBF709FCCAE4A089DF
:104AB000B0F5E16F72D1A089E08100BF0020C4F899
:104AC000EC0000BF172281A104F10800FCF792FA64
:104AD00090210859FBF70AFC87B2902001593A4609
:104AE00004F10800FCF786FA0122AFF29C2104F1E0
:104AF0000800FCF77FFA0222AFF2C42104F108009B
:104B0000FCF778FA002240F22E71204603F00CFEEA
:104B100000BF40F2E770288000BF94F8EC0000F07E
:104B2000010030B994F8EC00C0F3400008B900204F
:104B300047E400BF94F8EC0000F0010080F00100B1
:104B40002076E089A08100BF04F1D400FCF702FDCB
:104B50000020A08100BF504908805049088050497A
:104B600008805049088050490880504908805049C1
:104B700008805049088000BF94F8D80000F0010078
:104B800030B994F8D80020F00200801C84F8D800D6
:104B900018214948FBF793FB54E4FFE7A08940F252
:104BA000327188425BD100BF0020C4F8EC0000BF26
:104BB0000B22AFF6385104F10800FCF71BFA022271
:104BC000AFF28C3104F10800FCF714FA002240F235
:104BD0003271204603F0A8FD00BF40F2F470288037
:104BE00000BF94F8EC0000F0010030B994F8EC003C
:104BF000C0F3400008B9002054E400BF94F8EC0072
:104C000000F0010080F00100207600BF04F1D40024
:104C1000FCF7A0FC0020A08100BF1F4908801F49AD
:104C200008801F4908801F4908801F4908801F49C4
:104C300008801F4908801F49088000BF94F8D800E9
:104C400000F0010030B994F8D80020F00200801C78
:104C500084F8D80018211848FBF731FB8EE4A089AE
:104C600040F2097188427DD1A089E08100BF002017
:104C7000C4F8EC0000BF0B221AA104F10800FCF7F5
:104C8000B9F9022234E0000041542B4854545041F9
:104C90004354494F4E3D0000B8000020BA000020A8
:104CA000BC000020BE000020C0000020C200002088
:104CB000C4000020C6000020A809002041542B4851
:104CC000545450524541443D0000000041542B488B
:104CD000545450504152413D22434F4E54454E543E
:104CE000222C220041542B4654504349443D31006C
:104CF000AFF2BC4104F10800FCF77CF9002240F25D
:104D00003471204603F010FD00BF40F603002880F8
:104D100000BF94F8EC0000F0010030B994F8EC000A
:104D2000C0F3400008B9002071E400BF94F8EC0023
:104D300000F0010080F001002076207E012800D1E3
:104D400080E000BF0020C4F8EC0000BF0B22FEA1F1
:104D500004F10800FCF74EF9FE490868FBF7C6FAB3
:104D600087B200E09AE0FB483A46016804F1080087
:104D7000FCF740F90222AFF2405104F10800FCF7C1
:104D800039F9002240F24171204603F0CDFC00BF0A
:104D900040F61200288000BF94F8EC0000F00100FB
:104DA00030B994F8EC00C0F3400008B900202EE4BC
:104DB00000BF94F8EC0000F0010080F001002076C4
:104DC000207E012800D13DE000BF0020C4F8EC00A7
:104DD00000BF0A22E0A104F10800FCF70BF9DD494D
:104DE0004868FBF783FA87B2DA483A46416804F12B
:104DF0000800FCF7FFF80222AFF2C45104F10800EA
:104E0000FCF7F8F8002240F24371204603F08CFCD6
:104E100000BF40F62100288000BF94F8EC0000F0AD
:104E2000010030B994F8EC00C0F3400008B900204C
:104E300019E400BF94F8EC0000F0010080F00100DC
:104E4000207600BFE089A08100BF04F1D400FCF708
:104E500081FB0020A08100BFC2490880C2490880B0
:104E6000C2490880C2490880C2490880C2490880F6
:104E7000C2490880C249088000BF94F8D80000F0F9
:104E8000010030B994F8D80020F00200801C84F8AA
:104E9000D8001821AF48FBF712FA1EE4A08940F2AF
:104EA0000A7188425ED1A089E08100BF0020C4F869
:104EB000EC0000BF0A22B3A104F10800FCF79AF845
:104EC0000222AFF28C6104F10800FCF793F8002293
:104ED0004FF4E861204603F027FC00BF40F63100A4
:104EE000288000BF94F8EC0000F0010030B994F87D
:104EF000EC00C0F3400008B900202FE400BF94F894
:104F0000EC0000F0010080F001002076E089A08133
:104F100000BF04F1D400FCF71DFB0020A08100BFFE
:104F200090490880904908809049088090490880FD
:104F300090490880904908809049088090490880ED
:104F400000BF94F8D80000F0010030B994F8D80000
:104F500020F00200801C84F8D80018217D48FBF75F
:104F6000AEF907E5A08940F20B7188427DD1A08996
:104F7000E08100BF0020C4F8EC0000BF0C2284A137
:104F800004F10800FCF736F872490868FBF7AEF93F
:104F900087B270483A46016804F10800FCF72AF825
:104FA0000122AFF2547104F10800FCF723F8022249
:104FB000AFF27C7104F10800FCF71CF8002240F20B
:104FC0003571204603F0B0FB00BF40F64200288058
:104FD00000BF94F8EC0000F0010030B994F8EC0048
:104FE000C0F3400008B900203EE400BF94F8EC0094
:104FF00000F0010080F001002076207E012800D121
:1050000012E15448416902A8FDF7F4F900BF0020FD
:10501000C4F8EC0000BF0B2261A104F10800FBF70B
:10502000E9FF02A8FBF762F987B23A4602A904F148
:105030000800FBF7DFFF0222AFF6040104F10800CD
:10504000FBF7D8FF002240F23671204603F06CFBDC
:1050500000BF40F65100288000BF94F8EC0000F03B
:10506000010040B994F8EC0000E009E1C0F3400011
:1050700008B9002038E400BF94F8EC0000F001000B
:1050800080F001002076207E012800D1CCE000BF16
:105090000020C4F8EC0000BF0A2244A104F108007B
:1050A000FBF7A8FF2B494868FBF720F987B229488E
:1050B0003A46416804F10800FBF79CFF0122AFF675
:1050C000700104F10800FBF795FF0222AFF698018A
:1050D00004F10800FBF78EFF002240F237712046F2
:1050E00003F022FB00BF4FF40660288000BF94F855
:1050F000EC0000F0010030B994F8EC00C0F340007F
:1051000008B9002008E400BF94F8EC0000F00100AA
:1051100080F001002076207E012800D184E000BFCD
:105120000020C4F8EC0000BF0A2223A104F108000B
:10513000FBF760FF07498868FBF7D8F887B2054896
:105140003A4681683EE0000041542B4654504D4F92
:1051500044453D00A809002041542B465450535368
:105160004C3D0000B8000020BA000020BC00002028
:10517000BE000020C0000020C2000020C4000020AB
:10518000C600002041542B4654505155495400004C
:1051900041542B465450534552563D2200000000C6
:1051A00041542B465450504F52543D0041542B46CD
:1051B0005450554E3D22000041542B4654505057F8
:1051C0003D22000004F10800FBF714FF0122AFF6B6
:1051D000801104F10800FBF70DFF0222AFF6A811C1
:1051E00004F10800FBF706FF00224FF4E7612046B8
:1051F00003F09AFA00BF40F66F00288000BF94F8D1
:10520000EC0000F0010030B994F8EC00C0F340006D
:1052100008B900208CE400BF94F8EC0000F0010015
:1052200080F00100207600BFE089A08100BF04F17A
:10523000D400FCF78FF90020A08100BFFE49088050
:10524000FE490880FE490880FE490880FE49088022
:10525000FE490880FE490880FE49088000BF94F896
:10526000D80000F0010030B994F8D80020F0020016
:10527000801C84F8D8001821F748FBF720F815E4C3
:10528000A08940F20D7188427ED1A089E08100BFE3
:105290000020C4F8EC0000BF0F22F0A104F10800C8
:1052A000FBF7A8FEEC490868FBF720F887B2EA484C
:1052B0003A46016804F10800FBF79CFE0122AFF6B4
:1052C000702104F10800FBF795FE0222AFF6982149
:1052D00004F10800FBF78EFE002240F23C712046EC
:1052E00003F022FA00BF40F68200288000BF94F845
:1052F000EC0000F0010030B994F8EC00C0F340007D
:1053000008B9002014E400BF94F8EC0000F001009C
:1053100080F001002076207E012800D1AFE000BFA0
:105320000020C4F8EC0000BF0F22D0A104F1080057
:10533000FBF760FEC8494868FAF7D8FF87B2C6484D
:105340003A46416804F10800FBF754FE0122AFF62B
:10535000003104F10800FBF74DFE0222AFF62831C0
:1053600004F10800FBF746FE002240F23D712046A2
:1053700003F0DAF900BF40F69200288000BF94F8ED
:10538000EC0000F0010000E0A5E030B994F8EC007A
:10539000C0F3400008B900202EE400BF94F8EC00F0
:1053A00000F0010080F001002076207E012800D16D
:1053B00065E000BF0020C4F8EC0000BF0B22AFA1E5
:1053C00004F10800FBF716FE0222AFF6943104F157
:1053D0000800FBF70FFE002240F23E71204603F06A
:1053E000A3F900BF4FF40A60288000BF94F8EC00D6
:1053F00000F0010030B994F8EC00C0F3400008B9A7
:10540000002091E400BF94F8EC0000F0010080F06F
:1054100001002076207E012800D130E000BF40F658
:10542000A900288000BFED20005DC0F3401030B916
:1054300094F8EC00C0F3400008B9002074E400BF09
:1054400001202076ED20005DC0F34010B0B194F84B
:10545000B400012812D1B520005D01280ED1D02062
:10546000005D20F00100401CD0210855D020005DD7
:1054700020F00200801C08550020207600BFE08943
:10548000A08100BF04F1D400FCF764F80020A081E3
:1054900000BF6949088069490880694908806949ED
:1054A0000880694908806949088069490880694914
:1054B000088000BF94F8D80000F0010030B994F8DB
:1054C000D80020F00200801C84F8D800182162481F
:1054D000FAF7F5FE95E2A08940F20C7188427DD181
:1054E000A089E08100BF0020C4F8EC0000BFBC2010
:1054F000015902A8FCF77EFF0C2263A104F1080009
:10550000FBF778FD02A8FAF7F1FE87B23A4602A946
:1055100004F10800FBF76EFD0222AFF6E44104F14E
:105520000800FBF767FD002240F23E71204603F0C1
:10553000FBF800BF40F6C500288000BF94F8EC00DF
:1055400000F0010030B994F8EC00C0F3400008B955
:1055500000202CE400BF94F8EC0000F0010080F083
:1055600001002076207EE8B9C0200159BC200059F6
:10557000814202D1C020005928B9D020005D20F01E
:105580000101D0200155C8200159C0200059014413
:10559000C82001513048C06820B1C02000592E49B0
:1055A000C9680860E089A08100BF04F1D400FBF75E
:1055B000D1FF0020A08100BF1F4908801F4908803B
:1055C0001F4908801F4908801F4908801F4908801B
:1055D0001F4908801F49088000BF00E010E094F8D0
:1055E000D80000F0010030B994F8D80020F0020093
:1055F000801C84F8D80018211748FAF760FE95E35C
:10560000A08940F20E7188427ED1A089E08100BF5E
:105610000020C4F8EC0000BF0D221FA104F1080017
:10562000FBF7E8FC0222AFF6F05104F10800FBF7AB
:10563000E1FC002238E00000B8000020BA000020A1
:10564000BC000020BE000020C0000020C2000020DE
:10565000C4000020C6000020A809002041542B46A9
:105660005450474554504154483D220041542B4624
:1056700054504745544E414D453D220041542B4620
:1056800054504745543D310041542B4654504745F2
:10569000543D322C0000000041542B4654504745E5
:1056A000543D312C3000000040F23E71204603F0A2
:1056B0003BF800BF40F6DD00288000BF94F8EC0006
:1056C00000F0010030B994F8EC00C0F3400008B9D4
:1056D000002012E400BF94F8EC0000F0010080F01C
:1056E00001002076E089A08100BF04F1D400FBF71F
:1056F00031FF0020A08100BFFB490880FB490880E2
:10570000FB490880FB4900E01AE00880FA4908805C
:10571000FA490880FA490880FA49088000BF94F8DD
:10572000D80000F0010030B994F8D80020F0020051
:10573000801C84F8D8001821F348FAF7C0FDF5E280
:10574000A089B0F5E26F7CD1A089E08100BF002084
:10575000C4F8EC0000BF0E22ECA104F10800FBF736
:1057600049FCE9498868FAF7C1FD87B2E6483A463C
:10577000816804F10800FBF73DFC0122AFF63071AF
:1057800004F10800FBF736FC0222AFF6547104F175
:105790000800FBF72FFC002240F23F71204602F088
:1057A000C3FF00BF40F6EF00288000BF94F8EC0074
:1057B00000F0010030B994F8EC00C0F3400008B9E3
:1057C000002011E400BF94F8EC0000F0010080F02C
:1057D00001002076207E012800D1E7E000BF0020F4
:1057E000C4F8EC0000BF0F22CCA104F10800FBF7C5
:1057F00001FCC5490868FAF779FD87B2C2483A4604
:10580000016804F10800FBF7F5FB0122AFF6C07157
:1058100004F10800FBF7EEFB0222AFF6E47104F19D
:105820000800FBF7E7FB002240F23A71204602F045
:105830007BFF00BF4FF41060288000BF94F8EC009D
:1058400000E0DFE000F0010030B994F8EC00C0F3B4
:10585000400008B900200DE400BF94F8EC0000F00F
:10586000010080F001002076207E012800D19DE01B
:1058700000BF0020C4F8EC0000BF0F22ABA104F170
:105880000800FBF7B7FBA0494868FAF72FFD87B27D
:105890009D483A46416804F10800FBF7ABFB012242
:1058A000A6A104F10800FBF7A5FB0222A4A104F1C4
:1058B0000800FBF79FFB002240F23971204602F0FE
:1058C00033FF00BF4FF41160288000BF94F8EC0054
:1058D00000F0010030B994F8EC00C0F3400008B9C2
:1058E00000200FE400BF94F8EC0000F0010080F00D
:1058F00001002076207E012800D157E000BF002063
:10590000C4F8EC0000BF0B228EA104F10800FBF7E5
:1059100071FB02228AA104F10800FBF76BFB002255
:1059200040F23B71204602F0FFFE00BF40F61E1021
:10593000288000BF94F8EC0000F0010030B994F822
:10594000EC00C0F3400008B9002063E400BF94F805
:10595000EC0000F0010080F001002076207E01289C
:1059600000D123E000BF40F62710288000BFED20C3
:10597000005DC0F3801030B994F8EC00C0F3400033
:1059800008B9002046E400BF01202076ED20005D2C
:10599000C0F3801048B194F8B400012805D1B520B7
:1059A000005D012801D10020207600BFE089A081A0
:1059B00000BF04F1D400FBF7CDFD0020A08100BFA3
:1059C000494908804949088049490880494908806F
:1059D000494908804949088049490880494908805F
:1059E00000BF94F8D80000F0010030B994F8D80056
:1059F00020F00200801C84F8D80018214248FAF7F1
:105A00005EFC93E1A08940F20F71884269D1A089C0
:105A1000E08100BFBC200159CC200059814202D94D
:105A2000CC20005901E0BC200059494908600846D3
:105A3000016802A8FCF7DEFC00BF0020C4F8EC00FF
:105A400000BF0C2243A104F10800FBF7D3FA02A81F
:105A5000FAF74CFC87B23A4602A904F10800FBF7BA
:105A6000C9FA022236A104F10800FBF7C3FA0022AA
:105A700040F23B71204602F057FE00BF40F6441052
:105A8000288000BFED20005DC00930B994F8EC001B
:105A9000C0F3400008B9002034E400BFED20005DF1
:105AA000C009F8B100BF0020C4F8EC0000BF2848CE
:105AB000008882B2B820015904F10800FBF79AFA75
:105AC00000BF40F64D10288000BF94F8EC0000F0B5
:105AD000010040B994F8EC00C0F3400018B9002070
