:020000040800F2
:1000000060E7002069020008F1200008E9200008EC
:10001000ED200008CB0500084D7A00080000000024
:10002000000000000000000000000000AD0100081A
:10003000D10600080000000001020008456F00081A
:10004000830200088302000883020008830200087C
:10005000830200088302000883020008830200086C
:10006000830200088302000883020008D10500080B
:10007000E1050008F1050008010600081106000866
:100080002106000831060008830200080000000075
:1000900000000000000000000000000083020008D3
:1000A000830200088302000883020008830200081C
:1000B000830200088302000883020008830200080C
:1000C00083020008830200088302000883020008FC
:1000D00083020008D1790008F579000800000000CB
:1000E0008302000883020008830200080000000069
:1000F00000000000000000000000000041060008B1
:100100000000000083020008830200088302000848
:1001100000000000000000000000000000000000DF
:1001200051060008610600087106000881060008F3
:100130009106000800000000000000000000000020
:100140000000000000000000000000008302000822
:10015000A1060008B1060008C1060008217A0008BF
:100160008302000883020008000000000000000075
:10017000000000000000000000000000000000007F
:1001800000000000830200080000000000000000E2
:100190008302000883020008DFF80CD000F00CF99D
:1001A00000480047C97C000860E700202B4B196815
:1001B0000868B0E8F04F80F30988BFF36F8F4FF005
:1001C000000080F3118870470000000006480068B6
:1001D000006880F3088862B661B6BFF34F8FBFF343
:1001E0006F8F00DF00BF00BF08ED00E0DFF80C00FC
:1001F000016841F470010160704700BF88ED00E0C4
:10020000EFF30980BFF36F8F144B1A681EF0100FC5
:1002100008BF20ED108A20E9F04F106008B44FF0BD
:10022000500080F31188BFF34F8FBFF36F8F08F03A
:10023000B9FA4FF0000080F3118808BC196808680B
:10024000B0E8F04F1EF0100F08BFB0EC108A80F33A
:100250000988BFF36F8F704700BF00BFE000002028
:10026000EFF30580704700000648804706480047C6
:10027000FEE7FEE7FEE7FEE7FEE7FEE7FEE7FEE756
:10028000FEE7FEE74D6F00089901000840EA010310
:100290009B0703D009E008C9121F08C0042AFAD23C
:1002A00003E011F8013B00F8013B521EF9D2704700
:1002B000D2B201E000F8012B491EFBD270470022A8
:1002C000F6E710B513460A4604461946FFF7F0FF55
:1002D000204610BD10B5044604E00B7800F8013B41
:1002E00003B1491C521EF8D2204610BD421C10F822
:1002F000011B0029FBD1801A704710B5002200E0D5
:10030000521C835C8C5CA34201D1002BF8D1D8B283
:10031000E1B2401A10BD034611F8012B00F8012B81
:10032000002AF9D11846704730B50546002003462B
:1003300000E05B1C934205D2EC5CC85C201A01D142
:10034000002CF6D130BD000070B500B91068002552
:1003500012E00B4602E0A64203D05B1C1C78002C86
:10036000F9D1E3B22B4305D02CB125B1002100F81F
:10037000011B04E00546401C0678002EE9D1106000
:10038000284670BD004ADFE73C01002030B50B462F
:10039000014600202022012409E021FA02F59D42B5
:1003A00005D303FA02F5491B04FA02F52844151E89
:1003B000A2F10102F1DC30BD064C074D06E0E06819
:1003C00040F0010394E8070098471034AC42F6D39C
:1003D000FFF7E6FE749100089491000870B58C1840
:1003E00010F8015B15F0070301D110F8013B2A1149
:1003F00006D110F8012B03E010F8016B01F8016B36
:100400005B1EF9D12B0705D40023521E0DD401F831
:10041000013BFAE710F8013BCB1A921C03E013F8FA
:10042000015B01F8015B521EF9D5A142D8D300202F
:1004300070BD30B50146002409B9002030BD4A68BE
:100440008B689A4200D10C68934200D99C1A9A4258
:1004500002D9D51A0868441B601EEFE730B5034681
:100460000BB9002030BD59689A68914200D1002430
:10047000914200D98C1A8A4202D9551A1868441B35
:100480002046EFE770B504460D4616460CB901202C
:1004900070BD18212046FFF712FF2560E6600A2094
:1004A0006074E06868B9284607F066FCE060E068C0
:1004B00018B9002020600120EAE7207C40F002000B
:1004C0002074207C40F0010020740020E0E72DE93A
:1004D000F0470446884615464FF0000904B115B9A7
:1004E0000020BDE8F0872168A068884201D3002081
:1004F000A0602046FFF7B2FF0746AF4203D20FB914
:100500000020EEE73D46A1682068461AAE4200D9B9
:100510002E46D4E90220811832464046FFF7B6FE47
:10052000B144A0683044A060AD1B35B108EB0900B0
:100530002A46E168FFF7AAFEA5602168A068884204
:1005400001D30020A06009EB0500CAE72DE9F047C0
:100550000446894615464FF0000804B115B900203D
:10056000BDE8F087D4E90010884201D30020606024
:100570002046FFF75EFF0746AF4203D20FB90020C7
:10058000EEE73D46D4E90001461AAE4200D92E46B8
:100590006268E168881832464946FFF777FEB04442
:1005A000606830446060AD1B35B109EB08012A4634
:1005B000E068FFF76BFE6560D4E90010884201D364
:1005C0000020606008EB0500CAE700BFFEE70000FE
:1005D00010B5024806F0D7FD10BD000010600240C3
:1005E00010B5024806F0CFFD10BD000028600240A3
:1005F00010B5024806F0C7FD10BD00004060024083
:1006000010B5024806F0BFFD10BD00005860024062
:1006100010B5024806F0B7FD10BD00007060024042
:1006200010B5024806F0AFFD10BD00008860024022
:1006300010B5024806F0A7FD10BD0000A060024002
:1006400010B5024806F09FFD10BD0000B8600240E2
:1006500010B5024806F097FD10BD0000106402407E
:1006600010B5024806F08FFD10BD0000286402405E
:1006700010B5024806F087FD10BD0000406402403E
:1006800010B5024806F07FFD10BD0000586402401E
:1006900010B5024806F077FD10BD000070640240FE
:1006A00010B5024806F06FFD10BD000088640240DE
:1006B00010B5024806F067FD10BD0000A0640240BE
:1006C00010B5024806F05FFD10BD0000B86402409E
:1006D0007047000070B504460D46164600BF1DB9B0
:1006E00000BF0320207170BD00BF00BFA08920B9EA
:1006F00094F8BC00C0F3400018B100BF0220207184
:10070000F1E700BF00BF04F1B80000F0F5FD08B14B
:100710000420E8E7A08908B92068606140F22B70E6
:10072000A08100BF1148C56000BF4EB994F8BC005D
:1007300020F0010084F8BC0000BF00202071D2E747
:1007400094F8BC0020F00100401C84F8BC004FF479
:100750007A71204600F050FF0346042B00D1C2E717
:10076000237E002020761846BDE70000540A0020B2
:10077000034609B900207047488A18B9887DC0F33C
:10078000400008B10120F6E70020F4E72DE9F0472A
:1007900004460D4616461F46DDE9099ADDF820801D
:1007A00000BF0DB106B127B900BF03202071BDE81D
:1007B000F08700BF00BFA08920B994F8BC00C0F347
:1007C000400018B100BF02202071F0E700BF00BF59
:1007D00004F1B80000F090FD08B10420E7E7A0891B
:1007E00008B92068606140F22C70A08100BF6E6083
:1007F0002F8100206881A5F814901648C560C0F8C4
:100800001080B8F1000F02D00020C8F8000000BF2F
:10081000BAF1000F09D194F8BC0020F0010084F86F
:10082000BC0000BF00202071C1E794F8BC0020F09C
:100830000100401C84F8BC004FF47A71204600F09F
:10084000DBFE0346042B00D1B1E7237E0020207697
:100850001846ACE7540A00202DE9F04704460D463F
:1008600016461F46DDE9088900BF0DB106B127B95C
:1008700000BF03202071BDE8F08700BF00BFA08942
:1008800020B994F8BC00C0F3400018B100BF0220AA
:100890002071F0E700BF00BF04F1B80000F02CFDAC
:1008A00008B10420E7E7A08908B92068606140F238
:1008B0002A70A08100BF1748C560C0F8108006608C
:1008C0004761B8F1000F02D00020C8F8000000BF57
:1008D000B9F1000F09D194F8BC0020F0010084F8B0
:1008E000BC0000BF00202071C5E794F8BC0020F0D8
:1008F0000100401C84F8BC0042F21071204600F058
:100900007BFE0346042B00D1B5E7237E0020207632
:100910001846B0E7540A00202DE9F04704460D467A
:1009200017461E46DDE9088900BF05B126B900BF9C
:1009300003202071BDE8F08700BF00BFA08920B967
:1009400094F8BC00C0F3400018B100BF0220207131
:10095000F0E700BF00BF04F1B80000F0CDFC08B123
:100960000420E7E7A08908B92068606140F2297097
:10097000A08100BF1948C56006601FB918A01749BB
:10098000486002E017A0154948601448C0F8148078
:100990000020287000BFB9F1000F09D194F8BC0005
:1009A00020F0010084F8BC0000BF00202071C1E7E6
:1009B00094F8BC0020F00100401C84F8BC004FF407
:1009C0007A71204600F018FE0346042B00D1B1E7EF
:1009D000237E002020761846ACE70000540A002051
:1009E000544350005544500070477047704770475B
:1009F00070B504460D46034E2A4621463046FFF7A1
:100A0000A5FD70BDB807002008B50246106800902B
:100A100000BF1068009BC01A8842FAD300BF0020B4
:100A2000107108BD2DE9F04104460F4615461E46DB
:100A3000DDF8188000BF27B900BF03202071BDE892
:100A4000F08100BF00BFA08920B994F8BC00C0F3BA
:100A5000400018B100BF02202071F0E700BF00BFC6
:100A600004F1B80000F048FC08B10420E7E7A089D1
:100A700008B92068606140F20270A08100BF1B4885
:100A8000076000201949486088602DB12846FFF7AB
:100A90002DFC08B1154845602EB13046FFF726FC05
:100AA00008B11248866000BFB8F1000F09D194F870
:100AB000BC0020F0010084F8BC0000BF00202071C1
:100AC000BDE794F8BC0020F00100401C84F8BC0095
:100AD0000749204600F090FD0346042B00D1AEE705
:100AE000237E002020761846A9E70000540A002043
:100AF00020BF020070B504460D4600BFA08920B992
:100B000094F8BC00C0F3400018B100BF022020716F
:100B100070BD00BF00BF04F1B80000F0EDFB08B1EC
:100B20000420F5E7A08908B92068606140F20370ED
:100B3000A08100BF00BF4DB994F8BC0020F00100B7
:100B400084F8BC0000BF00202071E1E794F8BC00ED
:100B500020F00100401C84F8BC004FF47A7120465C
:100B600000F04AFD0346042B00D1D1E7237E00208C
:100B700020761846CCE700002DE9F04105460E46E8
:100B800017463224DFF89C82A7480560C42100681C
:100B9000FFF795FB0020A449096881F86C00062145
:100BA000A148006880F8441000209F490968086047
:100BB0009E4A4FF400714046FFF764FC9A48006873
:100BC000876099480068083000F042F930B100BFF2
:100BD0000720954909680871BDE8F0810121924814
:100BE0000068083000F064F90A218F480068FFF7B8
:100BF0000BFF00218C480068083000F059F98A4842
:100C00000068B83000F05AFB28B100BF06208649C2
:100C100009680871E0E70020854908808549088057
:100C2000854908808549088085490880854908806C
:100C3000854908807C48006890F8BC0020F00100DD
:100C4000401C7949096881F8BC004FF47A707649F4
:100C50000968C86100BF00BF73480068B83000F081
:100C60004BFB08B10420B7E76F480068808928B9BA
:100C70006D48006800686C490968486105206A4948
:100C80000968888100BF4FF47A716748006800F0F6
:100C9000B3FC65480068007E00B903E0201EA4F1A3
:100CA0000104D8D100BF00BF00BF5F480068B83062
:100CB00000F022FB08B104208EE75B4800688089C1
:100CC00028B95948006800685749096848610420F4
:100CD00055490968888100BF4FF47A71524800680D
:100CE00000F08AFC50480068007E00B903E0201E36
:100CF000A4F10104D8D100BF00BF00BF4A4800687A
:100D0000B83000F0F9FA08B1042065E746480068F9
:100D1000808928B9444800680068434909684861E7
:100D2000022041490968888100BF4FF47A713E482A
:100D3000006800F061FC3C480068007E00B903E0F8
:100D4000201EA4F10104D8D100BF00BF00BF364867
:100D50000068B83000F0D0FA08B104203CE732480F
:100D60000068808928B93048006800682E49096801
:100D7000486103202C490968888100BF4FF47A71CB
:100D80002948006800F038FC27480068007E00B958
:100D900003E0201EA4F10104D8D100BF00BF2B48FE
:100DA000066000BF20480068B83000F0A5FA08B11E
:100DB000042011E71C480068808928B91A48006897
:100DC000006819490968486140F20110164909682C
:100DD000888100BF4FF47A711348006800F00CFC62
:100DE00011480068007E00B908E064210E480068E0
:100DF000FFF70AFE201EA4F10104D0D100BF0A486B
:100E0000006890F8BC0020F001000749096881F8EB
:100E1000BC0000BF04480068007E287102480068DA
:100E2000007ED9E6B8070020B8000020D0070020D7
:100E3000BC000020BE000020C0000020C400002034
:100E4000C2000020C8000020CA000020540A002070
:100E50001CB5044600210D48226806F057FC00200E
:100E6000012103460A46CDE900100221084806F098
:100E700039FA0020012103460A46CDE90010082175
:100E8000034806F02FFA00201CBD000000100140AE
:100E90000000024070B506460C4615462A4621461B
:100EA000024806F06CFC002070BD000000100140FC
:100EB0000246012903D14804034B986102E0022055
:100EC000014B986100207047000002401FB50024CC
:100ED0004FF4E13255A15748FFF74EFE054629462B
:100EE00055A006F0B5FDA0E0524800F091F906F0DB
:100EF000CDF80028F7D001204DA34DA254A10090B9
:100F00004C48FFF78FFD5549087000286ED154A05A
:100F100006F09EFD0120502155A30022CDE90010CE
:100F200059494448FFF7F8FC4C49087000285AD149
:100F300056A006F08DFD01205A4952235A4ACDE9A8
:100F4000001051493B48FFF787FC444908700028CE
:100F500043D13848006803905248016853A006F016
:100F600077FD00BF012248493248FFF701FCD8B1A4
:100F700001200A21594A4FF47A73CDE900210290E9
:100F8000574A41492B48FFF701FC40B953480168D3
:100F900054A006F05DFD27480068039004E02F4848
:100FA000017857A006F054FD224800680399401AC2
:100FB000B0F5FA6FD6D3012233491E48FFF78AFBFA
:100FC0002649087018B957A006F042FD04E02348EE
:100FD00001785AA006F03CFD0CE02048017861A0A1
:100FE00006F036FD06E01D48017800E013E067A03A
:100FF00006F02EFD01210F48FFF77CFD1749087010
:1010000018B96DA006F024FD0AE0144801786EA01E
:1010100006F01EFD04E01148017875A006F018FDE9
:101020000CB9012000E0002004465DE73132333482
:10103000000000002002002047534D20496E6974D3
:10104000207374617475733A2025640D0A000000E2
:10105000696E7465726E65740000000048000020BF
:10106000475052532041747461636865640D0A00EF
:1010700073746D333266342D646973636F76657291
:10108000792E6E6574000000B8030020436F6E6E09
:10109000656374656420746F207365727665722170
:1010A0000D0A0000A8000020540000204461746173
:1010B0002073656E7420746F20736572766572217B
:1010C000204E756D626572206F662062797465735B
:1010D0002073656E743A2025640D0A0050000020CC
:1010E000D00300205265636569766564202564201D
:1010F0006279746573206F6620646174610D0A0003
:101100004572726F7220747279696E6720746F20F5
:101110007265636569766520646174613A2025644F
:101120000D0A0000436F6E6E656374696F6E206315
:101130006C6F736564210D0A000000004572726FC8
:101140007220747279696E6720746F20636C6F739C
:101150006520636F6E6E656374696F6E3A202564F7
:101160000D0A00004572726F7220747279696E67A1
:1011700020746F20636F6E6E65637420746F2073CC
:1011800065727665723A2025640D0A00436F756CAE
:1011900064206E6F74206578656375746520726570
:1011A000717565737420746F207365727665723A19
:1011B0002025640D0A0000004750525320446574F6
:1011C00061636865640D0A0050726F626C656D73CF
:1011D00020747279696E6720746F2064657461632E
:1011E0006820475052533A2025640D0A0000000041
:1011F000436F756C64206E6F7420617474616368F2
:1012000020746F20475052533A2025640D0A000085
:1012100010B50446A08968B994F8BC00C0F340003A
:1012200040B194F8BC0020F0020084F8BC002046D5
:10123000FFF7DCFBA08990B994F8BC00C0F3400034
:1012400068B9BD20005DC0F3800040B1BD20005DE5
:1012500020F00401BD2001552046FFF7C5FBA08901
:1012600090B994F8BC00C0F3400068B9BD20005D9F
:10127000C0F3C00040B1BD20005D20F00801BD20DA
:1012800001552046FFF7B1FBA08990B994F8BC0046
:10129000C0F3400068B9BD20005DC0F3400040B11C
:1012A000BD20005D20F00201BD2001552046FFF762
:1012B0009EFB00BF0020207110BD000010B5044649
:1012C000204606F094FD044908600846006808B905
:1012D000012010BD0020FCE7DC00002010B5044612
:1012E0000448006806F08AFD08B1012010BD002006
:1012F000FCE70000DC00002010B504464FF47A71D2
:101300000448006806F0A2FD08B1012010BD0020CD
:10131000FCE70000DC000020F8B50446A94D4FF4BE
:10132000FA76A08960B120686169401AE169884253
:1013300006D994F8C00020F00200801C84F8C00098
:1013400032E1A08940F2317188421FD1BD20005D99
:10135000C0F38010D0B19DF80030AC210859411C79
:10136000AC221151982109590B54B0200059401E4C
:10137000B0210851B0200059002806D1BD20005DE1
:1013800020F04001BD200155002605E1A08940F272
:101390002C7188421ED1BD20005DC0F34010C8B141
:1013A0008949C8689DF800204389591C41814168DA
:1013B000CA54018A491E0182018A51B9BD21095DC1
:1013C00021F02002BD210A55817D21F002018175A5
:1013D0000026E1E0A08940F20221884240D1BD20F0
:1013E000005D00F00100D0B37749C86890F8A31001
:1013F0009F2909D29DF8002010F8A33F0178491CCD
:1014000000F8A319C11CCA549DF800100A2925D15F
:101410006E4909780D2921D190F8A31002291DDB0E
:1014200090F8A310891EC21C515C0D290AD190F8B6
:10143000A310491E515C0A2904D190F8A310891EFB
:1014400080F8A310002290F8A330C11CCA54BD211B
:10145000095D21F00102BD210A5500269CE0FFE74D
:10146000A08940F20521884250D1BD20005D00F0E6
:10147000010000284AD0544800690088524949694F
:10148000884233D25049C8689DF8002010F8A33F25
:101490000178491C00F8A319C11CCA549DF800101A
:1014A0000A2922D1494909780D291ED190F8A310A3
:1014B00002291ADB10F8A31F891E0170002210F800
:1014C000A339C11CCA544049C968D4313E4AD160CD
:1014D000114609690988491C12691180BD21095DFD
:1014E00021F00102BD210A55002655E09DF80000BB
:1014F0000A2851D1354800780D284DD1BD20005D16
:1015000020F00101BD200155002645E09DF80000B6
:101510000A281BD100BF9DF800102D4802780078E2
:10152000401C2B4B1870581C81540021401E02781F
:10153000401C815400BF411E204605F087F800BFC3
:10154000002023490870487000BF24E09DF8000087
:1015500020280ED11D4800783E280AD11D48007869
:101560000A2806D194F8C00020F00400001D84F879
:10157000C00000BF9DF80010154802780078401C9C
:10158000134B1870581C81540021401E0278401CD7
:10159000815400BF00BF00BF0C4800780D4908709F
:1015A0009DF80000094908703EB1012269462846AD
:1015B000FEF78DFF00287FF4C4AE204605F046FC00
:1015C000F8BD0000B8070020540A0020D900002010
:1015D000D1090020DA00002002461068084410609B
:1015E00000BF00201071704702E00248FFF794FE30
:1015F000FBE70000200200200246D16100BF908975
:101600000028FCD192F8BC00C0F340000028F6D1BD
:1016100000BF107E1071107E704700000148006806
:10162000704700000400002010B52E480068401CE0
:101630002C4908602C48006820B12B480068401EE7
:1016400029490860002444E0284850F82400002874
:101650003DD0264850F824000078C0F34000B0B3D5
:10166000224850F82400806840B1204850F82400F7
:101670008068401E1D4951F8241088601B4850F8AE
:101680002400806818BB194B53F824301969174B94
:1016900053F8240053F82430DA689047134850F880
:1016A00024004168114850F8240081600F4850F828
:1016B0002400007800F0010048B90C4850F82400DC
:1016C000007820F00201094850F824000170601CE5
:1016D000C4B20648001F0078A042B5DC05F09AFCB1
:1016E00010BD000004000020000000206C0100205C
:1016F00010B50D48006840F400700B4908600846BA
:10170000006840F4806008600846006840F480701B
:101710000860032000F086F80F2000F007F800F0C2
:1017200017F8002010BD0000003C024070B50446D0
:1017300000F0E4F94FF47A71B0FBF1F5284600F0BF
:1017400081FC00222146501E00F02DF8002070BDC3
:101750007047000000BF00F01F0201219140034AC2
:10176000430942F8231000BF7047000080E200E008
:1017700000BF00F01F0201219140034A430942F8D3
:10178000231000BF7047000080E100E000BF00F0C0
:101790001F02012191404209920002F1E022C2F8A9
:1017A000001100BF70472DE9F05F80460D461646D8
:1017B000002700F09FFC074639462A46334601F0D1
:1017C0000700C0F1070ABAF1040F02D94FF0040A6A
:1017D00001E0C0F1070AD14600F1040ABAF1070F8F
:1017E00002D24FF0000A01E0A0F1030AD4464FF004
:1017F000010A0AFA09FAAAF1010A0AEA020A0AFA2D
:101800000CFA4FF0010B0BFA0CFBABF1010B0BEADE
:10181000030B4AEA0B042146404600F073FCBDE886
:10182000F09F000000BF00F00702064B19684FF65A
:10183000FF031940044B0B4343EA0221014B19609B
:1018400000BF70470CED00E00000FA0570B50446DB
:101850000E460025A748006800F00F00B0426FD286
:10186000A4490E700846006800F00F00B04201D095
:10187000012070BD207800F00200022807D19E48A8
:10188000006820F0F000A16808439B4908602078B8
:1018900000F0010000283ED06068012807D196487A
:1018A00008380068C0F34040B8B90120E1E760683B
:1018B000022802D06068032807D18F4808380068E2
:1018C000C0F3406048B90120D3E78B48083800686E
:1018D000C0F3400008B90120CBE78748006820F03A
:1018E00003006168084384490860FFF797FE0546D6
:1018F0006068012810D108E0FFF790FE401B41F21C
:101900008831884201D90320B3E77B48006800F0A2
:101910000C000428F0D1CDE06068022811D108E065
:10192000FFF77CFE401B41F28831884201D9032039
:101930009FE77148006800F00C000828F0D1B9E07A
:1019400024E06068032810D108E0FFF767FE401B21
:1019500041F28831884201D903208AE7664800684D
:1019600000F00C000328F0D1A4E008E0FFF756FED9
:10197000401B41F28831884201D9032079E75E4853
:10198000006800F00C000028F0D193E0207800F00F
:101990000200022807D15848006820F0F000A16832
:1019A000084355490860207800F00100002877D0EE
:1019B0006068012807D1504808380068C0F34040EB
:1019C000B8B9012055E76068022802D06068032892
:1019D00007D1494808380068C0F3406048B9012081
:1019E00047E7454808380068C0F3400008B90120BF
:1019F0003FE74148006820F00300616808433E4922
:101A00000860FFF70BFE05466068012810D108E06A
:101A1000FFF704FE401B41F28831884201D90320C0
:101A200027E73548006800F00C000428F0D137E0C3
:101A30006068022810D108E0FFF7F0FD401B41F27A
:101A40008831884201D9032013E72B48006800F051
:101A50000C000828F0D123E06068032810D108E0CA
:101A6000FFF7DCFD401B41F28831884201D9032099
:101A7000FFE62148006800F00C000328F0D10FE0D9
:101A800008E0FFF7CBFD401B41F28831884201D9C5
:101A90000320EEE61848006800F00C000028F0D1A2
:101AA00014490E700846006800F00F00B04201D0E3
:101AB0000120DEE6207800F00400042807D10E485B
:101AC000006820F4E050E16808430B490860207882
:101AD00000F00800082808D10748006820F460409A
:101AE000216940EAC100044908600F20FFF71EFE8B
:101AF0000020BEE6003C02400838024010B500F06D
:101B000045F80949096801F0F001F02292FAA2F2C1
:101B1000B2FA82F2D140054A515CC84004490860DB
:101B20000846006810BD0000083802401091000807
:101B3000B400002010B5FFF7E1FF0749096801F480
:101B4000E0514FF4E05292FAA2F2B2FA82F2D1409E
:101B5000024A515CC84010BD08380240109100088C
:101B600010B5FFF7CBFF0749096801F460414FF456
:101B7000604292FAA2F2B2FA82F2D140024A515C79
:101B8000C84010BD083802401091000870B500210F
:101B9000002200230020274C246804F00C0424B108
:101BA000042C04D0082C41D103E0234840E0234812
:101BB0003EE0204C241F246804F03F011D4C241FEC
:101BC000246804F4800484B11C4CB4FBF1F5194C76
:101BD000241F246847F6C076344096FAA6F6B6FA73
:101BE00086F6F44005FB04F20FE0134CB4FBF1F56C
:101BF000104C241F246847F6C076344096FAA6F6A7
:101C0000B6FA86F6F44005FB04F20A4C241F246859
:101C100004F440344FF4403595FAA5F5B5FA85F54E
:101C2000EC40641C6300B2FBF3F001E0024800BF2B
:101C300000BF70BD083802400024F40000127A0092
:101C400038B504460025207800F00100002866D051
:101C5000F648006800F00C0004280DD0F348006836
:101C600000F00C00082813D1F048001F006800F4B1
:101C70008000B0F5800F0BD1EC4808380068C0F345
:101C8000404000284BD06068002848D1012038BD72
:101C90000020E649891F0870FFF7C0FC054608E0F0
:101CA000FFF7BCFC401B41F28831884201D9032078
:101CB000EDE7DE4808380068C0F340400028EFD167
:101CC0002079DA49891F08706068A0B1FFF7A6FC87
:101CD000054608E0FFF7A2FC401B41F2883188422C
:101CE00001D90320D3E7D14808380068C0F3404049
:101CF0000028EFD013E0FFF791FC054608E0FFF75E
:101D00008DFC401B41F28831884201D90320BEE797
:101D1000C64808380068C0F340400028EFD120785A
:101D200000F00200022869D1C048006800F00C00F1
:101D300058B1BE48006800F00C00082821D1BB480B
:101D4000001F006800F48000D8B9B848083800685F
:101D5000C0F3400020B1E068012801D0012096E7DF
:101D6000B2480838006820F0F800F82292FAA2F28F
:101D7000B2FA82F2216991400843AC4908390860FF
:101D80003CE0E06828B30120A9490860FFF746FC61
:101D9000054606E0FFF742FC401B642801D90320FA
:101DA00075E7A24808380068C0F340000028F1D069
:101DB0009E480838006820F0F800F82292FAA2F253
:101DC000B2FA82F2216991400843984908390860C3
:101DD00014E0002096490860FFF720FC054606E065
:101DE000FFF71CFC401B642801D903204FE78F48F4
:101DF00008380068C0F340000028F1D1207800F0D6
:101E0000080008282CD16069A8B101208949086020
:101E1000FFF704FC054606E0FFF700FC401B6428C2
:101E200001D9032033E781486C300068C0F34000DB
:101E30000028F1D014E000207E490860FFF7EEFB97
:101E4000054606E0FFF7EAFB401B642801D90320A2
:101E50001DE776486C300068C0F340000028F1D1DF
:101E6000207800F0040004286DD100BF6F4838309E
:101E7000006840F080506D493831086008460068BD
:101E800000F08050009000BF00BF6B48006840F435
:101E9000807069490860FFF7C1FB054606E0FFF75F
:101EA000BDFB401B642801D90320F0E662480068AE
:101EB00000F480700028F2D000205C49683108707E
:101EC000FFF7ACFB054608E0FFF7A8FB401B41F21B
:101ED0008831884201D90320D9E654486830006827
:101EE000C0F340000028EFD1207A504968310870D3
:101EF000A068A0B1FFF792FB054608E0FFF78EFB54
:101F0000401B41F28831884201D90320BFE647488F
:101F100068300068C0F340000028EFD013E0FFF7FE
:101F20007DFB054608E0FFF779FB401B41F2883155
:101F3000884201D90320AAE63C4868300068C0F313
:101F400040000028EFD1A069F0B33848006800F0E5
:101F50000C00082872D0A069022850D10020344912
:101F60000866FFF75BFB054606E0FFF757FB401BE3
:101F7000642801D903208AE62C4808380068C0F399
:101F800040600028F1D1D4E90701084347F6C07248
:101F900092FAA2F2B2FA82F2616A914008430122F7
:101FA000A16AC2EB51014FF4403292FAA2F2B2FAA6
:101FB00082F2914008434FF0706292FAA2F2B2FAB4
:101FC00082F2E16A914000E03AE008431749091FB4
:101FD0000860012016490866FFF720FB054606E069
:101FE000FFF71CFB401B642801D903204FE60F4874
:101FF00008380068C0F340600028F1D020E00020DD
:102000000B490866FFF70AFB054606E0FFF706FBEB
:10201000401B642801D9032039E6044808380068C9
:10202000C0F340600028F1D10AE007E00838024020
:1020300000004742800E474200700040012026E623
:10204000002024E670B504462546681EB0F1807F66
:1020500001D301200FE0681E4FF0E02148610F21FD
:102060004FF0FF3000F04EF800204FF0E021886183
:1020700007200861002070BD10B504460CB901208E
:1020800010BDA06900B100E000BF94F8390028B984
:10209000002084F83800204600F025F8022084F85B
:1020A00039002068C06820F400502168C8602046CC
:1020B00005F07CFB2068006920F4904021680861ED
:1020C0002068406920F02A00216848612068C068C3
:1020D00040F400502168C8600020E063012084F8CB
:1020E00039000020CCE7704700BFFEE700BFFEE7E5
:1020F0007047000002480068C0F3022070470000EB
:102100000CED00E010B5002807DA0A07140E054AA6
:1021100000F00F031B1FD45403E00A07130E024AFA
:10212000135410BD18ED00E000E400E070B5054662
:102130000C46224602A1284605F09AFC70BD00001C
:10214000256400007CB505460C46288840F22942EB
:10215000811A90427ED008DC70B1A0F2054028B30D
:102160000A2878D0182877D103E10D2975D01829CD
:1021700074D02329F7D1A2E294F86C00012851D041
:1021800000BF0020C4F8C00000BF0822FCA104F179
:102190000800FEF77FFE0222FCA104F10800FEF712
:1021A00079FE00BF40F20540288000BF94F8C000CF
:1021B00000F0010030B994F8C000C0F3400008B945
:1021C00000207CBD00BF94F86C0001282AD00820B4
:1021D000207600BF04F1B800FFF780F80020A0814E
:1021E000EB490880EB490880EB490880EB490880FF
:1021F000EB490880EB490880EB490880EB490880EF
:1022000094F8BC0000F0010030B994F8BC0020F054
:102210000200801C84F8BC0000BF00BF00202880A2
:102220000220CEE7A08940F2013188426BD100BF85
:102230000020C4F8C00000BF0322DDA104F10800A3
:10224000FEF728FEDB490868FEF750F886B2D94849
:10225000324604E0F2E01EE06AE257E1D6E10168AE
:1022600004F10800FEF716FE0122D3A104F10800D4
:10227000FEF710FE0222C5A104F10800FEF70AFED7
:10228000002240F20131204604F054FE00BF40F22B
:102290000F40288000BF94F8C00000F0010030B962
:1022A00094F8C000C0F3400008B9002089E700BFDF
:1022B00094F8C00000F0010080F00100207600BF1B
:1022C00004F1B800FFF70AF80020A081B0490880A7
:1022D000B0490880B0490880B0490880B0490880FA
:1022E000B0490880B0490880B049088094F8BC0023
:1022F00000F0010030B994F8BC0020F00200801C0E
:1023000084F8BC0013E2A08940F20531884268D10C
:1023100000BF0020C4F8C00000BFA648416968465D
:10232000FFF704FF0922A5A104F10800FEF7B2FDA2
:102330006846FDF7DBFF86B23246694604F10800C5
:10234000FEF7A8FD01229CA104F10800FEF7A2FD02
:1023500002228EA104F10800FEF79CFD002240F24B
:102360000531204604F0E6FD00BF40F21D40288004
:1023700000BF94F8C00000F0010030B994F8C0002C
:10238000C0F3400008B900201BE700BF94F8C0006C
:1023900000F0010080F00100207600BF04F1B800D9
:1023A000FEF79CFF0020A0817949088079490880C8
:1023B00079490880794908807949088079490880F5
:1023C000794908807949088094F8BC0000F0010040
:1023D00030B994F8BC0020F00200801C84F8BC00E6
:1023E000A5E1A08940F2023188425FD100BF002000
:1023F000C4F8C00000BF03226DA104F10800FEF77D
:1024000049FD6C490868FDF771FF86B2694832469C
:10241000016804F10800FEF73DFD02225BA104F112
:102420000800FEF737FD002240F20231204604F09A
:1024300081FD00BF40F22940288000BF94F8C00011
:1024400000F0010030B994F8C000C0F3400008B9B2
:102450000020B6E600BF94F8C00000F0010080F054
:102460000100207600BF04F1B800FEF737FF00201E
:10247000A081474908804749088047490880474963
:1024800008804749088047490880474908804749EC
:10249000088094F8BC0000F0010030B994F8BC004A
:1024A00020F00200801C84F8BC0040E1A08940F2CA
:1024B0000631884262D100BF0020C4F8C00000BFCE
:1024C0003C4841696846FFF731FE09223BA104F10F
:1024D0000800FEF7DFFC6846FDF708FF86B23246CB
:1024E000694604F10800FEF7D5FC022227A104F199
:1024F0000800FEF7CFFC002240F20631204604F02F
:1025000019FD00BF40F23640288000BF94F8C0009B
:1025100000F0010030B994F8C000C0F3400008B9E1
:1025200000204EE600BF94F8C00000F0010080F0EB
:102530000100207600BF04F1B800FEF7CFFE0020B6
:10254000A081134908801349088013490880134962
:1025500008801349088013490880134908801349EB
:10256000088094F8BC0000F0010030B994F8BC0079
:1025700020F00200801C84F8BC00D8E024E00000B9
:1025800041542B4350494E3F000000000D0A00000B
:10259000BC000020BE000020C0000020C2000020BF
:1025A000C4000020C6000020C8000020CA0000208F
:1025B00041544400540A00203B0000004154443E72
:1025C00022534D2220000000A08940F203318842AE
:1025D00054D100BF0020C4F8C00000BF032257A19F
:1025E00004F10800FEF756FC0222AFF2600104F18C
:1025F0000800FEF74FFC002240F20331204604F0B1
:1026000099FC00BF40F24140288000BF94F8C00010
:1026100000F0010030B994F8C000C0F3400008B9E0
:102620000020CEE500BF94F8C00000F0010080F06B
:102630000100207600BF04F1B800FEF74FFE002035
:10264000A0813F4908803F4908803F4908803F49B1
:1026500008803F4908803F4908803F4908803F493A
:10266000088094F8BC0000F0010030B994F8BC0078
:1026700020F00200801C84F8BC0058E0A089B0F56E
:10268000417F54D100BF0020C4F8C00000BF032226
:1026900033A104F10800FEF7FDFB0222AFF2141192
:1026A00004F10800FEF7F6FB00224FF441712046CA
:1026B00004F040FC00BF40F24C40288000BF94F87A
:1026C000C00000F0010030B994F8C000C0F3400031
:1026D00008B9002075E500BF94F8C00000F00100C3
:1026E00080F00100207600BF04F1B800FEF7F6FD8F
:1026F0000020A081124908801249088012490880F0
:10270000124908801249088012490880124908803D
:102710001249088094F8BC0000F0010030B994F828
:10272000BC0020F00200801C84F8BC0000BF00BF89
:1027300000BF00202880032043E5000041544100F1
:10274000BC000020BE000020C0000020C20000200D
:10275000C4000020C6000020C8000020CA000020DD
:102760004154480070B505460C46288818B1B0F5AC
:10277000A86F5AD120E0A08940F20161884253D16C
:1027800000BF0020C4F8C00000BF082229A104F146
:102790000800FEF77FFB022229A104F10800FEF7E2
:1027A00079FB002240F20161204604F0C3FB00BF28
:1027B0004FF4A860288000BF94F8C00000F001002A
:1027C00030B994F8C000C0F3400008B9002070BDD3
:1027D00000BF94F8C00000F0010080F001002076F6
:1027E00000BF04F1B800FEF779FD0020A081154973
:1027F0000880154908801549088015490880154941
:10280000088015490880154908801549088094F802
:10281000BC0000F0010030B994F8BC0020F00200C8
:10282000801C84F8BC0000BF00BF00BF00202880CF
:102830000320CCE741542B43434C4B3F00000000A6
:102840000D0A0000BC000020BE000020C0000020D7
:10285000C2000020C4000020C6000020C8000020E4
:10286000CA00002070B505460C46288840F2423266
:10287000811A90427ED008DC60B1B0F54B7F27D042
:10288000A0F23730002876D17CE00B2974D01629CD
:10289000F9D179E1A089052852D100BF0020C4F800
:1028A000C00000BF0222D7A104F10800FEF7F2FA2F
:1028B0000222D5A104F10800FEF7ECFA002204215F
:1028C000204604F037FB00BF4FF44B70288000BF58
:1028D00094F8C00000F0010030B994F8C000C0F3D3
:1028E000400008B9002070BD00BF94F8C00000F09F
:1028F000010080F00100207600BF04F1B800FEF76F
:10290000EDFC0020A081C1490880C1490880C1496F
:102910000880C1490880C1490880C1490880C1496F
:102920000880C149088094F8BC0000F0010030B96B
:1029300094F8BC0020F00200801C84F8BC005BE12D
:10294000A089042856D100BF0020C4F8C00000BFF1
:102950000422B6A104F10800FEF79CFA0222AAA103
:1029600004F10800FEF796FA00220421204604F044
:10297000E1FA02E05CE040E1B0E000BF40F2373055
:10298000288000BF94F8C00000F0010030B994F82E
:10299000C000C0F3400008B90020A4E700BF94F8CD
:1029A000C00000F0010080F00100207600BF04F1BB
:1029B000B800FEF793FC0020A08194490880944958
:1029C0000880944908809449088094490880944973
:1029D0000880944908809449088094F8BC0000F06D
:1029E000010030B994F8BC0020F00200801C84F88B
:1029F000BC0001E1A089012852D100BF0020C4F829
:102A0000C00000BF11228BA104F10800FEF742FABA
:102A100002227DA104F10800FEF73CFA0022012108
:102A2000204604F087FA00BF40F24230288000BF01
:102A300094F8C00000F0010030B994F8C000C0F371
:102A4000400008B900204EE700BF94F8C00000F035
:102A5000010080F00100207600BF04F1B800FEF70D
:102A60003DFC0020A08169490880694908806949C6
:102A7000088069490880694908806949088069496E
:102A800008806949088094F8BC0000F0010030B962
:102A900094F8BC0020F00200801C84F8BC00ABE07D
:102AA000A089022852D100BF0020C4F8C00000BF96
:102AB000092265A104F10800FEF7ECF9022252A1F7
:102AC00004F10800FEF7E6F900220221204604F096
:102AD00031FA00BF40F24D30288000BF94F8C000AA
:102AE00000F0010030B994F8C000C0F3400008B90C
:102AF0000020F8E600BF94F8C00000F0010080F06C
:102B00000100207600BF04F1B800FEF7E7FB0020CB
:102B1000A0813E4908803E4908803E4908803E49E0
:102B200008803E4908803E4908803E4908803E4969
:102B3000088094F8BC0000F0010030B994F8BC00A3
:102B400020F00200801C84F8BC0055E0A089032816
:102B500052D100BF0020C4F8C00000BF09223DA12F
:102B600004F10800FEF796F9022227A104F10800FB
:102B7000FEF790F900220321204604F0DBF900BFA4
:102B80004FF45670288000BF94F8C00000F0010098
:102B900030B994F8C000C0F3400008B90020A2E6A4
:102BA00000BF94F8C00000F0010080F00100207622
:102BB00000BF04F1B800FEF791FB0020A08113498B
:102BC0000880134908801349088013490880134975
:102BD000088013490880134908801349088094F835
:102BE000BC0000F0010030B994F8BC0020F00200F5
:102BF000801C84F8BC0000BF00BF00BF00202880FC
:102C0000032070E6415400000D0A0000BC000020C3
:102C1000BE000020C0000020C2000020C400002030
:102C2000C6000020C8000020CA00002041542646EB
:102C30000000000041542B434E4D493D312C322CB5
:102C4000302C302C3000000041542B434D45453D85
:102C50003100000041542B434C43433D3100000000
:102C60002DE9FF4105460C46FC48C6681A20009035
:102C7000288840F25762811A904278D036DC40F2C0
:102C8000C352A0EB0201904272D01ADC40F2825291
:102C9000A0EB020190426CD00ADCC8B3A0F2545001
:102CA000002867D015287CD0252841F0DF859FE1DA
:102CB0000E2977D0172976D0252975D03329F4D15C
:102CC000B8E24B2971D008DC18296FD026296ED0C4
:102CD00034296DD04229E8D1F5E35A2969D0622917
:102CE00068D0782967D07E29DFD1F2E3B92901F0D5
:102CF000ED811BDC652901F01D800ADC1A297CD0DE
:102D000022297BD040297AD05029CED100F0A5BF0E
:102D100031E0732901F04380872901F0EE80932987
:102D200001F01F81A929C0D101F091B940F205122B
:102D3000881A914201F0DF830CDCC12901F0E481A3
:102D4000D32901F05882EA2901F01C83F729ACD17C
:102D500001F075BB112801F03E84202801F07F842A
:102D60002F2801F0FF843E289FD101F043BDE6E308
:102D700095E266E133E0A089E08194F82000012823
:102D800075D094F82000052871D0A089E08100BF9B
:102D90000020C4F8C00000BF0822B1A104F108005F
:102DA0000AE0C5E0B2E1DBE10FE2EEE3ECE220E3B2
:102DB00054E3F6E3F6E3F6E3FEF76CF80222ABA188
:102DC00004F10800FEF766F8002240F23A7120464E
:102DD00004F0B0F800BF40F25450288000BF94F8CF
:102DE000C00000F0010058B994F8C000C0F34000E2
:102DF00030B9002004B0BDE8F081FDE3FDE3FDE360
:102E000000BFE089A08194F8200001282FD094F819
:102E1000200005282BD00B20207600BF04F1B8003D
:102E2000FEF75CFA0020A081914908809149088052
:102E3000914908809149088091490880914908800A
:102E4000914908809149088094F8BC0000F0010085
:102E500030B994F8BC0020F00200801C84F8BC005B
:102E600000BF00BF002028800220C3E7FFE7E08901
:102E7000A081A08940F2017188427DD1A089E081C2
:102E800000BF0020C4F8C00000BF092280A104F1E7
:102E90000800FDF7FFFF71490868FDF727FA87B2C0
:102EA0006E483A46016804F10800FDF7F3FF03227B
:102EB0007AA104F10800FDF7EDFF6848406858B1B9
:102EC00066494868FDF712FA87B264483A46416895
:102ED00004F10800FDF7DEFF032270A104F10800F1
:102EE000FDF7D8FF5D48806858B15C498868FDF7F8
:102EF000FDF987B259483A46816804F10800FDF7A8
:102F0000C9FF012264A104F10800FDF7C3FF0222FA
:102F100056A104F10800FDF7BDFF002240F2017147
:102F2000204604F007F800BF40F26950288000BF37
:102F300094F8C00000F0010030B994F8C000C0F36C
:102F4000400008B9002055E700BF94F8C00000F029
:102F5000010080F001002076E089A08100BF04F12B
:102F6000B800FEF7BBF90020A08141490880414923
:102F700008804149088000E017E040490880404946
:102F8000088040490880404908804049088094F8FA
:102F9000BC0000F0010030B994F8BC0020F0020041
:102FA000801C84F8BC0001F060BCA08940F2027172
:102FB000884252D1A089E08100BF0020C4F8C0003F
:102FC00000BF0A2236A104F10800FDF763FF0222C8
:102FD00026A104F10800FDF75DFF002240F22271F6
:102FE000204603F0A7FF00BF40F27950288000BFC1
:102FF00094F8C00000F0010030B994F8C000C0F3AC
:10300000400008B90020F5E600BF00BF0020C4F86A
:10301000C00000BF0A2225A104F10800FDF73AFF15
:10302000022212A104F10800FDF734FF002240F251
:103030002271204603F07EFF00BF40F282502880BC
:1030400000BF94F8C00000F00100A8BB94F8C000D5
:10305000C0F3400080BB0020CCE6D0E2540A002040
:1030600041542B435245473F000000000D0A000029
:10307000BC000020BE000020C0000020C2000020D4
:10308000C4000020C6000020C8000020CA000020A4
:1030900041542B435354543D22000000222C220063
:1030A00041542B43474143543D30000041542B438E
:1030B000474143543D310000FFE700BF94F8C00092
:1030C00000F0010080F001002076207E012800D170
:1030D0006CE200BF0020C4F8C00000BF0A22FDA1BE
:1030E00004F10800FDF7D6FE0222AFF2800104F1E0
:1030F0000800FDF7CFFE002240F22171204603F0C8
:1031000019FF00BF4FF4B260288000BF94F8C000E0
:1031100000F0010030B994F8C000C0F3400008B9D5
:10312000002067E600BF00BF0020C4F8C00000BF59
:103130000A22EBA104F10800FDF7ACFE0222AFF277
:10314000D40104F10800FDF7A5FE002240F2217130
:10315000204603F0EFFE00BF40F29950288000BFE8
:1031600094F8C00000F0010030B994F8C000C0F33A
:10317000400008B900203DE600BF94F8C00000F010
:10318000010080F001002076207E012800D10DE2B0
:1031900000BF0020C4F8C00000BF0A22D3A104F180
:1031A0000800FDF777FE0222AFF2401104F108009B
:1031B000FDF770FE00224FF4E461204603F0BAFEF2
:1031C00000BF40F2A750288000BF94F8C00000F074
:1031D000010030B994F8C000C0F3400008B90020E5
:1031E00008E600BF94F8C00000F0010080F0010084
:1031F0002076207E012800D1D8E100BF0020C4F84D
:10320000C00000BF0B22BCA104F10800FDF742FE84
:103210000222AFF2A81104F10800FDF73BFE0022E4
:1032200040F22771204603F085FE00BF40F2B55002
:10323000288000BF94F8C00000F0010030B994F875
:10324000C000C0F3400008B90020D3E500BF94F8E7
:10325000C00000F0010080F001002076207E0128EF
:1032600000D1A3E100BF0020C4F8C00000BF0D22C0
:10327000A4A104F10800FDF70DFE0222AFF2142113
:1032800004F10800FDF706FE002240F22C712046F2
:1032900003F050FE00BF40F2C350288000BF94F8F6
:1032A000C00000F0010030B994F8C000C0F3400045
:1032B00008B900209EE500BF94F8C00000F00100AE
:1032C00080F001002076207E012800D16EE100BF51
:1032D0000020C4F8C00000BF0922AFF24C2104F165
:1032E0000800FDF7D7FD8B490868FCF7FFFF87B2A0
:1032F00088483A46016804F10800FDF7CBFD032237
:10330000AFF2682104F10800FDF7C4FD8148406870
:1033100058B180494868FCF7E9FF87B27D483A46D2
:10332000416804F10800FDF7B5FD0322AFF29421D6
:1033300004F10800FDF7AEFD7648806858B1754984
:103340008868FCF7D3FF87B272483A46816804F177
:103350000800FDF79FFD0122AFF2C42104F108002F
:10336000FDF798FD0222AFF2FC2104F10800FDF701
:1033700091FD002240F22671204603F0DBFD00BFE4
:1033800040F2DB50288000BF94F8C00000F001003C
:1033900030B994F8C000C0F3400008B9002029E516
:1033A00000BF94F8C00000F0010080F0010020761A
:1033B000207E012800D1F9E000BF0020C4F8C00041
:1033C00000BF082254A104F10800FDF763FD0222AA
:1033D000AFF2683104F10800FDF75CFD002240F215
:1033E0002471204603F0A6FD00BF40F2E95028807A
:1033F00000BF94F8C00000F0010030B994F8C0009C
:10340000C0F3400008B90020F4E400BF94F8C00005
:1034100000F0010080F001002076207E012800D11C
:10342000C4E000BF0020C4F8C00000BF08223DA1D6
:1034300004F10800FDF72EFD0222AFF2D03104F1B5
:103440000800FDF727FD002240F22571204603F019
:1034500071FD00BF40F2F750288000BF94F8C00013
:1034600000F0010030B994F8C000C0F3400008B982
:103470000020BFE400BF94F8C00000F0010080F01D
:1034800001002076207E012800D18FE000BF0020BF
:10349000C4F8C00000BF0B2225A104F10800FDF70D
:1034A000F9FC0222AFF23C4104F10800FDF7F2FC06
:1034B000002240F23271204603F03CFD00BF40F292
:1034C0000560288000BF94F8C00000F00100A8BB90
:1034D00036E092E141542B43474154543D300000C3
:1034E00041542B43474154543D31000041542B4338
:1034F000495053485554000041542B4349504D55B1
:10350000583D310041542B43495052584745543D92
:1035100031000000540A002041542B4349494352D2
:103520000000000041542B43494653520000000064
:1035300041542B485454505445524D0007E0C8E1C3
:1035400094F8C000C0F3400008B9002052E400BF66
:1035500000BF0020C4F8C00000BF0C22FEA104F18F
:103560000800FDF797FC0222AFF2005104F10800B9
:10357000FDF790FC002240F22371204603F0DAFCB4
:1035800000BF40F20E60288000BF94F8C00000F039
:10359000010048B994F8C000C0F3400020B90020F1
:1035A00028E450E07AE00DE100BF00BFE089A0818F
:1035B00000BF04F1B800FDF791FE0020A081EA49A8
:1035C0000880EA490880EA490880EA490880EA490F
:1035D0000880EA490880EA490880EA49088094F8A6
:1035E000BC0000F0010030B994F8BC0020F00200EB
:1035F000801C84F8BC00D6E42CE256E2DDE2A0890F
:1036000040F2037188427CD1A089E08100BF002094
:10361000C4F8C00000BF0C22DBA104F10800FDF7D4
:1036200039FC0222AFF2BC5104F10800FDF732FC74
:10363000002240F22371204603F07CFC00BF40F2E0
:103640001D60288000BF94F8C00000F0010030B970
:1036500094F8C000C0F3400008B9002005E400BFA2
:1036600000BF0020C4F8C00000BF0A22AFF29C11C6
:1036700004F10800FDF70EFC0222AFF2106104F124
:103680000800FDF707FC002240F22171204603F0FC
:1036900051FC00BF40F22560288000BF94F8C000B4
:1036A00000F0010030B994F8C000C0F3400008B940
:1036B000002048E400BF94F8C00000F0010080F052
:1036C00001002076E089A08100BF04F1B800FDF779
:1036D00005FE0020A081A4490880A4490880A449CF
:1036E0000880A4490880A4490880A4490880A44906
:1036F0000880A449088094F8BC0000F0010040B99B
:1037000000E007E094F8BC0020F00200801C84F880
:10371000BC0048E4A08940F2297188427ED1A0898A
:10372000E0819D48416902A8FEF700FD00BF00202E
:10373000C4F8C00000BF0F2298A104F10800FDF7F3
:10374000A9FB95494868FCF7D1FD87B292483A46F3
:10375000416804F10800FDF79DFB0322AFF2C4614C
:1037600004F10800FDF796FB8B490868FCF7BEFDE5
:1037700087B289483A46016804F10800FDF78AFBE0
:1037800002228AA104F10800FDF784FB02A8FCF7DD
:10379000ADFD87B23A4602A904F10800FDF77AFBB5
:1037A0000222AFF2387104F10800FDF773FB00222A
:1037B00040F22971204603F0BDFB00BF40F23B60A0
:1037C000288000BF94F8C00000F0010030B994F8E0
:1037D000C000C0F3400008B9002014E400BF94F812
:1037E000C00000F0010080F001002076207E08BBC0
:1037F00000BF40F24160288000BF94F8C000C0F3D1
:10380000C00060B994F8C000C0F3001038B994F853
:10381000C000C0F3401010B900201DE430E000BF2C
:1038200094F8C000C0F3C00020B1002030705A48A6
:10383000C0686067E089A08100BF04F1B800FDF7AF
:103840004DFD0020A081484908804849088048492A
:103850000880484908804849088048490880484904
:1038600008804849088094F8BC0000F0010030B995
:1038700094F8BC0020F00200801C84F8BC00BAE67A
:10388000A08940F22B71884264D1A089E08142482E
:10389000416902A8FEF74AFC00BF0020C4F8C0003E
:1038A00000BF0D2242A104F10800FDF7F3FA022245
:1038B000AFF6480104F10800FDF7ECFA002240F2EF
:1038C0002B71204603F036FB00BF40F25760288082
:1038D00000BF94F8C000C0F3400030B994F8C000B5
:1038E000C0F3801008B900201BE400BF616F01F134
:1038F0001600897D21F00101017094F8C000C0F329
:10390000801080F001002076E089A08100BF04F1E2
:10391000B800FDF7E3FC0020A0811349088013499B
:103920000880134908801349088013490880134907
:103930000880134908801349088094F8BC0000F0FF
:10394000010030B994F8BC0020F00200801C84F81B
:10395000BC0050E634E0000041542B534150425229
:103960003D312C3100000000BC000020BE000020D2
:10397000C0000020C2000020C4000020C6000020BB
:10398000C8000020CA00002041542B53415042522D
:103990003D302C3100000000540A002041542B43DC
:1039A000495053544152543D302C2200222C0000E7
:1039B00041542B434950434C4F53453D3000000088
:1039C000A08940F22A7188427ED1A089E081FA481C
:1039D000006918B10020F849096908600320F74917
:1039E000087000BFF448406940F2B451884201D9E0
:1039F000084601E0F0484069F1490860084601685E
:103A000002A8FEF793FB00BF0020C4F8C00000BF6F
:103A10000D22ECA104F10800FDF73CFA02A8FCF726
:103A200065FC87B23A4602A904F10800FDF732FAB4
:103A30000222AFF6C81104F10800FDF72BFA0022AC
:103A400040F22A71204603F075FA00BF40F271601F
:103A5000288000BF94F8C000C0F3800030B994F80B
:103A6000C000C0F3400008B9002023E400BF94F870
:103A7000C000C0F3800040B300BF0020C4F8C00005
:103A800000BFCF48008882B2CB48016804F108002B
:103A9000FDF700FA0122694604F10800FDF7FAF982
:103AA00000BF40F27960288000BF94F8C000C009D0
:103AB00070B9C120005D00F0010048B994F8C00061
:103AC000C0F3400020B901E068E019E0002066E49E
:103AD00000BF94F8C000C00908B1002000E0052034
:103AE0002076207E98B9B448006980B1B248006958
:103AF0000068B34909680844AF490969086006E0ED
:103B000094F8C000C0F3400008B101202076207E68
:103B100088B90320A9490870A7484069A8490968DD
:103B2000401AA549486108460068A5490968084443
:103B3000A149086004E0A1480078401E9F49087030
:103B40009D48406920B19D48007800287FF44AAF25
:103B5000E089A08100BF04F1B800FDF7BFFB0020A1
:103B6000A0819C4908809C4908809C4908809C4908
:103B700008809C4908809C4908809C4908809C4991
:103B8000088094F8BC0000F0010030B994F8BC0043
:103B900020F00200801C84F8BC002CE5A08940F2D3
:103BA0002C7188427ED1A089E0812068914908600B
:103BB00000BF40F29760288000BF20688D490968E7
:103BC000401AB18A884201D200201DE400BF30892A
:103BD00040F2B451884201DD0846308100BF002028
:103BE000C4F8C00000BF0E2283A104F10800FDF755
:103BF00051F9317802A8FEF799FA02A8FCF776FB92
:103C000087B23A4602A904F10800FDF743F9012200
:103C10006FA104F10800FDF73DF9318902A8FEF714
:103C200085FA02A8FCF762FB87B23A4602A904F1C2
:103C30000800FDF72FF90222AFF6D03104F1080099
:103C4000FDF728F9002240F22C71204603F072F9AA
:103C500000BF40F2A760288000BF94F8C00000F0C9
:103C6000010030B994F8C000C0F3400008B900204A
:103C70006CE400BF94F8C00000F0010080F0010087
:103C80002076207E50B97189F0680844F0604A4877
:103C9000006918B17089484909690860E089A08104
:103CA00000BF00E022E004F1B800FDF717FB0020A0
:103CB000A081484908804849088048490880484907
:103CC0000880484908804849088048490880484990
:103CD000088094F8BC0000F0010030B994F8BC00F2
:103CE00020F00200801C84F8BC0084E4A08940F22B
:103CF000047188425FD1A089E08100BF0020C4F830
:103D0000C00000BF0B2240A104F10800FDF7C2F87B
:103D10000222AFF6A84104F10800FDF7BBF800222B
:103D200040F22D71204603F005F900BF40F2BC605F
:103D3000288000BF94F8C00000F0010030B994F86A
:103D4000C000C0F3400008B9002029E400BF94F887
:103D5000C00000F0010080F001002076207E0128E4
:103D600000D16BE000BF0020C4F8C00000BF1322E8
:103D700028A104F10800FDF78DF80222AFF61451D6
:103D800004F10800FDF786F8002240F22D7120466C
:103D900003F0D0F800BF40F2CA60288000BF94F85A
:103DA000C00000F00100F8BB94F8C000C0F3400070
:103DB000D0BB002052E467E0540A0020D800002065
:103DC000D400002041542B43495053454E443D30CC
:103DD0002C000000BC000020BE000020C00000201D
:103DE000C2000020C4000020C6000020C80000203F
:103DF000CA000020D000002041542B4349505258A3
:103E00004745543D322C000041542B4854545049EE
:103E10004E49540041542B48545450504152413D56
:103E200022434944222C3100FFE700BF94F8C00030
:103E300000F0010080F00100207600BFE089A08141
:103E400000BF04F1B800FDF749FA0020A081FE4947
:103E50000880FE490880FE490880FE490880FE4926
:103E60000880FE490880FE490880FE49088094F8D1
:103E7000BC0000F0010030B994F8BC0020F0020052
:103E8000801C84F8BC0044E4A08940F20771884299
:103E900073D1A089E08100BF0020C4F8C00000BF3A
:103EA0000C22F1A104F10800FCF7F4FF9C20015959
:103EB00002A8FEF73BF902A8FCF718FA87B23A46C7
:103EC00002A904F10800FCF7E5FF0622EAA104F1CB
:103ED0000800FCF7DFFF0222AFF6706104F1080072
:103EE000FCF7D8FF002240F22F71204603F022F8A1
:103EF00000BF40F2DE60288000BFC120005DC0F33B
:103F0000800058B994F8C00000F0010030B994F86E
:103F1000C000C0F3400008B900205EE400BF94F880
:103F2000C000C0F3400088B9C120005DC0F380002C
:103F300060B1D3A003F08CFD9C20005982B2982080
:103F4000015904F10800FCF7A5FF00E023E000BFE1
:103F50000020C4F8C00000BF00BF40F2EA60288023
:103F600000BF94F8C00000F0010038B994F8C00018
:103F7000C0F3400010B900202FE432E000BF94F8F5
:103F8000C00000F0010080F001002076207E0128B2
:103F900000D100E000BFE089A08100BF04F1B800BB
:103FA000FDF79CF90020A081A7490880A749088057
:103FB000A7490880A7490880A7490880A749088021
:103FC000A7490880A749088094F8BC0000F00100C8
:103FD00030B994F8BC0020F00200801C84F8BC00CA
:103FE00009E2A08940F2067188427BD1A089E08174
:103FF00000BF0020C4F8C00000BF1322A6A104F136
:104000000800FCF747FF90210859FCF76FF987B2C9
:10401000902001593A4604F10800FCF73BFF0122C9
:10402000AFF68C7104F10800FCF734FF022299A16D
:1040300004F10800FCF72EFF002240F22E7120460A
:1040400002F078FF00BF4FF4E060288000BF94F8D2
:10405000C00000F0010030B994F8C000C0F3400087
:1040600008B9002040E400BF94F8C00000F001004F
:1040700080F001002076207E012800D14DE000BFB5
:104080000020C4F8C00000BF0E2288A104F108007F
:10409000FCF700FF94F88C003030C0B20190012290
:1040A00001A904F10800FCF7F5FE022279A104F150
:1040B0000800FCF7EFFE00224FF4E661204602F014
:1040C00039FF00BF4FF4E260288000BF94F8C000C1
:1040D00000F0010038B994F8C000C0F3400010B9F6
:1040E0000020C2E43FE000BF94F8C00000F00100EF
:1040F00080F001002076207E012800D10DE000BF75
:104100004FF4E360288000BFC120005DC0F3400091
:1041100008B90020A9E400BF00BFE089A08100BF6A
:1041200004F1B800FDF7DAF80020A08146490880C4
:104130004649088046490880464908804649088023
:1041400046490880464908804649088094F8BC00E2
:1041500000F0010030B994F8BC0020F00200801C8F
:1041600084F8BC0081E3A08940F23171884269D1B2
:10417000A089E08100BF0020C4F8C00000BF0C226D
:104180004EA104F10800FCF785FEA420015902A805
:10419000FDF7CCFF02A8FCF7A9F887B23A4602A9BE
:1041A00004F10800FCF776FE0122AFF2DC3104F1E5
:1041B0000800FCF76FFEA820015B02A8FDF7B6FF20
:1041C00002A8FCF793F887B23A4602A904F1080066
:1041D000FCF760FE02222FA104F10800FCF75AFE52
:1041E000002240F23171204602F0A4FE00BF40F2EE
:1041F0002A70288000BF94F8C00000F0010030B998
:1042000094F8C000C0F3400008B900202DE400BFBE
:1042100094F8C00000F0010080F001002076207EBC
:1042200070B9A4200159AC2000590144A4200151C7
:104230002648C06820B1AC2000592449C9680860EC
:10424000E08945E069E00000BC000020BE000020DD
:10425000C0000020C2000020C4000020C6000020D2
:10426000C8000020CA00002041542B485454504438
:104270004154413D000000002C313030303000000E
:1042800053656E64696E672061637475616C206448
:10429000617461210D0A000041542B485454505060
:1042A0004152413D2255524C222C220041542B4870
:1042B000545450414354494F4E3D000041542B4803
:1042C000545450524541443D00000000540A00201F
:1042D000A08100BF04F1B800FDF700F80020A08124
:1042E000FE490880FE490880FE490880FE49088092
:1042F000FE490880FE490880FE490880FE49088082
:1043000094F8BC0000F0010030B994F8BC0020F033
:104310000200801C84F8BC00A7E2A089B0F5E16F20
:104320006AD1A089E08100BF0020C4F8C00000BFAE
:104330001722F2A104F10800FCF7ACFD9021085906
:10434000FBF7D4FF87B2902001593A4604F10800E8
:10435000FCF7A0FD0122EFA104F10800FCF79AFD93
:104360000222AFF2D00104F10800FCF793FD002215
:1043700040F22E71204602F0DDFD00BF40F2417098
:10438000288000BF94F8C00000F0010030B994F814
:10439000C000C0F3400008B9002016E400BF94F844
:1043A000C00000F0010080F001002076E089A081CB
:1043B00000BF04F1B800FCF791FF0020A081C749BD
:1043C0000880C7490880C7490880C7490880C7498D
:1043D0000880C7490880C7490880C749088094F801
:1043E000BC0000F0010030B994F8BC0020F00200DD
:1043F000801C84F8BC0038E2A08940F23271884207
:1044000055D100BF0020C4F8C00000BF0B22AFF69A
:10441000E06104F10800FCF73DFD0222AFF28C11CF
:1044200004F10800FCF736FD002240F2327120460C
:1044300002F080FD00BF40F24E70288000BF94F86B
:10444000C00000F0010030B994F8C000C0F3400093
:1044500008B900200CE400BF94F8C00000F001008F
:1044600080F00100207600BF04F1B800FCF736FFB1
:104470000020A081994908809949088099490880BD
:104480009949088099490880994908809949088084
:104490009949088094F8BC0000F0010030B994F804
:1044A000BC0020F00200801C84F8BC00DDE1A08983
:1044B00040F20971884258D1A089E08100BF0020F4
:1044C000C4F8C00000BF0B2293A104F10800FCF760
:1044D000E1FC0222AFF2442104F10800FCF7DAFC0F
:1044E000002240F23371204602F024FD00BF40F26A
:1044F0005C70288000BF94F8C00000F0010030B963
:1045000094F8C000C0F3400008B900201DE400BFCB
:1045100094F8C00000F0010080F001002076E089EE
:10452000A08100BF04F1B800FCF7D8FE0020A081F4
:104530006A4908806A4908806A4908806A4908808F
:104540006A4908806A4908806A4908806A4908807F
:1045500094F8BC0000F0010030B994F8BC0020F0E1
:104560000200801C84F8BC007FE1A08940F20B713E
:1045700088429BD1A089E08100BF0020C4F8C00020
:1045800000BF0C2267A104F10800FCF783FC694915
:104590000868FBF7ABFE87B266483A46016804F14B
:1045A0000800FCF777FC01225AA104F10800FCF78F
:1045B00071FC0222AFF2243104F10800FCF76AFC1E
:1045C000002240F23471204602F0B4FC00BF40F2F9
:1045D0006D70288000BF94F8C00000F0010030B971
:1045E00094F8C000C0F3400008B9002095E400BF73
:1045F00094F8C00000F0010080F001002076207ED9
:10460000012800D10BE14B48416902A8FDF78EFD5E
:1046100000BF0020C4F8C00000BF0B2246A104F177
:104620000800FCF737FC02A8FBF760FE87B23A46A9
:1046300002A904F10800FCF72DFC0222AFF2AC3114
:1046400004F10800FCF726FC002240F239712046F4
:1046500002F070FC00BF40F27C70288000BF94F82C
:10466000C00000F0010030B994F8C000C0F3400071
:1046700008B9002051E400BF94F8C00000F0010028
:1046800080F001002076207E012800D1C7E000BF25
:104690000020C4F8C00000BF0A222AA104F10800CB
:1046A000FCF7F8FB23494868FBF720FE87B2214856
:1046B0003A46416804F10800FCF7ECFB012215A121
:1046C00004F10800FCF7E6FB0222AFF2384104F1E6
:1046D0000800FCF7DFFB00223AE00000BC000020ED
:1046E000BE000020C0000020C2000020C400002046
:1046F000C6000020C8000020CA00002041542B48FA
:10470000545450504152413D22434F4E54454E5413
:10471000222C22002200000041542B4654504349D1
:10472000443D310041542B465450534552563D228E
:1047300000000000540A002041542B465450504FB2
:1047400052543D0041542B465450554E3D220000DA
:1047500040F23571204602F0EDFB00BF40F28B7055
:10476000288000BF94F8C00000F0010030B994F830
:10477000C000C0F3400008B9002073E400BF94F803
:10478000C00000F0010080F001002076207E0128AA
:1047900000D144E000BF0020C4F8C00000BF0A22DE
:1047A00035A104F10800FCF775FB36498868FBF772
:1047B0009DFD87B233483A46816804F10800FCF752
:1047C00069FB0122AFF2B40104F10800FCF762FBBF
:1047D0000222AFF2405104F10800FCF75BFB00221B
:1047E00040F23671204602F0A5FB00BF40F29A70FD
:1047F000288000BF94F8C00000F0010030B994F8A0
:10480000C000C0F3400008B900202BE400BF94F8BA
:10481000C00000F0010080F00100207600BFE089B8
:10482000A08100BF04F1B800FCF758FD0020A08172
:1048300015490880154908801549088015490880E0
:1048400015490880154908801549088015490880D0
:1048500094F8BC0000F0010030B994F8BC0020F0DE
:104860000200801C84F8BC0000BF00BF00BF002015
:104870002880032035E4000041542B465450505703
:104880003D220000540A0020BC000020BE00002091
:10489000C0000020C2000020C4000020C60000208C
:1048A000C8000020CA00002070B505460C462888C4
:1048B00040F27632811A90427ED005DC48B1A0F2F7
:1048C0006B30002879D125E00B2977D01629F9D152
:1048D0002FE1A08940F20241884253D100BF00205D
:1048E000C4F8C00000BF0722B1A104F10800FCF722
:1048F000D1FA0222B0A104F10800FCF7CBFA0022A1
:1049000040F20241204602F015FB00BF40F26B303E
:10491000288000BF94F8C00000F0010030B994F87E
:10492000C000C0F3400008B9002070BD00BF94F87B
:10493000C00000F0010080F00100207600BF04F10B
:10494000B800FCF7CBFC0020A0819C4908809C4962
:1049500008809C4908809C4908809C4908809C49A3
:1049600008809C4908809C49088094F8BC0000F0AD
:10497000010030B994F8BC0020F00200801C84F8DB
:10498000BC000EE1A08940F20141884257D100BF2E
:104990000020C4F8C00000BF072290A104F1080065
:1049A000FCF778FA022284A104F10800FCF772FAFD
:1049B000002240F2014102E009E0F3E060E020461D
:1049C00002F0B8FA00BF40F27630288000BF94F8B9
:1049D000C00000F0010030B994F8C000C0F34000FE
:1049E00008B90020A1E700BF94F8C00000F0010062
:1049F00080F00100207600BF04F1B800FCF76EFCE7
:104A00000020A0816D4908806D4908806D490880AB
:104A10006D4908806D4908806D4908806D4908809E
:104A20006D49088094F8BC0000F0010030B994F89A
:104A3000BC0020F00200801C84F8BC00B1E0A0891A
:104A400040F20341884253D100BF0020C4F8C000A7
:104A500000BF072263A104F10800FCF71BFA022241
:104A600055A104F10800FCF715FA002240F20341B9
:104A7000204602F05FFA00BF40F28130288000BF7C
:104A800094F8C00000F0010030B994F8C000C0F301
:104A9000400008B9002048E700BF94F8C00000F0CB
:104AA000010080F00100207600BF04F1B800FCF79F
:104AB00015FC0020A08141490880414908804149F6
:104AC000088041490880414908804149088041499E
:104AD00008804149088094F8BC0000F0010030B91A
:104AE00094F8BC0020F00200801C84F8BC0058E060
:104AF000A08940F20541884253D100BF0020C4F88C
:104B0000C00000BF072239A104F10800FCF7C2F978
:104B1000022229A104F10800FCF7BCF9002240F2AE
:104B20000541204602F006FA00BF4FF4637028806A
:104B300000BF94F8C00000F0010030B994F8C00044
:104B4000C0F3400008B90020EFE600BF94F8C000B1
:104B500000F0010080F00100207600BF04F1B800F1
:104B6000FCF7BCFB0020A081144908801449088090
:104B700014490880144908801449088014490880A1
:104B8000144908801449088094F8BC0000F0010022
:104B900030B994F8BC0020F00200801C84F8BC00FE
:104BA00000BF00BF00BF002028800320BDE600003A
:104BB00041542B43474D49000D0A0000BC00002022
:104BC000BE000020C0000020C2000020C400002061
:104BD000C6000020C8000020CA00002041542B431A
:104BE000474D4D0041542B43474D520041542B43F8
:104BF00047534E007CB505460C46288840F2F942E2
:104C0000811A90427ED008DC70B1A0F2CD4028B36A
:104C10000D2878D01F2877D141E10D2975D01D29A5
:104C200074D02B29F7D138E394F86C00012851D0C7
:104C300000BF0020C4F8C00000BF0822FEA104F19C
:104C40000800FCF727F90222FEA104F10800FCF796
:104C500021F900BF40F2CD40288000BF94F8C00089
:104C600000F0010030B994F8C000C0F3400008B96A
:104C700000207CBD00BF94F86C0001282AD00820D9
:104C8000207600BF04F1B800FCF728FB0020A081CB
:104C9000ED490880ED490880ED490880ED4908801C
:104CA000ED490880ED490880ED490880ED4908800C
:104CB00094F8BC0000F0010030B994F8BC0020F07A
:104CC0000200801C84F8BC0000BF00BF00202880C8
:104CD0000220CEE7A08940F2015188427ED100BF78
:104CE0000020C4F8C00000BF0822DFA104F10800C2
:104CF000FCF7D0F80222DFA104F10800FCF7CAF8A3
:104D0000DD4904E035E136E000E3CAE14FE208683E
:104D1000FBF7ECFA86B2D8483246016804F1080085
:104D2000FCF7B8F80722D5A104F10800FCF7B2F8A7
:104D3000D1494868FBF7DAFA86B2CF483246416873
:104D400004F10800FCF7A6F80122CEA104F1080046
:104D5000FCF7A0F80222BBA104F10800FCF79AF8C6
:104D6000002240F20151204602F0E4F800BF40F278
:104D7000DA40288000BF94F8C00000F0010030B98C
:104D800094F8C000C0F3400008B9002071E700BFEC
:104D900094F8C00000F0010080F00100207600BF10
:104DA00004F1B800FCF79AFA0020A081A649088017
:104DB000A6490880A6490880A6490880A649088017
:104DC000A6490880A6490880A649088094F8BC0036
:104DD00000F0010040B994F8BC0000E005E020F0CC
:104DE0000200801C84F8BC008FE2A08940F20251CE
:104DF00088427DD100BF0020C4F8C00000BF9E489B
:104E000041696846FDF792F9082297A104F108006C
:104E1000FCF740F86846FBF769FA86B23246694605
:104E200004F10800FCF736F8022292A104F1080010
:104E3000FCF730F890490868FBF758FA86B28E48BC
:104E40003246016804F10800FCF724F807228BA120
:104E500004F10800FCF71EF887494868FBF746FA9A
:104E600086B285483246416804F10800FCF712F822
:104E7000012284A104F10800FCF70CF8022271A1C0
:104E800004F10800FCF706F8002240F20251204627
:104E900002F050F800BF40F2EC40288000BF94F8C8
:104EA000C00000F0010030B994F8C000C0F3400029
:104EB00008B90020DDE600BF94F8C00000F0010052
:104EC00080F00100207600BF04F1B800FCF706FA7C
:104ED0000020A0815C4908805C4908805C4908800A
:104EE0005C4908805C4908805C4908805C4900E0B6
:104EF0000FE008805B49088094F8BC0000F00100D6
:104F000030B994F8BC0020F00200801C84F8BC008A
:104F1000FBE1A08940F20451884262D100BF002029
:104F2000C4F8C00000BF544841696846FDF7FEF868
:104F3000082255A104F10800FBF7ACFF6846FBF717
:104F4000D5F986B23246694604F10800FBF7A2FFA4
:104F500002223CA104F10800FBF79CFF002240F272
:104F60000451204601F0E6FF00BF40F2F9402880DE
:104F700000BF94F8C00000F0010030B994F8C00000
:104F8000C0F3400008B9002073E600BF94F8C000E9
:104F900000F0010080F00100207600BF04F1B800AD
:104FA000FCF79CF90020A081274908802749088048
:104FB0002749088027490880274908802749088011
:104FC000274908802749088094F8BC0000F00100B8
:104FD00030B994F8BC0020F00200801C84F8BC00BA
:104FE00093E1A08940F2035188427DD100BF0020A7
:104FF000C4F8C00000BF204841696846FDF796F834
:10500000082219A104F10800FBF744FF6846FBF7EA
:105010006DF986B23246694604F10800FBF73AFFA3
:10502000022208A104F10800FBF734FF002240F23D
:10503000035120462EE0000041542B4350494E3F7F
:10504000000000000D0A0000BC000020BE0000208F
:10505000C0000020C2000020C4000020C6000020C4
:10506000C8000020CA00002041542B435042573D45
:10507000000000002C220000540A0020222C3132B3
:10508000392C22002200000041542B435042523D53
:105090000000000001F04EFF00BF40F206502880E3
:1050A00000BF94F8C00000F0010030B994F8C000CF
:1050B000C0F3400008B90020DBE500BF94F8C00051
:1050C00000F0010080F00100207600BF04F1B8007C
:1050D000FCF704F90020A0818F4908808F490880DF
:1050E0008F4908808F4900E015E008808E490880CC
:1050F0008E4908808E4908808E49088094F8BC004B
:1051000000F0010030B994F8BC0020F00200801CCF
:1051100084F8BC00F9E0A08940F2055188427CD1B6
:1051200000BF0020C4F8C00000BF0822AFF2A801F1
:1051300004F10800FBF7AEFE7F4840694FF6FF72AE
:1051400002EA10416846FCF7F1FF6846FBF7CEF82B
:1051500086B23246694604F10800FBF79BFE012245
:1051600076A104F10800FBF795FE7348406981B20F
:105170006846FCF7DBFF6846FBF7B8F886B23246B4
:10518000694604F10800FBF785FE0222AFF24C11DC
:1051900004F10800FBF77EFE002240F20551204694
:1051A00001F0C8FE00BF40F21650288000BF94F8FE
:1051B000C00000F0010030B994F8C000C0F3400016
:1051C00008B9002055E500BF94F8C00000F00100C8
:1051D00080F00100207600BF04F1B800FCF77EF8F3
:1051E0000020A0814C4908804C4908804C49088027
:1051F0004C4908804C4908804C4908804C4908803B
:105200004C49088094F8BC0000F0010040B994F8C3
:10521000BC0020F00200801C00E002E084F8BC002A
:1052200073E0A08940F2065188426ED100BF002091
:10523000C4F8C00000BF082241A104F10800FBF738
:1052400029FE0122AFF2C41104F10800FBF722FE8F
:1052500039490868FBF74AF886B237483246016890
:1052600004F10800FBF716FE0122AFF2E81104F189
:105270000800FBF70FFE0222AFF2382104F108000C
:10528000FBF708FE002240F20651204601F052FED4
:1052900000BF40F22450288000BF94F8C00000F006
:1052A000010030B994F8C000C0F3400008B90020F4
:1052B000DFE400BF94F8C00000F0010080F00100BE
:1052C000207600BF04F1B800FCF708F80020A081A8
:1052D0001149088011490880114908801149088046
:1052E0001149088011490880114908801149088036
:1052F00094F8BC0000F0010030B994F8BC0020F034
:105300000200801C84F8BC0000BF00BF00BF00206A
:1053100028800320ADE40000BC000020BE00002077
:10532000C0000020C2000020C4000020C6000020F1
:10533000C8000020CA000020540A00202C000000F1
:1053400041542B435042463D0000000070B50546D5
:105350000C46288840F2C232811A90427ED006DC88
:1053600060B1A0F29E30F8B1152878D1BCE01229C6
:1053700076D0282975D03529F7D1BAE200BF0020B0
:10538000C4F8C00000BF0822F8A104F10800FBF730
:1053900081FD0222F8A104F10800FBF77BFD00BFAC
:1053A00040F29E30288000BF94F8C00000F0010059
:1053B00030B994F8C000C0F3400008B9002070BDB7
:1053C00000BF94F8C000C0F3400050B30120207625
:1053D00000BF04F1B800FBF781FF0020A081E7497E
:1053E0000880E7490880E7490880E7490880E749DD
:1053F0000880E7490880E7490880E749088094F871
:10540000BC0000F0010030B994F8BC0020F00200AC
:10541000801C84F8BC0000BF00BF00202880022050
:10542000CDE7A08940F2011188427DD194F86C004B
:10543000022831D094F86C0006282DD000BF04F16A
:10544000B800FBF74BFF0020A081CC490880CC4975
:105450000880CC490880CC49088003E084E081E2E0
:105460002AE1DBE1C9490880C9490880C9490880A7
:10547000C949088094F8BC0000F0010030B994F8E4
:10548000BC0020F00200801C84F8BC0000BF00BFFC
:1054900000202880022092E700BF0020C4F8C0004E
:1054A00000BF0822BDA104F10800FBF7F3FCBE49D0
:1054B0000868FAF71BFF86B2BB483246016804F160
:1054C0000800FBF7E7FC0222ABA104F10800FBF7A0
:1054D000E1FC002240F20111204601F02BFD00BF4B
:1054E00040F2B330288000BF94F8C00000F0010003
:1054F00030B994F8C000C0F3400008B900205EE75E
:1055000000BF94F8C00000F0010050B114F8BC0FC7
:1055100020F00400001D2070207820F0080004F81E
:10552000BC0994F8C00000E057E0C0F3400050B15F
:1055300014F8BC0F20F004002070207820F0080040
:10554000083004F8BC0994F8C00000F0010080F0B5
:1055500001002076207EE0B920689449086000BFF1
:1055600040F2C230288000BFC120005DC0F3C000FF
:1055700020B1C120005DC0F3001048B920688B49FC
:105580000968401A41F28831884201D8002016E7A4
:1055900000BF00BF04F1B800FBF7A0FE0020A0810F
:1055A00076490880764908807649088076490880DF
:1055B00076490880764908807649088076490880CF
:1055C00094F8BC0000F0010030B994F8BC0020F061
:1055D0000200801C84F8BC00C3E1A089B0F5817F83
:1055E00076D194F86C0003282CD094F86C0007282E
:1055F00028D000BF04F1B800FBF770FE0020A081A6
:105600005E4908805E4908805E4908805E490880DE
:105610005E4908805E4908805E4908805E490880CE
:1056200094F8BC0000F0010030B994F8BC0020F000
:105630000200801C84F8BC0000BF00BF002028804E
:105640000220BCE600BF0020C4F8C00000BF082252
:1056500052A104F10800FBF71DFC53490868FAF752
:1056600045FE86B250483246016804F10800FBF757
:1056700011FC01224EA104F10800FBF70BFC4A4982
:105680004868FAF733FE86B247483246416804F16B
:105690000800FBF7FFFB022237A104F10800FBF72B
:1056A000F9FB00224FF48171204601F043FC00BF5A
:1056B0004FF47570288000BF94F8C00000F001001E
:1056C00038B994F8C000C0F3400010B9002076E665
:1056D00070E000BF94F8C00000F0010050B114F871
:1056E000BC0F20F0100010302070207820F0200037
:1056F00004F8BC0994F8C000C0F3400050B114F89D
:10570000BC0F20F010002070207820F02000203006
:1057100004F8BC0994F8C00000F0010080F001001A
:10572000207600BF04F1B800FBF7D8FD0020A0816F
:1057300012490880124908801249088012490880DD
:1057400012490880124908801249088012490880CD
:1057500094F8BC0000F0010030B994F8BC0020F0CF
:105760000200801C84F8BC00FBE0000041542B4385
:1057700050494E3F000000000D0A0000BC00002010
:10578000BE000020C0000020C2000020C400002095
:10579000C6000020C8000020CA00002041542B434E
:1057A00050494E3D00000000540A0020CC0000206B
:1057B0002C000000A08940F20311884266D100BF8E
:1057C0000020C4F8C00000BF102269A104F1080045
:1057D000FBF760FB6B490868FAF788FD86B26948F9
:1057E0003246016804F10800FBF754FB012266A170
:1057F00004F10800FBF74EFB0222AFF2840104F132
:105800000800FBF747FB002240F20311204601F09D
:1058100091FB00BF40F2EA30288000BF94F8C0003E
:1058200000F0010030B994F8C000C0F3400008B99E
:105830000020C4E500BF94F8C00000F0010080F033
:105840000100207600BF04F1B800FBF747FD0020FF
:10585000A0814E4908804E4908804E4908804E4933
:1058600008804E4908804E4908804E4908804E49BC
:10587000088094F8BC0000F0010030B994F8BC0036
:1058800020F00200801C84F8BC006AE0A089B0F51A
:10589000827F66D100BF0020C4F8C00000BF102284
:1058A00042A104F10800FBF7F5FA36490868FAF757
:1058B0001DFD86B233483246016804F10800FBF74B
:1058C000E9FA012230A104F10800FBF7E3FA022211
:1058D000AFF25C1104F10800FBF7DCFA00224FF490
:1058E0008271204601F026FB00BF40F2F73028808D
:1058F00000BF94F8C00000F0010030B994F8C00077
:10590000C0F3400008B9002059E500BF94F8C0007A
:1059100000F0010080F00100207600BF04F1B80023
:10592000FBF7DCFC0020A08118490880184908809A
:1059300018490880184908801849088018490880C3
:10594000184908801849088094F8BC0000F001004C
:1059500030B994F8BC0020F00200801C84F8BC0030
:1059600000BF00BF00BF00202880032027E5000003
:1059700041542B434C434B3D225343222C302C2289
:1059800000000000540A002022000000BC0000209B
:10599000BE000020C0000020C2000020C400002083
:1059A000C6000020C8000020CA00002041542B433C
:1059B0004C434B3D225343222C312C22000000004B
:1059C000FEB505460C461A200290FD48C668288898
:1059D000B0F5906F7ED008DC90B1A0F25C4048B387
:1059E000092878D01C2877D1FDE0A0F29640002845
:1059F00073D00E2872D01C2871D02928F3D121E34E
:105A000094F86C00012851D000BF0020C4F8C000F9
:105A100000BF0822EBA104F10800FBF73BFA0222C9
:105A2000EBA104F10800FBF735FA00BF40F25C403F
:105A3000288000BF94F8C00000F0010030B994F84D
:105A4000C000C0F3400008B90020FEBD00BF94F8BC
:105A50006C0001282AD00820207600BF04F1B8008D
:105A6000FBF73CFC0020A081DA490880DA49088075
:105A7000DA490880DA490880DA490880DA4908807A
:105A8000DA490880DA49088094F8BC0000F0010087
:105A900030B994F8BC0020F00200801C84F8BC00EF
:105AA00000BF00BF002028800220CEE7A089E0814F
:105AB00000BF0020C4F8C00000BF0922CDA104F13E
:105AC0000800FBF7E7F90222C1A104F10800FBF787
:105AD000E1F905E0B3E00EE0EDE23AE1D5E145E2BF
