:020000040800F2
:10000000B8F200206902000805200008FD1F000862
:100010000120000875050008317900080000000083
:10002000000000000000000000000000AD0100081A
:10003000790600080000000001020008596E00085F
:10004000830200088302000883020008830200087C
:10005000830200088302000883020008830200086C
:100060008302000883020008830200087905000863
:100070008905000899050008A9050008B9050008C8
:10008000C9050008D9050008830200080000000027
:1000900000000000000000000000000083020008D3
:1000A000830200088302000883020008830200081C
:1000B000830200088302000883020008830200080C
:1000C00083020008830200088302000883020008FC
:1000D00083020008B5780008D97800080000000005
:1000E0008302000883020008830200080000000069
:1000F000000000000000000000000000E90500080A
:100100000000000083020008830200088302000848
:1001100000000000000000000000000000000000DF
:10012000F905000809060008190600082906000854
:100130003906000800000000000000000000000078
:100140000000000000000000000000008302000822
:1001500049060008590600086906000805790008E4
:100160008302000883020008000000000000000075
:10017000000000000000000000000000000000007F
:1001800000000000830200080000000000000000E2
:100190008302000883020008DFF80CD000F00CF99D
:1001A00000480047AD7B0008B8F200202B4B1968CF
:1001B0000868B0E8F04F80F30988BFF36F8F4FF005
:1001C000000080F3118870470000000006480068B6
:1001D000006880F3088862B661B6BFF34F8FBFF343
:1001E0006F8F00DF00BF00BF08ED00E0DFF80C00FC
:1001F000016841F470010160704700BF88ED00E0C4
:10020000EFF30980BFF36F8F144B1A681EF0100FC5
:1002100008BF20ED108A20E9F04F106008B44FF0BD
:10022000500080F31188BFF34F8FBFF36F8F08F03A
:100230002BFA4FF0000080F3118808BC1968086899
:10024000B0E8F04F1EF0100F08BFB0EC108A80F33A
:100250000988BFF36F8F704700BF00BF7C0000208C
:10026000EFF30580704700000648804706480047C6
:10027000FEE7FEE7FEE7FEE7FEE7FEE7FEE7FEE756
:10028000FEE7FEE7616E00089901000840EA0103FD
:100290009B0703D009E008C9121F08C0042AFAD23C
:1002A00003E011F8013B00F8013B521EF9D2704700
:1002B000D2B201E000F8012B491EFBD270470022A8
:1002C000F6E710B513460A4604461946FFF7F0FF55
:1002D000204610BD10B5044604E00B7800F8013B41
:1002E00003B1491C521EF8D2204610BD421C10F822
:1002F000011B0029FBD1801A704710B5002200E0D5
:10030000521C835C8C5CA34201D1002BF8D1D8B283
:10031000E1B2401A10BD034611F8012B00F8012B81
:10032000002AF9D11846704730B50546002003462B
:1003300000E05B1C934205D2EC5CC85C201A01D142
:10034000002CF6D130BD000070B500B91068002552
:1003500012E00B4602E0A64203D05B1C1C78002C86
:10036000F9D1E3B22B4305D02CB125B1002100F81F
:10037000011B04E00546401C0678002EE9D1106000
:10038000284670BD004ADFE7D800002030B50B4694
:10039000014600202022012409E021FA02F59D42B5
:1003A00005D303FA02F5491B04FA02F52844151E89
:1003B000A2F10102F1DC30BD064C074D06E0E06819
:1003C00040F0010394E8070098471034AC42F6D39C
:1003D000FFF7E6FE589000087890000830B5014617
:1003E000002409B9002030BD4A688B689A4200D1C8
:1003F0000C68934200D99C1A9A4202D9D51A08680F
:10040000441B601EEFE730B503460BB9002030BD3A
:1004100059689A68914200D10024914200D98C1AFF
:100420008A4202D9551A1868441B2046EFE770B576
:1004300004460D4616460CB9012070BD1821204611
:10044000FFF73DFF2560E6600A206074E06868B948
:10045000284607F003FCE060E06818B9002020603F
:100460000120EAE7207C40F002002074207C40F06C
:10047000010020740020E0E72DE9F047044688469B
:1004800015464FF0000904B115B90020BDE8F0870A
:100490002168A068884201D30020A0602046FFF7B1
:1004A000B2FF0746AF4203D20FB90020EEE73D4648
:1004B000A1682068461AAE4200D92E46D4E902202F
:1004C000811832464046FFF7E1FEB144A06830444F
:1004D000A060AD1B35B108EB09002A46E168FFF7C3
:1004E000D5FEA5602168A068884201D30020A060E5
:1004F00009EB0500CAE72DE9F04704468946154691
:100500004FF0000804B115B90020BDE8F087D4E928
:100510000010884201D3002060602046FFF75EFF94
:100520000746AF4203D20FB90020EEE73D46D4E9BB
:100530000001461AAE4200D92E466268E16888186A
:1005400032464946FFF7A2FEB0446068304460601E
:10055000AD1B35B109EB08012A46E068FFF796FEAE
:100560006560D4E90010884201D30020606008EB88
:100570000500CAE700BFFEE710B5024806F075FDAA
:1005800010BD00001060024010B5024806F06DFD7D
:1005900010BD00002860024010B5024806F065FD5D
:1005A00010BD00004060024010B5024806F05DFD3D
:1005B00010BD00005860024010B5024806F055FD1D
:1005C00010BD00007060024010B5024806F04DFDFD
:1005D00010BD00008860024010B5024806F045FDDD
:1005E00010BD0000A060024010B5024806F03DFDBD
:1005F00010BD0000B860024010B5024806F035FD9D
:1006000010BD00001064024010B5024806F02DFD38
:1006100010BD00002864024010B5024806F025FD18
:1006200010BD00004064024010B5024806F01DFDF8
:1006300010BD00005864024010B5024806F015FDD8
:1006400010BD00007064024010B5024806F00DFDB8
:1006500010BD00008864024010B5024806F005FD98
:1006600010BD0000A064024010B5024806F0FDFC79
:1006700010BD0000B8640240704770477047704773
:100680007047000070B504460D46034E2A462146C9
:100690003046FFF730FF70BD1413002008B5024646
:1006A0001068009000BF1068009BC01A8842FAD3FF
:1006B00000BF0020107108BD2DE9F04105460E462F
:1006C00017463224DFF89C82A7480560C4210068E1
:1006D000FFF7F5FD0020A449096881F86C000621A8
:1006E000A148006880F8441000209F49096808600C
:1006F0009E4A4FF400714046FFF799FE9A48006801
:10070000876099480068083000F042F930B100BFB6
:100710000720954909680871BDE8F08101219248D8
:100720000068083000F064F90A218F480068FFF77C
:10073000B5FF00218C480068083000F059F98A485C
:100740000068B83000F044FD28B100BF062086499B
:1007500009680871E0E7002085490880854908801C
:100760008549088085490880854908808549088031
:10077000854908807C48006890F8BC0020F00100A2
:10078000401C7949096881F8BC004FF47A707649B9
:100790000968C86100BF00BF73480068B83000F046
:1007A00035FD08B10420B7E76F480068808928B993
:1007B0006D48006800686C490968486105206A490D
:1007C0000968888100BF4FF47A716748006800F0BB
:1007D0009DFE65480068007E00B903E0201EA4F17C
:1007E0000104D8D100BF00BF00BF5F480068B83027
:1007F00000F00CFD08B104208EE75B48006880899A
:1008000028B95948006800685749096848610420B8
:1008100055490968888100BF4FF47A7152480068D1
:1008200000F074FE50480068007E00B903E0201E0E
:10083000A4F10104D8D100BF00BF00BF4A4800683E
:10084000B83000F0E3FC08B1042065E746480068D2
:10085000808928B9444800680068434909684861AC
:10086000022041490968888100BF4FF47A713E48EF
:10087000006800F04BFE3C480068007E00B903E0D1
:10088000201EA4F10104D8D100BF00BF00BF36482C
:100890000068B83000F0BAFC08B104203CE73248E8
:1008A0000068808928B93048006800682E490968C6
:1008B000486103202C490968888100BF4FF47A7190
:1008C0002948006800F022FE27480068007E00B931
:1008D00003E0201EA4F10104D8D100BF00BF2B48C3
:1008E000066000BF20480068B83000F08FFC08B1F7
:1008F000042011E71C480068808928B91A4800685C
:10090000006819490968486140F2011016490968F0
:10091000888100BF4FF47A711348006800F0F6FD3B
:1009200011480068007E00B908E064210E480068A4
:10093000FFF7B4FE201EA4F10104D0D100BF0A4885
:10094000006890F8BC0020F001000749096881F8B0
:10095000BC0000BF04480068007E2871024800689F
:10096000007ED9E614130020540000202C13002030
:10097000580000205A0000205C0000206000002089
:100980005E0000206400002066000020B0150020FA
:100990001CB5044600210D48226806F029FE0020FF
:1009A000012103460A46CDE900100221084806F05D
:1009B0000BFC0020012103460A46CDE90010082166
:1009C000034806F001FC00201CBD0000001001409F
:1009D0000000024070B506460C4615462A462146E0
:1009E000024806F03EFE002070BD000000100140ED
:1009F0000246012903D14804034B986102E002201A
:100A0000014B986100207047000002401CB54FF474
:100A1000E13245A14648FFF74FFE0446214645A076
:100A200006F088FF012349A24BA1414800F06CF970
:100A30004B49087010B94BA006F07CFF0123514AC6
:100A400000213B4800F058FA4549087000281DD1A4
:100A50004C48018800F11603821C4BA006F06AFF87
:100A6000012000904748018853A356A2304800F067
:100A7000EBF93B49087018B955A006F05BFF0AE096
:100A80003748017859A006F055FF04E03448017852
:100A90005FA006F04FFF0120664964230022CDE9E4
:100AA00000106549224800F079FA2D49087028B9EC
:100AB0006048018861A006F03DFF04E02848017805
:100AC00069A006F037FF01205A4964235A4ACDE94C
:100AD00000103DA1164800F0C5FA2149087028B958
:100AE0005448018869A006F025FF04E01C480178FD
:100AF00071A006F01FFF2348018801220C4800F076
:100B000055F91749087028B91E48018874A006F0E5
:100B100011FF04E0124801783DA006F00BFF02E04F
:100B2000034800F0FFFAFBE73132333400000000E5
:100B3000BC01002047534D20496E697420737461D5
:100B40007475733A2025640D0A0000003031323389
:100B500034353637383900004E616D6500000000CD
:100B6000440000204E657720656E747279206164C0
:100B700064656420746F2070686F6E65626F6F6B60
:100B8000210D0A0080020020456E747279206F6E7C
:100B900020696E646578202564206861733A204E70
:100BA000616D65203D2025732C204E756D62657248
:100BB0003A2025730D0A0000313233333231343597
:100BC000360000004E6577206E616D650000000004
:100BD000456E74727920686173206265656E207558
:100BE000706461746564210D0A0000004572726FC3
:100BF0007220747279696E6720746F2075706461F9
:100C0000746520656E7472793A2025640D0A0000BF
:100C10004572726F7220747279696E6720746F20EA
:100C20007265616420656E7472793A2025640D0ADC
:100C30000000000046000020AA02002053756363F4
:100C400065737366756C6C792072656164202564C8
:100C500020656E74726965732066726F6D206D65B4
:100C60006D6F72790D0A00004572726F7220747296
:100C700079696E6720746F207265616420656E7497
:100C8000726965733A2025640D0A0000536561722C
:100C9000636820726573756C7420676F74202564B7
:100CA00020656E74726965732066726F6D206D6564
:100CB0006D6F72790D0A00004572726F7220747246
:100CC00079696E6720746F2073656172636820654F
:100CD0006E74726965733A2025640D0A0000000085
:100CE000456E747279206F6E20696E646578202578
:100CF0006420686173206265656E2064656C65744C
:100D000065640D0A000000002DE9F04104460D461F
:100D100016461F4600BF05B126B900BF032020714B
:100D2000BDE8F08100BF00BFA08920B994F8BC00E5
:100D3000C0F3400018B100BF02202071F0E700BFEF
:100D400000BF04F1B80000F061FA08B10420E7E741
:100D5000A08908B92068606140F20150A08100BFFD
:100D600011480660456000BF4FB994F8BC0020F000
:100D7000010084F8BC0000BF00202071D0E794F887
:100D8000BC0020F00100401C84F8BC004FF47A71D4
:100D9000204600F0BBFB0346042B00D1C0E7237EB6
:100DA000002020761846BBE7B015002070B5044639
:100DB0000D46164600BF1DB900BF0320207170BD4F
:100DC00000BF00BFA08920B994F8BC00C0F3400068
:100DD00018B100BF02202071F1E700BF00BF04F18D
:100DE000B80000F013FA08B10420E8E7A08908B9B8
:100DF0002068606140F20350A08100BF1148456146
:100E000000BF4EB994F8BC0020F0010084F8BC008B
:100E100000BF00202071D2E794F8BC0020F0010050
:100E2000401C84F8BC004FF47A71204600F06EFB41
:100E30000346042B00D1C2E7237E0020207618460B
:100E4000BDE70000B01500202DE9F04104460D4635
:100E500016461F46DDF8188000BF0DB106B127B950
:100E600000BF03202071BDE8F08100BF00BFA08952
:100E700020B994F8BC00C0F3400018B100BF0220B4
:100E80002071F0E700BF00BF04F1B80000F0BEF928
:100E900008B10420E7E7A08908B92068606140F242
:100EA0000250A08100BF134807604660456100BF43
:100EB000B8F1000F09D194F8BC0020F0010084F8CB
:100EC000BC0000BF00202071CDE794F8BC0020F0EA
:100ED0000100401C84F8BC004FF47A71204600F0F9
:100EE00015FB0346042B00D1BDE7237E00202076AE
:100EF0001846B8E7B01500202DE9F04104460D462C
:100F000016461F4600BF05B126B900BF0320207159
:100F1000BDE8F08100BF00BFA08920B994F8BC00F3
:100F2000C0F3400018B100BF02202071F0E700BFFD
:100F300000BF04F1B80000F069F908B10420E7E748
:100F4000A08908B92068606140F20450A08100BF08
:100F50001148C660456100BF4FB994F8BC0020F04D
:100F6000010084F8BC0000BF00202071D0E794F895
:100F7000BC0020F00100401C84F8BC004FF47A71E2
:100F8000204600F0C3FA0346042B00D1C0E7237EBD
:100F9000002020761846BBE7B01500202DE9F04769
:100FA00004460E4615461F46DDE9088900BF26B1F6
:100FB0001DB117B1B8F1000F04D100BF032020719B
:100FC000BDE8F08700BF00BFA08920B994F8BC003D
:100FD000C0F3400018B100BF02202071F0E700BF4D
:100FE00000BF04F1B80000F011F908B10420E7E7F0
:100FF000A08908B92068606140F20550A08100BF57
:101000000020A8F800001648C660C0F81080E81953
:10101000401E65F31F401249486100BFB9F1000F3F
:1010200009D194F8BC0020F0010084F8BC0000BF96
:1010300000202071C4E794F8BC0020F00100401C9F
:1010400084F8BC004FF47A71204600F05FFA034642
:10105000042B00D1B4E7237E002020761846AFE7AA
:10106000B01500202DE9F04704460D4616461F46F0
:10107000DDE9088900BF25B11EB117B1B8F1000F35
:1010800004D100BF03202071BDE8F08700BF00BF7E
:10109000A08920B994F8BC00C0F3400018B100BF8B
:1010A00002202071F0E700BF00BF04F1B80000F09B
:1010B000ADF808B10420E7E7A08908B920686061AD
:1010C00040F20650A08100BF0020A8F8000014489C
:1010D0000560C660C0F81080476100BFB9F1000F1D
:1010E00009D194F8BC0020F0010084F8BC0000BFD6
:1010F00000202071C8E794F8BC0020F00100401CDB
:1011000084F8BC004FF47A71204600F0FFF90346E2
:10111000042B00D1B8E7237E002020761846B3E7E1
:10112000B015002010B50446A08968B994F8BC0039
:10113000C0F3400040B194F8BC0020F0020084F8F5
:10114000BC002046FFF79BFAA08990B994F8BC0038
:10115000C0F3400068B9BD20005DC0F3800040B11D
:10116000BD20005D20F00401BD2001552046FFF7A1
:1011700084FAA08990B994F8BC00C0F3400068B923
:10118000BD20005DC0F3C00040B1BD20005D20F077
:101190000801BD2001552046FFF770FAA08990B9DB
:1011A00094F8BC00C0F3400068B9BD20005DC0F3F6
:1011B000400040B1BD20005D20F00201BD2001557E
:1011C0002046FFF75DFA00BF0020207110BD00002F
:1011D00010B50446204606F07CFD04490860084628
:1011E000006808B9012010BD0020FCE7780000204D
:1011F00010B504460448006806F072FD08B10120ED
:1012000010BD0020FCE700007800002010B5044667
:101210004FF47A710448006806F08AFD08B1012095
:1012200010BD0020FCE7000078000020F8B504465F
:10123000A94D4FF4FA76A08960B120686169401A1F
:10124000E169884206D994F8C00020F00200801CB1
:1012500084F8C00032E1A08940F2317188421FD188
:10126000BD20005DC0F38010D0B19DF80030AC21EE
:101270000859411CAC221151982109590B54B02036
:101280000059401EB0210851B0200059002806D155
:10129000BD20005D20F04001BD200155002605E184
:1012A000A08940F22C7188421ED1BD20005DC0F3A0
:1012B0004010C8B18949C8689DF800204389591C6D
:1012C00041814168CA54018A491E0182018A51B98B
:1012D000BD21095D21F02002BD210A55817D21F04B
:1012E000020181750026E1E0A08940F202218842D6
:1012F00040D1BD20005D00F00100D0B37749C8683F
:1013000090F8A3109F2909D29DF8002010F8A33F60
:101310000178491C00F8A319C11CCA549DF800109B
:101320000A2925D16E4909780D2921D190F8A310F9
:1013300002291DDB90F8A310891EC21C515C0D29E7
:101340000AD190F8A310491E515C0A2904D190F8E3
:10135000A310891E80F8A310002290F8A330C11CAE
:10136000CA54BD21095D21F00102BD210A550026A4
:101370009CE0FFE7A08940F20521884250D1BD20C2
:10138000005D00F0010000284AD054480069008840
:1013900052494969884233D25049C8689DF80020B3
:1013A00010F8A33F0178491C00F8A319C11CCA54C6
:1013B0009DF800100A2922D1494909780D291ED12A
:1013C00090F8A31002291ADB10F8A31F891E0170E0
:1013D000002210F8A339C11CCA544049C968D4314D
:1013E0003E4AD160114609690988491C1269118079
:1013F000BD21095D21F00102BD210A55002655E0FD
:101400009DF800000A2851D1354800780D284DD1AB
:10141000BD20005D20F00101BD200155002645E002
:101420009DF800000A281BD100BF9DF800102D4830
:1014300002780078401C2B4B1870581C81540021F6
:10144000401E0278401C815400BF411E204605F01A
:1014500087F800BF002023490870487000BF24E0CF
:101460009DF8000020280ED11D4800783E280AD1A2
:101470001D4800780A2806D194F8C00020F0040026
:10148000001D84F8C00000BF9DF8001015480278C8
:101490000078401C134B1870581C81540021401ECA
:1014A0000278401C815400BF00BF00BF0C48007888
:1014B0000D4908709DF80000094908703EB10122ED
:1014C00069462846FEF7D8FF00287FF4C4AE2046C0
:1014D00005F046FCF8BD000014130020B0150020F4
:1014E000750000202D1500207600002002461068AF
:1014F0000844106000BF00201071704702E00248ED
:10150000FFF794FEFBE70000BC0100200246D1611A
:1015100000BF90890028FCD192F8BC00C0F34000C5
:101520000028F6D100BF107E1071107E70470000B9
:1015300001480068704700000400002010B52E48E4
:101540000068401C2C4908602C48006820B12B48DA
:101550000068401E29490860002444E0284850F8EB
:10156000240000283DD0264850F824000078C0F31D
:101570004000B0B3224850F82400806840B12048B1
:1015800050F824008068401E1D4951F824108860DE
:101590001B4850F82400806818BB194B53F82430BE
:1015A0001969174B53F8240053F82430DA68904730
:1015B000134850F824004168114850F82400816015
:1015C0000F4850F82400007800F0010048B90C489A
:1015D00050F82400007820F00201094850F8240057
:1015E0000170601CC4B20648001F0078A042B5DC40
:1015F00005F09AFC10BD000004000020000000204F
:101600000801002010B50D48006840F400700B4937
:1016100008600846006840F480600860084600687A
:1016200040F480700860032000F086F80F2000F07E
:1016300007F800F017F8002010BD0000003C024041
:1016400070B5044600F0E4F94FF47A71B0FBF1F59F
:10165000284600F081FC00222146501E00F02DF8A3
:10166000002070BD7047000000BF00F01F02012184
:101670009140034A430942F8231000BF704700001D
:1016800080E200E000BF00F01F0201219140034A08
:10169000430942F8231000BF7047000080E100E0DA
:1016A00000BF00F01F02012191404209920002F1A7
:1016B000E022C2F8001100BF70472DE9F05F8046BC
:1016C0000D461646002700F09FFC074639462A467D
:1016D000334601F00700C0F1070ABAF1040F02D93E
:1016E0004FF0040A01E0C0F1070AD14600F1040AF4
:1016F000BAF1070F02D24FF0000A01E0A0F1030A8D
:10170000D4464FF0010A0AFA09FAAAF1010A0AEAD4
:10171000020A0AFA0CFA4FF0010B0BFA0CFBABF1C0
:10172000010B0BEA030B4AEA0B042146404600F08A
:1017300073FCBDE8F09F000000BF00F00702064BFD
:1017400019684FF6FF031940044B0B4343EA02218B
:10175000014B196000BF70470CED00E00000FA0576
:1017600070B504460E460025A748006800F00F003B
:10177000B0426FD2A4490E700846006800F00F0016
:10178000B04201D0012070BD207800F00200022894
:1017900007D19E48006820F0F000A16808439B49EB
:1017A0000860207800F0010000283ED06068012821
:1017B00007D1964808380068C0F34040B8B9012006
:1017C000E1E76068022802D06068032807D18F48EB
:1017D00008380068C0F3406048B90120D3E78B485F
:1017E00008380068C0F3400008B90120CBE78748FB
:1017F000006820F003006168084384490860FFF72F
:1018000097FE05466068012810D108E0FFF790FEBA
:10181000401B41F28831884201D90320B3E77B485D
:10182000006800F00C000428F0D1CDE060680228C8
:1018300011D108E0FFF77CFE401B41F2883188425D
:1018400001D903209FE77148006800F00C000828C8
:10185000F0D1B9E024E06068032810D108E0FFF778
:1018600067FE401B41F28831884201D903208AE794
:101870006648006800F00C000328F0D1A4E008E0FE
:10188000FFF756FE401B41F28831884201D9032000
:1018900079E75E48006800F00C000028F0D193E082
:1018A000207800F00200022807D15848006820F094
:1018B000F000A168084355490860207800F0010055
:1018C000002877D06068012807D1504808380068A0
:1018D000C0F34040B8B9012055E76068022802D043
:1018E0006068032807D1494808380068C0F34060A1
:1018F00048B9012047E7454808380068C0F3400070
:1019000008B901203FE74148006820F00300616802
:1019100008433E490860FFF70BFE05466068012852
:1019200010D108E0FFF704FE401B41F288318842E5
:1019300001D9032027E73548006800F00C0004288F
:10194000F0D137E06068022810D108E0FFF7F0FD21
:10195000401B41F28831884201D9032013E72B480C
:10196000006800F00C000828F0D123E0606803282C
:1019700010D108E0FFF7DCFD401B41F288318842BE
:1019800001D90320FFE62148006800F00C0003287D
:10199000F0D10FE008E0FFF7CBFD401B41F28831AA
:1019A000884201D90320EEE61848006800F00C00D8
:1019B0000028F0D114490E700846006800F00F00AE
:1019C000B04201D00120DEE6207800F004000428B7
:1019D00007D10E48006820F4E050E16808430B4945
:1019E0000860207800F00800082808D1074800683F
:1019F00020F46040216940EAC100044908600F20DA
:101A0000FFF71EFE0020BEE6003C02400838024000
:101A100010B500F045F80949096801F0F001F0221D
:101A200092FAA2F2B2FA82F2D140054A515CC84061
:101A3000044908600846006810BD000008380240EC
:101A4000F48F00085000002010B5FFF7E1FF0749B0
:101A5000096801F4E0514FF4E05292FAA2F2B2FAAE
:101A600082F2D140024A515CC84010BD08380240A1
:101A7000F48F000810B5FFF7CBFF0749096801F4A0
:101A800060414FF4604292FAA2F2B2FA82F2D1407F
:101A9000024A515CC84010BD08380240F48F00086B
:101AA00070B50021002200230020274C246804F098
:101AB0000C0424B1042C04D0082C41D103E02348A9
:101AC00040E023483EE0204C241F246804F03F01FE
:101AD0001D4C241F246804F4800484B11C4CB4FB06
:101AE000F1F5194C241F246847F6C076344096FA65
:101AF000A6F6B6FA86F6F44005FB04F20FE0134CA6
:101B0000B4FBF1F5104C241F246847F6C07634402E
:101B100096FAA6F6B6FA86F6F44005FB04F20A4CED
:101B2000241F246804F440344FF4403595FAA5F599
:101B3000B5FA85F5EC40641C6300B2FBF3F001E0FC
:101B4000024800BF00BF70BD083802400024F40006
:101B500000127A0038B504460025207800F0010014
:101B6000002866D0F648006800F00C0004280DD06C
:101B7000F348006800F00C00082813D1F048001F5B
:101B8000006800F48000B0F5800F0BD1EC480838F5
:101B90000068C0F3404000284BD06068002848D15E
:101BA000012038BD0020E649891F0870FFF7C0FCFE
:101BB000054608E0FFF7BCFC401B41F28831884233
:101BC00001D90320EDE7DE4808380068C0F3404043
:101BD0000028EFD12079DA49891F08706068A0B128
:101BE000FFF7A6FC054608E0FFF7A2FC401B41F208
:101BF0008831884201D90320D3E7D14808380068EA
:101C0000C0F340400028EFD013E0FFF791FC0546F9
:101C100008E0FFF78DFC401B41F28831884201D972
:101C20000320BEE7C64808380068C0F340400028DB
:101C3000EFD1207800F00200022869D1C048006886
:101C400000F00C0058B1BE48006800F00C000828F5
:101C500021D1BB48001F006800F48000D8B9B84803
:101C600008380068C0F3400020B1E068012801D0C6
:101C7000012096E7B2480838006820F0F800F82202
:101C800092FAA2F2B2FA82F2216991400843AC4979
:101C9000083908603CE0E06828B30120A9490860E1
:101CA000FFF746FC054606E0FFF742FC401B6428B0
:101CB00001D9032075E7A24808380068C0F3400046
:101CC0000028F1D09E480838006820F0F800F8227B
:101CD00092FAA2F2B2FA82F221699140084398493D
:101CE0000839086014E0002096490860FFF720FCDE
:101CF000054606E0FFF71CFC401B642801D90320C1
:101D00004FE78F4808380068C0F340000028F1D141
:101D1000207800F0080008282CD16069A8B10120C3
:101D200089490860FFF704FC054606E0FFF700FC60
:101D3000401B642801D9032033E781486C300068D8
:101D4000C0F340000028F1D014E000207E49086074
:101D5000FFF7EEFB054606E0FFF7EAFB401B6428B1
:101D600001D903201DE776486C300068C0F34000BD
:101D70000028F1D1207800F0040004286DD100BFC4
:101D80006F483830006840F080506D493831086045
:101D90000846006800F08050009000BF00BF6B480C
:101DA000006840F4807069490860FFF7C1FB054690
:101DB00006E0FFF7BDFB401B642801D90320F0E6D5
:101DC0006248006800F480700028F2D000205C496E
:101DD00068310870FFF7ACFB054608E0FFF7A8FB89
:101DE000401B41F28831884201D90320D9E654488A
:101DF00068300068C0F340000028EFD1207A5049D5
:101E000068310870A068A0B1FFF792FB054608E0B2
:101E1000FFF78EFB401B41F28831884201D9032035
:101E2000BFE6474868300068C0F340000028EFD0A4
:101E300013E0FFF77DFB054608E0FFF779FB401B49
:101E400041F28831884201D90320AAE63C48683033
:101E50000068C0F340000028EFD1A069F0B3384813
:101E6000006800F00C00082872D0A069022850D148
:101E7000002034490866FFF75BFB054606E0FFF7E4
:101E800057FB401B642801D903208AE62C480838F8
:101E90000068C0F340600028F1D1D4E9070108438D
:101EA00047F6C07292FAA2F2B2FA82F2616A9140E7
:101EB00008430122A16AC2EB51014FF4403292FA69
:101EC000A2F2B2FA82F2914008434FF0706292FAA5
:101ED000A2F2B2FA82F2E16A914000E03AE00843ED
:101EE0001749091F0860012016490866FFF720FB03
:101EF000054606E0FFF71CFB401B642801D90320C0
:101F00004FE60F4808380068C0F340600028F1D061
:101F100020E000200B490866FFF70AFB054606E0B3
:101F2000FFF706FB401B642801D9032039E604486B
:101F300008380068C0F340600028F1D10AE007E0EB
:101F40000838024000004742800E474200700040BF
:101F5000012026E6002024E670B504462546681ECA
:101F6000B0F1807F01D301200FE0681E4FF0E02127
:101F700048610F214FF0FF3000F04EF800204FF085
:101F8000E021886107200861002070BD10B504467B
:101F90000CB9012010BDA06900B100E000BF94F8A9
:101FA000390028B9002084F83800204600F025F8D0
:101FB000022084F839002068C06820F400502168AD
:101FC000C860204605F064FB2068006920F490405A
:101FD000216808612068406920F02A002168486172
:101FE0002068C06840F400502168C8600020E063A9
:101FF000012084F839000020CCE7704700BFFEE7DD
:1020000000BFFEE77047000002480068C0F30220EE
:10201000704700000CED00E010B5002807DA0A0751
:10202000140E054A00F00F031B1FD45403E00A07E7
:10203000130E024A135410BD18ED00E000E400E056
:1020400070B505460C46224602A1284605F082FCE2
:1020500070BD0000256400007CB505460C4628884C
:1020600040F22942811A90427ED008DC70B1A0F281
:10207000054028B30A2878D0182877D103E10D2924
:1020800075D0182974D02329F7D1A2E294F86C00F6
:10209000012851D000BF0020C4F8C00000BF0822B2
:1020A000FCA104F10800FEF795FC0222FCA104F15A
:1020B0000800FEF78FFC00BF40F20540288000BFFB
:1020C00094F8C00000F0010030B994F8C000C0F3EB
:1020D000400008B900207CBD00BF94F86C000128C6
:1020E0002AD00820207600BF04F1B800FFF780F85E
:1020F0000020A081EB490880EB490880EB4908806B
:10210000EB490880EB490880EB490880EB490880DF
:10211000EB49088094F8BC0000F0010030B994F855
:10212000BC0020F00200801C84F8BC0000BF00BF8F
:10213000002028800220CEE7A08940F201318842A9
:102140006BD100BF0020C4F8C00000BF0322DDA196
:1021500004F10800FEF73EFCDB490868FEF7C6F80C
:1021600086B2D948324604E0F2E01EE06AE257E166
:10217000D6E1016804F10800FEF72CFC0122D3A18E
:1021800004F10800FEF726FC0222C5A104F10800B4
:10219000FEF720FC002240F20131204604F054FEFC
:1021A00000BF40F20F40288000BF94F8C00000F04C
:1021B000010030B994F8C000C0F3400008B9002015
:1021C00089E700BF94F8C00000F0010080F0010032
:1021D000207600BF04F1B800FFF70AF80020A081C4
:1021E000B0490880B0490880B0490880B0490880EB
:1021F000B0490880B0490880B0490880B0490880DB
:1022000094F8BC0000F0010030B994F8BC0020F054
:102210000200801C84F8BC0013E2A08940F2053162
:10222000884268D100BF0020C4F8C00000BFA648A3
:1022300041696846FFF704FF0922A5A104F10800DF
:10224000FEF7C8FB6846FEF751F886B2324669468B
:1022500004F10800FEF7BEFB01229CA104F1080076
:10226000FEF7B8FB02228EA104F10800FEF7B2FBD4
:10227000002240F20531204604F0E6FD00BF40F2A6
:102280001D40288000BF94F8C00000F0010030B964
:1022900094F8C000C0F3400008B900201BE700BF5D
:1022A00094F8C00000F0010080F00100207600BF2B
:1022B00004F1B800FEF79CFF0020A0817949088056
:1022C00079490880794908807949088079490880E6
:1022D00079490880794908807949088094F8BC00D8
:1022E00000F0010030B994F8BC0020F00200801C1E
:1022F00084F8BC00A5E1A08940F2023188425FD198
:1023000000BF0020C4F8C00000BF03226DA104F18B
:102310000800FEF75FFB6C490868FDF7E7FF86B22F
:1023200069483246016804F10800FEF753FB0222B7
:102330005BA104F10800FEF74DFB002240F20231E0
:10234000204604F081FD00BF40F22940288000BFF4
:1023500094F8C00000F0010030B994F8C000C0F358
:10236000400008B90020B6E600BF94F8C00000F0B5
:10237000010080F00100207600BF04F1B800FEF7F4
:1023800037FF0020A0814749088047490880474916
:1023900008804749088047490880474908804749DD
:1023A00008804749088094F8BC0000F0010030B96B
:1023B00094F8BC0020F00200801C84F8BC0040E1CE
:1023C000A08940F20631884262D100BF0020C4F8E3
:1023D000C00000BF3C4841696846FFF731FE092252
:1023E0003BA104F10800FEF7F5FA6846FDF77EFF11
:1023F00086B23246694604F10800FEF7EBFA022283
:1024000027A104F10800FEF7E5FA002240F20631A8
:10241000204604F019FD00BF40F23640288000BF7E
:1024200094F8C00000F0010030B994F8C000C0F387
:10243000400008B900204EE600BF94F8C00000F04C
:10244000010080F00100207600BF04F1B800FEF723
:10245000CFFE0020A081134908801349088013494A
:1024600008801349088013490880134908801349DC
:1024700008801349088094F8BC0000F0010030B9CE
:1024800094F8BC0020F00200801C84F8BC00D8E066
:1024900024E0000041542B4350494E3F000000000F
:1024A0000D0A0000580000205A0000205C000020A7
:1024B0005E00002060000020620000206400002018
:1024C0006600002041544400B01500203B0000008D
:1024D0004154443E22534D2220000000A08940F286
:1024E0000331884254D100BF0020C4F8C00000BFAF
:1024F000032257A104F10800FEF76CFA0222AFF2A2
:10250000600104F10800FEF765FA002240F2033191
:10251000204604F099FC00BF40F24140288000BFF3
:1025200094F8C00000F0010030B994F8C000C0F386
:10253000400008B90020CEE500BF94F8C00000F0CC
:10254000010080F00100207600BF04F1B800FEF722
:102550004FFE0020A0813F4908803F4908803F4945
:1025600008803F4908803F4908803F4908803F492B
:1025700008803F49088094F8BC0000F0010030B9A1
:1025800094F8BC0020F00200801C84F8BC0058E0E5
:10259000A089B0F5417F54D100BF0020C4F8C0002D
:1025A00000BF032233A104F10800FEF713FA022250
:1025B000AFF2141104F10800FEF70CFA00224FF4F8
:1025C0004171204604F040FC00BF40F24C4028809E
:1025D00000BF94F8C00000F0010030B994F8C000CA
:1025E000C0F3400008B9002075E500BF94F8C000B2
:1025F00000F0010080F00100207600BF04F1B80077
:10260000FEF7F6FD0020A0811249088012490880DB
:10261000124908801249088012490880124908802E
:10262000124908801249088094F8BC0000F00100AB
:1026300030B994F8BC0020F00200801C84F8BC0083
:1026400000BF00BF00BF00202880032043E500003A
:1026500041544100580000205A0000205C00002036
:102660005E00002060000020620000206400002066
:10267000660000204154480070B505460C46288885
:1026800018B1B0F5A86F5AD120E0A08940F20161DD
:10269000884253D100BF0020C4F8C00000BF082208
:1026A00029A104F10800FEF795F9022229A104F1FD
:1026B0000800FEF78FF9002240F20161204604F085
:1026C000C3FB00BF4FF4A860288000BF94F8C0008F
:1026D00000F0010030B994F8C000C0F3400008B920
:1026E000002070BD00BF94F8C00000F0010080F031
:1026F0000100207600BF04F1B800FEF779FD00204C
:10270000A081154908801549088015490880154998
:102710000880154908801549088015490880154921
:10272000088094F8BC0000F0010030B994F8BC00B7
:1027300020F00200801C84F8BC0000BF00BF00BF76
:10274000002028800320CCE741542B43434C4B3FCF
:10275000000000000D0A0000580000205A00002070
:102760005C0000205E00002060000020620000206D
:10277000640000206600002070B505460C462888DD
:1027800040F24232811A90427ED008DC60B1B0F54E
:102790004B7F27D0A0F23730002876D17CE00B2980
:1027A00074D01629F9D179E1A089052852D100BF4A
:1027B0000020C4F8C00000BF0222D7A104F1080025
:1027C000FEF708F90222D5A104F10800FEF702F98C
:1027D00000220421204604F037FB00BF4FF44B7069
:1027E000288000BF94F8C00000F0010030B994F8D0
:1027F000C000C0F3400008B9002070BD00BF94F8CD
:10280000C00000F0010080F00100207600BF04F15C
:10281000B800FEF7EDFC0020A081C1490880C14945
:102820000880C1490880C1490880C1490880C14960
:102830000880C1490880C149088094F8BC0000F0B4
:10284000010030B994F8BC0020F00200801C84F82C
:10285000BC005BE1A089042856D100BF0020C4F869
:10286000C00000BF0422B6A104F10800FEF7B2F8D0
:102870000222AAA104F10800FEF7ACF8002204210C
:10288000204604F0E1FA02E05CE040E1B0E000BF85
:1028900040F23730288000BF94F8C00000F00100FB
:1028A00030B994F8C000C0F3400008B90020A4E794
:1028B00000BF94F8C00000F0010080F00100207615
:1028C00000BF04F1B800FEF793FC0020A0819449FA
:1028D0000880944908809449088094490880944964
:1028E000088094490880944908809449088094F8A5
:1028F000BC0000F0010030B994F8BC0020F00200E8
:10290000801C84F8BC0001E1A089012852D100BFDD
:102910000020C4F8C00000BF11228BA104F1080000
:10292000FEF758F802227DA104F10800FEF752F8E4
:1029300000220121204604F087FA00BF40F2423015
:10294000288000BF94F8C00000F0010030B994F86E
:10295000C000C0F3400008B900204EE700BF94F863
:10296000C00000F0010080F00100207600BF04F1FB
:10297000B800FEF73DFC0020A08169490880694944
:10298000088069490880694908806949088069495F
:102990000880694908806949088094F8BC0000F003
:1029A000010030B994F8BC0020F00200801C84F8CB
:1029B000BC00ABE0A089022852D100BF0020C4F8BF
:1029C000C00000BF092265A104F10800FEF702F86B
:1029D000022252A104F10800FDF7FCFF00220221AF
:1029E000204604F031FA00BF40F24D30288000BF8D
:1029F00094F8C00000F0010030B994F8C000C0F3B2
:102A0000400008B90020F8E600BF94F8C00000F0CC
:102A1000010080F00100207600BF04F1B800FEF74D
:102A2000E7FB0020A0813E4908803E4908803E49DE
:102A300008803E4908803E4908803E4908803E495A
:102A400008803E49088094F8BC0000F0010030B9CD
:102A500094F8BC0020F00200801C84F8BC0055E013
:102A6000A089032852D100BF0020C4F8C00000BFD5
:102A700009223DA104F10800FDF7ACFF022227A1C5
:102A800004F10800FDF7A6FF00220321204604F010
:102A9000DBF900BF4FF45670288000BF94F8C000E7
:102AA00000F0010030B994F8C000C0F3400008B94C
:102AB0000020A2E600BF94F8C00000F0010080F002
:102AC0000100207600BF04F1B800FEF791FB002062
:102AD000A0811349088013490880134908801349CD
:102AE0000880134908801349088013490880134956
:102AF000088094F8BC0000F0010030B994F8BC00E4
:102B000020F00200801C84F8BC0000BF00BF00BFA2
:102B100000202880032070E6415400000D0A0000C8
:102B2000580000205A0000205C0000205E000020B9
:102B30006000002062000020640000206600002089
:102B4000415426460000000041542B434E4D493D60
:102B5000312C322C302C302C3000000041542B43CF
:102B60004D45453D3100000041542B434C43433D0E
:102B7000310000002DE9FF4105460C46FC48C668BF
:102B80001A200090288840F25762811A904278D02B
:102B900036DC40F2C352A0EB0201904272D01ADC44
:102BA00040F28252A0EB020190426CD00ADCC8B322
:102BB000A0F25450002867D015287CD0252841F079
:102BC000DF859FE10E2977D0172976D0252975D08A
:102BD0003329F4D1B8E24B2971D008DC18296FD021
:102BE00026296ED034296DD04229E8D1F5E35A293F
:102BF00069D0622968D0782967D07E29DFD1F2E3D5
:102C0000B92901F0ED811BDC652901F01D800ADC8A
:102C10001A297CD022297BD040297AD05029CED1C4
:102C200000F0A5BF31E0732901F04380872901F04E
:102C3000EE80932901F01F81A929C0D101F091B93B
:102C400040F20512881A914201F0DF830CDCC129A1
:102C500001F0E481D32901F05882EA2901F01C83B4
:102C6000F729ACD101F075BB112801F03E84202872
:102C700001F07F842F2801F0FF843E289FD101F0CE
:102C800043BDE6E395E266E133E0A089E08194F894
:102C90002000012875D094F82000052871D0A08963
:102CA000E08100BF0020C4F8C00000BF0822B1A12D
:102CB00004F108000AE0C5E0B2E1DBE10FE2EEE377
:102CC000ECE220E354E3F6E3F6E3F6E3FDF782FEFD
:102CD0000222ABA104F10800FDF77CFE002240F2C5
:102CE0003A71204604F0B0F800BF40F254502880FA
:102CF00000BF94F8C00000F0010058B994F8C0007B
:102D0000C0F3400030B9002004B0BDE8F081FDE31D
:102D1000FDE3FDE300BFE089A08194F820000128D5
:102D20002FD094F8200005282BD00B20207600BF50
:102D300004F1B800FEF75CFA0020A08191490880F8
:102D400091490880914908809149088091490880FB
:102D500091490880914908809149088094F8BC0005
:102D600000F0010030B994F8BC0020F00200801C93
:102D700084F8BC0000BF00BF002028800220C3E709
:102D8000FFE7E089A081A08940F2017188427DD1EE
:102D9000A089E08100BF0020C4F8C00000BF092264
:102DA00080A104F10800FDF715FE71490868FDF7E0
:102DB0009DFA87B26E483A46016804F10800FDF7B3
:102DC00009FE03227AA104F10800FDF703FE68481A
:102DD000406858B166494868FDF788FA87B2644888
:102DE0003A46416804F10800FDF7F4FD032270A1A2
:102DF00004F10800FDF7EEFD5D48806858B15C49BC
:102E00008868FDF773FA87B259483A46816804F139
:102E10000800FDF7DFFD012264A104F10800FDF7C1
:102E2000D9FD022256A104F10800FDF7D3FD0022CE
:102E300040F20171204604F007F800BF40F26950EB
:102E4000288000BF94F8C00000F0010030B994F869
:102E5000C000C0F3400008B9002055E700BF94F857
:102E6000C00000F0010080F001002076E089A08120
:102E700000BF04F1B800FEF7BBF90020A081414972
:102E80000880414908804149088000E017E0404936
:102E900008804049088040490880404908804049EE
:102EA000088094F8BC0000F0010030B994F8BC0030
:102EB00020F00200801C84F8BC0001F060BCA089F6
:102EC00040F20271884252D1A089E08100BF002007
:102ED000C4F8C00000BF0A2236A104F10800FDF7C3
:102EE00079FD022226A104F10800FDF773FD0022FE
:102EF00040F22271204603F0A7FF00BF40F2795054
:102F0000288000BF94F8C00000F0010030B994F8A8
:102F1000C000C0F3400008B90020F5E600BF00BFC4
:102F20000020C4F8C00000BF0A2225A104F1080057
:102F3000FDF750FD022212A104F10800FDF74AFD41
:102F4000002240F22271204603F07EFF00BF40F2D3
:102F50008250288000BF94F8C00000F00100A8BB98
:102F600094F8C000C0F3400080BB0020CCE6D0E263
:102F7000B015002041542B435245473F000000004C
:102F80000D0A0000580000205A0000205C000020BC
:102F90005E0000206000002062000020640000202D
:102FA0006600002041542B435354543D220000003E
:102FB000222C220041542B43474143543D30000012
:102FC00041542B43474143543D310000FFE700BFCC
:102FD00094F8C00000F0010080F001002076207E0F
:102FE000012800D16CE200BF0020C4F8C00000BF7F
:102FF0000A22FDA104F10800FDF7ECFC0222AFF269
:10300000800104F10800FDF7E5FC002240F2217187
:10301000204603F019FF00BF4FF4B260288000BFC4
:1030200094F8C00000F0010030B994F8C000C0F37B
:10303000400008B9002067E600BF00BF0020C4F8C8
:10304000C00000BF0A22EBA104F10800FDF7C2FC9A
:103050000222AFF2D40104F10800FDF7BBFC00220C
:1030600040F22171204603F0EFFE00BF40F299507C
:10307000288000BF94F8C00000F0010030B994F837
:10308000C000C0F3400008B900203DE600BF94F83E
:10309000C00000F0010080F001002076207E0128B1
:1030A00000D10DE200BF0020C4F8C00000BF0A221A
:1030B000D3A104F10800FDF78DFC0222AFF240110C
:1030C00004F10800FDF786FC00224FF4E46120467D
:1030D00003F0BAFE00BF40F2A750288000BF94F86A
:1030E000C00000F0010030B994F8C000C0F3400007
:1030F00008B9002008E600BF94F8C00000F0010005
:1031000080F001002076207E012800D1D8E100BFA8
:103110000020C4F8C00000BF0B22BCA104F10800CD
:10312000FDF758FC0222AFF2A81104F10800FDF7E8
:1031300051FC002240F22771204603F085FE00BFBB
:1031400040F2B550288000BF94F8C00000F00100A4
:1031500030B994F8C000C0F3400008B90020D3E5AE
:1031600000BF94F8C00000F0010080F0010020765C
:10317000207E012800D1A3E100BF0020C4F8C000D8
:1031800000BF0D22A4A104F10800FDF723FC0222D8
:10319000AFF2142104F10800FDF71CFC002240F2FC
:1031A0002C71204603F050FE00BF40F2C35028802F
:1031B00000BF94F8C00000F0010030B994F8C000DE
:1031C000C0F3400008B900209EE500BF94F8C0009D
:1031D00000F0010080F001002076207E012800D15F
:1031E0006EE100BF0020C4F8C00000BF0922AFF2AA
:1031F0004C2104F10800FDF7EDFB8B490868FDF751
:1032000075F887B288483A46016804F10800FDF76E
:10321000E1FB0322AFF2682104F10800FDF7DAFBBD
:103220008148406858B180494868FDF75FF887B227
:103230007D483A46416804F10800FDF7CBFB0322C4
:10324000AFF2942104F10800FDF7C4FB76488068D2
:1032500058B175498868FDF749F887B272483A460F
:10326000816804F10800FDF7B5FB0122AFF2C4212B
:1032700004F10800FDF7AEFB0222AFF2FC2104F1DD
:103280000800FDF7A7FB002240F22671204603F05C
:10329000DBFD00BF40F2DB50288000BF94F8C00087
:1032A00000F0010030B994F8C000C0F3400008B944
:1032B000002029E500BF94F8C00000F0010080F074
:1032C00001002076207E012800D1F9E000BF002017
:1032D000C4F8C00000BF082254A104F10800FDF7A3
:1032E00079FB0222AFF2683104F10800FDF772FBAE
:1032F000002240F22471204603F0A6FD00BF40F2F8
:10330000E950288000BF94F8C00000F0010030B9F7
:1033100094F8C000C0F3400008B90020F4E400BFF6
:1033200094F8C00000F0010080F001002076207EBB
:10333000012800D1C4E000BF0020C4F8C00000BFD5
:1033400008223DA104F10800FDF744FB0222AFF280
:10335000D03104F10800FDF73DFB002240F2257159
:10336000204603F071FD00BF40F2F750288000BFF7
:1033700094F8C00000F0010030B994F8C000C0F328
:10338000400008B90020BFE400BF94F8C00000F07E
:10339000010080F001002076207E012800D18FE01E
:1033A00000BF0020C4F8C00000BF0B2225A104F11B
:1033B0000800FDF70FFB0222AFF23C4104F10800C8
:1033C000FDF708FB002240F23271204603F03CFD7D
:1033D00000BF40F20560288000BF94F8C00000F0F4
:1033E0000100A8BB36E092E141542B4347415454BD
:1033F0003D30000041542B43474154543D310000BF
:1034000041542B43495053485554000041542B43D9
:1034100049504D55583D310041542B434950525865
:103420004745543D31000000B015002041542B4366
:10343000494943520000000041542B43494653522E
:103440000000000041542B485454505445524D0044
:1034500007E0C8E194F8C000C0F3400008B90020BC
:1034600052E400BF00BF0020C4F8C00000BF0C221F
:10347000FEA104F10800FDF7ADFA0222AFF20051FF
:1034800004F10800FDF7A6FA002240F2237120465D
:1034900003F0DAFC00BF40F20E60288000BF94F811
:1034A000C00000F0010048B994F8C000C0F340002B
:1034B00020B9002028E450E07AE00DE100BF00BF11
:1034C000E089A08100BF04F1B800FDF791FE002063
:1034D000A081EA490880EA490880EA490880EA4967
:1034E0000880EA490880EA490880EA490880EA49F0
:1034F000088094F8BC0000F0010030B994F8BC00DA
:1035000020F00200801C84F8BC00D6E42CE256E2D5
:10351000DDE2A08940F2037188427CD1A089E0817C
:1035200000BF0020C4F8C00000BF0C22DBA104F1E2
:103530000800FDF74FFA0222AFF2BC5104F1080077
:10354000FDF748FA002240F22371204603F07CFC8C
:1035500000BF40F21D60288000BF94F8C00000F05A
:10356000010030B994F8C000C0F3400008B9002051
:1035700005E400BF00BF0020C4F8C00000BF0A225D
:10358000AFF29C1104F10800FDF724FA0222AFF219
:10359000106104F10800FDF71DFA002240F22171CC
:1035A000204603F051FC00BF40F22560288000BF98
:1035B00094F8C00000F0010030B994F8C000C0F3E6
:1035C000400008B9002048E400BF94F8C00000F0B3
:1035D000010080F001002076E089A08100BF04F1A5
:1035E000B800FDF705FE0020A081A4490880A44989
:1035F0000880A4490880A4490880A4490880A449F7
:103600000880A4490880A449088094F8BC0000F010
:10361000010040B900E007E094F8BC0020F002008F
:10362000801C84F8BC0048E4A08940F229718842DB
:103630007ED1A089E0819D48416902A8FEF700FD86
:1036400000BF0020C4F8C00000BF0F2298A104F101
:103650000800FDF7BFF995494868FCF747FE87B2B7
:1036600092483A46416804F10800FDF7B3F9032295
:10367000AFF2C46104F10800FDF7ACF98B490868AA
:10368000FCF734FE87B289483A46016804F1080025
:10369000FDF7A0F902228AA104F10800FDF79AF9CA
:1036A00002A8FCF723FE87B23A4602A904F10800FB
:1036B000FDF790F90222AFF2387104F10800FDF72E
:1036C00089F9002240F22971204603F0BDFB00BFBA
:1036D00040F23B60288000BF94F8C00000F0010079
:1036E00030B994F8C000C0F3400008B9002014E4D9
:1036F00000BF94F8C00000F0010080F001002076C7
:10370000207E08BB00BF40F24160288000BF94F8D3
:10371000C000C0F3C00060B994F8C000C0F300104E
:1037200038B994F8C000C0F3401010B900201DE46F
:1037300030E000BF94F8C000C0F3C00020B100200A
:1037400030705A48C0686067E089A08100BF04F10A
:10375000B800FDF74DFD0020A08148490880484988
:1037600008804849088048490880484908804849F5
:103770000880484908804849088094F8BC0000F057
:10378000010030B994F8BC0020F00200801C84F8DD
:10379000BC00BAE6A08940F22B71884264D1A089AE
:1037A000E0814248416902A8FEF74AFC00BF0020C0
:1037B000C4F8C00000BF0D2242A104F10800FDF7CB
:1037C00009F90222AFF6480104F10800FDF702F9F9
:1037D000002240F22B71204603F036FB00BF40F27E
:1037E0005760288000BF94F8C000C0F3400030B993
:1037F00094F8C000C0F3801008B900201BE400BF9B
:10380000616F01F11600897D21F00101017094F8CA
:10381000C000C0F3801080F001002076E089A08114
:1038200000BF04F1B800FDF7E3FC0020A0811349BC
:1038300008801349088013490880134908801349F8
:10384000088013490880134908801349088094F8B8
:10385000BC0000F0010030B994F8BC0020F0020078
:10386000801C84F8BC0050E634E0000041542B5327
:10387000415042523D312C310000000058000020E0
:103880005A0000205C0000205E0000206000002044
:1038900062000020640000206600002041542B5389
:1038A000415042523D302C3100000000B015002044
:1038B00041542B43495053544152543D302C220023
:1038C000222C000041542B434950434C4F53453D5B
:1038D00030000000A08940F22A7188427ED1A08980
:1038E000E081FA48006918B10020F84909690860C8
:1038F0000320F749087000BFF448406940F2B45112
:10390000884201D9084601E0F0484069F149086061
:103910000846016802A8FEF793FB00BF0020C4F828
:10392000C00000BF0D22ECA104F10800FDF752F821
:1039300002A8FCF7DBFC87B23A4602A904F10800B2
:10394000FDF748F80222AFF6C81104F10800FDF7B0
:1039500041F8002240F22A71204603F075FA00BFB8
:1039600040F27160288000BF94F8C000C0F380006E
:1039700030B994F8C000C0F3400008B9002023E437
:1039800000BF94F8C000C0F3800040B300BF002027
:10399000C4F8C00000BFCF48008882B2CB4801689D
:1039A00004F10800FDF716F80122694604F1080049
:1039B000FDF710F800BF40F27960288000BF94F84E
:1039C000C000C00970B9C120005D00F0010048B915
:1039D00094F8C000C0F3400020B901E068E019E0AD
:1039E000002066E400BF94F8C000C00908B10020C0
:1039F00000E005202076207E98B9B448006980B1A7
:103A0000B24800690068B34909680844AF490969C8
:103A1000086006E094F8C000C0F3400008B101203F
:103A20002076207E88B90320A9490870A7484069FC
:103A3000A8490968401AA549486108460068A5498F
:103A400009680844A149086004E0A1480078401EC4
:103A50009F4908709D48406920B19D480078002822
:103A60007FF44AAFE089A08100BF04F1B800FDF700
:103A7000BFFB0020A0819C4908809C4908809C498C
:103A800008809C4908809C4908809C4908809C4982
:103A900008809C49088094F8BC0000F0010030B90F
:103AA00094F8BC0020F00200801C84F8BC002CE5D7
:103AB000A08940F22C7188427ED1A089E0812068E3
:103AC0009149086000BF40F29760288000BF2068DD
:103AD0008D490968401AB18A884201D200201DE44C
:103AE00000BF308940F2B451884201DD0846308180
:103AF00000BF0020C4F8C00000BF0E2283A104F163
:103B00000800FCF767FF317802A8FEF799FA02A8CF
:103B1000FCF7ECFB87B23A4602A904F10800FCF777
:103B200059FF01226FA104F10800FCF753FF31890E
:103B300002A8FEF785FA02A8FCF7D8FB87B23A463E
:103B400002A904F10800FCF745FF0222AFF6D031CC
:103B500004F10800FCF73EFF002240F22C712046E1
:103B600003F072F900BF40F2A760288000BF94F80C
:103B7000C00000F0010030B994F8C000C0F340006C
:103B800008B900206CE400BF94F8C00000F0010008
:103B900080F001002076207E50B97189F0680844D9
:103BA000F0604A48006918B170894849096908609D
:103BB000E089A08100BF00E022E004F1B800FDF739
:103BC00017FB0020A08148490880484908804849DF
:103BD0000880484908804849088048490880484981
:103BE00008804849088094F8BC0000F0010030B912
:103BF00094F8BC0020F00200801C84F8BC0084E42F
:103C0000A08940F2047188425FD1A089E08100BFA1
:103C10000020C4F8C00000BF0B2240A104F108003E
:103C2000FCF7D8FE0222AFF6A84104F10800FCF729
:103C3000D1FE002240F22D71204603F005F900BFAD
:103C400040F2BC60288000BF94F8C00000F0010082
:103C500030B994F8C000C0F3400008B9002029E44E
:103C600000BF94F8C00000F0010080F00100207651
:103C7000207E012800D16BE000BF0020C4F8C00006
:103C800000BF132228A104F10800FCF7A3FE0222C2
:103C9000AFF6145104F10800FCF79CFE002240F23C
:103CA0002D71204603F0D0F800BF40F2CA60288092
:103CB00000BF94F8C00000F00100F8BB94F8C00009
:103CC000C0F34000D0BB002052E467E0B0150020F4
:103CD000740000207000002041542B43495053458C
:103CE0004E443D302C000000580000205A000020B7
:103CF0005C0000205E0000206000002062000020C8
:103D000064000020660000206C00002041542B431A
:103D1000495052584745543D322C000041542B48DD
:103D2000545450494E49540041542B485454505017
:103D30004152413D22434944222C3100FFE700BF5C
:103D400094F8C00000F0010080F00100207600BF70
:103D5000E089A08100BF04F1B800FDF749FA002016
:103D6000A081FE490880FE490880FE490880FE497E
:103D70000880FE490880FE490880FE490880FE4907
:103D8000088094F8BC0000F0010030B994F8BC0041
:103D900020F00200801C84F8BC0044E4A08940F2BA
:103DA0000771884273D1A089E08100BF0020C4F868
:103DB000C00000BF0C22F1A104F10800FCF70AFECC
:103DC0009C20015902A8FEF73BF902A8FCF78EFAE5
:103DD00087B23A4602A904F10800FCF7FBFD06226F
:103DE000EAA104F10800FCF7F5FD0222AFF67061CC
:103DF00004F10800FCF7EEFD002240F22F7120468E
:103E000003F022F800BF40F2DE60288000BFC1202E
:103E1000005DC0F3800058B994F8C00000F00100C4
:103E200030B994F8C000C0F3400008B900205EE447
:103E300000BF94F8C000C0F3400088B9C120005D05
:103E4000C0F3800060B1D3A003F074FD9C20005942
:103E500082B29820015904F10800FCF7BBFD00E094
:103E600023E000BF0020C4F8C00000BF00BF40F244
:103E7000EA60288000BF94F8C00000F0010038B963
:103E800094F8C000C0F3400010B900202FE432E0E5
:103E900000BF94F8C00000F0010080F0010020761F
:103EA000207E012800D100E000BFE089A08100BF92
:103EB00004F1B800FDF79CF90020A081A749088013
:103EC000A7490880A7490880A7490880A749088012
:103ED000A7490880A7490880A749088094F8BC0032
:103EE00000F0010030B994F8BC0020F00200801C02
:103EF00084F8BC0009E2A08940F2067188427BD1B7
:103F0000A089E08100BF0020C4F8C00000BF1322D8
:103F1000A6A104F10800FCF75DFD90210859FCF70B
:103F2000E5F987B2902001593A4604F10800FCF700
:103F300051FD0122AFF68C7104F10800FCF74AFD37
:103F4000022299A104F10800FCF744FD002240F28E
:103F50002E71204602F078FF00BF4FF4E060288009
:103F600000BF94F8C00000F0010030B994F8C00020
:103F7000C0F3400008B9002040E400BF94F8C0003E
:103F800000F0010080F001002076207E012800D1A1
:103F90004DE000BF0020C4F8C00000BF0E2288A181
:103FA00004F10800FCF716FD94F88C003030C0B224
:103FB0000190012201A904F10800FCF70BFD022287
:103FC00079A104F10800FCF705FD00224FF4E66139
:103FD000204602F039FF00BF4FF4E260288000BFA6
:103FE00094F8C00000F0010038B994F8C000C0F3A4
:103FF000400010B90020C2E43FE000BF94F8C000C8
:1040000000F0010080F001002076207E012800D120
:104010000DE000BF4FF4E360288000BFC120005DC9
:10402000C0F3400008B90020A9E400BF00BFE08948
:10403000A08100BF04F1B800FDF7DAF80020A081EC
:104040004649088046490880464908804649088014
:104050004649088046490880464908804649088004
:1040600094F8BC0000F0010030B994F8BC0020F0D6
:104070000200801C84F8BC0081E3A08940F2317109
:10408000884269D1A089E08100BF0020C4F8C00047
:1040900000BF0C224EA104F10800FCF79BFCA420F9
:1040A000015902A8FDF7CCFF02A8FCF71FF987B25F
:1040B0003A4602A904F10800FCF78CFC0122AFF299
:1040C000DC3104F10800FCF785FCA820015B02A8A4
:1040D000FDF7B6FF02A8FCF709F987B23A4602A934
:1040E00004F10800FCF776FC02222FA104F108007D
:1040F000FCF770FC002240F23171204602F0A4FE71
:1041000000BF40F22A70288000BF94F8C00000F081
:10411000010030B994F8C000C0F3400008B9002095
:104120002DE400BF94F8C00000F0010080F0010011
:104130002076207E70B9A4200159AC20005901449A
:10414000A42001512648C06820B1AC200059244960
:10415000C9680860E08945E069E000005800002077
:104160005A0000205C0000205E000020600000205B
:1041700062000020640000206600002041542B48AB
:10418000545450444154413D000000002C31303023
:104190003030000053656E64696E6720616374752A
:1041A000616C2064617461210D0A000041542B4848
:1041B000545450504152413D2255524C222C220021
:1041C00041542B48545450414354494F4E3D0000F4
:1041D00041542B48545450524541443D0000000086
:1041E000B0150020A08100BF04F1B800FDF700F871
:1041F0000020A081FE490880FE490880FE49088011
:10420000FE490880FE490880FE490880FE49088072
:10421000FE49088094F8BC0000F0010030B994F821
:10422000BC0020F00200801C84F8BC00A7E2A0893A
:10423000B0F5E16F6AD1A089E08100BF0020C4F829
:10424000C00000BF1722F2A104F10800FCF7C2FB76
:1042500090210859FCF74AF887B2902001593A4654
:1042600004F10800FCF7B6FB0122EFA104F10800FD
:10427000FCF7B0FB0222AFF2D00104F10800FCF71A
:10428000A9FB002240F22E71204602F0DDFD00BFA6
:1042900040F24170288000BF94F8C00000F0010097
:1042A00030B994F8C000C0F3400008B9002016E40B
:1042B00000BF94F8C00000F0010080F001002076FB
:1042C000E089A08100BF04F1B800FCF791FF002055
:1042D000A081C7490880C7490880C7490880C749E5
:1042E0000880C7490880C7490880C7490880C7496E
:1042F000088094F8BC0000F0010030B994F8BC00CC
:1043000020F00200801C84F8BC0038E2A08940F252
:104310003271884255D100BF0020C4F8C00000BFF0
:104320000B22AFF6E06104F10800FCF753FB022218
:10433000AFF28C1104F10800FCF74CFB002240F2B4
:104340003271204602F080FD00BF40F24E7028809E
:1043500000BF94F8C00000F0010030B994F8C0002C
:10436000C0F3400008B900200CE400BF94F8C0007E
:1043700000F0010080F00100207600BF04F1B800D9
:10438000FCF736FF0020A0819949088099490880F0
:104390009949088099490880994908809949088075
:1043A000994908809949088094F8BC0000F0010000
:1043B00030B994F8BC0020F00200801C84F8BC00E6
:1043C000DDE1A08940F20971884258D1A089E081DD
:1043D00000BF0020C4F8C00000BF0B2293A104F16D
:1043E0000800FCF7F7FA0222AFF2442104F10800BA
:1043F000FCF7F0FA002240F23371204602F024FD6F
:1044000000BF40F25C70288000BF94F8C00000F04C
:10441000010030B994F8C000C0F3400008B9002092
:104420001DE400BF94F8C00000F0010080F001001E
:104430002076E089A08100BF04F1B800FCF7D8FE27
:104440000020A0816A4908806A4908806A4908807A
:104450006A4908806A4908806A4908806A49088070
:104460006A49088094F8BC0000F0010030B994F863
:10447000BC0020F00200801C84F8BC007FE1A08911
:1044800040F20B7188429BD1A089E08100BF0020DF
:10449000C4F8C00000BF0C2267A104F10800FCF7BB
:1044A00099FA69490868FBF721FF87B266483A46DE
:1044B000016804F10800FCF78DFA01225AA104F109
:1044C0000800FCF787FA0222AFF2243104F1080059
:1044D000FCF780FA002240F23471204602F0B4FC6E
:1044E00000BF40F26D70288000BF94F8C00000F05B
:1044F000010030B994F8C000C0F3400008B90020B2
:1045000095E400BF94F8C00000F0010080F00100C5
:104510002076207E012800D10BE14B48416902A89A
:10452000FDF78EFD00BF0020C4F8C00000BF0B22C5
:1045300046A104F10800FCF74DFA02A8FBF7D6FEED
:1045400087B23A4602A904F10800FCF743FA0222B6
:10455000AFF2AC3104F10800FCF73CFA002240F263
:104560003971204602F070FC00BF40F27C70288058
:1045700000BF94F8C00000F0010030B994F8C0000A
:10458000C0F3400008B9002051E400BF94F8C00017
:1045900000F0010080F001002076207E012800D18B
:1045A000C7E000BF0020C4F8C00000BF0A222AA153
:1045B00004F10800FCF70EFA23494868FBF796FE61
:1045C00087B221483A46416804F10800FCF702FA34
:1045D000012215A104F10800FCF7FCF90222AFF258
:1045E000384104F10800FCF7F5F900223AE0000038
:1045F000580000205A0000205C0000205E000020CF
:10460000600000206200002064000020660000209E
:1046100041542B48545450504152413D22434F4E37
:1046200054454E54222C22002200000041542B46B7
:1046300054504349443D310041542B465450534556
:1046400052563D2200000000B015002041542B4678
:104650005450504F52543D0041542B465450554EE7
:104660003D22000040F23571204602F0EDFB00BF14
:1046700040F28B70288000BF94F8C00000F0010069
:1046800030B994F8C000C0F3400008B9002073E4CA
:1046900000BF94F8C00000F0010080F00100207617
:1046A000207E012800D144E000BF0020C4F8C000F3
:1046B00000BF0A2235A104F10800FCF78BF9364946
:1046C0008868FBF713FE87B233483A46816804F1E5
:1046D0000800FCF77FF90122AFF2B40104F10800F1
:1046E000FCF778F90222AFF2405104F10800FCF720
:1046F00071F9002240F23671204602F0A5FB00BF9E
:1047000040F29A70288000BF94F8C00000F00100C9
:1047100030B994F8C000C0F3400008B900202BE481
:1047200000BF94F8C00000F0010080F00100207686
:1047300000BFE089A08100BF04F1B800FCF758FD7C
:104740000020A08115490880154908801549088076
:1047500015490880154908801549088015490880C1
:104760001549088094F8BC0000F0010030B994F8B5
:10477000BC0020F00200801C84F8BC0000BF00BF19
:1047800000BF00202880032035E4000041542B4660
:10479000545050573D220000B01500205800002012
:1047A0005A0000205C0000205E0000206000002015
:1047B00062000020640000206600002070B50546FD
:1047C0000C46288840F27632811A90427ED005DC71
:1047D00048B1A0F26B30002879D125E00B2977D0C1
:1047E0001629F9D12FE1A08940F20241884253D124
:1047F00000BF0020C4F8C00000BF0722B1A104F12F
:104800000800FCF7E7F80222B0A104F10800FCF769
:10481000E1F8002240F20241204602F015FB00BF01
:1048200040F26B30288000BF94F8C00000F0010017
:1048300030B994F8C000C0F3400008B9002070BD42
:1048400000BF94F8C00000F0010080F00100207665
:1048500000BF04F1B800FCF7CBFC0020A0819C490C
:1048600008809C4908809C4908809C4908809C4994
:1048700008809C4908809C4908809C49088094F8DD
:10488000BC0000F0010030B994F8BC0020F0020038
:10489000801C84F8BC000EE1A08940F201418842EE
:1048A00057D100BF0020C4F8C00000BF072290A16C
:1048B00004F10800FCF78EF8022284A104F108003C
:1048C000FCF788F8002240F2014102E009E0F3E041
:1048D00060E0204602F0B8FA00BF40F2763028804F
:1048E00000BF94F8C00000F0010030B994F8C00097
:1048F000C0F3400008B90020A1E700BF94F8C00051
:1049000000F0010080F00100207600BF04F1B80043
:10491000FCF76EFC0020A0816D4908806D4908807D
:104920006D4908806D4908806D4908806D4908808F
:104930006D4908806D49088094F8BC0000F00100C2
:1049400030B994F8BC0020F00200801C84F8BC0050
:10495000B1E0A08940F20341884253D100BF00205A
:10496000C4F8C00000BF072263A104F10800FCF7EF
:1049700031F8022255A104F10800FCF72BF80022BF
:1049800040F20341204602F05FFA00BF40F281305E
:10499000288000BF94F8C00000F0010030B994F8FE
:1049A000C000C0F3400008B9002048E700BF94F8F9
:1049B000C00000F0010080F00100207600BF04F18B
:1049C000B800FCF715FC0020A0814149088041494E
:1049D000088041490880414908804149088041498F
:1049E0000880414908804149088094F8BC0000F0E3
:1049F000010030B994F8BC0020F00200801C84F85B
:104A0000BC0058E0A08940F20541884253D100BF64
:104A10000020C4F8C00000BF072239A104F108003B
:104A2000FBF7D8FF022229A104F10800FBF7D2FF0F
:104A3000002240F20541204602F006FA00BF4FF482
:104A40006370288000BF94F8C00000F0010030B906
:104A500094F8C000C0F3400008B90020EFE600BFA2
:104A600094F8C00000F0010080F00100207600BF43
:104A700004F1B800FCF7BCFB0020A08114490880B9
:104A80001449088014490880144908801449088092
:104A900014490880144908801449088094F8BC001F
:104AA00000F0010030B994F8BC0020F00200801C36
:104AB00084F8BC0000BF00BF00BF00202880032096
:104AC000BDE6000041542B43474D49000D0A00004C
:104AD000580000205A0000205C0000205E000020EA
:104AE00060000020620000206400002066000020BA
:104AF00041542B43474D4D0041542B43474D5200E9
:104B000041542B4347534E007CB505460C4628883C
:104B100040F2F942811A90427ED008DC70B1A0F2D6
:104B2000CD4028B30D2878D01F2877D141E10D2939
:104B300075D01D2974D02B29F7D138E394F86C0077
:104B4000012851D000BF0020C4F8C00000BF0822D7
:104B5000FEA104F10800FBF73DFF0222FEA104F1D3
:104B60000800FBF737FF00BF40F2CD40288000BFB0
:104B700094F8C00000F0010030B994F8C000C0F310
:104B8000400008B900207CBD00BF94F86C000128EB
:104B90002AD00820207600BF04F1B800FCF728FBDB
:104BA0000020A081ED490880ED490880ED4908808A
:104BB000ED490880ED490880ED490880ED490880FD
:104BC000ED49088094F8BC0000F0010030B994F879
:104BD000BC0020F00200801C84F8BC0000BF00BFB5
:104BE000002028800220CEE7A08940F201518842AF
:104BF0007ED100BF0020C4F8C00000BF0822DFA1A2
:104C000004F10800FBF7E6FE0222DFA104F1080030
:104C1000FBF7E0FEDD4904E035E136E000E3CAE100
:104C20004FE20868FBF762FB86B2D848324601685B
:104C300004F10800FBF7CEFE0722D5A104F108001D
:104C4000FBF7C8FED1494868FBF750FB86B2CF4856
:104C50003246416804F10800FBF7BCFE0122CEA1F8
:104C600004F10800FBF7B6FE0222BBA104F1080024
:104C7000FBF7B0FE002240F20151204602F0E4F8BA
:104C800000BF40F2DA40288000BF94F8C00000F076
:104C9000010030B994F8C000C0F3400008B900200A
:104CA00071E700BF94F8C00000F0010080F001003F
:104CB000207600BF04F1B800FCF79AFA0020A0812A
:104CC000A6490880A6490880A6490880A649088008
:104CD000A6490880A6490880A6490880A6490880F8
:104CE00094F8BC0000F0010040B994F8BC0000E06A
:104CF00005E020F00200801C84F8BC008FE2A0894F
:104D000040F2025188427DD100BF0020C4F8C000AB
:104D100000BF9E4841696846FDF792F9082297A1B5
:104D200004F10800FBF756FE6846FBF7DFFA86B28F
:104D30003246694604F10800FBF74CFE022292A1BC
:104D400004F10800FBF746FE90490868FBF7CEFA2D
:104D500086B28E483246016804F10800FBF73AFE3D
:104D600007228BA104F10800FBF734FE874948684D
:104D7000FBF7BCFA86B285483246416804F1080068
:104D8000FBF728FE012284A104F10800FBF722FEB4
:104D9000022271A104F10800FBF71CFE002240F280
:104DA0000251204602F050F800BF40F2EC4028804B
:104DB00000BF94F8C00000F0010030B994F8C000C2
:104DC000C0F3400008B90020DDE600BF94F8C00041
:104DD00000F0010080F00100207600BF04F1B8006F
:104DE000FCF706FA0020A0815C4908805C49088035
:104DF0005C4908805C4908805C4908805C490880FF
:104E00005C4900E00FE008805B49088094F8BC0032
:104E100000F0010030B994F8BC0020F00200801CC2
:104E200084F8BC00FBE1A08940F20451884262D1C1
:104E300000BF0020C4F8C00000BF54484169684664
:104E4000FDF7FEF8082255A104F10800FBF7C2FDAA
:104E50006846FBF74BFA86B23246694604F1080011
:104E6000FBF7B8FD02223CA104F10800FBF7B2FDFC
:104E7000002240F20451204601F0E6FF00BF40F25C
:104E8000F940288000BF94F8C00000F0010030B95C
:104E900094F8C000C0F3400008B9002073E600BFDA
:104EA00094F8C00000F0010080F00100207600BFFF
:104EB00004F1B800FCF79CF90020A0812749088084
:104EC0002749088027490880274908802749088002
:104ED00027490880274908802749088094F8BC00A2
:104EE00000F0010030B994F8BC0020F00200801CF2
:104EF00084F8BC0093E1A08940F2035188427DD13F
:104F000000BF0020C4F8C00000BF204841696846C7
:104F1000FDF796F8082219A104F10800FBF75AFDE5
:104F20006846FBF7E3F986B23246694604F10800A9
:104F3000FBF750FD022208A104F10800FBF74AFD2F
:104F4000002240F2035120462EE0000041542B4342
:104F500050494E3F000000000D0A0000580000209C
:104F60005A0000205C0000205E000020600000204D
:104F700062000020640000206600002041542B43A2
:104F80005042573D000000002C220000B0150020C8
:104F9000222C3132392C22002200000041542B43B4
:104FA0005042523D0000000001F04EFF00BF40F2B1
:104FB0000650288000BF94F8C00000F0010030B90E
:104FC00094F8C000C0F3400008B90020DBE500BF42
:104FD00094F8C00000F0010080F00100207600BFCE
:104FE00004F1B800FCF704F90020A0818F49088083
:104FF0008F4908808F4908808F4900E015E00880BC
:105000008E4908808E4908808E4908808E49088024
:1050100094F8BC0000F0010030B994F8BC0020F016
:105020000200801C84F8BC00F9E0A08940F2055120
:1050300088427CD100BF0020C4F8C00000BF082215
:10504000AFF2A80104F10800FBF7C4FC7F484069F7
:105050004FF6FF7202EA10416846FCF7F1FF68461E
:10506000FBF744F986B23246694604F10800FBF7C3
:10507000B1FC012276A104F10800FBF7ABFC7348F8
:10508000406981B26846FCF7DBFF6846FBF72EF902
:1050900086B23246694604F10800FBF79BFC022207
:1050A000AFF24C1104F10800FBF794FC002240F22F
:1050B0000551204601F0C8FE00BF40F2165028807E
:1050C00000BF94F8C00000F0010030B994F8C000AF
:1050D000C0F3400008B9002055E500BF94F8C000B7
:1050E00000F0010080F00100207600BF04F1B8005C
:1050F000FCF77EF80020A0814C4908804C490880CC
:105100004C4908804C4908804C4908804C4908802B
:105110004C4908804C49088094F8BC0000F001001C
:1051200040B994F8BC0020F00200801C00E002E0CE
:1051300084F8BC0073E0A08940F2065188426ED129
:1051400000BF0020C4F8C00000BF082241A104F144
:105150000800FBF73FFC0122AFF2C41104F1080084
:10516000FBF738FC39490868FBF7C0F886B23748C6
:105170003246016804F10800FBF72CFC0122AFF273
:10518000E81104F10800FBF725FC0222AFF23821F8
:1051900004F10800FBF71EFC002240F206512046F5
:1051A00001F052FE00BF40F22450288000BF94F866
:1051B000C00000F0010030B994F8C000C0F3400016
:1051C00008B90020DFE400BF94F8C00000F001003F
:1051D00080F00100207600BF04F1B800FCF708F869
:1051E0000020A081114908801149088011490880D8
:1051F0001149088011490880114908801149088027
:105200001149088094F8BC0000F0010030B994F80E
:10521000BC0020F00200801C84F8BC0000BF00BF6E
:1052200000BF002028800320ADE4000058000020CB
:105230005A0000205C0000205E000020600000207A
:10524000620000206400002066000020B0150020ED
:105250002C00000041542B435042463D000000000A
:1052600070B505460C46288840F2C232811A904239
:105270007ED006DC60B1A0F29E30F8B1152878D15E
:10528000BCE0122976D0282975D03529F7D1BAE2A9
:1052900000BF0020C4F8C00000BF0822F8A104F13C
:1052A0000800FBF797FB0222F8A104F10800FBF7C6
:1052B00091FB00BF40F29E30288000BF94F8C000F0
:1052C00000F0010030B994F8C000C0F3400008B904
:1052D000002070BD00BF94F8C000C0F3400050B380
:1052E0000120207600BF04F1B800FBF781FF002009
:1052F000A081E7490880E7490880E7490880E74935
:105300000880E7490880E7490880E7490880E749BD
:10531000088094F8BC0000F0010030B994F8BC009B
:1053200020F00200801C84F8BC0000BF00BF0020F9
:1053300028800220CDE7A08940F2011188427DD16A
:1053400094F86C00022831D094F86C0006282DD017
:1053500000BF04F1B800FBF74BFF0020A081CC494F
:105360000880CC490880CC490880CC49088003E0FB
:1053700084E081E22AE1DBE1C9490880C94908806B
:10538000C9490880C949088094F8BC0000F00100B0
:1053900030B994F8BC0020F00200801C84F8BC00F6
:1053A00000BF00BF00202880022092E700BF00203D
:1053B000C4F8C00000BF0822BDA104F10800FBF73B
:1053C00009FBBE490868FAF791FF86B2BB4832462E
:1053D000016804F10800FBF7FDFA0222ABA104F119
:1053E0000800FBF7F7FA002240F20111204601F015
:1053F0002BFD00BF40F2B330288000BF94F8C000FE
:1054000000F0010030B994F8C000C0F3400008B9C2
:1054100000205EE700BF94F8C00000F0010050B12A
:1054200014F8BC0F20F00400001D2070207820F03C
:10543000080004F8BC0994F8C00000E057E0C0F38D
:10544000400050B114F8BC0F20F004002070207808
:1054500020F00800083004F8BC0994F8C00000F0FF
:10546000010080F001002076207EE0B92068944998
:10547000086000BF40F2C230288000BFC120005D3C
:10548000C0F3C00020B1C120005DC0F3001048B9D6
:1054900020688B490968401A41F28831884201D856
:1054A000002016E700BF00BF04F1B800FBF7A0FE24
:1054B0000020A081764908807649088076490880D6
:1054C00076490880764908807649088076490880C0
:1054D0007649088094F8BC0000F0010030B994F8D7
:1054E000BC0020F00200801C84F8BC00C3E1A0894D
:1054F000B0F5817F76D194F86C0003282CD094F815
:105500006C00072828D000BF04F1B800FBF770FE3C
:105510000020A0815E4908805E4908805E490880BD
:105520005E4908805E4908805E4908805E490880BF
:105530005E49088094F8BC0000F0010030B994F88E
:10554000BC0020F00200801C84F8BC0000BF00BF3B
:10555000002028800220BCE600BF0020C4F8C00064
:1055600000BF082252A104F10800FBF733FA5349A7
:105570000868FAF7BBFE86B250483246016804F16B
:105580000800FBF727FA01224EA104F10800FBF7FF
:1055900021FA4A494868FAF7A9FE86B247483246D6
:1055A000416804F10800FBF715FA022237A104F163
:1055B0000800FBF70FFA00224FF48171204601F03A
:1055C00043FC00BF4FF47570288000BF94F8C00002
:1055D00000F0010038B994F8C000C0F3400010B9E1
:1055E000002076E670E000BF94F8C00000F00100F3
:1055F00050B114F8BC0F20F010001030207020784B
:1056000020F0200004F8BC0994F8C000C0F340006A
:1056100050B114F8BC0F20F010002070207820F05A
:105620002000203004F8BC0994F8C00000F001000C
:1056300080F00100207600BF04F1B800FBF7D8FD30
:105640000020A08112490880124908801249088070
:1056500012490880124908801249088012490880BE
:105660001249088094F8BC0000F0010030B994F8A9
:10567000BC0020F00200801C84F8BC00FBE00000AD
:1056800041542B4350494E3F000000000D0A0000DA
:10569000580000205A0000205C0000205E0000201E
:1056A00060000020620000206400002066000020EE
:1056B00041542B4350494E3D00000000B0150020DE
:1056C000680000202C000000A08940F203118842ED
:1056D00066D100BF0020C4F8C00000BF102269A13D
:1056E00004F10800FBF776F96B490868FAF7FEFD4C
:1056F00086B269483246016804F10800FBF76AF98E
:10570000012266A104F10800FBF764F90222AFF25E
:10571000840104F10800FBF75DF9002240F2031157
:10572000204601F091FB00BF40F2EA30288000BF24
:1057300094F8C00000F0010030B994F8C000C0F344
:10574000400008B90020C4E500BF94F8C00000F094
:10575000010080F00100207600BF04F1B800FBF7E3
:1057600047FD0020A0814E4908804E4908804E49DF
:1057700008804E4908804E4908804E4908804E49AD
:1057800008804E49088094F8BC0000F0010030B950
:1057900094F8BC0020F00200801C84F8BC006AE091
:1057A000A089B0F5827F66D100BF0020C4F8C00098
:1057B00000BF102242A104F10800FBF70BF93649A3
:1057C0000868FAF793FD86B233483246016804F15F
:1057D0000800FBF7FFF8012230A104F10800FBF7F5
:1057E000F9F80222AFF25C1104F10800FBF7F2F8BD
:1057F00000224FF48271204601F026FB00BF40F2E8
:10580000F730288000BF94F8C00000F0010030B9E4
:1058100094F8C000C0F3400008B9002059E500BF6B
:1058200094F8C00000F0010080F00100207600BF75
:1058300004F1B800FBF7DCFC0020A08118490880C7
:1058400018490880184908801849088018490880B4
:1058500018490880184908801849088094F8BC0045
:1058600000F0010030B994F8BC0020F00200801C68
:1058700084F8BC0000BF00BF00BF002028800320C8
:1058800027E5000041542B434C434B3D2253432218
:105890002C302C2200000000B01500202200000057
:1058A000580000205A0000205C0000205E0000200C
:1058B00060000020620000206400002066000020DC
:1058C00041542B434C434B3D225343222C312C2239
:1058D00000000000FEB505460C461A200290FD4867
:1058E000C6682888B0F5906F7ED008DC90B1A0F231
:1058F0005C4048B3092878D01C2877D1FDE0A0F29D
:105900009640002873D00E2872D01C2871D0292808
:10591000F3D121E394F86C00012851D000BF00209E
:10592000C4F8C00000BF0822EBA104F10800FBF797
:1059300051F80222EBA104F10800FBF74BF800BF7D
:1059400040F25C40288000BF94F8C00000F00100E5
:1059500030B994F8C000C0F3400008B90020FEBD83
:1059600000BF94F86C0001282AD00820207600BFE0
:1059700004F1B800FBF73CFC0020A081DA49088064
:10598000DA490880DA490880DA490880DA4908806B
:10599000DA490880DA490880DA49088094F8BC00BE
:1059A00000F0010030B994F8BC0020F00200801C27
:1059B00084F8BC0000BF00BF002028800220CEE792
:1059C000A089E08100BF0020C4F8C00000BF092208
:1059D000CDA104F10800FAF7FDFF0222C1A104F1F4
:1059E0000800FAF7F7FF05E0B3E00EE0EDE23AE178
:1059F000D5E145E200224FF40471204601F024FA7B
:105A000000BF40F26540288000BF94F8C00000F05D
:105A1000010030B994F8C000C0F3400008B900207C
:105A20009DE700BFE089A08194F8C000C0F340006A
:105A300088B394F8BC0020F08000803084F8BC006B
:105A40000920207600BF04F1B800FBF7D1FB00204D
:105A5000A081A5490880A5490880A5490880A549D5
:105A60000880A5490880A5490880A5490880A5495E
:105A7000088094F8BC0000F0010030B994F8BC0034
:105A800020F00200801C84F8BC0000BF00BF002092
:105A90002880022063E7FFE7A08940F201218842C5
:105AA00072D100BF0020C4F8C00000BF092299A134
:105AB00004F10800FAF78EFF606AFAF717FC87B264
:105AC000616A3A4604F10800FAF784FF012293A1C3
:105AD00004F10800FAF77EFF022282A104F1080017
