:020000040800F2
:1000000028E7002069020008812100087921000802
:100010007D210008CB050008C17A0008000000001F
:10002000000000000000000000000000AD0100081A
:10003000D10600080000000001020008B96F0008A6
:10004000830200088302000883020008830200087C
:10005000830200088302000883020008830200086C
:10006000830200088302000883020008D10500080B
:10007000E1050008F1050008010600081106000866
:100080002106000831060008830200080000000075
:1000900000000000000000000000000083020008D3
:1000A000830200088302000883020008830200081C
:1000B000830200088302000883020008830200080C
:1000C00083020008830200088302000883020008FC
:1000D00083020008457A0008697A000800000000E1
:1000E0008302000883020008830200080000000069
:1000F00000000000000000000000000041060008B1
:100100000000000083020008830200088302000848
:1001100000000000000000000000000000000000DF
:1001200051060008610600087106000881060008F3
:100130009106000800000000000000000000000020
:100140000000000000000000000000008302000822
:10015000A1060008B1060008C1060008957A00084B
:100160008302000883020008000000000000000075
:10017000000000000000000000000000000000007F
:1001800000000000830200080000000000000000E2
:100190008302000883020008DFF80CD000F00CF99D
:1001A000004800473D7D000828E700202B4B1968D8
:1001B0000868B0E8F04F80F30988BFF36F8F4FF005
:1001C000000080F3118870470000000006480068B6
:1001D000006880F3088862B661B6BFF34F8FBFF343
:1001E0006F8F00DF00BF00BF08ED00E0DFF80C00FC
:1001F000016841F470010160704700BF88ED00E0C4
:10020000EFF30980BFF36F8F144B1A681EF0100FC5
:1002100008BF20ED108A20E9F04F106008B44FF0BD
:10022000500080F31188BFF34F8FBFF36F8F08F03A
:10023000F3FA4FF0000080F3118808BC19680868D1
:10024000B0E8F04F1EF0100F08BFB0EC108A80F33A
:100250000988BFF36F8F704700BF00BFC400002044
:10026000EFF30580704700000648804706480047C6
:10027000FEE7FEE7FEE7FEE7FEE7FEE7FEE7FEE756
:10028000FEE7FEE7C16F00089901000840EA01039C
:100290009B0703D009E008C9121F08C0042AFAD23C
:1002A00003E011F8013B00F8013B521EF9D2704700
:1002B000D2B201E000F8012B491EFBD270470022A8
:1002C000F6E710B513460A4604461946FFF7F0FF55
:1002D000204610BD10B5044604E00B7800F8013B41
:1002E00003B1491C521EF8D2204610BD421C10F822
:1002F000011B0029FBD1801A704710B5002200E0D5
:10030000521C835C8C5CA34201D1002BF8D1D8B283
:10031000E1B2401A10BD034611F8012B00F8012B81
:10032000002AF9D11846704730B50546002003462B
:1003300000E05B1C934205D2EC5CC85C201A01D142
:10034000002CF6D130BD000070B500B91068002552
:1003500012E00B4602E0A64203D05B1C1C78002C86
:10036000F9D1E3B22B4305D02CB125B1002100F81F
:10037000011B04E00546401C0678002EE9D1106000
:10038000284670BD004ADFE72001002030B50B464B
:10039000014600202022012409E021FA02F59D42B5
:1003A00005D303FA02F5491B04FA02F52844151E89
:1003B000A2F10102F1DC30BD064C074D06E0E06819
:1003C00040F0010394E8070098471034AC42F6D39C
:1003D000FFF7E6FEE89100080892000870B58C1857
:1003E00010F8015B15F0070301D110F8013B2A1149
:1003F00006D110F8012B03E010F8016B01F8016B36
:100400005B1EF9D12B0705D40023521E0DD401F831
:10041000013BFAE710F8013BCB1A921C03E013F8FA
:10042000015B01F8015B521EF9D5A142D8D300202F
:1004300070BD30B50146002409B9002030BD4A68BE
:100440008B689A4200D10C68934200D99C1A9A4258
:1004500002D9D51A0868441B601EEFE730B5034681
:100460000BB9002030BD59689A68914200D1002430
:10047000914200D98C1A8A4202D9551A1868441B35
:100480002046EFE770B504460D4616460CB901202C
:1004900070BD18212046FFF712FF2560E6600A2094
:1004A0006074E06868B9284607F0A0FCE060E06886
:1004B00018B9002020600120EAE7207C40F002000B
:1004C0002074207C40F0010020740020E0E72DE93A
:1004D000F0470446884615464FF0000904B115B9A7
:1004E0000020BDE8F0872168A068884201D3002081
:1004F000A0602046FFF7B2FF0746AF4203D20FB914
:100500000020EEE73D46A1682068461AAE4200D9B9
:100510002E46D4E90220811832464046FFF7B6FE47
:10052000B144A0683044A060AD1B35B108EB0900B0
:100530002A46E168FFF7AAFEA5602168A068884204
:1005400001D30020A06009EB0500CAE72DE9F047C0
:100550000446894615464FF0000804B115B900203D
:10056000BDE8F087D4E90010884201D30020606024
:100570002046FFF75EFF0746AF4203D20FB90020C7
:10058000EEE73D46D4E90001461AAE4200D92E46B8
:100590006268E168881832464946FFF777FEB04442
:1005A000606830446060AD1B35B109EB08012A4634
:1005B000E068FFF76BFE6560D4E90010884201D364
:1005C0000020606008EB0500CAE700BFFEE70000FE
:1005D00010B5024806F011FE10BD00001060024088
:1005E00010B5024806F009FE10BD00002860024068
:1005F00010B5024806F001FE10BD00004060024048
:1006000010B5024806F0F9FD10BD00005860024028
:1006100010B5024806F0F1FD10BD00007060024008
:1006200010B5024806F0E9FD10BD000088600240E8
:1006300010B5024806F0E1FD10BD0000A0600240C8
:1006400010B5024806F0D9FD10BD0000B8600240A8
:1006500010B5024806F0D1FD10BD00001064024044
:1006600010B5024806F0C9FD10BD00002864024024
:1006700010B5024806F0C1FD10BD00004064024004
:1006800010B5024806F0B9FD10BD000058640240E4
:1006900010B5024806F0B1FD10BD000070640240C4
:1006A00010B5024806F0A9FD10BD000088640240A4
:1006B00010B5024806F0A1FD10BD0000A064024084
:1006C00010B5024806F099FD10BD0000B864024064
:1006D00070477047704770477047000070B5044618
:1006E0000D46034E2A4621463046FFF72FFF70BDC8
:1006F0008407002008B502461068009000BF10680B
:10070000009BC01A8842FAD300BF0020107108BDB8
:100710002DE9F04104460F4615461E46DDF81880C7
:1007200000BF27B900BF03202071BDE8F08100BFE2
:1007300000BFA08920B994F8BC00C0F3400018B1F4
:1007400000BF02202071F0E700BF00BF04F1B80035
:1007500000F01AFE08B10420E7E7A08908B9206874
:10076000606140F20270A08100BF1B48076000205A
:100770001949486088602DB12846FFF7B7FD08B1D8
:10078000154845602EB13046FFF7B0FD08B112485C
:10079000866000BFB8F1000F09D194F8BC0020F0CA
:1007A000010084F8BC0000BF00202071BDE794F870
:1007B000BC0020F00100401C84F8BC000749204622
:1007C00000F062FF0346042B00D1AEE7237E002039
:1007D00020761846A9E70000200A002020BF02006A
:1007E00070B504460D4600BFA08920B994F8BC003E
:1007F000C0F3400018B100BF0220207170BD00BFDF
:1008000000BF04F1B80000F0BFFD08B10420F5E717
:10081000A08908B92068606140F20370A08100BF20
:1008200000BF4DB994F8BC0020F0010084F8BC0072
:1008300000BF00202071E1E794F8BC0020F0010027
:10084000401C84F8BC004FF47A71204600F01CFF75
:100850000346042B00D1D1E7237E002020761846E2
:10086000CCE770B504460D4600BFA08920B994F8C6
:10087000BC00C0F3400018B100BF0220207170BD61
:1008800000BF00BF04F1B80000F07EFD08B10420F5
:10089000F5E7A08908B92068606140F20470A08182
:1008A00000BF282104F18C00FFF709FD00BF4DB9FE
:1008B00094F8BC0020F0010084F8BC0000BF0020C8
:1008C0002071DCE794F8BC0020F00100401C84F8A3
:1008D000BC004FF47A71204600F0D6FE0346042B8C
:1008E00000D1CCE7237E002020761846C7E70246D9
:1008F000A0208358A4208058181A704770B5044669
:100900000D4600BFA08920B994F8BC00C0F3400098
:1009100018B100BF0220207170BD00BF00BF04F1FC
:10092000B80000F031FD08B10420F5E7A08908B94E
:100930002068606140F23270A08100BF00BF4DB9F5
:1009400094F8BC0020F0010084F8BC0000BF002037
:100950002071E1E794F8BC0020F00100401C84F80D
:10096000BC004FF47A71204600F08EFE0346042B43
:1009700000D1D1E7237E002020761846CCE72DE970
:10098000F04104460D4616461F4600BF25B900BF7C
:1009900003202071BDE8F08100BF00BFA08920B90D
:1009A00094F8BC00C0F3400018B100BF02202071D1
:1009B000F0E700BF00BF04F1B80000F0E5FC08B1AB
:1009C0000420E7E7A08908B92068606140F206705A
:1009D000A08100BF0021AC200151B0200151A42012
:1009E0000151A0200151A82001539020055184F805
:1009F0008C6000BF4FB994F8BC0020F0010084F86F
:100A0000BC0000BF00202071C4E794F8BC0020F0B7
:100A10000100401C84F8BC004FF47A71204600F0BD
:100A200033FE0346042B00D1B4E7237E002020765A
:100A30001846AFE72DE9F04104460F4615461E461D
:100A4000DDF8188000BF07B125B900BF0320207171
:100A5000BDE8F08100BF00BFA08920B994F8BC00B8
:100A6000C0F3400018B100BF02202071F0E700BFC2
:100A700000BF04F1B80000F087FC08B10420E7E7EC
:100A8000A08908B92068606140F23170A08100BF80
:100A9000982007519C200551A82005531348C66093
:100AA0000EB10020306000BFB8F1000F09D194F8FA
:100AB000BC0020F0010084F8BC0000BF00202071C1
:100AC000C6E794F8BC0020F00100401C84F8BC008C
:100AD0004FF47A71204600F0D7FD0346042B00D175
:100AE000B6E7237E002020761846B1E7200A0020D2
:100AF0002DE9F04104460D4616461F4600BF05B1DC
:100B000026B900BF03202071BDE8F08100BF00BFFF
:100B1000A08920B994F8BC00C0F3400018B100BF10
:100B200002202071F0E700BF00BF04F1B80000F020
:100B30002BFC08B10420E7E7A08908B920686061B0
:100B400040F20770A08100BF982005519C200651FB
:100B500000BF4FB994F8BC0020F0010084F8BC003D
:100B600000BF00202071CFE794F8BC0020F0010006
:100B7000401C84F8BC004FF47A71204600F084FDDC
:100B80000346042B00D1BFE7237E002020761846C1
:100B9000BAE700002DE9F04105460E46174632241B
:100BA000DFF89C82A7480560C4210068FFF787FB37
:100BB0000020A449096881F86C000621A14800685A
:100BC00080F8441000209F49096808609E4A4FF44D
:100BD00000714046FFF756FC9A48006887609948C4
:100BE0000068083000F042F930B100BF0720954995
:100BF00009680871BDE8F081012192480068083059
:100C000000F064F90A218F480068FFF773FD0021A6
:100C10008C480068083000F059F98A480068B830FC
:100C200000F094FB28B100BF0620864909680871CE
:100C3000E0E70020854908808549088085490880CB
:100C4000854908808549088085490880854908804C
:100C50007C48006890F8BC0020F00100401C7949F5
:100C6000096881F8BC004FF47A7076490968C86158
:100C700000BF00BF73480068B83000F085FB08B1C2
:100C80000420B7E76F480068808928B96D4800687C
:100C900000686C490968486105206A4909688881CB
:100CA00000BF4FF47A716748006800F0EDFC6548BA
:100CB0000068007E00B903E0201EA4F10104D8D131
:100CC00000BF00BF00BF5F480068B83000F05CFBA9
:100CD00008B104208EE75B480068808928B959482C
:100CE0000068006857490968486104205549096847
:100CF000888100BF4FF47A715248006800F0C4FC4C
:100D000050480068007E00B903E0201EA4F10104F1
:100D1000D8D100BF00BF00BF4A480068B83000F01B
:100D200033FB08B1042065E746480068808928B98C
:100D30004448006800684349096848610220414905
:100D40000968888100BF4FF47A713E48006800F05E
:100D50009BFC3C480068007E00B903E0201EA4F123
:100D60000104D8D100BF00BF00BF36480068B830CA
:100D700000F00AFB08B104203CE732480068808993
:100D800028B93048006800682E4909684861032086
:100D90002C490968888100BF4FF47A71294800689E
:100DA00000F072FC27480068007E00B903E0201EB6
:100DB000A4F10104D8D100BF00BF2B48066000BFDA
:100DC00020480068B83000F0DFFA08B1042011E7CD
:100DD0001C480068808928B91A48006800681949C9
:100DE0000968486140F2011016490968888100BF0E
:100DF0004FF47A711348006800F046FC114800680F
:100E0000007E00B908E064210E480068FFF772FC1C
:100E1000201EA4F10104D0D100BF0A48006890F858
:100E2000BC0020F001000749096881F8BC0000BF40
:100E300004480068007E287102480068007ED9E6F8
:100E400084070020A00000209C070020A4000020B0
:100E5000A6000020A8000020AC000020AA0000206E
:100E6000B0000020B2000020200A00201CB504467B
:100E700000210D48226806F083FC00200121034672
:100E80000A46CDE900100221084806F065FA002064
:100E9000012103460A46CDE900100821034806F067
:100EA0005BFA00201CBD0000001001400000024061
:100EB00070B506460C4615462A462146024806F0FD
:100EC00098FC002070BD000000100140024601297E
:100ED00003D14804034B986102E00220014B986162
:100EE000002070470000024008B500244FF4E132B2
:100EF0006CA16E48FFF74EFE054629466CA006F031
:100F0000E1FDCDE0694800F0CBF906F0F9F80028E2
:100F1000F7D0012064A364A26BA100906348FFF79F
:100F2000F7FB6C490870002872D16BA006F0CAFD6F
:100F300001215E48FFF795FC66490870002868D1DA
:100F400069A006F0BFFD002C32D0012300226AA167
:100F50005648FFF714FD5F490870002822D11AE0B7
:100F60000120714B4FF47A72704900904F48FFF79F
:100F700061FD5849087038B94FF47A726A480168BF
:100F80006BA006F09FFD06E0524802784FF47A719C
:100F900071A006F097FD01214448FFF7A8FC002846
:100FA000DED158E04B48017876A006F08BFD52E088
:100FB00001233F227E493D48FFF79AFD45490870CD
:100FC000002843D101231A464BA13848FFF7D7FC2C
:100FD00040490870002833D12BE00120524B4FF4D8
:100FE0007A72524900903148FFF724FD3949087060
:100FF000002817D14FF47A724B4801684CA006F0D4
:1010000061FD3F226A494948FFF78EF930B901E096
:101010003CE025E067A006F055FD0AE06FA006F071
:1010200051FD06E02B4802784FF47A714AA006F091
:1010300049FD01211D48FFF75AFC0028CDD10AE0E7
:10104000244801784FA006F03DFD04E021480178D6
:101050006BA006F037FD01211448FFF74FFC04E0B8
:101060001C4801786FA006F02DFD01210F48FFF705
:10107000B7FB1849087018B973A006F023FD0AE001
:101080001448017874A006F01DFD04E011480178B1
:101090007BA006F017FD0CB9012000E000200446FB
:1010A00030E7000031323334000000000402002039
:1010B00047534D20496E6974207374617475733A97
:1010C0002025640D0A000000696E7465726E6574F7
:1010D0000000000048000020475052532041747423
:1010E00061636865640D0A00485454502042656786
:1010F000696E204F4B0D0A00687474703A2F2F737D
:10110000746D333266342D646973636F76657279FA
:101110002E6E65742F67736D5F6578616D706C6599
:101120002E70687000000000500000209C0300201A
:101130005375636365737366756C6C792072656152
:10114000642025642F2564206279746573206F669E
:1011500020646174610D0A004572726F72207472AE
:1011600079696E6720746F20726561642025642040
:101170006279746573206F6620646174613A20251A
:10118000640D0A00436F756C64206E6F742065787F
:101190006563757465207265717565737420746F0D
:1011A000207365727665723A2025640D0A0000008E
:1011B00054000020526563656976656420616E6441
:1011C0002073656E7420646174612061726520749F
:1011D00068652073616D65210D0A000052656365C5
:1011E00069766564206973206E6F74207468652069
:1011F00073616D652061732073656E74210D0A0043
:101200004572726F7220747279696E6720746F20F4
:1012100073657420504F535420646174613A2025E3
:10122000640D0A0050726F626C656D732074727980
:10123000696E6720746F20626567696E2048545438
:10124000503A2025640D0A004750525320446574DB
:1012500061636865640D0A0050726F626C656D733E
:1012600020747279696E6720746F2064657461639D
:101270006820475052533A2025640D0A00000000B0
:10128000436F756C64206E6F742061747461636861
:1012900020746F20475052533A2025640D0A0000F5
:1012A00010B50446A08968B994F8BC00C0F34000AA
:1012B00040B194F8BC0020F0020084F8BC00204645
:1012C000FFF709FAA08990B994F8BC00C0F3400078
:1012D00068B9BD20005DC0F3800040B1BD20005D55
:1012E00020F00401BD2001552046FFF7F2F9A08946
:1012F00090B994F8BC00C0F3400068B9BD20005D0F
:10130000C0F3C00040B1BD20005D20F00801BD2049
:1013100001552046FFF7DEF9A08990B994F8BC008A
:10132000C0F3400068B9BD20005DC0F3400040B18B
:10133000BD20005D20F00201BD2001552046FFF7D1
:10134000CBF900BF0020207110BD000010B504468D
:10135000204606F086FD044908600846006808B982
:10136000012010BD0020FCE7C000002010B504469D
:101370000448006806F07CFD08B1012010BD002083
:10138000FCE70000C000002010B504464FF47A715D
:101390000448006806F094FD08B1012010BD00204B
:1013A000FCE70000C0000020F8B50446A94D4FF44A
:1013B000FA76A08960B120686169401AE1698842C3
:1013C00006D994F8C00020F00200801C84F8C00008
:1013D00032E1A08940F2317188421FD1BD20005D09
:1013E000C0F38010D0B19DF80030AC210859411CE9
:1013F000AC221151982109590B54B0200059401EBC
:10140000B0210851B0200059002806D1BD20005D50
:1014100020F04001BD200155002605E1A08940F2E1
:101420002C7188421ED1BD20005DC0F34010C8B1B0
:101430008949C8689DF800204389591C4181416849
:10144000CA54018A491E0182018A51B9BD21095D30
:1014500021F02002BD210A55817D21F00201817514
:101460000026E1E0A08940F20221884240D1BD205F
:10147000005D00F00100D0B37749C86890F8A31070
:101480009F2909D29DF8002010F8A33F0178491C3C
:1014900000F8A319C11CCA549DF800100A2925D1CF
:1014A0006E4909780D2921D190F8A31002291DDB7E
:1014B00090F8A310891EC21C515C0D290AD190F826
:1014C000A310491E515C0A2904D190F8A310891E6B
:1014D00080F8A310002290F8A330C11CCA54BD218B
:1014E000095D21F00102BD210A5500269CE0FFE7BD
:1014F000A08940F20521884250D1BD20005D00F056
:10150000010000284AD054480069008852494969BE
:10151000884233D25049C8689DF8002010F8A33F94
:101520000178491C00F8A319C11CCA549DF8001089
:101530000A2922D1494909780D291ED190F8A31012
:1015400002291ADB10F8A31F891E0170002210F86F
:10155000A339C11CCA544049C968D4313E4AD1603C
:10156000114609690988491C12691180BD21095D6C
:1015700021F00102BD210A55002655E09DF800002A
:101580000A2851D1354800780D284DD1BD20005D85
:1015900020F00101BD200155002645E09DF8000026
:1015A0000A281BD100BF9DF800102D480278007852
:1015B000401C2B4B1870581C81540021401E02788F
:1015C000401C815400BF411E204605F079F800BF41
:1015D000002023490870487000BF24E09DF80000F7
:1015E00020280ED11D4800783E280AD11D480078D9
:1015F0000A2806D194F8C00020F00400001D84F8E9
:10160000C00000BF9DF80010154802780078401C0B
:10161000134B1870581C81540021401E0278401C46
:10162000815400BF00BF00BF0C4800780D4908700E
:101630009DF80000094908703EB10122694628461C
:10164000FEF745FF00287FF4C4AE204605F038FCC5
:10165000F8BD000084070020200A0020BC00002004
:101660009D090020BD00002002461068084410605B
:1016700000BF00201071704702E00248FFF794FE9F
:10168000FBE70000040200200246D16100BF908900
:101690000028FCD192F8BC00C0F340000028F6D12D
:1016A00000BF107E1071107E704700000148006876
:1016B000704700000400002010B52E480068401C50
:1016C0002C4908602C48006820B12B480068401E57
:1016D00029490860002444E0284850F824000028E4
:1016E0003DD0264850F824000078C0F34000B0B345
:1016F000224850F82400806840B1204850F8240067
:101700008068401E1D4951F8241088601B4850F81D
:101710002400806818BB194B53F824301969174B03
:1017200053F8240053F82430DA689047134850F8EF
:1017300024004168114850F8240081600F4850F897
:101740002400007800F0010048B90C4850F824004B
:10175000007820F00201094850F824000170601C54
:10176000C4B20648001F0078A042B5DC05F08CFC2E
:1017700010BD0000040000200000002050010020E7
:1017800010B50D48006840F400700B490860084629
:10179000006840F4806008600846006840F480708B
:1017A0000860032000F086F80F2000F007F800F032
:1017B00017F8002010BD0000003C024070B5044640
:1017C00000F0E4F94FF47A71B0FBF1F5284600F02F
:1017D00081FC00222146501E00F02DF8002070BD33
:1017E0007047000000BF00F01F0201219140034A32
:1017F000430942F8231000BF7047000080E200E078
:1018000000BF00F01F0201219140034A430942F842
:10181000231000BF7047000080E100E000BF00F02F
:101820001F02012191404209920002F1E022C2F818
:10183000001100BF70472DE9F05F80460D46164647
:10184000002700F09FFC074639462A46334601F040
:101850000700C0F1070ABAF1040F02D94FF0040AD9
:1018600001E0C0F1070AD14600F1040ABAF1070FFE
:1018700002D24FF0000A01E0A0F1030AD4464FF073
:10188000010A0AFA09FAAAF1010A0AEA020A0AFA9C
:101890000CFA4FF0010B0BFA0CFBABF1010B0BEA4E
:1018A000030B4AEA0B042146404600F073FCBDE8F6
:1018B000F09F000000BF00F00702064B19684FF6CA
:1018C000FF031940044B0B4343EA0221014B19600B
:1018D00000BF70470CED00E00000FA0570B504464B
:1018E0000E460025A748006800F00F00B0426FD2F6
:1018F000A4490E700846006800F00F00B04201D005
:10190000012070BD207800F00200022807D19E4817
:10191000006820F0F000A16808439B490860207827
:1019200000F0010000283ED06068012807D19648E9
:1019300008380068C0F34040B8B90120E1E76068AA
:10194000022802D06068032807D18F480838006851
:10195000C0F3406048B90120D3E78B4808380068DD
:10196000C0F3400008B90120CBE78748006820F0A9
:1019700003006168084384490860FFF797FE054645
:101980006068012810D108E0FFF790FE401B41F28B
:101990008831884201D90320B3E77B48006800F012
:1019A0000C000428F0D1CDE06068022811D108E0D5
:1019B000FFF77CFE401B41F28831884201D90320A9
:1019C0009FE77148006800F00C000828F0D1B9E0EA
:1019D00024E06068032810D108E0FFF767FE401B91
:1019E00041F28831884201D903208AE766480068BD
:1019F00000F00C000328F0D1A4E008E0FFF756FE49
:101A0000401B41F28831884201D9032079E75E48C2
:101A1000006800F00C000028F0D193E0207800F07E
:101A20000200022807D15848006820F0F000A168A1
:101A3000084355490860207800F00100002877D05D
:101A40006068012807D1504808380068C0F340405A
:101A5000B8B9012055E76068022802D06068032801
:101A600007D1494808380068C0F3406048B90120F0
:101A700047E7454808380068C0F3400008B901202E
:101A80003FE74148006820F00300616808433E4991
:101A90000860FFF70BFE05466068012810D108E0DA
:101AA000FFF704FE401B41F28831884201D9032030
:101AB00027E73548006800F00C000428F0D137E033
:101AC0006068022810D108E0FFF7F0FD401B41F2EA
:101AD0008831884201D9032013E72B48006800F0C1
:101AE0000C000828F0D123E06068032810D108E03A
:101AF000FFF7DCFD401B41F28831884201D9032009
:101B0000FFE62148006800F00C000328F0D10FE048
:101B100008E0FFF7CBFD401B41F28831884201D934
:101B20000320EEE61848006800F00C000028F0D111
:101B300014490E700846006800F00F00B04201D052
:101B40000120DEE6207800F00400042807D10E48CA
:101B5000006820F4E050E16808430B4908602078F1
:101B600000F00800082808D10748006820F4604009
:101B7000216940EAC100044908600F20FFF71EFEFA
:101B80000020BEE6003C02400838024010B500F0DC
:101B900045F80949096801F0F001F02292FAA2F231
:101BA000B2FA82F2D140054A515CC840044908604B
:101BB0000846006810BD0000083802408491000803
:101BC0009C00002010B5FFF7E1FF0749096801F408
:101BD000E0514FF4E05292FAA2F2B2FA82F2D1400E
:101BE000024A515CC84010BD083802408491000888
:101BF00010B5FFF7CBFF0749096801F460414FF4C6
:101C0000604292FAA2F2B2FA82F2D140024A515CE8
:101C1000C84010BD083802408491000870B500210A
:101C2000002200230020274C246804F00C0424B177
:101C3000042C04D0082C41D103E0234840E0234881
:101C40003EE0204C241F246804F03F011D4C241F5B
:101C5000246804F4800484B11C4CB4FBF1F5194CE5
:101C6000241F246847F6C076344096FAA6F6B6FAE2
:101C700086F6F44005FB04F20FE0134CB4FBF1F5DB
:101C8000104C241F246847F6C076344096FAA6F616
:101C9000B6FA86F6F44005FB04F20A4C241F2468C9
:101CA00004F440344FF4403595FAA5F5B5FA85F5BE
:101CB000EC40641C6300B2FBF3F001E0024800BF9B
:101CC00000BF70BD083802400024F40000127A0002
:101CD00038B504460025207800F00100002866D0C1
:101CE000F648006800F00C0004280DD0F3480068A6
:101CF00000F00C00082813D1F048001F006800F421
:101D00008000B0F5800F0BD1EC4808380068C0F3B4
:101D1000404000284BD06068002848D1012038BDE1
:101D20000020E649891F0870FFF7C0FC054608E05F
:101D3000FFF7BCFC401B41F28831884201D90320E7
:101D4000EDE7DE4808380068C0F340400028EFD1D6
:101D50002079DA49891F08706068A0B1FFF7A6FCF6
:101D6000054608E0FFF7A2FC401B41F2883188429B
:101D700001D90320D3E7D14808380068C0F34040B8
:101D80000028EFD013E0FFF791FC054608E0FFF7CD
:101D90008DFC401B41F28831884201D90320BEE707
:101DA000C64808380068C0F340400028EFD12078CA
:101DB00000F00200022869D1C048006800F00C0061
:101DC00058B1BE48006800F00C00082821D1BB487B
:101DD000001F006800F48000D8B9B84808380068CF
:101DE000C0F3400020B1E068012801D0012096E74F
:101DF000B2480838006820F0F800F82292FAA2F2FF
:101E0000B2FA82F2216991400843AC49083908606E
:101E10003CE0E06828B30120A9490860FFF746FCD0
:101E2000054606E0FFF742FC401B642801D9032069
:101E300075E7A24808380068C0F340000028F1D0D8
:101E40009E480838006820F0F800F82292FAA2F2C2
:101E5000B2FA82F221699140084398490839086032
:101E600014E0002096490860FFF720FC054606E0D4
:101E7000FFF71CFC401B642801D903204FE78F4863
:101E800008380068C0F340000028F1D1207800F045
:101E9000080008282CD16069A8B101208949086090
:101EA000FFF704FC054606E0FFF700FC401B642832
:101EB00001D9032033E781486C300068C0F340004B
:101EC0000028F1D014E000207E490860FFF7EEFB07
:101ED000054606E0FFF7EAFB401B642801D9032012
:101EE0001DE776486C300068C0F340000028F1D14F
:101EF000207800F0040004286DD100BF6F4838300E
:101F0000006840F080506D4938310860084600682C
:101F100000F08050009000BF00BF6B48006840F4A4
:101F2000807069490860FFF7C1FB054606E0FFF7CE
:101F3000BDFB401B642801D90320F0E6624800681D
:101F400000F480700028F2D000205C4968310870ED
:101F5000FFF7ACFB054608E0FFF7A8FB401B41F28A
:101F60008831884201D90320D9E654486830006896
:101F7000C0F340000028EFD1207A50496831087042
:101F8000A068A0B1FFF792FB054608E0FFF78EFBC3
:101F9000401B41F28831884201D90320BFE64748FF
:101FA00068300068C0F340000028EFD013E0FFF76E
:101FB0007DFB054608E0FFF779FB401B41F28831C5
:101FC000884201D90320AAE63C4868300068C0F383
:101FD00040000028EFD1A069F0B33848006800F055
:101FE0000C00082872D0A069022850D10020344982
:101FF0000866FFF75BFB054606E0FFF757FB401B53
:10200000642801D903208AE62C4808380068C0F308
:1020100040600028F1D1D4E90701084347F6C072B7
:1020200092FAA2F2B2FA82F2616A91400843012266
:10203000A16AC2EB51014FF4403292FAA2F2B2FA15
:1020400082F2914008434FF0706292FAA2F2B2FA23
:1020500082F2E16A914000E03AE008431749091F23
:102060000860012016490866FFF720FB054606E0D8
:10207000FFF71CFB401B642801D903204FE60F48E3
:1020800008380068C0F340600028F1D020E000204C
:102090000B490866FFF70AFB054606E0FFF706FB5B
:1020A000401B642801D9032039E604480838006839
:1020B000C0F340600028F1D10AE007E00838024090
:1020C00000004742800E474200700040012026E693
:1020D000002024E670B504462546681EB0F1807FD6
:1020E00001D301200FE0681E4FF0E02148610F216D
:1020F0004FF0FF3000F04EF800204FF0E0218861F3
:1021000007200861002070BD10B504460CB90120FD
:1021100010BDA06900B100E000BF94F8390028B9F3
:10212000002084F83800204600F025F8022084F8CA
:1021300039002068C06820F400502168C86020463B
:1021400005F06EFB2068006920F49040216808616A
:102150002068406920F02A00216848612068C06832
:1021600040F400502168C8600020E063012084F83A
:1021700039000020CCE7704700BFFEE700BFFEE754
:102180007047000002480068C0F30220704700005A
:102190000CED00E010B5002807DA0A07140E054A16
:1021A00000F00F031B1FD45403E00A07130E024A6A
:1021B000135410BD18ED00E000E400E070B50546D2
:1021C0000C46224602A1284605F08CFC70BD00009A
:1021D000256400007CB505460C46288840F229425B
:1021E000811A90427ED008DC70B1A0F2054028B37D
:1021F0000A2878D0182877D103E10D2975D018293D
:1022000074D02329F7D1A2E294F86C00012851D0B0
:1022100000BF0020C4F8C00000BF0822FCA104F1E8
:102220000800FEF745FE0222FCA104F10800FEF7BB
:102230003FFE00BF40F20540288000BF94F8C00078
:1022400000F0010030B994F8C000C0F3400008B9B4
:1022500000207CBD00BF94F86C0001282AD0082023
:10226000207600BF04F1B800FFF780F80020A081BD
:10227000EB490880EB490880EB490880EB4908806E
:10228000EB490880EB490880EB490880EB4908805E
:1022900094F8BC0000F0010030B994F8BC0020F0C4
:1022A0000200801C84F8BC0000BF00BF0020288012
:1022B0000220CEE7A08940F2013188426BD100BFF5
:1022C0000020C4F8C00000BF0322DDA104F1080013
:1022D000FEF7EEFDDB490868FEF708F886B2D9483C
:1022E000324604E0F2E01EE06AE257E1D6E101681E
:1022F00004F10800FEF7DCFD0122D3A104F108007F
:10230000FEF7D6FD0222C5A104F10800FEF7D0FDBC
:10231000002240F20131204604F046FE00BF40F2A8
:102320000F40288000BF94F8C00000F0010030B9D1
:1023300094F8C000C0F3400008B9002089E700BF4E
:1023400094F8C00000F0010080F00100207600BF8A
:1023500004F1B800FFF70AF80020A081B049088016
:10236000B0490880B0490880B0490880B049088069
:10237000B0490880B0490880B049088094F8BC0092
:1023800000F0010030B994F8BC0020F00200801C7D
:1023900084F8BC0013E2A08940F20531884268D17C
:1023A00000BF0020C4F8C00000BFA64841696846CD
:1023B000FFF704FF0922A5A104F10800FEF778FD4C
:1023C0006846FDF793FF86B23246694604F108007D
:1023D000FEF76EFD01229CA104F10800FEF768FDE6
:1023E00002228EA104F10800FEF762FD002240F2F5
:1023F0000531204604F0D8FD00BF40F21D40288082
:1024000000BF94F8C00000F0010030B994F8C0009B
:10241000C0F3400008B900201BE700BF94F8C000DB
:1024200000F0010080F00100207600BF04F1B80048
:10243000FEF79CFF0020A081794908807949088037
:102440007949088079490880794908807949088064
:10245000794908807949088094F8BC0000F00100AF
:1024600030B994F8BC0020F00200801C84F8BC0055
:10247000A5E1A08940F2023188425FD100BF00206F
:10248000C4F8C00000BF03226DA104F10800FEF7EC
:102490000FFD6C490868FDF729FF86B2694832468E
:1024A000016804F10800FEF703FD02225BA104F1BC
:1024B0000800FEF7FDFC002240F20231204604F045
:1024C00073FD00BF40F22940288000BF94F8C0008F
:1024D00000F0010030B994F8C000C0F3400008B922
:1024E0000020B6E600BF94F8C00000F0010080F0C4
:1024F0000100207600BF04F1B800FEF737FF00208E
:10250000A0814749088047490880474908804749D2
:10251000088047490880474908804749088047495B
:10252000088094F8BC0000F0010030B994F8BC00B9
:1025300020F00200801C84F8BC0040E1A08940F239
:102540000631884262D100BF0020C4F8C00000BF3D
:102550003C4841696846FFF731FE09223BA104F17E
:102560000800FEF7A5FC6846FDF7C0FE86B23246BD
:10257000694604F10800FEF79BFC022227A104F142
:102580000800FEF795FC002240F20631204604F0D8
:102590000BFD00BF40F23640288000BF94F8C00019
:1025A00000F0010030B994F8C000C0F3400008B951
:1025B00000204EE600BF94F8C00000F0010080F05B
:1025C0000100207600BF04F1B800FEF7CFFE002026
:1025D000A0811349088013490880134908801349D2
:1025E000088013490880134908801349088013495B
:1025F000088094F8BC0000F0010030B994F8BC00E9
:1026000020F00200801C84F8BC00D8E024E0000028
:1026100041542B4350494E3F000000000D0A00007A
:10262000A4000020A6000020A8000020AA0000208E
:10263000AC000020AE000020B0000020B20000205E
:1026400041544400200A00203B0000004154443E15
:1026500022534D2220000000A08940F2033188421D
:1026600054D100BF0020C4F8C00000BF032257A10E
:1026700004F10800FEF71CFC0222AFF2600104F135
:102680000800FEF715FC002240F20331204604F05A
:102690008BFC00BF40F24140288000BF94F8C0008E
:1026A00000F0010030B994F8C000C0F3400008B950
:1026B0000020CEE500BF94F8C00000F0010080F0DB
:1026C0000100207600BF04F1B800FEF74FFE0020A5
:1026D000A0813F4908803F4908803F4908803F4921
:1026E00008803F4908803F4908803F4908803F49AA
:1026F000088094F8BC0000F0010030B994F8BC00E8
:1027000020F00200801C84F8BC0058E0A089B0F5DD
:10271000417F54D100BF0020C4F8C00000BF032295
:1027200033A104F10800FEF7C3FB0222AFF214113B
:1027300004F10800FEF7BCFB00224FF44171204673
:1027400004F032FC00BF40F24C40288000BF94F8F7
:10275000C00000F0010030B994F8C000C0F34000A0
:1027600008B9002075E500BF94F8C00000F0010032
:1027700080F00100207600BF04F1B800FEF7F6FDFE
:102780000020A0811249088012490880124908805F
:1027900012490880124908801249088012490880AD
:1027A0001249088094F8BC0000F0010030B994F898
:1027B000BC0020F00200801C84F8BC0000BF00BFF9
:1027C00000BF00202880032043E500004154410061
:1027D000A4000020A6000020A8000020AA000020DD
:1027E000AC000020AE000020B0000020B2000020AD
:1027F0004154480070B505460C46288818B1B0F51C
:10280000A86F5AD120E0A08940F20161884253D1DB
:1028100000BF0020C4F8C00000BF082229A104F1B5
:102820000800FEF745FB022229A104F10800FEF78B
:102830003FFB002240F20161204604F0B5FB00BFDF
:102840004FF4A860288000BF94F8C00000F0010099
:1028500030B994F8C000C0F3400008B9002070BD42
:1028600000BF94F8C00000F0010080F00100207665
:1028700000BF04F1B800FEF779FD0020A0811549E2
:1028800008801549088015490880154908801549B0
:10289000088015490880154908801549088094F872
:1028A000BC0000F0010030B994F8BC0020F0020038
:1028B000801C84F8BC0000BF00BF00BF002028803F
:1028C0000320CCE741542B43434C4B3F0000000016
:1028D0000D0A0000A4000020A6000020A80000208F
:1028E000AA000020AC000020AE000020B0000020B4
:1028F000B200002070B505460C46288840F24232EE
:10290000811A90427ED008DC60B1B0F54B7F27D0B1
:10291000A0F23730002876D17CE00B2974D016293C
:10292000F9D179E1A089052852D100BF0020C4F86F
:10293000C00000BF0222D7A104F10800FEF7B8FAD8
:102940000222D5A104F10800FEF7B2FA0022042108
:10295000204604F029FB00BF4FF44B70288000BFD5
:1029600094F8C00000F0010030B994F8C000C0F342
:10297000400008B9002070BD00BF94F8C00000F00E
:10298000010080F00100207600BF04F1B800FEF7DE
:10299000EDFC0020A081C1490880C1490880C149DF
:1029A0000880C1490880C1490880C1490880C149DF
:1029B0000880C149088094F8BC0000F0010030B9DB
:1029C00094F8BC0020F00200801C84F8BC005BE19D
:1029D000A089042856D100BF0020C4F8C00000BF61
:1029E0000422B6A104F10800FEF762FA0222AAA1AD
:1029F00004F10800FEF75CFA00220421204604F0EE
:102A0000D3FA02E05CE040E1B0E000BF40F23730D2
:102A1000288000BF94F8C00000F0010030B994F89D
:102A2000C000C0F3400008B90020A4E700BF94F83C
:102A3000C00000F0010080F00100207600BF04F12A
:102A4000B800FEF793FC0020A081944908809449C7
:102A500008809449088094490880944908809449E2
:102A60000880944908809449088094F8BC0000F0DC
:102A7000010030B994F8BC0020F00200801C84F8FA
:102A8000BC0001E1A089012852D100BF0020C4F898
:102A9000C00000BF11228BA104F10800FEF708FA64
:102AA00002227DA104F10800FEF702FA00220121B2
:102AB000204604F079FA00BF40F24230288000BF7F
:102AC00094F8C00000F0010030B994F8C000C0F3E1
:102AD000400008B900204EE700BF94F8C00000F0A5
:102AE000010080F00100207600BF04F1B800FEF77D
:102AF0003DFC0020A0816949088069490880694936
:102B000008806949088069490880694908806949DD
:102B100008806949088094F8BC0000F0010030B9D1
:102B200094F8BC0020F00200801C84F8BC00ABE0EC
:102B3000A089022852D100BF0020C4F8C00000BF05
:102B4000092265A104F10800FEF7B2F9022252A1A0
:102B500004F10800FEF7ACF900220221204604F03F
:102B600023FA00BF40F24D30288000BF94F8C00027
:102B700000F0010030B994F8C000C0F3400008B97B
:102B80000020F8E600BF94F8C00000F0010080F0DB
:102B90000100207600BF04F1B800FEF7E7FB00203B
:102BA000A0813E4908803E4908803E4908803E4950
:102BB00008803E4908803E4908803E4908803E49D9
:102BC000088094F8BC0000F0010030B994F8BC0013
:102BD00020F00200801C84F8BC0055E0A089032886
:102BE00052D100BF0020C4F8C00000BF09223DA19F
:102BF00004F10800FEF75CF9022227A104F10800A5
:102C0000FEF756F900220321204604F0CDF900BF5B
:102C10004FF45670288000BF94F8C00000F0010007
:102C200030B994F8C000C0F3400008B90020A2E613
:102C300000BF94F8C00000F0010080F00100207691
:102C400000BF04F1B800FEF791FB0020A0811349FA
:102C500008801349088013490880134908801349E4
:102C6000088013490880134908801349088094F8A4
:102C7000BC0000F0010030B994F8BC0020F0020064
:102C8000801C84F8BC0000BF00BF00BF002028806B
:102C9000032070E6415400000D0A0000A40000204B
:102CA000A6000020A8000020AA000020AC00002000
:102CB000AE000020B0000020B200002041542646A3
:102CC0000000000041542B434E4D493D312C322C25
:102CD000302C302C3000000041542B434D45453DF5
:102CE0003100000041542B434C43433D3100000070
:102CF000FEB505460C46FD48C668288840F2656268
:102D0000811A904270D03EDC40F2D952A0EB020111
:102D100090426AD022DC40F28E52A0EB0201904237
:102D200073D012DC40F26752A0EB020190426DD0EA
:102D300006DCD0B3A0F25250002841F0D1859AE0D1
:102D400010297DD01929F8D1C5E1092979D0172991
:102D500078D0252977D03329EFD1EBE2422973D0FF
:102D600008DC0E2971D01C2970D02A296FD0332994
:102D7000E3D1FBE34A296BD060296AD0662969D088
:102D80007C29DAD1F3E3A12901F0DB811BDC4D2999
:102D900001F005800ADC0D2979D0152978D0272982
:102DA00077D03729C9D100F08DBF30E05B2901F021
:102DB0002B806F2901F0DC807B2901F00D819129A6
:102DC000BBD101F07FB9ED2901F0D0830EDCA92938
:102DD00001F0D581BB2901F04982D22901F00D8390
:102DE000DF29AAD101F066BBF7E318E3FE2901F061
:102DF0002D84A1F20D11002901F06C840F2901F03E
:102E0000B0841E2999D101F02FBDCAE1DAE0A08972
:102E1000E08194F82000012873D094F82000052860
:102E20006FD0A089E08100BF0020C4F8C00000BFBF
:102E30000822AFA104F10800FEF73AF802220AE0E6
:102E400020E1D8E10CE240E2F7E31DE351E385E342
:102E5000F4E3F4E3F4E3A9A104F10800FEF728F891
:102E6000002240F23A71204604F09EF800BF40F282
:102E70005250288000BF94F8C00000F0010048B90B
:102E800094F8C000C0F3400020B90020FEBDFDE36F
:102E9000FDE3FDE300BFE089A08194F82000012854
:102EA0002FD094F8200005282BD00B20207600BFCF
:102EB00004F1B800FEF75AFA0020A081904908807A
:102EC000904908809049088090490880904908807E
:102ED00090490880904908809049088094F8BC0087
:102EE00000F0010030B994F8BC0020F00200801C12
:102EF00084F8BC0000BF00BF002028800220C5E786
:102F0000FFE7E089A081A08940F2017188427DD16C
:102F1000A089E08100BF0020C4F8C00000BF0922E2
:102F20007FA104F10800FDF7C3FF70490868FDF7B1
:102F3000DDF987B26D483A46016804F10800FDF7F3
:102F4000B7FF032279A104F10800FDF7B1FF67483C
:102F5000406858B165494868FDF7C8F987B26348C9
:102F60003A46416804F10800FDF7A2FF03226FA171
:102F700004F10800FDF79CFF5C48806858B15B498C
:102F80008868FDF7B3F987B258483A46816804F17A
:102F90000800FDF78DFF012263A104F10800FDF791
:102FA00087FF022255A104F10800FDF781FF0022EE
:102FB00040F20171204603F0F7FF00BF40F2675076
:102FC000288000BF94F8C00000F0010030B994F8E8
:102FD000C000C0F3400008B9002057E700BF94F8D4
:102FE000C00000F0010080F001002076E089A0819F
:102FF00000BF04F1B800FEF7B9F90020A0814049F4
:103000000880404908804049088000E017E03F49B7
:1030100008803F4908803F4908803F4908803F4970
:10302000088094F8BC0000F0010030B994F8BC00AE
:1030300020F00200801C84F8BC0001F050BCA08984
:1030400040F2027188427FD1A089E08100BF002058
:10305000C4F8C00000BF0A2235A104F10800FDF742
:1030600027FF022225A104F10800FDF721FF00221D
:1030700040F22271204603F097FF00BF40F27750E4
:10308000288000BF94F8C00000F0010030B994F827
:10309000C000C0F3400008B90020F7E600BF00BF41
:1030A0000020C4F8C00000BF0A2224A104F10800D7
:1030B000FDF7FEFE022211A104F10800FDF7F8FE63
:1030C000002240F22271204603F06EFF00BF4FF451
:1030D000B060288000BF94F8C00000F00100A0BBE1
:1030E00094F8C000C0F3400078BB2FE0200A002015
:1030F00041542B435245473F000000000D0A000099
:10310000A4000020A6000020A8000020AA000020A3
:10311000AC000020AE000020B0000020B200002073
:1031200041542B435354543D22000000222C2200D2
:1031300041542B43474143543D30000041542B43FD
:10314000474143543D310000A7E201E000209DE6E5
:1031500000BF94F8C00000F0010080F0010020766C
:10316000207E012800D16EE200BF0020C4F8C0001C
:1031700000BF0A22FEA104F10800FDF799FE022219
:10318000AFF2880104F10800FDF792FE002240F240
:103190002171204603F008FF00BF40F28E502880C6
:1031A00000BF94F8C00000F0010030B994F8C000EE
:1031B000C0F3400008B9002068E600BF00BF00204F
:1031C000C4F8C00000BF0A22ECA104F10800FDF71A
:1031D0006FFE0222AFF2DC0104F10800FDF768FE89
:1031E000002240F22171204603F0DEFE00BF40F2D3
:1031F0009750288000BF94F8C00000F0010030B95B
:1032000094F8C000C0F3400008B900203EE600BFBB
:1032100094F8C00000F0010080F001002076207ECC
:10322000012800D10FE200BF0020C4F8C00000BF99
:103230000A22D5A104F10800FDF73AFE0222AFF2FE
:10324000441104F10800FDF733FE00224FF4E4615D
:10325000204603F0A9FE00BF40F2A550288000BF21
:1032600094F8C00000F0010030B994F8C000C0F339
:10327000400008B9002009E600BF94F8C00000F043
:10328000010080F001002076207E012800D1DAE1E3
:1032900000BF0020C4F8C00000BF0B22BDA104F194
:1032A0000800FDF705FE0222AFF2B01104F108009C
:1032B000FDF7FEFD002240F22771204603F074FE68
:1032C00000BF40F2B350288000BF94F8C00000F067
:1032D000010030B994F8C000C0F3400008B90020E4
:1032E000D4E500BF94F8C00000F0010080F00100B8
:1032F0002076207E012800D1A5E100BF0020C4F87F
:10330000C00000BF0D22A6A104F10800FDF7D0FD0A
:103310000222AFF2182104F10800FDF7C9FD0022D6
:1033200040F22C71204603F03FFE00BF40F2C15036
:10333000288000BF94F8C00000F0010030B994F874
:10334000C000C0F3400008B900209FE500BF94F81A
:10335000C00000F0010080F001002076207E0128EE
:1033600000D170E100BF0020C4F8C00000BF0922F6
:10337000AFF2542104F10800FDF79AFD8C4908686A
:10338000FCF7B4FF87B28A483A46016804F10800A6
:10339000FDF78EFD0322AFF26C2104F10800FDF76A
:1033A00087FD8348406858B181494868FCF79EFF13
:1033B00087B27F483A46416804F10800FDF778FD7E
:1033C0000322AFF2982104F10800FDF771FD78485F
:1033D000806858B176498868FCF788FF87B27448DE
:1033E0003A46816804F10800FDF762FD0122AFF260
:1033F000C82104F10800FDF75BFD0222AFF20431A1
:1034000004F10800FDF754FD002240F22671204629
:1034100003F0CAFD00BF40F2D950288000BF94F8E5
:10342000C00000F0010030B994F8C000C0F34000C3
:1034300008B900202AE500BF94F8C00000F00100A0
:1034400080F001002076207E012800D1FBE000BF43
:103450000020C4F8C00000BF082256A104F10800F3
:10346000FDF726FD0222AFF26C3104F10800FDF7F2
:103470001FFD002240F22471204603F095FD00BF9D
:1034800040F2E750288000BF94F8C00000F001002F
:1034900030B994F8C000C0F3400008B90020F5E44A
:1034A00000BF94F8C00000F0010080F00100207619
:1034B000207E012800D1C6E000BF0020C4F8C00073
:1034C00000BF08223EA104F10800FDF7F1FC022232
:1034D000AFF2D83104F10800FDF7EAFC002240F217
:1034E0002571204603F060FD00BF40F2F5502880B2
:1034F00000BF94F8C00000F0010030B994F8C0009B
:10350000C0F3400008B90020C0E400BF94F8C00038
:1035100000F0010080F001002076207E012800D11B
:1035200091E000BF0020C4F8C00000BF0B2227A11B
:1035300004F10800FDF7BCFC0222AFF2404104F1A7
:103540000800FDF7B5FC002240F23271204603F07E
:103550002BFD00BF40F20360288000BF94F8C0003C
:1035600000F00100C0BB94F8C00037E059E0FEE174
:1035700041542B43474154543D30000041542B43A8
:10358000474154543D31000041542B434950534866
:103590005554000041542B4349504D55583D31007E
:1035A00041542B43495052584745543D3100000087
:1035B000200A002041542B43494943520000000097
:1035C00041542B43494653520000000041542B48BC
:1035D0005454505445524D0005E05EE2C0F34000A3
:1035E00008B9002052E400BF00BF0020C4F8C000AA
:1035F00000BF0C22FEA104F10800FDF759FC0222D5
:10360000AFF2085104F10800FDF752FC002240F22D
:103610002371204603F0C8FC00BF40F20C602880F4
:1036200000BF94F8C00000F0010050B994F8C00049
:10363000C0F3400028B9002028E452E07CE00FE10C
:1036400029E100BF00BFE089A08100BF04F1B800FC
:10365000FDF78CFE0020A081E9490880E949088037
:10366000E9490880E9490880E9490880E949088072
:10367000E9490880E949088094F8BC0000F001009D
:1036800050B994F8BC0020F0020002E047E26DE27D
:10369000C8E2801C84F8BC00CFE4A08940F203712A
:1036A00088427CD1A089E08100BF0020C4F8C0001E
:1036B00000BF0C22DAA104F10800FDF7F9FB022299
:1036C000AFF2C85104F10800FDF7F2FB002240F20E
:1036D0002371204603F068FC00BF40F21B60288085
:1036E00000BF94F8C00000F0010030B994F8C000A9
:1036F000C0F3400008B900206FE400BF00BF002005
:10370000C4F8C00000BF0A22AFF29C1104F1080007
:10371000FDF7CEFB0222AFF21C6104F10800FDF7B9
:10372000C7FB002240F22171204603F03DFC00BFA0
:1037300040F22360288000BF94F8C00000F0010030
:1037400030B994F8C000C0F3400008B9002044E448
:1037500000BF94F8C00000F0010080F00100207666
:10376000E089A08100BF04F1B800FDF7FFFD002053
:10377000A081A3490880A3490880A3490880A349E0
:103780000880A3490880A3490880A3490880A34969
:10379000088094F8BC0000F0010040B900E007E0A8
:1037A00094F8BC0020F00200801C84F8BC0044E4C3
:1037B000A08940F2297188427ED1A089E0819C488D
:1037C000416901A8FEF7FAFC00BF0020C4F8C00060
:1037D00000BF0F2297A104F10800FDF769FB94498F
:1037E0004868FCF783FD87B291483A46416804F186
:1037F0000800FDF75DFB0322AFF2D06104F1080081
:10380000FDF756FB8A490868FCF770FD87B28848C7
:103810003A46016804F10800FDF74AFB022289A13B
:1038200004F10800FDF744FB01A8FCF75FFD87B237
:103830003A4601A904F10800FDF73AFB0222AFF273
:10384000447104F10800FDF733FB002240F22971B6
:10385000204603F0A9FB00BF40F23960288000BF7A
:1038600094F8C00000F0010030B994F8C000C0F333
:10387000400008B9002010E400BF94F8C00000F038
:10388000010080F001002076207E08BB00BF40F2DE
:103890003F60288000BF94F8C000C0F3C00060B94A
:1038A00094F8C000C0F3001038B994F8C000C0F319
:1038B000401010B900204AE430E000BF94F8C00086
:1038C000C0F3C00020B1002030705948C068606764
:1038D000E089A08100BF04F1B800FDF747FD00209A
:1038E000A0814749088047490880474908804749DF
:1038F0000880474908804749088047490880474968
:10390000088094F8BC0000F0010030B994F8BC00C5
:1039100020F00200801C84F8BC00BDE6A08940F2C3
:103920002B71884262D1A089E0814148416901A898
:10393000FEF744FC00BF0020C4F8C00000BF0D2209
:1039400041A104F10800FDF7B3FA0222AFF65401D9
:1039500004F10800FDF7ACFA002240F22B7120467A
:1039600003F022FB00BF40F25560288000BF94F8AE
:10397000C000C0F3400030B994F8C000C0F380101C
:1039800008B9002018E400BF616F01F11600897DBD
:1039900021F00101017094F8C000C0F3801080F0A4
:1039A00001002076E089A08100BF04F1B800FDF796
:1039B000DDFC0020A08112490880124908801249CC
:1039C000088012490880124908801249088012496B
:1039D00008801249088094F8BC0000F0010030B95A
:1039E00094F8BC0020F00200801C35E037E035E0A0
:1039F00041542B53415042523D312C3100000000C4
:103A0000A4000020A6000020A8000020AA0000209A
:103A1000AC000020AE000020B0000020B20000206A
:103A200041542B53415042523D302C310000000094
:103A3000200A002041542B43495053544152543DD5
:103A4000302C2200222C000041542B434950434C7F
:103A50004F53453D3000000084F8BC001CE6A089AF
:103A600040F22A7188427CD1A089E08100BF002009
:103A7000C4F8C00000BF0C22FEA104F10800FDF74D
:103A800017FA0222AFF68C1104F10800FDF710FAC4
:103A900000BF40F26560288000BF94F8C000C0F30A
:103AA000800030B994F8C000C0F3400008B900208D
:103AB00016E400BFF348406940F2B451884202D98D
:103AC0000846F0494861EF48416901A8FEF776FBD6
:103AD00000BF0020C4F8C00000BF0D22EAA104F11D
:103AE0000800FDF7E5F901A8FCF700FC87B23A46AB
:103AF00001A904F10800FDF7DBF90222AFF6042169
:103B000004F10800FDF7D4F9002240F22A712046A2
:103B100003F04AFA00BF40F27260288000BF94F8B8
:103B2000C000C0F3800030B994F8C000C0F340007A
:103B300008B9002009E400BF94F8C000C0F3800079
:103B400098B300BF0020C4F8C00000BFCD48406952
:103B500082B2CC48016804F10800FDF7A9F900BF62
:103B600000E050E040F27A60288000BF94F8C00086
:103B7000C00930B9C120005D00F0010008B9002083
:103B800058E400BF94F8C000C00908B1002000E06C
:103B900005202076207E80B9BA48006968B1B9480E
:103BA0004069B8490969088007E0FFE794F8C00058
:103BB000C0F3400008B101202076E089A08100BF59
:103BC00004F1B800FDF7D2FB0020A081B2490880C3
:103BD000B2490880B2490880B2490880B2490880D9
:103BE000B2490880B2490880B249088094F8BC0004
:103BF00000F0010030B994F8BC0020F00200801CF5
:103C000084F8BC0048E5A08940F22C7188427DD13F
:103C1000A089E0812068A849086000BF40F28C605C
:103C2000288000BF2068A4490968401AB18A8842E8
:103C300001D2002033E400BF308940F2B451884201
:103C400001DD0846308100BF0020C4F8C00000BF7D
:103C50000E229AA104F10800FDF72AF9317801A893
:103C6000FEF7ACFA01A8FCF741FB87B23A4601A97E
:103C700004F10800FDF71CF9012286A104F10800F7
:103C8000FDF716F9318901A8FEF798FA01A8FCF7AB
:103C90002DFB87B23A4601A904F10800FDF708F9A7
:103CA0000222AFF6A83104F10800FDF701F9002265
:103CB00040F22C71204603F077F900BF40F29C607F
:103CC000288000BF94F8C00000F0010030B994F8DB
:103CD000C000C0F3400008B9002015E400BF94F80C
:103CE000C00000F0010080F001002076207E50B975
:103CF0007189F0680844F0606248006918B1708901
:103D0000604909690880E089A08100E023E000BFE4
:103D100004F1B800FDF72AFB0020A0815E4908806D
:103D20005E4908805E4908805E4908805E490880D7
:103D30005E4908805E4908805E49088094F8BC00AE
:103D400000F0010030B994F8BC0020F00200801CA3
:103D500084F8BC00A0E4A08940F2047188427DD1BF
:103D6000A089E08100BF0020C4F8C00000BF0B2282
:103D700056A104F10800FDF79BF80222AFF684413A
:103D800004F10800FDF794F8002240F22D7120465E
:103D900003F00AF900BF40F2B260288000BF94F837
:103DA000C00000F0010030B994F8C000C0F340003A
:103DB00008B9002016E400BF94F8C00000F001002C
:103DC00080F001002076207E012800D131E000BF84
:103DD0000020C4F8C00000BF13223FA104F1080076
:103DE000FDF766F80222AFF6EC4104F10800FDF79A
:103DF0005FF8002240F22D71204603F0D5F800BF95
:103E00004FF4D860288000BF94F8C00000F0010093
:103E100030B994F8C000C0F3400008B900200BE4AA
:103E200000BF94F8C00000F0010080F0010020768F
:103E300000BFE089A08100BF04F1B800FDF796FA49
:103E40000020A08114490880144908801449088082
:103E50001449088014490880144900E04FE00880A4
:103E6000134908801349088094F8BC0000F0010051
:103E7000E0BB3CE041542B43495053454E443D3F49
:103E800000000000200A002041542B4349505345B4
:103E90004E443D302C000000A4000020A60000206D
:103EA000A8000020AA000020AC000020AE000020E6
:103EB000B0000020B2000020B800002041542B4385
:103EC000495052584745543D322C000041542B482C
:103ED000545450494E49540041542B485454505066
:103EE0004152413D22434944222C310006E094F8DE
:103EF000BC0020F00200801C84F8BC0057E4A089BC
:103F000040F20771884273D1A089E08100BF002090
:103F1000C4F8C00000BF0C22FBA104F10800FCF7AC
:103F2000C7FF9C20015901A8FEF748F901A8FCF73A
:103F3000DDF987B23A4601A904F10800FCF7B8FFA1
:103F40000622F5A104F10800FCF7B2FF0222AFF649
:103F5000546104F10800FCF7ABFF002240F22F711E
:103F6000204603F021F800BF40F2D460288000BF53
:103F7000C120005DC0F3800058B994F8C00000F083
:103F8000010030B994F8C000C0F3400008B9002027
:103F900071E400BF94F8C000C0F3400088B9C120AC
:103FA000005DC0F3800060B1DDA003F08BFD9C20BC
:103FB000005982B29820015904F10800FCF778FFFB
:103FC00000E023E000BF0020C4F8C00000BF00BF35
:103FD0004FF4DC60288000BF94F8C00000F00100BE
:103FE00038B994F8C000C0F3400010B9002042E492
:103FF00032E000BF94F8C00000F0010080F0010042
:104000002076207E012800D100E000BFE089A08159
:1040100000BF04F1B800FDF7A9F90020A081C6494E
:104020000880C6490880C6490880C6490880C64934
:104030000880C6490880C6490880C649088094F8A7
:10404000BC0000F0010030B994F8BC0020F0020080
:10405000801C84F8BC0009E2A08940F20671884205
:104060007BD1A089E08100BF0020C4F8C00000BF60
:104070001322B9A104F10800FCF71AFF9021085996
:10408000FCF734F987B2902001593A4604F1080050
:10409000FCF70EFF0122AFF6707104F10800FCF787
:1040A00007FF0222A3A104F10800FCF701FF002290
:1040B00040F22E71204602F077FF00BF40F2F6601A
:1040C000288000BF94F8C00000F0010030B994F8D7
:1040D000C000C0F3400008B9002053E400BF94F8CA
:1040E000C00000F0010080F001002076207E012851
:1040F00000D14DE000BF0020C4F8C00000BF0E2278
:104100009AA104F10800FCF7D3FE94F88C0030303B
:10411000C0B200900122694604F10800FCF7C8FE15
:10412000022284A104F10800FCF7C2FE00224FF431
:10413000E661204602F038FF00BF40F2067028809A
:1041400000BF94F8C00000F0010038B994F8C00036
:10415000C0F3400010B9002014E43FE000BF94F821
:10416000C00000F0010080F001002076207E0128D0
:1041700000D10DE000BF40F20E70288000BFC120CA
:10418000005DC0F3400008B9002091E400BF00BF0B
:10419000E089A08100BF04F1B800FDF7E7F8002036
:1041A000A08165490880654908806549088065499E
:1041B0000880654908806549088065490880654927
:1041C000088094F8BC0000F0010030B994F8BC00FD
:1041D00020F00200801C84F8BC0080E3A08940F23B
:1041E000317188427ED1A089E08100BF0020C4F8EF
:1041F000C00000BF0C2261A104F10800FCF758FECA
:10420000A420015901A8FDF7D9FF01A8FCF76EF819
:1042100087B23A4601A904F10800FCF749FE0122E1
:10422000AFF2903104F10800FCF742FEA820015BD8
:1042300001A8FDF7C3FF01A8FCF758F887B23A467A
:1042400001A904F10800FCF733FE022239A104F1B0
:104250000800FCF72DFE002240F23171204602F0EA
:10426000A3FE00BF4FF4E460288000BF94F8C000B4
:1042700000F0010030B994F8C000C0F3400008B964
:10428000002015E400BF94F8C00000F0010080F0A9
:1042900001002076207E70B9A4200159AC2000597D
:1042A0000144A42001513948C06820B1AC20005914
:1042B0003649C9680860E089A08100BF04F1B800F0
:1042C000FDF754F80020A0811B4908801B49088095
:1042D0001B4908801B4908801B4908801B4908802E
:1042E0001B4900E054E008801A49088094F8BC009B
:1042F00000F0010030B994F8BC0020F00200801CEE
:1043000084F8BC00EBE2000041542B485454504464
:104310004154413D000000002C313030303000006D
:1043200053656E64696E672061637475616C2064A7
:10433000617461210D0A0000A4000020A600002085
:10434000A8000020AA000020AC000020AE00002041
:10435000B0000020B200002041542B48545450506B
:104360004152413D2255524C222C220041542B48AF
:10437000545450414354494F4E3D000041542B4842
:10438000545450524541443D00000000200A002092
:10439000A089B0F5E16F6AD1A089E08100BF00205B
:1043A000C4F8C00000BF1722FAA104F10800FCF70E
:1043B0007FFD90210859FBF799FF87B290200159A2
:1043C0003A4604F10800FCF773FD0122F7A104F15D
:1043D0000800FCF76DFD0222AFF2A80104F108000D
:1043E000FCF766FD002240F22E71204602F0DCFD53
:1043F00000BF40F23770288000BF94F8C00000F082
:10440000010030B994F8C000C0F3400008B90020A2
:1044100010E400BF94F8C00000F0010080F001003B
:104420002076E089A08100BF04F1B800FCF79EFF70
:104430000020A081DE490880DE490880DE4908802E
:10444000DE490880DE490880DE490880DE490880B0
:10445000DE49088094F8BC0000F0010030B994F8FF
:10446000BC0020F00200801C84F8BC0037E2A08968
:1044700040F23271884255D100BF0020C4F8C0001C
:1044800000BF0B22AFF6BC6104F10800FCF710FD81
:104490000222AFF2601104F10800FCF709FD0022CE
:1044A00040F23271204602F07FFD00BF40F24470BE
:1044B000288000BF94F8C00000F0010030B994F8E3
:1044C000C000C0F3400008B9002006E400BF94F823
:1044D000C00000F0010080F00100207600BF04F170
:1044E000B800FCF743FF0020A081B1490880B14922
:1044F0000880B1490880B1490880B1490880B149B4
:104500000880B1490880B149088094F8BC0000F0E7
:10451000010030B994F8BC0020F00200801C84F83F
:10452000BC00DCE1A08940F20971884258D1A08921
:10453000E08100BF0020C4F8C00000BF0B22A4A18E
:1045400004F10800FCF7B4FC0222AFF2182104F1D8
:104550000800FCF7ADFC002240F23371204602F067
:1045600023FD00BF40F25270288000BF94F8C000C5
:1045700000F0010030B994F8C000C0F3400008B961
:10458000002017E400BF94F8C00000F0010080F0A4
:1045900001002076E089A08100BF04F1B800FCF79B
:1045A000E5FE0020A0818249088082490880824976
:1045B00008808249088082490880824908808249AF
:1045C00008808249088094F8BC0000F0010030B9EE
:1045D00094F8BC0020F00200801C84F8BC007EE14E
:1045E000A08940F20B7188429BD1A089E08100BF75
:1045F0000020C4F8C00000BF0C2278A104F108001C
:10460000FCF756FC79490868FBF770FE87B27748DB
:104610003A46016804F10800FCF74AFC012263A154
:1046200004F10800FCF744FC0222AFF2F82104F187
:104630000800FCF73DFC002240F23471204602F0F5
:10464000B3FC00BF40F26370288000BF94F8C00044
:1046500000F0010030B994F8C000C0F3400008B980
:10466000002095E400BF94F8C00000F0010080F045
:1046700001002076207E012800D10AE15B484169D3
:1046800001A8FDF79BFD00BF0020C4F8C00000BFDB
:104690000B2257A104F10800FCF70AFC01A8FBF764
:1046A00025FE87B23A4601A904F10800FCF700FC98
:1046B0000222AFF2803104F10800FCF7F9FB00227E
:1046C00040F23971204602F06FFC00BF40F2727078
:1046D000288000BF94F8C00000F0010030B994F8C1
:1046E000C000C0F3400008B9002051E400BF94F8B6
:1046F000C00000F0010080F001002076207E01283B
:1047000000D1C6E000BF0020C4F8C00000BF0A22EC
:104710003AA104F10800FCF7CBFB34494868FBF7E9
:10472000E5FD87B231483A46416804F10800FCF7DC
:10473000BFFB01221DA104F10800FCF7B9FB022216
:10474000AFF2104104F10800FCF7B2FB002240F286
:104750003571204602F028FC00BF40F281702880AD
:1047600000BF94F8C00000F0010030B994F8C00018
:10477000C0F3400008B900200AE400BF94F8C0006C
:1047800000F0010080F001002076207E01283BD15E
:104790007FE0000041542B48545450504152413D59
:1047A00022434F4E54454E54222C2200220000003A
:1047B000A4000020A6000020A8000020AA000020DD
:1047C000AC000020AE000020B0000020B2000020AD
:1047D00041542B4654504349443D310041542B46EB
:1047E0005450534552563D2200000000200A00203C
:1047F00041542B465450504F52543D0041542B4687
:104800005450554E3D22000000BF0020C4F8C000A7
:1048100000BF0A2235A104F10800FCF749FB364924
:104820008868FBF763FD87B233483A46816804F134
:104830000800FCF73DFB0122AFF2900104F10800F3
:10484000FCF736FB0222AFF2145104F10800FCF72A
:104850002FFB002240F23671204602F0A5FB00BF7C
:104860004FF4F260288000BF94F8C00000F001000F
:1048700030B994F8C000C0F3400008B900202CE41F
:1048800000BF94F8C00000F0010080F00100207625
:1048900000BFE089A08100BF04F1B800FCF766FD0D
:1048A0000020A08115490880154908801549088015
:1048B0001549088015490880154908801549088060
:1048C0001549088094F8BC0000F0010030B994F854
:1048D000BC0020F00200801C84F8BC0000BF00BFB8
:1048E00000BF00202880032036E4000041542B46FE
:1048F000545050573D220000200A0020A400002000
:10490000A6000020A8000020AA000020AC00002083
:10491000AE000020B0000020B200002070B50546B7
:104920000C46288840F27632811A90427ED005DC0F
:1049300048B1A0F26B30002879D125E00B2977D05F
:104940001629F9D12FE1A08940F20241884253D1C2
:1049500000BF0020C4F8C00000BF0722B1A104F1CD
:104960000800FCF7A5FA0222B0A104F10800FCF748
:104970009FFA002240F20241204602F015FB00BFE0
:1049800040F26B30288000BF94F8C00000F00100B6
:1049900030B994F8C000C0F3400008B9002070BDE1
:1049A00000BF94F8C00000F0010080F00100207604
:1049B00000BF04F1B800FCF7D9FC0020A0819C499D
:1049C00008809C4908809C4908809C4908809C4933
:1049D00008809C4908809C4908809C49088094F87C
:1049E000BC0000F0010030B994F8BC0020F00200D7
:1049F000801C84F8BC000EE1A08940F2014188428D
:104A000057D100BF0020C4F8C00000BF072290A10A
:104A100004F10800FCF74CFA022284A104F108001A
:104A2000FCF746FA002240F2014102E009E0F3E01F
:104A300060E0204602F0B8FA00BF40F276302880ED
:104A400000BF94F8C00000F0010030B994F8C00035
:104A5000C0F3400008B90020A1E700BF94F8C000EF
:104A600000F0010080F00100207600BF04F1B800E2
:104A7000FCF77CFC0020A0816D4908806D4908800E
:104A80006D4908806D4908806D4908806D4908802E
:104A90006D4908806D49088094F8BC0000F0010061
:104AA00030B994F8BC0020F00200801C84F8BC00EF
:104AB000B1E0A08940F20341884253D100BF0020F9
:104AC000C4F8C00000BF072263A104F10800FCF78E
:104AD000EFF9022255A104F10800FCF7E9F90022E0
:104AE00040F20341204602F05FFA00BF40F28130FD
:104AF000288000BF94F8C00000F0010030B994F89D
:104B0000C000C0F3400008B9002048E700BF94F897
:104B1000C00000F0010080F00100207600BF04F129
:104B2000B800FCF723FC0020A081414908804149DE
:104B3000088041490880414908804149088041492D
:104B40000880414908804149088094F8BC0000F081
:104B5000010030B994F8BC0020F00200801C84F8F9
:104B6000BC0058E0A08940F20541884253D100BF03
:104B70000020C4F8C00000BF072239A104F10800DA
:104B8000FCF796F9022229A104F10800FCF790F93C
:104B9000002240F20541204602F006FA00BF4FF421
:104BA0006370288000BF94F8C00000F0010030B9A5
:104BB00094F8C000C0F3400008B90020EFE600BF41
:104BC00094F8C00000F0010080F00100207600BFE2
:104BD00004F1B800FCF7CAFB0020A081144908804A
:104BE0001449088014490880144908801449088031
:104BF00014490880144908801449088094F8BC00BE
:104C000000F0010030B994F8BC0020F00200801CD4
:104C100084F8BC0000BF00BF00BF00202880032034
:104C2000BDE6000041542B43474D49000D0A0000EA
:104C3000A4000020A6000020A8000020AA00002058
:104C4000AC000020AE000020B0000020B200002028
:104C500041542B43474D4D0041542B43474D520087
:104C600041542B4347534E007CB505460C462888DB
:104C700040F2F942811A90427ED008DC70B1A0F275
:104C8000CD4028B30D2878D01F2877D141E10D29D8
:104C900075D01D2974D02B29F7D138E394F86C0016
:104CA000012851D000BF0020C4F8C00000BF082276
:104CB000FEA104F10800FCF7FBF80222FEA104F1BA
:104CC0000800FCF7F5F800BF40F2CD40288000BF97
:104CD00094F8C00000F0010030B994F8C000C0F3AF
:104CE000400008B900207CBD00BF94F86C0001288A
:104CF0002AD00820207600BF04F1B800FCF736FB6C
:104D00000020A081ED490880ED490880ED49088028
:104D1000ED490880ED490880ED490880ED4908809B
:104D2000ED49088094F8BC0000F0010030B994F817
:104D3000BC0020F00200801C84F8BC0000BF00BF53
:104D4000002028800220CEE7A08940F2015188424D
:104D50007ED100BF0020C4F8C00000BF0822DFA140
:104D600004F10800FCF7A4F80222DFA104F1080016
:104D7000FCF79EF8DD4904E035E136E000E3CAE1E6
:104D80004FE20868FBF7B2FA86B2D84832460168AB
:104D900004F10800FCF78CF80722D5A104F1080003
:104DA000FCF786F8D1494868FBF7A0FA86B2CF48ED
:104DB0003246416804F10800FCF77AF80122CEA1DE
:104DC00004F10800FCF774F80222BBA104F108000A
:104DD000FCF76EF8002240F20151204602F0E4F8A0
:104DE00000BF40F2DA40288000BF94F8C00000F015
:104DF000010030B994F8C000C0F3400008B90020A9
:104E000071E700BF94F8C00000F0010080F00100DD
:104E1000207600BF04F1B800FCF7A8FA0020A081BA
:104E2000A6490880A6490880A6490880A6490880A6
:104E3000A6490880A6490880A6490880A649088096
:104E400094F8BC0000F0010040B994F8BC0000E008
:104E500005E020F00200801C84F8BC008FE2A089ED
:104E600040F2025188427DD100BF0020C4F8C0004A
:104E700000BF9E4841696846FDF7A0F9082297A146
:104E800004F10800FCF714F86846FBF72FFA86B225
:104E90003246694604F10800FCF70AF8022292A1A2
:104EA00004F10800FCF704F890490868FBF71EFAC3
:104EB00086B28E483246016804F10800FBF7F8FF1D
:104EC00007228BA104F10800FBF7F2FF874948682D
:104ED000FBF70CFA86B285483246416804F10800B7
:104EE000FBF7E6FF012284A104F10800FBF7E0FFD5
:104EF000022271A104F10800FBF7DAFF002240F260
:104F00000251204602F050F800BF40F2EC402880E9
:104F100000BF94F8C00000F0010030B994F8C00060
:104F2000C0F3400008B90020DDE600BF94F8C000DF
:104F300000F0010080F00100207600BF04F1B8000D
:104F4000FCF714FA0020A0815C4908805C490880C5
:104F50005C4908805C4908805C4908805C4908809D
:104F60005C4900E00FE008805B49088094F8BC00D1
:104F700000F0010030B994F8BC0020F00200801C61
:104F800084F8BC00FBE1A08940F20451884262D160
:104F900000BF0020C4F8C00000BF54484169684603
:104FA000FDF70CF9082255A104F10800FBF780FF7A
:104FB0006846FBF79BF986B23246694604F1080061
:104FC000FBF776FF02223CA104F10800FBF770FF1B
:104FD000002240F20451204601F0E6FF00BF40F2FB
:104FE000F940288000BF94F8C00000F0010030B9FB
:104FF00094F8C000C0F3400008B9002073E600BF79
:1050000094F8C00000F0010080F00100207600BF9D
:1050100004F1B800FCF7AAF90020A0812749088014
:1050200027490880274908802749088027490880A0
:1050300027490880274908802749088094F8BC0040
:1050400000F0010030B994F8BC0020F00200801C90
:1050500084F8BC0093E1A08940F2035188427DD1DD
:1050600000BF0020C4F8C00000BF20484169684666
:10507000FDF7A4F8082219A104F10800FBF718FFB6
:105080006846FBF733F986B23246694604F10800F8
:10509000FBF70EFF022208A104F10800FBF708FF4E
:1050A000002240F2035120462EE0000041542B43E1
:1050B00050494E3F000000000D0A0000A4000020EF
:1050C000A6000020A8000020AA000020AC000020BC
:1050D000AE000020B0000020B200002041542B435D
:1050E0005042573D000000002C220000200A002002
:1050F000222C3132392C22002200000041542B4353
:105100005042523D0000000001F04EFF00BF40F24F
:105110000650288000BF94F8C00000F0010030B9AC
:1051200094F8C000C0F3400008B90020DBE500BFE0
:1051300094F8C00000F0010080F00100207600BF6C
:1051400004F1B800FCF712F90020A0818F49088013
:105150008F4908808F4908808F4900E015E008805A
:105160008E4908808E4908808E4908808E490880C3
:1051700094F8BC0000F0010030B994F8BC0020F0B5
:105180000200801C84F8BC00F9E0A08940F20551BF
:1051900088427CD100BF0020C4F8C00000BF0822B4
:1051A000AFF2A80104F10800FBF782FE7F484069D6
:1051B0004FF6FF7202EA10416846FCF7FFFF6846AF
:1051C000FBF794F886B23246694604F10800FBF713
:1051D0006FFE012276A104F10800FBF769FE734817
:1051E000406981B26846FCF7E9FF6846FBF77EF844
:1051F00086B23246694604F10800FBF759FE0222E6
:10520000AFF24C1104F10800FBF752FE002240F20D
:105210000551204601F0C8FE00BF40F2165028801C
:1052200000BF94F8C00000F0010030B994F8C0004D
:10523000C0F3400008B9002055E500BF94F8C00055
:1052400000F0010080F00100207600BF04F1B800FA
:10525000FCF78CF80020A0814C4908804C4908805C
:105260004C4908804C4908804C4908804C490880CA
:105270004C4908804C49088094F8BC0000F00100BB
:1052800040B994F8BC0020F00200801C00E002E06D
:1052900084F8BC0073E0A08940F2065188426ED1C8
:1052A00000BF0020C4F8C00000BF082241A104F1E3
:1052B0000800FBF7FDFD0122AFF2C41104F1080064
:1052C000FBF7F6FD39490868FBF710F886B2374856
:1052D0003246016804F10800FBF7EAFD0122AFF253
:1052E000E81104F10800FBF7E3FD0222AFF23821D8
:1052F00004F10800FBF7DCFD002240F206512046D5
:1053000001F052FE00BF40F22450288000BF94F804
:10531000C00000F0010030B994F8C000C0F34000B4
:1053200008B90020DFE400BF94F8C00000F00100DD
:1053300080F00100207600BF04F1B800FCF716F8F9
:105340000020A08111490880114908801149088076
:1053500011490880114908801149088011490880C5
:105360001149088094F8BC0000F0010030B994F8AD
:10537000BC0020F00200801C84F8BC0000BF00BF0D
:1053800000BF002028800320ADE40000A40000201E
:10539000A6000020A8000020AA000020AC000020E9
:1053A000AE000020B0000020B2000020200A002043
:1053B0002C00000041542B435042463D00000000A9
:1053C00070B505460C46288840F2C232811A9042D8
:1053D0007ED006DC60B1A0F29E30F8B1152878D1FD
:1053E000BCE0122976D0282975D03529F7D1BAE248
:1053F00000BF0020C4F8C00000BF0822F8A104F1DB
:105400000800FBF755FD0222F8A104F10800FBF7A4
:105410004FFD00BF40F29E30288000BF94F8C000CE
:1054200000F0010030B994F8C000C0F3400008B9A2
:10543000002070BD00BF94F8C000C0F3400050B31E
:105440000120207600BF04F1B800FBF78FFF002099
:10545000A081E7490880E7490880E7490880E749D3
:105460000880E7490880E7490880E7490880E7495C
:10547000088094F8BC0000F0010030B994F8BC003A
:1054800020F00200801C84F8BC0000BF00BF002098
:1054900028800220CDE7A08940F2011188427DD109
:1054A00094F86C00022831D094F86C0006282DD0B6
:1054B00000BF04F1B800FBF759FF0020A081CC49E0
:1054C0000880CC490880CC490880CC49088003E09A
:1054D00084E081E22AE1DBE1C9490880C94908800A
:1054E000C9490880C949088094F8BC0000F001004F
:1054F00030B994F8BC0020F00200801C84F8BC0095
:1055000000BF00BF00202880022092E700BF0020DB
:10551000C4F8C00000BF0822BDA104F10800FBF7D9
:10552000C7FCBE490868FAF7E1FE86B2BB483246BE
:10553000016804F10800FBF7BBFC0222ABA104F1F7
:105540000800FBF7B5FC002240F20111204601F0F3
:105550002BFD00BF40F2B330288000BF94F8C0009C
:1055600000F0010030B994F8C000C0F3400008B961
:1055700000205EE700BF94F8C00000F0010050B1C9
:1055800014F8BC0F20F00400001D2070207820F0DB
:10559000080004F8BC0994F8C00000E057E0C0F32C
:1055A000400050B114F8BC0F20F0040020702078A7
:1055B00020F00800083004F8BC0994F8C00000F09E
:1055C000010080F001002076207EE0B92068944937
:1055D000086000BF40F2C230288000BFC120005DDB
:1055E000C0F3C00020B1C120005DC0F3001048B975
:1055F00020688B490968401A41F28831884201D8F5
:10560000002016E700BF00BF04F1B800FBF7AEFEB4
:105610000020A08176490880764908807649088074
:10562000764908807649088076490880764908805E
:105630007649088094F8BC0000F0010030B994F875
:10564000BC0020F00200801C84F8BC00C3E1A089EB
:10565000B0F5817F76D194F86C0003282CD094F8B3
:105660006C00072828D000BF04F1B800FBF77EFECD
:105670000020A0815E4908805E4908805E4908805C
:105680005E4908805E4908805E4908805E4908805E
:105690005E49088094F8BC0000F0010030B994F82D
:1056A000BC0020F00200801C84F8BC0000BF00BFDA
:1056B000002028800220BCE600BF0020C4F8C00003
:1056C00000BF082252A104F10800FBF7F1FB534987
:1056D0000868FAF70BFE86B250483246016804F1BA
:1056E0000800FBF7E5FB01224EA104F10800FBF7DF
:1056F000DFFB4A494868FAF7F9FD86B24748324667
:10570000416804F10800FBF7D3FB022237A104F142
:105710000800FBF7CDFB00224FF48171204601F019
:1057200043FC00BF4FF47570288000BF94F8C000A0
:1057300000F0010038B994F8C000C0F3400010B97F
:10574000002076E670E000BF94F8C00000F0010091
:1057500050B114F8BC0F20F01000103020702078E9
:1057600020F0200004F8BC0994F8C000C0F3400009
:1057700050B114F8BC0F20F010002070207820F0F9
:105780002000203004F8BC0994F8C00000F00100AB
:1057900080F00100207600BF04F1B800FBF7E6FDC1
:1057A0000020A0811249088012490880124908800F
:1057B000124908801249088012490880124908805D
:1057C0001249088094F8BC0000F0010030B994F848
:1057D000BC0020F00200801C84F8BC00FBE000004C
:1057E00041542B4350494E3F000000000D0A000079
:1057F000A4000020A6000020A8000020AA0000208D
:10580000AC000020AE000020B0000020B20000205C
:1058100041542B4350494E3D00000000200A002017
:10582000B40000202C000000A08940F2031188423F
:1058300066D100BF0020C4F8C00000BF102269A1DB
:1058400004F10800FBF734FB6B490868FAF74EFDDA
:1058500086B269483246016804F10800FBF728FB6C
:10586000012266A104F10800FBF722FB0222AFF23D
:10587000840104F10800FBF71BFB002240F2031136
:10588000204601F091FB00BF40F2EA30288000BFC3
:1058900094F8C00000F0010030B994F8C000C0F3E3
:1058A000400008B90020C4E500BF94F8C00000F033
:1058B000010080F00100207600BF04F1B800FBF782
:1058C00055FD0020A0814E4908804E4908804E4970
:1058D00008804E4908804E4908804E4908804E494C
:1058E00008804E49088094F8BC0000F0010030B9EF
:1058F00094F8BC0020F00200801C84F8BC006AE030
:10590000A089B0F5827F66D100BF0020C4F8C00036
:1059100000BF102242A104F10800FBF7C9FA364982
:105920000868FAF7E3FC86B233483246016804F1AE
:105930000800FBF7BDFA012230A104F10800FBF7D3
:10594000B7FA0222AFF25C1104F10800FBF7B0FADB
:1059500000224FF48271204601F026FB00BF40F286
:10596000F730288000BF94F8C00000F0010030B983
:1059700094F8C000C0F3400008B9002059E500BF0A
:1059800094F8C00000F0010080F00100207600BF14
:1059900004F1B800FBF7EAFC0020A0811849088058
:1059A0001849088018490880184908801849088053
:1059B00018490880184908801849088094F8BC00E4
:1059C00000F0010030B994F8BC0020F00200801C07
:1059D00084F8BC0000BF00BF00BF00202880032067
:1059E00027E5000041542B434C434B3D22534322B7
:1059F0002C302C2200000000200A00202200000091
:105A0000A4000020A6000020A8000020AA0000207A
:105A1000AC000020AE000020B0000020B20000204A
:105A200041542B434C434B3D225343222C312C22D7
:105A300000000000FEB505460C461A200290FD4805
:105A4000C6682888B0F5906F7ED008DC90B1A0F2CF
:105A50005C4048B3092878D01C2877D1FDE0A0F23B
:105A60009640002873D00E2872D01C2871D02928A7
:105A7000F3D121E394F86C00012851D000BF00203D
:105A8000C4F8C00000BF0822EBA104F10800FBF736
:105A90000FFA0222EBA104F10800FBF709FA00BF9C
:105AA00040F25C40288000BF94F8C00000F0010084
:105AB00030B994F8C000C0F3400008B90020FEBD22
:105AC00000BF94F86C0001282AD00820207600BF7F
:105AD00004F1B800FBF74AFC0020A081DA490880F5
