:020000040800F2
:10000000B0B400207D020008854A0008874A000835
:100010008B4A00088F4A0008934A0008000000003D
:10002000000000000000000000000000C101000806
:10003000974A000800000000150200089B4A0008CB
:10004000970200089702000897020008970200082C
:10005000970200089702000897020008970200081C
:1000600097020008970200089702000899450008C7
:10007000A5450008B1450008BD450008C945000870
:10008000D5450008E14500089702000897020008DE
:1000900097020008970200089702000897020008DC
:1000A00097020008970200089702000897020008CC
:1000B00097020008970200089702000897020008BC
:1000C00097020008970200089702000897020008AC
:1000D00097020008F141000811420008354200086B
:1000E000970200089702000897020008970200088C
:1000F000970200089702000897020008ED450008E3
:10010000970200089702000897020008970200086B
:10011000594200087D420008970200089702000833
:10012000F9450008034600080F4600081B46000872
:100130002746000897020008970200089702000867
:10014000970200089702000897020008970200082B
:10015000334600083F4600084B4600089F4200080F
:10016000970200089702000897020008970200080B
:10017000970200089702000897020008000000009C
:100180009702000897020008C3420008E7420008EF
:1001900097020008970200089702000897020008DB
:1001A000970200089702000897020008DFF80CD0B9
:1001B0000EF0D4FB004800476D460008B0B40020A4
:1001C0002B4B19680868B0E8F04F80F30988BFF33B
:1001D0006F8F4FF0000080F311887047000000001F
:1001E00006480068006880F3088862B661B6BFF30D
:1001F0004F8FBFF36F8F00DF00BF00BF08ED00E03F
:10020000DFF80C00016841F470010160704700BF25
:1002100088ED00E0EFF30980BFF36F8F144B1A688D
:100220001EF0100F08BF20ED108A20E9F04F10607B
:1002300008B44FF0500080F31188BFF34F8FBFF325
:100240006F8F0CF092FE4FF0000080F3118808BC15
:1002500019680868B0E8F04F1EF0100F08BFB0EC46
:10026000108A80F30988BFF36F8F704700BF00BF0B
:1002700050090020EFF305807047000006488047D2
:1002800006480047FEE7FEE7FEE7FEE7FEE7FEE77B
:10029000FEE7FEE7FEE7FEE7A54A0008AD0100081D
:1002A000704770B5044601F02DFD4FF47A71B0FB34
:1002B000F1F5284600F070F900222146501E00F0AA
:1002C000F5F8002070BD10B56248006840F4007079
:1002D000604908600846006840F48060086008468D
:1002E000006840F480700860032000F0CDF80F2013
:1002F000FFF7D7FFFFF7D4FF002010BD704710B500
:100300004FF0FF305449086000200860401E091D6E
:10031000086000200860401E4F4910390860002026
:100320000860401E091D086000200860401E091D6D
:10033000086000200860FFF7E1FF002010BD47487B
:100340000068401C45490860704744480068704791
:1003500031B5002403F078F8044600BF03F074F8C8
:10036000001B00998842F9D338BD4FF0E0200069A6
:1003700020F002004FF0E021086170474FF0E020CC
:10038000006940F002004FF0E021086170474FF033
:100390008270704732480068000C7047304800682F
:1003A000C0F30B0070472E48406840F001002C4914
:1003B000486070472A48406820F00100284948609A
:1003C00070472748406840F0020025494860704760
:1003D0002348406820F002002149486070472048C7
:1003E000406840F004001E49486070471C4840685F
:1003F00020F004001A4948607047012090FAA0F1EB
:10040000B1FA81F1174A02EB8101C1F8000470478B
:100410000020012191FAA1F1B1FA81F1114A02EB18
:100420008101C1F8000470470120010291FAA1F195
:10043000B1FA81F10B4A42F82100704700204FF4D5
:10044000807191FAA1F1B1FA81F1064A42F82100D6
:1004500070470000003C02402038024000000020AD
:10046000002004E00000274210B5002807DA0A0740
:10047000140EBF4A00F00F031B1FD45403E00A07F9
:10048000130EBC4A135410BD00BF00F00702B84B56
:100490000C3B19684FF6FF031940B74B0B4343EA77
:1004A0000221B34B0C3B196000BF70472DE9F05F90
:1004B00080460D461646002700F054F90746394697
:1004C0002A46334601F00700C0F1070ABAF1040FCB
:1004D00002D94FF0040A01E0C0F1070AD14600F149
:1004E000040ABAF1070F02D24FF0000A01E0A0F1AE
:1004F000030AD4464FF0010A0AFA09FAAAF1010ADE
:100500000AEA020A0AFA0CFA4FF0010B0BFA0CFB8A
:10051000ABF1010B0BEA030B4AEA0B042146404600
:10052000FFF7A2FFBDE8F09F00BF00F01F0201210E
:1005300091404209920002F1E022C2F8001100BF8E
:10054000704700BF00F01F02012191408B4A430910
:1005500042F8231000BF704700BF00BF00BF00BFBC
:1005600000BFBFF34F8F00BF00BF00BF80480C38F3
:10057000006800F4E06080490843001D7C490C39A4
:10058000086000BF00BF00BFBFF34F8F00BF00BFB8
:1005900000BF00E000BFFDE770B504462546681EB9
:1005A000B0F1807F01D301200FE0681E4FF0E02101
:1005B00048610F214FF0FF30FFF756FF00204FF04A
:1005C000E021886107200861002070BD4178684AF9
:1005D000803211600178F9B1121D41681160017B10
:1005E0000907C27A41EA0261827A41EAC241427B4A
:1005F00041EA8241827B41EA4241C27B41EA0241B7
:10060000427A41EA0221027A41EA42010278114328
:10061000574A8832116005E00021554A8432116042
:10062000121D1160704710B500F09CF810BD2DE947
:10063000F04304462046002808DA4D4F00F00F0C26
:10064000ACF1040C17F80C703F0902E0494F3F5C15
:100650003F093D460E4606F00700C0F10708B8F115
:10066000040F02D94FF0040801E0C0F10708C446A6
:1006700000F10408B8F1070F02D24FF0000801E0C2
:10068000A0F10308474625FA07F84FF0010909FAD7
:100690000CF9A9F1010908EA0908C2F800804FF035
:1006A000010808FA07F8A8F1010808EA0508C3F8E4
:1006B000008000BFBDE8F08300BF00F01F020121F1
:1006C00091402E4A8032430942F8231000BF704700
:1006D00010B501460846294A8032430952F82320C2
:1006E00000F01F040123A3401A400AB1012200E0D8
:1006F0000022104610BD00BF00F01F0201219140F2
:100700001F4A430942F8231000BF704710B5014645
:1007100008461B4A8032430952F8232000F01F0488
:100720000123A3401A400AB1012200E00022104632
:1007300010BD042808D14FF0E021096941F00401FF
:100740004FF0E022116107E04FF0E021096921F04C
:1007500004014FF0E02211617047704710B5FFF7B8
:10076000FCFF10BD02480C380068C0F3022070473F
:1007700018ED00E000E400E00000FA0580E100E090
:1007800080E200E00146087810381823B0FBF3F24D
:10079000F648805C4865032A05D908686FF30900AC
:1007A000001D086503E008686FF309000865086D1F
:1007B000704770B5044600250CB9012070BD606A11
:1007C00000B100BF022084F8350020680568E848C1
:1007D0000540D4E901010843E16808432169084361
:1007E00061690843A1690843E1690843216A084334
:1007F0000543606A042803D1D4E90B01084305438B
:10080000206805602068456925F00705606A054392
:10081000606A042801D1A06A05432068456120462A
:10082000FFF7B0FF0020E064012084F835000020CD
:10083000C4E770B504460CB9012070BD94F83500CA
:10084000022801D10120F8E72068006820F00100AB
:1008500021680860002021680860216848602168DC
:1008600088602168C860216808612120216848618A
:100870002046FFF787FF054694F854103F20884034
:10088000A8600020E06484F8350000BF84F83400DC
:1008900000BF00BFD1E730B50468246824F4802489
:1008A00005682C60046863608468402C04D1046887
:1008B000A2600468E16003E00468A1600468E2608B
:1008C00030BD2DE9F04104460D4616461F4600BFD7
:1008D00094F83400012802D10220BDE8F081012003
:1008E00084F8340000BF022084F8350020680068D6
:1008F00020F00100216808603B4632462946204628
:10090000FFF7C9FF2068006840F001002168086017
:100910000020E2E72DE9F04104460D4616461F4649
:1009200000BF94F83400012802D10220BDE8F08114
:10093000012084F8340000BF022084F835002068CC
:10094000006820F00100216808603B4632462946D5
:100950002046FFF7A0FF2068006840F01E002168D5
:1009600008602068406940F0800021684861206884
:10097000006840F00100216808600020D6E770B5EB
:10098000044600252068006820F001002168086006
:1009900002F05AFD054612E002F056FD401BB0F58C
:1009A0007A7F0CD9E06C40F02000E06400BF0020AA
:1009B00084F8340000BF032084F8350070BD20683F
:1009C000006800F001000028E6D100BF84F8340080
:1009D00000BF012084F835000020EFE72DE9F84F33
:1009E00004460F46164600200090256D2FB994F856
:1009F0005410202000FA01F804E094F8541010205C
:100A000000FA01F802F020FD009064E0286814F874
:100A1000542F0821914000EA01092868227855499D
:100A2000914000EA010A286814F854295149C91C68
:100A3000914000EA010BB9F1000F05D1BAF1000FA6
:100A400002D1BBF1000F2FD0B9F1000F08D0E06C3C
:100A500040F00100E06494F8541008208840A86039
:100A6000BAF1000F08D0E06C40F00200E06494F8A6
:100A7000541040488840A860BBF1000F09D0E06CDA
:100A800040F00400E06494F854103A48C01C8840D8
:100A9000A860042084F8350000BF002084F83400EA
:100AA00000BF0120BDE8F88F701CA0B12EB102F08C
:100AB000CBFC0099401AB0420DD9E06C40F0200008
:100AC000E064032084F8350000BF002084F834007F
:100AD00000BF0320E6E7286800EA0800002895D058
:100AE0001FBB94F8541030208840A860206800682C
:100AF00000F4802088B12068006800F4002018B954
:100B0000112084F835000BE02068006800F4002014
:100B100030B1212084F8350002E0112084F835003E
:100B200000BF002084F834001EE094F85410102018
:100B30008840A8602068006800F4802088B12068A0
:100B4000006800F4002018B9312084F835000BE06B
:100B50002068006800F4002030B1412084F835009E
:100B600002E0312084F8350000209BE7C0EC00084B
:100B70003F8010F00100800070B50446256D2868A4
:100B800094F8542008219140084000B32068006880
:100B900000F00400D8B12068006820F0040021684B
:100BA000086094F8541008208840A860E06C40F079
:100BB0000100E064042084F8350000BF002084F8C0
:100BC000340000BFA06C10B12046A16C8847286893
:100BD00094F8542070499140084000B3206840695F
:100BE00000F08000D8B12068406920F080002168C2
:100BF000486194F8541068488840A860E06C40F060
:100C00000200E064042084F8350000BF002084F86E
:100C1000340000BFA06C10B12046A16C8847286842
:100C200094F854205C49C91C9140084008B32068DE
:100C3000006800F00200E0B12068006820F00200C7
:100C40002168086094F854105348C01C8840A8607C
:100C5000E06C40F00400E064042084F8350000BF3C
:100C6000002084F8340000BFA06C10B12046A16CB5
:100C70008847286894F85420102191400840C0B358
:100C80002068006800F0080098B32068006800F44D
:100C90008020B0B194F8541010208840A8602068DB
:100CA000006800F4002018B9312084F835001BE0FA
:100CB0002068006800F40020B0B1412084F83500BD
:100CC00012E02068006800F4807028B9206800688D
:100CD00020F008002168086094F854101020884023
:100CE000A860312084F83500206C10B12046216CBA
:100CF0008847286894F8542020219140084018B370
:100D00002068006800F01000F0B12068006800F46E
:100D10008020D0B194F8541020208840A86020682A
:100D2000006800F4002028B9606C68B12046616C4E
:100D3000884729E02068006800F4002020B1E06BBB
:100D400010B12046E16B88471EE02068006800F47F
:100D5000807028B92068006820F0100021680860C1
:100D600094F8541020208840A860E06CE0641120C2
:100D700084F8350000BF002084F8340000BFE06B29
:100D800010B12046E16B884770BD014691F83500EF
:100D900070470146C86C704701008000F8B50246F4
:100DA0000B460025002400200021E4E0012606FA7D
:100DB00001F51E6806EA0504AC4271D15E68022E98
:100DC00002D05E68122E13D1CF0802F1200656F829
:100DD00027004E07F70E0F26BE40B0434F07FF0E09
:100DE0001E69BE403043CF0802F1200646F82700B6
:100DF00010684F000326BE40B0431E7906F003067C
:100E00004F00BE40304310605E68012E08D05E681F
:100E1000022E05D05E68112E02D05E68122E13D10C
:100E200090684F000326BE40B0434F00DE68BE40CE
:100E300030439060506801268E40B0431E79C6F35F
:100E400000168E4030435060D0684F000326BE40ED
:100E5000B0434F009E68BE403043D0605E6806F0ED
:100E60008056B6F1805FA8D100BFB54E366846F413
:100E70008046B34F3E603E46366806F48046009694
:100E800000BF00BFAF4E8F0856F827008E07370F00
:100E90000F26BE40B043AC4EB24202D100262EE037
:100EA00068E0AA4EB24201D1012628E0A84EB24223
:100EB00001D1022623E0A74EB24201D103261EE053
:100EC000A54EB24201D1042619E0A44EB24201D18E
:100ED000052614E0A24EB24201D106260FE0A14E33
:100EE000B24201D107260AE09F4EB24201D1082644
:100EF00005E09E4EB24201D1092600E00A268F0786
:100F00003F0FBE4030438F4E8F0846F82700984E63
:100F10003068A0435E6806F48036B6F5803F00D1A5
:100F20002043934E3060361D3068A0435E6806F45F
:100F30000036B6F5003F00D120438D4E361D30609F
:100F4000361D3068A0435E6806F48016B6F5801F33
:100F500000D12043864E08363060361D3068A043ED
:100F60005E6806F40016B6F5001F00D12043804EDF
:100F70000C363060491C1029FFF418AFF8BDF0B5ED
:100F80000C4600250022002300219CE0012606FAE1
:100F900001F504EA0502AA427DD106684FEA410C38
:100FA000032707FA0CF7BE430660CF0800F12006BE
:100FB00056F827604F074FEAD76C0F2707FA0CF750
:100FC000BE434FEAD10C00F1200747F82C60866839
:100FD0004FEA410C032707FA0CF7BE4386604768C7
:100FE00001268E40B7434760C6684FEA410C03278D
:100FF00007FA0CF7BE43C660524E8F0856F82730EA
:101000008E07370F0F26BE4033404F4EB04201D1FE
:1010100000262DE04D4EB04201D1012628E04C4E75
:10102000B04201D1022623E04A4EB04201D103264C
:101030001EE0494EB04201D1042619E0474EB042AD
:1010400001D1052614E0464EB04201D106260FE03C
:10105000444EB04201D107260AE0434EB04201D1CE
:10106000082605E0414EB04201D1092600E00A26DB
:101070008F073F0FBE409E4224D18E07370F0F26A9
:1010800006FA07F32F4E8F0856F827609E432D4F20
:101090004FEA910C00E015E047F82C60344E3668BA
:1010A0009643334F3E603E1D366896433F1D3E607B
:1010B0003E1D366896433F1D3E603E1D3668964392
:1010C0003F1D3E60491C1029FFF460AFF0BD024691
:1010D00013690B400BB1012000E0002070470AB1FA
:1010E000816101E00B048361704742694A404261BB
:1010F000704708B502464FF48030009000980843CE
:1011000000900098D061D1610098D061D0690090C2
:10111000D06900F4803008B1002008BD0120FCE750
:10112000704710B50446124814300068204028B1BA
:101130000F48143004602046FFF7F2FF10BD000096
:1011400044380240083801400000024000040240D8
:1011500000080240000C024000100240001402404F
:1011600000180240001C02400020024000240240FF
:10117000003C014010B500240120410291FAA1F188
:10118000B1FA81F1CF4A02EB8101C1F8800002F08F
:101190005BF9044607E002F057F9001BB0F57A7FCF
:1011A00001D9032010BDC8484068C0F3C000002822
:1011B000F1D00020F6E710B5002400204FF40071B4
:1011C00091FAA1F1B1FA81F1BE4A02EB8101C1F8B5
:1011D000800002F039F9044607E002F035F9001BFF
:1011E000B0F57A7F01D9032010BDB7484068C0F33D
:1011F000C0000028F1D100BFF6E70120410291FABA
:10120000A1F1B1FA81F1AF4A42F821007047002004
:101210004FF4007191FAA1F1B1FA81F1A94A42F8B3
:1012200021007047A848006800F44040704738B576
:101230000546002400BFA548006840F08050A3493F
:1012400008600846006800F08050009000BF00BFB2
:101250009E483838006800F00C0008284BD0002069
:101260009B49086602F0F0F8044606E002F0ECF84C
:10127000001B642801D9032038BD94484038006819
:10128000C0F340600028F1D100BF8F48006820F40F
:10129000404028438C4908600846006800F44040FC
:1012A000009000BF00BF01208949086602F0CCF819
:1012B000044606E002F0C8F8001B642801D90320A8
:1012C000DAE7824840380068C0F340600028F1D077
:1012D00002F0BAF8044607E002F0B6F8001BB0F5D9
:1012E0007A7F01D90320C7E777484068C0F3803090
:1012F0000028F1D001E00120BEE70020BCE738B5AE
:10130000002400BF7148006840F080506F490860B9
:101310000846006800F08050009000BF00BF012028
:10132000010491FAA1F1B1FA81F1664A42F8210073
:1013300002F08AF8044607E002F086F8001BB0F5D8
:101340007A7F01D9032038BD5F48406800F48030BF
:10135000B0F5803FF0D10120410491FAA1F1B1FA3A
:1013600081F1584A42F8210002F06EF8044607E085
:1013700002F06AF8001BB0F57A7F01D90320E2E79A
:101380005148406800F40030B0F5003FF0D1002033
:10139000D9E738B5002400BF4C48006840F08050C1
:1013A0004A4908600846006800F08050009000BF7D
:1013B00000BF00204FF4003191FAA1F1B1FA81F1A0
:1013C000404A42F8210002F03FF8044607E002F0EC
:1013D0003BF8001BB0F57A7F01D9032038BD3A48AD
:1013E000406800F40030B0F5003FF0D000204FF42A
:1013F000803191FAA1F1B1FA81F1324A42F821002B
:1014000002F022F8044607E002F01EF8001BB0F5D7
:101410007A7F01D90320E1E72B48406800F480304F
:10142000B0F5803FF0D00020D8E7F8B505460E466D
:101430000024002700BF2548006840F08050234961
:1014400008600846006800F08050009000BF00BFB0
:101450001D48406840F440201B4948600846006829
:1014600040F44020086001F0EFFF074607E001F07C
:10147000EBFFC01BB0F57A7F01D90320F8BD1248FD
:10148000406800F44020B0F5402FF0D00E480468CA
:1014900040F6034084432C430B4804600D48006829
:1014A00040F004000B490860012E01D130BF00E07C
:1014B00020BF0848006820F00400064908600020AA
:1014C000DCE7000000000E4200700040403802409F
:1014D0000000474210ED00E0704738B50446002593
:1014E000207800F00100002866D0F648006800F07F
:1014F0000C0004280DD0F348006800F00C00082808
:1015000013D1F048001F006800F48000B0F5800F90
:101510000BD1EC4808380068C0F3404000284BD09D
:101520006068002848D1012038BD0020E549891FA6
:10153000087001F089FF054608E001F085FF401BB7
:1015400041F28831884201D90320EDE7DD480838AF
:101550000068C0F340400028EFD12079D949891FA5
:1015600008706068A0B101F06FFF054608E001F067
:101570006BFF401B41F28831884201D90320D3E739
:10158000D04808380068C0F340400028EFD013E08E
:1015900001F05AFF054608E001F056FF401B41F2FA
:1015A0008831884201D90320BEE7C6480838006860
:1015B000C0F340400028EFD1207800F0020002285C
:1015C00069D1C048006800F00C0058B1BD480068FF
:1015D00000F00C00082821D1BA48001F006800F470
:1015E0008000D8B9B74808380068C0F3400020B17F
:1015F000E068012801D0012096E7B2480838006869
:1016000020F0F800F82292FAA2F2B2FA82F22169EE
:1016100091400843AB49083908603CE0E06828B3D2
:101620000120A949086001F00FFF054606E001F01E
:101630000BFF401B642801D9032075E7A148083837
:101640000068C0F340000028F1D09E4808380068C8
:1016500020F0F800F82292FAA2F2B2FA82F221699E
:101660009140084397490839086014E000209649E2
:10167000086001F0E9FE054606E001F0E5FE401BCA
:10168000642801D903204FE78E4808380068C0F36A
:1016900040000028F1D1207800F0080008282CD163
:1016A0006069A8B101208949086001F0CDFE0546B6
:1016B00006E001F0C9FE401B642801D9032033E78E
:1016C00080486C300068C0F340000028F1D014E07E
:1016D00000207E49086001F0B7FE054606E001F0F3
:1016E000B3FE401B642801D903201DE775486C3008
:1016F0000068C0F340000028F1D1207800F0040019
:1017000004286DD100BF6F483830006840F0805029
:101710006C49383108600846006800F0805000903D
:1017200000BF00BF6A48006840F4807068490860E4
:1017300001F08AFE054606E001F086FE401B6428A3
:1017400001D90320F0E66248006800F480700028A8
:10175000F2D000205B496831087001F075FE054643
:1017600008E001F071FE401B41F28831884201D946
:101770000320D9E6534868300068C0F340000028D1
:10178000EFD1207A4F4968310870A068A0B101F00C
:101790005BFE054608E001F057FE401B41F2883130
:1017A000884201D90320BFE6464868300068C0F38C
:1017B00040000028EFD013E001F046FE054608E0A7
:1017C00001F042FE401B41F28831884201D90320DA
:1017D000AAE63C4868300068C0F340000028EFD11A
:1017E000A069E8B33748006800F00C00082872D000
:1017F000A069022850D100203349086601F024FE78
:10180000054606E001F020FE401B642801D90320B4
:101810008AE62C4808380068C0F340600028F1D1FF
:10182000D4E90701084347F6C07292FAA2F2B2FA6D
:1018300082F2616A914008430122A16AC2EB510120
:101840004FF4403292FAA2F2B2FA82F29140084387
:101850004FF0706292FAA2F2B2FA82F2E16A00E00C
:101860003BE0914008431749091F086001201649D1
:10187000086601F0E9FD054606E001F0E5FD401BC4
:10188000642801D903204FE60E4808380068C0F3E9
:1018900040600028F1D020E000200B49086601F0EC
:1018A000D3FD054606E001F0CFFD401B642801D9B9
:1018B000032039E6034808380068C0F34060002878
:1018C000F1D10AE00838024000004742800E47424A
:1018D00000700040FFE7012026E6002024E670B5F6
:1018E00004460E460025FE48006800F00F00B04296
:1018F0006FD2FB490E700846006800F00F00B0423E
:1019000001D0012070BD207800F00200022807D12C
:10191000F448006820F0F000A1680843F14908602D
:10192000207800F0010000283ED06068012807D12F
:10193000EC4808380068C0F34040B8B90120E1E73E
:101940006068022802D06068032807D1E54808389B
:101950000068C0F3406048B90120D3E7E148083887
:101960000068C0F3400008B90120CBE7DD480068FB
:1019700020F0030061680843DA49086001F064FD63
:1019800005466068012810D108E001F05DFD401BAC
:1019900041F28831884201D90320B3E7D148006879
:1019A00000F00C000428F0D1CDE06068022811D1CD
:1019B00008E001F049FD401B41F28831884201D91D
:1019C00003209FE7C748006800F00C000828F0D10A
:1019D000B9E024E06068032810D108E001F034FD8C
:1019E000401B41F28831884201D903208AE7BD4873
:1019F000006800F00C000328F0D1A4E008E001F03A
:101A000023FD401B41F28831884201D9032079E748
:101A1000B448006800F00C000028F0D193E0207872
:101A200000F00200022807D1AE48006820F0F00064
:101A3000A1680843AB490860207800F00100002845
:101A400077D06068012807D1A64808380068C0F33D
:101A50004040B8B9012055E76068022802D06068AC
:101A6000032807D19F4808380068C0F3406048B990
:101A7000012047E79B4808380068C0F3400008B9D8
:101A800001203FE79748006820F0030061680843A1
:101A90009449086001F0D8FC05466068012810D11F
:101AA00008E001F0D1FC401B41F28831884201D9A5
:101AB000032027E78B48006800F00C000428F0D1D1
:101AC00037E06068022810D108E001F0BDFC401B3F
:101AD00041F28831884201D9032013E78148006828
:101AE00000F00C000828F0D123E06068032810D132
:101AF00008E001F0A9FC401B41F28831884201D97D
:101B00000320FFE67748006800F00C000328F0D1BE
:101B10000FE008E001F098FC401B41F28831884258
:101B200001D90320EEE66F48006800F00C000028A1
:101B3000F0D16B490E700846006800F00F00B0420B
:101B400001D00120DEE6207800F00400042807D14F
:101B50006448006820F4E050E16808436149086087
:101B6000207800F00800082808D15E48006820F4BA
:101B70006040216940EAC1005A4908600F20FEF721
:101B800090FB0020BEE670B586B006460C461546B2
:101B900036BB00BF53482830006840F0010051496F
:101BA000283108600846006800F00100009000BF7E
:101BB00000BF8815019002200290032004900020AD
:101BC0000390059001A94848FFF7E8F845480068E8
:101BD00020F0EC6044EA050108434249086025E032
:101BE00000BF40482830006840F004003D492831DB
:101BF00008600846006800F00400009000BF00BFC5
:101C000048150190022002900320049000200390C8
:101C1000059001A93548FFF7C1F83248006820F067
:101C2000784044EAC50108432E49086006B070BDFB
:101C300001202F49C864704700202D49C8647047AF
:101C400070B50021002200230020264C246804F0F7
:101C50000C0424B1042C04D0082C4FD103E02548F7
:101C60004EE025484CE01F4C241F246804F03F013F
:101C70001C4C241F246804F4800484B11E4CB4FB63
:101C8000F1F5184C241F246847F6C076344096FAC4
:101C9000A6F6B6FA86F6F44005FB04F20FE0154C02
:101CA000B4FBF1F50F4C241F246847F6C07634408E
:101CB00096FAA6F6B6FA86F6F44005FB04F2094C4D
:101CC000241F246804F440344FF4403595FAA5F5F8
:101CD000B5FA85F5EC40641C6300B2FBF3F00FE04D
:101CE000003C024008380240000002400008024068
:101CF000000047420024F40000127A007E4800BF32
:101D000000BF70BD10B5FFF79BFF7C49096801F06B
:101D1000F001F02292FAA2F2B2FA82F2D140784AAD
:101D2000515CC840774908600846006810BD10B58E
:101D3000FFF7E8FF7149096801F4E0514FF4E05200
:101D400092FAA2F2B2FA82F2D1406D4A515CC840D6
:101D500010BD10B5FFF7D6FF6849096801F460416E
:101D60004FF4604292FAA2F2B2FA82F2D140644A8F
:101D7000515CC84010BD0F210160604908390968F5
:101D800001F48021B1F5802F02D1052141600CE0E2
:101D90005A490839096801F48031B1F5803F02D110
:101DA0000121416001E0002141605449083909687E
:101DB00001F0010111B10121C16001E00021C16008
:101DC0004E490839096801F0F801F82292FAA2F2A6
:101DD000B2FA82F2D140016148496831096801F0E4
:101DE0000401042902D1052181600AE043496831D8
:101DF000096801F0010111B10121816001E00021B8
:101E000081603E496C31096801F0010111B1012185
:101E1000416101E00021416138490839096801F058
:101E20008071B1F1807F02D10221816101E0012145
:101E300081613249091F096801F48002C2612F499A
:101E4000091F096801F03F0202622C49091F096855
:101E500047F6C072114092FAA2F2B2FA82F2D14071
:101E600041622649091F096801F4403101F58031BA
:101E700049004FF4403292FAA2F2B2FA82F2D14013
:101E800081621E49091F096801F070614FF070629C
:101E900092FAA2F2B2FA82F2D140C16270470F22E6
:101EA0000260164A126802F003024260134A126886
:101EB00002F0F0028260114A126802F4E052C2603D
:101EC0000E4A126802F46042D20802610E4A126899
:101ED00002F00F020A607047704710B50748001DF6
:101EE000006800F08000802805D1FFF7F5FF802012
:101EF0000249891D087010BD0024F4000838024012
:101F0000C8EC000824090020003C02402DE9F04103
:101F1000044600252068056925F44055E06805431E
:101F2000206805612068C56849F20C608543216915
:101F3000A068084361690843E169084305432068D4
:101F4000C5602068456925F44075A069054320688F
:101F50004561E069B0F5004F72D1FE4920688842C2
:101F600003D0FD492068884234D1FFF7F2FE00EB30
:101F7000C00101EB001061684900B0FBF1F0642181
:101F8000B0FBF1F6FFF7E5FE00EBC00101EB00103E
:101F900061684900B0FBF1F7FFF7DBFE00EBC00121
:101FA00001EB001061684900B0FBF1F06421B0FB67
:101FB000F1F000EBC00101EB0010A7EB8000322133
:101FC00001EB00106421B0FBF1F066F31F102168F3
:101FD0008860A6E0FFF7ABFE00EBC00101EB00104C
:101FE00061684900B0FBF1F06421B0FBF1F6FFF746
:101FF0009EFE00EBC00101EB001061684900B0FBE0
:10200000F1F7FFF794FE00EBC00101EB00106168EF
:102010004900B0FBF1F06421B0FBF1F000EBC0012E
:1020200001EB0010A7EB8000322101EB00106421CE
:10203000B0FBF1F066F31F102168886071E0FFE7E4
:10204000C4492068884203D0C3492068884234D1FB
:10205000FFF77FFE00EBC00101EB00106168890013
:10206000B0FBF1F06421B0FBF1F6FFF772FE00EB7C
:10207000C00101EB001061688900B0FBF1F7FFF7C8
:1020800068FE00EBC00101EB001061688900B0FB45
:10209000F1F06421B0FBF1F000EBC00101EB0010A6
:1020A000A7EB8000322101EB00106421B0FBF1F0BE
:1020B00066F31F102168886033E0FFF738FE00EBFD
:1020C000C00101EB001061688900B0FBF1F06421F0
:1020D000B0FBF1F6FFF72BFE00EBC00101EB0010A7
:1020E00061688900B0FBF1F7FFF721FE00EBC0014A
:1020F00001EB001061688900B0FBF1F06421B0FBD6
:10210000F1F000EBC00101EB0010A7EB80003221E1
:1021100001EB00106421B0FBF1F066F31F102168A1
:102120008860BDE8F081704710B504460CB9012005
:1021300010BDA06900B100E000BF94F8390028B9D3
:10214000002084F838002046FFF7EDFF022084F8D5
:1021500039002068C06820F400502168C86020461B
:10216000FFF7D4FE2068006920F4904021680861E0
:102170002068406920F02A00216848612068C06812
:1021800040F400502168C8600020E063012084F81A
:1021900039000020CCE710B504460CB9012010BD71
:1021A00094F8390028B9002084F838002046FFF759
:1021B000BAFF022084F839002068C06820F400507B
:1021C0002168C8602046FFF7A1FE2068006920F45E
:1021D0009040216808612068406920F02200216851
:1021E00048612068406940F0080021684861206823
:1021F000C06840F400502168C8600020E0630120FE
:1022000084F839000020CAE770B504460D460CB9C1
:10221000012070BD94F8390028B9002084F83800F6
:102220002046FFF780FF022084F839002068C0684C
:1022300020F400502168C8602046FFF767FE206840
:10224000006920F40060216808612068406920F07E
:102250002A00216848612068006940F480402168B4
:1022600008612068006920F020002168086120686A
:1022700000692843216808612068C06840F4005064
:102280002168C8600020E063012084F83900002044
:10229000BFE770B504460D4616460CB9012070BD67
:1022A00094F8390028B9002084F838002046FFF758
:1022B0003AFF022084F839002068C06820F40050FA
:1022C0002168C8602046FFF721FE2068006920F4DD
:1022D0009040216808612068406920F02A00216848
:1022E00048612068006920F00F00216808612068BB
:1022F00000692843216808612068C06820F40060F4
:102300002168C8602068C06830432168C8602068C0
:10231000C06840F400502168C8600020E0630120DC
:1023200084F839000020BAE7704710B504460CB9AC
:10233000012010BD022084F839002046FFF7F4FF89
:102340000020E06384F8390000BF84F8380000BF43
:1023500000BFEEE700100140001401402DE9F041FC
:1023600004460E4617461D464FF0000801F06CF873
:1023700080469FBB2BE0681C48B32DB101F064F888
:10238000A0EB0800A84222D92068C06820F0800095
:102390002168C8602068C06820F020002168C860FB
:1023A0002068C06820F480702168C8602068406997
:1023B00020F0010021684861012084F8390000BF45
:1023C000002084F8380000BF0320BDE8F0812068B9
:1023D00000683040B04202D1012001E003E000205B
:1023E0000028C8D035E02AE0681C40B32DB101F0C8
:1023F0002BF8A0EB0800A84221D92068C06820F083
:1024000080002168C8602068C06820F02000216832
:10241000C8602068C06820F480702168C8602068A7
:10242000406920F0010021684861012084F83900EA
:1024300000BF002084F8380000BF0320C5E72068F3
:1024400000683040B04201D1012000E000200028A7
:10245000CAD10020B9E72DE9F04704460D461646DB
:1024600099464FF0000894F83980B8F1010F02D076
:10247000B8F1220F65D105B116B90120BDE8F0878A
:1024800000BF94F83800012801D10220F6E70120AE
:1024900084F8380000BF0020E06394F83900222857
:1024A00003D1322084F8390002E0122084F8390088
:1024B000A684E68428E0E08C401EE084A068B0F5A5
:1024C000805F14D14B46002280212046FFF746FF53
:1024D00008B10320D2E72F463888C0F308002168EE
:1024E0004860206908B9AD1C0EE06D1C0CE04B463D
:1024F000002280212046FFF731FF08B10320BDE70D
:1025000015F8010B21684860E08C0028D3DC4B46AD
:10251000002240212046FFF721FF08B10320ADE74C
:1025200094F83900322803D1222084F8390002E0DF
:10253000012084F8390000BF002084F8380000BF73
:102540009CE702209AE72DE9F04704460D4616461F
:1025500099464FF0000894F83980B8F1010F02D085
:10256000B8F1120F69D105B116B90120BDE8F087A5
:1025700000BF94F83800012801D10220F6E70120BD
:1025800084F8380000BF0020E06394F83900122876
:1025900003D1322084F8390002E0222084F8390087
:1025A000A685E68535E0E08D401EE085A068B0F5A3
:1025B000805F18D14B46002220212046FFF7CEFE37
:1025C00008B10320D2E72F46206930B9206840685F
:1025D000C0F308003880AD1C1BE020684068C0B222
:1025E00038806D1C15E04B46002220212046FFF765
:1025F000B5FE08B10320B9E7206920B9206840681A
:1026000005F8010B05E02068406800F07F0005F840
:10261000010BE08D0028C6DC94F83900322803D184
:10262000122084F8390002E0012084F8390000BF4C
:10263000002084F8380000BF98E7022096E730B504
:102640000346002493F83940012C01D0222C37D1C5
:1026500001B10AB9012030BD00BF93F8380001284C
:1026600001D10220F7E7012083F8380000BF19628A
:102670009A84DA840020D86393F83900222803D1A1
:10268000322083F8390002E0122083F839001868FC
:10269000C06840F480701D68E8601868406940F0C8
:1026A00001001D68686100BF002083F8380000BF8A
:1026B0001868C06840F080001D68E8600020CAE724
:1026C0000220C8E730B50346002493F83940012CB6
:1026D00001D0122C37D101B10AB9012030BD00BFA1
:1026E00093F83800012801D10220F7E7012083F890
:1026F000380000BF99629A85DA850020D86393F884
:102700003900122803D1322083F8390002E0222058
:1027100083F839001868C06840F480701D68E8606C
:102720001868406940F001001D68686100BF002022
:1027300083F8380000BF1868C06840F020001D68AA
:10274000E8600020CAE70220C8E7704770B5054678
:10275000AC6B0020E085E084012084F83900E06B58
:1027600040F01000E0632046FFF7EFFF70BD7047B8
:1027700070B50446A56B2846FFF7F9FF70BD70479A
:1027800070B50546AC6B2868006800F4807070B9BD
:102790000020E0842068406920F0800021684861C2
:1027A0002068C06840F040002168C86002E0204610
:1027B000FFF7E5FF70BDF7B504461546002794F80E
:1027C0003970012F01D0222F41D1019800B10DB9EC
:1027D0000120FEBD00BF94F83800012801D102207D
:1027E000F7E7012084F8380000BF01982062A58433
:1027F000E5840020E06394F83900222803D13220D8
:1028000084F8390002E0122084F83900F748216B7F
:10281000C863F748216B0864F648216B886401AEF1
:1028200023681A1D31682B46206BFEF773F86FF092
:102830004000216808602068406940F080002168FD
:10284000486100BF002084F8380000BFC1E70220C3
:10285000BFE7704770B50446A56B2846FFF7F9FF40
:1028600070BD704770B50546AC6B2868006800F411
:10287000807090B90020E0852068406920F0400019
:102880002168486194F83900322803D1122084F875
:10289000390002E0012084F839002046FFF7E1FF0B
:1028A00070BDF7B504461546002794F83970012F1E
:1028B00001D0122F3CD1019800B10DB90120FEBD0D
:1028C00000BF94F83800012801D10220F7E7012069
:1028D00084F8380000BF0198A062A5850020E0635D
:1028E00094F83900122803D1322084F8390002E02C
:1028F000222084F83900C048616BC863BF48616B0F
:102900000864BC48616B886401AE32682368191D95
:102910002B46606BFDF7FEFF2068406940F04000E9
:102920002168486100BF002084F8380000BFC6E776
:102930000220C4E7014600BF91F83800012801D108
:1029400002207047012081F8380000BF91F839005B
:10295000122806D10868406920F080000A6850619A
:102960001AE091F83900222806D10868406920F061
:1029700040000A6850610FE091F8390032280BD10D
:102980000868406920F080000A6850610868406962
:1029900020F040000A68506100BF002081F8380034
:1029A00000BF00BFCDE708B5014600BF91F8380071
:1029B000012801D1022008BD012081F8380000BFA4
:1029C00091F83900122806D10868406940F080006B
:1029D0000A6850612CE091F8390022280FD100BF1D
:1029E00008680068009008684068009000BF00BF59
:1029F0000868406940F040000A68506118E091F8AA
:102A00003900322814D100BF0868006800900868B7
:102A10004068009000BF00BF0868406940F0800037
:102A20000A6850610868406940F040000A685061D7
:102A300000BF002081F8380000BF00BFBBE710B521
:102A400004462068406920F08000216848612068C1
:102A5000406920F0400021684861206B10B1206B74
:102A6000FDF78DFF606B10B1606BFDF788FF0120F3
:102A700084F83900002010BD10B504462068C068F5
:102A800020F040002168C86094F83900322803D152
:102A9000222084F839000EE02068C06820F480709D
:102AA0002168C8602068406920F001002168486101
:102AB000012084F839002046FFF761FE002010BD98
:102AC00010B50146002391F83930122B01D0322B7A
:102AD0002CD18868B0F5805F0FD10A6A1088C0F3E6
:102AE00008000C686060086918B9086A801C0862F0
:102AF00009E0086A401C086205E00C6A601C086274
:102B000020780C686060C88C401E80B2C88458B9B8
:102B10000868C06820F080000C68E0600868C06841
:102B200040F040000C68E060002010BD0220FCE78F
:102B300070B50446002694F83960222E01D0322E5A
:102B400052D1A068B0F5805F13D1A56A206940B961
:102B500020684068C0F308002880A06A801CA0623A
:102B600019E020684068C0B22880A06A401CA062BA
:102B700011E0206938B920684068C1B2A26A501CCF
:102B8000A062117007E02068406800F07F01A26A2F
:102B9000501CA0621170E08D401E80B2E08508BB21
:102BA0002068C06820F020002168C86094F83900CF
:102BB000322803D1122084F839000EE02068C06862
:102BC00020F480702168C8602068406920F001000E
:102BD00021684861012084F839002046FFF741FE52
:102BE000002070BD0020FCE70220FAE781270008E2
:102BF000712700084D27000865280008552800089F
:102C0000F8B50446002500262068006800F001059C
:102C10002068C06800F480766DB166B100BF20689E
:102C20000068009020684068009000BF00BFE06B23
:102C300040F00100E06320680068C0F340052068B0
:102C4000406900F001066DB166B100BF2068006800
:102C5000009020684068009000BF00BFE06B40F02B
:102C60000400E06320680068C0F3800520684069C4
:102C700000F001066DB166B100BF206800680090E9
:102C800020684068009000BF00BFE06B40F0020089
:102C9000E06320680068C0F3C0052068406900F068
:102CA00001066DB166B100BF206800680090206821
:102CB0004068009000BF00BFE06B40F00800E06398
:102CC00020680068C0F340152068C06800F0200646
:102CD0001DB116B12046FFF72BFF20680068C0F336
:102CE000C0152068C06800F080061DB116B12046EE
:102CF000FFF7E6FE20680068C0F380152068C06812
:102D000000F040061DB116B12046FFF7B5FEE06B9E
:102D100028B1012084F839002046FFF716FDF8BDE0
:102D2000014600BF91F83800012801D10220704708
:102D3000012081F8380000BF022081F839000868BE
:102D4000C06840F001000A68D060012081F83900B5
:102D500000BF002081F8380000BF00BFE7E7014650
:102D600000BF91F83800012801D1022070470120EE
:102D700081F8380000BF022081F839000868C06877
:102D800040F002000A68D060012081F8390000BFDD
:102D9000002081F8380000BF00BFE7E7014600BF10
:102DA00091F83800012801D102207047012081F8F4
:102DB000380000BF022081F839000868C06820F0A0
:102DC00002000A68D060012081F8390000BF0020AD
:102DD00081F8380000BF00BFE7E70146002200BFCE
:102DE00091F83800012801D102207047012081F8B4
:102DF000380000BF022081F839000868C26822F05C
:102E00000C0242F008020868C260012081F8390013
:102E100000BF002081F8380000BF00BFE5E7014691
:102E2000002200BF91F83800012801D1022070472C
:102E3000012081F8380000BF022081F839000868BD
:102E4000C26822F00C0242F004020868C26001204D
:102E500081F8390000BF002081F8380000BF00BFB2
:102E6000E5E7014691F8390070470146C86B7047A5
:102E700000B593B000BF2948006840F08050274952
:102E800008600846006800F08050019000BF00BF55
:102E900000BF2348006840F44040214908600846CC
:102EA000006800F44040019000BF00BF0120029084
:102EB0000390002005904FF48001099102200890B2
:102EC00008210A914FF4B4710B9102210C91072152
:102ED0000D9102A8FEF701FB10B1012013B000BD57
:102EE000FEF70DFA08B10120F8E702200F9000204C
:102EF000109007200E900E9840F008000E904FF4AE
:102F0000A05011904FF48050129006210EA8FEF7A9
:102F1000E6FC08B10120E1E70020DFE7403802408D
:102F20000070004001464FF40030081AC0F38F20B3
:102F300070472DE9F04304460E461546DDE9078942
:102F40002046FFF7EFFFC7B2002243E00120904088
:102F5000304000B93CE0B14830F817000121914001
:102F60000843AE4921F81700E0684FEA420C0321FC
:102F700001FA0CF18843510008FA01F10843E060BE
:102F800020684FEA420C032101FA0CF188435100FA
:102F900005FA01F108432060012D01D0022D16D160
:102FA00061680120904080B221EA000003FA02F13A
:102FB00089B208436060A0684FEA420C032101FA1D
:102FC0000CF18843510009FA01F10843A06000BFE9
:102FD000501CC2B2102AB9DBBDE8F08300B502462E
:102FE0001046FFF79FFF012101FA00F08C490968A4
:102FF00008438B49086000BD2DE9FC4305460C469B
:1030000016461F46DDE909890CB9BDE8FC83284650
:10301000FFF7E4FF3B46324621462846CDE90089CA
:10302000FFF787FF00BFF0E72DE9FC4705460E4696
:1030300017469846DDE90A9A0EB9BDE8FC8728468E
:10304000FFF7CCFF00241AE00120A040304000B977
:1030500014E0E10805F1200050F821006107CA0ED4
:103060000F21914088436107C90E0AFA01F1084314
:10307000E20805F1200141F8220000BF641C102C79
:10308000E2D33B46022231462846CDE90089FFF7CC
:1030900050FF00BFD1E770B503460C461846FFF756
:1030A00041FFC5B2002214E001209040204070B1E1
:1030B000186856000321B14008431860574830F89B
:1030C0001500012191408843544921F81500501CF6
:1030D000C2B2102AE8DB70BD30B5024600200BE01A
:1030E000012383400B402BB1136845000324AC40FF
:1030F000A3431360431CD8B21028F1DB30BD30B5B8
:10310000024600200FE0012383400B404BB11368BF
:1031100045000324AC40A34345000124AC402343B5
:103120001360431CD8B21028EDDB30BD30B5024629
:1031300000200BE0012383400B402BB113684500B6
:103140000324AC4023431360431CD8B21028F1DBA6
:1031500030BD30B50246002011E0012383400B4012
:1031600003B90AE0136845000324AC40A3434500BB
:103170000224AC402343136000BF431CD8B2102884
:10318000EBDB30BD70B50346002011E00124844024
:103190000C4004B90AE0DC6846000325B540AC43A6
:1031A000450002FA05F52C43DC6000BF441CE0B288
:1031B0001028EBDB70BD41F48032C261C161C26195
:1031C000C369C36970470146002002E0421C90B207
:1031D00049100129FADC704700B502461046FFF796
:1031E000A1FE012181400E48006888430C49086017
:1031F00000BD00B502461046FFF794FE074931F8BE
:10320000100000BD00B502461046FFF78BFE0349D3
:1032100031F81000C04380B200BD0000BC0900209E
:10322000303802409748006820F08070954A10605E
:103230001046006840F0807010609348006820F0ED
:103240000100914A10601046006840F001001060D3
:10325000002050601046416800BF00BF8A484068A7
:10326000401A70472DE9F04705460E461746984626
:10327000DDF8209085480078052802DB0020BDE8B5
:10328000F08714200BF0E6FC04460CB90020F6E7AA
:1032900065606068A060207866F300002070207888
:1032A00067F341002070C4F80C80C4F81090774890
:1032B00001780078401C754A1070101D40F82140BC
:1032C0002046DCE72DE9F0410646002408E06F487F
:1032D000001D50F82400B04200D105E0601CC4B2CB
:1032E0006A480078A042F2DC00BF68480078A0423B
:1032F00001D1BDE8F0816548001D50F8247000BF81
:10330000EFF31080054672B608E06048001D611CAE
:1033100050F8211040F82410601CC4B25B480078BB
:10332000401EA042F1DC59480078401E5749087001
:1033300038460BF067FC05B962B600BFD9E70178E3
:1033400021F0020101707047017821F00201891C0F
:103350000170704741688160704709B1012200E047
:103360000022037862F300030370704741607047E6
:10337000704710B546480068401C454908604548FC
:10338000006820B143480068401E4249086000249C
:1033900053E03E48001D50F8240000284BD03B4825
:1033A000001D50F824000078C0F34000F0B3374807
:1033B000001D50F82400806850B13448001D50F8BA
:1033C00024008068401E3149091D51F8241088608E
:1033D0002E48001D50F82400806838BB2B4B1B1D65
:1033E00053F824301969294B1B1D53F8240053F856
:1033F0002430DA6890472548001D50F824004168C1
:103400002248001D50F8240081602048001D50F81B
:103410002400007800F0010040B91C48001D50F85D
:103420002400007820F00201184800E003E0001DAD
:1034300050F824000170601CC4B214480078A04207
:10344000A7DC01F038F910BD11480068704700B5DD
:10345000014600BFEFF3058048B9FFF7F5FF0246CC
:1034600000BFFFF7F1FF801A8842FAD309E006E0B7
:103470004FF0E020006900F4803000B1491E0029BF
:10348000F6D100BDFCED00E0001000E0D8090020FE
:1034900008000020040000201CB5032000210B467A
:1034A0000122CDE9001041031D48FFF7A5FD4FF0B3
:1034B000C0401B49183108601CBD1CB5002002210A
:1034C00003460246CDE9001001211648FFF794FD9E
:1034D0001CBD1448006900F0010080F0010030B903
:1034E0001148007830B901200F490870704700205A
:1034F0000D4908700020F9E70A48006900F0010052
:1035000080F0010038B10848007838B10020064941
:103510000870012070470120034908700020F9E776
:1035200000180240000002400C00002070B5044664
:103530000D461646142120460BF087F92580A6601B
:103540000A206073A06868B928460BF083FBA0606E
:10355000A06818B900202080012070BD207B40F0B9
:1035600002002073207B40F0010020730020F4E76C
:1035700010B5044604B910BD207B00F0020010B164
:10358000A0680BF03FFB00202073208000BFF2E713
:1035900070B5034600240BB9002070BD58881D8803
:1035A000A84201DB002058801BE05D889888401EFF
:1035B000854206D0988828B95D881888401E8542C3
:1035C00000D113E011F8015B5E88701C5880986888
:1035D0008555601CC4B258881D88A84201DB0020B4
:1035E0005880101EA2F10105AAB2DED100BF20460C
:1035F000D3E730B5034600240BB9002030BD9888CE
:103600001D88A84201DB0020988013E098885D881F
:10361000A84200D113E09D88681C98809868405D9E
:1036200001F8010B601C84B298881D88A84201DB58
:1036300000209880101EA2F10105AAB2E6D100BFB9
:103640002046DBE730B5014609B9002030BD4A8885
:103650008B889A4200D10C88934200D99C1A9A42D6
:1036600002D90888D51A441B601E80B2EEE730B537
:1036700003460BB9002030BD59889A88914200D189
:103680000024914200D98C1A8A4202D91888551A0E
:10369000441BA0B2EFE700B9704700214180818050
:1036A00000BFF9E72DE9F04104460F464FF000084E
:1036B0001CB94FF0FF30BDE8F0812046FFF7D7FF7F
:1036C0000546A68812E02088B04200DC0026A068EB
:1036D000805DB84202D10FFA88F0ECE7701C86B228
:1036E000681E85B208F101001FFA80F8002DEADC9F
:1036F0004FF0FF30DFE72DE9F04F04468946904652
:103700004FF0000AD3462CB12046FFF7B0FF064623
:10371000404503DA4FF0FF30BDE8F08FA58835E073
:103720002088A84200DC0025A068405D99F80010C0
:10373000884201D14FF0010B681C85B2701E86B221
:103740000AF101001FFA80FABBF1000F1ED0012719
:1037500014E02088A84200DC0025A068405D19F82C
:103760000710884204D0781E50441FFA80FA07E000
:10377000681C85B2701E86B2781C87B24745E8DBAC
:1037800000BF474502D10FFA8AF0C5E7002EC7DC1B
:103790004FF0FF30C0E770B505460C4620460BF0F1
:1037A0006BF886B2324621462846FFF7F1FE70BD1F
:1037B0002DE9F84306460D461746002416B90020A9
:1037C000BDE8F8833046FFF73DFF81463046FFF7FE
:1037D0004EFF8046B8F1000F0AD0717B3046FFF7EC
:1037E00061FF002806DAB9F1000F03D0B84501DA0D
:1037F0000020E5E710E0012269463046FFF7F9FEB8
:1038000000B90CE09DF800002855285D717B8842C6
:1038100000D104E0601C84B2781EA042EBDC00BF43
:10382000781EA04202D10020285504E00021601C2F
:1038300080B2044629542046C2E770B503460C46C0
:10384000154600220BB9002070BD5E88998807E0FC
:10385000481C81B2501C82B21888884200DC0021CA
:10386000A24201DA8E42F3D1A24204D19868405CB0
:1038700028700120E8E70020E6E700000146FE4A44
:10388000914200D10020FD4A914200D10120FC4A22
:10389000914200D10220FB4A914200D10420FA4A11
:1038A000914200D10520F94A914200D10620F84A00
:1038B000914200D10720F74A914200D10820704779
:1038C00070471CB5044644B9082003210123002297
:1038D000CDE90010F048FFF7A7FB032C03D1082126
:1038E000EC48FFF7EDFF1CBD1CB504464CB90820A1
:1038F000032101230022CDE90010C901E648FFF7AA
:1039000093FB012C09D10820032101230022CDE9DA
:103910000010C021E148FFF787FB032C03D10821E9
:10392000DB48FFF7CDFF1CBD1CB504464CB9082091
:10393000032101230022CDE90010C021D848FFF760
:1039400073FB012C0AD10820032101230022CDE9B9
:1039500000104FF48441D348FFF766FB032C03D1DA
:103960000821CA48FFF7ACFF1CBD1CB504469CB932
:103970000820032101230022CDE900104102C8489C
:10398000FFF752FB0820032101230022CDE900109C
:103990000421C548FFF748FB032C03D10821BA488E
:1039A000FFF78EFF1CBD1CB5044644B90820032157
:1039B00001230022CDE90010BC48FFF735FB012CA4
:1039C00009D10820032101230022CDE9001089023A
:1039D000B348FFF729FB032C03D10821A948FFF7BF
:1039E0006FFF1CBD1CB504464CB907200321012301
:1039F0000022CDE900108902AD48FFF715FB012C2C
:103A000009D10720032101230022CDE900108902FA
:103A1000A348FFF709FB022C09D10720032101234A
:103A20000022CDE9001009029F48FFF7FDFA032CA0
:103A300003D107219248FFF743FF1CBD1CB5044684
:103A40004CB90720032101230022CDE900100C21ED
:103A50009648FFF7E9FA012C09D107200321012339
:103A60000022CDE9001060218F48FFF7DDFA032C1A
:103A700003D107218148FFF723FF1CBD1CB5044675
:103A80004CB90720032101230022CDE9001049028F
:103A90008648FFF7C9FA012C09D107200321012329
:103AA0000022CDE90010C0218148FFF7BDFA032CA8
:103AB00003D107217048FFF703FF1CBD2DE9F04F2C
:103AC00091B004460D4616461F46DDE91BABDDF8F6
:103AD0006890694884421FD100BF7648006840F072
:103AE0001000744908600846006800F0100000905B
:103AF00000BF00BF6F482038006840F010006D49DB
:103B0000203908600846006820F010000860284648
:103B1000FFF7B4FF4FF025085848844221D100BF79
:103B20006448001F006840F400306249091F0860C3
:103B30000846006800F40030009000BF00BF5D48F8
:103B40002438006840F400305A4924390860084697
:103B5000006820F4003008602846FFF76FFF4FF040
:103B600026084748844221D100BF5248001F006800
:103B700040F480204F49091F08600846006800F49F
:103B80008020009000BF00BF4A482438006840F4FD
:103B900080204849243908600846006820F48020C5
:103BA00008602846FFF71EFF4FF02708354884427B
:103BB00021D100BF3F48001F006840F400203D496C
:103BC000091F08600846006800F40020009000BF4C
:103BD00000BF38482438006840F4002035492439B3
:103BE00008600846006820F4002008602846FFF7B7
:103BF000DAFE4FF034082448844221D100BF2D481A
:103C0000001F006840F480102A49091F0860084618
:103C1000006800F48010009000BF00BF25482438E1
:103C2000006840F480102349243908600846006881
:103C300020F4801008602846FFF797FE4FF0350803
:103C40001248844240D100BF1A48006840F020006A
:103C5000184908600846006800F02000009000BF86
:103C600000BF14482038006840F020001149203976
:103C70000860084600681FE0001001400044004052
:103C800000480040004C004000500040001401403B
:103C900000780040007C0040001002400014024008
:103CA0000008024000180240000C024000000240E0
:103CB000000402404438024020F0200008602846FA
:103CC000FFF732FE4FF04708FA4884421FD100BF89
:103CD000F948006840F08040F749086008460068ED
:103CE00000F08040009000BF00BFF348203800681B
:103CF00040F08040F049203908600846006820F014
:103D0000804008602846FFF7EFFD4FF05208EB486F
:103D100084421FD100BFE848006840F00040E649F7
:103D200008600846006800F00040009000BF00BF37
:103D3000E1482038006840F00040DF492039086041
:103D40000846006820F0004008602846FFF7B9FDEB
:103D50004FF05308019402960797CDF81890CDF8CC
:103D600014A0CDF810B01D98039000210891404692
:103D7000FCF7E7FB2046FFF781FD02460621009095
:103D80004046FCF793FB4046FCF7CEFB4046FCF771
:103D9000B2FC01A8FEF7C8F9E06840F02000E0603E
:103DA00011B0BDE8F08F7FB504460D461646C448F5
:103DB00084420BD100200C23CDE900300290034651
:103DC0003246294603902046FFF778FEBD488442DC
:103DD0000BD100200C23CDE900300290034632467F
:103DE000294603902046FFF769FEB74884420BD16D
:103DF00000200C23CDE900300290034632462946CC
:103E000003902046FFF75AFEB04884420BD10020B1
:103E10000C23CDE900300290034632462946039038
:103E20002046FFF74BFEAA4884420BD100200C230A
:103E3000CDE90030029003463246294603902046E1
:103E4000FFF73CFEA34884420BD100200C23CDE9B0
:103E50000030029003463246294603902046FFF781
:103E60002DFE944884420BD100200C23CDE9003074
:103E7000029003463246294603902046FFF71EFE75
:103E80008E4884420BD100200C23CDE900300290F3
:103E900003463246294603902046FFF70FFE7FBDBA
:103EA0002DE9FF4104460D4616461F4684488442CC
:103EB0000BD100200C23CDE9003002903B46324666
:103EC000294603902046FFF7F9FD7E4884420BD136
:103ED00000200C23CDE9003002903B4632462946B3
:103EE00003902046FFF7EAFD774884420BD100207B
:103EF0000C23CDE9003002903B4632462946039020
:103F00002046FFF7DBFD714884420BD100200C23D3
:103F1000CDE9003002903B463246294603902046C8
:103F2000FFF7CCFD6A4884420BD100200C23CDE979
:103F3000003002903B463246294603902046FFF768
:103F4000BDFD644884420BD100200C23CDE9003034
:103F500002903B463246294603902046FFF7AEFDCD
:103F6000544884420BD100200C23CDE9003002904C
:103F70003B463246294603902046FFF79FFD4F48B7
:103F800084420BD100200C23CDE9003002903B4647
:103F90003246294603902046FFF790FDBDE8FF8199
:103FA0000146474A914200D14B48464A914200D1CE
:103FB0004A48454A914200D14948444A914200D179
:103FC0004848434A914200D14748424A914200D171
:103FD0004648384A914200D14548384A914200D17A
:103FE0004448704738B504462046FFF7D9FF0546D8
:103FF00001226946FFF7FDFA10B19DF8000038BDB7
:104000000020FCE72DE9F04104460D461646204607
:10401000FFF7C6FF074632462946FFF7C9FBBDE852
:10402000F0810EE000BF026802F08002002AFAD0A0
:1040300011F8012B426000BF026802F08002002AE2
:10404000FAD00A78002AEDD1704710B50EE000BF13
:10405000036803F08003002BFAD011F8013B4360A2
:1040600000BF036803F08003002BFAD0131EA2F1F7
:104070000104A2B2EBD110BD70B504460D46204636
:10408000FFF78EFF06462946FFF70CFB70BD2DE9B2
:10409000F04105460C4620460AF0EEFB86B2284663
:1040A000FFF77EFF074632462146FFF724FBBDE8B7
:1040B000F08100000078004040380240007C004061
:1040C000001001400044004000480040004C004007
:1040D0000050004000140140100000202400002087
:1040E000380000204C0000206000002074000020F8
:1040F000880000209C00002070B504462046FFF791
:104100004FFF0546FFF7B3FA08B9012070BD002044
:10411000FCE770B504462046FFF742FF0546FFF76F
:1041200091FA08B9012070BD0020FCE770B5044683
:104130002046FFF735FF0546FFF799FA70BD70B5C9
:1041400004462046FFF72CFF0546FFF7A4FA70BD92
:1041500070B505460C462846FFF722FF447370BD34
:1041600013B50446012201A92046FFF711FA1CBD30
:1041700038B505460C466848056000BF0068006811
:104180000090654800684068009000BF00BF00BF15
:1041900061480068006800905F48006840680090CF
:1041A00000BF00BF00BF5C480068006800905A482C
:1041B00000684068009000BF00BF00BF564800681C
:1041C00000680090544800684068009000BF00BF3D
:1041D00000BF51480068006800904F480068406880
:1041E000009000BF00BF2046FCF785FA38BD70473D
:1041F00010B54A48006800F0200020B147494968DE
:10420000C8B207F004FF25214448FFF7B1FF10BDF5
:1042100010B54348006800F0200030B14048001D50
:104220000068C1B23F48FFF79BFF26213C48FFF7DB
:104230009FFF10BD10B53C48006800F0200030B171
:104240003948001D0068C1B23848FFF789FF2721AF
:104250003548FFF78DFF10BD10B53548006800F0F8
:10426000200030B13248001D0068C1B23148FFF76C
:1042700077FF34212E48FFF77BFF10BD10B52E4885
:10428000006800F0200028B12B484068C1B22B48DC
:10429000FFF766FF35212848FFF76AFF10BD10B50C
:1042A0002748006800F0200030B12548001D006854
:1042B000C1B22448FFF754FF47212148FFF758FFB8
:1042C00010BD10B52048006800F0200030B11E4835
:1042D000001D0068C1B21D48FFF742FF52211A4875
:1042E000FFF746FF10BD10B51948006800F0200028
:1042F00030B11748001D0068C1B21648FFF730FF03
:1043000053211348FFF734FF10BD704770477047C3
:104310007047704770477047F00A00200010014056
:1043200000440040240000200048004038000020E5
:10433000004C00404C000020005000406000002075
:104340000014014074000020007800408800002024
:10435000007C00409C00002030B502460B46BE4C5D
:10436000A24207D2BD49BD4C0834141B1825B4FB2A
:10437000F5F006E0B8490839B74C141B1825B4FB12
:10438000F5F0042801D3091D001F03F03D04B44DCE
:104390002D5CAC400C6030BD10B504463D2120467C
:1043A000FFF7DAFF10BD70B502460C46002100236E
:1043B0000020A94DAA4208D2A84B083BA74D0835BA
:1043C000551B1826B5FBF6F106E0A34B103BA24D9A
:1043D000551B1826B5FBF6F1042901D31B1D091F37
:1043E00018689F4D6D5CE84000F03D0070BD2DE900
:1043F000F04104463D212046FFF7AEFF9648844237
:1044000009D296480830201A1821B0FBF1F501278F
:104410009448465708E09048201A1821B0FBF1F55F
:1044200001279048083046573046FCF78AF82A465C
:1044300039463046FCF73AF83046FCF775F8206804
:1044400040F01E002060606940F080006061BDE8BF
:10445000F08170B504463D212046FFF77DFF7E4880
:10446000844208D27D480830201A1821B0FBF1F0B0
:104470007C490D5606E07848201A1821B0FBF1F06F
:1044800078490D562846FCF75CF8206820F01E009D
:104490002060606900F08000606170BD70B5054605
:1044A0000C464CB100BF002084F8340000BF2560EA
:1044B0002046FCF77EF90FE06748854206D36A483C
:1044C000006840F480006849086005E066480068BC
:1044D00040F400106449086070BD10B596B0044601
:1044E00000946846FCF7A5F916B010BD2DE9F0411F
:1044F00004460D4616461F4600BF002084F83400CF
:1045000000BF3B46324629462046FCF7DAF9BDE8B3
:10451000F0817047704770477047704770B5044628
:104520003D212046FFF73FFF85B23D212046FFF7A2
:1045300013FF05F0200030B1206800F0100010B12A
:104540002046FFF7E6FF05F0100030B1206800F0CC
:10455000080010B12046FFF7DDFF05F0080030B17C
:10456000206800F0040010B12046FFF7D4FF05F0EA
:10457000040030B1206800F0020010B12046FFF7BF
:10458000CBFF05F0010030B1606900F0800010B190
:104590002046FFF7C2FF70BD10B530480830FFF766
:1045A000BDFF10BD10B52D482030FFF7B7FF10BD7F
:1045B00010B52A483830FFF7B1FF10BD10B52748B5
:1045C0005030FFF7ABFF10BD10B524486830FFF73F
:1045D000A5FF10BD10B521488030FFF79FFF10BD2B
:1045E00010B51E489830FFF799FF10BD10B51B4855
:1045F000B030FFF793FF10BD10B51748FFF78EFFDF
:1046000010BD10B514481830FFF788FF10BD10B565
:1046100011483030FFF782FF10BD10B50E4848300A
:10462000FFF77CFF10BD10B50B486030FFF776FF39
:1046300010BD10B508487830FFF770FF10BD10B5F9
:1046400005489030FFF76AFF10BD10B50248A8304A
:10465000FFF764FF10BD00001064024008600240D4
:10466000D8EC0008DCEC000830380240FEF700FC13
:10467000FBF729FEFEF710FFFEF71FFFFEF7D2FD46
:104680004FF4612200217748FFF78DFB76A279A1D4
:104690007BA00AF0A1F90021834809F071FC83494D
:1046A00008600021824809F06BFC8249086009F02B
:1046B0004FFC00BFFEE710B501217F4805F06FFCFD
:1046C0000AF017F810BD02E07B4805F0F9FAFBE7A5
:1046D0001FB500244FF4E13278A1774805F069F95D
:1046E0000546294677A00AF077F99EE0724805F062
:1046F00062FCFEF7EEFE0028F7D001205CA35CA26E
:1047000076A100906C4806F045FD774908700028B6
:104710007AD176A00AF060F90120502177A3002217
:10472000CDE900107B49644806F0D8FD6E49087059
:10473000002859D178A00AF04FF901207C4940F6B1
:104740005B037C4ACDE9001072495B4806F027FE06
:1047500065490870002841D157480068039076A049
:104760000AF03AF900BF01226A49534806F02DFFCA
:10477000D8B101200A21764A4FF47A73CDE900219D
:104780000290744A63494C4806F070FE40B9704884
:10479000016871A00AF020F947480068039004E01E
:1047A0005148017873A00AF017F94348006803994B
:1047B000401AB0F5FA6FD6D3012256493E4806F0AA
:1047C000B9FE4949087018B973A00AF005F904E068
:1047D0004548017876A00AF0FFF80AE042480178DF
:1047E0007DA00AF0F9F804E03F48017884A00AF0BF
:1047F000F3F80121304806F030FD3B49087020B93C
:104800008AA00AF0E9F80BE005E0374801788BA0B0
:104810000AF0E2F804E03448017892A00AF0DCF8EB
:104820000CB9012000E0002004465FE708B5C2B2E1
:1048300000920C4AD26802F400528AB100BF094AC1
:10484000126802F08002002AF9D09DF80020054B82
:104850005A6000BF034A126802F08002002AF9D0B1
:1048600000BF08BD0044004032333A33383A303399
:10487000000000004F6374203138203230313600A0
:1048800047534D20636F6D6D616E6473207061726C
:104890007365723B20436F6D70696C65643A2025C7
:1048A00073202573200D0A00ECEC00081C09002081
:1048B00000ED000820090020300B00203132333495
:1048C0000000000047534D20496E697420737461E5
:1048D0007475733A2025640D0A000000696E7465D2
:1048E000726E657400000000B00000204750525303
:1048F0002041747461636865640D0A0073746D33DC
:104900003266342D646973636F766572792E6E65D5
:1049100074000000C80C0020436F6E6E6563746500
:104920006420746F20736572766572210D0A000031
:1049300018090020BC000020446174612073656E7A
:104940007420746F20736572766572210D0A000001
:10495000B8000020E00C002052656365697665644C
:10496000202564206279746573206F662064617409
:10497000610D0A004572726F7220747279696E67F8
:1049800020746F2072656365697665206461746167
:104990003A2025640D0A0000436F6E6E65637469EA
:1049A0006F6E20636C6F736564210D0A0000000058
:1049B0004572726F7220747279696E6720746F200D
:1049C000636C6F736520636F6E6E656374696F6E81
:1049D0003A2025640D0A00004572726F72207472CD
:1049E00079696E6720746F20636F6E6E65637420E3
:1049F000746F207365727665723A2025640D0A0023
:104A0000436F756C64206E6F742065786563757490
:104A100065207265717565737420746F207365729B
:104A20007665723A2025640D0A0000004750525303
:104A30002044657461636865640D0A0050726F629A
:104A40006C656D7320747279696E6720746F206471
:104A5000657461636820475052533A2025640D0AFB
:104A600000000000436F756C64206E6F74206174E9
:104A70007461636820746F20475052533A20256454
:104A80000D0A0000704700BFFEE700BFFEE700BF51
:104A9000FEE700BFFEE77047704710B5FEF769FC00
:104AA00010BD00003F48006840F470003D490860B8
:104AB0003D48006840F001003B49086000203A4949
:104AC00008310860384800683849084036490860AD
:104AD0003748091D0860081F006820F48020091F5E
:104AE0000860002030490C3108604FF000602D490B
:104AF00080390860704770B500200022022300242E
:104B00000221294D08352D6805F00C0020B104283C
:104B100006D0082834D107E0264D274E356033E013
:104B2000264D254E35602FE01F4D2D1D2D68C5F3F8
:104B300080541D4D2D1D2D6805F03F0154B11F4DB2
:104B4000B5FBF1F5184E361D3668C6F3881605FB21
:104B500006F209E0174DB5FBF1F5134E361D366828
:104B6000C6F3881605FB06F20F4D2D1D2D68C5F303
:104B700001456D1C6B00B2FBF3F50F4E356003E091
:104B80000C4D0D4E356000BF00BF074D08352D6838
:104B9000C5F303150A4E705D074D2D68C540064EDE
:104BA000356070BD88ED00E000380240FFFFF6FE82
:104BB000103000240024F4002409002000127A00A0
:104BC00014ED00082DE9F04780460C4691461D463D
:104BD0004746CA46A54202D90020BDE8F087AC424C
:104BE00009D12A465146384609F05BFE08B93846D5
:104BF000F3E70020F1E7641B002608E0B8192A4615
:104C0000514609F04EFE08B9B819E6E7761CA642EF
:104C1000F4D30020E1E770B502460025002400230C
:104C200010782D2803D10125521C601CC4B207E066
:104C3000107830380A2603FB0603521C601CC4B2ED
:104C40001078302802DB10783928F1DD01B10C70C2
:104C50000DB1584270BD1846FCE7F8B507460C4642
:104C60001546002669462846FFF7D5FF00F5FA608D
:104C700060809DF80000401C3044C6B2A819694607
:104C8000FFF7C9FF60709DF80000401C3044C6B2B9
:104C9000A8196946FFF7BFFF2070F8BDF8B50746B1
:104CA0000C461546002669462846FFF7B4FF2070DB
:104CB0009DF80000401C3044C6B2A8196946FFF7B1
:104CC000AAFF60709DF80000401C3044C6B2A819CD
:104CD0006946FFF7A0FFA070F8BD2DE9F8438046B4
:104CE0000D461746B94600266A46FEA1484609F019
:104CF000FDFD04463BE02078222800D1641C2046BC
:104D000009F0BAFD401E205C222805D1204609F09A
:104D1000B3FD401E00212154052E1FD2DFE806F00E
:104D200003040A10170019E0214605F1B80009F044
:104D3000C5FD13E0214605F1A40009F0BFFD0DE01B
:104D4000224605F1CC014046FFF787FF06E02246E8
:104D500005F1D0014046FFF7A1FF00BF00BF701C66
:104D6000C6B26A46DFA1002009F0C0FD0446002C4F
:104D7000C1D1BDE8F883F8B506460D46144669462C
:104D80002046FFF748FF28809DF80000401C04449F
:104D9000224629463046FFF7A0FFF8BDF8B5064683
:104DA0000D4614460020009069462046FFF733FF69
:104DB00028709DF80000401CC0B204440090694671
:104DC0002046FFF728FF68709DF80000401CC0B225
:104DD0000444009069462046FFF71DFFA8709DF827
:104DE0000000401CC0B20444009069462046FFF712
:104DF00012FFE8709DF80000401CC0B2044400900F
:104E000069462046FFF707FF28759DF80000401C03
:104E1000C0B2044400902078222800D1641C0020F5
:104E2000287100900CE014F8011B9DF80020501C24
:104E3000C0B20090281D815400219DF800208154AB
:104E4000207810B120782228EDD12078222800D1B6
:104E5000641C641C69462046FFF7DDFE68759DF8FA
:104E60000000401CC0B2044400902078222800D1E9
:104E7000641C0020A87500900DE014F8011B9DF83B
:104E80000020501CC0B2009005F116008154002192
:104E90009DF800208154207810B120782228ECD190
:104EA000F8BD70B506460D4614462078222800D17C
:104EB000641C02228CA1204609F009FD10B90320D0
:104EC000287007E0022289A1204609F000FD08B9F8
:104ED00000202870241D00212046FFF79CFE6880DA
:104EE00070BD70B504460D4681A1284609F0CBFC83
:104EF00018B9012084F86C0034E07FA1284609F03D
:104F0000C2FC18B9022084F86C002BE07DA1284671
:104F100009F0B9FC18B9032084F86C0022E07CA1E8
:104F2000284609F0B0FC18B9062084F86C0019E096
:104F30007AA1284609F0A7FC18B9072084F86C006C
:104F400010E079A1284609F09EFC18B9042084F8E5
:104F50006C0007E078A1284609F095FC10B90520FF
:104F600084F86C0070BDF8B506460D4614466946D7
:104F70002046FFF750FE28809DF80000401C0444A6
:104F80002078222800D1641C00200090A8750DE034
:104F900014F8011B9DF80020501CC0B2009005F1D0
:104FA0001600815400219DF800208154207810B112
:104FB00020782228ECD12078222800D1641C641C9F
:104FC00000E0641C2078302802DB20783928F8DDE6
:104FD000641C2078222800D1641C00200090A87056
:104FE0000CE014F8011B9DF80020501CC0B200908A
:104FF000A81C815400219DF800208154207810B114
:1050000020782228EDD12078222800D1641CF8BD18
:10501000F8B506460C46154669462846FFF7FBFDDF
:1050200004F8010B9DF80000401C05446946284621
:10503000FFF7F1FD04F8010B9DF80000401C05444A
:1050400069462846FFF7E7FD04F8010B9DF80000CC
:10505000401C054469462846FFF7DDFD04F8010BB6
:10506000F8BD70B505460C46042085F82000207870
:10507000302806D1A41C00212046FFF7CCFD85F87E
:10508000200070BD2DE9F84306460C4615466946DA
:105090002846FFF7C0FDC7B29DF80000401C05443C
:1050A00069462846FFF7B7FD00F0FF08012F0AD137
:1050B0001CB906F1740050F8284024B1A07D20F0FE
:1050C0000200801CA0759DF80000401C0544022FC2
:1050D00042D1CCB369462846FFF79DFD20829DF85A
:1050E000000032E02C0000004D450000534D000050
:1050F00052454144590D0A0053494D2050494E0D27
:105100000A00000053494D2050554B0D0A00000085
:1051100053494D2050494E320D0A000053494D204D
:1051200050554B320D0A000050485F53494D2050F6
:10513000494E0D0A0000000050485F53494D205071
:10514000554B0D0A0000000006E0401C05440021FC
:105150002846FFF760FD6082BDE8F883F8B5064693
:105160000C46154669462846FFF755FD20709DF808
:105170000000401C054469462846FFF74CFD20818D
:105180009DF80000401C054400212846FFF743FD20
:105190006061F8BD2DE9F0470446894609F1010533
:1051A00099F800704FF0000AD04628780D2804D1F5
:1051B00068780A2801D1BDE8F087A089B0F5E46FCE
:1051C00009D1FEA1284609F05EFB08B9012000E0E4
:1051D0000020824608E0FCA1284609F054FB08B9EB
:1051E000012000E000208246BAF1000F18D1287893
:1051F0002B2809D10B22F6A1284609F068FB08B933
:10520000012000E000208046B8F1000F08D1F3A192
:10521000284609F038FB08B9012000E0002080464C
:10522000A08940F2257188420DD1287830280ADB08
:105230002878392807DC2A4604F16D012046FFF75B
:10524000E7FE4FF0010AA089B0F5806F5BDBA08913
:10525000B0F5A06F57DABAF1000F54D1B8F1000FD2
:1052600051D1A08940F2024188420DD10722DDA12F
:10527000284609F02CFB002845D0BA1EDB49C86837
:10528000294609F0EDFA3EE0A08940F2014188424A
:105290000CD10722D6A1284609F019FB08B3BA1E83
:1052A000D249C868294609F0DBFA2CE0A08940F20F
:1052B0000341884216D10722CFA1284609F007FBF7
:1052C00078B10922CEA1284609F001FB18B90935A9
:1052D000A7F1090087B2BA1EC449C868294609F077
:1052E000BFFA10E0A08940F2054188420BD10722A5
:1052F000C6A1284609F0EBFA28B1BA1EBB49C86816
:10530000294609F0ADFAC3A1284609F0BCFA30B924
:10531000C120005D20F008000830C1210855C1A15E
:10532000284609F0B0FA30B9C120005D20F0100025
:105330001030C1210855A08940F2297188422CD132
:105340002878302829DB2878392826DCB8A1681C81
:1053500009F099FA38B994F8C00020F00800083034
:1053600084F8C0004FE0B6A1681C09F08CFA38B987
:1053700094F8C00020F01000103084F8C00042E023
:10538000B4A1681C09F07FFA70BB94F8C00020F04B
:105390002000203084F8C00035E0A08940F22B7155
:1053A00088420ED1B0A1681C09F06DFAE0B994F8FA
:1053B000C00020F04000403084F8C0004FF0010AE7
:1053C00021E0A08940F22A7188421CD1AAA1681C60
:1053D00009F059FA48B994F8C00020F080008030F4
:1053E00084F8C0004FF0010A0DE0A6A1681C09F086
:1053F0004AFA40B9C120005D20F00100401CC121E3
:1054000008554FF00108A3A1284609F03CFA38B925
:10541000BD20005D20F008000830BD21085508E0DF
:105420009EA1284609F02FFA18B19EA1284609F03E
:105430002AFA28782B2876D1B8F1000FFBD1A08961
:1054400040F23A7188420AD106229AA1284609F010
:105450003EFA20B9E91D2046FFF703FE45E1A08989
:10546000B0F5E06F03DBA089B0F5006FF6DBA08933
:10547000B0F5007F58DBA089B0F5407F54DAA089F1
:1054800040F2012188420BD106228CA1284609F066
:105490001EFA28B90021E81DFFF7BDFBA08524E115
:1054A000A08940F20221884218D1062285A128460F
:1054B00009F00DFA90B94D48EA1DC1682046FFF782
:1054C0000CFCBD20005D20F00100401CBD210855F2
:1054D00000204649C96881F8A30006E1A08940F28E
:1054E0000521884244D1062278A1284609F0EFF927
:1054F000F0BB3E48006900883C49496988420AD2AD
:105500003A48EA1DC1682046FFF735FC00203749BC
:10551000C96881F8A300BD20005D20F00100401C97
:10552000BD210855E1E0AFE1A089B0F5A06F1FDB18
:10553000A089B0F5C06F1BDA062266A1284609F0E3
:10554000C6F9C0B92948EA1DC1682046FFF70BFD1E
:10555000A08940F2055188420AD12448C0682A3007
:105560002249C860084600690088401C096900E0BB
:1055700022E00880B9E0A08940F2065188421BD1A0
:10558000062256A1284609F0A2F9A8B917480069D1
:1055900000881649496988420ED21448EA1DC1683C
:1055A0002046FFF7E0FC1148C0682A300F49C86068
:1055B00008460069008895E097E00000534855547C
:1055C000204F4B0D0A0000004F4B0D0A0000000059
:1055D0002B434D45204552524F523A004552524FAF
:1055E000520D0A0041542B43474D490064130020DB
:1055F00041542B43474D4D0041542B43474D5200DE
:105600005265766973696F6E3A00000041542B430E
:1056100047534E0043616C6C2052656164790D0AFA
:1056200000000000534D532052656164790D0A005B
:105630002C20434F4E4E454354204F4B0D0A000043
:105640002C20434F4E4E454354204641494C0D0AB1
:10565000000000002C20414C524541445920434F4A
:105660004E4E4543540D0A002C20434C4F534520C9
:105670004F4B0D0A000000002C2053454E44204F94
:105680004B0D0A002C2053454E44204641494C0DF9
:105690000A00000052494E470D0A00004255535976
:1056A0000D0A00004E4F20434152524945520D0A07
:1056B000000000002B435245473A00002B434D4762
:1056C000533A00002B434D47523A00002B434D47BD
:1056D0004C3A00002B435042523A00002B435042B8
:1056E000463A0000401C096908800622FEA12846AF
:1056F00009F0EDF820B9E91D2046FFF7F2FBC3E001
:105700000622FBA1284609F0E2F868B9EA1D04F177
:1057100042012046FFF742FBBD20005D20F004005F
:10572000001DBD210855AFE00622F3A1284609F06F
:10573000CEF8E8BB002600BF45E006EB460104F1C9
:10574000300000EB41000079C0F3400088BB06EB5D
:10575000460104F1300000EB4100007900F0010047
:1057600038BB06EB460104F1300000EB4100007944
:1057700020F00200801C06EB460204F1300101EB30
:105780004201087106EB460104F1300000EB4100D4
:10579000007920F00100401C06EB460204F13001C4
:1057A00001EB4201087106EB460204F1300001E012
:1057B00014E006E000EB4201EA1D2046FFF771FB12
:1057C00003E0701CC6B2032EB7DB00BFBD20005D36
:1057D00020F00200801CBD21085555E00A22C8A116
:1057E000284609F074F820BB05F10B0009F044F8D5
:1057F000052817D9C548C66805F10B023146204671
:10580000FFF740FCBD20005D20F02001BD200155C8
:10581000308A30B1BD20005D20F020002030BD2155
:10582000085531E005F10B0200212046FFF72AFC64
:105830002AE00C22B6A1284609F049F870B905F112
:105840000D0204F18C012046FFF788FCC120005DA9
:1058500020F00200801CC121085515E00A22B0A1E9
:10586000284609F034F878B90021AC20015105F13F
:105870000B00FFF7D0F9B0210851BD20005D20F0EA
:1058800040004030BD210855A08940F22F71884268
:105890000CD10822A5A1284609F019F830B9C12079
:1058A000005D20F00400001DC1210855BAF1000F71
:1058B00012D014F8C00F20F00100401C2070207896
:1058C00020F0020004F8C009BD20005D20F0800037
:1058D0008030BD21085513E0B8F1000F10D014F846
:1058E000C00F20F001002070207820F00200801C02
:1058F00004F8C009BD20005D20F08001BD200155E5
:1059000000BF58E4034699811A6118685861002065
:105910001876704770B505460C46224686A1284683
:1059200009F06AF870BD70B505460C46288840F24B
:105930004232811A90427DD008DC60B1B0F54B7FD5
:1059400028D0A0F23730002875D17EE00B2973D023
:105950001629F9D1CAE1A089052853D100BF00203A
:10596000C4F8C00000BF022274A104F1080006F0D0
:105970002AFB0222AFF23C3104F1080006F023FBBF
:10598000002204212046FFF7BDFF00BF4FF44B70FB
:10599000288000BF94F8C00000F0010030B994F8EE
:1059A000C000C0F3400008B9002070BD00BF94F8EB
:1059B000C00000F0010080F00100207600BF04F17B
:1059C000B80006F051FB0020A0815D4908805D49C8
:1059D00008805D4908805D4908805D4908805D490F
:1059E00008805D4908805D49088094F8BC0000F09B
:1059F000010030B994F8BC0020F00200801C84F84B
:105A0000BC00ABE1A089042857D100BF0020C4F836
:105A1000C00000BF042252A104F1080006F0D3FA2E
:105A20000222AFF2E83104F1080006F0CCFA0022BD
:105A3000042102E0ABE092E101E12046FFF762FFC2
:105A400000BF40F23730288000BF94F8C00000F05B
:105A5000010030B994F8C000C0F3400008B900203C
:105A6000A3E700BF94F8C00000F0010080F001003F
:105A7000207600BF04F1B80006F0F6FA0020A081FD
:105A80002F4908802F4908802F4908802F49088016
:105A90002F4908802F4908802F4908802F49088006
:105AA00094F8BC0000F0010030B994F8BC0020F07C
:105AB0000200801C84F8BC0050E1A089012872D14A
:105AC00000BF0020C4F8C00000BF112226A104F1CD
:105AD000080006F078FA0222AFF2A04104F10800B3
