:020000040800F2
:10000000C0E3002069020008CD1E0008C51E0008DC
:10001000C91E000875050008897800080000000066
:10002000000000000000000000000000AD0100081A
:100030007906000800000000010200087F6D00083A
:10004000830200088302000883020008830200087C
:10005000830200088302000883020008830200086C
:100060008302000883020008830200087905000863
:100070008905000899050008A9050008B9050008C8
:10008000C9050008D9050008830200080000000027
:1000900000000000000000000000000083020008D3
:1000A000830200088302000883020008830200081C
:1000B000830200088302000883020008830200080C
:1000C00083020008830200088302000883020008FC
:1000D000830200080D780008317800080000000055
:1000E0008302000883020008830200080000000069
:1000F000000000000000000000000000E90500080A
:100100000000000083020008830200088302000848
:1001100000000000000000000000000000000000DF
:10012000F905000809060008190600082906000854
:100130003906000800000000000000000000000078
:100140000000000000000000000000008302000822
:100150004906000859060008690600085D7800088D
:100160008302000883020008000000000000000075
:10017000000000000000000000000000000000007F
:1001800000000000830200080000000000000000E2
:100190008302000883020008DFF80CD000F00CF99D
:1001A00000480047057B0008C0E300202B4B19687E
:1001B0000868B0E8F04F80F30988BFF36F8F4FF005
:1001C000000080F3118870470000000006480068B6
:1001D000006880F3088862B661B6BFF34F8FBFF343
:1001E0006F8F00DF00BF00BF08ED00E0DFF80C00FC
:1001F000016841F470010160704700BF88ED00E0C4
:10020000EFF30980BFF36F8F144B1A681EF0100FC5
:1002100008BF20ED108A20E9F04F106008B44FF0BD
:10022000500080F31188BFF34F8FBFF36F8F08F03A
:10023000D7F94FF0000080F3118808BC19680868EE
:10024000B0E8F04F1EF0100F08BFB0EC108A80F33A
:100250000988BFF36F8F704700BF00BF7C0000208C
:10026000EFF30580704700000648804706480047C6
:10027000FEE7FEE7FEE7FEE7FEE7FEE7FEE7FEE756
:10028000FEE7FEE7896D00089901000840EA0103D6
:100290009B0703D009E008C9121F08C0042AFAD23C
:1002A00003E011F8013B00F8013B521EF9D2704700
:1002B000D2B201E000F8012B491EFBD270470022A8
:1002C000F6E710B513460A4604461946FFF7F0FF55
:1002D000204610BD10B5044604E00B7800F8013B41
:1002E00003B1491C521EF8D2204610BD421C10F822
:1002F000011B0029FBD1801A704710B5002200E0D5
:10030000521C835C8C5CA34201D1002BF8D1D8B283
:10031000E1B2401A10BD034611F8012B00F8012B81
:10032000002AF9D11846704730B50546002003462B
:1003300000E05B1C934205D2EC5CC85C201A01D142
:10034000002CF6D130BD000070B500B91068002552
:1003500012E00B4602E0A64203D05B1C1C78002C86
:10036000F9D1E3B22B4305D02CB125B1002100F81F
:10037000011B04E00546401C0678002EE9D1106000
:10038000284670BD004ADFE7D800002030B50B4694
:10039000014600202022012409E021FA02F59D42B5
:1003A00005D303FA02F5491B04FA02F52844151E89
:1003B000A2F10102F1DC30BD064C074D06E0E06819
:1003C00040F0010394E8070098471034AC42F6D39C
:1003D000FFF7E6FEB08F0008D08F000830B5014669
:1003E000002409B9002030BD4A688B689A4200D1C8
:1003F0000C68934200D99C1A9A4202D9D51A08680F
:10040000441B601EEFE730B503460BB9002030BD3A
:1004100059689A68914200D10024914200D98C1AFF
:100420008A4202D9551A1868441B2046EFE770B576
:1004300004460D4616460CB9012070BD1821204611
:10044000FFF73DFF2560E6600A206074E06868B948
:10045000284607F0AFFBE060E06818B90020206094
:100460000120EAE7207C40F002002074207C40F06C
:10047000010020740020E0E72DE9F047044688469B
:1004800015464FF0000904B115B90020BDE8F0870A
:100490002168A068884201D30020A0602046FFF7B1
:1004A000B2FF0746AF4203D20FB90020EEE73D4648
:1004B000A1682068461AAE4200D92E46D4E902202F
:1004C000811832464046FFF7E1FEB144A06830444F
:1004D000A060AD1B35B108EB09002A46E168FFF7C3
:1004E000D5FEA5602168A068884201D30020A060E5
:1004F00009EB0500CAE72DE9F04704468946154691
:100500004FF0000804B115B90020BDE8F087D4E928
:100510000010884201D3002060602046FFF75EFF94
:100520000746AF4203D20FB90020EEE73D46D4E9BB
:100530000001461AAE4200D92E466268E16888186A
:1005400032464946FFF7A2FEB0446068304460601E
:10055000AD1B35B109EB08012A46E068FFF796FEAE
:100560006560D4E90010884201D30020606008EB88
:100570000500CAE700BFFEE710B5024806F021FDFE
:1005800010BD00001060024010B5024806F019FDD1
:1005900010BD00002860024010B5024806F011FDB1
:1005A00010BD00004060024010B5024806F009FD91
:1005B00010BD00005860024010B5024806F001FD71
:1005C00010BD00007060024010B5024806F0F9FC52
:1005D00010BD00008860024010B5024806F0F1FC32
:1005E00010BD0000A060024010B5024806F0E9FC12
:1005F00010BD0000B860024010B5024806F0E1FCF2
:1006000010BD00001064024010B5024806F0D9FC8D
:1006100010BD00002864024010B5024806F0D1FC6D
:1006200010BD00004064024010B5024806F0C9FC4D
:1006300010BD00005864024010B5024806F0C1FC2D
:1006400010BD00007064024010B5024806F0B9FC0D
:1006500010BD00008864024010B5024806F0B1FCED
:1006600010BD0000A064024010B5024806F0A9FCCD
:1006700010BD0000B8640240704770477047704773
:100680007047000070B504460D46034E2A462146C9
:100690003046FFF730FF70BD340400202DE9F041F3
:1006A00004460D461646C44FC4480460C421006881
:1006B000FFF705FE0020C149096881F86C00BF49B9
:1006C00009680860BE4A4FF400713846FFF7AFFE74
:1006D000BA4800688660B9480068083000F084F9BC
:1006E00030B100BF0720B54909680871BDE8F08145
:1006F000B2480068B83000F0CFFC28B100BF062037
:10070000AE4909680871F1E70020AE490880AE499A
:100710000880AE490880AE490880AE490880AE49DD
:100720000880AE490880A548006890F8BC0020F019
:100730000100401CA149096881F8BC0000BF9F4826
:100740000068B83000F0C6FC08B10420CEE79B4832
:100750000068808928B99948006800689749096845
:100760004861042095490968888100BF4FF47A7177
:100770009248006800F02EFE00BF90480068B83034
:1007800000F09AFC00208D49096888818D49088015
:100790008D4908808D4908808E4908808C490880E1
:1007A0008F4908808C4908808C49088083480068FC
:1007B00090F8BC0000F0010050B98048006890F843
:1007C000BC0020F00200801C7C49096881F8BC0054
:1007D00000BF00BF79480068B83000F07BFC08B16A
:1007E000042083E775480068808928B97348006849
:1007F0000068724909684861022070490968888167
:1008000000BF4FF47A716D48006800F0E3FD00BF4F
:100810006A480068B83000F04FFC0020674909685A
:100820008881684908806849088068490880694962
:100830000880674908806A490880674908806749D5
:1008400008805E48006890F8BC0000F0010050B9D4
:100850005A48006890F8BC0020F00200801C5749FC
:10086000096881F8BC0000BF00BF54480068B83078
:1008700000F030FC08B1042038E750480068808957
:1008800028B94E48006800684C490968486103204F
:100890004A490968888100BF4FF47A714748006867
:1008A00000F098FD00BF45480068B83000F004FC37
:1008B00000204249096888814249088042490880ED
:1008C00042490880434908804149088044490880DA
:1008D00041490880414908803848006890F8BC00C8
:1008E00000F0010050B93548006890F8BC0020F0D5
:1008F0000200801C3149096881F8BC0000BF3948FA
:10090000056000BF2D480068B83000F0E3FB08B177
:100910000420EBE629480068808928B92748006848
:10092000006826490968486140F2011023490968B6
:10093000888100BF4FF47A712048006800F04AFDBA
:1009400000BF1E480068B83000F0B6FB00201B490D
:10095000096888811B4908801B4908801B49088059
:100960001C4908801A4908801D4908801A490880D6
:100970001A4908801148006890F8BC0000F0010096
:1009800050B90E48006890F8BC0020F00200801CAE
:100990000A49096881F8BC0000BF0848006890F85F
:1009A000BC0020F001000549096881F8BC0000BFC7
:1009B0000020207100BF99E6340400205C00002074
:1009C0004C04002060000020620000206400002031
:1009D00068000020660000206C0000206E000020EF
:1009E0006A0000201C04002010B5044600210348C2
:1009F000226806F0A9FD002010BD00000010014093
:100A000070B506460C4615462A462146024806F0B1
:100A1000D4FD002070BD0000001001404FF4E13211
:100A20004BA14D48FFF73AFE044621464BA006F085
:100A30002DFF8CE0484800F077F96CE04D480068E5
:100A4000428801234C49444800F080FA4B49087021
:100A5000002855D14AA006F019FF4DA14648C01CF8
:100A6000FFF74BFC60B920204B49886101234BA262
:100A70004149B831384800F0BBFA4049087032E0CB
:100A800047A13D48C01CFFF738FC68B94FF400107F
:100A900041498861012341A23749B8312E4800F00D
:100AA000A7FA364908701EE03FA13348C01CFFF783
:100AB00024FC78B93848406980F020003649486104
:100AC000012336A22C49B831234800F091FA2B4972
:100AD000087008E0012337A22749B8311E4800F00A
:100AE00087FA264908702548007818B933A006F01F
:100AF000CDFE0AE02148017834A006F0C7FE04E0EC
:100B00001E48017838A006F0C1FE0122194801688C
:100B1000114800F05EF901210F4800F05EF9154917
:100B2000086000288AD106F0CFF980B101220521A2
:100B3000094800F091F91149087018B931A006F080
:100B4000A5FE04E00D48017834A006F09FFE71E791
:100B50003132333400000000BC01002047534D20E7
:100B6000496E6974207374617475733A2025640D3D
:100B70000A0000004C00002048030020480000202C
:100B8000534D532052454144204F4B210D0A000044
:100B90004C4544204F4E0000000002404F4B0000E7
:100BA0004C4544204F4646004C454420544F47474F
:100BB0004C4500004552524F5200000053454E44F0
:100BC000204241434B204F4B210D0A004572726F6A
:100BD0007220747279696E6720746F2073656E6419
:100BE0003A2025640D0A00004572726F72207472FB
:100BF00079696E6720746F20726561643A2025649C
:100C00000D0A0000534D53204D4153532044454C91
:100C1000455445204F4B0D0A000000004572726F8D
:100C20007220747279696E6720746F206D617373BE
:100C30002064656C6574653A2025640D0A00000027
:100C400010B50446A089012806DBA089FF2803DC33
:100C500021462D4801F0F8FCA089B0F5806F07DB34
:100C6000A089B0F5A06F03DA2146284803F09EFD65
:100C7000A089FF2807DDA089B0F5007F03DA2146AF
:100C8000234804F0E5FAA089B0F5007F07DBA089CE
:100C9000B0F5407F03DA21461E4804F0F1FDA0893B
:100CA000B0F5407F07DBA089B0F5806F03DA2146FD
:100CB000194801F035F9A089B0F5A06F07DBA089CC
:100CC000B0F5C06F03DA2146144803F013FFA08982
:100CD000B0F5C06F07DBA089B0F5E06F03DA2146FD
:100CE0000F4801F02FFCA089B0F5E06F07DBA08969
:100CF000B0F5006F03DA21460A4801F047FE00BF55
:100D00000020207110BD0000600000206200002063
:100D10006400002068000020660000206A000020B7
:100D20006C0000206E00002010B50446A08968B950
:100D300094F8BC00C0F3400040B194F8BC0020F02F
:100D4000020084F8BC002046FFF799FCA08990B906
:100D500094F8BC00C0F3400068B9BD20005DC0F34A
:100D6000800040B1BD20005D20F00401BD20015590
:100D70002046FFF782FCA08990B994F8BC00C0F32C
:100D8000400068B9BD20005DC0F3C00040B1BD2087
:100D9000005D20F00801BD2001552046FFF76EFCE4
:100DA000A08990B994F8BC00C0F3400068B9BD2098
:100DB000005DC0F3400040B1BD20005D20F00201A5
:100DC000BD2001552046FFF75BFC00BF00202071CD
:100DD00010BD034600200871704730B502460B462F
:100DE000002100BF33E001EB410402F1300000EBD1
:100DF0004400007900F0010038B301EB410402F136
:100E0000300000EB4400007920F0010401EB4105C3
:100E100002F1300000EB4500047101EB410402F1E6
:100E2000300000EB4400007920F00200801C01EB50
:100E3000410502F1300404EB4504207101EB41044B
:100E400002F1300000EB440030BD481CC1B2032960
:100E5000C9DB0020F8E7000070B504460D461646D1
:100E600000BFA08920B994F8BC00C0F3400018B1BD
:100E700000BF0220207170BD00BF00BF04F1B800A8
:100E800000F028F908B10420F5E7A08908B9206826
:100E900060614FF40170A08100BF062D1CD2DFE815
:100EA00005F003070B0F13171CA01E49086014E080
:100EB0001DA01C49086010E01DA01A4908600CE044
:100EC0001DA01849086008E01DA01649086004E04C
:100ED0001DA01449086000E000BF00BF00BF4EB96C
:100EE00094F8BC0020F0010084F8BC0000BF002092
:100EF0002071C0E794F8BC0020F00100401C84F889
:100F0000BC003221204600F065FA0346042B00D1D4
:100F1000B1E7237E002020761846ACE752454144D5
:100F2000000000001C040020554E524541440000C2
:100F300053454E5400000000554E53454E5400009A
:100F4000494E424F58000000414C4C002DE9F04101
:100F500004460D4616461F4600BF25B900BF0320B4
:100F60002071BDE8F08100BF00BFA08920B994F8CE
:100F7000BC00C0F3400018B100BF02202071F0E7B0
:100F800000BF00BF04F1B80000F0A4F808B10420CD
:100F9000E7E7A08908B92068606140F20220A081DB
:100FA00000BF2E801148C56000BF4FB994F8BC0047
:100FB00020F0010084F8BC0000BF00202071D0E7C1
:100FC00094F8BC0020F00100401C84F8BC004FF4F1
:100FD000FA71204600F0FEF90346042B00D1C0E769
:100FE000237E002020761846BBE700001C0400206A
:100FF0002DE9F04104460E4615461F4600BF2EB1AE
:1010000025B12846FFF772F9A02804D900BF0320B4
:101010002071BDE8F08100BF00BFA08920B994F81D
:10102000BC00C0F3400018B100BF02202071F0E7FF
:1010300000BF00BF04F1B80000F04CF808B1042074
:10104000E7E7A08908B92068606140F20120A0812B
:1010500000BFA562666200BF4FB994F8BC0020F0E3
:10106000010084F8BC0000BF00202071D1E794F893
:10107000BC0020F00100401C84F8BC0047F2305155
:10108000204600F0A7F90346042B00D1C1E7237ED8
:10109000002020761846BCE710B50446204606F02E
:1010A000C4FD044908600846006808B9012010BD65
:1010B0000020FCE77800002010B5044604480068D2
:1010C00006F0BAFD08B1012010BD0020FCE70000C9
:1010D0007800002010B504464FF47A710448006887
:1010E00006F0D2FD08B1012010BD0020FCE7000091
:1010F00078000020F8B50446A94D4FF4FA76A0898F
:1011000060B120686169401AE169884206D994F8A3
:10111000C00020F00200801C84F8C00032E1A089E9
:1011200040F2317188421FD1BD20005DC0F38010B4
:10113000D0B19DF80030AC210859411CAC221151AE
:10114000982109590B54B0200059401EB021085174
:10115000B0200059002806D1BD20005D20F04001DC
:10116000BD200155002605E1A08940F22C7188427E
:101170001ED1BD20005DC0F34010C8B18949C868C8
:101180009DF800204389591C41814168CA54018A55
:10119000491E0182018A51B9BD21095D21F0200259
:1011A000BD210A55817D21F0020181750026E1E013
:1011B000A08940F20221884240D1BD20005D00F0AC
:1011C0000100D0B37749C86890F8A3109F2909D2CD
:1011D0009DF8002010F8A33F0178491C00F8A319DE
:1011E000C11CCA549DF800100A2925D16E490978FE
:1011F0000D2921D190F8A31002291DDB90F8A3102E
:10120000891EC21C515C0D290AD190F8A310491EF9
:10121000515C0A2904D190F8A310891E80F8A3100C
:10122000002290F8A330C11CCA54BD21095D21F0F1
:101230000102BD210A5500269CE0FFE7A08940F28B
:101240000521884250D1BD20005D00F0010000283A
:101250004AD054480069008852494969884233D2CB
:101260005049C8689DF8002010F8A33F0178491C38
:1012700000F8A319C11CCA549DF800100A2922D1F4
:10128000494909780D291ED190F8A31002291ADBCB
:1012900010F8A31F891E0170002210F8A339C11C89
:1012A000CA544049C968D4313E4AD16011460969DF
:1012B0000988491C12691180BD21095D21F00102D4
:1012C000BD210A55002655E09DF800000A2851D19D
:1012D000354800780D284DD1BD20005D20F001017A
:1012E000BD200155002645E09DF800000A281BD1CD
:1012F00000BF9DF800102D4802780078401C2B4B51
:101300001870581C81540021401E0278401C8154E2
:1013100000BF411E204605F053F900BF00202349BD
:101320000870487000BF24E09DF8000020280ED10E
:101330001D4800783E280AD11D4800780A2806D1A9
:1013400094F8C00020F00400001D84F8C00000BF25
:101350009DF80010154802780078401C134B187057
:10136000581C81540021401E0278401C815400BF4B
:1013700000BF00BF0C4800780D4908709DF80000C0
:10138000094908703EB1012269462846FFF774F802
:1013900000287FF4C4AE2046FFF752FCF8BD0000E1
:1013A000340400201C040020740000204D0600209E
:1013B00075000020024610680844106000BF00203D
:1013C0001071704702E00248FFF794FEFBE700004F
:1013D000BC0100200246D16100BF90890028FCD1E9
:1013E00092F8BC00C0F340000028F6D100BF107E88
:1013F0001071107E704700000148006870470000BF
:101400000400002010B52E480068401C2C490860DC
:101410002C48006820B12B480068401E294908600C
:10142000002444E0284850F8240000283DD02648F5
:1014300050F824000078C0F34000B0B3224850F8C0
:101440002400806840B1204850F824008068401E85
:101450001D4951F8241088601B4850F8240080680A
:1014600018BB194B53F824301969174B53F8240053
:1014700053F82430DA689047134850F82400416844
:10148000114850F8240081600F4850F8240000787B
:1014900000F0010048B90C4850F82400007820F012
:1014A0000201094850F824000170601CC4B20648CB
:1014B000001F0078A042B5DC05F0CAFC10BD00009A
:1014C00004000020000000200801002010B50D4895
:1014D000006840F400700B4908600846006840F45A
:1014E000806008600846006840F48070086003204F
:1014F00000F086F80F2000F007F800F017F8002041
:1015000010BD0000003C024070B5044600F0E4F954
:101510004FF47A71B0FBF1F5284600F081FC00220F
:101520002146501E00F02DF8002070BD70470000CD
:1015300000BF00F01F0201219140034A430942F815
:10154000231000BF7047000080E200E000BF00F001
:101550001F0201219140034A430942F8231000BFB2
:101560007047000080E100E000BF00F01F02012191
:1015700091404209920002F1E022C2F8001100BF3E
:1015800070472DE9F05F80460D461646002700F0B3
:101590009FFC074639462A46334601F00700C0F152
:1015A000070ABAF1040F02D94FF0040A01E0C0F1B2
:1015B000070AD14600F1040ABAF1070F02D24FF030
:1015C000000A01E0A0F1030AD4464FF0010A0AFA2A
:1015D00009FAAAF1010A0AEA020A0AFA0CFA4FF019
:1015E000010B0BFA0CFBABF1010B0BEA030B4AEA04
:1015F0000B042146404600F073FCBDE8F09F00005C
:1016000000BF00F00702064B19684FF6FF031940B0
:10161000044B0B4343EA0221014B196000BF7047A2
:101620000CED00E00000FA0570B504460E460025FA
:10163000A748006800F00F00B0426FD2A4490E70B6
:101640000846006800F00F00B04201D0012070BDD4
:10165000207800F00200022807D19E48006820F0A0
:10166000F000A16808439B490860207800F0010061
:1016700000283ED06068012807D1964808380068E5
:10168000C0F34040B8B90120E1E76068022802D009
:101690006068032807D18F4808380068C0F34060AD
:1016A00048B90120D3E78B4808380068C0F34000F0
:1016B00008B90120CBE78748006820F00300616883
:1016C000084384490860FFF797FE054660680128D3
:1016D00010D108E0FFF790FE401B41F288318842AC
:1016E00001D90320B3E77B48006800F00C00042810
:1016F000F0D1CDE06068022811D108E0FFF77CFE50
:10170000401B41F28831884201D903209FE771488C
:10171000006800F00C000828F0D1B9E024E060680F
:10172000032810D108E0FFF767FE401B41F2883123
:10173000884201D903208AE76648006800F00C005F
:101740000328F0D1A4E008E0FFF756FE401B41F269
:101750008831884201D9032079E75E48006800F0AB
:101760000C000028F0D193E0207800F0020002285D
:1017700007D15848006820F0F000A1680843554997
:101780000860207800F00100002877D06068012808
:1017900007D1504808380068C0F34040B8B901206C
:1017A00055E76068022802D06068032807D14948DD
:1017B00008380068C0F3406048B9012047E7454851
:1017C00008380068C0F3400008B901203FE74148ED
:1017D000006820F00300616808433E490860FFF795
:1017E0000BFE05466068012810D108E0FFF704FEF3
:1017F000401B41F28831884201D9032027E7354850
:10180000006800F00C000428F0D137E0606802287E
:1018100010D108E0FFF7F0FD401B41F2883188420B
:1018200001D9032013E72B48006800F00C000828BA
:10183000F0D123E06068032810D108E0FFF7DCFD59
:10184000401B41F28831884201D90320FFE621483C
:10185000006800F00C000328F0D10FE008E0FFF76B
:10186000CBFD401B41F28831884201D90320EEE6CE
:101870001848006800F00C000028F0D114490E70E0
:101880000846006800F00F00B04201D00120DEE6FB
:10189000207800F00400042807D10E48006820F4E6
:1018A000E050E16808430B490860207800F0080028
:1018B000082808D10748006820F46040216940EA00
:1018C000C100044908600F20FFF71EFE0020BEE69D
:1018D000003C02400838024010B500F045F80949C4
:1018E000096801F0F001F02292FAA2F2B2FA82F253
:1018F000D140054A515CC840044908600846006868
:1019000010BD0000083802404C8F0008580000202D
:1019100010B5FFF7E1FF0749096801F4E0514FF402
:10192000E05292FAA2F2B2FA82F2D140024A515C3B
:10193000C84010BD083802404C8F000810B5FFF7B2
:10194000CBFF0749096801F460414FF4604292FA05
:10195000A2F2B2FA82F2D140024A515CC84010BDF4
:10196000083802404C8F000870B500210022002387
:101970000020274C246804F00C0424B1042C04D06B
:10198000082C41D103E0234840E023483EE0204CAE
:10199000241F246804F03F011D4C241F246804F414
:1019A000800484B11C4CB4FBF1F5194C241F24684D
:1019B00047F6C076344096FAA6F6B6FA86F6F440B4
:1019C00005FB04F20FE0134CB4FBF1F5104C241F9F
:1019D000246847F6C076344096FAA6F6B6FA86F63C
:1019E000F44005FB04F20A4C241F246804F440343C
:1019F0004FF4403595FAA5F5B5FA85F5EC40641C31
:101A00006300B2FBF3F001E0024800BF00BF70BD0D
:101A1000083802400024F40000127A0038B5044669
:101A20000025207800F00100002866D0F648006804
:101A300000F00C0004280DD0F348006800F00C0002
:101A4000082813D1F048001F006800F48000B0F5AA
:101A5000800F0BD1EC4808380068C0F340400028E4
:101A60004BD06068002848D1012038BD0020E649ED
:101A7000891F0870FFF7C0FC054608E0FFF7BCFCB3
:101A8000401B41F28831884201D90320EDE7DE484E
:101A900008380068C0F340400028EFD12079DA49C7
:101AA000891F08706068A0B1FFF7A6FC054608E032
:101AB000FFF7A2FC401B41F28831884201D9032084
:101AC000D3E7D14808380068C0F340400028EFD081
:101AD00013E0FFF791FC054608E0FFF78DFC401B83
:101AE00041F28831884201D90320BEE7C648083850
:101AF0000068C0F340400028EFD1207800F00200D9
:101B0000022869D1C048006800F00C0058B1BE48F6
:101B1000006800F00C00082821D1BB48001F0068B5
:101B200000F48000D8B9B84808380068C0F3400015
:101B300020B1E068012801D0012096E7B2480838BA
:101B4000006820F0F800F82292FAA2F2B2FA82F2CB
:101B5000216991400843AC49083908603CE0E068DD
:101B600028B30120A9490860FFF746FC054606E0B6
:101B7000FFF742FC401B642801D9032075E7A24807
:101B800008380068C0F340000028F1D09E480838AB
:101B9000006820F0F800F82292FAA2F2B2FA82F27B
:101BA00021699140084398490839086014E00020F1
:101BB00096490860FFF720FC054606E0FFF71CFC8D
:101BC000401B642801D903204FE78F48083800687C
:101BD000C0F340000028F1D1207800F00800082868
:101BE0002CD16069A8B1012089490860FFF704FC85
:101BF000054606E0FFF700FC401B642801D90320DE
:101C000033E781486C300068C0F340000028F1D011
:101C100014E000207E490860FFF7EEFB054606E071
:101C2000FFF7EAFB401B642801D903201DE7764833
:101C30006C300068C0F340000028F1D1207800F03B
:101C4000040004286DD100BF6F483830006840F0B0
:101C500080506D49383108600846006800F08050B7
:101C6000009000BF00BF6B48006840F48070694975
:101C70000860FFF7C1FB054606E0FFF7BDFB401B10
:101C8000642801D90320F0E66248006800F48070FF
:101C90000028F2D000205C4968310870FFF7ACFBE7
:101CA000054608E0FFF7A8FB401B41F28831884257
:101CB00001D90320D9E6544868300068C0F34000D9
:101CC0000028EFD1207A504968310870A068A0B18F
:101CD000FFF792FB054608E0FFF78EFB401B41F241
:101CE0008831884201D90320BFE647486830006840
:101CF000C0F340000028EFD013E0FFF77DFB05465E
:101D000008E0FFF779FB401B41F28831884201D996
:101D10000320AAE63C4868300068C0F34000002871
:101D2000EFD1A069F0B33848006800F00C00082833
:101D300072D0A069022850D1002034490866FFF70C
:101D40005BFB054606E0FFF757FB401B642801D903
:101D500003208AE62C4808380068C0F34060002859
:101D6000F1D1D4E90701084347F6C07292FAA2F212
:101D7000B2FA82F2616A914008430122A16AC2EB81
:101D800051014FF4403292FAA2F2B2FA82F291403B
:101D900008434FF0706292FAA2F2B2FA82F2E16A5C
:101DA000914000E03AE008431749091F086001200C
:101DB00016490866FFF720FB054606E0FFF71CFB07
:101DC000401B642801D903204FE60F4808380068FB
:101DD000C0F340600028F1D020E000200B490866E5
:101DE000FFF70AFB054606E0FFF706FB401B6428E9
:101DF00001D9032039E6044808380068C0F3406080
:101E00000028F1D10AE007E008380240000047420C
:101E1000800E474200700040012026E6002024E6A4
:101E200070B504462546681EB0F1807F01D30120BD
:101E30000FE0681E4FF0E02148610F214FF0FF30A6
:101E400000F04EF800204FF0E02188610720086183
:101E5000002070BD10B504460CB9012010BDA0696A
:101E600000B100E000BF94F8390028B9002084F8E0
:101E70003800204600F025F8022084F83900206858
:101E8000C06820F400502168C860204605F0ACFB13
:101E90002068006920F4904021680861206840694A
:101EA00020F02A00216848612068C06840F4005092
:101EB0002168C8600020E063012084F83900002018
:101EC000CCE7704700BFFEE700BFFEE770470000A9
:101ED00002480068C0F30220704700000CED00E0EB
:101EE00010B5002807DA0A07140E054A00F00F03A0
:101EF0001B1FD45403E00A07130E024A135410BDEB
:101F000018ED00E000E400E070B505460C462246FE
:101F100002A1284605F0CAFC70BD0000256400003F
:101F20007CB505460C46288840F20442811A90424E
:101F30007ED00ADC80B1B0F5787F27D0A0F2EA30FD
:101F4000002876D00E2875D103E10D2973D0182909
:101F500072D02329F7D1A2E294F86C00012851D065
:101F600000BF0020C4F8C00000BF0822FCA104F19B
:101F70000800FEF745FD0222FCA104F10800FEF76F
:101F80003FFD00BF4FF47870288000BF94F8C00078
:101F900000F0010030B994F8C000C0F3400008B967
:101FA00000207CBD00BF94F86C0001282AD00820D6
:101FB000207600BF04F1B800FFF77EF80020A08172
:101FC000EB490880EB490880EB490880EB49088021
:101FD000EB490880EB490880EB490880EB49088011
:101FE00094F8BC0000F0010030B994F8BC0020F077
:101FF0000200801C84F8BC0000BF00BF00202880C5
:102000000220CEE7A08940F2013188426BD100BFA7
:102010000020C4F8C00000BF0322DDA104F10800C5
:10202000FEF7EEFCDB490868FEF760F986B204E0D3
:10203000F4E020E06CE259E1D8E1D648324601688C
:1020400004F10800FEF7DCFC0122D3A104F1080032
:10205000FEF7D6FC0222C5A104F10800FEF7D0FC71
:10206000002240F20131204604F081FE00BF40F220
:10207000EA30288000BF94F8C00000F0010030B9B9
:1020800094F8C000C0F3400008B9002089E700BF01
:1020900094F8C00000F0010080F00100207600BF3D
:1020A00004F1B800FFF708F80020A081B0490880CB
:1020B000B0490880B0490880B0490880B04908801C
:1020C000B0490880B0490880B049088094F8BC0045
:1020D00000F0010030B994F8BC0020F00200801C30
:1020E00084F8BC0013E2A08940F20531884268D12F
:1020F00000BF0020C4F8C00000BFA6484169684680
:10210000FFF702FF0922A5A104F10800FEF778FC01
:102110006846FEF7EBF886B23246694604F10800DD
:10212000FEF76EFC01229CA104F10800FEF768FC9A
:1021300002228EA104F10800FEF762FC002240F2A8
:102140000531204604F013FE00BF4FF47E70288056
:1021500000BF94F8C00000F0010030B994F8C0004E
:10216000C0F3400008B900201BE700BF94F8C0008E
:1021700000F0010080F00100207600BF04F1B800FB
:10218000FEF79AFF0020A0817949088079490880EC
:102190007949088079490880794908807949088017
:1021A000794908807949088094F8BC0000F0010062
:1021B00030B994F8BC0020F00200801C84F8BC0008
:1021C000A5E1A08940F2023188425FD100BF002022
:1021D000C4F8C00000BF03226DA104F10800FEF79F
:1021E0000FFC6C490868FEF781F886B269483246F0
:1021F000016804F10800FEF703FC02225BA104F170
:102200000800FEF7FDFB002240F20231204604F0F8
:10221000AEFD00BF40F20440288000BF94F8C0002B
:1022200000F0010030B994F8C000C0F3400008B9D4
:102230000020B6E600BF94F8C00000F0010080F076
:102240000100207600BF04F1B800FEF735FF002042
:10225000A081474908804749088047490880474985
:10226000088047490880474908804749088047490E
:10227000088094F8BC0000F0010030B994F8BC006C
:1022800020F00200801C84F8BC0040E1A08940F2EC
:102290000631884262D100BF0020C4F8C00000BFF0
:1022A0003C4841696846FFF72FFE09223BA104F133
:1022B0000800FEF7A5FB6846FEF718F886B232461E
:1022C000694604F10800FEF79BFB022227A104F1F6
:1022D0000800FEF795FB002240F20631204604F08C
:1022E00046FD00BF40F21140288000BF94F8C000B6
:1022F00000F0010030B994F8C000C0F3400008B904
:1023000000204EE600BF94F8C00000F0010080F00D
:102310000100207600BF04F1B800FEF7CDFE0020DA
:10232000A081134908801349088013490880134984
:10233000088013490880134908801349088013490D
:10234000088094F8BC0000F0010030B994F8BC009B
:1023500020F00200801C84F8BC00D8E024E00000DB
:1023600041542B4350494E3F000000000D0A00002D
:102370006000002062000020640000206600002051
:10238000680000206A0000206C0000206E00002021
:10239000415444001C0400203B0000004154443ED2
:1023A00022534D2220000000A08940F203318842D0
:1023B00054D100BF0020C4F8C00000BF032257A1C1
:1023C00004F10800FEF71CFB0222AFF2600104F1E9
:1023D0000800FEF715FB002240F20331204604F00E
:1023E000C6FC00BF40F21C40288000BF94F8C0002B
:1023F00000F0010030B994F8C000C0F3400008B903
:102400000020CEE500BF94F8C00000F0010080F08D
:102410000100207600BF04F1B800FEF74DFE002059
:10242000A0813F4908803F4908803F4908803F49D3
:1024300008803F4908803F4908803F4908803F495C
:10244000088094F8BC0000F0010030B994F8BC009A
:1024500020F00200801C84F8BC0058E0A089B0F590
:10246000417F54D100BF0020C4F8C00000BF032248
:1024700033A104F10800FEF7C3FA0222AFF21411EF
:1024800004F10800FEF7BCFA00224FF44171204627
:1024900004F06DFC00BF40F22740288000BF94F894
:1024A000C00000F0010030B994F8C000C0F3400053
:1024B00008B9002075E500BF94F8C00000F00100E5
:1024C00080F00100207600BF04F1B800FEF7F4FDB3
:1024D0000020A08112490880124908801249088012
:1024E0001249088012490880124908801249088060
:1024F0001249088094F8BC0000F0010030B994F84B
:10250000BC0020F00200801C84F8BC0000BF00BFAB
:1025100000BF00202880032043E500004154410013
:10252000600000206200002064000020660000209F
:10253000680000206A0000206C0000206E0000206F
:102540004154480070B505460C46288820B1A0F2D9
:102550001B5000285AD120E0A08940F20161884236
:1025600053D100BF0020C4F8C00000BF08222AA138
:1025700004F10800FEF744FA02222AA104F108003F
:10258000FEF73EFA002240F20161204604F0EFFB24
:1025900000BF40F21B50288000BF94F8C00000F03C
:1025A000010030B994F8C000C0F3400008B9002021
:1025B00070BD00BF94F8C00000F0010080F0010081
:1025C000207600BF04F1B800FEF776FD0020A08160
:1025D0001549088015490880154908801549088063
:1025E0001549088015490880154908801549088053
:1025F00094F8BC0000F0010030B994F8BC0020F061
:102600000200801C84F8BC0000BF00BF00BF002097
:1026100028800320CCE7000041542B43434C4B3F20
:10262000000000000D0A0000600000206200002091
:102630006400002066000020680000206A0000207E
:102640006C0000206E00002070B505460C462888FE
:1026500040F22332811A90427ED004DC40B1B0F5C2
:10266000467F7AD122E00B2978D01629F9D123E1CF
:10267000A089042852D100BF0020C4F8C00000BFC8
:102680000422ACA104F10800FEF7BAF90222ABA1C2
:1026900004F10800FEF7B4F900220421204604F0FA
:1026A00066FB00BF4FF44670288000BF94F8C0005E
:1026B00000F0010030B994F8C000C0F3400008B940
:1026C000002070BD00BF94F8C00000F0010080F051
:1026D0000100207600BF04F1B800FEF7EDFC0020F9
:1026E000A0819749088097490880974908809749B1
:1026F000088097490880974908809749088097493A
:10270000088094F8BC0000F0010030B994F8BC00D7
:1027100020F00200801C84F8BC0005E1A08901289B
:1027200056D100BF0020C4F8C00000BF11228CA108
:1027300004F10800FEF764F9022280A104F1080008
:10274000FEF75EF900220121204604F010FB00BFD5
:1027500040F22330288002E002E0E6E056E000BFCD
:1027600094F8C00000F0010030B994F8C000C0F344
:10277000400008B90020A4E700BF94F8C00000F0B2
:10278000010080F00100207600BF04F1B800FEF7E0
:1027900093FC0020A0816A4908806A4908806A4940
:1027A00008806A4908806A4908806A4908806A493D
:1027B00008806A49088094F8BC0000F0010030B934
:1027C00094F8BC0020F00200801C84F8BC00ABE050
:1027D000A089022852D100BF0020C4F8C00000BF69
:1027E000092264A104F10800FEF70AF9022253A1AC
:1027F00004F10800FEF704F900220221204604F04B
:10280000B6FA00BF40F22E30288000BF94F8C00016
:1028100000F0010030B994F8C000C0F3400008B9DE
:1028200000204EE700BF94F8C00000F0010080F0E7
:102830000100207600BF04F1B800FEF73DFC002047
:10284000A0813F4908803F4908803F4908803F49AF
:1028500008803F4908803F4908803F4908803F4938
:10286000088094F8BC0000F0010030B994F8BC0076
:1028700020F00200801C84F8BC0055E0A0890328E9
:1028800052D100BF0020C4F8C00000BF09223CA103
:1028900004F10800FEF7B4F8022228A104F10800B0
:1028A000FEF7AEF800220321204604F060FA00BFD4
:1028B00040F23930288000BF94F8C00000F00100D9
:1028C00030B994F8C000C0F3400008B90020F8E621
:1028D00000BF94F8C00000F0010080F001002076F5
:1028E00000BF04F1B800FEF7E7FB0020A081144907
:1028F0000880144908801449088014490880144944
:10290000088014490880144908801449088094F804
:10291000BC0000F0010030B994F8BC0020F00200C7
:10292000801C84F8BC0000BF00BF00BF00202880CE
:102930000320C6E641542646000000000D0A0000B0
:10294000600000206200002064000020660000207B
:10295000680000206A0000206C0000206E0000204B
:1029600041542B434E4D493D312C322C302C302CD0
:102970003000000041542B434D45453D31000000DF
:1029800041542B434C43433D3100000073B584B0A8
:1029900004461A200090FC48C568208840F2346242
:1029A000811A90427DD03BDCB0F5B46F7AD01BDC4D
:1029B00040F25F52A0EB0201904274D00BDC70B386
:1029C000B0F5A66F70D0A0F2465000286DD0102848
:1029D00041F0BA86CAE10E2968D0172967D02529A7
:1029E0007ED03329F4D1F7E240F2EB52811A9042C3
:1029F00077D00BDCB0F5B76F74D0A0F2C6500028CA
:102A000071D00E2870D01C28E2D1E4E30F296CD0DD
:102A100017296BD02D296AD03329D9D1DCE347E0BF
:102A2000A02901F060821BDC4C2901F097800ADCB0
:102A300010297DD018297CD0262900F08B873629D3
:102A4000C6D100F0D9BF5A2901F0C4806E2901F027
:102A500044817A2901F07C819029B9D101F0FEB935
:102A6000EC2901F098840CDCA82901F06082BA29D5
:102A700001F02983D12901F0BC83DE29A8D101F01E
:102A800022BCFD2901F03485B1F5867F01F07A85FD
:102A9000A1F21B11002901F0C3850F2998D101F083
:102AA0000DBEFDE3D3E2B7E13BE0F1E0F1E11DE271
:102AB0000598808940F2027188427DD0059880890E
:102AC000491C884278D0059880890599C881059865
:102AD00090F82000012874D0059890F8200007E0B5
:102AE0003FE2F5E32EE368E3D3E3F2E3F2E3F2E35C
:102AF000052866D000BF00200599C1F8C00000BFBE
:102B00000822A2A105980830FDF77AFF0222A2A1AF
:102B100005980830FDF774FF00BF4FF4A6602080D1
:102B200000BF059890F8C00000F0010058B901E01E
:102B3000FEE3FEE3059890F8C000C0F3400010B932
:102B4000002006B070BD00BF059890F82000012855
:102B500037D0059890F82000052832D00B20059931
:102B6000087600BF0598B830FEF7A6FA0020059950
:102B700088818A4908808A4908808A4908808A4968
:102B800008808A4908808A4908808A4908808A49D9
:102B90000880059890F8BC0000F0010040B9059845
:102BA00090F8BC0020F00200801C059981F8BC0060
:102BB00000BF00BF002001E007E002E0208002200B
:102BC000BFE70598C089059988810598808940F2FA
:102BD000017188427ED1059880890599C88100BF1E
:102BE00000200599C1F8C00000BF092273A1059813
:102BF0000830FDF705FF64490868FDF777FB86B2EA
:102C000061483246016805980830FDF7F9FE032255
:102C10006DA105980830FDF7F3FE5B48406858B198
:102C200059494868FDF762FB86B257483246416809
:102C300005980830FDF7E4FE032263A105980830EB
:102C4000FDF7DEFE5048806858B14F498868FDF7AF
:102C50004DFB86B24C483246816805980830FDF736
:102C6000CFFE012257A105980830FDF7C9FE0222C8
:102C700049A105980830FDF7C3FE002240F201711A
:102C8000059804F074F800BF40F24650208000BF61
:102C9000059890F8C00000F0010038B9059890F848
:102CA000C000C0F3400008B900204AE700BF059803
:102CB00090F8C00000F0010080F00100059908764E
:102CC0000598C0890599888100BF0598B830FEF73E
:102CD000F3F900E023E00020059988812F4908805E
:102CE0002F4908802F4908802F4908802F490880E4
:102CF0002F4908802F4908802F490880059890F8AF
:102D0000BC0000F0010040B9059890F8BC0020F02C
:102D10000200801C059981F8BC0001F014BD0598E3
:102D2000808940F2027188427ED105988089059998
:102D3000C88100BF00200599C1F8C00000BF0A2269
:102D400022A105980830FDF75BFE022212A105982A
:102D50000830FDF755FE002240F22271059804F07C
:102D600006F800BF40F25650208000BF059890F84A
:102D7000C00000F0010078BB059890F8C000C0F3D7
:102D8000400048BB0020DCE61C04002041542B43DB
:102D90005245473F000000000D0A0000600000207F
:102DA000620000206400002066000020680000200F
:102DB0006A0000206C0000206E00002041542B436C
:102DC0005354543D22000000222C220041542B4336
:102DD000474143543D300000FFE700BF00BF0020E3
:102DE0000599C1F8C00000BF0A22FCA1059808306F
:102DF000FDF706FE0222AFF2600105980830FDF7EC
:102E0000FFFD002240F22271059803F0B0FF00BFE1
:102E100040F25F50208000BF059890F8C00000F09D
:102E2000010048B9059800E0B8E290F8C000C0F38E
:102E3000400008B9002084E600BF059890F8C00063
:102E400000F0010080F00100059908760598007EE9
:102E5000012800D19DE200BF00200599C1F8C00003
:102E600000BF0A22E0A105980830FDF7C9FD022243
:102E7000AFF2DC0105980830FDF7C2FD002240F2F8
:102E80002171059803F073FF00BF40F26D50208060
:102E900000BF059890F8C00000F0010038B905980F
:102EA00090F8C000C0F3400008B9002049E600BF18
:102EB00000BF00200599C1F8C00000BF0A22CDA1C3
:102EC00005980830FDF79CFD0222AFF234110598F9
:102ED0000830FDF795FD002240F22171059803F0BE
:102EE00046FF00BF40F27650208000BF059890F862
:102EF000C00000F0010038B9059890F8C000C0F398
:102F0000400008B900201CE600BF059890F8C000FA
:102F100000F0010080F00100059908760598007E18
:102F2000012800D135E200BF00200599C1F8C0009A
:102F300000BF0A22B2A105980830FDF761FD022208
:102F4000AFF2AC1105980830FDF75AFD00224FF49E
:102F5000E461059803F00BFF00BF40F2845020802D
:102F600000BF059890F8C00000F0010038B905983E
:102F700090F8C000C0F3400008B90020E1E500BFB0
:102F8000059890F8C00000F0010080F0010005995C
:102F900008760598007E012800D1FAE100BF0020E4
:102FA0000599C1F8C00000BF0B2298A10598083010
:102FB000FDF726FD0222AFF2202105980830FDF72B
:102FC0001FFD002240F22771059803F0D0FE00BFDC
:102FD00040F29250208000BF059890F8C00000F0A9
:102FE000010038B9059890F8C000C0F3400008B956
:102FF0000020A6E500BF059890F8C00000F0010091
:1030000080F00100059908760598007E012800D11E
:10301000BFE100BF00200599C1F8C00000BF0D222C
:103020007DA105980830FDF7EBFC0222AFF2982154
:1030300005980830FDF7E4FC002240F22C71059859
:1030400003F095FE00BF4FF4B460208000BF0598E8
:1030500090F8C00000F0010038B9059890F8C00061
:10306000C0F3400008B900206BE500BF059890F858
:10307000C00000F0010080F0010005990876059875
:10308000007E012800D184E100BF00200599C1F82D
:10309000C00000BF0922AFF2DC2105980830FDF71F
:1030A000AFFC61490868FDF721F986B25E483246F7
:1030B000016805980830FDF7A3FC0322AFF2F82160
:1030C00005980830FDF79CFC5748406858B15649B0
:1030D0004868FDF70BF986B25348324641680598B7
:1030E0000830FDF78DFC0322AFF22431059808303B
:1030F000FDF786FC4C48806858B14B498868FDF75D
:10310000F5F886B248483246816805980830FDF7E0
:1031100077FC0122AFF2543105980830FDF770FCBE
:103120000222AFF28C3105980830FDF769FC0022CD
:1031300040F22671059803F01AFE00BF4FF4B76005
:10314000208000BF059890F8C00000F0010038B959
:10315000059890F8C000C0F3400008B90020F0E4E2
:1031600000BF059890F8C00000F0010080F0010059
:10317000059908760598007E012800D109E100BF75
:1031800000200599C1F8C00000BF082227A10598BA
:103190000830FDF735FC0222AFF2044105980830F3
:1031A000FDF72EFC002240F22471059803F0DFFDAC
:1031B00000BF40F2C650208000BF059890F8C000C4
:1031C00000F0010048B9059890F8C000C0F3400035
:1031D00018B90020B5E49DE0F8E12DE041542B43FF
:1031E000474143543D31000041542B43474154541F
:1031F0003D30000041542B43474154543D310000C1
:1032000041542B43495053485554000041542B43DB
:1032100049504D55583D310041542B434950525867
:103220004745543D310000001C04002041542B430D
:10323000494943520000000000BF059890F8C000C3
:1032400000F0010080F00100059908760598007EE5
:10325000012800D19DE000BF00200599C1F8C00001
:1032600000BF0822FEA105980830FDF7C9FB022225
:10327000AFF2DC4105980830FDF7C2FB002240F2B6
:103280002571059803F073FD00BF40F2D4502080F3
:1032900000BF059890F8C00000F0010048B900E0B8
:1032A0004AE2059890F8C000C0F3400008B9002039
:1032B00047E400BF059890F8C00000F0010080F0DE
:1032C0000100059908760598007E012804D160E088
:1032D0004FE08BE0B8E059E100BF00200599C1F84C
:1032E000C00000BF0B22E1A105980830FDF788FB64
:1032F0000222AFF25C5105980830FDF781FB0022F5
:1033000040F23271059803F032FD00BF40F2E25006
:10331000208000BF059890F8C00000F0010048B977
:10332000059890F8C000C0F3400018B9002008E4E8
:1033300077E2A3E200BF00BF00200599C1F8C000FA
:1033400000BF0C22CCA105980830FDF759FB0222E2
:10335000AFF2BC5105980830FDF752FB002240F255
:103360002371059803F003FD00BF40F2EB5020806D
:1033700000BF059890F8C00000F0010038B905982A
:1033800090F8C000C0F3400008B9002018E400BF66
:1033900000BF0598C08905998881BEE40598808999
:1033A00040F2037188427DD1059880890599C881D2
:1033B00000BF00200599C1F8C00000BF0C22B2A1D7
:1033C00005980830FDF71CFB0222AFF23461059826
:1033D0000830FDF715FB002240F22371059803F039
:1033E000C6FC00BF40F2FA50208000BF059890F85C
:1033F000C00000F0010038B9059890F8C000C0F393
:10340000400008B9002050E400BF00BF002005992B
:10341000C1F8C00000BF0A22AFF23421059808307D
:10342000FDF7EEFA0222AFF2906105980830FDF741
:10343000E7FA002240F22171059803F098FC00BFE2
:1034400040F20260208000BF059890F8C00000F0B4
:10345000010038B9059890F8C000C0F3400008B9E1
:10346000002022E400BF059890F8C00000F00100A1
:1034700080F00100059908760598C0890599888132
:1034800000BF0598B830FDF717FE00200599888128
:1034900081490880814908808149088081490880E4
:1034A000814900E016E00880804908808049088052
:1034B00080490880059890F8BC0000F0010040B9F0
:1034C000059890F8BC0020F00200801C059981F856
:1034D000BC0022E40598808940F2297188427DD1A0
:1034E000059880890599C8817348416902A8FEF74B
:1034F0000BFD00BF00200599C1F8C00000BF0F22DE
:103500006EA105980830FDF77BFA6B494868FCF717
:10351000EDFE86B268483246416805980830FDF7EE
:103520006FFA0322AFF2607105980830FDF768FA70
:1035300061490868FCF7DAFE86B25F4832460168E6
:1035400005980830FDF75CFA022260A10598083062
:10355000FDF756FA02A8FCF7C9FE86B2324602A968
:1035600005980830FDF74CFA0222AFF2D4710598A5
:103570000830FDF745FA002240F22971059803F062
:10358000F6FB00BF4FF4C360208000BF059890F8A1
:10359000C00000F0010038B9059890F8C000C0F3F1
:1035A000400008B9002046E400BF059890F8C0002C
:1035B00000F0010080F00100059908760598007E72
:1035C00038BB00BF40F21E60208000BF059890F815
:1035D000C000C0F3C00078B9059800E07FE090F823
:1035E000C000C0F3001038B9059890F8C000C0F3CF
:1035F000401008B900201EE400BF059890F8C000F4
:10360000C0F3C00028B1002028702B48C06805997D
:1036100048670598C0890599888100BF0598B8302A
:10362000FDF74AFD0020059988811B4908801B4948
:1036300008801B4908801B4908801B4908801B49DA
:1036400008801B4908801B490880059890F8BC0039
:1036500000F0010018B9059890F8BC0038E03DE092
:1036600041542B43494653520000000041542B481B
:103670005454505445524D0041542B5341504252E2
:103680003D312C310000000041542B534150425237
:103690003D302C310000000060000020620000205E
:1036A0006400002066000020680000206A000020FE
:1036B0006C0000206E0000201C04002041542B43AD
:1036C000495053544152543D302C2200222C0000CA
:1036D00020F00200801C059981F8BC005DE6059889
:1036E000808940F22B71884273D1059880890599B1
:1036F000C881FE48416902A8FEF706FC00BF002011
:103700000599C1F8C00000BF0D22F9A10598083045
:10371000FDF776F90222AFF6801105980830FDF723
:103720006FF9002240F22B71059803F020FB00BFD7
:1037300040F23460208000BF059890F8C000C0F3CC
:10374000400038B9059890F8C000C0F3801008B95F
:10375000002013E400BF0599496F01F11600897D2F
:1037600021F001010170059890F8C000C0F38010AD
:1037700080F00100059908760598C089059988812F
:1037800000BF0598B830FDF797FC002005998881A7
:10379000DB490880DB490880DB490880DB49088079
:1037A000DB490880DB490880DB490880DB49088069
:1037B000059890F8BC0000F0010040B9059890F819
:1037C000BC0020F00200801C059981F8BC00E4E5F3
:1037D000FFE70598808940F22A71884268D10598F0
:1037E00080890599C88100BF00200599C1F8C000F3
:1037F00000BF0C22CAA105980830FDF701F902228A
:10380000AFF66C2105980830FDF7FAF8002240F277
:103810002A71059803F0ABFA00BF40F244602080A3
:1038200000BF059890F8C000C0F3800038B9059833
:1038300090F8C000C0F3400008B9002014E400BFB5
:10384000059890F8C000C0F3800080B300BF00204E
:103850000599C1F8C00000BFA448406982B2A348DE
:10386000016805A8FDF7CCF80122694605A8FDF717
:10387000C7F800BF40F24C60208000BF059890F868
:10388000C000C00938B9059890F8C10000F00100E7
:1038900008B9002063E400BF059890F8C000C00993
:1038A00008B1002000E005200599087613E000E04B
:1038B0003DE0059890F8C000C0F3400058B105986D
:1038C00090F8BC0020F080008030059981F8BC00A1
:1038D0000120059908760598C0890599888100BF5F
:1038E0000598B830FDF7E8FB0020059988818449E8
:1038F0000880844908808449088084490880844974
:103900000880844908808449088084490880059893
:1039100090F8BC0000F0010040B9059890F8BC0098
:1039200020F00200801C059981F8BC0035E505985F
:10393000808940F22C7188427ED105988089059952
:10394000C881059800687A49086000BF40F25A6053
:10395000208000BF0598006875490968401AA98A47
:10396000884201D2002035E400BF288940F2B451DA
:10397000884201DD0846288100BF00200599C1F872
:10398000C00000BF0E226BA105980830FDF738F883
:10399000297802A8FEF7B8FA02A8FCF7A7FC86B2BD
:1039A000324602A905980830FDF72AF8012265A1E0
:1039B00005980830FDF724F8298902A8FEF7A4FA33
:1039C00002A8FCF793FC86B2324602A9059808309B
:1039D000FDF716F80222AFF6404105980830FDF7D2
:1039E0000FF8002240F22C71059803F0C0F900BFD7
:1039F00040F26A60208000BF059890F8C00000F097
:103A0000010038B9059890F8C000C0F3400008B92B
:103A100000204DE400BF059890F8C00000F00100C0
:103A200080F00100059908760598007E60B96989E3
:103A3000E8680844E86000E032E02C48006918B10A
:103A400068892A49096908800598C089059988818B
:103A500000BF0598B830FDF72FFB0020059988813D
:103A60002749088027490880274908802749088076
:103A70002749088027490880274908802749088066
:103A8000059890F8BC0000F0010040B9059890F846
:103A9000BC0020F00200801C059981F8BC007CE489
:103AA0000598808940F20471884274D10598808914
:103AB0000599C88100BF00200599C1F8C00000BF6A
:103AC0000B2221A105980830FCF79AFF0222AFF6DD
:103AD000385105980830FCF793FF002240F22D7111
:103AE000059803F044F900BF34E000001C040020F6
:103AF00041542B434950434C4F53453D3000000047
:103B000060000020620000206400002066000020A9
:103B1000680000206A0000206C0000206E00002079
:103B200041542B43495053454E443D300000000062
:103B30007000002041542B43495052584745543D92
:103B4000322C00002C00000041542B4854545049A2
:103B50004E4954004FF4D060208000BF059890F883
:103B6000C00000F0010038B9059890F8C000C0F31B
:103B7000400008B9002009E400BF059890F8C00093
:103B800000F0010080F00100059908760598007E9C
:103B9000012801D137E062E000BF00200599C1F89B
:103BA000C00000BF1322FDA105980830FCF728FFD4
:103BB0000222AFF61C6105980830FCF721FF0022B5
:103BC00040F22D71059803F0D2F800BF40F28E60EC
:103BD000208000BF059890F8C00000F0010038B9BF
:103BE000059890F8C000C0F3400008B900200AE42E
:103BF00000BF059890F8C00000F0010080F00100BF
:103C00000599087600BF0598C0890599888100BF8D
:103C10000598B830FDF750FA002005998881E449ED
:103C20000880E4490880E4490880E4490880E449C0
:103C30000880E4490880E4490880E4490880059840
:103C400090F8BC0000F0010040B9059890F8BC0065
:103C500020F00200801C059981F8BC0039E4059829
:103C6000808940F2077188427ED105988089059944
:103C7000C88100BF00200599C1F8C00000BF0C2218
:103C8000D3A105980830FCF7BBFE0598D0F89C102E
:103C900002A8FEF739F902A8FCF728FB86B23246E3
:103CA00002A905980830FCF7ABFE0622CCA10598C6
:103CB0000830FCF7A5FE0222AFF624710598083003
:103CC000FCF79EFE002240F22F71059803F04FF89A
:103CD00000BF40F2A260208000BF059890F8C100AC
:103CE000C0F3800068B9059890F8C00000F00100AA
:103CF00038B9059890F8C000C0F3400008B900201A
:103D000051E400BF059890F8C000C0F3400098B996
:103D1000059890F8C100C0F3800068B1B2A003F02C
:103D2000B5FD0598D0F89C0082B20598D0F898109F
:103D300005A8FCF765FE00E02AE000BF0020059919
:103D4000C1F8C00000BF00BF40F2AE60208000BFDD
:103D5000059890F8C00000F0010048B9059890F867
:103D6000C000C0F3400000E03EE008B900201AE4C3
:103D700000BF059890F8C00000F0010080F001003D
:103D8000059908760598007E012800D100E000BF63
:103D90000598C0890599888100BF0598B830FDF75E
:103DA0008BF9002005998881814908808149088024
:103DB00081490880814908808149088081490880BB
:103DC0008149088081490880059890F8BC0000F07E
:103DD000010040B9059890F8BC0020F00200801C5A
:103DE000059981F8BC0079E40598808940F2067154
:103DF00088427CD1059880890599C88100BF002040
:103E00000599C1F8C00000BF13227DA105980830B4
:103E1000FCF7F6FD0599D1F89000FCF767FA86B239
:103E20000598D0F8901032460830FCF7E9FD0122E1
:103E300078A105980830FCF7E3FD02226FA10598F0
:103E40000830FCF7DDFD002240F22E71059802F0EB
:103E50008EFF00BF40F2C460208000BF059890F83C
:103E6000C00000F0010038B9059890F8C000C0F318
:103E7000400008B900206CE400BF059890F8C0002D
:103E800000F0010080F00100059908760598007E99
:103E9000012800D155E000BF00200599C1F8C000FD
:103EA00000BF0E225CA105980830FCF7A9FD05981B
:103EB00090F88C003030C0B20190012201A905A811
:103EC000FCF79EFD02224DA105980830FCF798FDF5
:103ED00000224FF4E661059802F049FF00BF40F26E
:103EE000D460208000BF059890F8C00000E09BE0FF
:103EF00000F0010038B9059890F8C000C0F3400008
:103F000008B9002025E400BF059890F8C00000F033
:103F1000010080F00100059908760598007E0128CF
:103F200000D10EE000BF40F2DC60208000BF0598A9
:103F300090F8C100C0F3400008B9002009E400BFB8
:103F400000BF0598C0890599888100BF0598B830E1
:103F5000FDF7B2F8002005998881154908801549B8
:103F600008801549088015490880154908801549B9
:103F700008801549088015490880059890F8BC000C
:103F800000F0010040B9059890F8BC0020F0020054
:103F9000801C059981F8BC00D5E3000041542B48F2
:103FA000545450504152413D22434944222C310047
:103FB00060000020620000206400002066000020F5
:103FC000680000206A0000206C0000206E000020C5
:103FD00041542B48545450444154413D000000008A
:103FE0002C3130303030000053656E64696E6720CC
:103FF00061637475616C2064617461210D0A000055
:1040000041542B48545450504152413D2255524C3A
:10401000222C22002200000041542B4854545041CD
:104020004354494F4E3D00000598808940F231715C
:1040300088427DD1059880890599C88100BF0020FC
:104040000599C1F8C00000BF0C22FEA105980830F8
:10405000FCF7D6FC0598D0F8A41002A8FDF754FF91
:1040600002A8FCF743F986B2324602A90598083047
:10407000FCF7C6FC0122AFF2345105980830FCF77A
:10408000BFFC0598B0F8A81002A8FDF73DFF02A8F4
:10409000FCF72CF986B2324602A905980830FCF7E5
:1040A000AFFC0222AFF2AC0105980830FCF7A8FC87
:1040B000002240F23171059802F059FE00BF40F233
:1040C000EE60208000BF059890F8C00000F001006D
:1040D00038B9059890F8C000C0F3400008B9002036
:1040E00041E400BF059890F8C00000F0010080F0A6
:1040F0000100059908760598007E88B90598D0F8E2
:10410000A410D0F8AC0001440598C0F8A410D14820
:10411000C06828B10598D0F8AC00CE49C9680860DD
:104120000598C0890599888100BF0598B83000E0DE
:1041300024E0FCF7C1FF002005998881C64908806A
:10414000C6490880C6490880C6490880C649088013
:10415000C6490880C6490880C6490880059890F875
:10416000BC0000F0010040B9059890F8BC0020F0B8
:104170000200801C059981F8BC00E4E20598808962
:10418000B0F5E16F7AD1059880890599C88100BFA3
:1041900000200599C1F8C00000BF1722B6A10598FC
:1041A0000830FCF72DFC0599D1F89000FCF79EF83B
:1041B00086B20598D0F8901032460830FCF720FC03
:1041C0000122AFF2B01105980830FCF719FC022269
:1041D000AFF2D81105980830FCF712FC002240F22B
:1041E0002E71059802F0C3FD00BF40F205702080DB
:1041F00000BF059890F8C00000F0010038B905989C
:1042000090F8C000C0F3400008B90020B3E400BF3C
:10421000059890F8C00000F0010080F001000599B9
:1042200008760598C0890599888100BF0598B8303F
:10423000FCF742FF0020059988818749088087495B
:10424000088087490880874908808749088087490E
:1042500008808749088087490880059890F8BC0045
:1042600000F0010040B9059890F8BC0020F0020071
:10427000801C059981F8BC0065E2FFE705988089FC
:1042800040F2327188425ED100BF00200599C1F82A
:10429000C00000BF0B22AFF62C4105980830FCF798
:1042A000AFFB0222AFF2AC2105980830FCF7A8FB67
:1042B000002240F23271059802F059FD00BF40F231
:1042C0001270208000BF059890F8C00000F0010037
:1042D00038B9059890F8C000C0F3400008B9002034
:1042E00049E400BF059890F8C00000F0010080F09C
:1042F00001000599087600BF0598B830FCF7DCFE90
:1043000000200599888154490880544908805449FF
:104310000880544908805449088054490880544909
:10432000088054490880059890F8BC0000F001000E
:1043300040B9059890F8BC0020F00200801C059957
:1043400081F8BC00FFE10598808940F2097188423C
:1043500065D1059880890599C88100BF002005991D
:10436000C1F8C00000BF0B2249A105980830FCF736
:1043700047FB0222AFF27C3105980830FCF740FB86
:10438000002240F23371059802F0F1FC00BF4FF4B7
:10439000E460208000BF059890F8C00000F00100A4
:1043A00038B9059890F8C000C0F3400008B9002063
:1043B0001DE400BF059890F8C00000F0010080F0F7
:1043C0000100059908760598C0890599888100BF84
:1043D0000598B830FCF770FE0020059988811E49C9
:1043E00008801E4908801E4908801E4908801E4911
:1043F00008801E4908801E4908801E4908800598CB
:1044000090F8BC0000F0010040B9059890F8BC009D
:1044100020F00200801C059981F8BC0093E105980A
:10442000808940F20B7188428CD10598808905996A
:10443000C88100BF00200599C1F8C00000BF0C2250
:104440002CE0000041542B48545450524541443D07
:10445000000000001C04002060000020620000201A
:104460006400002066000020680000206A00002030
:104470006C0000206E00002041542B4854545050D2
:104480004152413D22434F4E54454E54222C22006E
:1044900041542B4654504349443D3100ADA1059849
:1044A0000830FCF7ADFAAF490868FBF71FFF86B28A
:1044B000AC483246016805980830FCF7A1FA0122A1
:1044C000AFF2B04105980830FCF79AFA0222AFF239
:1044D000D44105980830FCF793FA002240F2347179
:1044E000059802F044FC00BF40F23170208000BF0C
:1044F000059890F8C00000F0010038B9059890F8D0
:10450000C000C0F3400008B9002030E400BF0598A7
:1045100090F8C00000F0010080F0010005990876D5
:104520000598007E012800D1E1E08E48416902A88B
:10453000FDF7EAFC00BF00200599C1F8C00000BFEC
:104540000B2289A105980830FCF75AFA02A8FBF75C
:10455000CDFE86B2324602A905980830FCF750FA23
:104560000222AFF2685105980830FCF749FA0022A0
:1045700040F23971059802F0FAFB00BF4FF4E86091
:10458000208000BF059890F8C00000F0010038B905
:10459000059890F8C000C0F3400008B900206AE414
:1045A00000BF059890F8C00000F0010080F0010005
:1045B000059908760598007E012800D197E000BF94
:1045C00000200599C1F8C00000BF0A2269A1059822
:1045D0000830FCF715FA63494868FBF787FE86B296
:1045E00060483246416805980830FCF709FA012214
:1045F000AFF2E05105980830FCF702FA0222AFF260
:10460000046105980830FCF7FBF9002240F235718F
:10461000059802F0ACFB00BF40F24F70208000BF55
:10462000059890F8C00000F0010038B9059890F89E
:10463000C000C0F3400008B900201CE400BF05988A
:1046400090F8C00000F0010080F0010005990876A4
:104650000598007E012800D149E000BF002005999F
:10466000C1F8C00000BF0A2245A105980830FCF738
:10467000C7F93C498868FBF739FE86B239483246AB
:10468000816805980830FCF7BBF90122AFF27C6124
:1046900005980830FCF7B4F90222AFF2A061059842
:1046A0000830FCF7ADF9002240F23671059802F0AF
:1046B0005EFB00BF40F25E70208000BF059890F85E
:1046C000C00000F0010038B9059890F8C000C0F3B0
:1046D000400008B9002015E400BF059890F8C0001C
:1046E00000F0010080F001000599087600BF0598F0
:1046F000C0890599888100BF0598B830FCF7DCFCBB
:104700000020059988812149088021490880214994
:1047100008802149088021490880214908802149D1
:10472000088021490880059890F8BC0000F001003D
:1047300040B9059890F8BC0020F00200801C059953
:1047400081F8BC0000BF00BF00BF00202080032014
:10475000C6E4000041542B465450534552563D2266
:10476000000000001C04002041542B465450504FC0
:1047700052543D0041542B465450554E3D220000AA
:1047800041542B46545050573D22000060000020F9
:104790006200002064000020660000206800002005
:1047A0006A0000206C0000206E00002070B50546F5
:1047B0000C46288840F25732811A90427ED004DCA1
:1047C00040B1B0F5537F7AD125E00B2978D0162976
:1047D000F9D12FE1A08940F20241884253D100BFB4
:1047E0000020C4F8C00000BF0722B1A104F10800F6
:1047F000FCF706F90222B0A104F10800FCF700F969
:10480000002240F20241204602F0B1FA00BF4FF40C
:104810005370288000BF94F8C00000F0010030B948
:1048200094F8C000C0F3400008B9002070BD00BF7C
:1048300094F8C00000F0010080F00100207600BF75
:1048400004F1B800FCF738FC0020A0819B490880E7
:104850009B4908809B4908809B4908809B490880A8
:104860009B4908809B4908809B49088094F8BC00BC
:1048700000F0010030B994F8BC0020F00200801C68
:1048800084F8BC000EE1A08940F20141884257D172
:1048900000BF0020C4F8C00000BF07228FA104F1B0
:1048A0000800FCF7ADF8022283A104F10800FCF730
:1048B000A7F8002240F20141204602E008E0F2E0C1
:1048C0005FE002F054FA00BF40F25730288000BF8A
:1048D00094F8C00000F0010030B994F8C000C0F3B3
:1048E000400008B90020A1E700BF94F8C00000F024
:1048F000010080F00100207600BF04F1B800FCF751
:10490000DBFB0020A0816D4908806D4908806D495E
:1049100008806D4908806D4908806D4908806D499F
:1049200008806D49088094F8BC0000F0010030B99F
:1049300094F8BC0020F00200801C84F8BC00B1E0B8
:10494000A08940F20341884253D100BF0020C4F83F
:10495000C00000BF072263A104F10800FCF750F873
:10496000022255A104F10800FCF74AF8002240F2A7
:104970000341204602F0FBF900BF40F2623028807C
:1049800000BF94F8C00000F0010030B994F8C000F6
:10499000C0F3400008B9002048E700BF94F8C00009
:1049A00000F0010080F00100207600BF04F1B800A3
:1049B000FCF782FB0020A081404908804049088024
:1049C00040490880404908804049088040490880A3
:1049D000404908804049088094F8BC0000F001007C
:1049E00030B994F8BC0020F00200801C84F8BC00B0
:1049F00058E0A08940F20541884253D100BF002011
:104A0000C4F8C00000BF072238A104F10800FBF77A
:104A1000F7FF022228A104F10800FBF7F1FF0022B2
:104A200040F20541204602F0A2F900BF40F26D308D
:104A3000288000BF94F8C00000F0010030B994F85D
:104A4000C000C0F3400008B90020EFE600BF94F8B2
:104A5000C00000F0010080F00100207600BF04F1EA
:104A6000B800FCF729FB0020A081144908801449F4
:104A700008801449088014490880144908801449A2
:104A80000880144908801449088094F8BC0000F09C
:104A9000010030B994F8BC0020F00200801C84F8BA
:104AA000BC0000BF00BF00BF002028800320BDE67F
:104AB00041542B43474D49000D0A0000600000207F
:104AC00062000020640000206600002068000020D2
:104AD0006A0000206C0000206E00002041542B432F
:104AE000474D4D0041542B43474D520041542B43F9
:104AF00047534E007CB505460C46288840F2D44208
:104B0000811A90427DD00ADC80B1B0F5956F27D034
:104B1000A0F2B540002875D0122874D141E10D29CA
:104B200072D01D2971D02B29F7D138E394F86C008D
:104B3000012851D000BF0020C4F8C00000BF0822E7
:104B4000FEA104F10800FBF75BFF0222FEA104F1C5
:104B50000800FBF755FF00BF4FF49560288000BFA9
:104B600094F8C00000F0010030B994F8C000C0F320
:104B7000400008B900207CBD00BF94F86C000128FB
:104B80002AD00820207600BF04F1B800FCF794FA80
:104B90000020A081ED490880ED490880ED4908809A
:104BA000ED490880ED490880ED490880ED4908800D
:104BB000ED49088094F8BC0000F0010030B994F889
:104BC000BC0020F00200801C84F8BC0000BF00BFC5
:104BD000002028800220CEE7A08940F201518842BF
:104BE0007ED100BF0020C4F8C00000BF0822DFA1B2
:104BF00004F10800FBF704FF0222DFA104F1080022
:104C000004E038E139E003E3CDE152E2FBF7F8FEDE
:104C1000DA490868FBF76AFB86B2D8483246016871
:104C200004F10800FBF7ECFE0722D5A104F108000F
:104C3000FBF7E6FED1494868FBF758FB86B2CF4840
:104C40003246416804F10800FBF7DAFE0122CEA1EA
:104C500004F10800FBF7D4FE0222BBA104F1080016
:104C6000FBF7CEFE002240F20151204602F07FF811
:104C700000BF40F2B540288000BF94F8C00000F0AB
:104C8000010030B994F8C000C0F3400008B900201A
:104C900071E700BF94F8C00000F0010080F001004F
:104CA000207600BF04F1B800FCF706FA0020A081CE
:104CB000A6490880A6490880A6490880A649088018
:104CC000A6490880A6490880A6490880A649088008
:104CD00094F8BC0000F0010040B994F8BC0000E07A
:104CE00005E020F00200801C84F8BC008FE2A0895F
:104CF00040F2025188427DD100BF0020C4F8C000BC
:104D000000BF9E4841696846FDF7FEF8082297A15A
:104D100004F10800FBF774FE6846FBF7E7FA86B279
:104D20003246694604F10800FBF76AFE022292A1AE
:104D300004F10800FBF764FE90490868FBF7D6FA17
:104D400086B28E483246016804F10800FBF758FE2F
:104D500007228BA104F10800FBF752FE874948683F
:104D6000FBF7C4FA86B285483246416804F1080070
:104D7000FBF746FE012284A104F10800FBF740FE88
:104D8000022271A104F10800FBF73AFE002240F272
:104D90000251204601F0EBFF00BF40F2C7402880DF
:104DA00000BF94F8C00000F0010030B994F8C000D2
:104DB000C0F3400008B90020DDE600BF94F8C00051
:104DC00000F0010080F00100207600BF04F1B8007F
:104DD000FCF772F90020A0815C4908805C490880DA
:104DE0005C4908805C4908805C4908805C4908800F
:104DF0005C4900E00FE008805B49088094F8BC0043
:104E000000F0010030B994F8BC0020F00200801CD2
:104E100084F8BC00FBE1A08940F20451884262D1D1
:104E200000BF0020C4F8C00000BF54484169684674
:104E3000FDF76AF8082255A104F10800FBF7E0FD30
:104E40006846FBF753FA86B23246694604F1080019
:104E5000FBF7D6FD02223CA104F10800FBF7D0FDD0
:104E6000002240F20451204601F081FF00BF40F2D1
:104E7000D440288000BF94F8C00000F0010030B991
:104E800094F8C000C0F3400008B9002073E600BFEA
:104E900094F8C00000F0010080F00100207600BF0F
:104EA00004F1B800FCF708F90020A0812749088028
:104EB0002749088027490880274908802749088012
:104EC00027490880274908802749088094F8BC00B2
:104ED00000F0010030B994F8BC0020F00200801C02
:104EE00084F8BC0093E1A08940F2035188427DD14F
:104EF00000BF0020C4F8C00000BF204841696846D8
:104F0000FDF702F8082219A104F10800FBF778FD6B
:104F10006846FBF7EBF986B23246694604F10800B1
:104F2000FBF76EFD022208A104F10800FBF768FD03
:104F3000002240F2035120462EE0000041542B4352
:104F400050494E3F000000000D0A000060000020A4
:104F5000620000206400002066000020680000203D
:104F60006A0000206C0000206E00002041542B439A
:104F70005042573D000000002C2200001C0400207D
:104F8000222C3132392C22002200000041542B43C4
:104F90005042523D0000000001F0E9FE00BF40F227
:104FA000E140288000BF94F8C00000F0010030B953
:104FB00094F8C000C0F3400008B90020DBE500BF52
:104FC00094F8C00000F0010080F00100207600BFDE
:104FD00004F1B800FCF770F80020A0818F49088028
:104FE0008F4908808F4908808F4900E015E00880CC
:104FF0008E4908808E4908808E4908808E49088035
:1050000094F8BC0000F0010030B994F8BC0020F026
:105010000200801C84F8BC00F9E0A08940F2055130
:1050200088427CD100BF0020C4F8C00000BF082225
:10503000AFF2A80104F10800FBF7E2FC7F484069E9
:105040004FF6FF7202EA10416846FCF75DFF6846C2
:10505000FBF74CF986B23246694604F10800FBF7CB
:10506000CFFC012276A104F10800FBF7C9FC7348CC
:10507000406981B26846FCF747FF6846FBF736F99E
:1050800086B23246694604F10800FBF7B9FC0222F9
:10509000AFF24C1104F10800FBF7B2FC002240F221
:1050A0000551204601F063FE00BF40F2F140288028
:1050B00000BF94F8C00000F0010030B994F8C000BF
:1050C000C0F3400008B9002055E500BF94F8C000C7
:1050D00000F0010080F00100207600BF04F1B8006C
:1050E000FBF7EAFF0020A0814C4908804C4908806A
:1050F0004C4908804C4908804C4908804C4908803C
:105100004C4908804C49088094F8BC0000F001002C
:1051100040B994F8BC0020F00200801C00E002E0DE
:1051200084F8BC0073E0A08940F2065188426ED139
:1051300000BF0020C4F8C00000BF082241A104F154
:105140000800FBF75DFC0122AFF2C41104F1080076
:10515000FBF756FC39490868FBF7C8F886B23748B0
:105160003246016804F10800FBF74AFC0122AFF265
:10517000E81104F10800FBF743FC0222AFF23821EA
:1051800004F10800FBF73CFC002240F206512046E7
:1051900001F0EDFD00BF40F2FF40288000BF94F811
:1051A000C00000F0010030B994F8C000C0F3400026
:1051B00008B90020DFE400BF94F8C00000F001004F
:1051C00080F00100207600BF04F1B800FBF774FF07
:1051D0000020A081114908801149088011490880E8
:1051E0001149088011490880114908801149088037
:1051F0001149088094F8BC0000F0010030B994F81F
:10520000BC0020F00200801C84F8BC0000BF00BF7E
:1052100000BF002028800320ADE4000060000020D3
:10522000620000206400002066000020680000206A
:105230006A0000206C0000206E0000201C0400208A
:105240002C00000041542B435042463D000000001A
:1052500070B505460C46288840F2AF32811A90425C
:105260007ED006DC50B1A0F27E30E8B1152878D1AE
:10527000B9E0162976D02329F9D1A6E200BF002093
:10528000C4F8C00000BF0822FEA104F10800FBF72B
:10529000B7FB0222FEA104F10800FBF7B1FB00BF3F
:1052A00040F27E30288000BF94F8C00000F001007A
:1052B00030B994F8C000C0F3400008B9002070BDB8
:1052C00000BF94F8C000C0F3400050B30120207626
:1052D00000BF04F1B800FBF7EFFE0020A081ED490C
:1052E0000880ED490880ED490880ED490880ED49C6
:1052F0000880ED490880ED490880ED49088094F860
:10530000BC0000F0010030B994F8BC0020F00200AD
:10531000801C84F8BC0000BF00BF00202880022051
:10532000CDE7A08940F2011188427CD194F86C004D
:10533000022830D094F86C0006282CD000BF04F16D
:10534000B800FBF7B9FE0020A081D2490880D249FD
:105350000880D2490880D2490880D249088002E0FA
:105360000AE16BE2C3E1D0490880D0490880D04906
:10537000088094F8BC0000F0010030B994F8BC003B
:1053800020F00200801C84F8BC0000BF00BF002099
:105390002880022093E700BF0020C4F8C00000BFAF
:1053A0000822C4A104F10800FBF72AFBC4490868DD
:1053B000FAF79CFF86B2C2483246016804F1080041
:1053C000FBF71EFB0222B2A104F10800FBF718FB59
:1053D000002240F20111204601F0C9FC00BF40F25A
:1053E0009330288000BF94F8C00000F0010030B96D
:1053F00094F8C000C0F3400008B900205FE700BF88
:1054000094F8C00000F0010050B114F8BC0F20F077
:105410000400001D2070207820F0080004F8BC096A
:1054200094F8C00000E038E0C0F3400050B114F838
:10543000BC0F20F004002070207820F00800083015
:1054400004F8BC0994F8C00000F0010080F00100ED
:10545000207600BF04F1B800FBF72EFE0020A081EB
:105460008C4908808C4908808C4908808C490880C8
:105470008C4908808C4908808C4908808C490880B8
:1054800094F8BC0000F0010030B994F8BC0020F0A2
:105490000200801C84F8BC00CFE1A089B0F5817FB8
:1054A00076D194F86C0003282CD094F86C0007286F
:1054B00028D000BF04F1B800FBF7FEFD0020A0815A
:1054C00074490880744908807449088074490880C8
:1054D00074490880744908807449088074490880B8
:1054E00094F8BC0000F0010030B994F8BC0020F042
:1054F0000200801C84F8BC0000BF00BF0020288090
:105500000220DCE600BF0020C4F8C00000BF082273
:1055100068A104F10800FBF773FA69490868FAF713
:10552000E5FE86B266483246016804F10800FBF7E2
:1055300067FA012263A104F10800FBF761FA6049F0
:105540004868FAF7D3FE86B25D483246416804F1F6
:105550000800FBF755FA02224DA104F10800FBF701
:105560004FFA00224FF48171204601F000FC00BF89
:1055700040F2AF30288000BF94F8C00000F0010076
:1055800038B994F8C000C0F3400010B9002096E686
:105590004BE000BF94F8C00000F0010050B114F8D7
:1055A000BC0F20F0100010302070207820F0200078
:1055B00004F8BC0994F8C000C0F3400050B114F8DE
:1055C000BC0F20F010002070207820F02000203048
:1055D00004F8BC0994F8C00000F0010080F001005C
:1055E000207600BF04F1B800FBF766FD0020A08123
:1055F00028490880284908802849088028490880C7
:1056000028490880284908802849088028490880B6
:1056100094F8BC0000F0010030B994F8BC0020F010
:105620000200801C84F8BC0007E1A08940F203114D
:1056300088427DD100BF0020C4F8C00000BF102206
:1056400021A104F10800FBF7DBF91D490868FAF70E
:105650004DFE86B21A483246016804F10800FBF795
:10566000CFF901221DA104F10800FBF7C9F90222BC
:1056700007A104F10800FBF7C3F9002240F203116F
:1056800020462DE041542B4350494E3F000000007E
:105690000D0A00006000002062000020640000206D
:1056A00066000020680000206A0000206C000020D6
:1056B0006E00002041542B4350494E3D0000000035
:1056C0001C0400202C00000041542B434C434B3D54
:1056D000225343222C302C22000000002200000024
:1056E00001F045FB00BF40F2C530288000BF94F8B0
:1056F000C00000F0010030B994F8C000C0F34000D1
:1057000008B90020DBE500BF94F8C00000F00100FC
:1057100080F00100207600BF04F1B800FBF7CCFC5C
:105720000020A0814849088048490880484900E095
:1057300017E00880474908804749088047490880A2
:10574000474908804749088094F8BC0000F00100F0
:1057500030B994F8BC0020F00200801C84F8BC0032
:105760006BE0A089B0F5827F67D100BF0020C4F84C
:10577000C00000BF10223CA104F10800FBF740F973
:105780003E490868FAF7B2FD86B23C4832460168E5
:1057900004F10800FBF734F90122AFF2C00104F173
:1057A0000800FBF72DF90222AFF21C1104F10800EA
:1057B000FBF726F900224FF48271204601F0D7FA58
:1057C00000BF40F2D230288000BF94F8C00000F043
:1057D000010030B994F8C000C0F3400008B90020BF
:1057E0006DE500BF94F8C00000F0010080F00100FA
:1057F000207600BF04F1B800FBF75EFC0020A0811A
:105800001149088011490880114908801149088010
:105810001149088011490880114908801149088000
:1058200094F8BC0000F0010030B994F8BC0020F0FE
:105830000200801C84F8BC0000BF00BF00BF002035
:10584000288003203BE5000060000020620000206B
:105850006400002066000020680000206A0000202C
:105860006C0000206E00002041542B434C434B3D04
:10587000225343222C312C22000000001C04002063
:1058800073B584B004461A200390FE48C56820888A
:1058900040F25B42811A904273D008DC80B1A0F2E2
:1058A000374048B309286DD01C286CD117E1162960
:1058B0006AD0242969D0322968D03F29F5D173E311
:1058C000059890F86C00012861D000BF0020059970
:1058D000C1F8C00000BF0822EBA105980830FBF713
:1058E0008FF80222EBA105980830FBF789F800BF7A
:1058F00040F23740208000BF059890F8C00000F0CB
:10590000010040B9059890F8C000C0F3400010B9FC
:10591000002006B070BD00BF059890F86C0001280B
:1059200035D008200599087600BF0598B830FBF7F8
:10593000C3FB002005998881D7490880D749088092
:10594000D7490880D7490880D7490880D7490880B7
:10595000D7490880D7490880059890F8BC0000F026
:10596000010040B9059890F8BC0020F00200801CAE
:10597000059981F8BC0000BF00BF002020800220F4
:10598000C7E7DCE024E050E375E11BE295E205980F
:1059900080890599C88100BF00200599C1F8C00021
:1059A00000BF0922C4A105980830FBF729F802229C
:1059B000B8A105980830FBF723F800224FF40471D2
:1059C000059801F0D4F900BF4FF48860208000BF33
:1059D000059890F8C00000F0010038B9059890F8DB
:1059E000C000C0F3400008B9002092E700BF05984E
:1059F000C08905998881059890F8C000C0F34000DF
:105A0000C0B3059890F8BC0020F080008030059964
:105A100081F8BC0009200599087600BF0598B830C8
:105A2000FBF74AFB0020059988819B4908809B4928
:105A300008809B4908809B4908809B4908809B49B6
:105A400008809B4908809B490880059890F8BC0015
:105A500000F0010040B9059890F8BC0020F0020069
:105A6000801C059981F8BC0000BF00BF0020208089
:105A700002204EE7FFE70598808940F20121884225
:105A80007CD100BF00200599C1F8C00000BF0922E9
:105A90008CA105980830FAF7B3FF0599486AFAF720
:105AA00025FC86B20598416A32460830FAF7A8FF0D
:105AB000012286A105980830FAF7A2FF022275A1FB
:105AC00005980830FAF79CFF81A240F20121059861
:105AD00001F04DF900BF40F25340208000BF05980F
